:020000040800F2
:10000000683600204501000811130008811200081D
:100010000F1300084B0700088126000800000000AD
:10002000000000000000000000000000A71A000807
:100030005D0C00080000000007150008F91F00080B
:100040001D290008051500084D2100080D1A00089B
:10005000290F000859180008150D00081D0D00088B
:10006000210D0008250D0008290D000809080008C9
:100070000D080008110800081508000819080008F4
:100080001D0800082108000847070008B1250008DE
:100090007D26000857070008590700082D0D0008A5
:1000A0004F21000855210008532100085121000864
:1000B0006D2100088121000899210008851200089F
:1000C000831200088912000887120008A11A00088C
:1000D000A31A0008C121000845220008C522000813
:1000E000190D0008F91800088D250008A321000843
:1000F000A9210008A7210008A52100084907000838
:100100005D0F0008491A00089D210008A51A000883
:10011000B7210008BB2100089F210008A121000889
:1001200025080008290800082D08000831080008E3
:10013000DFF80CD000F0CAFA00480047193C00086C
:1001400068360020004800473101000840EA0103FA
:100150009B0703D009E008C9121F08C0042AFAD27D
:1001600003E011F8013B00F8013B521EF9D2704741
:10017000D2B201E000F8012B491EFBD270470022E9
:10018000F6E710B513460A4604461946FFF7F0FF96
:10019000204610BD30B504460020034600E05B1C3D
:1001A000934203D2E05CCD5C401BF8D030BD2DE91A
:1001B000FE4F804681EA0300C00F0C46009021F0FC
:1001C000004123F00045B8EB0200A94105D24046AA
:1001D000214690461C460B46024623F00040104341
:1001E00047D0270DC7F30A00C3F30A510290401A03
:1001F000019040286BDAC3F3130040F4801B009891
:10020000924620B10023D2EB030A63EB0B0B01985B
:100210005946C0F14002504600F0B1F906460D467D
:1002200050465946019A00F0C9F910EB08006141A7
:10023000002487EA115284EAE7731A4340D0009AF7
:1002400062B3019A012A4FEA075215DC001B61EBE9
:1002500002014FF0004202EA0752CDE90042001CC1
:1002600041F5801132462B4600F0C9F903B0BDE8D4
:10027000F08F40462146F9E7001B61EB0201001CAC
:1002800041F5801300185B412018A2F5001747EBD9
:10029000030140EAD570B6196D4111E06D084FEACF
:1002A000360645EAC0754FEA0752001B61EB0201B2
:1002B000001C41F5801149084FEA300000195141F6
:1002C00032462B4603B0BDE8F04F00F089B90098E4
:1002D000012240000023D0EB020263EBE0730098A0
:1002E00021464FEAE074B8EB000061EB0401E9E756
:1002F00083F000435BE781F0004158E72DE9FE4FB2
:1003000081EA030404F0004421F0004100944FF01E
:10031000000B23F0004350EA01045ED052EA0304CC
:100320005BD0C3F30A54C1F30A552C44A4F2F3344E
:100330000194A0FB0254C1F3130141F48011C3F3F3
:10034000130343F4801301FB024400FB034E840AB1
:10035000970A44EA815447EA8357A4FB0768029549
:100360008D0A05FB07854FEA932C04FB0C542705E7
:10037000029D4FEA065847EA1637B5EB08056EEBC3
:10038000070C870E920E47EA811742EA8312A7FBF9
:100390000201B6EB0B0164EB00042B0D43EA0C33B6
:1003A0005E1844EB1C50DA465146E7FB0201C5F3E8
:1003B00013044FEA0B3343EA14534FEA0432019C0F
:1003C00043EA0603A4F10C040294009CCDE900B4B6
:1003D00000F015F903B0BDE8F08F00200146F9E701
:1003E0002DE9F04D81EA030404F0004B21F00045B3
:1003F00014464FF0000A23F0004150EA050220D0D5
:1004000054EA01021DD0C5F30A570246C5F313038F
:10041000C1F31300C1F30A5640F4801543F480136E
:10042000A7EB0608101BD64608F2FD3873EB050053
:1004300002D308F1010801E092185B41B8F1000F06
:1004400003DA00200146BDE8F08D00204FF4801152
:10045000064684460EE0171B73EB050705D3121BF7
:1004600063EB050306434CEA010C49084FEA3000F0
:1004700092185B4150EA0107EDD152EA030012D015
:1004800082EA040083EA0501084305D0101BAB4152
:1004900006D20122002306E000224FF0004302E0D2
:1004A0006FF0010253101AEB06004CEB085110EBF1
:1004B0000A0041EB0B01BDE8F04D00F091B80000DF
:1004C00030B5041E71F1000404DB4FF000444042DB
:1004D00064EB0101141E73F1000405DB1C464FF0B0
:1004E0000043524263EB0403994208BF904230BD7F
:1004F00030B50B46014600202022012409E021FAF4
:1005000002F59D4205D303FA02F5491B04FA02F5F0
:100510002844151EA2F10102F1DC30BD2DE9F05F87
:100520000546002092469B46884606468146402462
:100530001BE0284641464746224600F02FF8534626
:100540005A46C01A914110D311461846224600F06F
:1005500016F82D1A67EB01084F46224601200021AC
:1005600000F00DF817EB00094E41201EA4F1010424
:10057000DFDC484631462A464346BDE8F09F202A44
:1005800004DB203A00FA02F1002070479140C2F1EA
:10059000200320FA03F3194390407047202A04DB1C
:1005A000203A21FA02F00021704721FA02F3D040EC
:1005B000C2F120029140084319467047202A06DB09
:1005C000CB17203A41FA02F043EAE07306E041FA21
:1005D00002F3D040C2F1200291400843194670470F
:1005E00010B5141E73F1000408DA401C41F100013B
:1005F00092185B411A4301D120F0010010BD2DE992
:10060000F04D92469B4611B1B1FA81F202E0B0FA88
:1006100080F220329046FFF7B2FF04460F4640EAD0
:100620000A0041EA0B0153465A46084313D01146CB
:1006300053EA010019D0C8F140025046FFF7AEFF5F
:1006400005460E46504659464246FFF798FF084376
:1006500005D0012004E020463946BDE8F08D002099
:10066000054346EAE0762C4337430A986305E40ADB
:10067000A0EB08000022FD0A44EA47540A3002D5E4
:1006800000200146E9E7010510196941DDE9084547
:1006900000196941BDE8F04DA2E7C1F30A52C1F368
:1006A000130140F2FF3341F480119A4202DA002034
:1006B0000146704740F233439A42A2F2334202DCD1
:1006C0005242FFF76BBFFFF75ABF0000064C074DC1
:1006D00006E0E06840F0010394E807009847103412
:1006E000AC42F6D3FFF728FD2CCB01084CCB010818
:1006F00070B58C1810F8015B15F0070301D110F8E4
:10070000013B2A1106D110F8012B03E010F8016B10
:1007100001F8016B5B1EF9D12B0705D40023521E93
:100720000DD401F8013BFAE710F8013BCB1A921CFB
:1007300003E013F8015B01F8015B521EF9D5A142F9
:10074000D8D3002070BD70477047FEE7C1B2000AE1
:1007500040EA012070477047704700002DE9F041E2
:100760000B4D0C4E47F6FF770B4C06E02F6000F068
:100770000F00207040B103F025F9286880B2308066
:100780000104F3D4BDE8F08103F06CF8F5E7000054
:10079000445C0040CC2100204E000020810008482D
:1007A0000844D0F8001C490408D5D0F8001C48F6CD
:1007B0008F72114041F48041C0F8001C7047000066
:1007C00000500040810008480844D0F8001C490649
:1007D00008D5D0F8001C48F68F72114041F0400156
:1007E000C0F8001C70470000005000408100054820
:1007F0000844D0F8001C48F68F621140C0F8001C75
:10080000704700000050004000F066B800F064B887
:1008100000F062B800F060B800F05EB800F05CB8BC
:1008200000F05AB800F058B800F056B800F054B8CC
:1008300000F052B8C10002D5024908607047024971
:10084000486070470404024000000240002904D0C0
:10085000016841F0010101607047016821F0010168
:100860000160704702460020D10002D504490968A2
:1008700001E004490968114200D0012070470000DE
:100880000004024000000240002A03D002680A432C
:100890000260704702688A430260704730B50268A0
:1008A00047F6F0739A430C6A8B682343D1E90445F9
:1008B0002C4323438C692343CC6923434C6A234351
:1008C0008C6A234313430360CA6842600A688260EB
:1008D0004968C16030BD000010B502F01DF810205D
:1008E000FFF7C0FF01281BD04FF480542046FFF7CC
:1008F000B9FF01281DD024032046FFF7B3FF0128CC
:1009000021D0164C2046FFF7ADFF012825D1204607
:10091000FFF790FFBDE8104000211148FFF796BF98
:100920001020FFF787FFBDE8104000210D48FFF7BA
:100930008DBF2046FFF77EFF0A480021BDE810402A
:100940002830FFF783BF2046FFF774FF05480021DA
:10095000BDE810406430FFF779BF10BD0000011002
:10096000580402401C0002402DE9F047254F7968E9
:1009700001F1100528880E7ADFF88C804FF03009DD
:10098000002801D1042E04D0AC88A04215D804263A
:1009900014E03878012804D007261020A8F80000B9
:1009A0002BE01A4900200968194A89B2891C42F8CB
:1009B0001100A8F8009038701FE00226844200D988
:1009C0000446A968A0B288478246002000F026FCB1
:1009D0000146A2B2504601F055FEA1B2002001F03E
:1009E000F7F82888001B2880688820446880A8F8C9
:1009F000009008494FF44050088078680672BDE8BE
:100A0000F08700003C00002052000020505C0040B5
:100A100000600040500000202DE9F041214E746834
:100A200010342088A168002915D0A0B1A58885427E
:100A300000D90546A8B2884707462088401B208079
:100A4000608828446080002000F0C8FB0146AAB2FC
:100A5000384600F045FD2088134F302538B1134942
:100A6000280208800021084601F0B2F83D80208865
:100A7000A188884204D3716803200872BDE8F08120
:100A800018B1716805200872F8E7716806200872CD
:100A9000074800210068074A80B2801C42F8101005
:100AA0003D80EBE73C000020520000205000002079
:100AB000505C004000600040F8B5614D68684278C5
:100AC00000242946062A896801D08AB117E00278F5
:100AD000520669D18078012804D0022804D0032866
:100AE00004D061E0CC695FE00C6A5DE04C6A5BE0D9
:100AF000438823B9C388022B01D1037923B1082A83
:100B000039D00A2A3CD04FE00278530601D18388BD
:100B100033B102F07F02012A04D0022A0CD043E054
:100B2000484C41E08A6940790021904710BB6868D1
:100B3000807AF8B1434C37E0417901F00F0001F0C1
:100B400070020B06404907D501EB8001D1F8001C6B
:100B5000C1F30111090106E001EB8001D1F8001C8D
:100B6000C1F301310903394B1B7883421CD90AB9FF
:100B700001B1344C18E00078400615D1344C13E034
:100B8000027802F07F02012A0ED1827A62B1428895
:100B900052B9027942B9C288012A05D18A694079DD
:100BA0000021904700B92B4C0927002634B1686812
:100BB000468284610020A047002006E0A96868689A
:100BC000096940788847032815D069680A8AA2F520
:100BD0007F43FF3B0DD0022810D07AB10878000681
:100BE00027D5C8880090009882420BD900980882C7
:100BF00017E00F72F8BD68680772F8BD4FF0080083
:100C00000872F8BD0DD2A86890F82C00824201D27B
:100C10002E7006E0B2FBF0F300FB132008B90120B0
:100C20002870A86890F82C008882BDE8F840FFF78B
:100C30009BBE03200872084900030880F8BD00002D
:100C40003C000020391E0008005000403801002000
:100C5000D11D0008151E000850000020704700003C
:100C600010B50F490020487003F0B0FA0D4802F0AB
:100C70008BFC04466CB12246C0210A4801F002FDFB
:100C80002146012000F0A4FFBDE81040012000F043
:100C9000C3BF0021BDE81040012000F099BF000053
:100CA000700000201E22002070B502F0ABFC06464A
:100CB00002F0A2FC154C002121704FF4005500B148
:100CC000AEB1032000F09AFA608002464FF48871BA
:100CD0000F4800F005FC6188002916D00C4802F08E
:100CE00099FC608048B1032000F050FF09E02946DC
:100CF000BDE87040032000F033BF2946032000F018
:100D00002FFF618860680844606070BD700000203B
:100D1000DE21002000F0C0B800F0BEB800F0BCB882
:100D200000F0BAB800F0B8B800F0B6B800F0B4B847
:100D300001490860704700001404014010B501200B
:100D400000F09AF84B4C20B1208840F00100208040
:100D500010BD022000F090F820B1208840F0020081
:100D6000208010BD042000F087F820B1208840F0DA
:100D70000400208010BD082000F07EF820B12088FB
:100D800040F00800208010BD102000F075F820B160
:100D9000208840F01000208010BD202000F06CF86A
:100DA00020B1208840F02000208010BD402000F0BD
:100DB00063F820B1208840F04000208010BD8020E2
:100DC00000F05AF820B1208840F08000208010BD4B
:100DD0004FF4807000F050F820B1208840F480700B
:100DE000208010BD4FF4007000F046F820B120883C
:100DF00040F40070208010BD4FF4806000F03CF89B
:100E000020B1208840F48060208010BD4FF4006045
:100E100000F032F820B1208840F40060208010BD3E
:100E20004FF4805000F028F820B1208840F4805022
:100E3000208010BD4FF4005000F01EF820B1208833
:100E400040F40050208010BD4FF4804000F014F8B2
:100E500020B1208840F48040208010BD4FF4004035
:100E600000F00AF80028F8D0208840F400402080E4
:100E700010BD00000C00002001460020054A126849
:100E80000A40044B14331B680B4202D0002A00D0E6
:100E9000012070470004014008B500200090FFF7D2
:100EA0004DFF01F039FD1F48BDF800100180012001
:100EB000FFF73EFF0220FFF73BFF0420FFF738FF5C
:100EC0000820FFF735FF1020FFF732FF2020FFF743
:100ED0002FFF4020FFF72CFF8020FFF729FF4FF462
:100EE0008070FFF725FF4FF40070FFF721FF4FF4EC
:100EF0008060FFF71DFF4FF40060FFF719FF4FF40C
:100F00008050FFF715FF4FF40050FFF711FF4FF42B
:100F10008040FFF70DFFBDE808404FF40040FFF7A9
:100F200007BF00000C0000207047000004490A6859
:100F300022F010020A600A6802430A60704700004B
:100F40000020024004490A6802F038020A600A6878
:100F500002430A6070470000002002407047000012
:100F600070B50C4600286BD0364A811A1315D6147A
:100F7000904253D017DC3449344D41184FF6FF727C
:100F80001ED0994234D0B1425AD10121102000F034
:100F90001BFB600401D4200452D5BDE87040012140
:100FA000112000F011BB99423ED0B14242D0B1F5C0
:100FB000406F45D1BDE870400121080200F004BB3C
:100FC000A00405D4600403D4200401D4944209D1C0
:100FD0000121052000F0F8FA2846BDE87040012103
:100FE00000F0D2B8BDE870400121042000F0ECBA56
:100FF000200703D4E00601D4944209D1012109203D
:1010000000F0E2FA2846BDE87040012100F0BCB8CB
:10101000BDE870400121082000F0D6BABDE870405C
:101020000121202000F0D0BABDE87040012140200D
:1010300000F0CABABDE870400121802000F0C4BAB7
:1010400070BD00000014014000F8FEBF0002300037
:1010500038B50446ADF8001002228DF802200422B3
:101060008DF803202046FFF77BFF6946204600F0FD
:1010700037F838BD38B50446ADF8001002228DF8B7
:10108000022028228DF803202046FFF769FF6946D9
:10109000204600F025F838BD38B50446ADF80010FC
:1010A00002228DF8022048228DF803202046FFF707
:1010B00057FF6946204600F013F838BD38B504469E
:1010C000ADF8001003228DF8022010228DF80320C5
:1010D0002046FFF745FF6946204600F001F838BD7D
:1010E0002DE9F041002200284CD0CC7804F00F0309
:1010F000E40601D58C7823430C784FF00F0714F0E9
:10110000FF0F4FF0010C1BD005680CFA02F40E889B
:101110002640A64210D1960007FA06F825EA0805EF
:1011200003FA06F848EA0505CE78282E00D1446176
:10113000CE78482E00D10461521C082AE5D3056000
:101140000A88FF2A1ED94568002202F108060CFA17
:1011500006F40E882640A64210D1960007FA06F83B
:1011600025EA080503FA06F848EA0505CE78282E90
:1011700000D14461CE78482E00D10461521C082A67
:10118000E3D34560BDE8F081F0B5114D6B68C0F365
:101190000342440D260184B2C0F30157B440032F2B
:1011A00007D0C0020CD503209040834343F0706207
:1011B00009E023F07062686820F07060686002E007
:1011C000A34343F0706201B122436A60F0BD0000A6
:1011D000000001404161704701617047054909689D
:1011E00089B201EBC0000449001D31F8100080B243
:1011F00070470000505C00400060004005490968ED
:1012000089B201EBC0000449801D31F81000C0F321
:1012100009007047505C00400060004004490968C4
:1012200089B201EBC000034931F8100080B2704769
:10123000505C00400060004010B50F480168001D80
:101240000268001D0368002915D00C4881700C0A43
:1012500004710C0C8471090E01728272110A0173FF
:10126000110C8173110E01748374190A0175190C24
:101270008175190E017610BDE8F7FF1F540000209C
:10128000FEE77047704770477047000010B5134C79
:101290006068017A02290AD0042908D006290BD0F7
:1012A000082061680872BDE8104000F02DB9FFF712
:1012B0005BFB6068007AF4E74178052908D1017882
:1012C000490605D1C07800F0F9FBE068006A804764
:1012D000A068806880470820E3E700003C00002009
:1012E000810701D0002070476421B0FBF1F201FBBF
:1012F000120109B1012070474FF4C871B0FBF1F23F
:1013000001FB120008B10020704701207047FEE782
:101310007047704770B50F24C27801260178002A03
:101320002AD01A4A126802F4E062C2F5E062120A98
:10133000C2F10403D44045789D40827822402A437C
:1013400014018A07D30E9C4021F0030202F1E0222F
:10135000D2F80054FF2199408D430C402543C2F838
:101360000054007800F01F018E404009800000F119
:10137000E020C0F8006170BD01F01F008640480900
:10138000800000F1E020C0F8806170BD0CED00E04D
:101390000249084302490860704700000000FA054E
:1013A0000CED00E0024A1140014302480160704721
:1013B00080FFFF1F08ED00E070B50220324D696824
:1013C0004C780A78530606D002F07F01012931D00B
:1013D000022934D03DE0092C06D0052C07D0032C7F
:1013E00012D0012C1BD034E000F07CFD31E0C87835
:1013F0007F2805D8887818B9888808B9887A08B10C
:1014000008203EE0002024E0CA78012A21D18A8801
:10141000FAB9497A89061CD500F07CFD19E0CA7832
:10142000012A16D18A88A2B9497A890611D500F015
:101430004DFC0EE00B2C0CD100F0BEFD09E0012CA0
:1014400002D0032C03D004E000F040FC01E000F0E7
:101450006FFD28B1A968E0B249698847032802D026
:1014600018B108200DE009200BE0062007490022F2
:101470000968074B89B2891C43F81120054A3021BD
:1014800011806968087270BD3C000020505C00400B
:10149000006000405200002010B5104C6068007AD7
:1014A00003280ED005280CD007280FD0022812D010
:1014B000042810D0082061680872BDE8104000F0D0
:1014C00023B8FFF7A9FA6068007AF4E7A068C0685B
:1014D00080470820EFE70820EDE700003C000020EF
:1014E000521C5208064B03EB4101002A06D031F88A
:1014F000043B20F8023B521E002AF8D1704700003E
:10150000006000407047704710B50B4890F82C10F1
:10151000002000F003FB09484068007A082805D144
:10152000074A41021180074A10211180092801D081
:10153000002010BD012010BDE80000203C0000206C
:10154000500000205200002010B5012001F02EF8BC
:10155000012106480160064A00210160031D19604F
:101560004FF4E05111800160002010BD405C00404C
:101570004C000020054A002903D051690143516104
:10158000704751698143516170470000001002406B
:10159000054A002903D0D1690143D1617047D1695F
:1015A0008143D1617047000000100240054A0029C4
:1015B00003D01169014311617047116981431161C1
:1015C0007047000000100240054A002903D09169CD
:1015D00001439161704791698143916170470000B7
:1015E00000100240054A002903D0D1680143D160B0
:1015F0007047D1688143D1607047000000100240FD
:1016000070B5002400F068F84FF48035284600F0EB
:1016100001F9681E2146641C8142FBD300F052F997
:10162000012803D0BDE8704000F025B81020FFF776
:101630007DFC0220FFF786FC002000F0E1F800208E
:1016400000F016F94FF4806000F008F94FF4E01153
:10165000284600F01DF9012000F014F9392000F0AF
:10166000AFF80028FAD0022000F01CF900F0C0F812
:101670000828FBD170BD10B500F02EF8012000F055
:10168000E5F8202000F09CF80028FAD0002000F0B7
:10169000B7F8002000F0ECF84FF4806000F0DEF8BE
:1016A0000220FFF74FFC1020FFF740FC4FF46011C1
:1016B000002000F0EDF8012000F0E4F802E0022044
:1016C00000F0F0F8392000F07BF80028F7D000F0A7
:1016D0008FF80828FBD110BD0B48016841F00101CB
:1016E00001604168094A114041600168084A11409F
:1016F0000160016821F480210160416821F4FE014C
:101700004160002181607047001002400000FFF836
:10171000FFFFF6FE10B5264A516801F00C01254B7B
:10172000002927D0042927D0082927D00360516831
:1017300001F0F0010909204B5C5C0168E140416067
:10174000546804F4E064240A1C5D21FA04F4846003
:10175000546804F46054E40A1B5DD940C1605268C7
:1017600002F44042920B144B1B1F9A5CB1FBF2F146
:10177000016110BD0360DAE70360D8E7516801F446
:101780007011022303EB9141536803F4803333B1AA
:1017900053689B0307D5094B59430160C7E7074BC3
:1017A00059430160C3E7034B59430160BFE70000A1
:1017B0000010024000127A002442000800093D0097
:1017C000034600205909094A01290AD002290AD0F2
:1017D000516A03F01F02012393400B4200D0012005
:1017E00070471168F5E7116AF3E700000010024046
:1017F0000248406800F00C007047000000100240F2
:10180000034A516821F0F001014351607047000024
:10181000001002400C490A6822F480320A600A680B
:1018200022F480220A60B0F5803F07D0B0F5802F07
:1018300003D1086840F4A02008607047086840F4AD
:1018400080300860704700000010024001490860C5
:10185000704700000000424270470000034A516890
:1018600021F4E06101435160704700000010024024
:10187000034A516821F4605141EAC000506070474A
:101880000010024001490866704700000000424213
:10189000034B5A6822F47C12084310435860704787
:1018A00000100240034A516821F0030101435160D6
:1018B00070470000001002400149086070470000B6
:1018C000D800424230B50B4C40F2FF153120FFF7F3
:1018D00077FF20706068401C6060207810B96068F5
:1018E000A842F3D13120FFF76BFF08B1012030BDD2
:1018F000002030BD040000207047000002490A8823
:1019000082430A8070470000042800402DE9F04718
:1019100000F062F805462C4FB5FBF7F32B482C4E30
:10192000018899422ED0038040F2B2744FF4B77808
:101930004FF4B6790CE02046FFF7D2FC20B14345C6
:1019400008D3A3F5B77301E0A3F26D13641CA4B22E
:101950004B45F0D8B4800024DFF878800CE0B088E4
:10196000FFF7BEFC08B1012C29D018F804009842FA
:1019700004D81B1A641CA4B21C2BF0D2641CB471D2
:101980005B1CF371B5FBF7F007FB10504FF461617E
:10199000B0FBF1F23270B0FBF1F201FB12033C221A
:1019A000B3FBF2F37370B0FBF1F301FB1300B0FB78
:1019B000F2F102FB1100B0700020BDE8F0871D2B92
:1019C000DCD31D3BD6E70000805101000E00002053
:1019D0007C01002034420008034800880249091FA6
:1019E000098840EA014070471C28004006490988E0
:1019F000C2B21140044A121F1288024202D009B139
:101A000001207047002070470428004010B50120D5
:101A1000FFF7ECFF08B1FFF779FF0220FFF7E6FFC1
:101A200010B10220FFF76AFF0520FFF767FFBDE84E
:101A3000104000F001B80000024801888906FCD57A
:101A400070470000042800407047000010B512499C
:101A50004878421C4A7005281DD9002048700F485C
:101A600001F092FD04466CB12246C0210B4800F003
:101A700009FE2146012000F0ABF8BDE8104001202E
:101A800000F0CAB80021012000F0A2F8BDE8104023
:101A9000012000F0C1B810BD700000201E220020FF
:101AA0007047704770477047FFF7AABD024920F0A2
:101AB0000700086070470000505C0040F0B50C491A
:101AC0000E7800210B4D48F68F7709E0CBB205EB7D
:101AD0008302D2F8004C3C401C43C2F8004C491C25
:101AE000B142F3D3044940F080000860F0BD00002B
:101AF00038010020005000404C5C0040054A21F0B5
:101B00000101126892B202EBC000034A001D42F8C4
:101B100010107047505C0040006000400E4A126890
:101B200092B202EBC0000D4A801D02EB40023E293A
:101B30000AD94809C90601D1401E80B24FF40041BC
:101B400041EA8020106070474808C90701D0401C56
:101B500080B2800210607047505C0040006000401E
:101B6000820009480244D2F8000C4BF68F731840EB
:101B7000CB0401D580F48050890401D580F4005055
:101B8000C2F8000C70470000005000408100074878
:101B90000844D0F8001C4BF68F72114081F480513C
:101BA00081F40051C0F8001C704700000050004054
:101BB000054A21F00101126892B202EBC000034A0B
:101BC00042F8101070470000505C00400060004078
:101BD000044A126892B202EBC000034A801C42F829
:101BE00010107047505C00400060004082000948BF
:101BF0000244D2F8000C48F6BF731840CB0601D55A
:101C000080F01000890601D580F02000C2F8000C99
:101C10007047000000500040810007480844D0F899
:101C2000001C48F6BF72114081F0100181F02001C4
:101C3000C0F8001C704700000050004082000548BA
:101C40001044D0F8002C48F68F131A400A43C0F80D
:101C5000002C70470050004038B51948006880B229
:101C6000001D41001748095A89B200EB4104009455
:101C7000154D6868017A092913D0217801706178BF
:101C8000241D41702088FEF761FD69684880A088A6
:101C9000A41DFEF75BFD69688880A41C0094208861
:101CA000C880686801210172C08828B1FEF704FF6E
:101CB000BDE83840FFF728BCFFF77EFBF8E70000DF
:101CC000505C0040006000403C0000202DE9F041E5
:101CD0003B4E7068017801F07F01002904D0022991
:101CE00008D00220BDE8F081417A01F0DF014172A5
:101CF0000020F7E7418809B9017909B10220F1E72D
:101D0000304B417921F080042F4F0A0607D507EBAD
:101D10008402D2F8002CC2F30112120106E007EB94
:101D20008402D2F8002CC2F3013212031D78A542BE
:101D30000DD962B1807A50B1080612D507EB840044
:101D4000D0F8000CC0F30110012802D021E00220DD
:101D5000C8E7E0B2FEF736FDE0B23021FFF746FFFC
:101D600017E007EB8405D5F8000CC0F3013001281B
:101D70000FD14BF68F788CB1E0B2FEF70FFDD5F89E
:101D8000000C00EA080080F4805080F40050C5F890
:101D9000000CF068406980470020A3E70B4890F8EA
:101DA0002C100020FFF7BAFED7F8000C00EA08005C
:101DB00080F4805080F40050C7F8000CE9E7000080
:101DC0003C0000203801002000500040E8000020C6
:101DD00010B5074C002805D0E068006880476068AF
:101DE0000A3010BD616801200882002010BD00008B
:101DF0003C000020064A53685A8A002802D008682E
:101E0000104470478888801A1882002070470000AC
:101E10003C00002010B5074C002805D0E068806821
:101E2000804760680C3010BD616801200882002086
:101E300010BD00003C00002010B5284B0028596858
:101E40000DD00022981C02800A7854060BD002F0B4
:101E50007F02012A1AD0022A1BD0002010BD0220C6
:101E60000882002010BD497A8A0603D5027842F024
:101E700002020270490604D5017801F0FE010170EA
:101E800026E0017841F00101017021E01348801C37
:101E900010BD4A7902F00F011406114A0CD502EB6D
:101EA0008101D1F8001CC1F30111012910D1017881
:101EB00041F0010101700BE002EB8101D1F8001C3F
:101EC000C1F30131012903D1017841F00101017011
:101ED000D868006980470148801C10BD3C00002084
:101EE0000050004010B5094A094B50685B78C17832
:101EF000994203D883780BB983880BB1022010BDB7
:101F00008172D06840688047002010BD3C000020EE
:101F10003801002010B505494868427A42F0200295
:101F20004272C868C0698047002010BD3C00002094
:101F300070B51E4D6A68517921F080041C4B21F068
:101F400080000E0603EB800005D5D0F8003CC3F3FB
:101F500001131B0104E0D0F8003CC3F301331B0361
:101F6000144E3678A64210D9548874B96BB1927A5F
:101F70005AB109060BD5D0F8001C48F6BF721140C3
:101F800081F01001C0F8001C0AE0022070BDD0F8FA
:101F9000001C4BF68F72114081F48051C0F8001C78
:101FA000E86880698047002070BD00003C00002088
:101FB000005000403801002010B50E4C6068A26847
:101FC000C17892694079904761688A7A82B118B97C
:101FD000087908B9887808B1022010BDE068C068A7
:101FE000804760684179C172C1780173002010BDDB
:101FF000022010BD3C00002000F0A6B810B5044639
:10200000002C2BD01648FFF785FB4FF0E021086924
:1020100020F002000861086920F0010008610869E9
:1020200020F0040008610E480E4A0068B0FBF2F090
:1020300060434861086940F002000861086940F0A7
:102040000100086100208861086940F00200086111
:102050004A6905480260096989B2416010BD000003
:102060008801002000127A001000002010B50446FC
:10207000002C2DD01748FFF74DFB4FF0E0200169F1
:1020800021F002010161016921F001010161016991
:1020900021F0040101610F494FF4FA520968B1FBC4
:1020A000F2F14161016941F00101016100228261A7
:1020B00006E081690029FCD081690029FCD1641EF9
:1020C000002CF6D104490B684361826149680161C3
:1020D00010BD0000880100201000002038B5054622
:1020E00000240094002D28D01448FFF713FB4FF074
:1020F000E021086920F002000861086920F0010071
:102100000861086920F0040008610C480C4A006866
:10211000B0FBF2F068434861086940F001000861D3
:102120008C6188690028FCD088690028FCD10548AA
:1021300002684A618C614068086138BD88010020EE
:1021400000127A001000002000F0E6BB70477047D4
:102150007047704710B500F02CF8BDE81040012121
:10216000014800F023B80000002C014010B500F039
:1021700020F80121BDE81040880700F017B80000E2
:1021800010B500F016F8BDE810400121014800F03C
:102190000DB800000004004000F00BB87047704715
:1021A000704770477047704700F003B8C943018219
:1021B000704700F0B1BB00F0AFBB00F0ADBB00005A
:1021C00070B51F4D40F226642146284600F060F9A4
:1021D000C0B12146284600F077F8284601F0EEFC11
:1021E00080B1284601F04CFC0446002C26D000218A
:1021F000204601F09EFD0121204601F087FD284682
:1022000001F052FE40F224462C463146204600F0B2
:102210003FF9002812D03146204600F055F82046FC
:1022200001F0CCFC002809D0204601F029FC002850
:1022300004D02046BDE8704001F004BE70BD00002F
:102240000038014070B51E4D40F2266421462846F4
:1022500000F01EF9C0B12146284600F035F82846A6
:1022600001F0ACFC68B1284601F00AFC0446002CE1
:1022700024D00021204601F05CFD0121204601F020
:1022800045FD284601F010FE40F224442146284630
:1022900000F0FEF8002811D02146284600F014F87E
:1022A000284601F08BFC20B1284601F0E9FB00280C
:1022B00004D02846BDE8704001F0C4BD70BD0000E8
:1022C0000044004000F028BB0A0A01219140C943A4
:1022D00001807047002904D0818941F40051818137
:1022E0007047818921F40051818170471FB52A4AC6
:1022F00000211079002808D0012809D002280CD02C
:1023000000F04EF8002004B010BDADF8061008E053
:102310004FF44050ADF8060003E04FF40050ADF824
:102320000600507938B1012808D002280BD000F0FF
:1023300037F80020E7E7ADF8081008E04FF48060B8
:10234000ADF8080003E04FF4C060ADF808009079E4
:10235000072805D0082806D000F022F80020D2E790
:10236000ADF8041001E0ADF8041010680090ADF86D
:102370000C100C20ADF80A00084C6946204600F00D
:10238000BFF801212046FFF7A5FFE2146946204669
:1023900001F0A3F80120B6E7C80000200038014092
:1023A0001FB50E4C204600F025F84FF496410091E1
:1023B0000021ADF80410ADF80610ADF808100C229D
:1023C000ADF80A20ADF80C106946204600F098F8E8
:1023D000E2146946204601F080F81FBD0038014034
:1023E000002A03D0828A0A4382827047828A8A4303
:1023F0008282704710B5244A811A131590422BD05F
:102400000FDC224940181CD098423BD10402012124
:102410002046FFF7CBF82046BDE810400021FFF72B
:10242000C5B8994223D0B1F56C4F2BD101218C0353
:102430002046FFF7D7F82046BDE810400021FFF7FF
:10244000D1B801214C042046FFF7B0F82046BDE882
:1024500010400021FFF7AAB80121CC042046FFF765
:10246000A5F82046BDE810400021FFF79FB80121E4
:102470000C052046FFF79AF82046BDE810400021E1
:10248000FFF794B810BD0000004C004000BCFFBF37
:1024900070B50024C1F3421301F01F05012606FAAE
:1024A00005F2012B0CD0022B0DD0838A1340090AB0
:1024B0008E40008830400BB100B10124204670BD31
:1024C00083891340F3E7038A1340F0E710B5C1F3A3
:1024D000421301F01F040121A140012B07D0022B60
:1024E00007D014303AB102680A43026010BD0C30C4
:1024F000F8E71030F6E702688A43026010BD00007A
:1025000030B585B004460D46208A4CF6FF71084070
:10251000E98801432182A1894EF6F3100140A88881
:102520002A8910436A890A431043A081A08A4FF682
:10253000FF410840A9890143A1826846FFF7EAF8F4
:102540001148844201D1039800E0029800EBC001D9
:1025500001EB001029688900B0FBF1F06423B0FBA7
:10256000F3F109010A096FF018056A4300EB8200D4
:10257000322202EB0010B0FBF3F000F00F00084332
:10258000208105B030BD00000038014070470000D8
:10259000054A4FF40041002802D01046FEF71CBE49
:1025A0001046FEF717BE000000080140FFF7F0BF1D
:1025B0007047000007490648086002210172074978
:1025C00005480860074A0649116000680047000096
:1025D000B021002040000020E8000020440000203E
:1025E0003C0100204800002008B500214FF00060A9
:1025F000FEF7D8FE4FF4C060FEF7CAFE14208DF837
:10260000000000208DF801008DF8020001208DF8F7
:1026100003006846FEF77EFE08BD000070B5134D4E
:102620002868134C60806088124E3188084040054D
:1026300005D54FF6FF3028600F4840688047608816
:1026400031880840800507D54FF6FF502860208864
:10265000401C2080FFF7FAF96088318808400004A8
:1026600003D5BDE87040FEF779B870BD445C00400A
:10267000780000204C000020E8000020FFF7CEBFCB
:10268000FEE7000070B5521C55080022084B03EB12
:102690004106002108E0835C8418647843EA04233F
:1026A00026F81230921C491CA942F4D370BD0000D8
:1026B0000060004010B500210F4A2128126802D0A6
:1026C000202807D00FE0107800F07F0021280AD1E1
:1026D0000A4908E0107800F07F00212800D108495D
:1026E000084B2020587029B1916100205082884702
:1026F000002010BD022010BD40000020212700084E
:102700009D280008B80000200149FFF773BB0000B6
:10271000E00000200149FFF76DBB0000D000002061
:10272000002801D00348704703490820096808823F
:1027300000207047C80000204000002005490968BB
:10274000C978042901D900207047034A02EBC1016E
:10275000FFF750BB4000002018010020002901D0E5
:1027600002207047012801D90220704700207047DD
:1027700008490968097801F07F01212903D102285D
:1027800003D0222803D00220704700207047002089
:10279000704700004000002010B533480021006859
:1027A0008172324AD2794272C1720020FFF77EF9FB
:1027B0004FF400710020FFF741FA10210020FFF7CD
:1027C00015FA40210020FFF799F980210020FFF73A
:1027D000EFF90020FEF70AF8254890F82C100020A9
:1027E000FFF79CF90020FFF7D1F900210120FFF746
:1027F00025FAC0210120FFF7DBF920210120FFF796
:10280000F5F900210120FFF7ABF94FF4C061022078
:10281000FFF714FA4FF480710220FFF7C9F9002185
:102820000220FFF79DF920210220FFF7DFF90021A8
:102830000320FFF703FA4FF488710320FFF75EF9D6
:1028400040210320FFF76AF94FF440510320FFF7BE
:1028500087F900210320FFF7C9F90020FFF72EF9BF
:1028600004490120086010BD400000205C420008BF
:10287000E8000020B40000200348807A002802D03D
:102880000249052008607047B0210020B4000020F4
:102890000149042008607047B4000020002801D0DE
:1028A00003487047034908200968088200207047E0
:1028B000C80000204000002010B5044C607820289B
:1028C00003D1FFF713FD0020607010BDB800002099
:1028D0007047000010B5FEF7AFFC0A4800240068FE
:1028E0008472FEF731FE0848046008494FF4064040
:1028F00008800549091F0860FFF752FD044804607D
:1029000010BD000040000020445C00404C0000204E
:10291000B400002000F0CEBE00F0D8BE704700002A
:1029200037B514460846064B6A46214600F0CCF8F7
:1029300004466946002000F05EFC20463EBD0000D3
:10294000F731000802E008C8121F08C1002AFAD1B6
:1029500070477047002001E001C1121F002AFBD11F
:10296000704700002DE9FF5FDDE90220010DDDF871
:1029700038B0024318D044F61050A1F2FF31414361
:102980000D140F98012820D0A5EB0B00401C5FEA26
:10299000000A4FF00004474EDFF81C91A046504655
:1029A00016D5CAF1000728E00F98012443A2012898
:1029B00008D0002100980F9BC0E90021C0E9024324
:1029C000BDE8FF9F6FEA0B01F4E7CBF10000DEE703
:1029D000074612E0F80707D02246334640464946EC
:1029E000FDF78CFC80468946224633461046194640
:1029F000FDF784FC04460E467F10002FEAD1DDE986
:102A00000201BAF1000F42464B4602DAFDF776FCAE
:102A100001E0FDF7E5FC04460E460022284BFDF7D9
:102A20004FFD03D84FF0FF30014607E00022254B51
:102A300020463146FDF7BBFBFDF72FFE102409E0D1
:102A4000002C0ADB0A220023FDF768FD019B3032CF
:102A50001A55641E50EA0102F2D1641C019AC4F1B5
:102A6000110314440F9A012A03D0012208430DD107
:102A70000AE0084304D000204FF0110B0F9080E7CC
:102A8000A3EB0B056D1E0DE05B4504DD4FF000026E
:102A900005F1010504E003DA4FF00002A5F101059C
:102AA000002AECD000980F99C0E90231C0E9004536
:102AB00086E70000000024400000F03F30000000E6
:102AC0000000F0430000E03F2DE9FF4F95B09B462A
:102AD0008946064600250FE2252877D1002427469F
:102AE000F84A0121059400E0044316F8013F203B19
:102AF00001FA03F01042F7D130782A2811D06FF094
:102B00002F033078A0F13002092A16D8059A44F034
:102B1000020402EB820203EB42021044761C059091
:102B2000EFE759F8042B0592002A03DA504244F4E7
:102B30000054059044F00204761C30782E2816D1FB
:102B400016F8010F44F004042A280DD06FF02F026C
:102B50003078A0F13003092B09D807EB870302EB8B
:102B60004303C718761CF3E759F8047B761C3078CA
:102B70006C280FD006DC4C2817D068280DD06A28A6
:102B800014D104E0742810D07A280FD10DE044F459
:102B900000140AE044F4801401E044F44014727814
:102BA000824202D104F58014761C761C30786628A7
:102BB0000BD013DC582877D009DC002875D04528C5
:102BC000F6D04628F4D047281AD19DE118E06328B2
:102BD00035D0642879D0652812D195E1702873D05A
:102BE00008DC6728F1D069286FD06E280DD06F28D7
:102BF00006D1B5E073282CD0752875D0782874D00C
:102C00005A46179990476D1C75E1C4F3025002288B
:102C100009D003280DD0D9F8001004280DD00D607C
:102C200009F1040967E1D9F80010EA17C1E9005277
:102C3000F6E7D9F800100D80F2E70D70F0E719F80B
:102C4000041B8DF8001000208DF80100EA460120D9
:102C500003E059F804AB4FF0FF3061074FF000017B
:102C600002D40DE008F101018846B9420FDA80452F
:102C7000F8DB1AF808100029F4D108E008F1010186
:102C800088468142FADB1AF808100029F6D1059827
:102C90005B46A0EB080721463846179A00F094FAE5
:102CA000284400EB080507E04DE029E10DE01AF8A3
:102CB000010B5A4617999047B8F10108F7D25B46C5
:102CC00021463846179A13E142E00A220092C4F3E3
:102CD00002524FF0000A022A08D059F804CB032A06
:102CE0004FEAEC710AD00DE029E02AE009F1070172
:102CF00021F00702F2E802C1914609E00FFA8CFCCC
:102D00004FEAEC71042A03D14FFA8CFC4FEAEC71C4
:102D1000002907DA0A460021DCF1000C61EB020110
:102D20002D2202E0220504D52B228DF80420012259
:102D300003E0E20701D02022F7E7904659E00A219C
:102D400002E010220DE010214FF0000A00910BE08C
:102D500010224FF0000A44F004040827009203E018
:102D600008224FF0000A0092C4F30252022A05D052
:102D700059F804CB0021032A08D009E009F1070122
:102D800021F00702F2E802C1914605E01FFA8CFC2F
:102D9000042A01D10CF0FF0C4FF00008220728D5BF
:102DA000702806D0009B83F0100353EA0A0305D075
:102DB0000EE040228DF80420012208E05CEA0102C6
:102DC00006D030228DF804208DF8050002229046AE
:102DD000009B83F0080353EA0A030AD15CEA01026C
:102DE00001D1620705D530228DF804204FF001088B
:102DF0007F1E582804D034A003900EA802900DE046
:102E000036A0F9E753466046009AFDF787FB8446F3
:102E10000398825C0298401E029002705CEA0100F6
:102E2000F0D1029806A9081A00F1200A600702D51D
:102E300024F4803400E00127574502DDA7EB0A00A7
:102E400000E0002000EB0A01009005984144401A80
:102E50000590E00306D45B462146179A059800F0DA
:102E6000B3F90544002706E001A85A46C05D17994A
:102E700090476D1C7F1C4745F6DBE0030CD55B4695
:102E80002146179A059800F09FF9054404E0302088
:102E90005A46179990476D1C0099481E00900029CA
:102EA000F5DC08E0029802995A460078491C029124
:102EB000179990476D1CBAF10001AAF1010AF1DCE3
:102EC00065E10000092801003031323334353637EE
:102ED0003839616263646566000000003031323366
:102EE0003435363738394142434445460000000006
:102EF00000F058F90544761C307800287FF4ECADDA
:102F000019B02846BDE8F08F620700D4062709F102
:102F1000070222F0070CFCE80223E14603F0004818
:102F20005FEA080C02D00FF2702C0DE05FEA045C3F
:102F300002D50FF2682C07E05FEAC47C02D00FF2E2
:102F4000602C01E0AFF2700C4FF0FF3823F000432B
:102F5000CDF850C065280CD006DC452809D046289D
:102F60001DD047283DD13DE0662818D067287ED186
:102F700038E00021112F01DB112000E0781CCDE9A1
:102F8000000106A90EA8FFF7EDFCDDE90F010E9A7E
:102F900003910021009207F1010A04914DE04FF0E6
:102FA00000400097CDE9011006A90EA8FFF7DAFC52
:102FB000DDE90F0203920E9B11990022DDF80CA0AF
:102FC0000093049211B9791C00EB010AB7EB0A00D7
:102FD00004D4C0F1FF3007F1010A0490AAEB070006
:102FE000019044E0012F00DA01270021112F01DDBB
:102FF000112000E03846CDE9000106A90EA8FFF730
:10300000B1FCDDE90F010E9A0391002104910092B9
:10301000BA4621070CD40399514500DA8A46BAF121
:10302000010F05DD009AAAF10101515C302908D099
:10303000B84202DA10F1040F06DA0121CDE90110DD
:1030400015E0AAF10101E9E7002805DC0499014433
:103050000491AAEB000102E0411C514500DD8A46C3
:103060000499401A401C01904FF000400290200744
:1030700004D40198504501DBCDF8048000208DF880
:103080004F0002980DF14F07B0F1004F25D02B20D3
:103090000E9002984FF0020800280CDA404202908D
:1030A0002D200E9007E00A210298FDF721FA303119
:1030B000029007F8011DB8F10001A8F10108F2DC47
:1030C00002980028EFD1791E0E980870307800F031
:1030D000200040F0450007F8020D12A8C01B00F1C7
:1030E00007081498007800B1012000EB0A0101984C
:1030F00001EBE07105984144401A401E0590E00341
:1031000006D45B462146179A059800F05DF8054401
:103110001498007818B15A46179990476D1CE0032F
:1031200024D55B462146179A059800F04DF80544D2
:103130001CE00498002807DBDDE90301884203DD79
:103140000098405C179901E0179930205A46904743
:10315000049805F10105401C04900198401E01905F
:1031600004D12E205A46179990476D1CBAF10001E0
:10317000AAF1010ADDDC05E017F8010B5A461799A0
:1031800090476D1CB8F10001A8F10108F4DC5B4622
:103190002146179A0598ABE62D0000002B00000091
:1031A000200000002DE9F041044600251E46174688
:1031B000880404D405E039462020B0476D1C641E05
:1031C000F9D52846BDE8F0812DE9F04104460025F7
:1031D0001E469046C80301D5302700E0202788040A
:1031E00004D505E041463846B0476D1C641EF9D54C
:1031F0002846BDE8F0810A68531C0B6010707047C8
:1032000010B500F005F8BDE81040002000F004B94A
:1032100070B501211248FDF751FF002000F0EEF8D3
:10322000104C01212046FDF749FF01212046FDF702
:10323000D1FF02212046FDF741FF02212046FDF784
:10324000C9FF04212046FDF727FF651529462046C2
:10325000FDF734FF29462046BDE87040FDF7BABFB0
:1032600000080140000C01402DE9F04186B0002427
:103270003D4E4FF4FA62F088904204D2401CF08038
:1032800006B0BDE8F081B088411CB1809042F7D310
:103290000025B580708928B175814FF4FA70FEF76A
:1032A000E5FEEDE7012000F0A9F8708918B9358135
:1032B0002EA000F0EBF970892E4F00EB800007EB99
:1032C000C00501A9284600F0DBF840F6C41804EB5D
:1032D000840007EBC0011431142201A8FCF75AFF47
:1032E00038B1641CA4B24445F1D3708900282ED0B3
:1032F00030E07289318920A000F0C8F93089401C83
:10330000308122A000F0C2F9002421A0295D00F044
:10331000BDF9641CA4B2132CF7D3E97C1FA000F004
:10332000B5F920A000F0B2F9002401AD18A0295D84
:1033300000F0ACF9641CA4B2132CF7D39DF817105D
:1033400016A000F0A3F919A000F0A0F9CDE719A08C
:1033500000F09CF97089401C708100F047F9002052
:1033600000F04CF88CE70000600100200D0A097B9A
:103370000D0A0000FB4200082F2A25302E34643A43
:1033800025302E34643A2A2F090000007B7B000090
:10339000307825302E32582C00000000307825304F
:1033A0002E3258007D2C097B000000007D7D2C0D05
:1033B0000A000000097D0D0A000000000D480068A9
:1033C0000D49052803D00020488008707047087810
:1033D00070B9488841F28832904209D2401C80B2CC
:1033E0004880B0F5FA7FF1D101200870FFF708BFDF
:1033F000FFF73ABFB400002060010020054A002812
:1034000003D001211046FDF7E5BE01211046FDF76E
:10341000E3BE00000008014010B5154C002811D093
:1034200001212046FDF714FE02212046FDF710FE83
:1034300001212046FDF7D0FE2046BDE810400221C4
:10344000FDF7CABE01212046FDF7C4FE0221204639
:10345000FDF7C0FE074C40222146074800F02CF83B
:103460002146BDE810404022044800F025B8000085
:10347000000C0140688909000044004000480040F9
:1034800010B50C46142100F07FF938B100F0A3F913
:1034900030B1204600F0C4F9012010BD002010BD5D
:1034A000002010BD10B50020FEF706FA0121BDE88E
:1034B0001040C805FEF76CB870B505460E461446B8
:1034C000284600F0B3FD3146284600F039FE21467B
:1034D0002846BDE8704000F019BD70B505460E469F
:1034E0001446284600F0A2FD3146284600F04FFE63
:1034F00021462846BDE8704000F008BD10B5FEF733
:10350000D3FAFFF7CFFFFFF76FF8BDE81040FFF7E2
:1035100051B800002DE9F04107460C46194D2846E8
:1035200029784088022901D0032903D110B1002055
:10353000BDE8F081134A0619111D52884FF4006C42
:10354000531866450AD8184622463946FCF7FEFD50
:103550006888204468800120287010E003266445B4
:103560000CD2C0F5006084B2184622463946FCF7FA
:10357000EDFD6888204468802E7000E02E70688819
:10358000D6E70000622A002070B50346154D287862
:10359000042805D0022803D0032801D0002070BDE4
:1035A000114E6C880F493088402C01440ED94024BC
:1035B000091D22461846FCF7C9FD68884038688016
:1035C0000220287030884030308008E0091D2246F3
:1035D0001846FCF7BBFD0021698029703180204628
:1035E00070BD0000622A00207801002001490420FB
:1035F00008707047622A0020014840887047000028
:103600005E220020002070470149042008707047A6
:103610005E2200202DE9F04106460C461A4D284650
:1036200029784088042901D0032905D110B1002050
:10363000BDE8F08100212970134A0719111D528835
:103640004FF4006C531867450AD818462246314695
:10365000FCF77CFD6888204468800120287010E019
:10366000032764450CD2C0F5006084B21846224698
:103670003146FCF76BFD6888204468802F7000E0BD
:103680002F702046D4E700005E2200200FB400B562
:10369000C1B04FF4807101A8FCF771FD43AA01A8E5
:1036A0004299FFF73DF981B201A8FFF733FF41B01E
:1036B0005DF814FB10B500F01FF8FFF71FFFBDE821
:1036C00010404FF47A70FEF799BC0000084800687B
:1036D0000849052802D00020888070478888B0F506
:1036E000FA6F02D2401C88807047FFF767BE000067
:1036F000B4000020B800002010B54FF40041044889
:10370000FDF7DCFCBDE810400020FEF741BF0000E3
:10371000000801402DE9F04100241A4E4025356093
:10372000184F4021103F3846FDF7C8FC35600A208D
:10373000FEF7D4FC311D0D6040F2EE20FEF7CEFC0A
:1037400040213846FDF796FC0F20FEF7C7FC0D4DD3
:103750004FF48276083D04E0641CA4B20120FEF719
:10376000BDFC2868400601D5B442F5D3FA2C02D33B
:103770000020BDE8F0814FF4F070FEF7AFFC0120AF
:10378000F7E700001008014070B50546FFF7C2FFDB
:10379000F8B1CC2000F0A6FA222000F0A3FA002015
:1037A00000F0A0FA002000F09DFA287800F09AFAC4
:1037B00000F062FA00F060FA0124285D00F092FA4D
:1037C00000F05AFA00F058FA641C132CF5D90120C5
:1037D00070BD002070BD10B50024FFF79BFFA8B19D
:1037E000CC2000F07FFA772000F07CFA002000F077
:1037F00079FA002000F076FA052000F073FA00F064
:103800003BFA00F039FAC00706D101E0002010BDF4
:10381000641CE4B2642CEFD300F02EFA012010BD3A
:1038200070B505460024FFF775FFC0B1CC2000F04D
:1038300059FADD2000F056FA002000F053FA00207B
:1038400000F050FA00F018FA00F016FA2855641C3F
:10385000E4B2132CF8D900F00FFA012070BD00205B
:1038600070BD00002DE9F843534C2068534DC0F360
:103870000130000368802068C0F301100001A880B7
:1038800020684BF68F77384080F400502060206825
:1038900048F6BF76304080F020002060484848F667
:1038A0000F780078C0061FD4206800EA0800206066
:1038B000FDF7ECFC206838406988CA0401D580F423
:1038C0008050890401D580F4005020602068304089
:1038D000A988CA0601D580F01000890601D580F0BC
:1038E00020002060BDE8F883002000F0A1F80090DF
:1038F00001061ED5206800EA08002060FDF7C6FC1E
:10390000206838406988CA0401D580F48050890451
:1039100001D580F40050206020683040A988CA0694
:1039200001D580F01000890601D580F020002060CC
:10393000D8E7020540F68F711DD520680840206049
:10394000FEF78AF9206838406988CA0401D580F4F6
:103950008050890401D580F40050206020683040F8
:10396000A988CA0601D580F01000890601D580F02B
:1039700020002060B6E70004B4D52068084020602D
:10398000FDF78AFD206838406988CA0401D580F4B3
:103990008050890401D580F40050206020683040B8
:1039A000A988CA0601D580F01000890601D580F0EB
:1039B0002000206096E70000005C00404E000020E0
:1039C000CC210020F8B5164C207800F031F80546DF
:1039D0000090144E00040ED5217806EB8102D2F837
:1039E000000C40F68F731840C2F8000C0E48491EB8
:1039F00050F821008047280611D5207806EB800179
:103A0000D1F8002C48F60F731A40C1F8002C074972
:103A1000401E51F8200001B0BDE8F0400047F8BD5D
:103A20004E00002000500040980000207C00002044
:103A3000072801D9002070470F4A02EB8001D1F816
:103A4000001C89B20D4A082814D2DFE800F00406F1
:103A5000080A0C0E101251800CE091800AE0D1800F
:103A600008E0118106E0518104E0918102E0D181FA
:103A700000E0118288B2704700500040CC21002045
:103A800010B50446204600F099F828B10E490F48B9
:103A90008C4203D1006810BD002010BD0C498C423F
:103AA00001D1406810BD0B498C4201D1806810BD26
:103AB00009498C4201D1C06810BD08498C4201D12E
:103AC000006910BD002010BD003801409C2100207D
:103AD0000044004000480040004C004000500040BE
:103AE0000A49884201D10A4870470A49884201D1EF
:103AF000094870470949884201D109487047094976
:103B0000884201D1084870470020704700380140C2
:103B10009C010020004400409C050020004800401B
:103B20009C090020004C00409C0D00200B4988425D
:103B300001D10B4870470B49884202D10848143024
:103B400070470949884202D105482838704707491B
:103B5000884201D106487047002070470038014074
:103B6000580002400044004000480040004C004023
:103B7000300402400B49884201D10B4870470B4981
:103B8000884202D108483C3070470949884202D136
:103B90000548283870470749884201D106487047D0
:103BA00000207047003801404400024000440040BB
:103BB00000480040004C0040580402401149104A9F
:103BC0000978904202D101F0010070470E4A9042FC
:103BD00002D1C1F3400070470C4A904202D1C1F3B8
:103BE000800070470A4A904202D1C1F3C00070477A
:103BF000084A904202D1C1F300107047002070477C
:103C000000380140180000200044004000480040F7
:103C1000004C004000500040FEF77CFE05494FF08C
:103C2000807300220868401C08609842FAD30A603A
:103C3000F8E700000000002070B500240D4D402181
:103C40002846FDF73BFA0B4940201431086040211B
:103C50002846FDF70FFA0F20FEF740FA0548083016
:103C60000068400600D501243C20FEF737FA2046C4
:103C700070BD00000008014070B540210848FDF704
:103C8000F9F900250124FFF7D7FFC00140EA5500EC
:103C9000C5B2641CE4B2082CF5D9284670BD0000FA
:103CA0000008014070B5C1070D484FF04004A0F175
:103CB000040508D004600A20FEF710FA2C6050209A
:103CC000FEF70CFA07E004605520FEF707FA2C60B7
:103CD0000520FEF703FABDE870400220FEF7FEB9AA
:103CE0001408014070B5054640210748FDF7E6F984
:103CF000012405F001006D08FFF7D4FF641CE4B255
:103D0000082CF6D970BD0000000801404269002A65
:103D100005D011B1038B536101E0038B136142683D
:103D2000002A02D011B100895061704700891061EA
:103D30007047C268002A05D011B1038A136101E0FF
:103D4000038A53614268002A02D011B100891061D0
:103D500070470089506170470D49884203D14FF484
:103D60008030FCF767BD0B49884203D14FF48010C7
:103D7000FCF760BD0849884202D18015FCF75ABDA6
:103D80000649884202D10648FCF754BD704700003E
:103D9000003801400044004000480040004C004012
:103DA000000100100C49884202D18014FCF742BD8A
:103DB0000A49884203D14FF08070FCF73BBD0849A7
:103DC000884202D11020FCF735BD0649884202D155
:103DD0000548FCF72FBD7047003801400044004003
:103DE00000480040004C0040000001100246084618
:103DF0004FF48061002808D0884200D908460C4B57
:103E00000C499A4203D1088070470846F7E70A4BED
:103E10009A4201D148807047084B9A4201D188806C
:103E20007047074B9A4201D1C88070470020704705
:103E3000003801401C0000200044004000480040C1
:103E4000004C0040124A1349904203D10A7842F0D4
:103E500001020A70104A904203D10A7842F002022D
:103E60000A700E4A904203D10A7842F004020A70A6
:103E70000B4A904203D10A7842F008020A70094ABC
:103E8000904203D1087840F010000870002070477D
:103E9000003801401A000020004400400048004063
:103EA000004C004000500040124A1349904203D198
:103EB0000A7842F001020A70104A904203D10A784F
:103EC00042F002020A700E4A904203D10A7842F090
:103ED00004020A700B4A904203D10A7842F00802A9
:103EE0000A70094A904203D1087840F01000087027
:103EF00000207047003801401900002000440040B5
:103F000000480040004C0040005000402DE9F04FB8
:103F10008DB005460C462846FFF7E2FD06462146D1
:103F20002846FFF763FF01902846FFF723FE8146EE
:103F30002846FFF7FBFD8046002E6FD0B9F1000F39
:103F40006CD0B8F1000F69D03649681A0A158D4255
:103F500019D009DC3448281810D0904217D101211B
:103F60000846FDF707FB12E0904257D0B0F56C4FC2
:103F70000DD101210846FDF7FDFA08E001210846B0
:103F8000FDF7F8FA03E001210220FDF7F3FA2F1DF7
:103F900002970396102004900024059406944FF095
:103FA000800ACDF81CA0089409940A944FF4005B91
:103FB000CDF82CB00C9402A94846FCF76FFC029790
:103FC00003960494019805900694CDF81CA00894DB
:103FD00009940A94CDF82CB00C9402A94046FCF741
:103FE0005DFC00214846FCF731FC01214046FCF70E
:103FF0002DFC012240212846FEF7F2F90122802102
:104000002846FEF7EDF9002202214846FCF73CFC69
:104010002846FFF7C7FE2846FFF79EFE0DB0BDE815
:10402000F08F0000004C004000BCFFBF2DE9F843BA
:1040300000250024002700263A4ADFF8EC80811A88
:10404000DFF8E89013154FF4006C90423AD019DC79
:104050003749401829D098424DD1364F3E461D462B
:10406000644601210846FDF7AFFA01213248FDF709
:104070008BF801210820FDF7A7FA01218804FDF73C
:1040800087FA38E099422AD0B1F56C4F33D14746D0
:104090003E464FF400751C4601210520FDF794FAB9
:1040A00001218803FDF790FA25E047463E460425A6
:1040B000082401210520FDF787FA01214804FDF7B6
:1040C00067FA18E04F463E461D466446012111201E
:1040D000FDF77AFA0121C804FDF75AFA0BE04F46C2
:1040E000164E1D46042401213120FDF76DFA0121F1
:1040F0000805FDF74DFAADF8005018208DF80300C3
:1041000003208DF8020069463846FCF7E9FFADF858
:10411000004048208DF8030069463046FCF7E0FF78
:10412000BDE8F883004C0040000801400010014049
:1041300000BCFFBF000C0140000230000014014031
:104140007FB505460C462846FEF754F90094002139
:10415000ADF80410ADF80610ADF808100C22ADF85B
:104160000A20ADF80C1069462846FEF7C9F940F25E
:104170002444002221462846FEF7A8F92146284675
:10418000FEF7A2F801212846FEF7A4F87FBD70B51E
:1041900005460C462846FEF72DF90C2161810021C9
:1041A000A18121462846FEF7ABF940F224440022C3
:1041B00021462846FEF78AF921462846FEF784F86C
:1041C0002846BDE870400121FEF784B870B5134C55
:1041D0002078411C217005281ED3FFF713FA0546ED
:1041E000FFF70AFA4FF400565DB130B1FFF70CFA51
:1041F00031460320FDF7B4FC0CE00320FDF7C6FCBC
:1042000008E020B131460320FDF7AAFC02E00320BC
:10421000FDF7BCFC0020207070BD00007000002085
:104220000204060800000000010203040102030466
:10423000060708091F1C1F1E1F1E1F1F1E1F1E1FF3
:1042400012010002020000408304405700020102F4
:1042500003010A06000200000040010009024300B9
:10426000020100C03209040000010202010005241D
:1042700000100105240100010424020205240600A7
:1042800001070582030800FF09040100020A00007B
:1042900000070503024000000705810240000004FA
:1042A0000309042603530054004D006900630072A3
:1042B000006F0065006C0065006300740072006FA1
:1042C000006E006900630073003203530054004D18
:1042D000003300320020005600690072007400753F
:1042E0000061006C00200043004F004D0020005092
:1042F000006F007200740020002000B8D3AA208252
:10430000FED1F07C0A078E26C7DE10CAA32CC84156
:1043100012959913D1B50D3E178DB110A646CA79E5
:1043200099451834B9034CF99CCF8EE743E9F26202
:104330008AC18B32924846DA3155860E90A31F8887
:10434000D6C9DC416DD31C4AD659F69579801C75C7
:1043500080945841B13137969291DB349D1D5A06B5
:104360009E4BB750BDFD965CBB57247906CCD5F467
:104370002E2C7483B2062E21607900F360B0F1B761
:104380002E27BCFFA7E3F1087F7698E91D98349C9F
:10439000556AF8BCAD771B7764BCBB8058A64D420C
:1043A000723B4F7ED156BD72C54ACCD8CC6C4B699E
:1043B0003A69D548084F06A34C979D5890A75A4F85
:1043C000445EA17536458BE46A0F4D0CDD7A288377
:1043D000195E68547F8A00687F5D395A6FF20EE477
:1043E00080B3D9F8E465C7119599829F1D2E08E125
:1043F000E57E60EC77105769ACF82315FFFC001BD5
:104400000DD8ED088A3E280DAAD33578C99E009EA6
:10441000067D930958D7FB505C0C42CCC1A658507E
:1044200027698ABD7D008777462CCAAD56C5D0A7BF
:10443000E354409D265AFC74DFF6C7DA090A869FCA
:10444000BBAF52E11C99889CC82E40989693FC7A89
:1044500051E3F8BA4EDD686E55F931A2AF7A6E229B
:10446000A727DD3181C578A274973F620FAFA53FC2
:10447000BF9AB5DB326E4C7C432F264D8F540AE435
:10448000FBA4A06D6BDBE87988F7CC5C01CF6014EE
:1044900017246C11E4EB423BE2B5EDE41B3A1574D2
:1044A0004C4C72BEA17C02B1013AB4A3BC0738E403
:1044B0005F7A4FEC98A8D321956433E2E62E634FE0
:1044C0003C30D110C216149624B5035DC566014B6D
:1044D000DA3082FD62A4B9E6C746A123B2C2469291
:1044E000FDB6060C0111DFC0BFCC04BE42DF2324A1
:1044F00055C3243C5E7ACB604F56C940B541AEFCF3
:104500001882ABA49F08288CA8647AD4C3F9AED5CE
:10451000C5B8202E915766E2AED0038C8195325DEE
:10452000BBCDA1DBB995B5A6310947123717AAF162
:104530000503EB4F668D9D89EB0A14F3FF5449C7C1
:1045400088F75068B52D16BC6DB7AD7919B3786290
:10455000E35D2A25C798B503F0B128F645745C9A47
:10456000E72876C3501DBF8F5641E5ED85E268B957
:10457000CF4FE26175D9E6410A0F2988658CA3E126
:1045800093AF80B460D4AC65A4CEE7E73A762368F5
:10459000342F3D92DA8003AF9766DCEE807B6DD8D6
:1045A0004564E40958D7DBD05C0C42CCC1A6585016
:1045B000276982BD7D008777462CCAAD56C5D0A736
:1045C000E354409D265AFC74DFF6C7DA090A861FB9
:1045D000BBAF52E11C99889CE02E40909697FC7AE4
:1045E00051E3F8BA4EDD686E55F931A2AF7A6E220A
:1045F000A727DD9BBBDA12EBAB1CC84E67FEC1469A
:104600001330A4F9601BA359D1A1C9C938AC204605
:104610002F82C9C089ABDF1C57AF6CA49F0828ACA0
:10462000A864FAD5C3B9AED5C5B8282E915766E2AD
:10463000AED0038C8195325DBBCDA1DBB995B5A61B
:10464000310947727DC86CF1F2D1DF0AEF5D5CE49D
:104650000F7E22F8E7AB3A85F1220FE7D28C6DF599
:10466000EE81D7C40E584BF5C10D0734E9034CE970
:104670009CCE86E743A9F2628AC18B32924846DA21
:104680003155860E90A31F88D6C9DC416DD31C4AD4
:10469000D659F60A319FD72E0CCD444BACACEB6704
:1046A000816AA3096B0AA5434D9C8CA6771EA3F6CD
:1046B000F462C7FF314596574D6E0CE14825A91AA3
:1046C000DE3B307DE88A8055AE64B86678E0045DF4
:1046D0006A0F8C5DDCBFD7EB2C6CCAAAC50696307E
:1046E000B787DE05EDD8879DEE69171762CF1C806E
:1046F000FE45269141C9D50BA82677307B459F15ED
:104700005C491F3B0AD7308C2B287EA5E76E318190
:10471000CAD363193CFD174007A3A7AAA996089816
:10472000D2ECA9BFE0703B91097E0D0C7E75648BC5
:104730001A95084FF1DB0490856A7114E1F8C323E0
:10474000A75152E4DA68A93C443CD2E4E0F051D2EB
:104750007AEAE37318CDD6A76FBDE361616B918DE3
:10476000E2EC7A3154DCEFD3EE230DF4971A6B3C74
:1047700086067F0CF6BD0DFC777AEFAA9872145767
:1047800005B673123717AAE12503EB4F668D9D8995
:10479000EB0A34F3FF5C49C788F75068B52D16BCA7
:1047A0006DB7AD7919B37862E35D2A87AD975C9DEB
:1047B0004180FF2C90E052252ED3F4AAF62305DA8F
:1047C0006F9F981FF81619651305DC4073422B9FE5
:1047D000FAE933F5DAD05C5011F0AB826E170E3582
:1047E0001E32C5CDB95DADB624821E51FDA19E9489
:1047F0004EF017B2AA7D1D9D9E1909DD0D8EA44EA7
:104800003A958781A19657B6F1ACABE7DD3BF1F263
:10481000678C56867D4A8700485A04B8873F0685CC
:10482000596ACFA0E6BD8BE4947330062B20DEB02E
:1048300083CC223091743710EF6DF99B0CB84B8507
:10484000C7671BA081A31FDDDB7B16F5DAD05C50A8
:1048500011F0AB826E110E351E32C5C5B95DADB615
:1048600024821E51FDA19E944EF017B2AA7D1D9D7B
:104870009E1909DD0D8EB44E3A948781A59657B6E0
:10488000F1ACABE75D3BF1F2678C56867D4A870061
:10489000485A04B8873F0685596ACF8BF61FEB0448
:1048A00050EB6FC72ACB2C212285C619A3F1DAA9B8
:1048B0001109189BE2F6357758C530184BD09B414B
:1048C00068F5C405EDD88799EE69531762C71C8255
:1048D000FEC5269141C9DD0BA82677307B459F1583
:1048E0005C491F3B0AD7308C2B287E123717AAF160
:1048F0002503EB4F668D1D89EB0A34F3BF5C49C776
:1049000088F75068B52D16BC6DB7AD7919B37862CC
:10491000E35D2AFE7B1606FAE9FF506A390BCE2FBB
:10492000304A73EC51DFA22E483ABD1FE7F2AE2A9F
:10493000038D0AA4A37906E5BE1AED27B2C24692FA
:10494000DDB6020C0111DFC0BFCC0CBE42DF21245A
:1049500055C3243C5E7ACB604F56C940B541AEFC8E
:104960001882ABBDEA14CA5549CA943309553704B5
:1049700081E7339AFA0DE90FABE492D3A0BF9360BD
:1049800006B72044C94CB16FB09D4E31A1C578A285
:1049900074973FE20FAFA53FBF9A95DB326E4C7C18
:1049A000432F264D8F540AE4FBA4A06D6BDBE879FE
:1049B00088F7CC5C01CF601457246891E4EB423B4C
:1049C000E235EDE41F3A15744C4C72BEA17C02B185
:1049D000013AB4A3BC0738E45F7A4F858F9D318FCD
:1049E00025DC9A021339640609E0A3D0839D16A141
:1049F000583007F7464F34C624ABBC5C93D30D97B1
:104A000028933D31A1C5788274973FC20FAFA53E70
:104A1000BF9AB5D3326E4C7C432F264D8F540AE497
:104A2000FBA4A06D6BDBE87988F7CC756732A0C971
:104A3000DC62DE949D53217E806130C12F50AF2B0C
:104A40008B4DCF9E5F9606A8B3AF43C2B457B3DB7E
:104A5000435BB4FCC80E113B210C02BEE0A1B3AB1A
:104A60005F2B589ED0139B29658FC5D259E85105FD
:104A700066EE3D2BADD2E5EA8736C3AB618D4F6E56
:104A80008B4AE0B88B7C2A42AE505A74474FD166AD
:104A9000E4E97C8B8B9D58B4431ACDBAD8F32DB37F
:104AA0005CC514FA9CE4EB2E3BFBA6C48309009C76
:104AB000E1E49588184663A74A9E42378C0EA15FB1
:104AC000AA7AB8D4A54A6E18D3D2F0AD46D0ACA01D
:104AD0007A8A956AF96BCBEDCECB6FA7E3A10F472E
:104AE0007FEDE84399C4EF30177D8E986EFB690E19
:104AF000CEF6F3A31390404669E867712543F23878
:104B00004E987146157DF84D730719536CBD62615F
:104B100042156512169CE02EFA6798DA5FFB5BE897
:104B2000D7106F98E6459BA7B4CFAFF55A515C6399
:104B300030FD814780F6DDE3301C159149EE43F5E9
:104B4000556C2235D3D528B2F96E61020CA76B994A
:104B50004A10FA0A92B0F2E6F7EFDF7DE15EFE4E10
:104B6000A442CC757DEC34F8D21D8621766405CF45
:104B70001C1404D113BDC61A715334D5367A52664B
:104B80002F62CB462DEE6C89569C5BCEBB2D340636
:104B90002DCE172E2757817397A81BC7D76D0927CE
:104BA000F5477CD896A408015E803CDC6107AC9C8C
:104BB000528317C75AE19E30B2DD75B16F4047602E
:104BC00050444A6F39A0C7F240F586F07E8E847A51
:104BD0006B559E4C7E1234C9E322C46FC3CF8E95B1
:104BE000274BAD8BF61FEB0410EB6FC72ACB2C299C
:104BF0002285C419A3F1DAA91109189BE2F63577C9
:104C000058C530184BD09B4168F5C433EA2AC2C25C
:104C10004EA9905B4BBA82EB74C05556F2AFF3E0ED
:104C2000811E4375DA40966858812E7677EB8D0A9F
:104C300059DAFFDC51D30D0A93F755D02091865FE6
:104C4000EDD41EB2D7D353979587CBC2BAE034C503
:104C50005F71572F5CBC681E83D264A5E76E3981F3
:104C6000CAD363193CFD174007A3A7AAA9960898C1
:104C7000D2ECA9BFE0703B91097E0D0C7E75648B70
:104C80001A9508AD46D0ACB06A8A956AF96FCBED3B
:104C9000CECB6FA7E3A10F477FEDE84399C4EF3078
:104CA000177D8E986EFB690ECEF6F3E56825A91A7E
:104CB000DE2B3079F88A8055AE64B86678F0045DF2
:104CC0006A0F8C5DDCBFD7EB2C6CCAAAC506963088
:104CD000B787DE34D9034CF99CCB8EE743E9F26207
:104CE0008AC18B32924846DA3155860E90A31F88CE
:104CF000D6C9DC416DD31C4AD659F62A319FD72E2E
:104D00000CCD444BACADEB67816AA3096B0AA5439C
:104D10004D9C8CA6771EA3F6F462C7FF31459657CB
:104D20004D6E0CFC495B560B31C60B1C27B59EB56E
:104D30008EAE748EAC3E42B6EA40DB4C0124F49950
:104D4000140D977AC375909DCCF830A49F0828ACB9
:104D5000A86CDAD5C2D9AED5C538282E915766E2EF
:104D6000AED0038C8195325DBBCDA1DBB995B5A6E4
:104D70003109477536458AE42A0F4D0CDD7E2883BC
:104D8000195E68547F8A00687F5D395A6FF20EE4BD
:104D900080B3D9F8E465C71195998288658EA3E13F
:104DA0009BAF803460D43C6584FEE7E77A76236865
:104DB000342F3D92DA8003AF9766DCEE807B6DD8AE
:104DC0004564E40958D7FBD05C0C42CCC1A65050D6
:104DD00027698ABD7D008777462CCAAD56C5D0A706
:104DE000E354409D265AFC74DFF6C7FE7B1606FA94
:104DF000E9FF586A390BCE2D304AF3EC51DFA22E71
:104E0000483ABD1FE7F2AE2A038D0AA4A37906E54E
:104E1000BE1AED8058A64D42723F4F7ED1D6BD726C
:104E2000C54ADCD8CC6C4B693A69D548084F06A313
:104E30004C979D5890A75A4F445EA125C798B5132B
:104E4000F0B128B645745C9AE42876C3509DBF8FB4
:104E50005641E5ED85E268B9CF4FE26175D9E6418B
:104E60000A0F29BC4959568B31C60B1827B59A35FC
:104E70008EAE54AEAC3E42B6EA40DB4C0124F4990F
:104E8000140D977AC375909DCCF830A49F0828AC78
:104E9000A86CFA95C3F8AED5C5B8082E915766E24E
:104EA000AED0038C8195325DBBCDA1DBB995B5A6A3
:104EB000310947238D6AF7B44529CB7C13F8CD2BF4
:104EC000CCD4942A5D17DA439D99507B17AAF64CEF
:104ED0000D4DA3DDEE4BA28CCA3055FC495B568BC1
:104EE00031C60B1C27B59EB58EAE74AEAC3642B63D
:104EF000EA40DB4C0124F499140D977AC375909D18
:104F0000CCF830A49F0828ACA86CFAD5C3F9AED56C
:104F1000C5B8280E915766E2AED0038C8195325DFC
:104F2000BBCDA1DBB995B5A6310947D8090A868F53
:104F3000BBAB12E11C998894E82E40981693DC7A5A
:104F400051E3F8BA4EDD686E55F931A2AF7A6E22A0
:104F5000A727DDCC4B66C846CC18033C8C04BBF5B8
:104F6000D86019DF489FDB51AD96EF430C7A990E5C
:104F70005082CB9B96882F0D6BC216D4ED0FE9A4FF
:104F8000F4B31E836F7ABEFC3E1472FA7AC90848E5
:104F90002B0EFB13862E66C54618F81ED99F9FEF71
:104FA0003679045A090A869FBBAF52E10C99889C56
:104FB000E82E40989297FC7A51E3F8BA4EDD686E7D
:104FC00055F931A2AF7A6E22A727DD8058A64D424F
:104FD000723F4F7ED1D6BD72C542DCD8CC6C4B69D6
:104FE0003A69D548084F06A34C979D5890A75A4F49
:104FF000445EA17536458BE46A0F4D0CDD7E288337
:10500000195E68447F8A00687F5D395A6FF20EE44A
:1050100080B3D9F8E465C711959982A0E4BD8BE40B
:10502000947330062B20DEB083CC2230917427108D
:10503000EF6DF99B0CB84B85C7671BA081A31FDDE3
:10504000DB7B16F5DAD05C4011F0AB826E170E35C3
:105050001E32C4CDB955ADB624821E51FDA19E9419
:105060004EF017B2AA7D1D9D9E1909DA84E93162BE
:105070001F176D6863C5CD628E86B30275B6E39562
:10508000C16E30D709A56881075CD30E8654F2CB78
:105090004A2CFBBA260F0642ABD9A2BCB331B511DC
:1050A000AA984660955CE24D097625B1A2E52C0DE3
:1050B000B49BFEC027444E6EA1CDF9C8DBC7FF6488
:1050C00000B21E68BAA09C479E058ECC235D599500
:1050D000B0D5CEDD9EFFFD30587E30B3C06F9594C5
:1050E00070C24ABC2F97234092B86D078E65F33E7D
:1050F0008C7552D9A232043435CF1FCB5BF155B930
:10510000B55339CEA9E7C97CBA456A25C798B51306
:10511000F03128F645745C9AE72876C3509DBF8F1E
:105120005641E5ED85E268B9CF4FE26175D9E641B8
:105130000A0F292A4E04378DC265CA1A698A7BEE86
:105140004C69343675C6CEC3C02A0DDEAFB9ABE4A8
:105150004BA6AB12E379782AE17AD594E018C10C1A
:105160001E8415841A8BD1E60B6B1AEBF9C5F67405
:1051700077D960580B279156F8451FA44738D312AA
:10518000C72F797C101ECDB533EB875D8AD0736B4A
:10519000D2560581E5489911CF387C2F9F82961110
:1051A00060FA8999FE558AF3590424FC495B568BB1
:1051B00031C60B1C27B59EB586AE74AAAC3E42B66E
:1051C000EA40DB4C0124F499140D977AC375909D45
:1051D000CCF830A49F0828ACA86CFAD5C3F9AED59A
:1051E000C5B8282E915566E2AED0038C8195325D0C
:1051F000BBCDA1DBB995B5A6310947727DC86CF16D
:10520000FAD19F0EEF5D7CE40F7E22F8E7AB3A8582
:10521000F1220FE7D28C6DF5EE81D7C40E584BF515
:10522000C10D074E91295A5C3B3550B036856EE171
:10523000B5EBA173F256327745953975F2AFF46943
:10524000192145F6F4E3D5A788385D9579801C755A
:1052500080945C01B13137969293DB149D1D5A0600
:105260009E4BB750BDFD965CBB57247906CCD5F458
:105270002E2C74F19A589E716DEFC5EA9FC62DD9F8
:10528000C2554CBD670E2A98023B5A6A6B4FF641D5
:10529000318F795AA1A07A4A50A518C84B66C846E2
:1052A000CC18033C8C04BBF5D86019DF489FCB5168
:1052B000AD96EF430C7A990E5082CB9B96882F0DBA
:1052C0006BC216D4ED0FE8A4F4B21E836F7ABEFC55
:1052D0003E1472FA7AC908482B0EFB13862E66C557
:1052E0004618F81ED99F9FEF3679044FF1DB0490E2
:1052F000856A7114E1FAE323A75153E4DA60A93C0B
:10530000443CD2E4E0F051D27AEAE37318CDD6A758
:105310006FBDE361616B918DE2EC7A3154DCDFD3D8
:10532000EF030DF4971A6B3C86067F0CF6BD0DFC5F
:10533000777AEFAA9872145705B67354ED0FE9A463
:10534000F0B31E836F7ABEFC3E1472FA7AC9084825
:105350002B0EFB13862E66C54618F81ED99F9FEFAD
:1053600036790435D3D528B2F96E61020CA74B9972
:105370004A00FA0A92B0F2E6F7EFDF7DE15EFE4EF8
:10538000A442CC757DEC34F8D21D8627BC66492832
:1053900060F2B71E70FE34FB560C2218041CC9CEF6
:1053A000FB04011ED5C31FD5B0C869686218B101DE
:1053B0002959A7DA84E930621F176D6862C5CD628A
:1053C0008E06B30275B6E395C16E30D709A5688124
:1053D000075CD30E8654F2CB4A2CFB31A1C578A0D2
:1053E00074971FE20FAFA53F3F9AB5DB326E4C7C3E
:1053F000432F264D8F540AE4FBA4A06D6BDBE879A4
:1054000088F7CC5C00CF601C57246C91E4EB423BE6
:10541000E2B5EDE41F3A15744C4C72BEA17C02B1AA
:10542000013AB4A3BC0738E45F7A4F9D4F44F7A11B
:105430005822570305A4BC95CAED6E640982D2F9BF
:1054400064AF83D87C991EA3501BB54C1CBD50483B
:10545000C8B9C600F405D2B4D05843CB022CFE859F
:10546000872A06060C1101EEB2D0D2FA61E1B78F9D
:10547000596CA6E7AFFA0FDBE8B70AFE7B1606FA0F
:10548000E9FF586A390B4E2F204AF1EC51DFA22E6A
:10549000483ABD1FE7F2AE2A038D0AA4A37906E5B8
:1054A000BE1AED8058A64D4272374F7ED156BD725E
:1054B000C54A9CD8CC6C4B693A69D548084F06A3BD
:1054C0004C979D5890A75A4F445EA1D4CD0FE9A4A4
:1054D000F4B30E836F6ABEFC3E1472F27AC90848B8
:1054E0002B0EFB13862E66C54618F81ED99F9FEF1C
:1054F0003679049F1D2E08E1E57E60EC771457692C
:10550000ACF82215FFFC001B0DD8ED088A3E280DD3
:10551000AAD33578C99E009E067D93F5CAD05C500B
:1055200011F0AB826E130E350E32C5CD395DADB6BE
:1055300024821E51FDA19E944EF017B2AA7D1D9D9E
:105540009E1909DA84E931621F176D686345CD62DF
:105550008E86B30275B6A395C16E30D709A5688152
:10556000075CD30E8654F2CB4A2CFB31A1C578A23E
:1055700074973FE20DAFA53BBF9AB5DB32664C7C1A
:10558000432F264D8F540AE4FBA4A06D6BDBE87912
:1055900088F7CC2520F2CC1E98F09C700A068F7DEF
:1055A000BC16FFE2D1B4E07418373FA4DB78B03604
:1055B0009AD11647D1E945B5229026DA8069314261
:1055C0001F176D6863C5CD628E86B30275B6E3950D
:1055D000C16E30D709A56881075CD30E8654F2CB23
:1055E0004A2CFBAD46D0ACB07A8A956AF94FCBED28
:1055F000CACB6FA7E3A10F477FEDE84399C4EF3013
:10560000177D8E986EFB690ECEF6F3A04CE4ED2666
:10561000E4BD6F221877BB620902E82D043D64E106
:105620000BA0C4A1773FBCE30B5273B8F8A0871C52
:1056300053A74A8C7774C1FA5C1DA1A006AF0A0279
:10564000029F63909725808925EA7966BF57CE43EC
:10565000C80F5E2C8208CDCF3B38E2DC51C30D0B66
:10566000B3F755C02091865FEDD41EB2D7D35297C1
:105670009587CBC2BAE034C55F71572F5CBC681EFA
:1056800083D264FA9CA46B2E2BFBA6C48309001C56
:10569000E1E495A8184661A74A9E42378C0EA15FA7
:1056A000AA7AB8D4A54A6E18D3D2F04FF1DB049091
:1056B000856A6114E1FAE323A75153E4DA68A13C57
:1056C000443CD2E4E0F051D27AEAE37318CDD6A795
:1056D0006FBDE323BC66492820F2B31E70FE34FB85
:1056E000560C2618041CC9CEFB04011ED5C31FD5B9
:1056F000B0C869686218B1012959A74DA4DDF660E8
:10570000378D4DF7C7321D6B12098DE949242634B8
:10571000C99F29BDD11A101C29F18C9F9BC5F6D7B2
:10572000E6EB5C35D3D528B2F96E61020CA76B9914
:105730004A10FA0A92B0E2E6F7EFDF7DE15EFE4E34
:10574000A442CC757DEC34F8D21D8621566405C781
:105750001C1404D113BDC61A715334D5367A52665F
:105760002F62CB462DEE6C89569C5BCEBB2D34064A
:105770002DCE174DA4DDF668378D4DF7C7321D6F5E
:1057800092098DE949242634C99F29BDD11A101CDC
:1057900029F18C9F9BC5F6D7E6EB5CF84D8BBDAC31
:1057A000D0DF538D02887D74B65B84185D609FC521
:1057B000EB5C24592A59E13843FD3038792559E109
:1057C000E761C14FD1DB0490856A7114E1FA63236C
:1057D000A75152E4DA68A83C443CD2E4E0F051D24C
:1057E0007AEAE37318CDD6A76FBDE361616B910DC3
:1057F000E2EC7A3154DCFFD3EF220DF4971A6B3CC4
:1058000086067F0CF6BD0DFC777AEFAA98721457C6
:1058100005B673D4ED0FE9A4F4B31E836C7ABEFC15
:105820003E1470DA7AC908482B0EFB13862E66C523
:105830004618F81ED99F9FEF367904FE7B1606FAAC
:10584000E9FF586A190BCE2F3042F3EC51DFA22E3C
:10585000483ABD1FE7F2AE2A038D0AA4A37906E5F4
:10586000BE1AED0958D7FBD0540C42CCC1A65050FB
:1058700027698ABD7D008777462CCAAD56C5D0A75B
:10588000E354409D265AFC74DFF6C7DA84E931629E
:105890001F17656863C5CD628E86B30275B6E39542
:1058A000C16E30D709A56881075CD30E8654F2CB50
:1058B0004A2CFBFC495B568B31C60B1C27B59EB5A9
:1058C0008A8E74AAAC3E42B6EA40DB4C0124F499BD
:1058D000140D977AC375909DCCF830A09F0828AC22
:1058E000A86CFAD5C3F9AED5C5B8282E915766E293
:1058F000AED0038C8195325DBBCDA1DBB995B5A649
:10590000310947EC98A85321956433E0E62E634FA4
:105910003C70D114C216149624B5035DC566014BC4
:10592000DA3082FD62A4B9E6C746A127B2C24612A8
:10593000FDB6060C0111DFC0BFCC08BE42DF232438
:1059400055C3243C5E7ACB604F56C940B541AEFC8E
:105950001882ABFA9CE4EB2E3BFBA6C48309001C27
:10596000E1E495A8184663A74A9E42378C0EA15FD2
:10597000AA7AB8D4A54A6E18D3D2F08C777441FABB
:105980005C1DA1A006AF0A0A028F6390972580894B
:1059900025EA7966BF57CE43C80F5E2C8208CDCF6B
:1059A0003B38E2DC51D30D0BB3F755D02091865F25
:1059B000EDD416B2D7D353979587CBC2BAE034C58E
:1059C0005F71572F5CBC681E83D264A5E76E31817E
:1059D000CAD363193CFD174007A1A7AAA99208984A
:1059E000D2ECA9BFE0703B91097E0D0C7E75648BF3
:1059F0001A9508AD46D0ACB07A8A956AF96FCBEDAE
:105A0000C6CB6FA7E3A10F477FEDE84399C4EF3002
:105A1000177D8E986EFB690ECEF6F3D851D30D0B21
:105A2000B3F755D02091845FEDD41EB2D7D35397EE
:105A30009587CBC2BAE034C55F71572F5CBC681E36
:105A400083D264C2941BC02828D037DAD6415F1EA7
:105A500081886C06DD62ACF501C9D07A02AC612D9B
:105A6000C708007CD1F9F0B5C74CEDBBA787E88922
:105A700086B88B9ED1991EA807A65EE924DA21E19B
:105A800049ECD2E678CA09A00258272A8524C09793
:105A90007F7C35A31390404669E867712542F23C4C
:105AA0004E983546157DF84D730719536CBD6261EC
:105AB00042156512169CE02EFA6798DA5FBB5BE828
:105AC000D7146F98E6459BA7B4CFAFE55A515C63F6
:105AD00030FD814780F6DDE3301C159149EE43F53A
