:020000040800F2
:100000007836002045010008AD1200081D120008D6
:10001000AB1200082F070008C125000800000000EF
:10002000000000000000000000000000431A00086B
:10003000410C000800000000A3140008951F0008F0
:100040005D280008A114000879200008A9190008FB
:100050000D0F0008F5170008F90C0008010D000845
:10006000050D0008090D00080D0D0008ED0700083A
:10007000F1070008F5070008F9070008FD07000868
:1000800001080008050800082B070008F1240008F3
:10009000BD2500083B0700083D070008110D0008BA
:1000A0007B200008812000087F2000087D200008B8
:1000B00099200008AD200008C52000082112000882
:1000C0001F12000825120008231200083D1A00081C
:1000D0003F1A0008ED20000871210008F1210008F6
:1000E000FD0C000895180008CD240008CF2000085A
:1000F000D5200008D3200008D12000082D070008D3
:10010000410F0008E5190008C9200008411A00083D
:10011000E3200008E7200008CB200008CD200008DD
:10012000090800080D080008110800081508000853
:10013000DFF80CD000F0BCFA00480047E5400008AA
:1001400078360020004800473101000840EA0103EA
:100150009B0703D009E008C9121F08C0042AFAD27D
:1001600003E011F8013B00F8013B521EF9D2704741
:10017000D2B201E000F8012B491EFBD270470022E9
:10018000F6E710B513460A4604461946FFF7F0FF96
:10019000204610BD2DE9FE4F804681EA0300C00FC6
:1001A0000C46009021F0004123F00045B8EB02001E
:1001B000A94105D24046214690461C460B460246C0
:1001C00023F00040104347D0270DC7F30A00C3F3C4
:1001D0000A510290401A019040286BDAC3F31300D1
:1001E00040F4801B0098924620B10023D2EB030A12
:1001F00063EB0B0B01985946C0F14002504600F0EA
:10020000B0F906460D4650465946019A00F0C8F925
:1002100010EB08006141002487EA115284EAE77379
:100220001A4340D0009A62B3019A012A4FEA07525A
:1002300015DC001B61EB02014FF0004202EA07529D
:10024000CDE90042001C41F5801132462B4600F0FA
:10025000C8F903B0BDE8F08F40462146F9E7001B1E
:1002600061EB0201001C41F5801300185B4120186E
:10027000A2F5001747EB030140EAD570B6196D41AE
:1002800011E06D084FEA360645EAC0754FEA07529D
:10029000001B61EB0201001C41F5801149084FEA87
:1002A00030000019514132462B4603B0BDE8F04FF3
:1002B00000F088B90098012240000023D0EB020230
:1002C00063EBE073009821464FEAE074B8EB00005E
:1002D00061EB0401E9E783F000435BE781F0004153
:1002E00058E72DE9FE4F81EA030404F0004421F0B1
:1002F000004100944FF0000B23F0004350EA01044A
:100300005ED052EA03045BD0C3F30A54C1F30A552A
:100310002C44A4F2F3340194A0FB0254C1F3130162
:1003200041F48011C3F3130343F4801301FB02442F
:1003300000FB034E840A970A44EA815447EA835734
:10034000A4FB076802958D0A05FB07854FEA932CED
:1003500004FB0C542705029D4FEA065847EA16375E
:10036000B5EB08056EEB070C870E920E47EA811776
:1003700042EA8312A7FB0201B6EB0B0164EB000417
:100380002B0D43EA0C335E1844EB1C50DA46514601
:10039000E7FB0201C5F313044FEA0B3343EA14539E
:1003A0004FEA0432019C43EA0603A4F10C040294D0
:1003B000009CCDE900B400F014F903B0BDE8F08F63
:1003C00000200146F9E72DE9F04D81EA030404F02D
:1003D000004B21F0004514464FF0000A23F0004185
:1003E00050EA050220D054EA01021DD0C5F30A5795
:1003F0000246C5F31303C1F31300C1F30A5640F4D8
:10040000801543F48013A7EB0608101BD64608F2AC
:10041000FD3873EB050002D308F1010801E09218E2
:100420005B41B8F1000F03DA00200146BDE8F08D12
:1004300000204FF48011064684460EE0171B73EB34
:10044000050705D3121B63EB050306434CEA010CB9
:1004500049084FEA300092185B4150EA0107EDD19C
:1004600052EA030012D082EA040083EA050108433D
:1004700005D0101BAB4106D20122002306E000226A
:100480004FF0004302E06FF0010253101AEB060038
:100490004CEB085110EB0A0041EB0B01BDE8F04DAD
:1004A00000F090B830B5041E71F1000404DB4FF089
:1004B0000044404264EB0101141E73F1000405DBAB
:1004C0001C464FF00043524263EB0403994208BFBD
:1004D000904230BD30B50B46014600202022012459
:1004E00009E021FA02F59D4205D303FA02F5491B02
:1004F00004FA02F52844151EA2F10102F1DC30BD18
:100500002DE9F05F0546002092469B468846064648
:10051000814640241BE0284641464746224600F0DB
:100520002FF853465A46C01A914110D31146184627
:10053000224600F016F82D1A67EB01084F462246B6
:100540000120002100F00DF817EB00094E41201E9C
:10055000A4F10104DFDC484631462A464346BDE8A3
:10056000F09F202A04DB203A00FA02F100207047B5
:100570009140C2F1200320FA03F3194390407047E1
:10058000202A04DB203A21FA02F00021704721FAE8
:1005900002F3D040C2F1200291400843194670474F
:1005A000202A06DBCB17203A41FA02F043EAE07337
:1005B00006E041FA02F3D040C2F120029140084324
:1005C0001946704710B5141E73F1000408DA401C78
:1005D00041F1000192185B411A4301D120F0010062
:1005E00010BD2DE9F04D92469B4611B1B1FA81F252
:1005F00002E0B0FA80F220329046FFF7B2FF0446E4
:100600000F4640EA0A0041EA0B0153465A460843A6
:1006100013D0114653EA010019D0C8F140025046E8
:10062000FFF7AEFF05460E46504659464246FFF7D5
:1006300098FF084305D0012004E020463946BDE874
:10064000F08D0020054346EAE0762C4337430A98B4
:100650006305E40AA0EB08000022FD0A44EA4754BF
:100660000A3002D500200146E9E701051019694169
:10067000DDE9084500196941BDE8F04DA2E7C1F385
:100680000A52C1F3130140F2FF3341F480119A4240
:1006900002DA00200146704740F233439A42A2F248
:1006A000334202DC5242FFF76BBFFFF75ABF000034
:1006B000064C074D06E0E06840F0010394E80700AF
:1006C00098471034AC42F6D3FFF736FD1C480008BB
:1006D0003C48000870B58C1810F8015B15F0070352
:1006E00001D110F8013B2A1106D110F8012B03E0CB
:1006F00010F8016B01F8016B5B1EF9D12B0705D4D3
:100700000023521E0DD401F8013BFAE710F8013B1B
:10071000CB1A921C03E013F8015B01F8015B521E37
:10072000F9D5A142D8D3002070BD70477047FEE7CD
:10073000C1B2000A40EA01207047704770470000CC
:100740002DE9F0410B4D0C4E47F6FF770B4C06E0C0
:100750002F6000F00F00207040B103F021FA2868EC
:1007600080B230800104F3D4BDE8F08103F068F971
:10077000F5E70000445C0040D82100204E00002036
:10078000810008480844D0F8001C490408D5D0F876
:10079000001C48F68F72114041F48041C0F8001CE3
:1007A0007047000000500040810008480844D0F81D
:1007B000001C490608D5D0F8001C48F68F7211407D
:1007C00041F04001C0F8001C70470000005000409C
:1007D000810005480844D0F8001C48F68F6211409B
:1007E000C0F8001C704700000050004000F066B8E0
:1007F00000F064B800F062B800F060B800F05EB8D5
:1008000000F05CB800F05AB800F058B800F056B8E4
:1008100000F054B800F052B8C10002D50249086097
:1008200070470249486070470404024000000240DB
:10083000002904D0016841F001010160704701689E
:1008400021F001010160704702460020D10002D56D
:100850000449096801E004490968114200D00120F7
:10086000704700000004024000000240002A03D04C
:1008700002680A430260704702688A430260704758
:1008800030B5026847F6F0739A430C6A8B682343CD
:10089000D1E904452C4323438C692343CC6923438A
:1008A0004C6A23438C6A234313430360CA68426043
:1008B0000A6882604968C16030BD000010B501F06F
:1008C000CBFF1020FFF7C0FF01281BD04FF480544E
:1008D0002046FFF7B9FF01281DD024032046FFF76B
:1008E000B3FF012821D0164C2046FFF7ADFF0128A9
:1008F00025D12046FFF790FFBDE8104000211148A8
:10090000FFF796BF1020FFF787FFBDE810400021DA
:100910000D48FFF78DBF2046FFF77EFF0A480021F4
:10092000BDE810402830FFF783BF2046FFF774FF73
:1009300005480021BDE810406430FFF779BF10BDC5
:1009400000000110580402401C0002402DE9F0474D
:10095000254F796801F1100528880E7ADFF88C8020
:100960004FF03009002801D1042E04D0AC88A042F9
:1009700015D8042614E03878012804D00726102062
:10098000A8F800002BE01A4900200968194A89B22A
:10099000891C42F81100A8F8009038701FE0022668
:1009A000844200D90446A968A0B288478246002044
:1009B00000F002FC0146A2B2504601F003FEA1B2D3
:1009C000002001F0D3F82888001B28806888204484
:1009D0006880A8F8009008494FF440500880786873
:1009E0000672BDE8F08700003C00002052000020A5
:1009F000505C004000600040500000202DE9F041B4
:100A0000214E746810342088A168002915D0A0B147
:100A1000A588854200D90546A8B2884707462088A0
:100A2000401B2080608828446080002000F0A4FBE8
:100A30000146AAB2384600F021FD2088134F302528
:100A400038B11349280208800021084601F08EF8C9
:100A50003D802088A188884204D3716803200872F1
:100A6000BDE8F08118B1716805200872F8E7716877
:100A700006200872074800210068074A80B2801CDF
:100A800042F810103D80EBE73C00002052000020AF
:100A900050000020505C004000600040F8B5614DFF
:100AA0006868427800242946062A896801D08AB1FC
:100AB00017E00278520669D18078012804D0022814
:100AC00004D0032804D061E0CC695FE00C6A5DE0EB
:100AD0004C6A5BE0438823B9C388022B01D10379B8
:100AE00023B1082A39D00A2A3CD04FE002785306B5
:100AF00001D1838833B102F07F02012A04D0022A97
:100B00000CD043E0484C41E08A694079002190478D
:100B100010BB6868807AF8B1434C37E0417901F046
:100B20000F0001F070020B06404907D501EB800170
:100B3000D1F8001CC1F30111090106E001EB8001AD
:100B4000D1F8001CC1F301310903394B1B788342F2
:100B50001CD90AB901B1344C18E00078400615D10F
:100B6000344C13E0027802F07F02012A0ED1827A1F
:100B700062B1428852B9027942B9C288012A05D1CC
:100B80008A6940790021904700B92B4C092700263B
:100B900034B16868468284610020A047002006E0E6
:100BA000A9686868096940788847032815D069688A
:100BB0000A8AA2F57F43FF3B0DD0022810D07AB1FC
:100BC0000878000627D5C8880090009882420BD983
:100BD0000098088217E00F72F8BD68680772F8BDC8
:100BE0004FF008000872F8BD0DD2A86890F82C00EC
:100BF000824201D22E7006E0B2FBF0F300FB13201C
:100C000008B901202870A86890F82C008882BDE8F7
:100C1000F840FFF79BBE03200872084900030880D4
:100C2000F8BD00003C000020D51D00080050004029
:100C3000380100206D1D0008B11D00085000002083
:100C40007047000010B50F490020487003F04EFDBA
:100C50000D4802F077FD04466CB12246C0210A48D7
:100C600001F0B0FC2146012000F080FFBDE81040FB
:100C7000012000F09FBF0021BDE81040012000F0DE
:100C800075BF0000700000202A22002070B502F01D
:100C900097FD064602F08EFD154C002121704FF4A1
:100CA000005500B1AEB1032000F076FA6080024634
:100CB0004FF488710F4800F0E1FB6188002916D0DD
:100CC0000C4802F085FD608048B1032000F02CFF45
:100CD00009E02946BDE87040032000F00FBF294617
:100CE000032000F00BFF618860680844606070BDFD
:100CF00070000020EA21002000F0C0B800F0BEB86B
:100D000000F0BCB800F0BAB800F0B8B800F0B6B85F
:100D100000F0B4B8014908607047000014040140B5
:100D200010B5012000F09AF84B4C20B1208840F01B
:100D30000100208010BD022000F090F820B1208832
:100D400040F00200208010BD042000F087F820B1A0
:100D5000208840F00400208010BD082000F07EF8BC
:100D600020B1208840F00800208010BD102000F045
:100D700075F820B1208840F01000208010BD2020A0
:100D800000F06CF820B1208840F02000208010BDD9
:100D9000402000F063F820B1208840F0400020801F
:100DA00010BD802000F05AF820B1208840F080006B
:100DB000208010BD4FF4807000F050F820B12088E2
:100DC00040F48070208010BD4FF4007000F046F8B1
:100DD00020B1208840F40070208010BD4FF4806066
:100DE00000F03CF820B1208840F48060208010BDE5
:100DF0004FF4006000F032F820B1208840F4006029
:100E0000208010BD4FF4805000F028F820B12088D9
:100E100040F48050208010BD4FF4005000F01EF8C8
:100E200020B1208840F40050208010BD4FF4804055
:100E300000F014F820B1208840F48040208010BDDC
:100E40004FF4004000F00AF80028F8D0208840F461
:100E50000040208010BD00000C0000200146002052
:100E6000054A12680A40044B14331B680B4202D037
:100E7000002A00D0012070470004014008B500207E
:100E80000090FFF74DFF01F0E7FC1F48BDF8001090
:100E900001800120FFF73EFF0220FFF73BFF042007
:100EA000FFF738FF0820FFF735FF1020FFF732FF6C
:100EB0002020FFF72FFF4020FFF72CFF8020FFF7B7
:100EC00029FF4FF48070FFF725FF4FF40070FFF704
:100ED00021FF4FF48060FFF71DFF4FF40060FFF724
:100EE00019FF4FF48050FFF715FF4FF40050FFF744
:100EF00011FF4FF48040FFF70DFFBDE808404FF4AD
:100F00000040FFF707BF00000C0000207047000002
:100F100004490A6822F010020A600A6802430A6063
:100F2000704700000020024004490A6802F03802BD
:100F30000A600A6802430A6070470000002002400D
:100F40007047000070B50C4600286BD0364A811AF5
:100F50001315D614904253D017DC3449344D411840
:100F60004FF6FF721ED0994234D0B1425AD10121BE
:100F7000102000F0F7FA600401D4200452D5BDE837
:100F800070400121112000F0EDBA99423ED0B142EB
:100F900042D0B1F5406F45D1BDE870400121080253
:100FA00000F0E0BAA00405D4600403D4200401D406
:100FB000944209D10121052000F0D4FA2846BDE869
:100FC0007040012100F0AEB8BDE87040012104205E
:100FD00000F0C8BA200703D4E00601D4944209D136
:100FE0000121092000F0BEFA2846BDE87040012129
:100FF00000F098B8BDE870400121082000F0B2BAB6
:10100000BDE870400121202000F0ACBABDE870407E
:101010000121402000F0A6BABDE8704001218020E7
:1010200000F0A0BA70BD00000014014000F8FEBF3F
:101030000002300038B50446ADF8001002228DF8E9
:10104000022048228DF803202046FFF77BFF6946E7
:10105000204600F013F838BD38B50446ADF800104E
:1010600003228DF8022010228DF803202046FFF77E
:1010700069FF6946204600F001F838BD2DE9F041CE
:10108000002200284CD0CC7804F00F03E40601D5F0
:101090008C7823430C784FF00F0714F0FF0F4FF0BC
:1010A000010C1BD005680CFA02F40E882640A642FB
:1010B00010D1960007FA06F825EA080503FA06F8A3
:1010C00048EA0505CE78282E00D14461CE78482E16
:1010D00000D10461521C082AE5D305600A88FF2A62
:1010E0001ED94568002202F108060CFA06F40E88A3
:1010F0002640A64210D1960007FA06F825EA080510
:1011000003FA06F848EA0505CE78282E00D1446196
:10111000CE78482E00D10461521C082AE3D34560E2
:10112000BDE8F081F0B5114D6B68C0F30342440D8A
:10113000260184B2C0F30157B440032F07D0C00288
:101140000CD503209040834343F0706209E023F004
:101150007062686820F07060686002E0A34343F04A
:10116000706201B122436A60F0BD000000000140DE
:1011700041617047016170470549096889B201EB17
:10118000C0000449001D31F8100080B27047000013
:10119000505C0040006000400549096889B201EBDD
:1011A000C0000449801D31F81000C0F309007047E9
:1011B000505C0040006000400449096889B201EBBE
:1011C000C000034931F8100080B27047505C004005
:1011D0000060004010B50F480168001D0268001D46
:1011E0000368002915D00C4881700C0A04710C0C9E
:1011F0008471090E01728272110A0173110C8173DC
:10120000110E01748374190A0175190C8175190E78
:10121000017610BDE8F7FF1F54000020FEE770477D
:10122000704770477047000010B5134C6068017A32
:1012300002290AD0042908D006290BD008206168A9
:101240000872BDE8104000F02DB9FFF77FFB606821
:10125000007AF4E74178052908D10178490605D1DB
:10126000C07800F0F9FBE068006A8047A0688068F9
:1012700080470820E3E700003C000020810701D000
:10128000002070476421B0FBF1F201FB120109B1AB
:10129000012070474FF4C871B0FBF1F201FB12005E
:1012A00008B10020704701207047FEE77047704783
:1012B00070B50F24C27801260178002A2AD01A4A74
:1012C000126802F4E062C2F5E062120AC2F104039D
:1012D000D44045789D40827822402A4314018A07F1
:1012E000D30E9C4021F0030202F1E022D2F8005418
:1012F000FF2199408D430C402543C2F800540078EB
:1013000000F01F018E404009800000F1E020C0F88D
:10131000006170BD01F01F0086404809800000F1A7
:10132000E020C0F8806170BD0CED00E00249084388
:1013300002490860704700000000FA050CED00E06B
:10134000024A1140014302480160704780FFFF1FBD
:1013500008ED00E070B50220324D69684C780A78DB
:10136000530606D002F07F01012931D0022934D082
:101370003DE0092C06D0052C07D0032C12D0012CFF
:101380001BD034E000F07CFD31E0C8787F2805D820
:10139000887818B9888808B9887A08B108203EE0AA
:1013A000002024E0CA78012A21D18A88FAB9497A32
:1013B00089061CD500F07CFD19E0CA78012A16D1F7
:1013C0008A88A2B9497A890611D500F04DFC0EE051
:1013D0000B2C0CD100F0BEFD09E0012C02D0032C37
:1013E00003D004E000F040FC01E000F06FFD28B104
:1013F000A968E0B249698847032802D018B10820DB
:101400000DE009200BE00620074900220968074B80
:1014100089B2891C43F81120054A3021118069687E
:10142000087270BD3C000020505C0040006000402D
:101430005200002010B5104C6068007A03280ED0CE
:1014400005280CD007280FD0022812D0042810D06D
:10145000082061680872BDE8104000F023B8FFF76B
:10146000CDFA6068007AF4E7A068C0688047082079
:10147000EFE70820EDE700003C000020521C520876
:10148000064B03EB4101002A06D031F8043B20F85B
:10149000023B521E002AF8D1704700000060004055
:1014A0007047704710B50B4890F82C10002000F0E2
:1014B00003FB09484068007A082805D1074A410221
:1014C0001180074A10211180092801D0002010BD89
:1014D000012010BDE80000203C000020500000204A
:1014E0005200002010B5012001F000F8012106484B
:1014F0000160064A00210160031D19604FF4E051AC
:1015000011800160002010BD405C00404C000020B4
:10151000054A002903D0516901435161704751695F
:10152000814351617047000000100240054A0029C4
:1015300003D0D1690143D1617047D1698143D16141
:101540007047000000100240054A002903D01169CD
:1015500001431161704711698143116170470000B7
:1015600000100240054A002903D0916901439161AE
:1015700070479169814391617047000000100240FB
:10158000054A002903D0D1680143D1607047D16872
:101590008143D160704700000010024070B5002404
:1015A00000F068F84FF48035284600F001F9681E15
:1015B0002146641C8142FBD300F052F9012803D07C
:1015C000BDE8704000F025B81020FFF7A1FC022014
:1015D000FFF7AAFC002000F0E1F8002000F016F967
:1015E0004FF4806000F008F94FF4E011284600F055
:1015F0001DF9012000F014F9392000F0AFF800289F
:10160000FAD0022000F01CF900F0C0F80828FBD145
:1016100070BD10B500F02EF8012000F0E5F8202094
:1016200000F09CF80028FAD0002000F0B7F8002065
:1016300000F0ECF84FF4806000F0DEF80220FFF7D5
:1016400073FC1020FFF764FC4FF46011002000F0E1
:10165000EDF8012000F0E4F802E0022000F0F0F8DC
:10166000392000F07BF80028F7D000F08FF8082828
:10167000FBD110BD0B48016841F0010101604168D8
:10168000094A114041600168084A1140016001683F
:1016900021F480210160416821F4FE0141600021B4
:1016A00081607047001002400000FFF8FFFFF6FE67
:1016B00010B5264A516801F00C01254B002927D0AE
:1016C000042927D0082927D00360516801F0F001D0
:1016D0000909204B5C5C0168E1404160546804F4F6
:1016E000E064240A1C5D21FA04F48460546804F464
:1016F0006054E40A1B5DD940C160526802F4404264
:10170000920B144B1B1F9A5CB1FBF2F1016110BDEF
:101710000360DAE70360D8E7516801F4701102232F
:1017200003EB9141536803F4803333B153689B0357
:1017300007D5094B59430160C7E7074B594301607F
:10174000C3E7034B59430160BFE7000000100240AC
:1017500000127A004447000800093D0003460020BB
:101760005909094A01290AD002290AD0516A03F00D
:101770001F02012393400B4200D0012070471168E3
:10178000F5E7116AF3E700000010024002484068E4
:1017900000F00C007047000000100240034A51683E
:1017A00021F0F00101435160704700000010024039
:1017B0000C490A6822F480320A600A6822F4802206
:1017C0000A60B0F5803F07D0B0F5802F03D10868DC
:1017D00040F4A02008607047086840F4803008603A
:1017E0007047000000100240014908607047000087
:1017F0000000424270470000034A516821F4E06152
:10180000014351607047000000100240034A5168D4
:1018100021F4605141EAC00050607047001002405E
:10182000014908667047000000004242034B5A68B5
:1018300022F47C12084310435860704700100240A5
:10184000034A516821F003010143516070470000D1
:10185000001002400149086070470000D800424271
:1018600030B50B4C40F2FF153120FFF777FF2070A9
:101870006068401C6060207810B96068A842F3D1AD
:101880003120FFF76BFF08B1012030BD002030BDD3
:10189000040000207047000002490A8882430A8041
:1018A00070470000042800402DE9F04700F062F87E
:1018B00005462C4FB5FBF7F32B482C4E0188994277
:1018C0002ED0038040F2B2744FF4B7784FF4B6795B
:1018D0000CE02046FFF7D2FC20B1434508D3A3F526
:1018E000B77301E0A3F26D13641CA4B24B45F0D8AA
:1018F000B4800024DFF878800CE0B088FFF7BEFCED
:1019000008B1012C29D018F80400984204D81B1AF9
:10191000641CA4B21C2BF0D2641CB4715B1CF37168
:10192000B5FBF7F007FB10504FF46161B0FBF1F22B
:101930003270B0FBF1F201FB12033C22B3FBF2F375
:101940007370B0FBF1F301FB1300B0FBF2F102FB8B
:101950001100B0700020BDE8F0871D2BDCD31D3BCB
:10196000D6E70000805101000E0000208801002011
:1019700054470008034800880249091F098840EAC3
:10198000014070471C28004006490988C2B2114036
:10199000044A121F1288024202D009B10120704786
:1019A000002070470428004010B50120FFF7ECFF2D
:1019B00008B1FFF779FF0220FFF7E6FF10B1022020
:1019C000FFF76AFF0520FFF767FFBDE8104000F052
:1019D00001B80000024801888906FCD57047000064
:1019E000042800407047000010B512494878421C96
:1019F0004A7005281DD9002048700F4801F0A2FE4A
:101A000004466CB12246C0210B4800F0DBFD2146A4
:101A1000012000F0ABF8BDE81040012000F0CAB88A
:101A20000021012000F0A2F8BDE81040012000F0E4
:101A3000C1B810BD700000202A22002070477047F6
:101A400070477047FFF7AABD024920F00700086001
:101A500070470000505C0040F0B50C490E78002142
:101A60000B4D48F68F7709E0CBB205EB8302D2F835
:101A7000004C3C401C43C2F8004C491CB142F3D31B
:101A8000044940F080000860F0BD000038010020EB
:101A9000005000404C5C0040054A21F001011268F2
:101AA00092B202EBC000034A001D42F810107047CA
:101AB000505C0040006000400E4A126892B202EB97
:101AC000C0000D4A801D02EB40023E290AD9480998
:101AD000C90601D1401E80B24FF4004141EA802086
:101AE000106070474808C90701D0401C80B28002CE
:101AF00010607047505C0040006000408200094860
:101B00000244D2F8000C4BF68F731840CB0401D579
:101B100080F48050890401D580F40050C2F8000C94
:101B20007047000000500040810007480844D0F88A
:101B3000001C4BF68F72114081F4805181F40051EA
:101B4000C0F8001C7047000000500040054A21F01A
:101B50000101126892B202EBC000034A42F8101071
:101B600070470000505C004000600040044A12686A
:101B700092B202EBC000034A801C42F8101070477A
:101B8000505C004000600040820009480244D2F8E6
:101B9000000C48F6BF731840CB0601D580F010004A
:101BA000890601D580F02000C2F8000C70470000C3
:101BB00000500040810007480844D0F8001C48F657
:101BC000BF72114081F0100181F02001C0F8001CAB
:101BD0007047000000500040820005481044D0F8D3
:101BE000002C48F68F131A400A43C0F8002C7047A7
:101BF0000050004038B51948006880B2001D41000F
:101C00001748095A89B200EB41040094154D6868E1
:101C1000017A092913D0217801706178241D41705F
:101C20002088FEF785FD69684880A088A41DFEF71E
:101C30007FFD69688880A41C00942088C88068683B
:101C400001210172C08828B1FEF728FFBDE83840A5
:101C5000FFF728BCFFF77EFBF8E70000505C004070
:101C6000006000403C0000202DE9F0413B4E7068D0
:101C7000017801F07F01002904D0022908D0022058
:101C8000BDE8F081417A01F0DF0141720020F7E701
:101C9000418809B9017909B10220F1E7304B417956
:101CA00021F080042F4F0A0607D507EB8402D2F8F3
:101CB000002CC2F30112120106E007EB8402D2F8F5
:101CC000002CC2F3013212031D78A5420DD962B176
:101CD000807A50B1080612D507EB8400D0F8000CCA
:101CE000C0F30110012802D021E00220C8E7E0B2D1
:101CF000FEF75AFDE0B23021FFF746FF17E007EB91
:101D00008405D5F8000CC0F3013001280FD14BF643
:101D10008F788CB1E0B2FEF733FDD5F8000C00EA05
:101D2000080080F4805080F40050C5F8000CF06882
:101D3000406980470020A3E70B4890F82C10002052
:101D4000FFF7BAFED7F8000C00EA080080F48050D4
:101D500080F40050C7F8000CE9E700003C000020C8
:101D60003801002000500040E800002010B5074C6A
:101D7000002805D0E0680068804760680A3010BD20
:101D8000616801200882002010BD00003C00002096
:101D9000064A53685A8A002802D0086810447047DF
:101DA0008888801A18820020704700003C000020BC
:101DB00010B5074C002805D0E0688068804760684F
:101DC0000C3010BD616801200882002010BD0000A9
:101DD0003C00002010B5284B002859680DD0002287
:101DE000981C02800A7854060BD002F07F02012A68
:101DF0001AD0022A1BD0002010BD02200882002029
:101E000010BD497A8A0603D5027842F002020270B8
:101E1000490604D5017801F0FE01017026E0017841
:101E200041F00101017021E01348801C10BD4A7986
:101E300002F00F011406114A0CD502EB8101D1F812
:101E4000001CC1F30111012910D1017841F00101F9
:101E500001700BE002EB8101D1F8001CC1F30131EC
:101E6000012903D1017841F001010170D8680069AE
:101E700080470148801C10BD3C00002000500040FD
:101E800010B5094A094B50685B78C178994203D86C
:101E900083780BB983880BB1022010BD8172D068A2
:101EA00040688047002010BD3C0000203801002021
:101EB00010B505494868427A42F020024272C8686B
:101EC000C0698047002010BD3C00002070B51E4D49
:101ED0006A68517921F080041C4B21F080000E06C5
:101EE00003EB800005D5D0F8003CC3F301131B01C0
:101EF00004E0D0F8003CC3F301331B03144E3678E2
:101F0000A64210D9548874B96BB1927A5AB10906B5
:101F10000BD5D0F8001C48F6BF72114081F01001BB
:101F2000C0F8001C0AE0022070BDD0F8001C4BF67F
:101F30008F72114081F48051C0F8001CE8688069FC
:101F40008047002070BD00003C0000200050004091
:101F50003801002010B50E4C6068A268C178926903
:101F60004079904761688A7A82B118B9087908B9CE
:101F7000887808B1022010BDE068C06880476068BA
:101F80004179C172C1780173002010BD022010BDDB
:101F90003C00002000F06EB810B50446002C2BD099
:101FA0001648FFF785FB4FF0E021086920F002009A
:101FB0000861086920F001000861086920F0040048
:101FC00008610E480E4A0068B0FBF2F060434861B9
:101FD000086940F002000861086940F001000861EA
:101FE00000208861086940F0020008614A690548DC
:101FF0000260096989B2416010BD000094010020AF
:1020000000127A001000002038B505460024009424
:10201000002D28D01448FFF74BFB4FF0E021086952
:1020200020F002000861086920F0010008610869D9
:1020300020F0040008610C480C4A0068B0FBF2F084
:1020400068434861086940F0010008618C61886953
:102050000028FCD088690028FCD1054802684A6144
:102060008C614068086138BD9401002000127A003C
:102070001000002000F0F0BB7047704770477047B9
:1020800010B500F02CF8BDE810400121014800F027
:1020900023B80000002C014010B500F020F8012109
:1020A000BDE81040880700F017B8000010B500F038
:1020B00016F8BDE810400121014800F00DB80000FD
:1020C0000004004000F00BB870477047704770473D
:1020D0007047704700F003B8C9430182704700F0B1
:1020E000BBBB00F0B9BB00F0B7BB000070B51F4D23
:1020F00040F226642146284600F06BF9C0B1214623
:10210000284600F07AF8284601F0BEFF80B1284644
:1021100001F0A4FD0446002C26D00021204602F048
:1021200004F80121204601F0EDFF284602F04CF9A9
:1021300040F224462C463146204600F04AF9002859
:1021400012D03146204600F058F8204601F09CFF9E
:10215000002809D0204601F081FD002804D0204647
:10216000BDE8704002F0D6B870BD000000380140F4
:1021700070B51E4D40F226642146284600F029F92C
:10218000C0B12146284600F038F8284601F07CFF0F
:1021900068B1284601F062FD0446002C24D00021DD
:1021A000204601F0C2FF0121204601F0ABFF284686
:1021B00002F00AF940F224442146284600F009F9C9
:1021C000002811D02146284600F017F8284601F0D3
:1021D0005BFF20B1284601F041FD002804D02846CD
:1021E000BDE8704002F096B870BD000000440040A9
:1021F00000F032BBC943018070470A0A01219140B7
:10220000C94301807047002904D0818941F40051FD
:1022100081817047818921F40051818170470000DC
:102220001FB52A4A00211079002808D0012809D0BA
:1022300002280CD000F04EF8002004B010BDADF81C
:10224000061008E04FF44050ADF8060003E04FF4EC
:102250000050ADF80600507938B1012808D00228A6
:102260000BD000F037F80020E7E7ADF8081008E0E1
:102270004FF48060ADF8080003E04FF4C060ADF8A3
:1022800008009079072805D0082806D000F022F829
:102290000020D2E7ADF8041001E0ADF8041010689A
:1022A0000090ADF80C100C20ADF80A00084C6946FF
:1022B000204600F0C5F801212046FFF7A4FFE214F4
:1022C0006946204601F0C4F90120B6E7C8000020A5
:1022D000003801401FB50E4C204600F025F84FF4A1
:1022E000964100910021ADF80410ADF80610ADF84C
:1022F00008100C22ADF80A20ADF80C1069462046F3
:1023000000F09EF8E2146946204601F0A1F91FBDD5
:1023100000380140002A03D0828A0A438282704733
:10232000828A8A438282704710B5244A811A131523
:1023300090422BD00FDC224940181CD098423BD150
:10234000040201212046FFF7FFF82046BDE81040B7
:102350000021FFF7F9B8994223D0B1F56C4F2BD18A
:1023600001218C032046FFF70BF92046BDE8104001
:102370000021FFF705B901214C042046FFF7E4F8DE
:102380002046BDE810400021FFF7DEB80121CC0453
:102390002046FFF7D9F82046BDE810400021FFF79E
:1023A000D3B801210C052046FFF7CEF82046BDE842
:1023B00010400021FFF7C8B810BD0000004C0040DD
:1023C00000BCFFBF0246002012880A4200D0012054
:1023D000704770B50024C1F3421301F01F050126B8
:1023E00006FA05F2012B0CD0022B0DD0838A134084
:1023F000090A8E40008830400BB100B1012420460C
:1024000070BD83891340F3E7038A1340F0E710B5EA
:10241000C1F3421301F01F040121A140012B07D099
:10242000022B07D014303AB102680A43026010BD93
:102430000C30F8E71030F6E702688A43026010BDFE
:1024400030B585B004460D46208A4CF6FF71084031
:10245000E98801432182A1894EF6F3100140A88842
:102460002A8910436A890A431043A081A08A4FF643
:10247000FF410840A9890143A1826846FFF718F986
:102480001148844201D1039800E0029800EBC0019A
:1024900001EB001029688900B0FBF1F06423B0FB68
:1024A000F3F109010A096FF018056A4300EB820095
:1024B000322202EB0010B0FBF3F000F00F000843F3
:1024C000208105B030BD0000003801407047000099
:1024D000054A4FF40041002802D01046FEF74ABEDC
:1024E0001046FEF745BE000000080140FFF7F0BFB0
:1024F0007047000007490648086002210172074939
:1025000005480860074A0649116000680047000056
:10251000BC21002040000020E800002044000020F2
:102520003C0100204800002008B500214FF0006069
:10253000FEF706FF4FF4C060FEF7F8FE14208DF89A
:10254000000000208DF801008DF8020001208DF8B8
:1025500003006846FEF7ACFE08BD000070B5134DE1
:102560002868134C60806088124E3188084040050E
:1025700005D54FF6FF3028600F48406880476088D7
:1025800031880840800507D54FF6FF502860208825
:10259000401C2080FFF728FA60883188084000043A
:1025A00003D5BDE87040FEF7CBB870BD445C004079
:1025B000780000204C000020E8000020FFF7CEBF8C
:1025C000FEE7000070B5521C55080022084B03EBD3
:1025D0004106002108E0835C8418647843EA042300
:1025E00026F81230921C491CA942F4D370BD000099
:1025F0000060004010B500210F4A2128126802D067
:10260000202807D00FE0107800F07F0021280AD1A1
:102610000A4908E0107800F07F00212800D108491D
:10262000084B2020587029B19161002050828847C2
:10263000002010BD022010BD4000002061260008CF
:10264000DD270008B80000200149FFF7A1BB00000A
:10265000E00000200149FFF79BBB0000D0000020F4
:10266000002801D003487047034908200968088200
:1026700000207047C800002040000020054909687C
:10268000C978042901D900207047034A02EBC1012F
:10269000FFF77EBB4000002018010020002901D078
:1026A00002207047012801D902207047002070479E
:1026B00008490968097801F07F01212903D102281E
:1026C00003D0222803D0022070470020704700204A
:1026D000704700004000002010B53348002100681A
:1026E0008172324AD2794272C1720020FFF7ACF98E
:1026F0004FF400710020FFF76FFA10210020FFF760
:1027000043FA40210020FFF7C7F980210020FFF79E
:102710001DFA0020FEF75CF8254890F82C100020E8
:10272000FFF7CAF90020FFF7FFF900210120FFF7AA
:1027300053FAC0210120FFF709FA20210120FFF7F9
:1027400023FA00210120FFF7D9F94FF4C0610220DC
:10275000FFF742FA4FF480710220FFF7F7F90021EA
:102760000220FFF7CBF920210220FFF70DFA00210C
:102770000320FFF731FA4FF488710320FFF78CF93B
:1027800040210320FFF798F94FF440510320FFF751
:10279000B5F900210320FFF7F7F90020FFF75CF9F6
:1027A00004490120086010BD400000207C4700085B
:1027B000E8000020B40000200348807A002802D0FE
:1027C0000249052008607047BC210020B4000020A9
:1027D0000149042008607047B4000020002801D09F
:1027E00003487047034908200968088200207047A1
:1027F000C80000204000002010B5044C607820285C
:1028000003D1FFF70DFD0020607010BDB80000205F
:102810007047000010B5FEF7DDFC0A480024006890
:102820008472FEF75FFE0848046008494FF40640D2
:1028300008800549091F0860FFF74CFD0448046043
:1028400010BD000040000020445C00404C0000200F
:10285000B400002001F00CB801F016B87047000079
:1028600037B514460846064B6A46214600F0CCF8B8
:1028700004466946002000F05EFC20463EBD000094
:102880003731000802E008C8121F08C1002AFAD137
:1028900070477047002001E001C1121F002AFBD1E0
:1028A000704700002DE9FF5FDDE90220010DDDF832
:1028B00038B0024318D044F61050A1F2FF31414322
:1028C0000D140F98012820D0A5EB0B00401C5FEAE7
:1028D000000A4FF00004474EDFF81C91A046504616
:1028E00016D5CAF1000728E00F98012443A2012859
:1028F00008D0002100980F9BC0E90021C0E90243E5
:10290000BDE8FF9F6FEA0B01F4E7CBF10000DEE7C3
:10291000074612E0F80707D02246334640464946AC
:10292000FDF7DFFC804689462246334610461946AD
:10293000FDF7D7FC04460E467F10002FEAD1DDE9F3
:102940000201BAF1000F42464B4602DAFDF7C9FC1C
:1029500001E0FDF738FD04460E460022284BFDF746
:10296000A1FD03D84FF0FF30014607E00022254BC0
:1029700020463146FDF70EFCFDF781FE102409E0EC
:10298000002C0ADB0A220023FDF7BAFD019B30323E
:102990001A55641E50EA0102F2D1641C019AC4F176
:1029A000110314440F9A012A03D0012208430DD1C8
:1029B0000AE0084304D000204FF0110B0F9080E78D
:1029C000A3EB0B056D1E0DE05B4504DD4FF000022F
:1029D00005F1010504E003DA4FF00002A5F101055D
:1029E000002AECD000980F99C0E90231C0E90045F7
:1029F00086E70000000024400000F03F30000000A7
:102A00000000F0430000E03F2DE9FF4F95B09B46EA
:102A10008946064600250FE2252877D1002427465F
:102A2000F84A0121059400E0044316F8013F203BD9
:102A300001FA03F01042F7D130782A2811D06FF054
:102A40002F033078A0F13002092A16D8059A44F0F5
:102A5000020402EB820203EB42021044761C059052
:102A6000EFE759F8042B0592002A03DA504244F4A8
:102A70000054059044F00204761C30782E2816D1BC
:102A800016F8010F44F004042A280DD06FF02F022D
:102A90003078A0F13003092B09D807EB870302EB4C
:102AA0004303C718761CF3E759F8047B761C30788B
:102AB0006C280FD006DC4C2817D068280DD06A2867
:102AC00014D104E0742810D07A280FD10DE044F41A
:102AD00000140AE044F4801401E044F440147278D5
:102AE000824202D104F58014761C761C3078662868
:102AF0000BD013DC582877D009DC002875D0452886
:102B0000F6D04628F4D047281AD19DE118E0632872
:102B100035D0642879D0652812D195E1702873D01A
:102B200008DC6728F1D069286FD06E280DD06F2897
:102B300006D1B5E073282CD0752875D0782874D0CC
:102B40005A46179990476D1C75E1C4F3025002284C
:102B500009D003280DD0D9F8001004280DD00D603D
:102B600009F1040967E1D9F80010EA17C1E9005238
:102B7000F6E7D9F800100D80F2E70D70F0E719F8CC
:102B8000041B8DF8001000208DF80100EA4601209A
:102B900003E059F804AB4FF0FF3061074FF000013C
:102BA00002D40DE008F101018846B9420FDA8045F0
:102BB000F8DB1AF808100029F4D108E008F1010147
:102BC00088468142FADB1AF808100029F6D10598E8
:102BD0005B46A0EB080721463846179A00F094FAA6
:102BE000284400EB080507E04DE029E10DE01AF864
:102BF000010B5A4617999047B8F10108F7D25B4686
:102C000021463846179A13E142E00A220092C4F3A3
:102C100002524FF0000A022A08D059F804CB032AC6
:102C20004FEAEC710AD00DE029E02AE009F1070132
:102C300021F00702F2E802C1914609E00FFA8CFC8C
:102C40004FEAEC71042A03D14FFA8CFC4FEAEC7185
:102C5000002907DA0A460021DCF1000C61EB0201D1
:102C60002D2202E0220504D52B228DF8042001221A
:102C700003E0E20701D02022F7E7904659E00A215D
:102C800002E010220DE010214FF0000A00910BE04D
:102C900010224FF0000A44F004040827009203E0D9
:102CA00008224FF0000A0092C4F30252022A05D013
:102CB00059F804CB0021032A08D009E009F10701E3
:102CC00021F00702F2E802C1914605E01FFA8CFCF0
:102CD000042A01D10CF0FF0C4FF00008220728D580
:102CE000702806D0009B83F0100353EA0A0305D036
:102CF0000EE040228DF80420012208E05CEA010287
:102D000006D030228DF804208DF80500022290466E
:102D1000009B83F0080353EA0A030AD15CEA01022C
:102D200001D1620705D530228DF804204FF001084B
:102D30007F1E582804D034A003900EA802900DE006
:102D400036A0F9E753466046009AFDF7D9FB844662
:102D50000398825C0298401E029002705CEA0100B7
:102D6000F0D1029806A9081A00F1200A600702D5DE
:102D700024F4803400E00127574502DDA7EB0A0068
:102D800000E0002000EB0A01009005984144401A41
:102D90000590E00306D45B462146179A059800F09B
:102DA000B3F90544002706E001A85A46C05D17990B
:102DB00090476D1C7F1C4745F6DBE0030CD55B4656
:102DC0002146179A059800F09FF9054404E0302049
:102DD0005A46179990476D1C0099481E009000298B
:102DE000F5DC08E0029802995A460078491C0291E5
:102DF000179990476D1CBAF10001AAF1010AF1DCA4
:102E000065E10000092801003031323334353637AE
:102E10003839616263646566000000003031323326
:102E200034353637383941424344454600000000C6
:102E300000F058F90544761C307800287FF4ECAD9A
:102E400019B02846BDE8F08F620700D4062709F1C3
:102E5000070222F0070CFCE80223E14603F00048D9
:102E60005FEA080C02D00FF2702C0DE05FEA045C00
:102E700002D50FF2682C07E05FEAC47C02D00FF2A3
:102E8000602C01E0AFF2700C4FF0FF3823F00043EC
:102E9000CDF850C065280CD006DC452809D046285E
:102EA0001DD047283DD13DE0662818D067287ED147
:102EB00038E00021112F01DB112000E0781CCDE962
:102EC000000106A90EA8FFF7EDFCDDE90F010E9A3F
:102ED00003910021009207F1010A04914DE04FF0A7
:102EE00000400097CDE9011006A90EA8FFF7DAFC13
:102EF000DDE90F0203920E9B11990022DDF80CA070
:102F00000093049211B9791C00EB010AB7EB0A0097
:102F100004D4C0F1FF3007F1010A0490AAEB0700C6
:102F2000019044E0012F00DA01270021112F01DD7B
:102F3000112000E03846CDE9000106A90EA8FFF7F0
:102F4000B1FCDDE90F010E9A03910021049100927A
:102F5000BA4621070CD40399514500DA8A46BAF1E2
:102F6000010F05DD009AAAF10101515C302908D05A
:102F7000B84202DA10F1040F06DA0121CDE901109E
:102F800015E0AAF10101E9E7002805DC04990144F4
:102F90000491AAEB000102E0411C514500DD8A4684
:102FA0000499401A401C01904FF000400290200705
:102FB00004D40198504501DBCDF8048000208DF841
:102FC0004F0002980DF14F07B0F1004F25D02B2094
:102FD0000E9002984FF0020800280CDA404202904E
:102FE0002D200E9007E00A210298FDF773FA303188
:102FF000029007F8011DB8F10001A8F10108F2DC08
:1030000002980028EFD1791E0E980870307800F0F1
:10301000200040F0450007F8020D12A8C01B00F187
:1030200007081498007800B1012000EB0A0101980C
:1030300001EBE07105984144401A401E0590E00301
:1030400006D45B462146179A059800F05DF80544C2
:103050001498007818B15A46179990476D1CE003F0
:1030600024D55B462146179A059800F04DF8054493
:103070001CE00498002807DBDDE90301884203DD3A
:103080000098405C179901E0179930205A46904704
:10309000049805F10105401C04900198401E019020
:1030A00004D12E205A46179990476D1CBAF10001A1
:1030B000AAF1010ADDDC05E017F8010B5A46179961
:1030C00090476D1CB8F10001A8F10108F4DC5B46E3
:1030D0002146179A0598ABE62D0000002B00000052
:1030E000200000002DE9F041044600251E46174649
:1030F000880404D405E039462020B0476D1C641EC6
:10310000F9D52846BDE8F0812DE9F04104460025B7
:103110001E469046C80301D5302700E020278804CA
:1031200004D505E041463846B0476D1C641EF9D50C
:103130002846BDE8F0810A68531C0B601070704788
:103140002DE9F043A5B00024402115A8FDF717F89C
:10315000402105A8FDF713F814216846FDF70FF884
:1031600044480068444DE869401CE861434E00272C
:10317000A0F530614FF00108B8390AD043F6982124
:1031800088420CD9EF61C6F8A471002000F034F930
:103190000AE0C6F8A481012000F02EF904E04CF208
:1031A0005031884200D9EF61DFF8D49015A9484624
:1031B00000F05FFA10B1032804D006E0002025B02B
:1031C000BDE8F0839DF8541019B1022103280BD0FB
:1031D0000EE08DF81480FE208DF81500022205A95E
:1031E000484600F058FA43E09DF85420CA2A02D01D
:1031F000172812D03CE0CA208DF814008DF8151065
:103200008DF816808DF8178031208DF81800052272
:1032100005A9484600F03FFA2AE09DF854004C28E2
:1032200026D18DF814008DF8151003208DF81600A6
:103230008DF81770AE208DF81800052205A94846B4
:1032400000F029FA15A869460219C4F1130392780F
:10325000CA54641CA4B2142CF6D3C6F8A47100207E
:1032600000F0CAF8684600F043F84FF47A70E8615D
:103270000020A4E7B400002060010020008021426B
:103280000044004010B500F007F800F0C3F8BDE8B6
:1032900010406420FEF780BE10B501211148FDF7F3
:1032A000DBFE002000F0A8F80F4C01212046FDF7BE
:1032B000D3FE01212046FDF75BFF02212046FDF7EA
:1032C000CBFE02212046FDF753FF04212046FDF7E7
:1032D000B1FE61152046FDF7BFFE044900200860DD
:1032E00010BD000000080140000C0140A4812142F3
:1032F00070B586B005460024012000F07DF81E4E12
:10330000306A10B91DA000F09FFA01A9284600F00C
:103310008BF81CA0316A00F097FA1DA000F094FA17
:10332000295D1CA000F090FA641CA4B2132CF7D302
:10333000E97C1BA000F088FA1BA000F085FA0024AD
:1033400001AD14A0295D00F07FFA641CA4B2132C17
:10335000F7D39DF8171012A000F076FA14A000F031
:1033600073FA306A401C306200F01EFA002000F050
:1033700043F806B0012070BD600100200D0A097BF2
:103380000D0A00002F2A25302E36643A2A2F090014
:103390007B7B0000307825302E32582C0000000056
:1033A000307825302E3258007D2C097B000000003B
:1033B0007D7D2C0D0A0000000D4800680D49052890
:1033C00003D00020088108707047087870B9088918
:1033D00041F28832904209D2401C80B20881B0F597
:1033E000FA7FF1D101200870FFF74CBFFFF7A8BEAC
:1033F000B400002060010020054A002803D001210C
:103400001046FDF7B5BE01211046FDF7B3BE000022
:103410000008014040220249024800F008B90000BB
:10342000688909000044004010B50C4600F0ACF873
:1034300088B1204600F035F878B100F016F870B188
:1034400000F0C9F868B100F010F860B1204600F053
:1034500028F8012010BD002010BD002010BD002064
:1034600010BD002010BD002010BD10B500F03AF8CE
:10347000A8B1CC2000F094FA882000F091FA002046
:1034800000F08EFA002000F08BFA00F04FFA00F006
:103490004DFA00F04BFA00F049FA012010BD00206F
:1034A00010BD70B50546002400F01CF8C0B1CC205A
:1034B00000F076FADD2000F073FA002000F070FAD8
:1034C000002000F06DFA00F031FA00F02FFA2855D4
:1034D000641CE4B2142CF8D300F028FA012070BD6B
:1034E000002070BD2DE9F0410024254E01273760F2
:1034F000244D286820F070402860286840F0E040A3
:103500002860376037600A20FEF77EFD00203060BB
:103510004FF4F070FEF778FD286820F070402860C6
:10352000286840F00040286037603760A6F5CE7606
:103530000F20FEF769FD4FF4827804E0641CA4B20A
:103540000120FEF761FDD6F81C0108B14445F5D312
:10355000FA2C02D30020BDE8F081286820F07040EA
:103560002860286840F0E0402860C6F89C71C6F8E2
:103570009C714FF4C870FEF747FD0120EBE7000097
:103580009C0121420008014070B50546FFF7AAFFE3
:10359000F8B1CC2000F004FA222000F001FA00205B
:1035A00000F0FEF9002000F0FBF9287800F0F8F9AF
:1035B00000F0BCF900F0BAF90124285D00F0F0F940
:1035C00000F0B4F900F0B2F9641C132CF5D9012015
:1035D00070BD002070BD10B5FFF784FFD8B1CC20BE
:1035E00000F0DEF9772000F0DBF9002000F0D8F9D8
:1035F000002000F0D5F9052000F0D2F900F096F98E
:1036000000F094F9A12000F0CBF900F08FF900F060
:103610008DF9012010BD002010BD10B50020FEF76F
:1036200019F90121BDE81040C805FDF77FBF70B54D
:1036300005460E461446284600F088FF31462846C7
:1036400001F00EF821462846BDE8704000F0EEBEBD
:1036500070B505460E461446284600F077FF314601
:10366000284601F024F821462846BDE8704000F0C5
:10367000DDBE70B505460E460024284600F034FC39
:1036800038B13146284600F0C7FB0446284600F012
:10369000A5F9204670BD70B504460D461646204675
:1036A00000F0AAFC30B1324629462046BDE8704001
:1036B00000F062BE002070BD10B5FEF7C3F9FFF741
:1036C000ACFFFEF731FFBDE81040FEF713BF00006E
:1036D0002DE9F04107460C46194D284629784088C7
:1036E000022901D0032903D110B10020BDE8F081E7
:1036F000134A0619111D52884FF4006C5318664581
:103700000AD8184622463946FCF720FD688820442E
:1037100068800120287010E0032664450CD2C0F5B3
:10372000006084B2184622463946FCF70FFD6888CF
:10373000204468802E7000E02E706888D6E7000074
:103740006E2A002070B50346154D2878042805D050
:10375000022803D0032801D0002070BD114E6C88D0
:103760000F493088402C01440ED94024091D2246BF
:103770001846FCF7EBFC6888403868800220287007
:1037800030884030308008E0091D22461846FCF79A
:10379000DDFC0021698029703180204670BD000069
:1037A0006E2A00208401002001490420087070471F
:1037B0006E2A002001484088704700006A220020DD
:1037C0000020704701490420087070476A220020D9
:1037D0002DE9F04106460C461A4D284629784088C6
:1037E000042901D0032905D110B10020BDE8F081E2
:1037F00000212970134A0719111D52884FF4006CDB
:10380000531867450AD8184622463146FCF79EFCF5
:103810006888204468800120287010E003276445F0
:103820000CD2C0F5006084B2184622463146FCF73F
:103830008DFC6888204468802F7000E02F7020463F
:10384000D4E700006A2200200FB400B5C1B04FF4E5
:10385000807101A8FCF793FC43AA01A84299FEF7E6
:10386000FFFF81B201A8FFF733FF41B05DF814FB01
:1038700010B500F01FF8FFF71FFFBDE810404FF430
:103880007A70FEF789BB00000848006808490528DF
:1038900002D00020888070478888B0F5FA6F02D285
:1038A000401C88807047FFF787BD0000B4000020EF
:1038B000B800002010B54FF400410448FDF7CCFBE0
:1038C000BDE810400020FEF703BE000000080140E4
:1038D0002DE9F0410026134C206820F07040206054
:1038E000206840F0E04020600F4D01272F6000204D
:1038F00028600220FEF788FB206820F070402060DE
:10390000206840F0004020602F600F20FEF77CFB15
:1039100055F8800C00B101262D20FEF775FB3046CE
:10392000BDE8F081000801409C01214270B50020F3
:103930000D490A6822F070420A600A6842F00042AB
:103940000A600A4A0121116000244508FFF7C0FF00
:1039500010B145F0800001E005F07F00641CE4B286
:10396000082CF2D370BD0000000801409C012142E8
:1039700070B50546094C002121600620FEF744FB86
:1039800005F0010020605020FEF73EFB0120206082
:10399000BDE870400420FEF737BB00009C012142C7
:1039A00070B505460B48016821F07041016001685F
:1039B00041F0E0410160084901200860012405F060
:1039C00001006D08FFF7D4FF641CE4B2082CF6D99F
:1039D00070BD0000000801409C012142124A1349B9
:1039E000904203D10A7822F001020A70104A9042F4
:1039F00003D10A7822F002020A700E4A904203D1E3
:103A00000A7822F004020A700B4A904203D10A7825
:103A100022F008020A70094A904203D1087820F087
:103A20001000087000207047003801401A00002084
:103A30000044004000480040004C0040005000405E
:103A40002DE9F843534C2068534DC0F30130000377
:103A500068802068C0F301100001A88020684BF640
:103A60008F77384080F400502060206848F6BF7699
:103A7000304080F020002060484848F60F780078F9
:103A8000C0061FD4206800EA08002060FDF7CCFBC8
:103A9000206838406988CA0401D580F480508904C0
:103AA00001D580F40050206020683040A988CA0603
:103AB00001D580F01000890601D580F0200020603B
:103AC000BDE8F883002000F0A1F8009001061ED5A3
:103AD000206800EA08002060FDF7A6FB2068384057
:103AE0006988CA0401D580F48050890401D580F426
:103AF0000050206020683040A988CA0601D580F0B7
:103B00001000890601D580F020002060D8E702056A
:103B100040F68F711DD5206808402060FEF76AF8D6
:103B2000206838406988CA0401D580F4805089042F
:103B300001D580F40050206020683040A988CA0672
:103B400001D580F01000890601D580F020002060AA
:103B5000B6E70004B4D5206808402060FDF76AFC91
:103B6000206838406988CA0401D580F480508904EF
:103B700001D580F40050206020683040A988CA0632
:103B800001D580F01000890601D580F0200020606A
:103B900096E70000005C00404E000020D821002085
:103BA000F8B5164C207800F031F805460090144E18
:103BB00000040ED5217806EB8102D2F8000C40F605
:103BC0008F731840C2F8000C0E48491E50F82100AF
:103BD0008047280611D5207806EB8001D1F8002C0B
:103BE00048F60F731A40C1F8002C0749401E51F8DF
:103BF000200001B0BDE8F0400047F8BD4E000020B5
:103C000000500040980000207C000020072801D9C7
:103C1000002070470F4A02EB8001D1F8001C89B2E6
:103C20000D4A082814D2DFE800F00406080A0C0E3A
:103C3000101251800CE091800AE0D18008E01181DF
:103C400006E0518104E0918102E0D18100E011821F
:103C500088B2704700500040D821002010B50446BB
:103C6000204600F011FA28B10E490F488C4203D1CA
:103C7000006810BD002010BD0C498C4201D1406885
:103C800010BD0B498C4201D1806810BD09498C429E
:103C900001D1C06810BD08498C4201D1006910BD36
:103CA000002010BD00380140A82100200044004041
:103CB00000480040004C0040005000400B4A0C49B6
:103CC000904201D1088870470A4A904201D1488841
:103CD0007047094A904201D188887047074A90424C
:103CE00001D1C888704700207047000000380140AB
:103CF0002C0000200044004000480040004C0040E0
:103D00000B4A0C49904201D1088870470A4A9042F8
:103D100001D148887047094A904201D1888870478C
:103D2000074A904201D1C8887047002070470000C0
:103D300000380140340000200044004000480040AA
:103D4000004C00400B4A0C49904201D10888704752
:103D50000A4A904201D148887047094A904201D1ED
:103D600088887047074A904201D1C8887047002070
:103D700070470000003801401C0000200044004053
:103D800000480040004C00400B4A0C49904201D1D1
:103D9000088870470A4A904201D148887047094A0A
:103DA000904201D188887047074A904201D1C88863
:103DB00070470020704700000038014024000020B8
:103DC0000044004000480040004C00400A4988423E
:103DD00001D10A4870470A49884201D10948704711
:103DE0000949884201D1094870470949884201D1EF
:103DF000084870470020704700380140A8010020A3
:103E000000440040A805002000480040A809002008
:103E1000004C0040A80D00202DE9F04788460746D9
:103E20001E498F4202D10020BDE8F08788B1384694
:103E3000FFF7CCFF81463846FFF784FF054638463A
:103E400000F02EF80446606880B2A84203D9002032
:103E5000EAE70020E8E7281A86B2E6B1206820F0F9
:103E600001002060324649464046FCF76FF9C4F82D
:103E70000C906560206840F0010020604FF6EF7004
:103E800038800021384600F089F92946384600F08C
:103E900019FA3046C8E70020C6E70000005000408D
:103EA0000B49884201D10B4870470B49884202D127
:103EB0000848143070470949884202D1054828381B
:103EC00070470749884201D1064870470020704773
:103ED00000380140580002400044004000480040C3
:103EE000004C00403004024070B505462846FFF7FC
:103EF00029FF06462846FFF7D3FF406884B2102109
:103F00002846FEF75FFA28B110212846FEF772F91D
:103F1000012070BD24B1B44205D14FF0010070BD45
:103F20004FF0010070BD0FD22846FFF72DFF064667
:103F30002846FFF7C3FEB4420AD1022806D8401C27
:103F400081B2284600F02AF9002070BD012070BD22
:103F50000021284600F022F92146284600F0B2F957
:103F6000002070BD0A49884201D10A4870470A49B9
:103F7000884201D1094870470949884201D109485E
:103F800070470949884201D10848704700207047AE
:103F900000380140A811002000440040A81500206E
:103FA00000480040A8190020004C0040A81D002037
:103FB0000B49884201D10B4870470B49884202D116
:103FC00008483C3070470949884202D105482838E2
:103FD00070470749884201D1064870470020704762
:103FE00000380140440002400044004000480040C6
:103FF000004C00405804024070B506463046FFF7BA
:104000007FFE04463046FFF7D3FF05464021304689
:10401000FEF7D8F988B10021304600F005F90021FB
:104020002846FCF705FC40213046FEF7E3F88021E6
:104030003046FEF7DFF8012070BD2868C00702D0C7
:10404000686810B11DE0012070BD80213046FEF788
:10405000B9F9B0B1022C06D2641CA1B2304600F00E
:10406000E3F8002070BD00212846FCF7E1FB802129
:104070003046FEF7BFF80021304600F0D5F80120A9
:1040800070BD002070BD00001149104A09789042AF
:1040900002D101F0010070470E4A904202D1C1F3F3
:1040A000400070470C4A904202D1C1F38000704733
:1040B0000A4A904202D1C1F3C0007047084A9042B8
:1040C00002D1C1F300107047002070470038014052
:1040D000180000200044004000480040004C004010
:1040E00000500040FEF7B6FB05494FF080730022F8
:1040F0000868401C08609842FAD30A60F8E700009C
:10410000000000204269002A05D011B1038B5361E1
:1041100001E0038B13614268002A02D011B10089CB
:1041200050617047008910617047C268002A05D04D
:1041300011B1038A136101E0038A53614268002AC6
:1041400002D011B100891061704700895061704739
:104150000D49884203D14FF48030FCF75DBB0B4919
:10416000884203D14FF48010FCF756BB08498842BF
:1041700002D18015FCF750BB0649884202D106489F
:10418000FCF74ABB70470000003801400044004083
:1041900000480040004C0040000100100246084664
:1041A0000A4B0B499A4201D108807047094B9A4249
:1041B00001D148807047084B9A4201D188807047EE
:1041C000064B9A42FBD1C88070470000003801407E
:1041D0002C0000200044004000480040004C0040FB
:1041E0000C49884202D18014FCF716BB0A49884268
:1041F00003D14FF08070FCF70FBB0849884202D111
:104200001020FCF709BB0649884202D10548FCF79B
:1042100003BB7047003801400044004000480040A4
:10422000004C004000000110024608460A4B0B49B2
:104230009A4201D108807047094B9A4201D14880C7
:104240007047084B9A4201D188807047064B9A42CA
:10425000FBD1C880704700000038014034000020C6
:104260000044004000480040004C00400246084620
:104270004FF48061002808D0884200D908460C4BD2
:104280000C499A4203D1088070470846F7E70A4B69
:104290009A4201D148807047084B9A4201D18880E8
:1042A0007047074B9A4201D1C88070470020704781
:1042B000003801401C00002000440040004800403D
:1042C000004C0040024608464FF48061884200D905
:1042D00008460B4B0B499A4201D1088070470A4BA4
:1042E0009A4201D148807047084B9A4201D1888098
:1042F0007047074B9A4201D1C88070470020704731
:1043000000380140240000200044004000480040E4
:10431000004C0040124A1349904203D10A7842F0FF
:1043200001020A70104A904203D10A7842F0020258
:104330000A700E4A904203D10A7842F004020A70D1
:104340000B4A904203D10A7842F008020A70094AE7
:10435000904203D1087840F01000087000207047A8
:10436000003801401A00002000440040004800408E
:10437000004C0040005000402DE9F04104460F463B
:1043800015462046FFF7DEFC06462046FFF7EAFD0D
:1043900080462046FFF70CFE0446B54202D90020B5
:1043A000BDE8F0812A4639464046FBF7CFFE20683B
:1043B00020F0010020606560C4F80C80206840F0A7
:1043C000010020602846EBE7124A1349904203D1CE
:1043D0000A7842F001020A70104A904203D10A782A
:1043E00042F002020A700E4A904203D10A7842F06B
:1043F00004020A700B4A904203D10A7842F0080284
:104400000A70094A904203D1087840F01000087001
:10441000002070470038014019000020004400408F
:1044200000480040004C0040005000402DE9F04F93
:104430008DB005460C462846FFF7C8FC06462146C7
:104440002846FFF713FF01902846FFF7B1FD81468C
:104450002846FFF725FD8046002E6FD0B9F1000FEA
:104460006CD0B8F1000F69D03649681A0A158D4230
:1044700019D009DC3448281810D0904217D10121F6
:104480000846FDF745F812E0904257D0B0F56C4F62
:104490000DD101210846FDF73BF808E0012108464F
:1044A000FDF736F803E001210220FDF731F82F1D5A
:1044B00002970396102004900024059406944FF070
:1044C000800ACDF81CA0089409940A944FF4005B6C
:1044D000CDF82CB00C9402A94846FCF7D1F902970C
:1044E00003960494019805900694CDF81CA00894B6
:1044F00009940A94CDF82CB00C9402A94046FCF71C
:10450000BFF900214846FCF793F901214046FCF72A
:104510008FF9012240212846FDF7FCFE012280216F
:104520002846FDF7F7FE002202214846FCF79EF9D7
:104530002846FFF755FE2846FFF70AFE0DB0BDE8F6
:10454000F08F0000004C004000BCFFBF2DE9F84395
:1045500000250024002700263A4ADFF8EC80811A63
:10456000DFF8E89013154FF4006C90423AD019DC54
:104570003749401829D098424DD1364F3E461D4606
:10458000644601210846FCF7EDFF01213248FCF7A3
:10459000C9FD01210820FCF7E5FF01218804FCF793
:1045A000C5FF38E099422AD0B1F56C4F33D1474668
:1045B0003E464FF400751C4601210520FCF7D2FF52
:1045C00001218803FCF7CEFF25E047463E4604253F
:1045D000082401210520FCF7C5FF01214804FCF750
:1045E000A5FF18E04F463E461D46644601211120B6
:1045F000FCF7B8FF0121C804FCF798FF0BE04F4619
:10460000164E1D46042401213120FCF7ABFF012189
:104610000805FCF78BFFADF8005018208DF803005B
:1046200003208DF8020069463846FCF727FDADF8F7
:10463000004048208DF8030069463046FCF71EFD17
:10464000BDE8F883004C0040000801400010014024
:1046500000BCFFBF000C014000023000001401400C
:104660007FB505460C462846FDF75EFE0094002106
:10467000ADF80410ADF80610ADF808100C22ADF836
:104680000A20ADF80C1069462846FDF7D9FE40F225
:104690002444002221462846FDF7B9FE214628463B
:1046A000FDF7ABFD01212846FDF7ADFD7FBD70B5DF
:1046B00005460C462846FDF737FE0C216181002196
:1046C000A18121462846FDF7BBFE40F2244400228A
:1046D00021462846FDF79BFE21462846FDF78DFD25
:1046E0002846BDE870400121FDF78DBD70B5134C23
:1046F0002078411C217005281ED3FFF761F805467C
:10470000FFF758F84FF400565DB130B1FFF75AF893
:1047100031460320FDF7F2F90CE00320FDF704FA1F
:1047200008E020B131460320FDF7E8F902E003205C
:10473000FDF7FAF90020207070BD00007000002025
:104740000204060800000000010203040102030441
:10475000060708091F1C1F1E1F1E1F1F1E1F1E1FCE
:1047600012010002020000408304405700020102CF
:1047700003010A0600020000004001000902430094
:10478000020100C0320904000001020201000524F8
:104790000010010524010001042402020524060082
:1047A00001070582030800FF09040100020A000056
:1047B00000070503024000000705810240000004D5
:1047C0000309042603530054004D0069006300727E
:1047D000006F0065006C0065006300740072006F7C
:1047E000006E006900630073003203530054004DF3
:1047F000003300320020005600690072007400751A
:104800000061006C00200043004F004D002000506C
:10481000006F007200740020002000003C48000877
:104820000000002088010000D4060008BC480008F1
:1048300088010020F0340000942800080154141A64
:1048400003531254124D1233123212310219301323
:10485000450C0C1C08AF12040A118D24011533C23B
:104860000112081360473308121A7208320A1A7CC0
:104870000832431315281408D9261408F9271B08F1
:10488000110C13F5251B08B1101A9D041A55041AB2
:1048900049041A7D044132401ABF3832041AC30851
:1048A00032261AE9083232225433201A1A046F29A8
:0C48B0008C1AB9500916BC1AD11C012842
:0400000508000131BD
:00000001FF
