:020000040800F2
:10000000280F002045010008590F0008C90E0008FC
:10001000570F0008530500082927000800000000BA
:100020000000000000000000000000008D1B000820
:100030003D0B0008000000003D160008E12000080C
:10004000ED2900084D110008E3200008451B0008B9
:100050009F0B000891190008910B0008950B0008F0
:10006000970B0008990B00089B0B0008B1070008CC
:10007000B3070008B5070008B7070008B90700086C
:10008000BB070008BD0700084F05000887260008C9
:10009000252700085F050008610500089D0B000882
:1000A000E5200008EB200008E9200008E720000810
:1000B000ED200008EF200008F1200008CD0E000818
:1000C000CB0E0008D10E0008CF0E0008871B0008D9
:1000D000891B00089D23000821240008A124000892
:1000E000930B0008311A000885260008F920000843
:1000F000FF200008FD200008FB2000085105000833
:10010000D10B0008811B0008F32000088B1B00089E
:10011000992300089B230008F5200008F720000819
:10012000BF070008C1070008C3070008C50700088B
:10013000DFF80CD000F0CEF900480047C92F0008C6
:10014000280F0020004800473101000840EA010361
:100150009B0703D009E008C9121F08C0042AFAD27D
:1001600003E011F8013B00F8013B521EF9D2704741
:100170002DE9FE4F81EA030404F0004421F0004120
:1001800000944FF0000B23F0004350EA01045ED0CE
:1001900052EA03045BD0C3F30A54C1F30A552C445A
:1001A000A4F2F3340194A0FB0254C1F3130141F40F
:1001B0008011C3F3130343F4801301FB024400FBDB
:1001C000034E840A970A44EA815447EA8357A4FB02
:1001D000076802958D0A05FB07854FEA932C04FBFF
:1001E0000C542705029D4FEA065847EA1637B5EB2F
:1001F00008056EEB070C870E920E47EA811742EA5C
:100200008312A7FB0201B6EB0B0164EB00042B0D7C
:1002100043EA0C335E1844EB1C50DA465146E7FBC8
:100220000201C5F313044FEA0B3343EA14534FEAB8
:100230000432019C43EA0603A4F10C040294009CDE
:10024000CDE900B400F0F8F803B0BDE8F08F00206D
:100250000146F9E72DE9F04D81EA030404F0004B73
:1002600021F0004514464FF0000A23F0004150EA07
:10027000050220D054EA01021DD0C5F30A570246F8
:10028000C5F31303C1F31300C1F30A5640F48015FC
:1002900043F48013A7EB0608101BD64608F2FD387E
:1002A00073EB050002D308F1010801E092185B41ED
:1002B000B8F1000F03DA00200146BDE8F08D002000
:1002C0004FF48011064684460EE0171B73EB0507BA
:1002D00005D3121B63EB050306434CEA010C4908E6
:1002E0004FEA300092185B4150EA0107EDD152EA23
:1002F000030012D082EA040083EA0501084305D016
:10030000101BAB4106D20122002306E000224FF071
:10031000004302E06FF0010253101AEB06004CEBB1
:10032000085110EB0A0041EB0B01BDE8F04D00F065
:1003300074B870B521F0004303430CD0C1F30A55E3
:100340000024D5EB040564EB0403D617AD1AB341C2
:1003500002DB0020014670BD201841EB025170BD48
:100360000EB540F2334102910021CDE900110A4659
:100370000B4600F061F803B000BDC1F30A5210B59E
:10038000C1F3130140F2FF3341F480119A4201DAC4
:10039000002010BD40F233439A42A2F2334203DC04
:1003A000524200F02AF810BD904010BD30B5041E36
:1003B00071F1000404DB4FF00044404264EB0101A2
:1003C000141E73F1000405DB1C464FF0004352423B
:1003D00063EB0403994208BF904230BD202A04DB3E
:1003E000203A00FA02F1002070479140C2F1200348
:1003F00020FA03F3194390407047202A04DB203A87
:1004000021FA02F00021704721FA02F3D040C2F134
:100410002002914008431946704710B5141E73F12D
:10042000000408DA401C41F1000192185B411A43B4
:1004300001D120F0010010BD2DE9F04D92469B4600
:1004400011B1B1FA81F202E0B0FA80F220329046A6
:10045000FFF7C4FF04460F4640EA0A0041EA0B01D9
:1004600053465A46084313D0114653EA010019D0A7
:10047000C8F140025046FFF7C0FF05460E46504601
:1004800059464246FFF7AAFF084305D0012004E081
:1004900020463946BDE8F08D0020054346EAE07667
:1004A0002C4337430A986305E40AA0EB08000022B6
:1004B000FD0A44EA47540A3002D500200146E9E724
:1004C000010510196941DDE9084500196941BDE8D8
:1004D000F04DA2E7064C074D06E0E06840F001034E
:1004E00094E8070098471034AC42F6D3FFF724FE97
:1004F000B4370008D437000870B58C1810F8015BC9
:1005000015F0070301D110F8013B2A1106D110F8AC
:10051000012B03E010F8016B01F8016B5B1EF9D1B0
:100520002B0705D40023521E0DD401F8013BFAE736
:1005300010F8013BCB1A921C03E013F8015B01F8A1
:10054000015B521EF9D5A142D8D3002070BD70477F
:100550007047FEE7C1B2000A40EA012070477047C9
:10056000704700002DE9F84F4BF68F7648F6BF77BD
:100570006E4C40F68F796E4D48F60F7ADFF8B481F5
:100580002BE047F6FF72026001F00F00287070B395
:1005900002F0B8FA8346009000040DD5287808EBE5
:1005A0008001D1F8002C02EA0902C1F8002C62494E
:1005B000401E51F8200080475FEA0B600DD5287877
:1005C00008EB8001D1F8002C02EA0A02C1F8002CE5
:1005D0005A49401E51F82000804754484430016871
:1005E000574A89B211800A04CBD4BDE8F88FFFE7DF
:1005F0002068C0F30130000368802068C0F3011058
:100600000001A8802068304080F4005020602068FD
:10061000384080F020002060C8061ED4206800EA20
:100620000A00206000F056FC206830406988CA0447
:1006300001D580F48050890401D580F400502060F9
:1006400020683840A988CA0601D580F010008906C4
:1006500001D580F020002060C7E7002002F052FAA8
:10066000009001061ED5206800EA0A00206000F014
:1006700031FC206830406988CA0401D580F480507C
:10068000890401D580F40050206020683840A98892
:10069000CA0601D580F01000890601D580F020003F
:1006A0002060A2E701051ED5206800EA090020604D
:1006B00001F046FB206830406988CA0401D580F407
:1006C0008050890401D580F40050206020683840B3
:1006D000A988CA0601D580F01000890601D580F0EE
:1006E0002000206081E700047FF54AAF206800EA1F
:1006F0000900206000F0F4FC206830406988CA04DA
:1007000001D580F48050890401D580F40050206028
:1007100020683840A988CA0601D580F010008906F3
:1007200001D580F0200020605FE70000005C004001
:100730001A00002000500040A0000020840000208B
:1007400078010020810008480844D0F8001C4904C2
:1007500008D5D0F8001C48F68F72114041F4804152
:10076000C0F8001C7047000000500040810008489D
:100770000844D0F8001C490608D5D0F8001C48F6FB
:100780008F72114041F04001C0F8001C704700001A
:1007900000500040810005480844D0F8001C48F68D
:1007A0008F621140C0F8001C7047000000500040EC
:1007B0007047704770477047704770477047704781
:1007C0007047704770470000C10002D502490860B9
:1007D000704702494860704704040240000002402C
:1007E000002904D0016841F00101016070470168EF
:1007F00021F0010101607047002A03D002680A431A
:100800000260704702688A430260704730B5026830
:1008100047F6F0739A430C6A8B682343D1E9044589
:100820002C4323438C692343CC6923434C6A2343E1
:100830008C6A234313430360CA6842600A6882607B
:100840004968C16030BD00002DE9F047254F796847
:1008500001F1100528880E7ADFF88C804FF03009FE
:10086000002801D1042E04D0AC88A04215D804265B
:1008700014E03878012804D007261020A8F80000DA
:100880002BE01A4900200968194A89B2891C42F8EC
:100890001100A8F8009038701FE00226844200D9A9
:1008A0000446A968A0B288478246002000F0BAFA40
:1008B0000146A2B2504601F039FFA1B2002001F07A
:1008C000FBF92888001B2880688820446880A8F8E5
:1008D000009008494FF44050088078680672BDE8DF
:1008E000F0870000080000201E000020505C00403F
:1008F000006000401C0000202DE9F041214E74688A
:1009000010342088A168002915D0A0B1A58885429F
:1009100000D90546A8B2884707462088401B20809A
:10092000608828446080002000F05CFA0146AAB28A
:10093000384600F0F9FB2088134F302538B11349B1
:10094000280208800021084601F0B6F93D80208881
:10095000A188884204D3716803200872BDE8F08141
:1009600018B1716805200872F8E7716806200872EE
:10097000074800210068074A80B2801C42F8101026
:100980003D80EBE7080000201E0000201C00002036
:10099000505C004000600040F8B5614D68684278E6
:1009A00000242946062A896801D08AB117E0027816
:1009B000520669D18078012804D0022804D0032887
:1009C00004D061E0CC695FE00C6A5DE04C6A5BE0FA
:1009D000438823B9C388022B01D1037923B1082AA4
:1009E00039D00A2A3CD04FE00278530601D18388DF
:1009F00033B102F07F02012A04D0022A0CD043E076
:100A0000484C41E08A6940790021904710BB6868F2
:100A1000807AF8B1434C37E0417901F00F0001F0E2
:100A200070020B06404907D501EB8001D1F8001C8C
:100A3000C1F30111090106E001EB8001D1F8001CAE
:100A4000C1F301310903394B1B7883421CD90AB920
:100A500001B1344C18E00078400615D1344C13E055
:100A6000027802F07F02012A0ED1827A62B14288B6
:100A700052B9027942B9C288012A05D18A694079FE
:100A80000021904700B92B4C0927002634B1686833
:100A9000468284610020A047002006E0A9686868BB
:100AA000096940788847032815D069680A8AA2F541
:100AB0007F43FF3B0DD0022810D07AB108780006A2
:100AC00027D5C8880090009882420BD900980882E8
:100AD00017E00F72F8BD68680772F8BD4FF00800A4
:100AE0000872F8BD0DD2A86890F82C00824201D29D
:100AF0002E7006E0B2FBF0F300FB132008B90120D2
:100B00002870A86890F82C008882BDE8F840FFF7AC
:100B10009BBE03200872084900030880F8BD00004E
:100B200008000020211F0008005000403001002074
:100B3000B91E0008FD1E00081C0000207047704709
:100B400010B5032000F05EF90F4C206002464FF410
:100B500088710E4800F0E8FA032001F08BF8217844
:100B60000A4802F0ADFD2088C02182B2074801F09A
:100B7000DDFD208881B2012001F09EF8BDE8104023
:100B8000012001F0BDB8000078000020E80A002034
:100B9000704770477047704770477047704770479D
:100BA00004490A6822F010020A600A6802430A60D7
:100BB000704700000020024004490A6802F0380231
:100BC0000A600A6802430A60704700000020024081
:100BD0007047000070B50C4600286BD0364A811A69
:100BE0001315D614904253D017DC3449344D4118B4
:100BF0004FF6FF721ED0994234D0B1425AD1012132
:100C0000102000F07DFD600401D4200452D5BDE821
:100C100070400121112000F073BD99423ED0B142D5
:100C200042D0B1F5406F45D1BDE8704001210802C6
:100C300000F066BDA00405D4600403D4200401D4F0
:100C4000944209D10121052000F05AFD2846BDE853
:100C50007040012100F09CB8BDE8704001210420E3
:100C600000F04EBD200703D4E00601D4944209D120
:100C70000121092000F044FD2846BDE87040012113
:100C800000F086B8BDE870400121082000F038BDB2
:100C9000BDE870400121202000F032BDBDE8704069
:100CA0000121402000F02CBDBDE8704001218020D2
:100CB00000F026BD70BD00000014014000F8FEBF2A
:100CC0000002300038B50446ADF8001003228DF85C
:100CD000022010228DF803202046FFF77BFF694693
:100CE000204600F001F838BD2DE9F041002200282F
:100CF0004CD0CC7804F00F03E40601D58C78234364
:100D00000C784FF00F0714F0FF0F4FF0010C1BD0C1
:100D100005680CFA02F40E882640A64210D196000F
:100D200007FA06F825EA080503FA06F848EA050571
:100D3000CE78282E00D14461CE78482E00D10461AF
:100D4000521C082AE5D305600A88FF2A1ED9456887
:100D5000002202F108060CFA06F40E882640A6428C
:100D600010D1960007FA06F825EA080503FA06F8F6
:100D700048EA0505CE78282E00D14461CE78482E69
:100D800000D10461521C082AE3D34560BDE8F0811C
:100D9000F0B5114D6B68C0F30342440D260184B2D7
:100DA000C0F30157B440032F07D0C0020CD5032075
:100DB0009040834343F0706209E023F070626868FA
:100DC00020F07060686002E0A34343F0706201B1FC
:100DD00022436A60F0BD000000000140416170479D
:100DE000016170470549096889B201EBC0000449F7
:100DF000001D31F8100080B270470000505C0040C8
:100E0000006000400549096889B201EBC00004494F
:100E1000801D31F81000C0F309007047505C00409D
:100E2000006000400449096889B201EBC000034931
:100E300031F8100080B27047505C00400060004004
:100E400010B50F480168001D0268001D03680029E5
:100E500015D00C4881700C0A04710C0C8471090EB9
:100E600001728272110A0173110C8173110E0174E7
:100E70008374190A0175190C8175190E017610BD5C
:100E8000E8F7FF1F5C00002010B50C490C4801F08A
:100E9000CEFD0C4C206000280ED082B2C021074845
:100EA00001F044FC208881B2012000F005FFBDE87C
:100EB0001040012000F024BF10BD0000A80A00204F
:100EC000003801407C000020FEE770477047704703
:100ED0007047000010B5134C6068017A02290AD0EF
:100EE000042908D006290BD0082061680872BDE8E3
:100EF000104000F0A5BBFFF7A7FC6068007AF4E79C
:100F00004178052908D10178490605D1C07800F05B
:100F100049FEE068006A8047A06880688047082032
:100F2000E3E7000008000020810701D0002070479F
:100F30006421B0FBF1F201FB120109B101207047FD
:100F40004FF4C871B0FBF1F201FB120008B10020B0
:100F5000704701207047FEE77047704770B50F2457
:100F6000C27801260178002A2AD01A4A126802F4AF
:100F7000E062C2F5E062120AC2F10403D44045788F
:100F80009D40827822402A4314018A07D30E9C4058
:100F900021F0030202F1E022D2F80054FF2199402F
:100FA0008D430C402543C2F80054007800F01F0127
:100FB0008E404009800000F1E020C0F8006170BD63
:100FC00001F01F0086404809800000F1E020C0F8D1
:100FD000806170BD0CED00E00249084302490860E1
:100FE000704700000000FA050CED00E0024A1140D5
:100FF000014302480160704780FFFF1F08ED00E0D9
:1010000070B50220324D69684C780A78530606D0D4
:1010100002F07F01012931D0022934D03DE0092CB2
:1010200006D0052C07D0032C12D0012C1BD034E0A5
:1010300000F0CCFF31E0C8787F2805D8887818B94F
:10104000888808B9887A08B108203EE0002024E0AA
:10105000CA78012A21D18A88FAB9497A89061CD529
:1010600000F0CCFF19E0CA78012A16D18A88A2B90B
:10107000497A890611D500F09DFE0EE00B2C0CD1AB
:1010800001F00EF809E0012C02D0032C03D004E09B
:1010900000F090FE01E000F0BFFF28B1A968E0B2C7
:1010A00049698847032802D018B108200DE00920BB
:1010B0000BE00620074900220968074B89B2891C0A
:1010C00043F81120054A302111806968087270BD0B
:1010D00008000020505C0040006000401E0000201E
:1010E00010B5104C6068007A03280ED005280CD08B
:1010F00007280FD0022812D0042810D008206168D9
:101100000872BDE8104000F09BBAFFF7F5FB60687D
:10111000007AF4E7A068C06880470820EFE708205D
:10112000EDE7000008000020521C5208064B03EBBC
:101130004101002A06D031F8043B20F8023B521E40
:10114000002AF8D17047000000600040704700009E
:101150002DE9FF5F90B0884614461D464FF0000A07
:101160004FF0FF094FF0000B00270026FE4A1098B1
:10117000D314811A4FF4806C904272D00EDCB0F11F
:10118000804F42D0F94940186ED060456BD09842EC
:1011900003D10121082000F097FACEE0B1F5806F6D
:1011A00073D0B1F58E3F03D0B1F5923F17D1C0E0B7
:1011B0000121C80200F0A4FAB8F1000F09D0B8F17B
:1011C000010F0DD0B8F1020F11D0B8F1030F06D105
:1011D00014E0DFF89CA34FF480794FF0040BACE0EF
:1011E000DFF88CA34FF400794FF0040BA5E0DFF893
:1011F00080A34FF480694FF0040B9EE0DFF870A3EA
:101200004FF400694FF0040B97E00121084600F00D
:101210005BFAB8F1000F09D0B8F1010F0DD0B8F1A9
:10122000020F11D0B8F1030F06D113E0DFF840A38D
:101230004FF001094FF0040B7FE0DFF834A34FF0CB
:1012400002094FF0040B78E0DFF824A34FF0040903
:10125000CB4672E0DFF818A34FF008094FF0040BFB
:101260006BE05CE000E02DE00121022000F02CFAB0
:10127000B8F1000F0AD0B8F1010F0ED0B8F1020F8B
:1012800012D0B8F1030F58D115E04DE0DFF8E0A21D
:101290004FF040094FF0040B4FE0DFF8D4A24FF0BD
:1012A00080094FF0040B48E0DFF8C8A24FF00109B5
:1012B0004FF0080B41E0DFF8BCA24FF002094FF0FD
:1012C000080B3AE00121042000F0FEF9B8F1000F0C
:1012D00009D0B8F1010F0DD0B8F1020F11D0B8F15B
:1012E000030F2AD114E0DFF88CA24FF040094FF031
:1012F000080B22E0DFF87CA24FF080094FF0080BCA
:101300001BE0DFF870A24FF480794FF0080B14E077
:10131000DFF860A24FF400794FF0080B0DE00121D7
:10132000102000F0D1F908E00121202000F0CCF9D4
:1013300003E00121480300F0E3F90121084600F031
:10134000DFF90121584600F0DBF9ADF834900320B5
:101350008DF8360018208DF837000DA95046FFF79C
:10136000C3FC01A800F072FADFF80C921098DFF8C5
:101370000CB229EA00094EF6602A22462B460020CC
:101380005946FEF767FFCDE90E10B9F1000F28D0DE
:10139000DDF80C90DDE90E100022794BFFF706F81E
:1013A00022D20022774B20462946FEF7E1FE044672
:1013B0000D464846FEF7D4FF22462B46FEF74AFF6D
:1013C00004460D46574600226F4B20462946FEF73D
:1013D00041FF00226D4BFEF7CBFEFEF7CEFF86B23B
:1013E00093E0DDF81090D5E7DDE90E105B460022B2
:1013F000FEF7DCFF1FD20022614B20462946FEF794
:10140000B7FE04460D464846FEF7AAFF22462B4685
:10141000FEF720FF04460D46574600225A4B204651
:101420002946FEF717FF0022594BFEF7A1FEFEF7F3
:10143000A4FF86B269E000225B4620462946FEF7FB
:10144000B5FF62D84846FEF78BFF22462B46FEF7D3
:1014500001FF04460D46012220462946FEF769FF9A
:1014600004460D4600224B4B20462946FEF79EFFC0
:101470000BD84FF4FA670022474B20462946FEF767
:10148000E9FEFEF77AFF86B23FE00022434B20469A
:101490002946FEF78BFF0AD8C82700223B4B20467F
:1014A0002946FEF7D7FEFEF768FF86B22DE0002240
:1014B0003B4B20462946FEF779FF0AD81427002225
:1014C000334B20462946FEF7C5FEFEF756FF86B28F
:1014D0001BE00022334B20462946FEF767FF0AD85F
:1014E000022700227B0720462946FEF7B3FEFEF7BF
:1014F00044FF86B209E0012700225B4620462946C8
:10150000FEF7A8FEFEF739FF86B27F1EADF8287001
:10151000701EADF82C000024ADF82E40ADF82A4026
:101520000AA9109800F01AFF1E9846434FF47A70EB
:10153000864204D9B6FBF0F080B21E9003E01E98FC
:1015400008B101201E906020ADF818001E98ADF87B
:101550001E00ADF820400120ADF81A00B8F1000FD0
:101560002AD0B8F1010F1FE00010004000FCFFBFBF
:1015700000080140000C0140000001400000F03F65
:101580000000244000005940004CED40000069403C
:1015900000003440D012634100409F4080842E41BF
:1015A000006AF84040FFEF400BD0B8F1020F0DD0B9
:1015B000B8F1030F13D10EE006A9109800F0C8FD92
:1015C0000DE006A9109800F0FBFD08E006A91098B0
:1015D00000F042FE03E006A9109800F083FE01210E
:1015E000109800F0A7FDB8F1000F09D0B8F1010F75
:1015F0000BD0B8F1020F0DD0B8F1030F13D10EE0EC
:101600000821109800F0D6FD0DE00821109800F098
:1016100019FE08E00821109800F05EFE03E00821A2
:10162000109800F091FE0121109800F069FD012151
:10163000109800F072FD14B0BDE8F09F70470000F4
:1016400010B50B4890F82C10002000F0DBFA094888
:101650004068007A082805D1074A41021180074AEC
:1016600010211180092801D0002010BD012010BDDB
:10167000E0000020080000201C0000201E000020C8
:1016800010B5012001F0D6FE012106480160064A8E
:1016900000210160031D19604FF4E05111800160C9
:1016A000002010BD405C004018000020054A0029C1
:1016B00003D05169014351617047516981435161C0
:1016C0007047000000100240054A002903D0D1698C
:1016D0000143D1617047D1698143D16170470000F6
:1016E00000100240054A002903D01169014311612D
:1016F000704711698143116170470000001002407A
:10170000054A002903D091690143916170479169AD
:10171000814391617047000000100240054A002992
:1017200003D0D1680143D1607047D1688143D16053
:10173000704700000010024070B5002400F068F807
:101740004FF48035284600F001F9681E2146641CDC
:101750008142FBD300F052F9012803D0BDE870406C
:1017600000F025B81020FFF71BFA0220FFF724FA3B
:10177000002000F0E1F8002000F016F94FF480603E
:1017800000F008F94FF4E011284600F01DF901209F
:1017900000F014F9392000F0AFF80028FAD0022048
:1017A00000F01CF900F0C0F80828FBD170BD10B59E
:1017B00000F02EF8012000F0E5F8202000F09CF861
:1017C0000028FAD0002000F0B7F8002000F0ECF874
:1017D0004FF4806000F0DEF80220FFF7EDF91020F2
:1017E000FFF7DEF94FF46011002000F0EDF8012062
:1017F00000F0E4F802E0022000F0F0F8392000F0F8
:101800007BF80028F7D000F08FF80828FBD110BD36
:101810000B48016841F0010101604168094A11402B
:1018200041600168084A11400160016821F480218B
:101830000160416821F4FE01416000218160704730
:10184000001002400000FFF8FFFFF6FE10B5264A28
:10185000516801F00C01254B002927D0042927D01D
:10186000082927D00360516801F0F0010909204BD5
:101870005C5C0168E1404160546804F4E064240A5F
:101880001C5D21FA04F48460546804F46054E40A92
:101890001B5DD940C160526802F44042920B144B68
:1018A0001B1F9A5CB1FBF2F1016110BD0360DAE726
:1018B0000360D8E7516801F47011022303EB9141F2
:1018C000536803F4803333B153689B0307D5094B46
:1018D00059430160C7E7074B59430160C3E7034B16
:1018E00059430160BFE700000010024000127A0077
:1018F000DC36000800093D00034600205909094A6A
:1019000001290AD002290AD0516A03F01F020123DB
:1019100093400B4200D0012070471168F5E7116A2F
:10192000F3E70000001002400248406800F00C009D
:101930007047000000100240034A516821F0F00196
:101940000143516070470000001002400C490A68D2
:1019500022F480320A600A6822F480220A60B0F51C
:10196000803F07D0B0F5802F03D1086840F4A02055
:1019700008607047086840F48030086070470000D5
:101980000010024001490860704700000000424218
:1019900070470000034A516821F4E061014351603F
:1019A0007047000000100240034A516821F4605162
:1019B00041EAC000506070470010024001490866CB
:1019C0007047000000004242034B5A6822F47C1228
:1019D000084310435860704700100240034A5168A2
:1019E00021F00301014351607047000000100240E4
:1019F0000149086070470000D800424230B50B4CE6
:101A000040F2FF153120FFF777FF20706068401C1F
:101A10006060207810B96068A842F3D13120FFF7E8
:101A20006BFF08B1012030BD002030BD0000002058
:101A30007047000002490A8882430A80704700000C
:101A4000042800402DE9F04700F062F805462C4FCD
:101A5000B5FBF7F32B482C4E018899422ED003801A
:101A600040F2B2744FF4B7784FF4B6790CE02046E8
:101A7000FFF75AFA20B1434508D3A3F5B77301E045
:101A8000A3F26D13641CA4B24B45F0D8B4800024BB
:101A9000DFF878800CE0B088FFF746FA08B1012C37
:101AA00029D018F80400984204D81B1A641CA4B268
:101AB0001C2BF0D2641CB4715B1CF371B5FBF7F006
:101AC00007FB10504FF46161B0FBF1F23270B0FBD4
:101AD000F1F201FB12033C22B3FBF2F37370B0FB93
:101AE000F1F301FB1300B0FBF2F102FB1100B07047
:101AF0000020BDE8F0871D2BDCD31D3BD6E700009E
:101B000080510100200000208A010020EC360008EE
:101B1000034800880249091F098840EA01407047CC
:101B20001C28004006490988C2B21140044A121F0D
:101B30001288024202D009B101207047002070478C
:101B40000428004010B50120FFF7ECFF08B1FFF7B3
:101B500079FF0220FFF7E6FF10B10220FFF76AFFCE
:101B60000520FFF767FFBDE8104000F001B8000056
:101B7000024801888906FCD570470000042800400F
:101B80007047FFF781B97047704770477047FFF79C
:101B9000D3BD0000024920F0070008607047000034
:101BA000505C0040F0B50C490E7800210B4D48F612
:101BB0008F7709E0CBB205EB8302D2F8004C3C40B2
:101BC0001C43C2F8004C491CB142F3D3044940F015
:101BD00080000860F0BD000030010020005000408F
:101BE0004C5C0040054A21F00101126892B202EB00
:101BF000C000034A001D42F810107047505C0040BE
:101C0000006000400E4A126892B202EBC0000D4A1A
:101C1000801D02EB40023E290AD94809C90601D1BC
:101C2000401E80B24FF4004141EA802010607047AE
:101C30004808C90701D0401C80B28002106070477C
:101C4000505C004000600040820009480244D2F825
:101C5000000C4BF68F731840CB0401D580F48050F4
:101C6000890401D580F40050C2F8000C70470000D0
:101C700000500040810007480844D0F8001C4BF693
:101C80008F72114081F4805181F40051C0F8001C22
:101C90007047000000500040054A21F00101126821
:101CA00092B202EBC000034A42F8101070470000E5
:101CB000505C004000600040044A126892B202EB9F
:101CC000C000034A801C42F810107047505C00406E
:101CD00000600040820009480244D2F8000C48F637
:101CE000BF731840CB0601D580F01000890601D5DE
:101CF00080F02000C2F8000C704700000050004047
:101D0000810007480844D0F8001C48F6BF72114013
:101D100081F0100181F02001C0F8001C7047000024
:101D200000500040820005481044D0F8002C48F6CE
:101D30008F131A400A43C0F8002C7047005000402F
:101D400038B51948006880B2001D41001748095A8B
:101D500089B200EB41040094154D6868017A0929A5
:101D600013D0217801706178241D41702088FEF71E
:101D7000F1FB69684880A088A41DFEF7EBFB696849
:101D80008880A41C00942088C880686801210172A2
:101D9000C08828B1FEF700FEBDE83840FFF750BC10
:101DA000FFF72EF9F8E70000505C004000600040AB
:101DB000080000202DE9F0413B4E7068017801F0E9
:101DC0007F01002904D0022908D00220BDE8F0815B
:101DD000417A01F0DF0141720020F7E7418809B93B
:101DE000017909B10220F1E7304B417921F08004FB
:101DF0002F4F0A0607D507EB8402D2F8002CC2F356
:101E00000112120106E007EB8402D2F8002CC2F3A3
:101E1000013212031D78A5420DD962B1807A50B10A
:101E2000080612D507EB8400D0F8000CC0F30110AF
:101E3000012802D021E00220C8E7E0B2FEF796FCBC
:101E4000E0B23021FFF746FF17E007EB8405D5F835
:101E5000000CC0F3013001280FD14BF68F788CB104
:101E6000E0B2FEF76FFCD5F8000C00EA080080F441
:101E7000805080F40050C5F8000CF068406980473D
:101E80000020A3E70B4890F82C100020FFF7BAFEC3
:101E9000D7F8000C00EA080080F4805080F400506D
:101EA000C7F8000CE9E7000008000020300100201E
:101EB00000500040E000002010B5074C002805D07D
:101EC000E0680068804760680A3010BD61680120E2
:101ED0000882002010BD000008000020064A536858
:101EE0005A8A002802D00868104470478888801AEF
:101EF00018820020704700000800002010B5074C31
:101F0000002805D0E0688068804760680C3010BD0C
:101F1000616801200882002010BD00000800002038
:101F200010B5284B002859680DD00022981C02805B
:101F30000A7854060BD002F07F02012A1AD0022A36
:101F40001BD0002010BD02200882002010BD497A5D
:101F50008A0603D5027842F002020270490604D5CF
:101F6000017801F0FE01017026E0017841F00101E5
:101F7000017021E01348801C10BD4A7902F00F0166
:101F80001406114A0CD502EB8101D1F8001CC1F3F3
:101F90000111012910D1017841F0010101700BE01C
:101FA00002EB8101D1F8001CC1F30131012903D1F9
:101FB000017841F001010170D8680069804701484B
:101FC000801C10BD080000200050004010B5094AD8
:101FD000094B50685B78C178994203D883780BB974
:101FE00083880BB1022010BD8172D06840688047A1
:101FF000002010BD080000203001002010B5054968
:102000004868427A42F020024272C868C06980473C
:10201000002010BD0800002070B51E4D6A6851797F
:1020200021F080041C4B21F080000E0603EB8000A1
:1020300005D5D0F8003CC3F301131B0104E0D0F830
:10204000003CC3F301331B03144E3678A64210D96B
:10205000548874B96BB1927A5AB109060BD5D0F88D
:10206000001C48F6BF72114081F01001C0F8001C3E
:102070000AE0022070BDD0F8001C4BF68F721140B0
:1020800081F48051C0F8001CE86880698047002016
:1020900070BD00000800002000500040300100200A
:1020A00010B50E4C6068A268C1789269407990477B
:1020B00061688A7A82B118B9087908B9887808B154
:1020C000022010BDE068C068804760684179C17235
:1020D000C1780173002010BD022010BD080000204F
:1020E0007047704770477047704770477047704738
:1020F0007047704770477047704770477047704728
:10210000002904D0018841F08001018070470188D6
:1021100040F27F32114001807047002904D00188CD
:1021200041F0010101807047018840F2FE32114008
:1021300001807047002905D030F8441F41F4004168
:102140000180704730F8441FC1F30E0101807047D1
:1021500030B5028C22F001020284058C8388028B48
:1021600022F070020C88144325F002020D891543F9
:102170004A882A43CD8885860C4DA84202D00C4D52
:10218000A8420FD122F008054A892A4322F004050B
:102190008A882A4323F4014323F402438D891D4393
:1021A000CB892B4383800483028430BD002C014003
:1021B00000340140028B22F008020A430283704778
:1021C00070B5028C22F010020284028C8388048B8A
:1021D00024F4E0460D884FF6FF7404EA05253543E4
:1021E00022F020020E8904EA061616434A8804EA01
:1021F00002123243CE880687104EB04202D0104EF3
:10220000B04217D122F080024E8904EA0616164326
:1022100026F040068A8804EA0212324323F404437B
:1022200023F408438E8904EA86061E43C98904EA1A
:102230008103334383800583028470BD002C0140F9
:1022400000340140028B22F400624FF6FF7303EA70
:10225000012111430183704770B5028C22F4807212
:102260000284028C8388848B24F070040D882543BB
:1022700022F400720E894FF6FF7404EA0626164314
:102280004A8804EA02223243CE888687104EB04242
:1022900002D0104EB04217D122F400664A8904EAF7
:1022A0000222324322F480668A8804EA0222324300
:1022B00023F4104323F420438E8904EA06161E43B8
:1022C000C98904EA0113334383808583028470BD86
:1022D000002C014000340140828B22F008020A43A6
:1022E0008283704770B5028C22F480520284058C80
:1022F0008288838B23F4E0460C884FF6FF7303EA51
:102300000424344325F400560D8903EA053535438A
:102310004E8803EA06362E43CD88A0F84050084D7B
:10232000A84202D0074DA84205D1C2F30D05898904
:1023300003EA81122A4382808483068470BD0000F0
:10234000002C014000340140828B22F400624FF6E1
:10235000FF7303EA0121114381837047028802F071
:102360008F020280CA884B881A4303881A4302806E
:102370008A8882850A88028501228282044A9042E4
:1023800002D0044A904201D1097A018670470000C8
:10239000002C0140003401407047704770B51F4D5C
:1023A00040F226642146284600F0EFF8C0B12146ED
:1023B000284600F079F8284600F0DAFD80B128467A
:1023C00000F0C8FB0446002C26D00021204600F077
:1023D00011FE0121204600F0FAFD284600F0D4FF4E
:1023E00040F224462C463146204600F0CEF8002824
:1023F00012D03146204600F057F8204600F0B8FDD4
:10240000002809D0204600F0A5FB002804D0204673
:10241000BDE8704000F05EBF70BD000000380140B4
:1024200070B51E4D40F226642146284600F0ADF8F6
:10243000C0B12146284600F037F8284600F098FD44
:1024400068B1284600F086FB0446002C24D0002109
:10245000204600F0CFFD0121204600F0B8FD2846BF
:1024600000F092FF40F224442146284600F08DF807
:10247000002811D02146284600F016F8284600F022
:1024800077FD20B1284600F065FB002804D02846DF
:10249000BDE8704000F01EBF70BD00000044004069
:1024A0007047C943018070470A0A01219140C9431E
:1024B00001807047002904D0818941F40051818155
:1024C0007047818921F4005181817047002A03D02F
:1024D000828A0A4382827047828A8A438282704754
:1024E00010B5244A811A131590422BD00FDC2249D3
:1024F00040181CD098423BD1040201212046FFF72E
:10250000F1F82046BDE810400021FFF7EBB89942F2
:1025100023D0B1F56C4F2BD101218C032046FFF75E
:10252000FDF82046BDE810400021FFF7F7B8012173
:102530004C042046FFF7D6F82046BDE810400021A5
:10254000FFF7D0B80121CC042046FFF7CBF8204696
:10255000BDE810400021FFF7C5B801210C05204659
:10256000FFF7C0F82046BDE810400021FFF7BAB8D9
:1025700010BD0000004C004000BCFFBF0246002020
:1025800012880A4200D00120704770B50024C1F3C0
:10259000421301F01F05012606FA05F2012B0CD0AB
:1025A000022B0DD0838A1340090A8E4000883040E8
:1025B0000BB100B10124204670BD83891340F3E7BD
:1025C000038A1340F0E710B5C1F3421301F01F0472
:1025D0000121A140012B07D0022B07D014303AB1C2
:1025E00002680A43026010BD0C30F8E71030F6E7CD
:1025F00002688A43026010BD30B585B004460D46BE
:10260000208A4CF6FF710840E98801432182A189A4
:102610004EF6F3100140A8882A8910436A890A43BC
:102620001043A081A08A4FF6FF410840A9890143C9
:10263000A1826846FFF70AF91148844201D1039844
:1026400000E0029800EBC00101EB0010296889004E
:10265000B0FBF1F06423B0FBF3F109010A096FF05C
:1026600018056A4300EB8200322202EB0010B0FB37
:10267000F3F000F00F000843208105B030BD0000EA
:10268000003801407047704707490648086002213A
:102690000172074905480860074A06491160006849
:1026A000004700005C0100200C000020E00000203A
:1026B00010000020340100201400002070B5144CDC
:1026C0002068144D2880144E31880840400506D5F6
:1026D0004FF6FF3020601148006840688047288826
:1026E00031880840800508D54FF6FF5020600C481F
:1026F0000178491C0170FFF744FA288831880840A6
:10270000000403D5BDE87040FDF72CBF70BD00008C
:10271000445C0040780100201800002010000020D8
:1027200080000020FFF7CABFFEE7000010B5521C72
:102730005208084B03EB4101002A09D00378447882
:10274000801C43EA042321F8043B521E002AF5D1E1
:1027500010BD0000006000400EB5FFF718FA0948F0
:1027600001904FF40040ADF808004FF4FA7000906B
:102770000022000703461146FEF7EAFC01A800F01C
:1027800079F90EBD0008014010B500210F4A21283B
:10279000126802D0202807D00FE0107800F07F00E8
:1027A00021280AD10A4908E0107800F07F0021288A
:1027B00000D10849084B2020187029B191610020F0
:1027C00050828847002010BD022010BD0C00002060
:1027D000F527000875290008BC0000200149FFF713
:1027E0007DBB0000D80000200149FFF777BB000047
:1027F000C8000020002801D0034870470349082082
:102800000968088200207047C00000200C000020EA
:1028100005490968C978042901D900207047034A8D
:1028200002EBC101FFF75ABB0C0000201001002091
:10283000002901D002207047012801D902207047E9
:102840000020704708490968097801F07F012129B3
:1028500003D1022803D0222803D002207047002091
:1028600070470020704700000C00002010B533486E
:10287000002100688172324AD2794272C17200200E
:10288000FFF788F94FF400710020FFF74BFA102191
:102890000020FFF71FFA40210020FFF7A3F9802155
:1028A0000020FFF7F9F90020FDF774FF254890F8A4
:1028B0002C100020FFF7A6F90020FFF7DBF900211C
:1028C0000120FFF72FFAC0210120FFF7E5F92021B1
:1028D0000120FFF7FFF900210120FFF7B5F94FF4C0
:1028E000C0610220FFF71EFA4FF480710220FFF74B
:1028F000D3F900210220FFF7A7F920210220FFF7DA
:10290000E9F900210320FFF70DFA4FF48871032045
:10291000FFF768F940210320FFF774F94FF44051A5
:102920000320FFF791F900210320FFF7D3F90020DE
:10293000FFF738F904490120087010BD0C00002091
:1029400014370008E0000020580100200448006807
:10295000807A002802D003490520087070470000E3
:102960000C00002058010020014904200870704725
:1029700058010020002801D003487047034908206F
:102980000968088200207047C00000200C00002069
:1029900010B5044C2078202803D100F0CDFB002096
:1029A000207010BDBC0000207047000010B5FEF77D
:1029B00047FA0948002400688472FEF761FE074860
:1029C000046007494FF4064008800449091F086065
:1029D0000448047010BD00000C000020445C00405E
:1029E0001800002058010020FFF7B6BE704702E033
:1029F00008C8121F08C1002AFAD17047704700208A
:102A000001E001C1121F002AFBD1704770B50546D5
:102A10000E461446284600F0A9FD3146284600F02F
:102A20002FFE21462846BDE8704000F00FBD70B56E
:102A300005460E460024284600F0CAF938B1314652
:102A4000284600F063F90446284600F029F820469D
:102A500070BD70B504460D461646204600F040FA9B
:102A600030B1324629462046BDE8704000F064BCD3
:102A7000002070BD10B50146084A086810618988B9
:102A80005180FEF71FF9002000F0D4FC00F0C7FCD5
:102A900000F0ACFCBDE81040FFF7F6BD4800002098
:102AA000124A1349904203D10A7822F001020A70B7
:102AB000104A904203D10A7822F002020A700E4AAC
:102AC000904203D10A7822F004020A700B4A904225
:102AD00003D10A7822F008020A70094A904203D111
:102AE000087820F01000087000207047003801407E
:102AF000240000200044004000480040004C0040FA
:102B000000500040072801D9002070470F4A02EB0F
:102B10008001D1F8001C89B20D4A082814D2DFE8E0
:102B200000F00406080A0C0E101251800CE091808F
:102B30000AE0D18008E0118106E0518104E0918132
:102B400002E0D18100E0118288B27047005000405D
:102B50007801002010B50446204600F009FA28B19B
:102B60000D490E488C4203D1006810BD002010BDF5
:102B70000B498C4201D1406810BD0A498C4201D1F9
:102B8000806810BD08498C4201D1C06810BD07495A
:102B90008C42FBD1006910BD00380140540A00206E
:102BA0000044004000480040004C004000500040FD
:102BB0000B4A0C49904201D1088870470A4A90425A
:102BC00001D148887047094A904201D188887047EE
:102BD000074A904201D1C888704700207047000022
:102BE000003801403600002000440040004800400A
:102BF000004C00400B4A0C49904201D108887047B4
:102C00000A4A904201D148887047094A904201D14E
:102C100088887047074A904201D1C88870470020D1
:102C200070470000003801403E0000200044004092
:102C300000480040004C00400B4A0C49904201D132
:102C4000088870470A4A904201D148887047094A6B
:102C5000904201D188887047074A904201D1C888C4
:102C60007047002070470000003801402600002017
:102C70000044004000480040004C00400B4A0C4912
:102C8000904201D1088870470A4A904201D1488891
:102C90007047094A904201D188887047074A90429C
:102CA00001D1C888704700207047000000380140FB
:102CB0002E0000200044004000480040004C00402E
:102CC0000A49884201D10A4870470A49884201D11D
:102CD000094870470949884201D1094870470949A4
:102CE000884201D1084870470020704700380140F1
:102CF0009401002000440040AC0200200048004045
:102D0000C4030020004C0040DC0400202DE9F04703
:102D1000884607461B498F4202D10020BDE8F08754
:102D200060B33846FFF7CCFF81463846FFF784FF93
:102D30000646384600F028F804466068301A85B226
:102D4000F5B1206820F0010020602A46494640463F
:102D5000FDF7FCF9C4F80C906660206840F00100B3
:102D600020604FF6EF7038800021384600F07CF983
:102D70003146384600F086FA2846CFE70020CDE7F6
:102D80000020CBE7005000400B49884201D10B489E
:102D900070470B49884202D10848143070470949EE
:102DA000884202D10548283870470749884201D136
:102DB0000648704700207047003801405800024024
:102DC0000044004000480040004C004030040240F5
:102DD00070B505462846FFF72FFF06462846FFF741
:102DE000D3FF406884B210212846FFF7C7FB28B103
:102DF00010212846FFF755FB012070BD24B1B442D5
:102E000005D14FF0010070BD4FF0010070BD0FD231
:102E10002846FFF733FF06462846FFF7C9FEB442AF
:102E20000AD1022806D8401C81B2284600F01CF9BD
:102E3000002070BD012070BD0021284600F014F96B
:102E40002146284600F01EFA002070BD0A4988423B
:102E500001D10A4870470A49884201D109487047A0
:102E60000949884201D1094870470949884201D17E
:102E7000084870470020704700380140F4050020E2
:102E8000004400400C0700200048004024080020B7
:102E9000004C00403C0900200B49884201D10B48FE
:102EA00070470B49884202D108483C3070470949B5
:102EB000884202D10548283870470749884201D125
:102EC0000648704700207047003801404400024027
:102ED0000044004000480040004C004058040240BC
:102EE00070B506463046FFF785FE04463046FFF7CC
:102EF000D3FF054640213046FFF740FB88B1002153
:102F0000304600F0F7F800212846FDF769FC402123
:102F10003046FFF7C6FA80213046FFF7C2FA01209B
:102F200070BD2868C00702D0686810B11DE001209C
:102F300070BD80213046FFF721FBB0B1022C06D2D4
:102F4000641CA1B2304600F0D5F8002070BD00210D
:102F50002846FDF745FC80213046FFF7A2FA002104
:102F6000304600F0C7F8012070BD002070BD0000A1
:102F700010490F4A0978904202D101F001007047D0
:102F80000D4A904202D1C1F3400070470B4A904273
:102F900002D1C1F380007047094A904202D1C1F3C7
:102FA000C0007047074A9042FBD1C1F30010704740
:102FB000003801402200002000440040004800404A
:102FC000004C004000500040FFF70EFDFEE7426954
:102FD000002A05D011B1038B536101E0038B13610B
:102FE0004268002A02D011B10089506170470089FF
:102FF00010617047C268002A05D011B1038A1361BD
:1030000001E0038A53614268002A02D011B10089AD
:103010001061704700895061704700000D49884277
:1030200003D14FF48030FDF7CFBB0B49884203D169
:103030004FF48010FDF7C8BB0849884202D18015C3
:10304000FDF7C2BB0649884202D10648FDF7BCBB6A
:103050007047000000380140004400400048004034
:10306000004C004000010010024608460A4B0B4984
:103070009A4201D108807047094B9A4201D1488099
:103080007047084B9A4201D188807047064B9A429C
:10309000FBD1C88070470000003801403600002096
:1030A0000044004000480040004C00400C49884269
:1030B00002D18014FDF788BB0A49884203D14FF042
:1030C0008070FDF781BB0849884202D11020FDF7CE
:1030D0007BBB0649884202D10548FDF775BB7047A6
:1030E000003801400044004000480040004C0040CF
:1030F00000000110024608460A4B0B499A4201D1D2
:1031000008807047094B9A4201D148807047084BAC
:103110009A4201D188807047064B9A42FBD1C88001
:1031200070470000003801403E000020004400408D
:1031300000480040004C00407FB52A4B0021187920
:10314000002808D0012809D002280CD000F04EF841
:10315000002004B070BDADF8061008E04FF44050F8
:10316000ADF8060003E04FF40050ADF806005879C2
:103170004FF4806438B1012808D0022809D000F04B
:1031800035F80020E5E7ADF8081006E0ADF8084096
:1031900003E04FF4C060ADF808009879072805D027
:1031A000082806D000F022F80020D2E7ADF804107D
:1031B00001E0ADF8041018680090ADF80C100C2078
:1031C000ADF80A00084D69462846FFF715FA0121B7
:1031D0002846FFF76FF9224669462846FFF716FC96
:1031E0000120B6E7C0000020003801401FB50E4C9A
:1031F0002046FFF775F94FF4964100910021ADF894
:103200000410ADF80610ADF808100C22ADF80A2035
:10321000ADF80C1069462046FFF7EEF92215694615
:103220002046FFF7F3FB1FBD003801400246084669
:103230004FF48C71002808D0884200D908460C4B06
:103240000C499A4203D1088070470846F7E70A4BB9
:103250009A4201D148807047084B9A4201D1888038
:103260007047074B9A4201D1C880704700207047D1
:103270000038014026000020004400400048004083
:10328000004C0040024608464FF48C71884200D939
:1032900008460B4B0B499A4201D1088070470A4BF4
:1032A0009A4201D148807047084B9A4201D18880E8
:1032B0007047074B9A4201D1C88070470020704781
:1032C000003801402E00002000440040004800402B
:1032D000004C0040124A1349904203D10A7842F050
:1032E00001020A70104A904203D10A7842F00202A9
:1032F0000A700E4A904203D10A7842F004020A7022
:103300000B4A904203D10A7842F008020A70094A37
:10331000904203D1087840F01000087000207047F8
:1033200000380140240000200044004000480040D4
:10333000004C0040005000402DE9F04104460F468B
:1033400015462046FFF778FC06462046FFF77EFD2F
:1033500080462046FFF7A0FD0446B54202D9002072
:10336000BDE8F0812A4639464046FCF7EFFE20686A
:1033700020F0010020606560C4F80C80206840F0F7
:10338000010020602846EBE7124A1349904203D11E
:103390000A7842F001020A70104A904203D10A787A
:1033A00042F002020A700E4A904203D10A7842F0BB
:1033B00004020A700B4A904203D10A7842F00802D4
:1033C0000A70094A904203D1087840F01000087052
:1033D00000207047003801402300002000440040D6
:1033E00000480040004C00400050004008B500215B
:1033F0004FF00060FDF7FAFD4FF4C060FDF7ECFD03
:1034000014208DF8000000208DF801008DF80200D6
:1034100001208DF803006846FDF7A0FD08BD10B53A
:103420000020FEF7E5FA0121BDE81040C805FEF7CF
:103430004BB90000020004484188006901D0FDF743
:10344000CDBCFDF7CDBC0000480000202DE9F04FB9
:103450008DB005460C462846FFF732FC064621464D
:103460002846FFF7E3FE01902846FFF715FD814649
:103470002846FFF789FC8046002E6FD0B9F1000F77
:103480006CD0B8F1000F69D03649681A0A158D4220
:1034900019D009DC3448281810D0904217D10121E6
:1034A0000846FEF703F912E0904257D0B0F56C4F92
:1034B0000DD101210846FEF7F9F808E00121084680
:1034C000FEF7F4F803E001210220FEF7EFF82F1DCC
:1034D00002970396102004900024059406944FF060
:1034E000800ACDF81CA0089409940A944FF4005B5C
:1034F000CDF82CB00C9402A94846FDF787F9029745
:1035000003960494019805900694CDF81CA00894A5
:1035100009940A94CDF82CB00C9402A94046FDF70A
:1035200075F900214846FDF75BF901214046FDF79A
:1035300057F9012240212846FEF7C8FF01228021C9
:103540002846FEF7C3FF002202214846FDF754F942
:103550002846FFF7ABFD2846FFF760FD0DB0BDE83C
:10356000F08F0000004C004000BCFFBF2DE9F84385
:1035700000250024002700263A4ADFF8EC80811A53
:10358000DFF8E89013154FF4006C90423AD019DC44
:103590003749401829D098424DD1364F3E461D46F6
:1035A000644601210846FEF7ABF801213248FDF7D9
:1035B000EFFB01210820FEF7A3F801218804FEF7A4
:1035C00083F838E099422AD0B1F56C4F33D14746A1
:1035D0003E464FF400751C4601210520FEF790F889
:1035E00001218803FEF78CF825E047463E46042576
:1035F000082401210420FEF783F801214804FEF786
:1036000063F818E04F463E461D46644601211120EE
:10361000FEF776F80121C804FEF756F80BE04F4696
:10362000164E1D46042401213120FEF769F80121C0
:103630000805FEF749F8ADF8005018208DF8030092
:1036400003208DF8020069463846FDF74DFBADF8C2
:10365000004048208DF8030069463046FDF744FBE2
:10366000BDE8F883004C0040000801400010014014
:1036700000BCFFBF000C01400002300000140140FC
:1036800070B505460C462846FEF72AFF0C216181DD
:103690000021A18121462846FEF7AEFF40F22444D6
:1036A000002221462846FEF78EFF21462846FEF7D7
:1036B000FBFE2846BDE870400121FEF7FBBE00007E
:1036C0000A46034B0121197001460248FFF7C1B9B0
:1036D00048000020003801400204060800000000F5
:1036E0000102030401020304060708091F1C1F1E30
:1036F0001F1E1F1F1E1F1E1F12010002020000407E
:10370000830440570002010203010A060002000080
:103710000040010009024300020100C03209040018
:10372000000102020100052400100105240100012E
:10373000042402020524060001070582030800FF95
:1037400009040100020A000000070503024000000E
:1037500007058102400000040309042603530054B6
:10376000004D006900630072006F0065006C006529
:10377000006300740072006F006E006900630073E4
:10378000003203530054004D003300320020005635
:1037900000690072007400750061006C0020004335
:1037A000004F004D00200050006F00720074002098
:1037B00000200000D4370008000000205C01000059
:1037C000F8040008543800085C010020CC0D00000B
:1037D000FE290008015C141A03531254124D1233CF
:1037E00012321231021930133F0B0C1C085B0F040C
:1037F0000A1141245133C201120813F8363308125A
:10380000130A3733080A1A1408324313AD2914086F
:103810006D281B0891081AA9041389271B08451055
:103820001A31041AE90C1ADD041A110C4132401A3B
:10383000573832041A5B0832261A81083232225C69
:1038400033201A1A046F297C1A4D4C0916AC1A69D8
:043850001C41000017
:0400000508000131BD
:00000001FF
