:020000040800F2
:100000005829002045010008511B000899150008D7
:100010004F1B0008FD070008E13B0008000000003E
:100020000000000000000000000000005D35000836
:100030004B090008000000000D200008653500088D
:10004000073C00080D1C000841360008A9250008DF
:10005000410B00080D2300084D0900085509000850
:10006000590900085D090008610900080308000833
:10007000070800080B0800080F080008130800080C
:10008000170800081B08000851070008DD3B00089E
:10009000DF3B0008FF0700080108000865090008A9
:1000A0004336000849360008473600084536000840
:1000B00061360008753600088D3600089F15000867
:1000C0009D150008A3150008A11500083529000892
:1000D0003729000831390008AD390008293A0008ED
:1000E0005109000809240008DB3B00089736000886
:1000F0009D3600089B360008993600085307000813
:10010000750B0008C527000891360008392900083A
:10011000293900082D390008933600089536000863
:100120001F08000823080008270800082B080008FB
:10013000DFF80CD000F0FAFA00480047454A000802
:1001400058290020004800473101000840EA010317
:100150009B0703D009E008C9121F08C0042AFAD27D
:1001600003E011F8013B00F8013B521EF9D2704741
:10017000D2B201E000F8012B491EFBD270470022E9
:10018000F6E710B513460A4604461946FFF7F0FF96
:10019000204610BD2DE9FE4F804681EA0300C00FC6
:1001A0000C46009021F0004123F00045B8EB02001E
:1001B000A94105D24046214690461C460B460246C0
:1001C00023F00040104347D0270DC7F30A00C3F3C4
:1001D0000A510290401A019040286BDAC3F31300D1
:1001E00040F4801B0098924620B10023D2EB030A12
:1001F00063EB0B0B01985946C0F14002504600F0EA
:10020000EEF906460D4650465946019A00F006FAA8
:1002100010EB08006141002487EA115284EAE77379
:100220001A4340D0009A62B3019A012A4FEA07525A
:1002300015DC001B61EB02014FF0004202EA07529D
:10024000CDE90042001C41F5801132462B4600F0FA
:1002500006FA03B0BDE8F08F40462146F9E7001BDF
:1002600061EB0201001C41F5801300185B4120186E
:10027000A2F5001747EB030140EAD570B6196D41AE
:1002800011E06D084FEA360645EAC0754FEA07529D
:10029000001B61EB0201001C41F5801149084FEA87
:1002A00030000019514132462B4603B0BDE8F04FF3
:1002B00000F0C6B90098012240000023D0EB0202F2
:1002C00063EBE073009821464FEAE074B8EB00005E
:1002D00061EB0401E9E783F000435BE781F0004153
:1002E00058E72DE9FE4F81EA030404F0004421F0B1
:1002F000004100944FF0000B23F0004350EA01044A
:100300005ED052EA03045BD0C3F30A54C1F30A552A
:100310002C44A4F2F3340194A0FB0254C1F3130162
:1003200041F48011C3F3130343F4801301FB02442F
:1003300000FB034E840A970A44EA815447EA835734
:10034000A4FB076802958D0A05FB07854FEA932CED
:1003500004FB0C542705029D4FEA065847EA16375E
:10036000B5EB08056EEB070C870E920E47EA811776
:1003700042EA8312A7FB0201B6EB0B0164EB000417
:100380002B0D43EA0C335E1844EB1C50DA46514601
:10039000E7FB0201C5F313044FEA0B3343EA14539E
:1003A0004FEA0432019C43EA0603A4F10C040294D0
:1003B000009CCDE900B400F052F903B0BDE8F08F25
:1003C00000200146F9E72DE9F04D81EA030404F02D
:1003D000004B21F0004514464FF0000A23F0004185
:1003E00050EA050220D054EA01021DD0C5F30A5795
:1003F0000246C5F31303C1F31300C1F30A5640F4D8
:10040000801543F48013A7EB0608101BD64608F2AC
:10041000FD3873EB050002D308F1010801E09218E2
:100420005B41B8F1000F03DA00200146BDE8F08D12
:1004300000204FF48011064684460EE0171B73EB34
:10044000050705D3121B63EB050306434CEA010CB9
:1004500049084FEA300092185B4150EA0107EDD19C
:1004600052EA030012D082EA040083EA050108433D
:1004700005D0101BAB4106D20122002306E000226A
:100480004FF0004302E06FF0010253101AEB060038
:100490004CEB085110EB0A0041EB0B01BDE8F04DAD
:1004A00000F0CEB870B521F0004303430CD0C1F387
:1004B0000A550024D5EB040564EB0403D617AD1AE6
:1004C000B34102DB0020014670BD201841EB025110
:1004D00070BD0EB540F2334102910021CDE900110B
:1004E0000A460B4600F0BBF803B000BDC1F30A5248
:1004F00010B5C1F3130140F2FF3341F480119A4269
:1005000001DA002010BD40F233439A42A2F2334296
:1005100003DC524200F072F810BD904010BD0000A4
:1005200030B5041E71F1000404DB4FF0004440427A
:1005300064EB0101141E73F1000405DB1C464FF04F
:100540000043524263EB0403994208BF904230BD1E
:1005500030B50B46014600202022012409E021FA93
:1005600002F59D4205D303FA02F5491B04FA02F590
:100570002844151EA2F10102F1DC30BD2DE9F05F27
:100580000546002092469B46884606468146402402
:100590001BE0284641464746224600F02FF85346C6
:1005A0005A46C01A914110D311461846224600F00F
:1005B00016F82D1A67EB01084F462246012000214C
:1005C00000F00DF817EB00094E41201EA4F10104C4
:1005D000DFDC484631462A464346BDE8F09F202AE4
:1005E00004DB203A00FA02F1002070479140C2F18A
:1005F000200320FA03F3194390407047202A04DBBC
:10060000203A21FA02F00021704721FA02F3D0408B
:10061000C2F120029140084319467047202A06DBA8
:10062000CB17203A41FA02F043EAE07306E041FAC0
:1006300002F3D040C2F120029140084319467047AE
:1006400010B5141E73F1000408DA401C41F10001DA
:1006500092185B411A4301D120F0010010BD2DE931
:10066000F04D92469B4611B1B1FA81F202E0B0FA28
:1006700080F220329046FFF7B2FF04460F4640EA70
:100680000A0041EA0B0153465A46084313D011466B
:1006900053EA010019D0C8F140025046FFF7AEFFFF
:1006A00005460E46504659464246FFF798FF084316
:1006B00005D0012004E020463946BDE8F08D002039
:1006C000054346EAE0762C4337430A986305E40A7B
:1006D000A0EB08000022FD0A44EA47540A3002D584
:1006E00000200146E9E7010510196941DDE90845E7
:1006F00000196941BDE8F04DA2E7C1F30A52C1F308
:10070000130140F2FF3341F480119A4202DA0020D3
:100710000146704740F233439A42A2F2334202DC70
:100720005242FFF76BBFFFF75ABF0000064C074D60
:1007300006E0E06840F0010394E8070098471034B1
:10074000AC42F6D3FFF7F8FCD0500008F050000898
:100750007047704738B502F002FF01F059FC00F015
:10076000FFFF01F05BFE00F0F5FE4FF6FF7001F0B9
:1007700065F84FF6E0740222234611464FF44370A9
:1007800001F021F92346032202214FF43E7001F0CB
:10079000FDF84FF480744FF49645224629460C48E4
:1007A00003F015FF224629460A4803F010FF01F026
:1007B00015FE4FF4617000220090074B11460007B0
:1007C00001F026FABDE838404FF47A7002F0CCBE52
:1007D00000380140004800400000594010B501F0C9
:1007E00005FFBDE8104001F0EFBF10B5012001F09A
:1007F00065FCBDE81040002001F060BCFEE77047DA
:10080000704700F061B800F05FB800F05DB800F02C
:100810005BB800F059B800F057B800F055B800F0D8
:1008200053B800F051B800F04FB800F04DB80000D8
:10083000C10002D50249086070470249486070470C
:1008400004040240000002400029016802D041F087
:10085000010101E021F00101016070470246002022
:10086000D10001D5034900E003490968114200D0D5
:10087000012070470004024000000240002A026884
:1008800001D00A4300E08A430260704730B5026835
:1008900047F6F0739A430C6A8B682343D1E9044509
:1008A0002C4323438C692343CC6923434C6A234361
:1008B0008C6A234313430360CA6842600A688260FB
:1008C0004968C16030BD000010B503F095F91020F3
:1008D000FFF7C4FF01281BD04FF480542046FFF7D8
:1008E000BDFF01281AD024032046FFF7B7FF0128D7
:1008F0001BD0124C2046FFF7B1FF01281CD1204627
:10090000FFF796FF0E480021BDE81040FFF79CBF9F
:100910001020FFF78DFF00210A48F5E72046FFF77A
:1009200087FF084800212830EEE72046FFF780FFC8
:10093000044800216430E7E710BD0000000001100A
:10094000580402401C0002407047704700F0B0B8E5
:1009500000F0AEB800F0ACB800F0AAB800F0A8B84B
:1009600000F0A6B800F0A4B8014908607047000084
:100970001404014010B5012000F08AF8434C18B16E
:10098000208840F0010006E0022000F081F820B14C
:10099000208840F00200208010BD042000F078F88C
:1009A00018B1208840F00400F5E7082000F070F846
:1009B00018B1208840F00800EDE7102000F068F83A
:1009C00018B1208840F01000E5E7202000F060F822
:1009D00018B1208840F02000DDE7402000F058F8F2
:1009E00018B1208840F04000D5E7802000F050F892
:1009F00018B1208840F08000CDE74FF4807000F0FF
:100A000047F818B1208840F48070C4E74FF40070B4
:100A100000F03EF818B1208840F40070BBE74FF4B6
:100A2000806000F035F818B1208840F48060B2E7AB
:100A30004FF4006000F02CF818B1208840F40060FA
:100A4000A9E74FF4805000F023F818B1208840F453
:100A50008050A0E74FF4005000F01AF818B1208839
:100A600040F4005097E74FF4804000F011F818B1BF
:100A7000208840F480408EE74FF4004000F008F8F2
:100A8000002889D0208840F4004084E750000020EE
:100A9000064A014600201268044B0A4014331B68C2
:100AA0000B4202D0002A00D0012070470004014010
:100AB00008B50020ADF80000FFF75CFF03F09CF8DC
:100AC0001E48BDF8001001800120FFF74DFF0220F5
:100AD000FFF74AFF0420FFF747FF0820FFF744FF16
:100AE0001020FFF741FF2020FFF73EFF4020FFF7D7
:100AF0003BFF8020FFF738FF4FF48070FFF734FF93
:100B00004FF40070FFF730FF4FF48060FFF72CFFC9
:100B10004FF40060FFF728FF4FF48050FFF724FFE9
:100B20004FF40050FFF720FF4FF48040FFF71CFF09
:100B3000BDE808404FF40040FFF716BF500000200A
:100B40007047000004490A6822F010020A600A682F
:100B500002430A60704700000020024004490A680E
:100B600002F038020A600A6802430A607047000017
:100B700000200240704700008000A0F1C040002922
:100B800004D0016841F00101016070470168024A28
:100B90001140016070470000FEFF0F0010B5D0E962
:100BA00001121143D0E903231A431143426911434F
:100BB00082691143C2691143026A1143426A1143B7
:100BC000826A1143C26A1143026B114302689200A8
:100BD000A2F1C04211608168082907D1016889002B
:100BE000A1F1C0410A6842F040020A60416BD1E9BC
:100BF000002342EA03128B688C891B0243EA0443F8
:100C00001A430B8A42EA03520B7D896942EA036266
:100C10000A430168491C8900A1F1C0410A60816A48
:100C2000B1F5804F08D000686FF070418000A0F1EE
:100C3000C040C0F8041110BD816BD1E9002342EA25
:100C400003128B688C891B0243EA04431A430B8A04
:100C5000006842EA03520B7D896942EA03620A4353
:100C60008000A0F1C040C0F8042110BD10B50121E2
:100C7000084601F017FA0021BDE81040012001F0FC
:100C800011BA000070B50C46002852D0294A811ACA
:100C90001315D614904243D014DC2749274D411830
:100CA0004FF6FF701BD0994227D0B14241D10121AC
:100CB000102001F0EBF9600401D4200439D50121A2
:100CC000112008E099422ED0B1422FD0B1F5406FEB
:100CD0002FD101210802BDE8704001F0D7B9A1046D
:100CE00005D4610403D4210401D4844202D101213A
:100CF00004200AE001210420EDE7210703D4E106E6
:100D000001D4844209D10121092001F0BFF928460C
:100D1000BDE87040012100F03FB901210820DAE769
:100D200001212020D7E701214020D4E701218020A4
:100D3000D1E770BD0014014000F8FEBF0002300092
:100D400038B50446ADF8001003228DF802201820B3
:100D50008DF803002046FFF795FF0121084601F0BA
:100D600095F96946204600F0C7F838BD38B5044605
:100D7000ADF8001002228DF8022048208DF8030003
:100D80002046FFF77FFF6946204600F0B5F838BDE2
:100D900038B50446ADF8001003228DF8022010206B
:100DA0008DF803002046FFF76DFF6946204600F0EE
:100DB000A3F838BD254A10B5811A1315D4149042F2
:100DC0002ED00DDC224940181CD0984221D0A042E0
:100DD0003BD10121102001F065F9002110200DE028
:100DE000994224D0A14229D0B1F5406F2DD10121E3
:100DF0000C02204601F056F900212046BDE81040C3
:100E000001F050B90121042001F04CF90021042027
:100E1000F4E70121082001F045F900210820EDE761
:100E20000121202001F03EF900212020E6E70121E8
:100E3000402001F037F900214020DFE70121802028
:100E400001F030F900218020D8E710BD00140140E6
:100E500000F8FEBF2DE9F84F684600F0C5F81F4CBA
:100E60006946204600F048F81D4D6946284600F0C6
:100E700043F81C4E6946304600F03EF81A4F69466A
:100E8000384600F039F8DFF864806946404600F0E3
:100E900033F8DFF85C906946484600F02DF8DFF83B
:100EA00054A06946504600F027F82046FFF782FF1D
:100EB0002846FFF77FFF3046FFF77CFF3846FFF7F5
:100EC00079FF4046FFF776FF4846FFF773FF50462D
:100ED000FFF770FFFFF7CAFEBDE8F88F000801407A
:100EE000000C0140001001400014014000180140B6
:100EF000001C014000200140F0B50022002849D02C
:100F0000CC7804F00F03E40601D58C7823430C78E9
:100F10004FF00F0C14F0FF0F4FF0010E1AD00568C0
:100F20000E880EFA02F42640A6420FD196000CFA63
:100F300006F725EA070703FA06F5CE783D43282E83
:100F400000D14461CE78482E00D10461521C082A99
:100F5000E6D305600A88FF2A1CD94468002202F102
:100F600008060EFA06F50E882E40AE420ED1960007
:100F70000CFA06F7BC4303FA06F7CE783C43282E5A
:100F800000D14561CE78482E00D10561521C082A57
:100F9000E5D34460F0BD0000F0B5104D6B68440D22
:100FA000260184B2C0F30157B440C0F30342032FBB
:100FB00005D0C0020AD503209040834307E068684B
:100FC00023F0706220F07060686002E0A34343F099
:100FD000706201B122436A60F0BD00000000014070
:100FE00041617047016170474FF6FF710180022136
:100FF00081700421C1707047F0B50C461F46014650
:101000000020059B1546802C5BD9A4F1A1020C2978
:101010000ED0102925D018293DD0202907D13A46D5
:101020002946204600F06AF9614901EBC010F0BD85
:101030000A2A0AD8A12D08D33A462946204600F0AC
:101040005DF900EB40005B4908E000231A462946A1
:10105000204600F053F9584900EB400001EBC00076
:10106000F0BD564E0A2A01D8A12D03D2A4F1A80042
:10107000012807D83A462946204600F03FF906EBFA
:101080004010F0BD3A462946204600F037F94C4959
:1010900001EB4010F0BD0A2A0AD8A12D08D33A4628
:1010A0002946204600F02AF900EBC0004549D5E763
:1010B0003A462946204600F021F900EBC00042499B
:1010C000CCE7A4F121025D2AE4D804EB840202EB10
:1010D000C40504EB840204EB041302EB441604EB96
:1010E00084173E2952D018DC24295DD00BDC04EB98
:1010F00044020C2938D010293CD018293ED0202990
:10110000C8D132483FE034293CD0362948D038296C
:10111000C0D12F4800EB4300F0BDDFF8B8C0A1EB11
:101120000C02614524D00CDC792935D0B1F5801F43
:1011300014D0294A891813D0B1F5407FECD1274843
:101140000FE002F51952B2F5004221D0B2F54C6F12
:1011500020D0B2F5225FDFD1214826E0214800E00F
:10116000214800EBC400F0BD204800EB8200F0BD38
:101170001F4800E01F4800EB0410F0BD1E4800EBC4
:101180000210F0BD1D4800EB8410F0BD1C4804E0C7
:101190001C48BFE71C4804E01C4800EB4500F0BDBC
:1011A0001B4800EB4600F0BD1A4800EB4700F0BDBD
:1011B00010AE47000E3D11000E4F1100DE4F19001A
:1011C000DE671900DE432700DE7927008025100046
:1011D00010C61000800D100000FDEFFF000510008C
:1011E000807F100000FF0F00000210008007100039
:1011F000800B10008013100080151000803D10003F
:10120000405A100000631000C06A100040BD10007A
:1012100000CE100000E310000A4610B5054900EBAF
:101220004000182401EBC000214603F011FC2046C9
:1012300010BD000032AD47000A4610B5054900EB6D
:101240004000182401EBC000214603F001FC2046B9
:1012500010BD0000AAAD47000246002080290FD92A
:101260000C2A07D0102A07D0182A07D0202A00D12C
:101270008020704718207047202070474820704712
:101280000C2A07D0102A05D0182A05D0202AF6D11A
:101290004020704710207047302070472DE9F843F8
:1012A000804600270C4680209146B0EB142F009713
:1012B0000CD8260AE2B2002331464046FFF79CFED6
:1012C0000546E2B20023314600970AE00023E1B26E
:1012D0001A464046FFF790FE00230546E1B21A4643
:1012E00000974046FFF7B8FF044601464A462846A5
:1012F00003F0AEFBA0B2BDE8F883000030B50446B1
:101300000020354D7F290DD0A4F1A1050A2D0BD861
:10131000A12909D3C5EB051000EB451001EB4000F6
:10132000A1380FE0284630BDA4F1A805012D09D849
:101330007F2901D9491EC9B205EB450001EB4010D8
:1013400000F20E30A4F1B005472D0AD8A12908D328
:10135000C5EB051000EB451001EB400000F2AD209D
:1013600030BDA4F18105202D0ED240290CD37F2958
:1013700001D9491EC9B2C5EB451000EB851001EB40
:10138000400041F67E510EE0AA2C0ED3A1290CD2CA
:101390007F2901D9491EC9B2AA3C04EB440001EBE4
:1013A000401043F23E51084430BD02EB8202812CD2
:1013B0000BD0822CF8D140F2EC40414301EB4200CB
:1013C0001844A0F51A40BB3830BD3929FCD303EBD3
:1013D000420044F69941E6E710AE470010B5064CCE
:1013E000206001F0E3FA206801F0ABFA2068BDE864
:1013F000104001F0A2BA00008000002000280CD0AC
:101400004179007920280AD0303800EB8000D022C2
:1014100002EB40000844C0B2704700207047002033
:10142000F3E700280AD041780078303800EB8000DC
:10143000D02202EB40000844C0B270470020704741
:1014400000280AD00179C078303800EB8000D02223
:1014500002EB40000844C0B27047002070470028EB
:1014600017D08078632816D0622816D0722816D03C
:10147000792816D06E2816D06C2816D0672816D07A
:10148000702816D0742816D0762816D00B20401C51
:101490007047002070470020F9E70120F7E703209C
:1014A000F5E70420F3E70520F1E70620EFE7072042
:1014B000EDE70820EBE70920E9E70A20E7E7002845
:1014C0000AD0C1798079303800EB8000D02202EB5D
:1014D00040000844C0B270470020704730B5054650
:1014E0000C46284600F01AF80B4B18802846FFF7E8
:1014F000B6FF98702846FFF781FFD8702046FFF7A7
:1015000090FF18712046FFF79BFF58712046FFF7A8
:10151000D6FF9871004830BD14010020002816D075
:10152000C179827A303901EB4103C3EBC11102EB7F
:10153000C102017A407A303964233038594300EBD4
:10154000800001EB40001044303880B2704700202A
:101550007047000010B509A10BA0FFF7BFFF0D49B0
:1015600002888A8482788A71C278CA7102790A7282
:1015700042794A728079887210BD000032313A3463
:10158000373A323400000000417072202037203298
:101590003031390000000020FEE770477047704787
:1015A00070477047AFF3008002494AF6AA200860EE
:1015B000704700000030004081070CD16421B0FB6F
:1015C000F1F201FB120141B94FF4C871B0FBF1F225
:1015D00001FB120008B10020704701207047000095
:1015E0002DE9F04397B004464A4D6C600121080292
:1015F00000F028FD012140F2FD1000F047FD2068B9
:1016000010B1A188FFF7C4FB206910B1A18AFFF7D0
:10161000BFFBA06A10B1A18DFFF7BAFB3E4F4CF2A1
:1016200003713846FFF78CFBDFF8F0804FF68071CE
:101630004046FFF785FB30213846FFF781FBDFF896
:10164000E090BE1431464846FFF77AFB0821404639
:10165000FFF776FB31464846FFF7C4FC02214046BF
:10166000FFF7BEFC10213846FFF7BCFC20213846AE
:10167000FFF7B8FC31464846FFF7B2FC642000F0A3
:101680009FF8012001900022029202200390049210
:1016900005920692C00607900620089009920A92C9
:1016A00010200B900C920D920E920F9210961192A8
:1016B0001292149201A81590169008A8FFF76EFADE
:1016C00001210620FFF758FA686816494166164955
:1016D00081661649C166204601F038FCB4F8501006
:1016E000B4F85200814203D180F0FF01A4F85010F9
:1016F0006868806F80474FF6FF7000F029F8A18876
:101700002068FFF76FFC04F1A800FFF767FE17B031
:10171000BDE8F083080100200014014000180140DA
:10172000002001404117000831170008211B000864
:1017300002494968496D088070470000080100208F
:1017400002494968896D088070470000080100203F
:1017500002494968D1F898100847000008010020A4
:10176000114812494FF0D84301600121818010498E
:1017700081628A14828500210161818283650D4B1B
:1017800043654FF6FF73A0F8523020F8501F0A4B04
:1017900001738365094BC365A0F86020A0F87A1037
:1017A0000148FFF71DBF0000EC01002000080140C8
:1017B000002001400000106C00380040000C014087
:1017C00001F008BF38B5049C0094034C6468D4F859
:1017D0009440A04738BD000008010020FFF75EBD1F
:1017E0002DE9F041C4B006460F46144698464FF422
:1017F000807104A8FEF7C3FC00214BAB04A84A9AF1
:1018000002F002FA85B200200390082C08D00C2CBC
:1018100006D0102C04D0182C02D0202C00D020246C
:1018200004A9E8B2CDE900014346224639463046D4
:1018300000F00CF844B02846BDE8F0810249496840
:10184000A1F85200FFF784BF080100202DE9FF4FE7
:10185000A5B00446DDF8CCB00D461746002684211D
:1018600004A8FEF78CFC484840684030017FB0F87F
:1018700000A04088012905D0022906D0032906D0FE
:1018800081467BE0D146824678E0814676E0D146CB
:10189000824673E01BF80680B8F1800F25D94FEA25
:1018A00008210BEB060040780143AAEB0700A04299
:1018B00002DA0024E81985B2A9EB0700A84201DA90
:1018C0000024254604AA3846FFF788FFC0B204A9C1
:1018D000CDE900013A4629462046289B00F012F93E
:1018E000E01984B2761CF6B245E0B8F10D0F1DD0B8
:1018F000B8F10A0F1AD0AAEB5700A04202DA00246E
:10190000E81985B2A9EB0700A84201DA00242546B0
:1019100004AA41463846FFF761FFC0B20390B8F110
:10192000090F17D0B8F1200F14D017E00BEB060009
:1019300040780A2801D00D2801D1761CF6B2A9EB17
:101940000700A84202DA0024254614E00024E81922
:1019500085B210E004A80399FEF711FC04A80399CE
:10196000CDE900103A4629462046289B00F048F869
:1019700004EB570084B200BF761CF6B23298864260
:1019800088D329B0BDE8F08F08010020F0B58BB0F6
:1019900005460E4614461F46202103A8FEF7EFFB1E
:1019A000042C00D9042403A92046FFF735FCC0B25B
:1019B00003A9CDE900013B460C223146284600F040
:1019C000A1F80BB0F0BDF0B593B005460E46144635
:1019D0001F46402103A8FEF7D2FB032C00D90324A5
:1019E00003A92046FFF728FCC0B203A9CDE90001F6
:1019F0003B460C223146284600F084F813B0F0BD77
:101A00007CB5DDE90654CDE90054034C6468D4F894
:101A1000A040A0477CBD0000080100202DE9FF4F39
:101A2000A3B00446DDF8C8B00E4615460027842151
:101A300002A8FEF7A4FB324840684030017FB0F8AE
:101A400000804088012905D0022906D0032906D04C
:101A500081464EE0C14680464BE0814649E0C146A2
:101A6000804646E031984FEA900A33E01BF80700C1
:101A7000AAF1010A4FEA8A01C84000F00F010929C2
:101A800002D83031C9B205E0A1F10A00052801D819
:101A90003731C9B2A8EB5500A04202DA0024701910
:101AA00086B2A9EB0500B04201DA0024264602AA5C
:101AB0002846FFF793FEC0B202A9CDE900012A46ED
:101AC00031462046269BFFF79BFF04EB550084B26E
:101AD0000AF0FF0ABAF1000FC8D104EB550084B236
:101AE000A8EB0500A04202DA701986B200247F1C20
:101AF000FFB230988742B5D327B0BDE8F08F000021
:101B0000080100207CB5DDE90654CDE90054034C02
:101B10006468D4F8A440A0477CBD00000801002000
:101B200070B503460D46054C6068426E18469047F6
:101B30006068826E2846BDE87040104708010020AA
:101B400010B5FFF72FFDBDE8104002F045B8FEE7E5
:101B5000704708B54FF4C06000F04EF803208DF8D0
:101B6000000002208DF801008DF8020001208DF8A0
:101B70000300684600F002F808BD000070B50F25AC
:101B8000C2780178012652B31A4A1268447802F4E6
:101B9000E062C2F5E062120AC2F10403D540827825
:101BA0009C402A40224314018A07D30E21F00302ED
:101BB00002F1E0229C40D2F80054FF2199408D436D
:101BC0000C402543C2F80054007800F01F018E40FD
:101BD0004009800000F1E020C0F8006170BD01F014
:101BE0001F0086404809800000F1E020C0F88061B5
:101BF00070BD00000CED00E0024908430249086096
:101C0000704700000000FA050CED00E0704700008E
:101C10002DE9FF5F90B093460025E94A1098894668
:101C2000FF24811ADFF89CA3D3142E46A8462F4622
:101C30004FF4806C90427CD00CDCB0F1804F32D0FD
:101C4000E14940184AD0604564D098425BD10121F7
:101C500008207FE0B1F5806F7FD0B1F58E3F03D0D3
:101C6000B1F5923F4FD17BE00121C80200F00EFA9E
:101C70005FEA090007D0012809D002280BD0B9F18A
:101C8000030F71D10BE055464FF480743AE055468E
:101C90004FF4007436E055464FF4806432E0554608
:101CA0004FF400642EE00121084600F0D7F95FEA06
:101CB000090007D0012808D0022809D0B9F1030F84
:101CC00052D108E0554601241CE05546022419E093
:101CD0005546042416E05546082413E0012102204D
:101CE00000F0BCF95FEA090007D0012808D00228FB
:101CF0000AD0B9F1030F37D109E05546402401E07D
:101D00005546802404262FE0B04D01241EE0AF4D3F
:101D100002241BE00121042000F0A0F95FEA090081
:101D200009D001280AD002280BD0B9F1030F1BD12A
:101D30000AE00DE011E0A54D402407E0A34D80240A
:101D400004E0A24DAC1501E0A04D6C1508260BE097
:101D50000121102000F082F906E001212020F9E79E
:101D60000121480300F092F90121084600F08EF9A4
:101D70000121304600F08AF9ADF8304003208DF89B
:101D8000320018208DF833000CA92846FFF7B4F86C
:101D900007A800F027FA8E4C10988E4D84434EF61B
:101DA00060265A4600202946139BFEF70CFB8A4BFF
:101DB000CDE90D01FCB109982C46824600221D4652
:101DC0000D98FEF7ADFB18D20022844B58461399AC
:101DD000FEF787FA04460D465046FEF77AFB224688
:101DE0002B46FEF7F0FAB04600227D4BFEF7EBFAE9
:101DF00000227C4B1FE00A98DEE7DDE90D01234657
:101E00000022FEF78DFB4FF0000217D22B465846FA
:101E10001399FEF766FA04460D465046FEF759FB45
:101E200022462B46FEF7CFFAB04600226C4BFEF757
:101E3000CAFA00226C4BFEF754FA49E026462346C4
:101E400058461399FEF76CFB45D85046FEF741FB08
:101E50005A46139BFEF7B7FA0122FEF723FB04460E
:101E60000D460022614BFEF75BFB04D84FF4FA6885
:101E700000225F4B28E000225E4B20462946FEF7F9
:101E80004FFB04D84FF0C8080022564B1CE000223C
:101E9000594B20462946FEF743FB04D84FF014085F
:101EA0000022514B10E00022544B20462946FEF7F9
:101EB00037FB05D84FF0020800224FF0804303E0C3
:101EC0004FF001080022334620462946FEF77BFAF0
:101ED000FEF70CFB87B2A8F10100ADF81000781EE8
:101EE000ADF814000024ADF81640ADF8124004A976
:101EF000109801F0FBFC1E9847434FF47A7087421C
:101F000003D9B7FBF0F080B202E01E9808B10120BF
:101F10001E906020ADF800001E98ADF8060001206C
:101F2000ADF80200ADF808405FEA090007D00128CB
:101F30000AD002280DD0B9F1030F13D10EE0694683
:101F4000109801F0D1FB0DE06946109801F002FCF9
:101F500008E06946109801F047FC03E069461098D4
:101F600001F086FC0121109801F0B3FB5FEA090043
:101F700007D001280AD002280DD0B9F1030F13D1E0
:101F80000EE00821109801F0DFFB0DE00821109809
:101F900001F020FC08E00821109801F063FC03E048
:101FA0000821109801F096FC0121109801F078FBAF
:101FB0000121109801F082FB14B0BDE8F09F0000F1
:101FC000001000400008014000FCFFBF000C014071
:101FD000000001400000F03F000024400000594094
:101FE000004CED400000694000003440D0126341D5
:101FF00000409F4080842E41006AF84040FFEF403F
:10200000014908627047000000000E42704700005E
:1020100010B510210848FEF7A9FE4FF4806107486B
:10202000FEF7B6FE06490120C1F8A801BDE8104040
:102030004FF47A7001F0CEBA000C0140001C014050
:1020400000802342044A0029516901D0014300E085
:10205000814351617047000000100240044A00298A
:10206000D16901D0014300E08143D1617047000094
:1020700000100240044A0029116901D0014300E028
:10208000814311617047000000100240044A00299A
:10209000916901D0014300E08143916170470000E4
:1020A00000100240044A0029D16801D0014300E039
:1020B0008143D16070470000001002400149086070
:1020C000704700004004424270B5002400F06CF8F4
:1020D0004FF48035284600F0F9F8681E2146641C4C
:1020E0008142FBD300F060F9012803D0BDE87040C5
:1020F00000F025B81020FEF725FD0220FEF72EFD8A
:10210000002000F0D9F8002000F01CF94FF48060A6
:1021100000F00EF94FF4E011284600F023F90120F9
:1021200000F01AF9392000F0A7F80028FAD00220B0
:1021300000F030F900F0B8F80828FBD170BD10B5F8
:1021400000F032F8012000F0DBF8202000F094F8D5
:102150000028FAD0002000F0AFF8002000F0F2F8DC
:102160004FF4806000F0E4F80220FEF7F7FC102046
:10217000FEF7E8FC4FF46011002000F0F3F80120B6
:1021800000F0EAF802E0022000F004F9392000F043
:1021900073F80028F7D000F087F80828FBD1BDE8D5
:1021A0001040FEF757BE00000B48016841F00101E6
:1021B00001604168094A114041600168084A1140C4
:1021C0000160016821F480210160416821F4FE0171
:1021D0004160002181607047001002400000FFF85C
:1021E000FFFFF6FE30B5204A5168204B11F00C017C
:1021F00003D0042901D0082901D0036011E05168FF
:10220000022301F4701103EB9141536813F4803FF2
:1022100002D053689B0301D5154B00E0134B594383
:10222000016051680F2303EA1111124B5C5C0168D5
:10223000E14041605468072505EA14241C5D21FA39
:1022400004F48460546805EAD4241B5DD940C1605D
:102250005268032303EA9232064B1B1F9A5CB1FBC0
:10226000F2F1016130BD00000010024000127A005E
:1022700000093D00B4500008034600205909094AEE
:1022800001290AD002290AD0516A03F01F02012352
:1022900093400B4200D0012070471168F5E7116AA6
:1022A000F3E70000001002400248406800F00C0014
:1022B0007047000000100240034A516821F0F0010D
:1022C0000143516070470000001002400B490A684A
:1022D00022F480320A600A6822F480220A60B0F593
:1022E000803F07D0B0F5802F03D1086840F4A020CC
:1022F00008607047086840F48030F9E70010024039
:102300000149086070470000000042427047000029
:102310000649002281F8202081F82020012802D0DF
:10232000042802D1052081F82000704700100240E7
:10233000034A516821F4E061014351607047000095
:1023400000100240034A516821F4605141EAC00084
:102350005060704700100240014908667047000055
:1023600000004242034B5A68084322F47C12104397
:102370005860704700100240014908607047000033
:102380003C04424202490A6A02430A627047000062
:1023900000100240034A516821F0030101435160DB
:1023A000704700000010024030B50B4C40F2FF15A2
:1023B0003120FFF761FF20706068401C606020786A
:1023C00010B96068A842F3D13120FFF755FF00280B
:1023D00000D0012030BD0000480000200848074917
:1023E00002220160074941600281C16002824161AD
:1023F00002838A154FF4165102F07CB80044004065
:10240000441C0020000801407047000002490A886F
:1024100082430A80704700000428004010B5012163
:102420004FF0C050FFF71AFE0120FFF7E9FDFEF75D
:10243000DCF90120FFF76CFF4120FFF71DFF0028AA
:10244000FAD04FF48070FFF79DFF0120FFF794FF53
:1024500000F0ACF900F0A2F948F2030000F08EF9A8
:1024600000F09CF90121084600F0B4F800F096F95C
:1024700000F09CF90121084600F0ACF800F08EF95C
:10248000FFF767FBBDE8104000F010B80248018874
:1024900041F0100101807047042800400248018883
:1024A00021F0100101807047042800402DE9F04719
:1024B00000F060F8DFF8AC800546B0FBF8F32A487E
:1024C0002A4E018899422CD0038040F2B2744FF416
:1024D000B7774FF4B6790CE02046FFF76DF820B1DE
:1024E000BB4208D3A3F5B77301E0A3F26D13641CDC
:1024F000A4B24B45F0D8B48000241D4F0BE0B08847
:10250000FFF75AF808B1012C28D0385D984204D85A
:102510001B1A641CA4B21C2BF1D2641CB4715B1C8A
:10252000F371B5FBF8F108FB11504FF46161B0FB9A
:10253000F1F23270B0FBF1F201FB12033C22B3FB6B
:10254000F2F37370B0FBF1F301FB1300B0FBF2F197
:1025500002FB1100B0700020BDE8F0871D2BDCD31A
:102560001D3BD6E78051010052000020601C002076
:10257000C4500008034800880249091F098840EA3E
:10258000014070471C28004006490988C2B211402A
:10259000044A121F1288024202D009B1012070477A
:1025A000002070470428004010B50120FFF7ECFF21
:1025B00008B1FFF77BFF0220FFF7E6FF10B1022012
:1025C000FFF724FF0520FFF721FFBDE8104000F0D2
:1025D000E5B80000044A0029118801D0014300E059
:1025E00081431180704700000028004030B51D4C29
:1025F00087B0A0781C4DE978884230D0A08818B107
:10260000A07908B1E079A8B9FFF750FFA08818B108
:10261000A07908B1E07968B9FEF79CFFA87A697AD9
:102620000930C0B2CDE900102B7AEA79A979A88CDB
:1026300000F036F8A078E870A37862782178E07925
:102640000DF10C0C8CE80F00A279A18807A08DE891
:1026500007000023202219461846FFF7C1F807B0EB
:1026600030BD0000601C002000000020525443CA0E
:10267000B1D6D33A25302E3464C4EA25302E3264E4
:10268000D4C225302E3264C8D525302E3264CAB16A
:1026900025302E3264B7D625302E3264C3EB0000CD
:1026A0002DE9F05F9A4605460023A0F2B270DDF8EE
:1026B00028B091468846822802D30120BDE8F09FC9
:1026C00040F2B274214E224F08E02046FEF774FF1C
:1026D00008B1334400E03B44641CA4B2AC42F4D3E0
:1026E000A8F10100C6B200241A4FDFF86C800EE09A
:1026F000385D40F2A321484303EBC0132846FEF7A0
:102700005BFF10B1012C00D14344641CA4B2B4425D
:10271000EED340F2A32109FB01F00F4903EBC010F7
:1027200049420144CAEB4A12C2EB0A2001EB0011F4
:10273000CBEB0B1001EB80000B99084400F00EF876
:1027400000F02CF8FFF7B2FE0020B7E70085E201A9
:102750008033E101C45000088051010000B50246F9
:10276000FFF794FE0449100C0880081D02805DF8F4
:1027700004EBFFF793BE00001828004000B50246A6
:10278000FFF784FE0449C2F303400880081D02805D
:102790005DF804EBFFF782BE08280040024801887C
:1027A0008906FCD5704700000428004004480188D1
:1027B00021F00801018001880907FCD5704700005D
:1027C00004280040704700002DE9F04F4B4D87B0C2
:1027D0004FF0080AE88B4FF0200B411CE983B0F55D
:1027E000FA7F25D9464C0120042120706170002613
:1027F000A670E07026710220607184F806B00B208C
:10280000E071082221463F4801F0C2FE10F0FF0FA0
:102810000ED0CDF800A0CDE901A42B8A1022A98901
:102820004FF48270FFF7FAF8EE8307B0BDE8F08F3F
:102830003549344801F08DFE10F0FF04F5D0324EDA
:1028400036F8030F40BAFDF744FE304F00223B46F6
:10285000FDF7B9FD80467088894640BAFDF739FE1C
:1028600000223B46FDF7AFFD0F46274906462246AC
:10287000A1F58060FDF76AFC22462549254801F054
:10288000B6FE23490094CDE901A12B8A1022A98923
:102890000020FFF7C3F820A00090CDE90467CDE940
:1028A000028900231022A9894FF4FA70FEF798FFDD
:1028B0002120B4FBF0F0A98901EB0010103080B2A8
:1028C000A8812A8A4FF478418A4200D11F212982A7
:1028D000B0F5EF7FA9D90E484FF4F073D4384FF418
:1028E0004872B0F85200009020210020FEF76AFFE5
:1028F000A5F80CB0A5F80EB097E700000000002086
:10290000C0040020441C0020C00600200000244019
:10291000C002002000380140CEC2B6C825302E3299
:1029200066A1E62020CAAAB6C825302E3266252523
:1029300000000000704770477047018940680161DE
:10294000704701894068416170470029018802D0C1
:1029500041F0400101E021F0400101807047024652
:10296000002012890A4200D00120704780897047F8
:102970008181704730B502884C8802F441530A883F
:10298000CD8822438C882C4322430C8922434C89D6
:1029900022438C892243CC8922431A430280828BB2
:1029A00022F400628283098A018230BD10B5044698
:1029B00000F006F821896068BDE81040FEF7E8B92C
:1029C0002DE9F043044600685849DFF8648187B078
:1029D00040184FF018054FF0030617D0DFF8549158
:1029E000B0F5806F2CD0B0F5784F23D101210803CA
:1029F000FFF74CFB01210520FFF748FBF020ADF865
:102A000000008DF803508DF8026033E00121880347
:102A1000FFF724FB01210920FFF738FB4FF470403A
:102A2000ADF800008DF802608DF80350694640460D
:102A3000FEF762FA618C01B3012008291ED11FE064
:102A40000121CF033846FFF709FB01210D20FFF7D5
:102A50001DFB3820ADF800008DF802608DF80350A2
:102A600069464046FEF748FAADF800708DF80260FE
:102A70008DF8035069464846DAE70020012200E05D
:102A800000221040102901D0012200E00022104055
:102A9000182901D0012200E000221040202901D095
:102AA000012200E000221040282901D0012200E08C
:102AB00000221040302901D0012200E00022104005
:102AC000382901D0012100E0002108424FF0000127
:102AD00000D06184ADF804104FF48270ADF80600A8
:102AE000ADF808100220ADF80A000120ADF80C0086
:102AF0000720ADF81400ADF812104FF40070ADF8D7
:102B00000E00608CADF8100001A92068FFF732FFBD
:102B100020680188890502D4012100F03DF80121D7
:102B20002068FFF712FF07B0BDE8F08300C8FFBFC1
:102B3000000C0140000801402DE9F0410F46044619
:102B4000002541F2883603E06D1CADB2B5420FD8C6
:102B500002212068FFF703FF0028F5D039462068DE
:102B6000FFF706FF002506E06D1CADB2B54202D9A5
:102B70000020BDE8F08101212068FFF7F0FE002869
:102B8000F2D080212068FFF7EAFE0128F9D0206802
:102B9000FFF7ECFEC0B2ECE70029818802D041F0DB
:102BA000040101E021F004018180704738B5054639
:102BB000124801684031087F0B884C885B1E641EF8
:102BC00000280BD001280ED0022811D00020A2B27C
:102BD00000219BB2009500F087F938BD00209AB221
:102BE0000021A3B2F6E70020A2B200219BB2F1E7D8
:102BF00000209AB20021A3B2ECE7000004010020FB
:102C00002DE9FF4F89B00746DDF85890884600242B
:102C100015460320A0EB4206E4E00C9800286ED095
:102C2000A8EB040AA7EB050B1FFA8AF31FFA8BF235
:102C300041463846CDF8009000F0E4F8781982B2A9
:102C400008901FFA8AF34146CDF80090384600F00C
:102C5000D9F808EB050083B20790381B82B20690C2
:102C6000CDF800904146384600F0CCF81FFA8AF3C0
:102C70001FFA8BF241463846CDF8009000F0C2F8BA
:102C80000698A8EB050A82B21FFA8AF3CDF80090E5
:102C90004146384600F0B6F808EB0400CDF8009045
:102CA00083B205900898414682B2384600F0AAF8EF
:102CB0001FFA8AF307EB040A1FFA8AF241463846E4
:102CC000CDF8009000F09EF80798CDF8009083B200
:102CD0001FFA8AF24146384600F094F8CDF8009089
:102CE00005981FFA8BF283B24146384600F08AF805
:102CF000641C002E04DA06EB8406B61D05E010E025
:102D0000601B06EB80060A366D1E08EB050083B2D9
:102D1000381982B241463846CDF8009000F072F87A
:102D200060E0A8EB040AA7EB050B1FFA8AF11FFA73
:102D30008BF04A4600F05CF8781904901FFA8AF18B
:102D400080B24A4600F054F808EB050081B20390C7
:102D5000381B029080B24A4600F04AF81FFA8AF106
:102D60001FFA8BF04A4600F043F80298A8EB050AD8
:102D70001FFA8AF180B24A4600F03AF808EB0400E4
:102D800081B2019004984A4680B200F031F81FFAEF
:102D90008AF107EB040A1FFA8AF04A4600F028F885
:102DA00003984A4681B21FFA8AF000F021F8019890
:102DB0004A4681B21FFA8BF000F01AF8641C002E0C
:102DC00003DA06EB8406B61D04E0601B06EB800602
:102DD0000A366D1E08EB050081B2381980B24A46EA
:102DE00000F006F8AC427FF718AF0DB0BDE8F08FE9
:102DF00007B50B46024600F005FA012102A800F0D3
:102E00006BFB0EBD2DE9FE4F00250026171AA3EB24
:102E1000010881468A46681E002F03DD4FF001013C
:102E2000019107E003D14FF00001019102E0019010
:102E3000C7F10007B8F1000F03DD4FF0010000906B
:102E400007E003D14FF00000009002E00090C8F1CD
:102E50000008474501DD3C4600E044464FF0000BCA
:102E6000601C029016E01FFA8AF11FFA89F00C9A92
:102E7000FFF7BEFF3D444644A54202DD2D1B0198ED
:102E80008144A64202DD361B009882440BF1010BFF
:102E90001FFA8BFB02988345E5DBBDE8FE8F2DE929
:102EA000F8430646089C884617461D462B46324680
:102EB000414630460094FFF7A5FF43463A46414657
:102EC00030460094FFF79EFF2B463A46414638466F
:102ED0000094FFF797FF2B463A4629463046009468
:102EE000FFF790FFBDE8F8832DE9F0470446DDF8D1
:102EF00020900E4690469A4653464246314620461A
:102F000000F080F9104F3868416E2C2088473868EF
:102F1000818D806A41610025AAEB0606A8EB0408B2
:102F200009E0002404E03868816E48468847641C44
:102F3000A642F8D26D1CA845F3D23868818D806A0C
:102F40000161BDE8F08700000401002010B50028F1
:102F500044D0234C20602168B1F85020B1F85210C1
:102F60008A4204D14FF6FF725140A0F850104FF43E
:102F7000487120F8401F4FF4F071418019490162F7
:102F800019498163194901641949416419498164E6
:102F90001949C16419490165194941651949816592
:102FA0001949C1651949016619494166416A4038A4
:102FB00009B918494166816E09B917498166C16E20
:102FC00009B91649C16600F03DF82068B0F8520012
:102FD000FFF7ECFD206881880068016110BD0000EA
:102FE00004010020053200084530000821300008A7
:102FF000F12D0008052E0008012C00089F2E000866
:10300000E92E0008AD2B0008F53100082533000833
:10301000E133000815350008BD340008B934000854
:1030200008B50020064B0246009003211803FEF766
:10303000EFFD0021BDE80840102000F03DBA00007F
:103040000000144010B56A4C2068826A818D51617D
:10305000416EE22088472068816E232088472068DF
:10306000816E012088472068816E0420884720688F
:10307000416EE02088472068816E012088472068E3
:10308000416EE02088472068816E032088470A202F
:10309000FEF796FB2068416E012088472068416E4C
:1030A000E62088472068816E032088472068816E6B
:1030B000FF2088472068816EFF2088472068416E86
:1030C000B02088472068816E002088472068816E84
:1030D000002088472068816E032088472068816E21
:1030E0001F2088472068816E012088472068816EF4
:1030F000DF2088472068816E002088472068416E65
:10310000B42088472068816E032088472068816E3C
:10311000A02088472068816E002088472068816E43
:103120002E2088472068816E302088472068816E75
:10313000002088472068816E0F2088472068816EB4
:10314000002088472068416EB62088472068816E3D
:10315000022088472068816E0D2088472068816E94
:10316000002088472068816E102088472068816E83
:10317000102088472068816E002088472068816E73
:10318000082088472068416EB82088472068816EF3
:10319000072088472068816E012088472068416E9B
:1031A000BA2088472068816E052088472068416ED4
:1031B000362088472068816E002088472068416E4D
:1031C000F02088472068816E032088472068416E80
:1031D000292088472068416ED02088472068816E6A
:1031E0000D2088472068818D806A016110BD000034
:1031F0000401002002490968A1F85200FFF7D6BC7B
:10320000040100202DE9F041444E346894F85C70CC
:10321000B4F840C0B4F84250002F56D0012F5DD012
:10322000022F68D024F8441F6380A080E2802381AD
:10323000608122253A4C2068416E2A2088473068F8
:103240002168B0F84400896E000A88472168306818
:10325000896EB0F84400884730682168B0F84600AD
:10326000896E000A884721683068896EB0F8460088
:1032700088472068416E2B20884730682168B0F865
:103280004800896E000A884721683068896EB0F866
:103290004800884730682168B0F84A00896E000A03
:1032A000884721683068896EB0F84A0088472068EE
:1032B000416E362088472068816E284688472068FE
:1032C000416EBDE8F0412C20084724F8440F62808D
:1032D000A180E380208161810025ABE724F8441FB1
:1032E0006380AA1A521EA280281A401EE080218103
:1032F0006081A0259EE7ACEB0202521E24F8442F09
:10330000ACEB0000401E6080EA1A521EA280691ACF
:10331000491EE18020816181C0258BE70C010020DE
:10332000040100202DE9F05F9046DDE90ABA1F464E
:10333000002400EB5802521E92B201EB08035B1E00
:103340009BB2FFF75FFFDFF89490D9F80000416E61
:103350002C208847D9F80000818D806A416134E0D3
:103360001AF804600025300601D5384603E0D9F884
:103370000000B0F85200D9F80010896E8847700636
:10338000060E6D1CEDB2082DEDD3B8F1180F02D06A
:10339000B8F10C0F17D10AEB04004678002530066F
:1033A00001D5384603E0D9F80000B0F85200D9F84A
:1033B0000010896E88477006060E6D1CEDB2042D54
:1033C000EDD3641CE4B2641CE4B25C45C8D3D9F804
:1033D0000000818D806A0161BDE8F09F040100203A
:1033E0002DE9F05F9146DDE90ABA1F46002400EBA3
:1033F0000902521E92B201EB09035B1E9BB2FFF75A
:1034000001FFDFF89080D8F80000416E2C2088473B
:10341000D8F80000818D806A416131E01AF80460BB
:103420000025300601D5384603E0D8F80000B0F892
:103430005200D8F80010896E88477006060E6D1C81
:10344000EDB2082DEDD3B9F10C0F17D10AEB040042
:1034500046780025300601D5384603E0D8F800004C
:10346000B0F85200D8F80010896E88477006060E32
:103470006D1CEDB2042DEDD3641CE4B2641CE4B207
:103480005C45CBD3D8F80000818D806A0161BDE82E
:10349000F09F00000401002010B5064C21688A8BC3
:1034A00089694A6100F00AF82068818B80690161AE
:1034B00010BD00000401002000F03CB80549096877
:1034C0000B6A8A8C5A618A6BD060888C096A0861A1
:1034D00070470000040100202DE9F04106460F4628
:1034E00000240B4D2868826A818D5161416E3C2019
:1034F000884705E0296836F814008A6E9047641CF6
:10350000BC42F7D32868818D806A0161BDE8F081F3
:103510000401002010B5064C21688A8D896A4A6131
:10352000FFF7BAFF2068818D806A016110BD00003D
:103530000401002030B50D46074C2268938D926A35
:103540005361FFF7A9FF2846FFF7B8FF2068818D78
:10355000806A016130BD0000040100207047FEF761
:10356000B3BD704700F06AB810B504002BD0164800
:10357000FEF738FE4FF0E021086920F002000861F4
:10358000086920F001000861086920F00400086162
:103590000D480E4A0068B0FBF2F0604348610869CC
:1035A00040F002000861086940F001000861002055
:1035B0008861086940F0020008614A6904480260B5
:1035C000096989B2416010BD6C1C002000127A00AC
:1035D0005400002010B504002BD01648FEF702FE60
:1035E0004FF0E020016921F002010161016921F041
:1035F00001010161016921F0040101610D494FF4EC
:10360000FA520968B1FBF2F14161016941F001012F
:1036100001610022826181690029FCD08169002951
:10362000FCD1641EF7D104490B684361826149688B
:10363000016110BD6C1C00205400002000F0DCBAB9
:10364000704770477047704710B500F04DF9BDE8FE
:1036500010400121014800F02EB80000002C01406C
:1036600010B500F041F90121BDE81040880700F0D5
:1036700022B8000010B500F037F9BDE81040012174
:10368000014800F018B800000004004000F02CB918
:1036900070477047704770477047704700F024B913
:1036A0000029018802D041F0800102E040F27F321F
:1036B000114001807047C943018270470029018889
:1036C00002D041F0010102E040F2FE3211400180DF
:1036D0007047002930F8441F02D041F4004101E056
:1036E000C1F30E010180704730B5028C22F0010257
:1036F0000284028C8388048B22F0020224F070057D
:103700000C882C430D8915434A882A43CD88858629
:103710000B4DA84202D00B4DA8420DD122F0080556
:103720004A8923F403432A4322F004058A882A4362
:103730008D891D43CB892B4383800483028430BD54
:10374000002C014000340140028B22F008020A43A1
:103750000283704770B5028C22F010020284028C42
:103760008388048B0D8824F4E0464FF6FF7404EA46
:10377000052535430E8922F0200204EA0616164379
:103780004A8804EA02123243CE8806870F4EB042BE
:1037900002D00F4EB04215D122F080064A8923F4A0
:1037A0000C4304EA0212324322F040068A8804EAFB
:1037B000021232438E89C98904EA86061E4304EA4E
:1037C0008103334383800583028470BD002C014054
:1037D00000340140028B4FF6FF7322F4006203EACB
:1037E000012111430183704770B5028C22F480726D
:1037F0000284028C8388848B0D8824F07004254316
:103800000E894FF6FF7422F4007204EA062616436E
:103810004A8804EA02223243CE8886870F4EB0429D
:1038200002D00F4EB04215D122F400664A8923F42B
:10383000304304EA0222324322F480668A8804EA92
:10384000022232438E89C98904EA06161E4304EA1D
:103850000113334383808583028470BD002C0140B3
:1038600000340140828B22F008020A4382837047B1
:1038700070B5028C22F480520284058C8288838B7E
:103880000C8823F4E0464FF6FF7303EA0424344324
:103890000E8925F4005503EA06362E434D8803EAC7
:1038A00005353543CE88A0F84060084EB04202D0BE
:1038B000074EB04205D18989C2F30D0603EA811291
:1038C000324382808483058470BD0000002C014057
:1038D00000340140828B4FF6FF7322F4006203EA4A
:1038E000012111438183704700F086B9028802F0FC
:1038F0008F020280CA884B881A4303881A430280C9
:103900008A8882850A88028501228282044A90423E
:1039100002D0044A904201D1097A01867047000022
:10392000002C01400034014000F066B900F064B999
:1039300070B51D4D40F226642146284600F0CFF8B0
:10394000B0B12146284600F074F8284601F04EF840
:1039500070B1284600F08EFE040024D0002101F052
:10396000DDF80121204601F0C9F8284601F0C8F928
:1039700040F224442146284600F0B1F8002812D035
:103980002146284600F055F8284601F02FF8002877
:1039900009D0284600F06EFE002804D02846BDE875
:1039A000704001F033B970BD0038014070B51D4D55
:1039B00040F226642146284600F091F8B0B1214635
:1039C000284600F036F8284601F010F858B128468D
:1039D00000F050FE040023D0002101F09FF80121E7
:1039E000204601F08BF8284601F08AF940F2244481
:1039F0002146284600F073F8002811D021462846B9
:103A000000F017F8284600F0F1FF20B1284600F03A
:103A100031FE002804D02846BDE8704001F0F6B819
:103A200070BD00000044004000F0E6B8C9430180CA
:103A300070470A0A01219140C9430180704700295B
:103A4000818902D041F4005101E021F400518181CB
:103A50007047002A828A01D00A4300E08A438282AA
:103A600070470000184A10B5811A131590421BD0F8
:103A700007DC1649401814D0984223D101210402D2
:103A800017E0994213D0B1F56C4F1BD101218C0383
:103A90002046FEF707FB2046BDE810400021FEF758
:103AA00001BB01214C0404E00121CC0401E001210F
:103AB0000C052046FEF7DEFA2046BDE81040002146
:103AC000FEF7D8BA10BD0000004C004000BCFFBF9C
:103AD0000246002012880A4200D00120704770B5CB
:103AE00001F01F0501260024C1F3421306FA05F276
:103AF000012B0FD0022B0FD0838A4FEA11210088AF
:103B0000134206FA01F600EA060001D000B10124D2
:103B1000204670BD8389F0E7038AEEE710B5C1F354
:103B2000421301F01F040121A140012B07D0022BF9
:103B300007D01430002A026805D00A4304E00C3094
:103B4000F8E71030F6E78A43026010BD30B504464E
:103B5000008A85B00D464CF6FF710840E9880143A4
:103B60002182A0894EF6F3110840A9882A891143C1
:103B70006A8902431143A181A08A4FF6FF410840A0
:103B8000A9890143A1826846FEF72CFB11488442B3
:103B900001D1039800E00298642200EBC00101EB20
:103BA000001029686FF018058900B0FBF1F0B0FB38
:103BB000F2F109010B096B4300EB8300322303EBA5
:103BC0000010B0FBF2F000F00F000843208105B0B8
:103BD00030BD0000003801407047704770477047A3
:103BE000FEE710B5FDF7D9FCFFF7BBFCFCF7ACFE18
:103BF000BDE81040FCF7AEBD10B5FDF7A1FFBDE874
:103C00001040FCF7EBBD70477CB5491E1C461546BD
:103C1000CDE90001044B6A462146284600F0C8F869
:103C2000009A002111707CBDDF44000802E008C842
:103C3000121F08C1002AFAD170477047002001E026
:103C400001C1121F002AFBD1704700002DE9FF5F60
:103C5000DDE90220010DDDF838B0024318D044F64A
:103C60001050A1F2FF3141430D140F98012820D0CC
:103C7000A5EB0B00401C5FEA000A4FF00004474E22
:103C8000DFF81C91A046504616D5CAF1000728E07F
:103C90000F98012443A2012808D0002100980F9B0F
:103CA000C0E90021C0E90243BDE8FF9F6FEA0B01B4
:103CB000F4E7CBF10000DEE7074612E0F80707D093
:103CC0002246334640464946FCF70BFB8046894670
:103CD0002246334610461946FCF703FB04460E46BF
:103CE0007F10002FEAD1DDE90201BAF1000F424650
:103CF0004B4602DAFCF7F5FA01E0FCF764FB0446F8
:103D00000E460022284BFCF70BFC03D84FF0FF3087
:103D1000014607E00022254B20463146FCF73AFADF
:103D2000FCF7EBFC102409E0002C0ADB0A2200233C
:103D3000FCF724FC019B30321A55641E50EA010244
:103D4000F2D1641C019AC4F1110314440F9A012AA0
:103D500003D0012208430DD10AE0084304D000201B
:103D60004FF0110B0F9080E7A3EB0B056D1E0DE0DC
:103D70005B4504DD4FF0000205F1010504E003DAC4
:103D80004FF00002A5F10105002AECD000980F9930
:103D9000C0E90231C0E9004586E700000000244088
:103DA0000000F03F300000000000F0430000E03F62
:103DB0002DE9FF4F95B09B468946064600250FE248
:103DC000252877D100242746F84A0121059400E0F0
:103DD000044316F8013F203B01FA03F01042F7D1EB
:103DE00030782A2811D06FF02F033078A0F13002FC
:103DF000092A16D8059A44F0020402EB820203EB6A
:103E000042021044761C0590EFE759F8042B059206
:103E1000002A03DA504244F40054059044F00204AE
:103E2000761C30782E2816D116F8010F44F00404C1
:103E30002A280DD06FF02F023078A0F13003092B23
:103E400009D807EB870302EB4303C718761CF3E797
:103E500059F8047B761C30786C280FD006DC4C288F
:103E600017D068280DD06A2814D104E0742810D027
:103E70007A280FD10DE044F400140AE044F48014D1
:103E800001E044F440147278824202D104F58014B7
:103E9000761C761C307866280BD013DC582877D037
:103EA00009DC002875D04528F6D04628F4D04728EC
:103EB0001AD19DE118E0632835D0642879D06528AF
:103EC00012D195E1702873D008DC6728F1D06928F9
:103ED0006FD06E280DD06F2806D1B5E073282CD096
:103EE000752875D0782874D05A46179990476D1C5C
:103EF00075E1C4F30250022809D003280DD0D9F887
:103F0000001004280DD00D6009F1040967E1D9F80B
:103F10000010EA17C1E90052F6E7D9F800100D8049
:103F2000F2E70D70F0E719F8041B8DF8001000207F
:103F30008DF80100EA46012003E059F804AB4FF088
:103F4000FF3061074FF0000102D40DE008F10101DC
:103F50008846B9420FDA8045F8DB1AF808100029C4
:103F6000F4D108E008F1010188468142FADB1AF831
:103F700008100029F6D105985B46A0EB08072146FA
:103F80003846179A00F094FA284400EB080507E039
:103F90004DE029E10DE01AF8010B5A4617999047B8
:103FA000B8F10108F7D25B4621463846179A13E16B
:103FB00042E00A220092C4F302524FF0000A022AA1
:103FC00008D059F804CB032A4FEAEC710AD00DE06F
:103FD00029E02AE009F1070121F00702F2E802C115
:103FE000914609E00FFA8CFC4FEAEC71042A03D1E8
:103FF0004FFA8CFC4FEAEC71002907DA0A460021DF
:10400000DCF1000C61EB02012D2202E0220504D557
:104010002B228DF80420012203E0E20701D02022A8
:10402000F7E7904659E00A2102E010220DE0102146
:104030004FF0000A00910BE010224FF0000A44F00C
:1040400004040827009203E008224FF0000A0092BF
:10405000C4F30252022A05D059F804CB0021032AE6
:1040600008D009E009F1070121F00702F2E802C1D6
:10407000914605E01FFA8CFC042A01D10CF0FF0CDC
:104080004FF00008220728D5702806D0009B83F047
:10409000100353EA0A0305D00EE040228DF80420F5
:1040A000012208E05CEA010206D030228DF80420EB
:1040B0008DF8050002229046009B83F0080353EA26
:1040C0000A030AD15CEA010201D1620705D5302258
:1040D0008DF804204FF001087F1E582804D034A02A
:1040E00003900EA802900DE036A0F9E75346604613
:1040F000009AFCF743FA84460398825C0298401EBB
:10410000029002705CEA0100F0D1029806A9081A38
:1041100000F1200A600702D524F4803400E0012772
:10412000574502DDA7EB0A0000E0002000EB0A0182
:10413000009005984144401A0590E00306D45B4680
:104140002146179A059800F0B3F90544002706E0C8
:1041500001A85A46C05D179990476D1C7F1C4745C2
:10416000F6DBE0030CD55B462146179A059800F074
:104170009FF9054404E030205A46179990476D1C7A
:104180000099481E00900029F5DC08E00298029989
:104190005A460078491C0291179990476D1CBAF154
:1041A0000001AAF1010AF1DC65E100000928010023
:1041B000303132333435363738396162636465669D
:1041C000000000003031323334353637383941425F
:1041D000434445460000000000F058F90544761CB1
:1041E000307800287FF4ECAD19B02846BDE8F08F98
:1041F000620700D4062709F1070222F0070CFCE849
:104200000223E14603F000485FEA080C02D00FF2F7
:10421000702C0DE05FEA045C02D50FF2682C07E019
:104220005FEAC47C02D00FF2602C01E0AFF2700CA8
:104230004FF0FF3823F00043CDF850C065280CD074
:1042400006DC452809D046281DD047283DD13DE051
:10425000662818D067287ED138E00021112F01DBB5
:10426000112000E0781CCDE9000106A90EA8FFF797
:10427000EDFCDDE90F010E9A03910021009207F198
:10428000010A04914DE04FF000400097CDE9011084
:1042900006A90EA8FFF7DAFCDDE90F0203920E9BD8
:1042A00011990022DDF80CA00093049211B9791C39
:1042B00000EB010AB7EB0A0004D4C0F1FF3007F1AC
:1042C000010A0490AAEB0700019044E0012F00DAF4
:1042D00001270021112F01DD112000E03846CDE932
:1042E000000106A90EA8FFF7B1FCDDE90F010E9A47
:1042F0000391002104910092BA4621070CD403993E
:10430000514500DA8A46BAF1010F05DD009AAAF19B
:104310000101515C302908D0B84202DA10F1040FD3
:1043200006DA0121CDE9011015E0AAF10101E9E762
:10433000002805DC049901440491AAEB000102E085
:10434000411C514500DD8A460499401A401C0190E9
:104350004FF000400290200704D40198504501DB43
:10436000CDF8048000208DF84F0002980DF14F0722
:10437000B0F1004F25D02B200E9002984FF002088C
:1043800000280CDA404202902D200E9007E00A210E
:104390000298FCF7DDF83031029007F8011DB8F102
:1043A0000001A8F10108F2DC02980028EFD1791E83
:1043B0000E980870307800F0200040F0450007F8B3
:1043C000020D12A8C01B00F107081498007800B174
:1043D000012000EB0A01019801EBE07105984144CE
:1043E000401A401E0590E00306D45B462146179A0A
:1043F000059800F05DF805441498007818B15A4605
:10440000179990476D1CE00324D55B462146179A07
:10441000059800F04DF805441CE00498002807DBDF
:10442000DDE90301884203DD0098405C179901E053
:10443000179930205A469047049805F10105401C11
:1044400004900198401E019004D12E205A461799DD
:1044500090476D1CBAF10001AAF1010ADDDC05E00C
:1044600017F8010B5A46179990476D1CB8F10001D7
:10447000A8F10108F4DC5B462146179A0598ABE6E3
:104480002D0000002B000000200000002DE9F0416D
:10449000044600251E461746880404D405E0394624
:1044A0002020B0476D1C641EF9D52846BDE8F08178
:1044B0002DE9F041044600251E469046C80301D56B
:1044C000302700E02027880404D505E0414638461F
:1044D000B0476D1C641EF9D52846BDE8F0814A68D6
:1044E000002A06D00A68531C0B6010704868401EF2
:1044F0004860704770B5044615460E46006800F0E7
:104500002DFD3146206800F0ADFD2946206800F001
:104510005BFC0121206800F025FC204600F0CAFA6F
:10452000606810B12189FCF733FCE06810B1218A82
:10453000FCF72EFC606910B1218BFCF729FC0021EF
:10454000204600F0EBFA2046BDE87040012100F063
:10455000D5BA70B5046805460E46204600F0E6F967
:1045600050B10021284600F0D9FA0121284600F078
:10457000C5FA204600F04CF8204600F04FF900281C
:1045800005D031462046BDE8704000F0E7B870BD68
:104590002DE9F041044615460E460027006800F05C
:1045A000C5F988B1206800F039F968B101212046C9
:1045B00000F0B4FA0021204600F0A0FA2A46314665
:1045C000206800F055FB07463846BDE8F08170B51D
:1045D00016460C46054600F0C1FC2146284600F070
:1045E00041FD31462846BDE8704000F0EDBB70B596
:1045F00014460D46064600F099F9002806D02246DA
:1046000029463046BDE8704000F032BB70BD000066
:10461000124A1349904203D10A7822F001020A702B
:10462000104A904203D10A7822F002020A700E4A20
:10463000904203D10A7822F004020A700B4A904299
:1046400003D10A7822F008020A70094A904203D185
:10465000087820F0100008700020704700380140F2
:104660005D0000200044004000480040004C004035
:104670000050004010B5044600F0B8F9002804D0FE
:104680000C490D488C4201D1006810BD0B498C4289
:1046900001D1406810BD0A498C4201D1806810BD2B
:1046A00008498C4201D1C06810BD07498C42FBD13A
:1046B000006910BD00380140402500200044004042
:1046C00000480040004C0040005000400B4A0C499C
:1046D000904201D1088870470A4A904201D1488827
:1046E0007047094A904201D188887047074A904232
:1046F00001D1C88870470020704700000038014091
:10470000600000200044004000480040004C004091
:104710000A49884201D10A4870470A49884201D1B2
:10472000094870470949884201D109487047094939
:10473000884201D108487047002070470038014086
:10474000801C002000440040981D002000480040CC
:10475000B01E0020004C0040C81F00202DE9F0478B
:1047600089461B49074688422FD000282BD0FFF7E7
:10477000CFFF80463846FFF7A9FF0646384600F0CF
:1047800029F804464068301A05042D0C1DD0206815
:1047900020F0010020602A4641464846FBF7D6FC3F
:1047A000C4F80C806660206840F0010020604FF67D
:1047B000EF7038800021384600F0C0F931463846A5
:1047C00000F0FCF92846BDE8F0870020FBE7000078
:1047D000005000400B49884201D10B4870470B49FB
:1047E000884202D10848143070470949884202D1F2
:1047F0000548283870470749884201D10648704764
:10480000002070470038014058000240004400403A
:1048100000480040004C0040300402402DE9F041C7
:104820000446FFF753FF06462046FFF7D3FF4068D4
:10483000102185B22046FFF74BF920B11021204608
:10484000FFF7F4F837E0ADB3B54234D03ED220489C
:10485000204B2149214A224E844201D11B880CE081
:104860008C4201D15B8808E0944201D19B8804E02E
:10487000B44201D1DB8800E00023164F08378442A0
:1048800001D13A880CE08C4201D17A8808E0944248
:1048900001D1BA8804E0B44201D1FA8800E00022D4
:1048A0009D420BD1022A06D8521C91B2204600F03C
:1048B00045F90BE0FFE70120BDE8F081002120462B
:1048C00000F03CF92946204600F078F90020F3E793
:1048D00000380140680000200044004000480040CB
:1048E000004C00400B49884201D10B4870470B49EE
:1048F000884202D108483C3070470949884202D1B9
:104900000548283870470749884201D10648704752
:10491000002070470038014044000240004400403D
:1049200000480040004C00405804024070B5054665
:1049300029482A49854201D10C880FE0284A95422E
:1049400001D14C880AE0274A954201D18C8805E0C4
:10495000254A954201D1CC8800E000242846FFF783
:10496000C1FF064640212846FFF7B2F880B100217A
:10497000284600F003F900213046FBF765FF40218F
:104980002846FFF753F880212846FFF74FF805E047
:104990003068C00702D0706810B10DE0012070BD12
:1049A00080212846FFF794F830B1022C06D2641C0F
:1049B000A1B2284600F0E2F8002070BD0021304688
:1049C000FBF742FF80212846FFF730F800212846F8
:1049D00000F0D4F8E2E70000003801407800002041
:1049E0000044004000480040004C004010490F4A7D
:1049F0000978904202D101F0010070470D4A9042BF
:104A000002D1C1F3400070470B4A904202D1C1F37A
:104A100080007047094A904202D1C1F3C00070473C
:104A2000074A9042FBD1C1F30010704700380140A3
:104A30005C0000200044004000480040004C004062
:104A400000500040FFF7CDF8FDF77AF8FCE70000D2
:104A50002DE9F047164E804691460F4600243068F7
:104A6000FDF76FFF4546032040EA15613068FEF709
:104A700063F8C5F307413068FEF75EF8C5F3072118
:104A80003068FEF759F8E9B23068FEF755F806E0ED
:104A9000FF213068FEF750F809F80400641CBC429E
:104AA000F6D33068FDF749FFB8B2BDE8F0870000E3
:104AB000800000200B4B01680B4A994200D1106026
:104AC0000A4B994200D15060094B994200D1906045
:104AD000084B994200D1D060074B994200D1106138
:104AE000704700000038014040250020004400408D
:104AF00000480040004C004000500040426922B194
:104B0000038B09B1536100E013614268002A02D0AF
:104B1000008909B15061704710617047C26822B1C5
:104B2000038A09B1136100E053614268002A02D090
:104B3000008909B110617047506170470A4B0B4AF8
:104B4000984201D111800DE0094B984201D151806A
:104B500008E0084B984201D1918003E0064B98424F
:104B600000D1D18008467047003801407000002015
:104B70000044004000480040004C00400A4B0B4AF3
:104B8000984201D111800DE0094B984201D151802A
:104B900008E0084B984201D1918003E0064B98420F
:104BA00000D1D180084670470038014078000020CD
:104BB0000044004000480040004C00404FF48C721C
:104BC000914200D911460C4B0C4A984201D11180F8
:104BD0000DE00B4B984201D1518008E0094B9842FF
:104BE00001D1918003E0084B984202D1D180084660
:104BF0007047002070470000003801406800002026
:104C00000044004000480040004C0040124A134954
:104C1000904203D10A7842F001020A70104A904291
:104C200003D10A7842F002020A700E4A904203D180
:104C30000A7842F004020A700B4A904203D10A78C3
:104C400042F008020A70094A904203D1087840F005
:104C50001000087000207047003801405E000020FE
:104C60000044004000480040004C0040005000401C
:104C70002DE9F041154688460446FFF727FD074613
:104C80001748844201D1174E0FE017498C4201D1D9
:104C9000164E0AE016498C4201D1164E05E016491F
:104CA0008C4201D1154E00E000262046FFF71AFE87
:104CB0000446BD4202D90020BDE8F0812A464146A3
:104CC0003046FBF743FA206820F001002060656061
:104CD000E660206840F0010020602846ECE7000014
:104CE00000380140E020002000440040F82100206E
:104CF0000048004010230020004C004028240020E1
:104D0000124A1349904203D10A7842F001020A7014
:104D1000104A904203D10A7842F002020A700E4A09
:104D2000904203D10A7842F004020A700B4A904282
:104D300003D10A7842F008020A70094A904203D16E
:104D4000087840F0100008700020704700380140DB
:104D50005D0000200044004000480040004C00403E
:104D600000500040124B134A984203D1137861F36C
:104D700000031370104B984203D1137861F3410381
:104D800013700E4B984203D1137861F382031370B2
:104D90000B4B984203D1137861F3C3031370094B93
:104DA000984203D1107861F304101070704700002E
:104DB000003801405C0000200044004000480040F2
:104DC000004C0040005000402DE9F04F8DB00C46E3
:104DD0000546FFF79DFC06464FF48C700CB18442EB
:104DE00000D9044655495648DFF85881DFF85891F4
:104DF000564F8D4201D104800CE0454501D14480DD
:104E000008E04D4501D1848004E0BD4201D1C48059
:104E100000E00024A2462846FFF764FD0B902846D8
:104E2000FFF7D8FC0C90002E7BD00B98002878D090
:104E30000C98002875D0E81B4FF48061BD420ED05D
:104E400005DC4348281807D088420CD104E088428A
:104E500067D0B0F56C4F06D10121084601E0012171
:104E60000220FDF7EFF800241020CDE90204802095
:104E7000CDE9044005F1040B069480010A94CDE9C4
:104E80000840CDE900B6079469460B98FBF7FEFC95
:104E9000CDF800B0CDF80CA0CDE901648020CDE9BB
:104EA00004408001CDE908400794069469460A94BD
:104EB0000C98FBF7EBFC00210B98FBF7C5FC0121DC
:104EC0000C98FBF7C1FC012240212846FEF7C1FDEA
:104ED000012280212846FEF7BCFD002202210B980A
:104EE000FBF7CCFC154CA54201D1A0140BE04545C5
:104EF00002D14FF0807006E04D4501D1102002E054
:104F0000BD4202D11348FBF793FCA54203D14FF4F5
:104F1000803004E005E0454506D14FF48010FBF7F2
:104F200087FC0DB0BDE8F08F4D4502D14FF4807085
:104F3000F5E7BD42F5D10848F1E70000003801402F
:104F4000600000200044004000480040004C004049
:104F500000BCFFBF00000110000100102DE9F84364
:104F60000025394ADFF8E4C0811ADFF8E480131520
:104F70002C462F462E464FF4006990424ED019DC45
:104F8000344940183FD0984226D1334F01213E4644
:104F90001D464C460846FDF779F801212F48FBF7DE
:104FA000FBFF01210820FDF771F801218804FDF7BE
:104FB00055F811E099423CD0B1F56C4F0CD16746E1
:104FC00066464FF400751C4601210520FDF75EF88A
:104FD00001218803FDF75AF8ADF8005018208DF82C
:104FE000030003208DF8020069463846FBF784FF72
:104FF000ADF8004048208DF8030069463046FBF7C5
:105000007BFFBDE8F8830425674666460824012136
:105010002846FDF73BF801214804C8E747464646C5
:105020001D464C4601211120FDF730F80121C8042E
:10503000BDE747460A4E1D46042401213120FDF7F5
:1050400025F801210805B2E7004C004000080140A6
:105050000010014000BCFFBF000C01400002300006
:10506000001401407FB50C460546FEF7FBFC00210D
:10507000ADF80810ADF804100C20ADF80610ADF82E
:105080000A00ADF80C10009469462846FEF75EFD54
:1050900040F22444002221462846FEF73FFD2146E7
:1050A0002846FEF7C6FC01212846FEF7C8FC7FBD56
:1050B00002040608000000000102030401020304C8
:1050C000060708091F1C1F1E1F1E1F1F1E1F1E1F55
:1050D000F0500008000000201C0100002C3C0008DB
:1050E0000C5200081C0100203C2800003C3C000839
:1050F0000000000000000000000000002000200070
:1051000000F800F8000000000000000000000000AF
:105110000000000000000000000000007E09030104
:105120000101010157295184F37F7E090301010127
:105130000100000000C4F67F000000000000000035
:10514000000000000000000000000000000000005F
:10515000000000000000000000000000000000004F
:10516000000000000000000000000000000000003F
:1051700000000000FF000000000000000000000030
:10518000000000000000000000000000000000001F
:10519000000000000000000000000000000000000F
:1051A00000000000000000000000000000000000FF
:1051B00000000000FF0000000000000000000000F0
:1051C00000000000000000000000000000000000DF
:1051D00000000000000000000000000000000000CF
:1051E00000000000000000000000000000000000BF
:1051F00000000000000000000000000000000000AF
:0C520000000000000000000000000000A2
:0400000508000131BD
:00000001FF
