:020000040800F2
:100000005826002045010008E70A0008910A000868
:10001000E50A0008750500085B18000800000000EC
:100020000000000000000000000000003513000880
:100030007706000800000000DD0E00083D130008F0
:1000400081180008E90A00081D140008F1120008D0
:100050006D0800084D1100087906000881060008A7
:1000600085060008890600088D0600087B05000843
:100070007F05000883050008870500088B05000838
:100080008F050008930500081D0500085718000893
:10009000591800087705000879050008910600083E
:1000A0001F14000825140008231400082114000858
:1000B0003D1400085114000869140008970A00084C
:1000C000950A00089B0A0008990A00082F130008E7
:1000D000311300080D1700088917000805180008DB
:1000E0007D060008E1110008551800087314000887
:1000F0007914000877140008751400081F0500081B
:10010000A10800082D1300086D140008331300081F
:1001100005170008091700086F140008711400087B
:10012000970500089B0500089F050008A305000827
:10013000DFF80CD000F0E0F900480047B51C0008DB
:100140005826002000480047310100080649074AA8
:100150000868504343F23902104408604008704771
:100160000149086070470000680000206D4EC641DC
:10017000D2B201E000F8012B491EFBD270470022E9
:10018000F6E710B513460A4604461946FFF7F0FF96
:10019000204610BD2DE9FE4F81EA030404F000441F
:1001A00021F0004100944FF0000B23F0004350EA8F
:1001B00001045ED052EA03045BD0C3F30A54C1F3D6
:1001C0000A552C44A4F2F3340194A0FB0254C1F369
:1001D000130141F48011C3F3130343F4801301FBB3
:1001E000024400FB034E840A970A44EA815447EA1A
:1001F0008357A4FB076802958D0A05FB07854FEA24
:10020000932C04FB0C542705029D4FEA065847EA3D
:100210001637B5EB08056EEB070C870E920E47EA12
:10022000811742EA8312A7FB0201B6EB0B0164EBD4
:1002300000042B0D43EA0C335E1844EB1C50DA46E5
:100240005146E7FB0201C5F313044FEA0B3343EABF
:1002500014534FEA0432019C43EA0603A4F10C0450
:100260000294009CCDE900B400F0F8F803B0BDE8BA
:10027000F08F00200146F9E72DE9F04D81EA0304F3
:1002800004F0004B21F0004514464FF0000A23F023
:10029000004150EA050220D054EA01021DD0C5F306
:1002A0000A570246C5F31303C1F31300C1F30A56FC
:1002B00040F4801543F48013A7EB0608101BD646C4
:1002C00008F2FD3873EB050002D308F1010801E0E4
:1002D00092185B41B8F1000F03DA00200146BDE837
:1002E000F08D00204FF48011064684460EE0171B67
:1002F00073EB050705D3121B63EB050306434CEABA
:10030000010C49084FEA300092185B4150EA01079E
:10031000EDD152EA030012D082EA040083EA05011B
:10032000084305D0101BAB4106D20122002306E092
:1003300000224FF0004302E06FF0010253101AEB6D
:1003400006004CEB085110EB0A0041EB0B01BDE835
:10035000F04D00F074B870B521F0004303430CD0A9
:10036000C1F30A550024D5EB040564EB0403D6174A
:10037000AD1AB34102DB0020014670BD201841EBED
:10038000025170BD0EB540F2334102910021CDE91A
:1003900000110A460B4600F061F803B000BDC1F33E
:1003A0000A5210B5C1F3130140F2FF3341F480113A
:1003B0009A4201DA002010BD40F233439A42A2F281
:1003C000334203DC524200F02AF810BD904010BDC9
:1003D00030B5041E71F1000404DB4FF000444042CC
:1003E00064EB0101141E73F1000405DB1C464FF0A1
:1003F0000043524263EB0403994208BF904230BD70
:10040000202A04DB203A00FA02F1002070479140D4
:10041000C2F1200320FA03F3194390407047202AC9
:1004200004DB203A21FA02F00021704721FA02F39E
:10043000D040C2F12002914008431946704710B5E0
:10044000141E73F1000408DA401C41F100019218F7
:100450005B411A4301D120F0010010BD2DE9F04DA0
:1004600092469B4611B1B1FA81F202E0B0FA80F2F5
:1004700020329046FFF7C4FF04460F4640EA0A00C8
:1004800041EA0B0153465A46084313D0114653EA3A
:10049000010019D0C8F140025046FFF7C0FF0546E1
:1004A0000E46504659464246FFF7AAFF084305D07C
:1004B000012004E020463946BDE8F08D00200543C8
:1004C00046EAE0762C4337430A986305E40AA0EB3A
:1004D00008000022FD0A44EA47540A3002D50020F1
:1004E0000146E9E7010510196941DDE908450019F0
:1004F0006941BDE8F04DA2E7064C074D06E0E06813
:1005000040F0010394E8070098471034AC42F6D35A
:10051000FFF712FEB81E0008D81E0008704770478B
:1005200008B500F008FF4FF4FA7000220090064B67
:100530001146000700F0DAFA01F0B2F9BDE8084010
:100540004FF47A7000F0FCBE0000E03F00B5A1B0AF
:1005500080216846FFF713FE05490888421C0A807F
:10056000322803D30020088001F0A0F921B000BD9B
:1005700000000020FEE77047704700F03BB800F035
:1005800039B800F037B800F035B800F033B800F0F3
:1005900031B800F02FB800F02DB800F02BB800F003
:1005A00029B800F027B80000C10002D50249086050
:1005B000704702494860704704040240000002404E
:1005C0000029016802D041F0010101E021F00101A0
:1005D0000160704702460020D10001D5034900E0C8
:1005E00003490968114200D001207047000402400D
:1005F0000000024010B501F03CF91020FFF7EAFFBF
:1006000001281BD04FF480542046FFF7E3FF012858
:100610001AD024032046FFF7DDFF01281BD0124C1F
:100620002046FFF7D7FF01281CD12046FFF7BCFF6B
:100630000E480021BDE81040FFF7C2BF1020FFF7B1
:10064000B3FF00210A48F5E72046FFF7ADFF084851
:1006500000212830EEE72046FFF7A6FF04480021DE
:100660006430E7E710BD00000000011058040240AC
:100670001C0002407047704700F0B0B800F0AEB800
:1006800000F0ACB800F0AAB800F0A8B800F0A6B826
:1006900000F0A4B80149086070470000140401404C
:1006A00010B5012000F08AF8434C18B1208840F0C2
:1006B000010006E0022000F081F820B1208840F01F
:1006C0000200208010BD042000F078F818B12088C6
:1006D00040F00400F5E7082000F070F818B1208819
:1006E00040F00800EDE7102000F068F818B120880D
:1006F00040F01000E5E7202000F060F818B12088F5
:1007000040F02000DDE7402000F058F818B12088C4
:1007100040F04000D5E7802000F050F818B1208864
:1007200040F08000CDE74FF4807000F047F818B13A
:10073000208840F48070C4E74FF4007000F03EF869
:1007400018B1208840F40070BBE74FF4806000F0DF
:1007500035F818B1208840F48060B2E74FF40060AB
:1007600000F02CF818B1208840F40060A9E74FF49D
:10077000805000F023F818B1208840F48050A0E7A2
:100780004FF4005000F01AF818B1208840F40050DF
:1007900097E74FF4804000F011F818B1208840F43A
:1007A00080408EE74FF4004000F008F8002889D020
:1007B000208840F4004084E70C000020064A0146EF
:1007C00000201268044B0A4014331B680B4202D00D
:1007D000002A00D0012070470004014008B5002025
:1007E000ADF80000FFF75CFF01F043F81E48BDF8CC
:1007F000001001800120FFF74DFF0220FFF74AFFA4
:100800000420FFF747FF0820FFF744FF1020FFF701
:1008100041FF2020FFF73EFF4020FFF73BFF8020F5
:10082000FFF738FF4FF48070FFF734FF4FF400708C
:10083000FFF730FF4FF48060FFF72CFF4FF40060AC
:10084000FFF728FF4FF48050FFF724FF4FF40050CC
:10085000FFF720FF4FF48040FFF71CFFBDE8084082
:100860004FF40040FFF716BF0C0000207047000057
:1008700004490A6822F010020A600A6802430A600A
:10088000704700000020024004490A6802F0380264
:100890000A600A6802430A607047000000200240B4
:1008A0007047000070B50C46002852D0294A811AC2
:1008B0001315D614904243D014DC2749274D411814
:1008C0004FF6FF701BD0994227D0B14241D1012190
:1008D000102000F011FB600401D4200439D501215F
:1008E000112008E099422ED0B1422FD0B1F5406FCF
:1008F0002FD101210802BDE8704000F0FDBAA1042B
:1009000005D4610403D4210401D4844202D101211D
:1009100005200AE001210420EDE7210703D4E106C8
:1009200001D4844209D10121092000F0E5FA2846CA
:10093000BDE87040012100F087B801210820DAE706
:1009400001212020D7E701214020D4E70121802088
:10095000D1E770BD0014014000F8FEBF0002300076
:1009600038B50446ADF8001002228DF80220282088
:100970008DF803002046FFF795FF6946204600F0FA
:1009800013F838BD38B50446ADF8001003228DF8D1
:10099000022010208DF803002046FFF783FF6946F0
:1009A000204600F001F838BDF0B50022002849D0FB
:1009B000CC7804F00F03E40601D58C7823430C783F
:1009C0004FF00F0C14F0FF0F4FF0010E1AD0056816
:1009D0000E880EFA02F42640A6420FD196000CFAB9
:1009E00006F725EA070703FA06F5CE783D43282ED9
:1009F00000D14461CE78482E00D10461521C082AEF
:100A0000E6D305600A88FF2A1CD94468002202F157
:100A100008060EFA06F50E882E40AE420ED196005C
:100A20000CFA06F7BC4303FA06F7CE783C43282EAF
:100A300000D14561CE78482E00D10561521C082AAC
:100A4000E5D34460F0BD0000F0B5104D6B68440D77
:100A5000260184B2C0F30157B440C0F30342032F10
:100A600005D0C0020AD503209040834307E06868A0
:100A700023F0706220F07060686002E0A34343F0EE
:100A8000706201B122436A60F0BD000000000140C5
:100A9000FEE770477047704770477047AFF30080BC
:100AA00002494AF6AA200860704700000030004062
:100AB00081070CD16421B0FBF1F201FB120141B9B5
:100AC0004FF4C871B0FBF1F201FB120008B1002035
:100AD00070470120704710B5FFF7E0FFBDE81040F8
:100AE00000F0B7BEFEE77047704700002DE9FF5FDA
:100AF00090B093460025E94A10988946FF24811A50
:100B0000DFF89CA3D3142E46A8462F464FF4806CE2
:100B100090427CD00CDCB0F1804F32D0E1494018DB
:100B20004AD0604564D098425BD1012108207FE023
:100B3000B1F5806F7FD0B1F58E3F03D0B1F5923F14
:100B40004FD17BE00121C80200F0D6F95FEA09002D
:100B500007D0012809D002280BD0B9F1030F71D1B9
:100B60000BE055464FF480743AE055464FF400745C
:100B700036E055464FF4806432E055464FF4006449
:100B80002EE00121084600F0ABF95FEA090007D02A
:100B9000012808D0022809D0B9F1030F52D108E08A
:100BA000554601241CE05546022419E0554604240C
:100BB00016E05546082413E00121022000F090F9C8
:100BC0005FEA090007D0012808D002280AD0B9F14D
:100BD000030F37D109E05546402401E055468024F3
:100BE00004262FE0B04D01241EE0AF4D02241BE08F
:100BF0000121042000F074F95FEA090009D00128FE
:100C00000AD002280BD0B9F1030F1BD10AE00DE086
:100C100011E0A54D402407E0A34D802404E0A24D3F
:100C2000AC1501E0A04D6C1508260BE00121102049
:100C300000F056F906E001212020F9E701214803E0
:100C400000F05AF90121084600F056F9012130461A
:100C500000F052F9ADF8304003208DF83200182032
:100C60008DF833000CA92846FFF79EFE07A800F078
:100C7000D9F98E4C10988E4D84434EF660265A4614
:100C800000202946139BFFF7F7FA8A4BCDE90D01A7
:100C9000FCB109982C46824600221D460D98FFF7AC
:100CA00097FB18D20022844B58461399FFF772FA2B
:100CB00004460D465046FFF765FB22462B46FFF7DC
:100CC000DBFAB04600227D4BFFF7D6FA00227C4BC0
:100CD0001FE00A98DEE7DDE90D0123460022FFF759
:100CE00077FB4FF0000217D22B4658461399FFF7B7
:100CF00051FA04460D465046FFF744FB22462B4668
:100D0000FFF7BAFAB04600226C4BFFF7B5FA0022A3
:100D10006C4BFFF73FFA49E02646234658461399A5
:100D2000FFF756FB45D85046FFF72CFB5A46139B5E
:100D3000FFF7A2FA0122FFF70EFB04460D46002240
:100D4000614BFFF745FB04D84FF4FA6800225F4B74
:100D500028E000225E4B20462946FFF739FB04D8E5
:100D60004FF0C8080022564B1CE00022594B204689
:100D70002946FFF72DFB04D84FF014080022514BF1
:100D800010E00022544B20462946FFF721FB05D8EE
:100D90004FF0020800224FF0804303E04FF00108BB
:100DA0000022334620462946FFF766FAFFF7F7FA96
:100DB00087B2A8F10100ADF81000781EADF814005C
:100DC0000024ADF81640ADF8124004A9109800F0C8
:100DD0007BFC1E9847434FF47A70874203D9B7FBD8
:100DE000F0F080B202E01E9808B101201E90602051
:100DF000ADF800001E98ADF806000120ADF8020025
:100E0000ADF808405FEA090007D001280AD002289F
:100E10000DD0B9F1030F13D10EE06946109800F020
:100E200051FB0DE06946109800F082FB08E069462E
:100E3000109800F0C7FB03E06946109800F006FC2C
:100E40000121109800F033FB5FEA090007D0012868
:100E50000AD002280DD0B9F1030F13D10EE00821FA
:100E6000109800F05FFB0DE00821109800F0A0FB47
:100E700008E00821109800F0E3FB03E00821109837
:100E800000F016FC0121109800F0F8FA01211098EA
:100E900000F002FB14B0BDE8F09F0000001000401D
:100EA0000008014000FCFFBF000C014000000140B1
:100EB0000000F03F0000244000005940004CED408D
:100EC0000000694000003440D012634100409F4060
:100ED00080842E41006AF84040FFEF4070470000D8
:100EE000044A0029D16901D0014300E08143D16166
:100EF0007047000000100240044A0029916901D0A7
:100F0000014300E0814391617047000000100240FE
:100F100070B5002400F068F84FF48035284600F0E2
:100F2000F5F8681E2146641C8142FBD300F03EF9AF
:100F3000012803D0BDE8704000F025B81020FFF76D
:100F400097FC0220FFF7A0FC002000F0D5F800205D
:100F500000F008F94FF4806000F0FAF84FF4E01167
:100F6000284600F00FF9012000F006F9392000F0C2
:100F7000A3F80028FAD0022000F00EF900F0B4F82F
:100F80000828FBD170BD10B500F02EF8012000F04C
:100F9000D7F8202000F090F80028FAD0002000F0C8
:100FA000ABF8002000F0DEF84FF4806000F0D0F8DD
:100FB0000220FFF769FC1020FFF75AFC4FF4601184
:100FC000002000F0DFF8012000F0D6F802E0022057
:100FD00000F0E2F8392000F06FF80028F7D000F0B8
:100FE00083F80828FBD110BD0B48016841F00101CE
:100FF00001604168094A114041600168084A114096
:101000000160016821F480210160416821F4FE0142
:101010004160002181607047001002400000FFF82D
:10102000FFFFF6FE30B5204A5168204B11F00C014D
:1010300003D0042901D0082901D0036011E05168D0
:10104000022301F4701103EB9141536813F4803FC4
:1010500002D053689B0301D5154B00E0134B594355
:10106000016051680F2303EA1111124B5C5C0168A7
:10107000E14041605468072505EA14241C5D21FA0B
:1010800004F48460546805EAD4241B5DD940C1602F
:101090005268032303EA9232064B1B1F9A5CB1FB92
:1010A000F2F1016130BD00000010024000127A0030
:1010B00000093D009C1E0008034600205909094A0A
:1010C00001290AD002290AD0516A03F01F02012324
:1010D00093400B4200D0012070471168F5E7116A78
:1010E000F3E70000001002400248406800F00C00E6
:1010F0007047000000100240034A516821F0F001DF
:101100000143516070470000001002400B490A681B
:1011100022F480320A600A6822F480220A60B0F564
:10112000803F07D0B0F5802F03D1086840F4A0209D
:1011300008607047086840F48030F9E7001002400A
:1011400001490860704700000000424270470000FB
:10115000034A516821F4E061014351607047000087
:1011600000100240034A516821F4605141EAC00076
:101170005060704700100240014908667047000047
:1011800000004242034B5A68084322F47C12104389
:101190005860704700100240034A516821F0030173
:1011A00001435160704700000010024030B50B4C05
:1011B00040F2FF153120FFF77FFF20706068401C70
:1011C0006060207810B96068A842F3D13120FFF741
:1011D00073FF002800D0012030BD00000400002073
:1011E0007047000002490A8882430A807047000065
:1011F000042800402DE9F04700F060F8DFF8AC80EB
:101200000546B0FBF8F32A482A4E018899422CD0B3
:10121000038040F2B2744FF4B7774FF4B6790CE024
:101220002046FFF745FC20B1BB4208D3A3F5B773B6
:1012300001E0A3F26D13641CA4B24B45F0D8B48056
:1012400000241D4F0BE0B088FFF732FC08B1012CE1
:1012500028D0385D984204D81B1A641CA4B21C2BF9
:10126000F1D2641CB4715B1CF371B5FBF8F108FB9F
:1012700011504FF46161B0FBF1F23270B0FBF1F24A
:1012800001FB12033C22B3FBF2F37370B0FBF1F3EA
:1012900001FB1300B0FBF2F102FB1100B070002063
:1012A000BDE8F0871D2BDCD31D3BD6E78051010044
:1012B0000E0000206C000020AC1E000803480088CF
:1012C0000249091F098840EA014070471C28004074
:1012D00006490988C2B21140044A121F128802420C
:1012E00002D009B101207047002070470428004057
:1012F00010B50120FFF7ECFF08B1FFF77BFF0220DC
:10130000FFF7E6FF10B10220FFF76CFF0520FFF7A3
:1013100069FFBDE8104000F001B8000002480188F4
:101320008906FCD5704700000428004070477047CC
:10133000704770477047FFF7EBBD704700F06CB81F
:1013400010B504002BD01648FFF76CFE4FF0E021DB
:10135000086920F002000861086920F001000861B6
:10136000086920F0040008610D480E4A0068B0FBCF
:10137000F2F060434861086940F0020008610869C2
:1013800040F00100086100208861086940F0020017
:1013900008614A6904480260096989B2416010BD68
:1013A0007800002000127A001000002038B54FF0BD
:1013B00000040500009428D01448FFF733FE4FF0D6
:1013C000E021086920F002000861086920F00100AE
:1013D0000861086920F0040008610C480C4A0068A4
:1013E000B0FBF2F068434861086940F00100086111
:1013F0008C6188690028FCD088690028FCD10548E8
:1014000002684A618C614068086138BD780000203C
:1014100000127A001000002000F02BBA70477047CD
:101420007047704710B500F04DF9BDE8104001213C
:10143000014800F02EB80000002C014010B500F06B
:1014400041F90121BDE81040880700F022B80000F2
:1014500010B500F037F9BDE810400121014800F057
:1014600018B800000004004000F02CB97047704725
:10147000704770477047704700F024B90029018811
:1014800002D041F0800102E040F27F321140018041
:101490007047C943018270470029018802D041F09A
:1014A000010102E040F2FE32114001807047002944
:1014B00030F8441F02D041F4004101E0C1F30E01B5
:1014C0000180704730B5028C22F001020284028C48
:1014D0008388048B22F0020224F070050C882C43D0
:1014E0000D8915434A882A43CD8885860B4DA8422D
:1014F00002D00B4DA8420DD122F008054A8923F4F1
:1015000003432A4322F004058A882A438D891D4318
:10151000CB892B4383800483028430BD002C01409F
:1015200000340140028B22F008020A430283704714
:1015300070B5028C22F010020284028C8388048B26
:101540000D8824F4E0464FF6FF7404EA0525354380
:101550000E8922F0200204EA061616434A8804EA9D
:1015600002123243CE8806870F4EB04202D00F4E91
:10157000B04215D122F080064A8923F40C4304EAD4
:101580000212324322F040068A8804EA02123243F1
:101590008E89C98904EA86061E4304EA810333431F
:1015A00083800583028470BD002C0140003401401B
:1015B000028B4FF6FF7322F4006203EA012111430C
:1015C0000183704770B5028C22F480720284028C11
:1015D0008388848B0D8824F0700425430E894FF690
:1015E000FF7422F4007204EA062616434A8804EACD
:1015F00002223243CE8886870F4EB04202D00F4E71
:10160000B04215D122F400664A8923F4304304EA3B
:101610000222324322F480668A8804EA022232439C
:101620008E89C98904EA06161E4304EA011333436E
:1016300083808583028470BD002C0140003401400A
:10164000828B22F008020A438283704770B5028CB5
:1016500022F480520284058C8288838B0C8823F4C8
:10166000E0464FF6FF7303EA042434430E8925F461
:10167000005503EA06362E434D8803EA0535354307
:10168000CE88A0F84060084EB04202D0074EB0426B
:1016900005D18989C2F30D0603EA811232438280A3
:1016A0008483058470BD0000002C0140003401409B
:1016B000828B4FF6FF7322F4006203EA012111438B
:1016C0008183704700F0D5B8028802F08F02028053
:1016D000CA884B881A4303881A4302808A88828505
:1016E0000A88028501228282044A904202D0044A7A
:1016F000904201D1097A018670470000002C014018
:101700000034014000F0B5B800F0B3B870B51D4D1D
:1017100040F226642146284600F07CF8B0B121460C
:10172000284600F071F8284600F096FA70B1284675
:1017300000F064FA040024D0002100F039FB0121FC
:10174000204600F025FB284600F074FB40F22444BC
:101750002146284600F05EF8002812D0214628468F
:1017600000F052F8284600F077FA002809D0284601
:1017700000F044FA002804D02846BDE8704000F08C
:1017800027BB70BD0038014070B51D4D40F2266486
:101790002146284600F03EF8B0B12146284600F028
:1017A00033F8284600F058FA58B1284600F026FAD7
:1017B000040023D0002100F0FBFA0121204600F0B4
:1017C000E7FA284600F036FB40F22444214628463A
:1017D00000F020F8002811D02146284600F014F827
:1017E000284600F039FA20B1284600F007FA002810
:1017F00004D02846BDE8704000F0EABA70BD000091
:101800000044004000F035B80A0A01219140C94364
:101810000180704770B501F01F0501260024C1F357
:10182000421306FA05F2012B0FD0022B0FD0838A48
:101830004FEA11210088134206FA01F600EA060079
:1018400001D000B10124204670BD8389F0E7038AEE
:10185000EEE77047704770477047FEE710B5FFF737
:1018600018F9FFF76AFDFEF705FFBDE81040FEF727
:1018700057BE10B5FFF72FF9BDE81040FEF766BE62
:10188000704702E008C8121F08C1002AFAD1704749
:101890007047002001E001C1121F002AFBD17047F0
:1018A00080210148FFF76EB80008014030B51749A4
:1018B00085B00879421C0A71052801D300200871FF
:1018C00000F062F80020FEF74BFC0024104DFEF7FC
:1018D0003DFC2855641C132CF9DD00F079F8142127
:1018E0000B4800F0B5F800280ED0684600F019F952
:1018F00000F0F7F800F0D2F8002805D0684600F0B4
:1019000010F9684600F02EF905B030BD3C0000200B
:10191000A02000202DE9F0411A4E002480253560DA
:10192000184F2946103F3846FFF72CF835600A203B
:10193000FFF73CFD301D056040F2EE20FFF736FD5D
:1019400080213846FFF70CF80F20FFF72FFD0D4DD3
:101950004FF48276083D04E0641CA4B20120FFF736
:1019600025FD2868000601D5B442F5D3FA2C02D330
:101970000020BDE8F0814FF4F070FFF717FD012063
:10198000F7E70000100801401048D2210170A021A3
:1019900041703E218170FD21C1703021017186218D
:1019A000417154218171C121C1715621017273218C
:1019B0004172B82181721221C172FB210173FC2195
:1019C0004173012181733621C1737047B420002017
:1019D0002DE9F04100252846FEF7C2FB1B4CFEF71F
:1019E000B5FB60556D1CEDB2132DF8D94FF0A50C69
:1019F00084F800C04FF0E70C84F801C04FF06E0C83
:101A0000312084F802C0E07081202071CA2060710A
:101A1000D321A1716320E071192020723C206072F3
:101A2000FD26A6721720E072402020730720607305
:101A3000A323A373A720AA22E07396250827227464
:101A4000A9206074A574E774BDE8F081A02000208F
:101A500070B50546FFF75EFF00281ED0CC2000F0D1
:101A600083F9222000F080F9002000F07DF90020A9
:101A700000F07AF9287800F077F900F041F900F0E9
:101A80003FF90124285D00F06FF900F039F900F00A
:101A900037F9641C132CF5D9012070BD10B5002452
:101AA000FFF738FF00281BD0CC2000F05DF977202D
:101AB00000F05AF9002000F057F9002000F054F926
:101AC000052000F051F900F01BF900F019F9C007EA
:101AD00003D1641CE4B2642CF2D300F011F90120AC
:101AE00010BD10B50024FFF715FF002818D0CC203A
:101AF00000F03AF9882000F037F9002000F034F9BE
:101B0000002000F031F900F0FBF800F0F9F8C00710
:101B100003D1641CE4B2642CF7D300F0F1F8012087
:101B200010BD70B505460024FFF7F4FE002817D05D
:101B3000CC2000F019F9DD2000F016F9002000F0AB
:101B400013F9002000F010F900F0DAF800F0D8F8EE
:101B50002855641CE4B2132CF8D900F0D1F8012008
:101B600070BD000070B501784278C37801EB0221A6
:101B70008278120402EB03620A441F490A61027967
:101B80004379C47902EB032283791B0403EB0463DA
:101B9000D418CC60027A437AC57A02EB0323827AA6
:101BA000120402EB05621A448A60037B457BC67B04
:101BB00003EB0523857B2D0405EB06652B444B6069
:101BC000057C467C05EB0625867CC07C360406EB4E
:101BD00000602844086028390D68A8420AD1486886
:101BE000834207D18868824204D1C868844201D107
:101BF000012070BD002070BD4022002010B50446B9
:101C000000F02AF8002804D00D490E488C4201D17A
:101C1000006810BD0C498C4201D1406810BD0B49D1
:101C20008C4201D1806810BD09498C4201D1C06845
:101C300010BD08498C4201D1006910BD002010BDC3
:101C4000003801408C200020004400400048004043
:101C5000004C0040005000401149104A0978904261
:101C600002D101F0010070470E4A904202D1C1F347
:101C7000400070470C4A904202D1C1F38000704787
:101C80000A4A904202D1C1F3C0007047084A90420C
:101C900002D1C1F3001070470020704700380140A6
:101CA000180000200044004000480040004C004064
:101CB00000500040FFF7D2FDFEF70DFFFCE70000EB
:101CC00070B50E4D002480212846FEF75BFE0B49BF
:101CD00080201431086001462846FEF741FE0F209F
:101CE000FFF764FB054808300068000600D50124B2
:101CF0003C20FFF75BFB204670BD00000008014060
:101D000070B580210848FEF72BFE00250124FFF75F
:101D1000D7FFC001641C40EA5500E4B2C5B2082CEC
:101D2000F5D9284670BD00000008014070B5C10714
:101D30000C484FF08004A0F10405046005D00A208F
:101D4000FFF734FB2C60502004E05520FFF72EFBFA
:101D50002C600520FFF72AFBBDE870400220FFF74A
:101D600025BB00001408014070B5054680210748D6
:101D7000FEF708FE012405F001006D08FFF7D6FF0D
:101D8000641CE4B2082CF6D970BD000000080140C4
:101D9000426922B1038B09B1536100E013614268CB
:101DA000002A02D0008909B1506170471061704764
:101DB000C26822B1038A09B1136100E0536142682D
:101DC000002A02D0008909B1106170475061704744
:101DD000124A1349904203D10A7842F001020A7074
:101DE000104A904203D10A7842F002020A700E4A69
:101DF000904203D10A7842F004020A700B4A9042E2
:101E000003D10A7842F008020A70094A904203D1CD
:101E1000087840F01000087000207047003801403A
:101E20001A0000200044004000480040004C0040E0
:101E300000500040124A1349904203D10A7842F000
:101E400001020A70104A904203D10A7842F002025D
:101E50000A700E4A904203D10A7842F004020A70D6
:101E60000B4A904203D10A7842F008020A70094AEC
:101E7000904203D1087840F01000087000207047AD
:101E80000038014019000020004400400048004094
:101E9000004C004000500040020406080000000012
:101EA0000102030401020304060708091F1C1F1E88
:101EB0001F1E1F1F1E1F1E1FD81E0008000000200F
:101EC0006C00000082180008441F00086C0000200D
:101ED000EC2500009218000800000000000000003F
:101EE00000000000000000000000000000000000F2
:101EF00000000000000000000000000000000000E2
:101F000000000000000000000000000000000000D1
:101F10000000000000000050000000000000000071
:101F200000000000000000000000000000000000B1
:101F3000000000000100000002000000030000009B
:041F4000000000009D
:0400000508000131BD
:00000001FF
