:020000040800F2
:10000000F00F002045010008070C0008B10B0008A4
:10001000050C00083F0200089714000800000000CB
:10002000000000000000000000000000C5100008F3
:100030005F03000800000000870C0008CD100008D6
:10004000BD140008850C0008C111000881100008CB
:1000500067090008DD0E0008610300086903000855
:100060006D030008710300087503000865020008AD
:10007000690200086D02000871020008750200089C
:10008000790200087D020008D501000893140008D9
:100090009514000841020008430200087903000893
:1000A000C3110008C9110008C7110008C5110008D4
:1000B000E1110008F51100080D120008B70B000847
:1000C000B50B0008BB0B0008B90B0008BF100008F7
:1000D000C1100008F91200085D130008DD130008C4
:1000E00065030008710F000891140008171200083A
:1000F0001D1200081B12000819120008D701000881
:1001000099090008BD10000811120008C31000086A
:100110002D1200089512000813120008151200088D
:100120008102000885020008890200088D0200088B
:10013000DFF80CD000F03CF800480047391E0008FA
:10014000F00F0020004800473101000840EA010399
:100150009B0703D009E008C9121F08C0042AFAD27D
:1001600003E011F8013B00F8013B521EF9D2704741
:10017000D2B201E000F8012B491EFBD270470022E9
:10018000F6E710B513460A4604461946FFF7F0FF96
:10019000204610BD30B504460020034600E05B1C3D
:1001A000934203D2E05CCD5C401BF8D030BD000030
:1001B000064C074D06E0E06840F0010394E80700B4
:1001C00098471034AC42F6D3FFF7B6FFCC5F000877
:1001D000EC5F00087047704700F075FF012113487D
:1001E00000F04CFC124E4FF40071304600F046FC1B
:1001F0000121304600F042FC0E4C0125C4F880512C
:100200000221304604F5C07400F038FC656004211A
:10021000304600F021FC084801F080F94FF47A7074
:1002200000F056FF01F0AEF9FCE7000000080140C5
:10023000000C014000802142180000207047FEE7BA
:100240007047704730B5034600200246044D03E076
:100250009C5C4440521C285D8A42F9D330BD0000AA
:10026000CC5E000800F03AB800F038B800F036B8BC
:1002700000F034B800F032B800F030B800F02EB81A
:1002800000F02CB800F02AB800F028B800F026B82A
:10029000C10002D5024908607047024948607047B2
:1002A00004040240000002400029016802D041F02D
:1002B000010101E021F001010160704702460020C8
:1002C000D10001D5034900E003490968114200D07B
:1002D00001207047000402400000024010B501F008
:1002E000E6F81020FFF7EAFF01281BD04FF48054F6
:1002F0002046FFF7E3FF01281AD024032046FFF72A
:10030000DDFF01281BD0124C2046FFF7D7FF012844
:100310001CD12046FFF7BCFF0E480021BDE810406D
:10032000FFF7C2BF1020FFF7B3FF00210A48F5E72F
:100330002046FFF7ADFF084800212830EEE72046B1
:10034000FFF7A6FF044800216430E7E710BD000076
:1003500000000110580402401C0002407047704722
:1003600000F064BA00F062BA00F060BA00F05EBA61
:1003700000F05CBA00F05ABA70B5402000F026F8E0
:100380000F49D1F81801B0B90E4C0025206890F83B
:100390004C0103280AD10C48026822F00062026076
:1003A000026842F0E0620260C1F8985101F090F9F1
:1003B0002068C0F86051BDE87040402000F006B8E9
:1003C000000021421400002000080140014908609B
:1003D000704700001404014070B52A4A0C46811A87
:1003E0001315D614904243D014DC2749274D4118E9
:1003F0004FF6FF721BD0994227D0B14241D1012163
:10040000102000F041FC600401D4200439D5012102
:10041000112008E099422ED0B1422FD0B1F5406FA3
:100420002FD101210802BDE8704000F02DBCA004CE
:1004300005D4600403D4200401D4944202D10121E4
:1004400005200AE001210420EDE7200703D4E0069F
:1004500001D4944209D10121092000F015FC28465D
:10046000BDE87040012100F07FBB01210820DAE7E0
:1004700001212020D7E701214020D4E7012180205D
:10048000D1E770BD0014014000F8FEBF000230004B
:1004900070B50C460546FFF79FFF482221462846C7
:1004A00000F09CF82146284600F0FEF80C2120467A
:1004B00000F004FA21462846BDE8704000F06AB911
:1004C00010B5012000F09EF8434C18B1208840F090
:1004D000010006E0022000F095F820B1208840F0ED
:1004E0000200208010BD042000F08CF818B1208894
:1004F00040F00400F5E7082000F084F818B12088E7
:1005000040F00800EDE7102000F07CF818B12088DA
:1005100040F01000E5E7202000F074F818B12088C2
:1005200040F02000DDE7402000F06CF818B1208892
:1005300040F04000D5E7802000F064F818B1208832
:1005400040F08000CDE74FF4807000F05BF818B108
:10055000208840F48070C4E74FF4007000F052F837
:1005600018B1208840F40070BBE74FF4806000F0C1
:1005700049F818B1208840F48060B2E74FF4006079
:1005800000F040F818B1208840F40060A9E74FF46B
:10059000805000F037F818B1208840F48050A0E770
:1005A0004FF4005000F02EF818B1208840F40050AD
:1005B00097E74FF4804000F025F818B1208840F408
:1005C00080408EE74FF4004000F01CF8002889D0EE
:1005D000208840F4004084E70800002008B5ADF80A
:1005E000001002218DF802108DF80320694600F0FA
:1005F0006BFA08BD02490A6802430A6070470000AE
:1006000010040140064A014600201268044B0A40CB
:1006100014331B680B4202D0002A00D0012070471F
:100620000004014030B582791D4C01687AB31D4A3F
:1006300013688B431360111D0A6803689A430A60AC
:1006400001792144D1F8002403681A43C1F8002439
:10065000144A08321168036899431160131D196820
:100660000568A94319604179102907D02144D1F8C0
:10067000002400680243C1F8002430BD11680468FA
:1006800021431160196800680143196030BDFFE71C
:1006900000792044D0F800248A43C0F80024F5E70C
:1006A0000000014000040140F0B4384D0346002032
:1006B0000A465C1B2E15EF140146AB4213D008DC32
:1006C000334C1B1916D0B3420BD0BB4212D10220BF
:1006D00010E0B44209D0BC4209D0B4F5406F09D152
:1006E00007E0012006E0032004E0042002E00520EA
:1006F00000E00620B2F5807F38D012DC102A2DD021
:1007000008DC012A3FD0022A22D0042A22D0082A5B
:1007100039D121E0202A23D0402A23D0802A32D187
:1007200022E0B2F5805F27D008DCB2F5007F1FD051
:10073000B2421FD0BA4226D10B2124E0B2F5005FAD
:100740001CD0B2F5804F1BD0B2F5004F1BD119E081
:10075000012118E0022116E0032114E0042112E037
:10076000052110E006210EE007210CE008210AE037
:10077000092108E00A2106E00C2104E00D2102E035
:100780000E2100E00F21F0BC00F08AB900140140F6
:1007900000F8FEBF08B5B1F5807F35D012DC102916
:1007A00030D008DC012925D0022925D0042925D004
:1007B00008292CD124E0202926D0402924D08029C2
:1007C00025D121E0B1F5805F20D009DCB1F5007FB3
:1007D0001AD0B1F5806F19D0B1F5006F17D115E0BF
:1007E000B1F5005F12D0B1F5804F0FD0B1F5004FD9
:1007F0000DD10BE006200AE0072008E0082006E003
:10080000092004E00A2002E0172000E028208DF8EB
:10081000000000208DF801008DF8020001208DF805
:100820000300684600F0F0F908BD000008B500209C
:10083000ADF80000FFF744FE00F039FE1E48BDF899
:10084000001001800120FFF7C1FD0220FFF7BEFD6F
:100850000420FFF7BBFD0820FFF7B8FD1020FFF7CD
:10086000B5FD2020FFF7B2FD4020FFF7AFFD80204F
:10087000FFF7ACFD4FF48070FFF7A8FD4FF4007058
:10088000FFF7A4FD4FF48060FFF7A0FD4FF4006078
:10089000FFF79CFD4FF48050FFF798FD4FF4005098
:1008A000FFF794FD4FF48040FFF790FDBDE808404E
:1008B0004FF40040FFF78ABD080000201CB54FF43C
:1008C000807290422BD012DC102844D008DC012822
:1008D00039D0022839D0042839D0082820D138E06E
:1008E00020283AD040283AD0802819D139E04FF456
:1008F0008052904213D008DC4FF4007290420ED028
:10090000520090420BD0520007E04FF40052904248
:1009100005D05200904202D05200904200D11446BD
:1009200000208DF804008DF8051001208DF80600D8
:1009300000946846FFF776FE2046FFF75BFE2046F0
:10094000FFF744FD1CBD0124EAE70224E8E7042484
:10095000E6E70824E4E71024E2E72024E0E7402467
:10096000DEE78024DCE7704704490A6822F01002C1
:100970000A600A6802430A607047000000200240D3
:1009800004490A6802F038020A600A6802430A60F1
:1009900070470000002002407047000070B50C4610
:1009A000002852D0294A811A1315D614904243D0F8
:1009B00014DC2749274D41184FF6FF701BD0994290
:1009C00027D0B14241D10121102000F05DF960042F
:1009D00001D4200439D50121112008E099422ED0FC
:1009E000B1422FD0B1F5406F2FD101210802BDE8EF
:1009F000704000F049B9A10405D4610403D4210476
:100A000001D4844202D1012105200AE00121042001
:100A1000EDE7210703D4E10601D4844209D1012185
:100A2000092000F031F92846BDE87040012100F0AE
:100A30009BB801210820DAE701212020D7E7012116
:100A40004020D4E701218020D1E770BD001401408F
:100A500000F8FEBF0002300038B50446ADF80010C3
:100A600002228DF8022048208DF803002046FFF76F
:100A700095FF6946204600F027F838BD38B5044692
:100A8000ADF8001003228DF8022010208DF803002D
:100A90002046FFF783FF6946204600F015F838BD71
:100AA00010B58A0721F003040649120F21440F23D1
:100AB0008C6893409C438C608B68904003438B60B0
:100AC00010BD000000000140F0B50022002849D010
:100AD000CC7804F00F03E40601D58C7823430C781E
:100AE0004FF00F0C14F0FF0F4FF0010E1AD00568F5
:100AF0000E880EFA02F42640A6420FD196000CFA98
:100B000006F725EA070703FA06F5CE783D43282EB7
:100B100000D14461CE78482E00D10461521C082ACD
:100B2000E6D305600A88FF2A1CD94468002202F136
:100B300008060EFA06F50E882E40AE420ED196003B
:100B40000CFA06F7BC4303FA06F7CE783C43282E8E
:100B500000D14561CE78482E00D10561521C082A8B
:100B6000E5D34460F0BD0000F0B5104D6B68440D56
:100B7000260184B2C0F30157B440C0F30342032FEF
:100B800005D0C0020AD503209040834307E068687F
:100B900023F0706220F07060686002E0A34343F0CD
:100BA000706201B122436A60F0BD000000000140A4
:100BB000FEE770477047704770477047AFF300809B
:100BC00002494AF6AA200860704700000030004041
:100BD00081070CD16421B0FBF1F201FB120141B994
:100BE0004FF4C871B0FBF1F201FB120008B1002014
:100BF00070470120704710B5FFF7E0FFBDE81040D7
:100C000000F045BCFEE7704770B50F25C27801784B
:100C1000012652B31A4A1268447802F4E062C2F51F
:100C2000E062120AC2F10403D54082789C402A4057
:100C3000224314018A07D30E21F0030202F1E022BD
:100C40009C40D2F80054FF2199408D430C4025432D
:100C5000C2F80054007800F01F018E404009800067
:100C600000F1E020C0F8006170BD01F01F00864077
:100C70004809800000F1E020C0F8806170BD0000EC
:100C80000CED00E070477047044A0029916901D0DB
:100C9000014300E081439161704700000010024071
:100CA00070B5002400F068F84FF48035284600F055
:100CB000F5F8681E2146641C8142FBD300F03EF922
:100CC000012803D0BDE8704000F025B81020FFF7E0
:100CD0004BFE0220FFF754FE002000F0D5F8002064
:100CE00000F008F94FF4806000F0FAF84FF4E011DA
:100CF000284600F00FF9012000F006F9392000F035
:100D0000A3F80028FAD0022000F00EF900F0B4F8A1
:100D10000828FBD170BD10B500F02EF8012000F0BE
:100D2000D7F8202000F090F80028FAD0002000F03A
:100D3000ABF8002000F0DEF84FF4806000F0D0F84F
:100D40000220FFF71DFE1020FFF70EFE4FF460118A
:100D5000002000F0DFF8012000F0D6F802E00220C9
:100D600000F0E2F8392000F06FF80028F7D000F02A
:100D700083F80828FBD110BD0B48016841F0010140
:100D800001604168094A114041600168084A114008
:100D90000160016821F480210160416821F4FE01B5
:100DA0004160002181607047001002400000FFF8A0
:100DB000FFFFF6FE30B5204A5168204B11F00C01C0
:100DC00003D0042901D0082901D0036011E0516843
:100DD000022301F4701103EB9141536813F4803F37
:100DE00002D053689B0301D5154B00E0134B5943C8
:100DF000016051680F2303EA1111124B5C5C01681A
:100E0000E14041605468072505EA14241C5D21FA7D
:100E100004F48460546805EAD4241B5DD940C160A1
:100E20005268032303EA9232064B1B1F9A5CB1FB04
:100E3000F2F1016130BD00000010024000127A00A2
:100E400000093D00081F0008034600205909094A0F
:100E500001290AD002290AD0516A03F01F02012396
:100E600093400B4200D0012070471168F5E7116AEA
:100E7000F3E70000001002400248406800F00C0058
:100E80007047000000100240034A516821F0F00151
:100E90000143516070470000001002400B490A688E
:100EA00022F480320A600A6822F480220A60B0F5D7
:100EB000803F07D0B0F5802F03D1086840F4A02010
:100EC00008607047086840F48030F9E7001002407D
:100ED000014908607047000000004242704700006E
:100EE000034A516821F4E0610143516070470000FA
:100EF00000100240034A516821F4605141EAC000E9
:100F000050607047001002400149086670470000B9
:100F100000004242034B5A68084322F47C121043FB
:100F20005860704700100240034A516821F00301E5
:100F300001435160704700000010024030B50B4C77
:100F400040F2FF153120FFF77FFF20706068401CE2
:100F50006060207810B96068A842F3D13120FFF7B3
:100F600073FF002800D0012030BD000000000020E9
:100F70007047000002490A8882430A8070470000D7
:100F8000042800402DE9F04700F060F8DFF8AC805D
:100F90000546B0FBF8F32A482A4E018899422CD026
:100FA000038040F2B2744FF4B7774FF4B6790CE097
:100FB0002046FFF70DFE20B1BB4208D3A3F5B7735F
:100FC00001E0A3F26D13641CA4B24B45F0D8B480C9
:100FD00000241D4F0BE0B088FFF7FAFD08B1012C8B
:100FE00028D0385D984204D81B1A641CA4B21C2B6C
:100FF000F1D2641CB4715B1CF371B5FBF8F108FB12
:1010000011504FF46161B0FBF1F23270B0FBF1F2BC
:1010100001FB12033C22B3FBF2F37370B0FBF1F35C
:1010200001FB1300B0FBF2F102FB1100B0700020D5
:10103000BDE8F0871D2BDCD31D3BD6E780510100B6
:101040000A0000207C010020181F000803480088C7
:101050000249091F098840EA014070471C280040E6
:1010600006490988C2B21140044A121F128802427E
:1010700002D009B1012070470020704704280040C9
:1010800010B50120FFF7ECFF08B1FFF77BFF02204E
:10109000FFF7E6FF10B10220FFF76CFF0520FFF716
:1010A00069FFBDE8104000F001B800000248018867
:1010B0008906FCD57047000004280040704770473F
:1010C000704770477047FFF7EBBD704700F076B888
:1010D00010B504002BD01648FFF76CFE4FF0E0214E
:1010E000086920F002000861086920F00100086129
:1010F000086920F0040008610D480E4A0068B0FB42
:10110000F2F060434861086940F002000861086934
:1011100040F00100086100208861086940F0020089
:1011200008614A6904480260096989B2416010BDDA
:101130008801002000127A000C00002038B54FF022
:1011400000040500009428D01448FFF733FE4FF048
:10115000E021086920F002000861086920F0010020
:101160000861086920F0040008610C480C4A006816
:10117000B0FBF2F068434861086940F00100086183
:101180008C6188690028FCD088690028FCD105485A
:1011900002684A618C614068086138BD880100209E
:1011A00000127A000C0000204FF0E02080697047A8
:1011B0004FF0E020416981614069704700F077B9E4
:1011C000704770477047704710B500F02CF8BDE8C5
:1011D00010400121014800F023B80000002C01401C
:1011E00010B500F064F90121BDE81040880700F057
:1011F00017B8000010B500F016F8BDE81040012146
:10120000014800F00DB800000004004000F00BB8E9
:1012100070477047704770477047704700F003B8D9
:10122000C9430182704700F042B9000070B5184D03
:1012300040F226663146284600F00AF9C0B1284639
:1012400000F0CEFD58B1284600F0A2FD040006D003
:10125000002100F006FE0121204600F0F2FD2846A4
:1012600000F05AFD31462846BDE8704000F0EAB86B
:1012700040F22441284600F0EBF8002807D02C4625
:10128000284600F0FFFD20880148001D008870BD41
:10129000004C004070B5174D40F226663146284696
:1012A00000F0D6F8C0B1284600F09AFD58B12846A3
:1012B00000F06EFD040006D0002100F0D2FD0121F7
:1012C000204600F0BEFD284600F026FD31462846A7
:1012D000BDE8704000F0B6B840F224412C462846E4
:1012E00000F0B6F8002804D0204600F0CBFD20889E
:1012F000A08870BD0050004070B5174D40F22666C2
:101300003146284600F0A4F8B0B1284600F068FD48
:1013100058B1284600F03CFD040006D0002100F042
:10132000A0FD0121204600F08CFD284600F0F4FCD1
:101330003146284600F086F840F22441284600F065
:1013400087F8002807D02C46284600F09BFD20880F
:101350000148001D008870BD0038014070B51E4C6A
:1013600040F226663146204600F072F8C8B12546A4
:10137000204600F035FD58B1284600F009FD040074
:1013800006D0002100F06DFD0121204600F059FD3E
:10139000284600F0C1FC31462846BDE8704000F008
:1013A00051B840F22441204600F052F838B12046AE
:1013B00000F068FD20880848001D008870BD40F2DC
:1013C0002551204600F044F80028F7D02046BDE81B
:1013D000704000F057BD00000044004070B5184D4B
:1013E00040F226663146284600F032F8C0B1284661
:1013F00000F0F6FC58B1284600F0CAFC040006D004
:10140000002100F02EFD0121204600F01AFD2846A3
:1014100000F082FC31462846BDE8704000F012B86A
:1014200040F22441284600F013F8002807D02C464B
:10143000284600F027FD20880148001D008870BD67
:10144000004800400A0A01219140C94301807047C9
:1014500070B501F01F0501260024C1F3421306FAFE
:1014600005F2012B0FD0022B0FD0838A4FEA1121F6
:101470000088134206FA01F600EA060001D000B126
:101480000124204670BD8389F0E7038AEEE77047A8
:10149000704770477047FEE710B5FFF78AFBFFF70C
:1014A00014FEFEF75BFFBDE81040FEF795BE10B5D9
:1014B000FFF7A1FBBDE81040FEF7C0BE704702E099
:1014C00008C8121F08C1002AFAD1704770470020CF
:1014D00001E001C1121F002AFBD170470E4806210E
:1014E000006880F84C110021817001708181416099
:1014F00080F8141180F8151180F82C1190F82B2128
:1015000022F0030280F82B2180F8461180F84A115E
:1015100080F84511012070471400002010B5094CD7
:1015200020600948FFF746FC074808490068B0FBFF
:10153000F1F0216881F85001BDE8104040210448D5
:10154000FEF7A6BF14000020D80B002000127A007E
:10155000000801400448006890F82B1141F0040194
:1015600080F82B1100207047140000200448006808
:1015700090F82B1121F0040180F82B110120704705
:101580001400002010B500F083FA09480068818932
:1015900000290BD0D0F860114A1CC0F86021B1F5C9
:1015A000007F03D9BDE81040FFF798BF10BD0000D1
:1015B0001400002010B5114C20688189012906D043
:1015C000022908D003290AD004290CD014E0817B19
:1015D00080F8101110E0C17B80F811110CE0017C43
:1015E00080F8121108E0417C80F8131100F008F82F
:1015F0002168012081F81401012010BD1400002091
:101600001D4810B500680022062390F81111222908
:1016100007D00324DD290FD0882916D077291DD0C3
:1016200028E080F8152190F82B1121F0010180F8B5
:101630002B1180F845211BE080F82C2180F84C41CB
:1016400080F8412100F018F914E080F8462180F874
:101650004C4180F84B2100F0ADF80BE080F84A21B6
:1016600090F82B1121F0020141F0010180F82B11BB
:1016700080F84C31012010BD14000020134810B533
:10168000006890F81111222906D0DD2907D0882999
:101690000CD0772911D016E000F0EEFA13E090F8A4
:1016A000150114280FD100F0E7F80CE090F81501AF
:1016B000142808D100F07EF805E090F815011428F0
:1016C00001D100F087FA012010BD000014000020B5
:1016D0002DE9F0410025FFF76BFD344E01463068DF
:1016E000C0F854114168491C416090F84C0120B188
:1016F000062802D0032803D009E000F05FF901E0DA
:1017000000F0ACF90546012804D0FF2D0CD00024D0
:10171000274F16E0306890F8140110B1FFF7AEFFC4
:1017200013E0FFF747FF10E000F0F4F90DE00120AF
:10173000FFF704FD2046641CA4B2642801D900F020
:10174000E9F9D7F818010028F1D03068818949B348
:1017500090F8101139B1552905D0CC2903D033297F
:1017600001D0F0291CD190F81111D9B1F02919D06C
:101770000F2917D0C32915D0DD2913D0222911D064
:10178000AA290FD055290DD088290BD0772909D047
:10179000E02907D0992905D0FA2903D0AF2901D033
:1017A000FFF79CFE2846BDE8F081000014000020F1
:1017B000000021421CB52F4C206890F84C110629DE
:1017C00051D003294FD190F8461181B1012916D08B
:1017D00002291DD0002203291FD090F84511E1B342
:1017E00080F8452180F8462180F84C213BE0032118
:1017F0000F30FEF727FD216881F8440127E090F8BB
:10180000451119B1062180F8421104E00421FAE7DC
:10181000A12180F8431141701AE000920192B0F8C2
:101820000F10ADF80010417C8DF8021090F84411B3
:101830008DF8031090F842118DF8041090F84301D0
:101840008DF8050006216846FEF7FCFC216848700B
:10185000206890F84611491C00E006E080F8461127
:10186000032180F84C1101201CBD012180F8451195
:10187000B8E700001400002070B5284E306890F8DA
:101880004C11062941D003293FD190F8411151B1A3
:10189000324600241368022503F22D1301290CD0CF
:1018A00002291CD031E003210F30FEF7CBFC316858
:1018B0004870012081F8410127E090F82B11C907F9
:1018C00005D100F58B7114221846FEF73FFC3068F5
:1018D00000F22D1180F82C41615C417013E090F80A
:1018E0002C11491CC9B280F82C11142902D2C95CF0
:1018F000417007E00BD14FF014011846FEF7A2FC2F
:1019000031684870306880F84151012070BD80F81E
:101910002C41848180F84C41F7E70000140000203E
:101920002DE9F041234E00248025306890F84C11B9
:1019300009B106293BD10021A0F852111E4FC0F871
:101940005C110CE0FFF730FC022807D23CB930688C
:10195000D0F85C11491CC0F85C1104E00024D7F8F1
:1019600018010028EED0FFF71FFC316840F26544F3
:10197000C1F85801D1F85C21D1F85431624303EB2E
:10198000C202101AC1F85C0191F85021B0FBF2F0CC
:1019900080B2A1F85201B0F5AF7F01D9FF2506E072
:1019A000322801D9002502E00F2800D2012528465F
:1019B000BDE8F081140000200000214210B5FFF7BF
:1019C000AFFF134B1968CA785208CA70B8B1012822
:1019D00017D0FF2812D08878401CC0B28870082821
:1019E00013D3002088708889FF280ED8CA780E315A
:1019F000425418688189491C8181012010BDCA7038
:101A0000E9E742F08000C870E5E7002010BD000063
:101A10001400002070B50F4C216821F00061216096
:101A2000216841F0E06121600B4D0021C5F898115B
:101A3000C5F898011E2005F5CC75FFF77FFB2068DF
:101A400020F070602060206840F00060206001207D
:101A5000286070BD000801400000214210B50B4C09
:101A60002068407800F00100FFF7D4FF206801787B
:101A70004278491C5208C9B242700170082903D348
:101A800000210170012010BD002010BD14000020B5
:101A90002DE9F0411D4D286890F82B01C10727D092
:101AA000800725D41A4E00244FF4C87704EB840035
:101AB00006EBC0012868142200F58B70FEF76AFB64
:101AC000C0B1641CA4B2BC42F0D9FFF74FFDBC42C8
:101AD00007D9FFF73FFD2868142100F22D10FEF70B
:101AE0004EFB286890F82B1141F0020180F82B1171
:101AF000BDE8F08104EB840006EBC00128681422E5
:101B000000F22D101431FEF721FBDEE71400002057
:101B1000241F000870B50024194D4FF4F07604E03E
:101B20000120FFF70BFB641CA4B2D5F8180108B91B
:101B3000B442F5D3134C206820F000602060206888
:101B400040F0E06020600126C5F89861C5F8986112
:101B50002D2005F5CC75FFF7F1FA00202860A020B4
:101B6000FFF7ECFA206820F070602060206840F0F9
:101B7000006020602E6000F007F8012070BD0000BA
:101B80000000214200080140114800B5006890F8AB
:101B90004C1189B9817809B1017869B990F81511AA
:101BA00009B1142908D190F82C1129B990F84611DF
:101BB00029B190F84A1111B1FFF790FC06E000211D
:101BC00080F814118181062180F84C11012000BD9C
:101BD0001400002038B5274C00220623206890F816
:101BE0004C11062902D0032927D032E090F84A117F
:101BF00011B1012909D015E0C17880F8471180F8AA
:101C0000483181890F30491E08E0C17880F84911B8
:101C100081F001008DF8000001216846FEF712FBFB
:101C200021684870206890F84A11491C80F84A11D0
:101C3000032180F84C11012113E090F84B11012988
:101C400090F84A1107D0012911D080F84A2180F874
:101C50004C21012038BD012906D090F8491141706E
:101C6000022180F84B11F4E790F84811F7E780F86B
:101C70004C31EEE71400002038B5264C206890F86F
:101C80004C11062902D0032928D041E090F8151103
:101C900014293DD2C27800F58B700A54206890F860
:101CA0001511491CC9B280F81511012912D000F292
:101CB00015104A1E085C012142408DF8002068463C
:101CC000FEF7C0FA216848702068032180F84C11A3
:101CD000012111E081890F30491EF1E790F82A11A6
:101CE000012902D002290AD012E090F8152100F251
:101CF0001511515C4170022180F82A1108E090F81A
:101D00001511142901D3002100E0062180F84C119F
:101D1000012038BD140000201A4B10B5C21A1C1542
:101D2000194998421FD00BDC184A801814D0A042E1
:101D300005D191F81E0620F0010081F81E0610BDA5
:101D4000A24217D0B2F56C4FF9D191F8060220F0FB
:101D5000010081F8060210BD91F8120420F0010084
:101D600081F8120410BD91F82A0820F0010081F8D2
:101D70002A0810BD91F8360A20F0010081F8360AD1
:101D800010BD0000004C00409C01002000BCFFBFC3
:101D900030B5104C104A031B2515A04213D007DCA8
:101DA0000E4BC1180CD0A94201D1D2F8200630BD8B
:101DB000AB420BD0B3F56C4FF9D1D2F8080230BD6D
:101DC000D2F8140430BDD2F82C0830BDD2F8380A4D
:101DD00030BD0000004C00409C01002000BCFFBF53
:101DE00030B5124C014600200B1B2515104AA142AC
:101DF00013D007DC0F4BC9180CD0A94214D192F8AC
:101E00001E060FE0AB420BD0B3F56C4F0CD192F82D
:101E1000060207E092F8120404E092F82A0801E0B2
:101E200092F8360AC0F3C00030BD0000004C0040FC
:101E30009C01002000BCFFBFFFF72EFBFEF7DBFE7E
:101E4000FCE7426922B1038B09B1536100E01361E1
:101E50004268002A02D0008909B1506170471061C0
:101E60007047C26822B1038A09B1136100E053616F
:101E70004268002A02D0008909B1106170475061A0
:101E8000704700001C4B10B5C21A1C151B49984224
:101E900022D00CDC1A4A801816D0A04206D191F844
:101EA0001E0620F00600801C81F81E0610BDA2420E
:101EB0001AD0B2F56C4FF9D191F8060220F0060065
:101EC000801C81F8060210BD91F8120420F0060073
:101ED000801C81F8120410BD91F82A0820F0060039
:101EE000801C81F82A0810BD91F8360A20F00600FF
:101EF000801C81F8360A10BD004C00409C01002077
:101F000000BCFFBF02040608000000000102030439
:101F100001020304060708091F1C1F1E1F1E1F1FA6
:101F20001E1F1E1FB8D3AA2082FED1F07C0A078E86
:101F300026C7DE10CAA32CC84112959913D1B50D3E
:101F40003E178DB110A646CA79994518EFD1195997
:101F5000D3BC074431793F036CE05E86EDC957A2DC
:101F60009A03258EE7434F0A0CC485CCCB6146B05B
:101F7000B9F0D9C841C5EE1486CDF6783B5EEC8445
:101F8000661DD2077C312DFAFB94EC8141178EA798
:101F9000BA93FE4BD5E8DD2046C5C42FF8A520D264
:101FA000882045C1FA25126AC13197EC8D05D06FA2
:101FB000FC9B6EA638D52308A227B523C85AE05447
:101FC00089EC3F1916E35ED3B28B9DC91D3E68D1E3
:101FD000A431E859DFD8DEF222090F489024B0CEB0
:101FE0000E97F7C761B4CA0E145BC96DC364758BD5
:101FF000D2E2DFBE8144D9228DF124F2F3E45322F0
:10200000B34DF79A847AD37F7D7407BC98601544EA
:10201000CE984B8DF46087CE9CF742E4551D0D5150
:1020200099A388B0F0AD8D338C4C2062A698F195C1
:102030000424F57529C76CABBB0F21480C4EDF009B
:10204000150C75F2EA95173631014EC5A8B7884BC5
:10205000620C12DDC7B79860E3718404C603AB500D
:1020600042DA338636D29189D0722A2616478D8C71
:10207000329489F2CB70FA87C3A857988B20DD93EE
:102080006197798BB64B441A383D11A0B4DAAF177B
:1020900011DA81F697B64ADF6D5CF6A8054BE901C7
:1020A000CEE555F65D9918745D9758F4A7A27C2685
:1020B00029FCAF5C31C8BCE678A9A4F26B1BA886EA
:1020C000E47A384E105C0732DC457BDAB13B733181
:1020D000CEE9AB186064F4245207716ED70B598CAB
:1020E000465B65E590A7CE57C03BB450C018A81C0E
:1020F0005A1DC89CE86406A6A7147B2EAF41D001E8
:10210000C8DF10A5FB81E354FF18CC2F30F449F54C
:102110007B1794B8E923B2F137D7BE56B52B785F59
:10212000AB5B56824D4AE9BCE3A4759EBF08D7CD90
:1021300014601957FFE682FB295B0CE1412B225EFC
:10214000A0F135952B2AEE0A2BF1AB9C5A6DB21DEE
:102150003CC5DF469582832911DFF7E79B1114E325
:102160003EBB357B96A151D517299770BDE829BB99
:10217000087A7189EB9A4BD6B8E88E6500465F08FD
:1021800008A931F8F4EAE5E47572E677B630CBA633
:102190002FAF54BE34DFF833F855FB2BFE0BF97F1D
:1021A000A1549B3A089BDE0D3D76CDC0DD636C8A61
:1021B00093CC276D6FA73C781CD14581F53548CE6F
:1021C00014824DFB1094130D343B0283B77EAC1D7B
:1021D000EBB35F5F154FEB5B8F30ECAD8B3FA263D2
:1021E000FDCBEBBD2033384FD47FB155D9C2260E7D
:1021F000DBA1155965EB50A30D1B328E6DF303ABBC
:102200001E3A0EB1F6A2A9A99A3DF8E1965680842D
:1022100090EFFBC9D4D048446A4D80C6588B3C9F90
:10222000F6D64788FCCD7ECFDCF09C5BAEDC521549
:1022300027C48C373E2D70E698F8EC723DC53D8D75
:10224000BD01AE2CD0876361DA05400ED526077F2D
:10225000181F3604EC7C2F4D3EBD316588FD138977
:102260008BAA4F9537B7E771C61506E68C6E1169D4
:10227000903C2A73F110533A0CC4D020249320CD03
:10228000A382C7040A1469C9C3DBB64160B0C44560
:10229000C510A219D557EEE7C07210E3B88DF7E963
:1022A0005AC48180343786DAE28172657BAC5CA7E0
:1022B0007F63CD02529ED84D90DE97B923B1DBC625
:1022C000D1B8D8F9A81C21EF11B4549922C8E89EBE
:1022D000933D6B822DE30ACD8277B9778CC58179E6
:1022E0000C234BE2FA4DCCA2EBE47F13BD44041A5D
:1022F000866145E546E046964768CD092F5550C6AC
:102300003F89BA3A1F506BBBC5826AA7CC6A62A6E6
:102310005FE5F92C9837EDEB4C6A774968D3B563E4
:102320002ECB3EC32A400120B8D0B32AC50F8CBBA8
:102330001ED5D7ECCFD0484892A211C07AD79406C8
:10234000E0A051C09D06D48F1A0A0E2E3CCD472E18
:10235000F969404F5AE04024B2241C2890577CBAB7
:10236000C74EE65050BF69E681869EC1FE149D01AE
:10237000A9F91404334D6334188F090DCF2449464D
:10238000357648C3730D4D7ECA0C04A776E3939B44
:1023900012599E9CED4E6A0E13717AA73C11B074CF
:1023A000275980A40681F748FC33B72EC56DE0B4E9
:1023B0008E44890803E50A0C96D17189694C8FB562
:1023C00004AE995C71F4704F9385909F1A5A96E60B
:1023D0008B7380561C4B911F495FB1C83F8475AB0E
:1023E00035A32283FDC642F0E7856B6AFBD16BBC47
:1023F000B248068F801B617C32FDC83A25704DC8FB
:1024000026AA1F68652FB8412E34974F925A6C7DCB
:10241000C75B6F15EFCC57440FE35FFEEE61A11E63
:102420008BE0B474154408D0E2ACA5E32E54ED441F
:102430003421CE74D76F0FABCC0B7791CDA533225F
:1024400091AF1CAF37971F97E07BBB34B4C6049A9B
:102450004D4028FBC84E7C9EA16BBB15B59E73FFFB
:102460004757664C872AEECF9DBC5681DDEE38FD7E
:10247000307A723BC5EF0A27D94CC3458DADA0D841
:1024800028F53BD4683673BCDA48EAE47C0F51CBBC
:10249000948B85C6C66B851B31B601DABE254AE82A
:1024A0007C11036899215F3E882AA9211A371824D4
:1024B000D2E62521135303198487E29A02021147B9
:1024C000A0125415E6F6C919B12FA17B18D98FC2F5
:1024D00000A1941317F3C5380141D8DB33C37A3216
:1024E00085DBDE83B4BD3D90F5709ABAAAEB7A2BFA
:1024F000C33605DBC5A879259D42BA364AFFB03DF3
:1025000068C586F1C7D3A6B4C439C6CF56D6900ED7
:10251000433475BA9541D95B1104B302BCB2D029DA
:102520005EACF40B4BD1B943576D7C8B5E5065F0BC
:1025300059E1CA2DBC0BC2D7B329C04A9E38975D5A
:10254000ED9CB51A0F14E91C72CA5D7A75F03DF75F
:10255000E984E2BC8F4A6AD5C454F475DB51F0EFCC
:102560003AA334EE4D9B16286643B9859C46E2B7E4
:102570001A917FEAE01C21BD426518916F1A56E658
:10258000C9351FCBEFB3638FC73646D2A8AE6AAE4C
:10259000A61FDF4CF0D51E2419F0ABD8FC76BF7B0C
:1025A000224E808DB4E91BA1323EA746CC3443C0F5
:1025B000DC07A91CFBF6E9B4A2F65E5FC7E0F08871
:1025C000EA849457B8A39A2B413D86D05EAA17128D
:1025D0004D5833366913F9E7123248FA84F72FA2BF
:1025E000DFB3BD7D37AECC34EDC4A22AF19F41D913
:1025F00005970302C8A4F9DC8ED13FF354A56D867C
:10260000359F85F361E87D3E9215A8C0F74AAB0778
:1026100088DBA5D7BDEEC4F2B0ECCD83D6D41E12B4
:1026200022A1E807553C76635C66D7DD5C9D1A49BC
:1026300001C33D0AAEFAC585F00E5400C0FD253732
:10264000C6D8A2F7BA10FFC9988CEC385277166F2B
:10265000304324340A95C574519799A7D84D2683E1
:102660002E2CD50AB964D2FF1E89019C944FC9D281
:10267000972A03449810AA7A905052D7611FFCC041
:10268000433423B992A40111A9F650B0A1703006C9
:10269000243C4047CE7FEB3737E8C37A0540BE97EE
:1026A00060A9987A98B4FD8BB43DD104D369A9BED2
:1026B000AAF7D66CB861BF68D4FCC48687E9D52474
:1026C0004C6A965D9C948500C2CAF4B282D28FCACD
:1026D0003A9CB4B02435496E8E7D3FD7EC9D18915D
:1026E0002AC9170F80BB3098FDC78DA81F1CA50AEB
:1026F000EF9646A791C6804ECE87D56B0007E5F5CD
:102700009B6D89762C2F7E272F8CE0214880737655
:10271000DC8604E8350CC572B27CF59AFD26F47DA2
:102720000D19660F42DE48CE31E9AC8252B8FB8506
:1027300028E1FE63FB79F1527677A553D1A5B7283E
:10274000ED119AFA3B8E3DD6B418061E2E467DC278
:10275000572E2C10252332787C1BAE5D183CCA4ABC
:10276000EA186F96DB93476F0157F5634D9FF0733F
:102770004DD238C424884B0E06A91527BB98056690
:102780003E4A123F2F4A0917ADBF442F2FC3F19184
:102790006CCF43EFCFE53330B9BC49749F1560FF70
:1027A0000068330CD8B3A9208B1410CBF73F52D755
:1027B00021328B3E981B489C994A4F953866993335
:1027C000E54A0393045C083176A23803FB81AA250D
:1027D000B31C93739081577F515A5E3195DADABFFB
:1027E0003B08B122132F41663120410B825E0795D1
:1027F00025306290FC4651756B17A7C6849AEA068D
:10280000D6BCE3D9FB0529228785DBA259EE97D7F1
:102810009B8C025A86A10C4B50C068E69E024997D9
:102820001EB77646D76E10FEE86ACD555EC6F2F941
:10283000FEE1725484286BEEAD285F7D481C88B1A0
:102840001A11712DA72DF2CCA67DFA4814DD2F6F39
:10285000E2E4E8D4DB1A62056E18ABDE0AD8E716AC
:102860004CBA7BB079BD34F485DF4DF4253451FE8C
:1028700097B21364F6A4ADE4AC645DAF95B53CDDEE
:10288000C50100BEC7C549B398190FE63D10340015
:10289000E89550F45761B5CC8BDF3B1DD67967774F
:1028A000718A1839A9DBD09DE57A8FA5AD39BF5162
:1028B0008D253B6BF5474A01C152ECE267C3871196
:1028C0003C15E288275934BC2D100AB474E7BAE1EC
:1028D000E5788D05D4D072569293B844E4732E0EE9
:1028E00066E2EB7D39D1D8BD7C76C0F42802A22AFD
:1028F000DF1E5A252AF89060990C71BE224301957B
:10290000AD793780AE020E4DB1A97BCE2C98AB1BB2
:10291000D62CBD568D8E587C0C2EBD3179968F26C7
:102920002819767AF41969F1E4200A9BB0B7C0B48B
:102930002E3C527508726423F5A9B558D8DF6A5049
:10294000B944294EDB9E924FF6E36E0181F7A15602
:102950003E43E1C73AA49A013180E4CC9A00437720
:102960003B9A317FE18AB954038EB3543F2F3EA87E
:102970003D7FA1CF167DF076A0B7D0D497015F9EA2
:10298000334337714E2F023A12B70A66F46058A4E7
:10299000F999A15CC614B428E1E50AD98D8D981A7D
:1029A0006F31284C6F79F0B760C56206C23BAD4EFF
:1029B000E4FBA23ADADB74CC02E5CA78B6CB561651
:1029C0000B593A28979B0ED846EFF4BCE32E5D4C8A
:1029D0005459819AF8A3E14A61C1FC8BEF1BC7D619
:1029E000FA51C5D6582B03BA4CB77B7BF1A8AD90F2
:1029F000C1576F9F0C1C6BA15AC5EB4E7BB1B5350F
:102A0000D32999312CF2582F62D6435282DF2B7B87
:102A100095A2EF6C16E8B0D51AB8E577DA02EC2A81
:102A2000770DE9B26BA926C7EA4628A585E5DEF64B
:102A30003A10B5971FC106A0A6EB3101E41BD431B3
:102A4000A70156F2F4CE4CBE116450322E5914E355
:102A50000904D45952BD7648BD733D573BDDB95783
:102A60008898BE61368286CB49DAB47F363DDFA6D0
:102A700011A045A5C659AE0ADF62BD007294992126
:102A80009415BBA7FA5E4787CCE32B94B973D7970D
:102A9000F1FE895E6D7199CE6FB1F5BB15051624F7
:102AA00068A771F364FBFFAAA7D941714FA645E659
:102AB000B4EF659243DD79A6073CC8EE8ED26ADC9E
:102AC00081BA912FB0A6E72A89DB231453ED8AAB94
:102AD0007ACCEDA9E5CD3FC7FC9CC88D63450DDBE5
:102AE000211D28AA370DF1E6F29F73B100EA8E3A54
:102AF00025A281A4B0B765A2639545F6A713F76038
:102B00009247838153BD3FF4A7B352C52FAB7916CB
:102B10005F7BFFF499A74663070C017F05570B28DD
:102B20005EF9E1914FA7A721001204BE8CFB7A85C4
:102B30008E73E927D663ACD87CBDAC1D0EA21809F4
:102B40008C70DC6260804A87B7BEC631C94D02FF17
:102B50002E68CA0D9DAA67370B1A09D5DF03DD421F
:102B60005A487EC82103720AD28CA82DDCE60A8E50
:102B7000910D95975811D5F4108F7455E01D45C9E6
:102B8000C3DEF934D34F89322E60880D24F2E84435
:102B9000AEEC1E11E71001482F5FCFEEEA20C049CE
:102BA000CE65A65833535E4E3D8C4DDB137576656E
:102BB000C7AD354AA16D0885B1DDC13C84DAEFF0BF
:102BC00065B746B42DDD964D791FBDDE549B07B227
:102BD0006F20FA17EDF2032BF4010E70684F54A327
:102BE0001E3DDF0C3C6C0813EBD55B8B45FBA2371D
:102BF0005F3D5C0E2B7B0C64FFEC14846FB30AFC0E
:102C0000E15353249A5AA4E6F65E7BB2C72A1C9C71
:102C1000097BC1844F29FA5E7552EFD45BAF88E817
:102C2000E7CA0A4F719417D39ED2536485CBE21B37
:102C30008BE08FD7136EE88954E6B446B971055E10
:102C40006101B738A7C0C22A74799AF0D1ACA0C389
:102C5000E84668423D1495B09BCB2DF50A09AB358B
:102C600048BD6859CF51CDB31BAE35F73B053DDFAD
:102C7000E048A138CBD3CE207ACCF1032DC26A3AFA
:102C800071E71CAFD2BF1AC4483015EECCC9AB3FB8
:102C900076064DCE459D24D7C4AACEB334EA5666F7
:102CA00035240C51B6029B606E17642D3692551078
:102CB000542C6EB733B09C38A15B695A0E367D7DBB
:102CC000B008F4D6B549C19451370B26707D7CCB42
:102CD00039586D514867CA3E14D42ECB443DCAA919
:102CE0000E95D3888747C89070949051D2A870EA07
:102CF000858BF7A97E3A60F492325615E2F9374592
:102D0000422B025E31C13C932092CCCBA102330214
:102D100058BB4712D27D22471E933D48BE21709D6D
:102D2000CC5B8DD763BD4CCDC97180187392C855EB
:102D3000A8E4830E06E4182DA9CF0D2FF75A124EE2
:102D4000BE3D255A1F11A2AF79E75801B34947B3D9
:102D50001B030202C5C0DADACB5E5B32C8257313EF
:102D6000140BAFCB6F24A91AA5296027BABDD76B66
:102D70000D11CD7E8642894DC14F574A683032557C
:102D800043DDEB1946330EEAECF8718B6EDD8A22D7
:102D900072A6522A88C8DC18FFE4E63836C3D0553C
:102DA0000795616091847DA0BC4E0E89F8375BFE6B
:102DB0008F5E0D27AE76B98E17E579A55DCA279F80
:102DC000B5E4F2871BBA81EB2E7157517B91E01469
:102DD000CD5486812C20E52591A09AD0CBEDCA83D5
:102DE0002AE8BCF82C610F1E47BD457708FEC87164
:102DF000ED5B5F5CC183DC4DDEA0BBE476591AED70
:102E0000F7E2C6F2BD73BAC69C158360FB4B313442
:102E10004FF1CEA93421CE31FD573AFD3B3A0F890F
:102E2000953F9E54B9FA3D040831D05C60C892FBCE
:102E3000842649C58D3BDD91EF8782E1D4C8EDC47E
:102E4000E3BBA058CE0B4732907FA4C7EFFD2EEA1C
:102E5000A254D983AFC132DFEF4C72BBDDC7E2228F
:102E600023156CED8D38C7A75E362DA47E165BFF4B
:102E7000B3177F9C2B9772CF25CE0EE8FC8A8ECCA1
:102E800088D3D5AAC8503B345AA1C07E1C92A2F266
:102E9000FE8CEE6BB5C1AC530AED314A6AB0705589
:102EA000A827D9337364CC4A09A16FB31BF44B65CF
:102EB00013E59D406C2AE6F7B79D094F1F1112C616
:102EC0003CC3250BA34A7CB4192E7A79C863AE8221
:102ED000EE7B768160D39A58434C7111A0892C43C4
:102EE000AA109482EFFB7871AA66CD7059622DBC4E
:102EF000B9D0EE7D55DA405A95576DB51364FBDDB8
:102F0000F001A123BFBE5CA170FF2CF64CDB8070EA
:102F100070304072D79B9DD6788079770995C63BF3
:102F2000224B98935717ADBC61E9AF49F31E9095BA
:102F30000D575294D20AD3A5143E64E07B858A8053
:102F400033E2DBAB238CF36481C0F871C6A5C20306
:102F5000EF5DDFA3AA450434995759E533C1B207A1
:102F6000A3C27D1C052EB535280FDB3472D62BE2AB
:102F70000BC8721F0C80612B67F96E776EEEA00094
:102F8000FB8A16EFEE240C6F7AE6D31D2744C66742
:102F90007DD7532A566349E2D62B751989515D1D99
:102FA00065F6B42D03E4AFEE9F7B6524766A6BD49F
:102FB00072AE79AD0F416798038733C98CC946AEAD
:102FC000B25715F04BE3F5447DD5ADBB2D39D8751F
:102FD0000057B7B86B1995C292494B44DD2805D606
:102FE000DE753CF7D81956E89E1D3684A5AC098CD1
:102FF000622241D9F98D9E4364218E98815697882B
:10300000B974840437BC8A094AE013866EB343F26C
:1030100036FEBA3EB6B60E07BA959B38A6A3B12ABD
:10302000E1627E754E7C888904CC9374CE08317C35
:10303000D59A8FB42C8C8825146C274673E96C9034
:10304000FF8047DCB7966AD3AA62B908EC21C5E2D3
:10305000DAD9C5B10FF0883D0B760B414746562AA9
:103060002B8E3F2A5F644EE5F76365BE7BAAB7F6F9
:10307000995CF01ED3D9B5A1953FDAD4CC45EC8646
:103080002B436AF395236D5F0C326BC94D2D6003A2
:10309000CEBECFAB7E33C5C10E272EE404E9242D6E
:1030A00058E144D7ED7E0AB3A6C2C12BAD70F09CA7
:1030B00039C6BC1F52672AD98A988A5F8B1D7C5BF0
:1030C000D884048092E5C714705E2F39BA4F99E016
:1030D00071A06465892574F008D65AC98FCFF4248D
:1030E000DC3AAABEF4B83543CCE6B972F5B676BC84
:1030F0009132360F88E89CBFCEE6C846308F9B11D0
:103100006D9D6780CCF570A29CA7709E6CFB9807A4
:10311000BBBAD524ADE3AE56B7FAEDEE7151192026
:1031200040DDF3B1F9F68E233FB31D8BC6D4F149D0
:10313000EA69010A8CFF27F0A8429F88FDC1A0B66A
:10314000731589E720A3DDF853555ADFF9C5118AB5
:10315000C15FC732523A01247028038AA18EEA6601
:103160006A7FC8F52C6226815EEB5C175505A421A9
:1031700013FB39B8B43FBAE2112F979EE5DAB1C814
:1031800024F6B65FA3CB755D1F0D670B24CF618757
:10319000073AC5E6462764720FCA688FBBDBEDD8D5
:1031A0003BAF67A1DA286F323317BE64BA9AA3F433
:1031B000AA9AB503C6857E16D502CC4780139DD644
:1031C000BF7C82F2E17797A4EFFEC31C93D100D4B9
:1031D000454F25F45F15500F5D151C158EE5AFCFDB
:1031E000BCBB41467AFBBCEF0EC4E6B662E1DEE949
:1031F0008F44E544BC317419A1BD87A53ACD375E33
:1032000026C8BBA20C66D4DCDCD458574BC00C1CBF
:1032100044695C5B9879D0054BE7F90F725389B923
:10322000F6ABCB86D4F738D2F7E56188348933F230
:103230004110124A496AD3F66359F26BB60EBE7258
:10324000B05FD7FC11083885F7A631B52BBB6DB040
:10325000383D098D0AADA74C245CA9E960430064A0
:103260000EB7B5BB80939DC873E9422DC169F9F3D0
:10327000FB9B67873AFD8FB8C72B8237205174615B
:1032800092537BF3ABDDD2B29197FC5DF70032D164
:10329000479A2D4B7E0C46D1F58E464DEBFE2927E5
:1032A00060455CBD9F836CD291D796BAFDAB14B6D6
:1032B000CE0A28412F086DD4DB6289B07730595D82
:1032C000DD09853C2877FCB8AB77776699E8C5D4EB
:1032D000C074097CE3D21301953D5B2F4B9B1D47C6
:1032E000E69C04347C88DD824E3C617FB5BEE737C6
:1032F000334C902A19418867A06105346907C4A13D
:10330000A593CBBF8945FAA01FC1AD4E7552ADFD47
:10331000DA561BE5CCA15BB3FDA26EBDD8C17E839E
:10332000E79005B009F9DFD08AA7721B248670C424
:103330005711EA959B70B86BAF58BBE4206CBC7911
:103340007CAB9B21626878C079DE2A74E6D0C61F08
:1033500003BFE306B40CB134B0C9BB4A2738CF7FF2
:10336000B8899DB391B24454E6F17F45937433F22A
:1033700032E3710CD425C14BDF595D0F99DDE9D4DF
:10338000C6132AD40D6B36D8D6640BA802AAC1077F
:10339000FEDECEE5FA7F10696773894F90E5C83E7F
:1033A000BC80C699CE63EDED356330B92C687CD412
:1033B00036F8D766DE48084EDDE1FBF16030E3F910
:1033C000BD3C18602FDD34538C16E0F098DA39B428
:1033D000AFAEA3FA6DAE4DD668DE7DDE9767B5C29F
:1033E000EDFB49801D05D2236C25A6627C7FC0E4DD
:1033F00000B9F5EC26ED1D1AC32319F3BA0AEB4701
:10340000653998C8982DD201D9C8A805EA8D5EA45F
:1034100045B4D8B98891739D862824484FA45E622C
:103420008576E27A0A4D59288220C2C978E139E6C8
:103430004F9F956C68260C329AADAD9B6B3E4AD07F
:10344000775714942CC1CF5AA86EB9883095A451DF
:10345000D4FC960278F4A8BA07EC31EED6D4C4595D
:10346000B13FA420AA87E8FBAC5938196CECF2DA1A
:10347000B34A4FFDA7648DE6ED81A05AE518C6BD9D
:10348000933346054CC4C9DA58BAA40F417CB482C0
:10349000D8585EB8D387E3E2DA760339EACCC0388D
:1034A0000684831C88F08201D1DBE07E0D0A23C7ED
:1034B0002DCBA697925DDBDD7A70205102AC8C3467
:1034C00002C4CA1D5914F6D42F02F3A7A944507D93
:1034D00051B5DA0AC8CA5C2EB916836EBEA5D8B437
:1034E0008FD14708273F91E0C080BF09284D791947
:1034F000108B6F483DE4F4D430FE6F7CDA0AC8428A
:103500003E69ABA675525117956DDF203F9E6BB695
:1035100053954B8C4E7902F21CF16035BA3538C99F
:10352000E4250B4570BAF62325FADB1256E48FEC3E
:1035300047B338962E55572F12C17C59248DB2337C
:10354000A98D10F08C07B09BFB680AEFC6CD69957A
:103550003B6CF78B9F33F642510E495DBD4B475193
:10356000690B1EDDCFCCE023A7F9822FE2752EA3D5
:10357000E264267EE1CAB4EF19B0BA95CD2ED1E24D
:10358000550FEB06A5B236BBC70E9884F66039D04E
:103590002D47008849040342867E6F6E63848A8EBD
:1035A0004A595D0E7D810D8D63CFF157669384D9A5
:1035B000C05E79A6A3C53119E964A709FD044534A5
:1035C000D5E8F98A03EC164AF893B05478CCB89A47
:1035D000B27556A5205D1A3AD91FB6EFBA19EFFB9E
:1035E000301E278ED7CBDCAB7EEE822A80ECF33AFE
:1035F0004205E14FB1BEAD95C5063B27DBFCA910E6
:103600002C89914322D8C89D517F48514228ED45CD
:103610006A8E59DA02559ECDA42B22AB2CE3A37BF4
:10362000D7A75B8E21FBBF749201FC4333B0520CD1
:10363000021AC127D1AD26463551C6C2D7BB0A2FC3
:1036400047E16CB061C49C35F2C115FA764CC0AB51
:10365000CAC0B7B92C04E9A579C1B126B3911AF44F
:10366000DE722CDA3738E692B860E41036E3059D56
:10367000C44D6F0B135A73727197712C273B94A62C
:10368000389A7BBED80096E0EF1F79B6D25331E26C
:1036900073628E8DE5B701B3C4CA2A008556051F33
:1036A0001806EA6B6FD9BFBFF9971B011E15BDD075
:1036B0001A1642F39FC638A26BDE5027AF219D71C8
:1036C0009F72F046E47ADC2F0BB1C8845B4E8825EC
:1036D000F8FF407383239DCBCD9CEC4C3DC6671710
:1036E000F66A2F17A2B5D10C71DB602F98D2052D89
:1036F000B960B82DD77E61B2049D6C9FB697EB0C74
:10370000CE29153627DB43A91CDEFD06958E65EE16
:10371000EEAF3EC4793341C9520D039AAA261AD698
:10372000B0134FA030FEA2F65F01789521953BBD06
:1037300065998C9703FF79B163448ECD474D12FA9A
:10374000BDB90B5E759EACB5A994D9157F3D8005BA
:10375000E51BAF684109DF5346AF18167E5A43C3D5
:1037600000604664383E6CD653E0F67DE962C036B0
:1037700053FA613CA95531B64917A19A174D2DC787
:1037800085697FA36CE050D6E4F1BEA02DDB8434C4
:10379000912C03EBACA9DF61270B873168DA3C275A
:1037A00058DB6A34420AC6EACA0C063454BF44BE27
:1037B000B5EFA1AD938FDD332C30B0E35FD7FBECD9
:1037C000CC7C9C86DA25CE453A5636209D562D4334
:1037D0002E85296885853465DD3B1C21B1926EA05C
:1037E0004B6B6FF20EA06823A808236B2D8565CD67
:1037F000D644FD4C99187C03C3E9965689184A4D66
:10380000B9B2BB94205E35EFCFBC15657D89AB00A6
:10381000A0F086D6CB24998E2A0BEF2A9D60748661
:10382000100809028C96A15A51A199ACF7B0CB2D82
:10383000B1AD235DB97EE4A2CA5F6EFEFBCD88C840
:10384000E83DF94F88E441291E9FCF0817178335BB
:10385000ED122EBDEAC577719CA5711CCEBFFE424C
:10386000042B93971983CE5A1F69FF42267355186C
:10387000B8D0531375C47044331302D3D95584C3DD
:10388000B26AE54014854F0CD695D9C8729F625430
:10389000A1F0A192D9502985DBEEB1EBBD91423D5B
:1038A0004BBD8025F87E56EB8E8C19448BB5BE033C
:1038B000D003DB3579FFC6E536AEBF083D2C319C21
:1038C000BF57F3BE0A681CB191829F16FEEE7D6F52
:1038D0004E52B8E02E70F6AD5643BACA8D1F19404D
:1038E000A276F99EB997AE0D34E36B0897A5AB6746
:1038F000B2020DF80796285C4820F7115CF7973262
:10390000F73AB90A0CF52CF9D9AAEA1EA8A7EAF9E0
:10391000412FCF0070F4BA781E4E0FBC3568F3FE0D
:10392000B0EC16D1C36B29216B33F0315FB1731D3D
:10393000F1B0A321D74F6D464E62D0E1DD679328E9
:1039400017FF2179753E5764E8D037B7E688B5F29E
:10395000DD36AE4F066E83BF3E32AAC0AED5CA5426
:1039600031E358552B927DECDFC7B0BDF1F2A6D301
:10397000C0ED530513C6409CE93A185AE113314192
:103980003E5733DAB9E5DDC701330D24B2A02BAFC2
:10399000D8D3E1610CEAE102EFACCE81EBEF462235
:1039A00046FEFB0BA9F9DB6E880428FD85B3332F97
:1039B00070699F9C22586C8CAF6485E44E94BFCE96
:1039C0004F7223167F0AEACE73E62575964315F2E9
:1039D000EBCA8242612A73034CC2118457F330460A
:1039E0001675A03BD1483167F2ED46226B641B2B64
:1039F0007FFE5026D76EBD76EBEFBEB5774C12A892
:103A00000EEEEBBC57FEE989782519ECB821B87B9E
:103A100007F2562D78E114C52F8376CF916DFC897E
:103A2000639E2CE25AD175E3A2014C2BB5F111F043
:103A300004592E032639384EB35A7E31F0F425C688
:103A400013655DC21CD6AC9EF8966CCA34BD9596C3
:103A5000B829ED0E94BA32673822626D9984BA3D66
:103A60001A100EB6D661BC87CF243A2643827DC099
:103A70006213069719E9BDE8D41C9B79558490D24E
:103A8000FC1BBCF2BEC782711407F118C9915EF22B
:103A9000E3037B96188F5F7303E01359F8C76B3B02
:103AA000904F8A149613932B646F71BE1B6CCA607F
:103AB00065765EA0CEB15DE87B1B43B755C6EAB321
:103AC00002990B470552E3628B68E7EEC7F36A2D54
:103AD000BC50271097656B67F9A1F86D34394CC855
:103AE000DDCE0064319138EFF6D5BE872CABBA66D7
:103AF0008780AE40D3FD2AC95C7F4BD6641B133848
:103B000094EA61CAB1F8BF8245A692827DDA010AC1
:103B10008EB32FDF392560E936B74D2DEC8D313B63
:103B2000CFAD8A2EAAF9AA26C1FFF1D29591AAEAB1
:103B30005954B372A55186EFD6310BEEE7DCAC9A3F
:103B40008FAEFB8C65F566057477EAED526C987361
:103B500089A4BCA37AF646FE7DEBC35E68709348E9
:103B600042F6F2F8FDC15B503176E5FDB3BA92350D
:103B700041695DCDBE36F82BBCED5ACECCAD0BAE57
:103B8000C3F73FFDA9D8270F3BC67A956A55EA9738
:103B9000913FE1FEC5FE79C66AE08F0834A1471C5B
:103BA000B60897D40FB1321AB5FE7A6D95499D804B
:103BB00097D24C301E9FC33DABA2935737B3905B57
:103BC000BDA710C7991EDA813843C5127D1A0BE2D2
:103BD00028F4BA3CBEAA7E4BDCE68E44932597BC03
:103BE00005333FFAEA2F783A402F11CDFF7C6C2B3A
:103BF000E8CF3042BC39937C54EF1CC0BBC11A588B
:103C0000F71B71D8D8252FF16BDA6BF3EFA6C441FF
:103C10005EF0D44337E6BC156EDC99D15F034155A5
:103C20007528822243B365633CAB9026F1999E19B7
:103C3000258F2D0EA477EC81A112B6C539F37A2316
:103C4000C24EB694F6339ED91223C6F4348DD78073
:103C500039CBCEF94980B699890317EE06778B895F
:103C6000517FE898FCCB2A0716FCFF1741817E3B69
:103C7000D55CE39DB763BC9AFEF23D8D52C82E31F0
:103C8000B57C6E2CECB0E9C4F4E14EC934AFEFB1B1
:103C900080CD21DB1F74B5D01EA6533226970D02AE
:103CA0008D37B0B84502C76AFCD67EE1BD1D10D085
:103CB000C54E759CD5D01671A0B8CFD4B47C0A730C
:103CC00060973452BE62522B633389EA83FE7BE5F0
:103CD000E77ACFC09A46635395C99373570516B9CF
:103CE000DA4961CEA166BFBEBDB13E0E17F6188D92
:103CF0000D3303E54610310B134F206EE4C63075CB
:103D0000CB3E6A903A23DA7AA79DAF9EA9C9C385B4
:103D10009404D041FBAB8402D617BBCF8FD8055299
:103D2000A111FA7E06EE3C5BB128DF19C338209062
:103D3000BC46D89B60B3763B11770456DCCE387B0B
:103D400086BA75A4532A262D53BFF7B95F5293D66E
:103D5000C0D02D21AF9351D02F953A4AD948A9739D
:103D600065F6A55D1C8E836761A938D4A8E135F698
:103D7000BFA262856DEF4D50D3D910C982FBFBCC39
:103D80007B4D4C69C9C8959551AA2939ECCBB95ED0
:103D9000A694C4801B54BC67599223D967B9237970
:103DA0006E1FD70B9D225775EBBE8AE5B0D25F31EF
:103DB0005E0F7B3D8FF67CD76B03545E951F86624A
:103DC000B209A5AAE8242317CC5EA3EDB66AB330E6
:103DD0000FCAB6E23B04BDD1E508BF2F62A251C7AE
:103DE00098D5DE8C7C79CFF060B036F82B2DE44886
:103DF0009D9BBF85AA2FFF448F251E2979BD9787DC
:103E00001E0E3C966D5843DBC0C49181207ADB4185
:103E10000E6729E72047139ED7E3C89B85F7F6ACCA
:103E20008A0756631A526213EF3F68BFAD8061275D
:103E300077789F63BF80909811428F571A922979A3
:103E4000350D0698E4AAD8D7465A89B895B0CE243D
:103E5000562ACC5509EF448466451A3EC7C1C506AB
:103E600059D7A697F2FEC902E4C2CFC59330DD8CC4
:103E70003F2F3566F1B517BA22D0B8EBBC9865066E
:103E8000364C408104A92A08A1D2D61495836E2A03
:103E9000464B795C3A642A4DB7EEF140A285C148A1
:103EA00051982DDB0A40A1C9311803B7B054F090E6
:103EB00078A7B3DE28DC14323DB49711AF9E215BA6
:103EC000BD130206B9DFC9F25EA2AD6863E4E2F099
:103ED000E6BA07C27A6822001D8AE6702A1E2FB54C
:103EE000B87E2D6C70CC3402E8BAD60340229CFB1D
:103EF000431B0598F82816FC8F02CCF99D9B79F19D
:103F0000BF0409D98DC6D0FEAFB60A61ED41669BEC
:103F1000EE6B0906E3600BFF3B59E3AEC3A1184DFE
:103F20000D96337EEDEE7CA527F6997FBC3EFCC650
:103F3000FAB4BB3224A2F5CE3DEAD7EFCDF1BB8770
:103F40001045D1A70EFE6CF9510CAD795AEA058ED9
:103F50009032290178AE63E6F5ED084E5E22D12C51
:103F6000734A3CBD1CFB8FF95EBED312F65CB77B77
:103F7000BAEBF06D8465C124E321789BFE3F5EEFD0
:103F80007700C9A73F7C3D9B1758FD6DC3E3142AFA
:103F90007A6730C49D72F698D68B992706BBE1D11B
:103FA000B52729C87CFE1F19E96FDD15D008E58605
:103FB00099E0FE39FBF5A5C0D3CCF999760D6732AF
:103FC000027C6A11CEBC9D58D12B19A9A12CD958BD
:103FD0004E013038E12AA8C0AB1B3F00F64DF20A73
:103FE0001C07E1BF09A232CF38716D5604CF4CFDDA
:103FF000033ABFE68A965C2EEA497D199897BD1769
:10400000C301C0ADE699FA6FDB90A3E2F75749DD33
:10401000E8594AC7CFF83D4566259FAC5D4D4AFA41
:10402000727499D75D7FE248E6654FA7948A8D72D6
:104030007780E1FF64B99F6C8F566567B912C1AB99
:10404000A1D99E8BBFE0DD33589B10D96B5888FAFD
:10405000CE61FFC01A67B279C7121797F96CF9974A
:10406000F78A37D813CD57E560CCDBBF08FCF519CC
:1040700027626D7DEC7742E6F93FEDE56E954A41AA
:104080005B8D3EA84B76A7C96B41D5E8A36ACFF3F9
:10409000F33E1ADBCFCBDCB69D6DA7872D44C86FEE
:1040A000FAB79660578F49ACACB7587CCF21232D17
:1040B000A8DABA5624996CF4738F884304D0E73594
:1040C000B2823A71B21F75A3F53B8C89E09A0FAEAC
:1040D000AF44BE7AFC8579B82C0CBCCF39B206E768
:1040E0008CF7D902C93B832CD90D274B1CB9DFB6FD
:1040F000D60E35A598164CC6F608D709010E4DAC5C
:104100008C6EE9D040F5D2E0BE2461AD5E92D5C19F
:1041100097FED5AE80CF9AB7CFAF6780F2083D6EDD
:104120006897AD4A1C5CB59C5B0512489495881F46
:10413000C913BAA5A0B00F9773FED9ABBA70D362FA
:104140003AFFD0317068614C4D8E94C82A22044BDE
:10415000CD8D1F87A0A31F816583063B1E4CF60FE4
:10416000D843FC3E78E875D400CB00563DE2719010
:104170005A4B16AA7F665B4AE321677157249A7CE3
:104180003D1483B91299C328B0CCDE9878C23AAAFC
:10419000E9DF848BEF113FC96BE2C66DDE43C5805A
:1041A000E87E91216160279CAD638CD7A1B20ED0CF
:1041B000BFC58594EF33DAD67A730A52700F635411
:1041C000AADA7E4B9055BA5FC998064CE291AB1AB9
:1041D0004C6B28A1ABE71BBA377037CA22CBD9305A
:1041E0001A4C0BA43228E1DA13D4D7A7D88134B300
:1041F000BE1715A3845E05E9DB75FC777EF1D93324
:104200000346E090A1925CD994FDB9A4FBB70E4F90
:10421000BF44BB3A72998B9E85AD0BB653F65E28B0
:1042200001126DE68E2801D354F7CCBC0D5AFCFB6D
:10423000F3D0E3DC3C29B45BDAA23149034616D45F
:10424000FC868F0BA39D53534078CAABA17DDBBF87
:104250007B665A9F7B628E2035D1286D94F438900E
:104260004C48FFBFB46EA26D32183E788617C0CDA1
:10427000ACAEE5571F902C2BCEFF1C5B70F996CA95
:10428000BBCFA287FCA40509DE5D65C7683185FC4C
:10429000EC87892F250A163BE6E668AF76125A1A94
:1042A00062825F58148BE92D53D190767BC3AA7C30
:1042B0009244DBDB1672E8BDE46DE0BE49AA618A78
:1042C000F610E5178393664BF9D19A1A7E5A0CB80B
:1042D000C981714D1AC26F07045D63400FEFCA11A7
:1042E0009B7C4C7E6325EB7178E3AB5FB6E70CD328
:1042F000FE14A6604EE40B37E5D2386A0D009C8CA4
:10430000DE99323E692258D7CA89FE66A7158A0C03
:10431000F242675962859DFDE04E1FA593F622513A
:10432000C49E6C2262880D79303EE8E23182A8C1D9
:104330007CCBFC54CE56EDC095C5D438FAF05AFA71
:10434000C5CAC8E731F0630306AD385891789ADDE5
:10435000364404A3105B8EB323B8D8524DC9F8710C
:104360004719626ED15CFA8391FA3CEA9403F666CF
:10437000B411C5D34DED8CF687761A58AD07079D5D
:10438000456269671A33F82EB987EBF1DA53F90DF4
:104390002F424899163C2C18F758C08E744646F7A1
:1043A000ABED48DB30F410BD8E57A9F6CC56FA665B
:1043B000326B12B6A8BAB2D41C15F0EFC4D41E42A8
:1043C0009C33F8F43F8FDA4CC19DA7489C84F325B9
:1043D00048CA92E3BF9261D8E354DECA8062E39296
:1043E000FC4073BD0131AF57C507747B9091FB7DD5
:1043F000EBE2432FE2C789A2B77E4BF809D88E12B1
:1044000023D4E96000399B00657CB1C649FFE40014
:10441000C04D7F508F08C8AE7A5F75350084848F99
:104420003CBA8D823B87807E9BFEAD82EEABB5B7FA
:10443000131E79AFDFE59DCE4D91C29C80A7350D4F
:10444000EC5C45676ED612D730A60705A0FFD154A5
:10445000C0D492EAD62344991000313051A0297279
:10446000585438BFAA2AD256A062536D7D049D5875
:10447000238ADBF7F1A477BD307B8C0522256C5AAB
:1044800012C634BC096419D1681B8E8532CF6A48C4
:10449000D439BC1835C2595B05B7AD1A6D256BAD63
:1044A00092942E0C64053907D628D52256572F4BE7
:1044B000F0C85A380EE8AB2F3A6F0EC57B5D2A293B
:1044C0003D122CA967F8929FB27657C915C5BB93C8
:1044D0006309293CC39310C4F2B37D38E7FCB8E507
:1044E000C49D092997DE4A75212B4AC3A1C3FF1039
:1044F00047BE777F6CB7D09C8CE6FC73F1D947023E
:104500002DEFB902A79651D8932C909FA7238647E9
:104510002BAFD1CE8C1D5B56408CC4EE47921FBA98
:10452000BE6545115C952950679CC68AD30E12273B
:104530002CDE2D325A934F77F43A6D4C86C0DE3B19
:104540004261336E659FDA92C4824E969180BF9924
:10455000EDC999314CC7DE6EC745AC08F63159BD7F
:104560000ACFB9B76D7687FBA11A76F76FF6E6C763
:104570003C8F9B369D02596BEC16ADF04AA575E257
:10458000EE82A26BA5B702C0E2FABF975293B19A2E
:10459000F3F5FA846D9559D37528EF58CCBC26AA4B
:1045A000DDBC55671A947F4867C718170E583EF14F
:1045B000800B8FB7884FD8B1CA51D1C70BC7FBA9A1
:1045C0007121AC5AFCFF1F99F72D3280AACEACDDC9
:1045D000C16D0D697A0D34699B30DDE57CA623122F
:1045E000F3902952737E8B4A0B306E7B03B79C4647
:1045F0008BE9F31CCF9C506EF9A4A4E5709BEFE807
:10460000A44588787B47AB9A0A8620D07588FD043C
:104610008907BBC5B3792BD9210AB7810C8C3E829F
:1046200076F5F4092CA1A1F1AFDC80A7E813ECEB3F
:104630006D115C45841309735389F16F6E7186CFD8
:104640006C2722844C3E0F325BB20085C271763EED
:1046500091F8C4A56D4E7E8BCDE9D88B3DFFFB064E
:104660005D87B2928FA503C4B3F28C75D1A6B34017
:10467000F9A2F23651FD79BB400D2B2C14CE55A674
:10468000B88F546AE037FC8DCA69D69A4D4230948F
:1046900040B632290E87C272DBFF5C278DD3C0ABD8
:1046A000EFC17C80E6DAB6A77AA77015FD28581905
:1046B0000E818594210AAF2995DE476CDF66FADF0B
:1046C0001DAE51859452293818470222EF1833E85D
:1046D000B0A591ABB10713AE6B965FF311FCE5DCAF
:1046E0005F8BAF22BE59DB20A22D113DC117836322
:1046F00098CF7BCD6C9754F435D890522CFDF03880
:10470000A1635F3175CFA34675E256FE1804268576
:10471000F7BD59C9C0FFB5A0A7FD9415A65CABFBBA
:10472000DCAC2BC43A7AA9A11C4CFD2E589C48EC59
:10473000582A709E2BD8A544BCC069B7B831AF10B9
:1047400043DE85D0CEA001B168B69B9EAF34FDA3F9
:104750005FDF3729C0FB13E108591AAF9417BD7BFF
:104760005D35431990C2A4F54B5A93D7301240BA25
:1047700072F9AAFF18700260C487D8C744AD1BC87D
:10478000E006E41401FC356768D4261D08506B1F51
:10479000DEFDAC5414B7108EC6DD9FB4765CFEB35C
:1047A0006A417BB0570E430DC27C917070D9C774BB
:1047B000B372F464D51D14869460B4446728EE8304
:1047C000551E1E5F7D195B1F10DCDE01F224713A5D
:1047D000D1F48E09928EEEE9D109C474A78631E531
:1047E000D7CBF945F2075929AE7F33A8C6FA0B8A11
:1047F000599852425DEBBD5C5503C4C099FCD60389
:1048000047919F62685908832384A51436A3E4C5A1
:104810002E02CF36B16669E3B74820F4022A08C7F2
:10482000C633909DE8A81A10CD1869FA10AEA54BB2
:10483000CB6E07B351C449444820C6CEFCD318B749
:104840004EE8A418865C83C5F3F995D9875424F6FD
:10485000A2ECA44ADC8C31237DB63E4D05E035E365
:10486000D7EE15125AF5B75F8D4F19F05309F17D48
:10487000BA04C6938C35C036BC6810846A88098A2D
:10488000A1BD826770D598D9E83874D692A7FAFB93
:10489000330117101BCF89FBC0CE8D0E01EF4C4B9F
:1048A0004474DA6F9DF2173C8D1ECEE32C2BF44F2F
:1048B0009F7F77E2F2B253D403026A4377A15D1679
:1048C000C84D14BB77BE1FBC42AD76AAAF200542CF
:1048D0008818936496264B601A6B11CE0D7F329325
:1048E0002BCB11D2A84DFBCCE1CB7DB51317CC8ED1
:1048F0007218E0AFDA656DEA89D5F02840CF85CA35
:10490000924D912DBAA752E4EA1F4B2A0BC1B8561B
:1049100013CCFEAEE684D6576BDBD807A6622844DC
:1049200000FDFD818AE4DCE2C08D5E193AF43BDCD7
:10493000ABE66AF11F738639AC78C1B44C31D8DF6D
:1049400075109E6F92534D8F79DCA530D3B8412BF3
:10495000A7C94F1CAB17DE4FBE3F650667CF960851
:10496000CBF73023F64281A638D55FB23C899D361D
:10497000AC192A6F00D0E705D27C9D415B9D1C508D
:104980009A3AA5C03967E08C4EADC5C92284A514FA
:10499000A211992526CE6894AB12DA986B9548132C
:1049A000E6D99612F2CF1CD27559719FA3ABA08C99
:1049B000C093DF9772698A059ED8FCB20A736404BB
:1049C0005219B908A9DEED92A43A731773A86F1FA4
:1049D0002BADFA81B6CD2477EAFA1658A47A884C22
:1049E000F4D8818FAC98AEEF9CE261C9C7AB384276
:1049F000FABF2F037B06CC1E1393E46965F7E638F4
:104A00009B6093B24BD56314D4E0E0D0A2799CD4E0
:104A10001E050C6A988603D83E3D77340376D5E0B0
:104A2000658D26F6D500A96EFD7CA098147D5D13DA
:104A3000B258319F2C15E3063C8469F15A39055D63
:104A4000CD0DC5D9D0857534BF08C3CE2C52F0F634
:104A5000E9AC0AB7EDFFE7DACB92BC49830A33A988
:104A60000D32AA3D5DD7ACFA509648E4EE1304B679
:104A70008330BDF8E6C3658DF867446DB4ADA4E539
:104A8000B3DA888F3C24FCC7C50C8BD824A526B884
:104A9000693BFDED2220D9EE7F1061005DE5B31C7E
:104AA000AC89A70B79DF18E8240AC6AA71C95E3160
:104AB000DD234C7523D3C1F39DB57A2683DF5D8F4B
:104AC0004CD97D02A0AA8CBD1A03CABC0D055105A4
:104AD000672A2199ABD87DC3B91CC8D7282552C8ED
:104AE00042249E28219F773050E194B95C891B6154
:104AF000F29ADCF474818149F77249E788A509A923
:104B0000B38131650ACAF87AD0EC49D860A57A1F1A
:104B1000DB3FE2FA6FF66D2D7093FD265D27077A75
:104B2000A5AC858EFB3175BA522A17194E11F0A328
:104B30009203BCCE2F03C84BAEFC6233C2CDB1533F
:104B40004814A468A63E3E8448A45146E131899E9B
:104B5000C3A084ED0AB672B7CEE94863DA05257EB4
:104B6000481DE5F58850EEC6D86E7545C2D97ED78A
:104B700026314958BDE96AB6989846779BF6B9DF61
:104B80008E31F2D37EECA3E6753B4D82F3B205D6AF
:104B90002ED07112BA9D60AA13E765B414B455C73C
:104BA0004A4D8E01DA8B96DF7DF1C852276500E908
:104BB0004537BFF63DA6363EC0076E23FD84D43C84
:104BC0005ED58762D68AA163397AADCF26EDEB6ACE
:104BD000E2A9E6BFB15E99B6C1AA9636D76AD4D427
:104BE0007C553A52158491D313A08F5A252F758383
:104BF000DFDCE9AEB07E70EC5617C9F8FB1CD23B87
:104C00003F07D1FD286C348DB62F7F776064D017B5
:104C10006E354E383C7C80A3DA8833BE332DD6996E
:104C200057EB48AA5808B2BD8FF5EA939E5B81C640
:104C30009D16A8AD14DF47B4CAB1DA9F92EB771482
:104C400097019CB729901385D3F3A512E803426C12
:104C5000C3EA4F26EA43B360E9C401A53AD43BAEA8
:104C6000437278EE8CDD0BE9D0E2DE11EC6623575F
:104C7000995F039D212871B3F961D629D1F6A9BEA8
:104C8000882B4E5F7575C2C9425F23388CBC7D8707
:104C90005902EA9E3D7A10E996BDA44DB1D8DDF4E3
:104CA0007B120BC8E23D14B5740F38B82EC5872FA0
:104CB0001EC2E0960280DDAEEC6229550A68BABBDE
:104CC000E7A34165E53BEBC39A3CECBB5F5D634406
:104CD000D3A42029029DC39A0FEB6E6544163F3E74
:104CE000E896DB0EF5C4197EF170466AFF14FB44AA
:104CF0007407D3592B2E2C4B5C08AAF4BA9375ABCE
:104D0000C86DA43FAB97F612A62A54C0A24CE394F8
:104D1000D8CB3B226063D86F22C6951708BE08E146
:104D200051709F0C3902C7DAE6CD2EFEF4D4C30EC3
:104D3000421C86D1397233AB8C3F81732AC7BEB512
:104D4000FE6C3215FF9366031A7BC16DFC7D4AB57C
:104D5000C744B5C40E5EDF95262640B05BDF7B728C
:104D6000044406FA032DDCD6964343A4508D4C39F7
:104D7000568E43E2DFC3D122CE5C631F281079C177
:104D80009292B0D2C0243E31E103A01595A3CB94FA
:104D90001262FDC8AAD4B61C01A6E0FE973E2AEE18
:104DA00063D82C0871FD4181390887C42559755B8A
:104DB0004B09F68C4F370CD87A79B8909088160F3B
:104DC000B83C5A005EABA168DBD82034A69A716E5D
:104DD000AAC7A1EE62E0712EBE1DF38E5E07DD0450
:104DE000863B3C7E22137738441ADA2792FD4F64C3
:104DF0003C78D00069C8DB226E70ED5AC30C5A159E
:104E0000B437675A1EE3032F6CDCF7A26FAABCC845
:104E1000AA5B1C6D80B3A672408D75F07EACEE4827
:104E2000F8AAFBC30B162AECB7A62EB252680F8263
:104E30009E39C93D935D8FE73EB590D6D015AACF78
:104E40008C300EDEFFA6914658558E978E298DC95F
:104E5000BE637D1030C73EC3BBA52145EFA63050D1
:104E6000343716BCE8739AABD2AE2DDE2589E33118
:104E70008F18DFE9CF6D1C18A5810F88540F3B6098
:104E8000BE526E691D44D872CB5623FE4245E1974F
:104E9000052A02C1D0641A73B3B30258D3734A9D72
:104EA00086602E8F6B5A555C45D58F3E130F4A97FF
:104EB0002D7B86788901C6C5FB466C93507CB30474
:104EC000CFE9A69A46779534549669DD45523C67FA
:104ED000C79217E339F9F89089700AC540061AF8A5
:104EE0004EAF172A3B57C64F7CD580399BE9C01778
:104EF000AE351323E6D60B79FA8BFA6954F4157D97
:104F00009217D349275D8DBE9A56DE8CD5D32D8658
:104F100075C41D9E9D099D2A9DBC0586EBFAE4D6AD
:104F2000791E43A8F81DF69C3AEAD02515266C2177
:104F3000ADC2B0D70B212EF9FF60BE321DD3AC74C9
:104F4000906722A5CCE900458F9F1538E49A24602C
:104F5000C06D237C354E23E9BFC615D9BFFC6E3E1C
:104F6000D8A27A7FD331E39C9888F63830713E0519
:104F70003A662113105DCF60515BC2D3FE457E526D
:104F8000AAEC62A5D27CF0BD3FDE60236338C2325A
:104F9000C435363C8EE21A0AA66C26EB79F8E38F0C
:104FA0004402F879D87EE3E4CC86FD538F7FBF2896
:104FB0002D0CF08106A6EFFF64E69FE521701D86AB
:104FC000A8B2146265A3021394131D43A36F107358
:104FD00006794BC30DEE94369665893F3547B5F497
:104FE000E0EE1CE81C08D51816AE99981527B339C1
:104FF000D9C582EB60C16E477FDD705666105BF2EB
:1050000038A4AD7F9005FEC23507A6AD36B2FD319E
:1050100064A2512CC874405238742DE643AB39ED6C
:10502000377821201115349C36699BF84EA87F698A
:1050300007FCC61ED7F181046DB6581F580FDFEC70
:10504000F2193274879F88087AAEC3D6AD1351F136
:1050500098523DF5F7AC064B5FCDE9452EE1D11FE7
:10506000127768A2149984F6601D551CEF95260AE4
:10507000F21AC64738B4CE7E597C8087175FCB10B2
:105080000F3D4923BE6C7240BFB9703150E1CDCCA9
:105090002DE0582F9B84F4CA189E462E4942810F5A
:1050A0007864AE7B9CEB5369360F2057D54D4B246B
:1050B000D6579225FF3510B2531F2AB87EC17915F5
:1050C00039D3F0E8EA93BAACDBCB34B5363A64476F
:1050D000EB1091FBCD45C3642C882FF09F25256DE7
:1050E000F06804C9766F3F45E805B371B519315BC7
:1050F0006771D635686A78504865E5A6BD1EF55CCF
:10510000CF6BD49B861C0A95D21CC2F7CAF2F42935
:105110007F6FE10B00730B3912366AB1D790BB7CFD
:10512000DF3A867BA9E5F9591F2E09775738A07C0D
:10513000927B10B1B03D13E85884F9BD83911BCA2E
:10514000B249316728539994B96B6C17398255A6C7
:1051500062ECAE58A118D84D0F3BE6E3DB290D19E0
:10516000A7A37908B4636C5DF10F59AA12CBD0479D
:10517000574D058ADBF9B4524F1770044BE2546B5C
:10518000C9428C881AADC489776D05980A0C7C3A9F
:105190008704FCF69B7FA1688A154148F57502D10A
:1051A000EB2869C7342A3C6CFDFC2098A2BB32FE78
:1051B000F80697425DC56326559ADEC1D63DA19893
:1051C00035E7C3103824297F4E3D65315854F854D3
:1051D00046AAF29DD6E697041BDDEAE317E03AF013
:1051E000158E013A7D62C11FA05B37A00A091D120E
:1051F0003CF88D501C39B444C3FD51147568D25627
:105200000758F9D2D1563990736DEC95FC34973626
:10521000DC44DECB2751EA9E579EE37615C78F8686
:105220009BF35CB9EA5D058A7AF835CBEB67ADCEC6
:105230005E6B4B84508CF7A96486D5ED6F4C3A3089
:10524000B3A66276407235769317B7EA14AD59BBB0
:105250001F5B8F6AAC1EAB2A115B34033D74E4DB29
:10526000033229643916C802099C89C0A789F00550
:1052700066FAC09FFE9AE9A438D1858D77BF1EB12A
:105280003B2C8B5994B11B569CF9C17655C1A9761C
:10529000310396E5FE4AF3432006162C5D2E7C88EA
:1052A000095C4BA1B1F69C9E06554A9A580B3B22CD
:1052B0005E565CA8966B22CB166FB4B79A6832081C
:1052C0006B21D1664DEB46FA7EF358FDA8BC8FF4F6
:1052D00082DF94FFDB51E8F5CD3EBBCF5A5C085E20
:1052E000C56A088EF3CD9DE0FAB887CD0259DB0A76
:1052F000C57BF51470F830D9A01B6C2A5774970E33
:105300009D8872D2C94EE13969DD85EE2CB2BEFEB0
:1053100030A669DC9F3DD57C71AC04FD145CB68D74
:10532000037432114939E2459E36226F78CC410828
:105330009C6CCB211F7C72FE008D2A5EFA478B731A
:10534000A2042525A4A65FFA74827FD8B00F5B154E
:105350000AE0AB844F2B69B714FAA6AAD6E5D1FBB5
:10536000CD13AB2476ECE4FB02267302B2C6658152
:10537000A22DF06D369C94FCA4D52C3CCF1DEC06E0
:105380001F7116D9A389F05A110D1311E2119CAEA9
:105390000136755BE3465D957592935B50A598D297
:1053A0001B201D23E02FFA88E3FC879B32DBFF9D47
:1053B000AABCE21E6D7AB85639C3D7DEA70D64F5D4
:1053C0005086E34A4088269742A9878EA5ACFC0008
:1053D0008CB09FE1325A4DE1C2D6C77B63A8B0DEE4
:1053E000C7A4306EC260A7A3C8498311DDA0162CE4
:1053F0004E40126926733E77B5B2C46572BD68B778
:10540000781B770D36E1BA3564582DEBAD402D2D64
:10541000E10723DB39E92E469B3B5115D1F7B01547
:105420001B55F04B2260A8ACFF9E7B669D5223A2C9
:1054300050F1ED6FF87E5EE16339457BA02E229539
:1054400086244BCF7D57A393BB96C1554C6E53B862
:1054500080001DE1F2FDB60310EB5AF9AAC437A48F
:105460003393C6F995ACA5328F00E9534A7AE7B772
:10547000B806E94A6B05EBD0D18E603343692C8BBB
:105480002A39B7106B19BD3505A78152FC3EF80AC1
:105490004F05B3232DCFC783812826A5AFAAC35FAD
:1054A000A8E83E38E6F561525E3651D3555105C93C
:1054B00099FB2C3F633EAEC082A45D52DAF300BD7F
:1054C000B8EFC632A2789F1A5B3224A52197513CCF
:1054D000A1458F977D55B9C09BCB02577CE6A8723A
:1054E0003B3D83EF21A4F3957F8C80331BEE7B79CA
:1054F000C9C10E6BD8CEC33FEEE84AD01E40792911
:105500003D1D0AE74A9113EDA131ACA86CBAC00A5F
:105510006FA5E37DA651F25944E4AF6DA8D171AEF9
:10552000ABEDBF0E584E4276EB0D62B90C5A30050A
:10553000AF0EB27F9DDE1B5FC2C1B1305894298887
:105540007A899872766B89CD89541BF196E4E2AC26
:105550002338CEB4B20A62053DA97CA163C33B1BCC
:1055600081DFC908B0657FEA37CFB10BA2D29C12A8
:1055700079E8208901AF4A6A148669230FAF292B85
:10558000BA364F430155CFCBC9DBE7FB6766E391E2
:10559000A795606B8F4D37A4778F21EF23B7431109
:1055A0001B8250A0863022C36D2718B22DBB94BD3C
:1055B0000435406EADAAF5C55799AD2988BCFB7876
:1055C0008A8D13485E39D0613C456A2F597C147628
:1055D0004DDAE89DEE9DE84F4450EFDBFCA39C01C3
:1055E000396ECE34D2A6573D0A315FAA4DD532B6B8
:1055F0005904D6D748993E8D920C5E5F0830FCE383
:105600003B6974309EC2EE407F074BD74250A7A73C
:105610000F35F3AF6B7FC7A3152E99E84714C39BD3
:10562000DACD41BE3BDCC419B38C01807DD6B234E7
:105630005C5F70BC1E1D636FC98EAFF69CFAF23AB8
:1056400080C00DD91226E079D48DF0209D426E07DE
:10565000DEF81FAF1B6176B7CB38AFC75EEA21D249
:10566000D387AAC58A54BC69D41B1C986918EA91CF
:10567000B62239FFCCDDAC778CCD287441327584ED
:10568000980B0C390817D401981A2DF3039C99270D
:10569000C9381A9F47338D61CCF47B0BF6E4BFA366
:1056A00018328012953D648F773D28E81EF5051D60
:1056B00056569275E281CBF7A97F730493D74E8932
:1056C000E43895486FEAF570D0928F0CA6259D249A
:1056D0001B77520DBA9724AF238EFCC6631DC79566
:1056E000D985ADC61C74B8D3369620F71578445DBD
:1056F000CD57B02E670AE79968A10AF8AC0D9787D5
:1057000021608E06651E5F198FA7BBE28871E1C319
:10571000A44EDFBBF7E8EEB58EBE48E821C1846435
:105720006CEC1F62AA66DC082DA97CB2C8171DA804
:1057300092FEDF9A385873B18FFDFA981CAA4C2854
:105740008CCF3DB529FB5C5B210234A7971685BD44
:105750003DFB8D7ACA0156326441A77B84CC5B97AE
:105760006074910656F4CDD7500E7D0318447435FD
:1057700063E9BE23EDA4F256136403EBEDFB2A8527
:10578000CE85F461681362EB5A63C604B951C43024
:105790008FE2F0DFF2BED95D4400F2E8160940E581
:1057A000412A65FB54BC0C86D4CF95DAD5D555A1DA
:1057B000F832D7CC411BD27B8DD32B5C5782EF4E76
:1057C0000B3DE571EE7FB54AF2ED3E1E7755F05484
:1057D0002AE6527DB1008AD03C23E24B189471270F
:1057E00049831A3FE64A28C3684EF35197E0864A38
:1057F000B4398E63826957CE6A80159EECC72A69D8
:10580000D959F9464D2A2383DB34CDB484458B82A4
:1058100017A81514839E25E6FB094AE7037D37DAAE
:10582000D48BF5BC959B6B750A022829A77B792B35
:10583000F6DD7D509E622790CB368D9E3DFE9FE724
:1058400032486D4E0B17614EB646B63A2A288B6821
:1058500090C93B5A9B814B3B558E7CD9346F383B6A
:105860002C0D5780D7C5DEB5F1317345B48987C19A
:10587000DCDB4A3680441090F2806933602F256C5F
:105880009CBDD5FC5AB51305D43FA356153D5DB755
:10589000DD3979D8FC4A06DC1E3F8A6F94A86BDD9F
:1058A000EBE2582F81A6FD16CB7C0999DD056C082B
:1058B0000F5FEBDC3427CB0CDCCF47370311B1444F
:1058C000A8ACA1D4C011FC6993A9A952DB866BC115
:1058D000CD76FFAFFAFED1F0B192E1EB1DB5D3CC9E
:1058E00083140D9F60F7AF9A9D0E4862C71FC90BC6
:1058F000B1AD36DDD6553092974359E4FF5FDE6493
:10590000776C4FF304A1BF462AC7124FD275B86E09
:105910009B66FA991200B2A266041B03708B7C2F5F
:1059200034102255ACB5F5AFFC527C1F7EAF9B16F0
:105930008B6903DFB7979DEEE9C62FB33E2742443C
:10594000F3054A93E62151F3191A82E94C64EF58A2
:1059500061EE1827040DB07DDC72A846E515558868
:1059600094FA75D3A91A5915365D3646D3020455F3
:10597000284DDEB4AD8D9E0A1E15A2F1EEA22511B2
:105980004151987F8339B3A12CB82603D065D852F2
:1059900016AF444E64FC00D26AC41DF69D5E1B6DBA
:1059A0000E54F2F578A2C83A7D417F472DD0D7ED4D
:1059B00043E1EE0DD02400BBC9C997315E45815E3D
:1059C00022D00843AC537D5073388F5D287D0C3452
:1059D000761737431BB598FFF333B7A5C0D1676E71
:1059E00068F584EE34E1BAFCFAAEDB565D2227BAE4
:1059F000D2FB82429F06CEB14EA41AA670C6D2AD8B
:105A0000919DAA9C01E060455CC5785B3A17C0C7D0
:105A10002A141234EE45D5345F9D311F07D365EF4C
:105A200034946C133873763E111D61DD75644552F4
:105A3000449AAADF981C4F92A14AD32EB227FED5D2
:105A4000FEDBE83AEE7D059CDA8AD791C2EB013A9B
:105A5000232D7184AA7BEDA745FB6C2320E51D391E
:105A600029EBD8B5F46C2CF69CEEBC809A2E6E6DAA
:105A700011394984E7CCA62A9BBE6E0A1526D01B95
:105A8000BD05EE59251709339397DAE819EAC6AC34
:105A900058BF6208C9D4403287D98C0429A2EB07C9
:105AA0004B65E40F28A14AACF5398A5ED8C451137E
:105AB0006EF3A806D8A7E4341DC28A2D5ECA3E1F25
:105AC000BE5B1D7F18D9BAEBEA3281765EE54022D3
:105AD0009D5ACA0D8B73C15966401972B6AB89863F
