:020000040800F2
:10000000F8250020450100084F0B0008F90A0008F8
:100010004D0B0008B5010008AB13000800000000FC
:10002000000000000000000000000000EB100008CD
:10003000D702000800000000CF0B0008F3100008F2
:10004000D1130008CD0B0008E9110008C90F000802
:10005000AF080008250E0008D9020008E1020008D8
:10006000E5020008E9020008ED020008DD010008D1
:10007000E1010008E5010008E9010008ED010008C0
:10008000F1010008F5010008B1010008A7130008FC
:10009000A9130008B7010008B9010008F10200081F
:1000A000EB110008F1110008EF110008ED11000834
:1000B000091200081D12000835120008FF0A000886
:1000C000FD0A0008030B0008010B0008E5100008FA
:1000D000E71000085D120008D91200085513000847
:1000E000DD020008B90E0008A51300083F12000841
:1000F000451200084312000841120008B30100082D
:10010000E10800080510000839120008E91000088D
:1001100053120008571200083B1200083D12000855
:10012000F9010008FD0100080102000805020008AD
:10013000DFF80CD000F02AF800480047511C0008F6
:10014000F8250020004800473101000840EA01037B
:100150009B0703D009E008C9121F08C0042AFAD27D
:1001600003E011F8013B00F8013B521EF9D2704741
:1001700030B504460020034600E05B1C934203D2E6
:10018000E05CCD5C401BF8D030BD0000064C074D54
:1001900006E0E06840F0010394E807009847103457
:1001A000AC42F6D3FFF7C8FF7CDB00089CDB0008FD
:1001B00070477047FEE770477047000030B5034650
:1001C00000200246044D03E09C5C4440521C285D24
:1001D0008A42F9D330BD00007CDA000800F03AB85A
:1001E00000F038B800F036B800F034B800F032B89B
:1001F00000F030B800F02EB800F02CB800F02AB8AB
:1002000000F028B800F026B8C10002D50249086005
:1002100070470249486070470404024000000240F1
:100220000029016802D041F0010101E021F0010143
:100230000160704702460020D10001D5034900E06B
:1002400003490968114200D00120704700040240B0
:100250000000024010B501F0B4F81020FFF7EAFFEB
:1002600001281BD04FF480542046FFF7E3FF0128FC
:100270001AD024032046FFF7DDFF01281BD0124CC3
:100280002046FFF7D7FF01281CD12046FFF7BCFF0F
:100290000E480021BDE81040FFF7C2BF1020FFF755
:1002A000B3FF00210A48F5E72046FFF7ADFF0848F5
:1002B00000212830EEE72046FFF7A6FF0448002182
:1002C0006430E7E710BD0000000001105804024050
:1002D0001C0002407047704700F04CBA00F04ABA68
:1002E00000F048BA00F046BA00F044BA00F042BA52
:1002F00010B5402000F00EF80548D0F8180108B9F4
:1003000001F072F9BDE81040402000F003B8000091
:1003100000002142014908607047000014040140B8
:1003200070B52A4A0C46811A1315D614904243D050
:1003300014DC2749274D41184FF6FF721BD0994214
:1003400027D0B14241D10121102000F041FC6004CE
:1003500001D4200439D50121112008E099422ED082
:10036000B1422FD0B1F5406F2FD101210802BDE875
:10037000704000F02DBCA00405D4600403D4200418
:1003800001D4944202D1012105200AE00121042078
:10039000EDE7200703D4E00601D4944209D10121FE
:1003A000092000F015FC2846BDE87040012100F04E
:1003B0007FBB01210820DAE701212020D7E70121B6
:1003C0004020D4E701218020D1E770BD0014014016
:1003D00000F8FEBF0002300070B50C460546FFF77E
:1003E0009FFF48222146284600F09CF821462846D7
:1003F00000F0FEF80C21204600F004FA21462846C1
:10040000BDE8704000F06AB910B5012000F09EF818
:10041000434C18B1208840F0010006E0022000F0B3
:1004200095F820B1208840F00200208010BD042003
:1004300000F08CF818B1208840F00400F5E708209F
:1004400000F084F818B1208840F00800EDE7102093
:1004500000F07CF818B1208840F01000E5E720207B
:1004600000F074F818B1208840F02000DDE740204B
:1004700000F06CF818B1208840F04000D5E78020EB
:1004800000F064F818B1208840F08000CDE74FF408
:10049000807000F05BF818B1208840F48070C4E7E9
:1004A0004FF4007000F052F818B1208840F400704A
:1004B000BBE74FF4806000F049F818B1208840F4A1
:1004C0008060B2E74FF4006000F040F818B1208877
:1004D00040F40060A9E74FF4805000F037F818B1FD
:1004E000208840F48050A0E74FF4005000F02EF830
:1004F00018B1208840F4005097E74FF4804000F096
:1005000025F818B1208840F480408EE74FF4004071
:1005100000F01CF8002889D0208840F4004084E7CF
:100520000C00002008B5ADF8001002218DF8021073
:100530008DF80320694600F06BFA08BD02490A688D
:1005400002430A607047000010040140064A014659
:1005500000201268044B0A4014331B680B4202D07F
:10056000002A00D0012070470004014030B5827994
:100570001D4C01687AB31D4A13688B431360111D2B
:100580000A6803689A430A6001792144D1F800247B
:1005900003681A43C1F80024144A0832116803683A
:1005A00099431160131D19680568A94319604179C1
:1005B000102907D02144D1F8002400680243C1F873
:1005C000002430BD11680468214311601968006877
:1005D0000143196030BDFFE700792044D0F80024C2
:1005E0008A43C0F80024F5E7000001400004014000
:1005F000F0B4384D034600200A465C1B2E15EF145C
:100600000146AB4213D008DC334C1B1916D0B34261
:100610000BD0BB4212D1022010E0B44209D0BC4240
:1006200009D0B4F5406F09D107E0012006E00320AE
:1006300004E0042002E0052000E00620B2F5807FFF
:1006400038D012DC102A2DD008DC012A3FD0022A33
:1006500022D0042A22D0082A39D121E0202A23D00E
:10066000402A23D0802A32D122E0B2F5805F27D001
:1006700008DCB2F5007F1FD0B2421FD0BA4226D1AB
:100680000B2124E0B2F5005F1CD0B2F5804F1BD0E7
:10069000B2F5004F1BD119E0012118E0022116E04C
:1006A000032114E0042112E0052110E006210EE0F0
:1006B00007210CE008210AE0092108E00A2106E0F0
:1006C0000C2104E00D2102E00E2100E00F21F0BC1E
:1006D00000F08AB90014014000F8FEBF08B5B1F57A
:1006E000807F35D012DC102930D008DC012925D0DC
:1006F000022925D0042925D008292CD124E020293D
:1007000026D0402924D0802925D121E0B1F5805F71
:1007100020D009DCB1F5007F1AD0B1F5806F19D077
:10072000B1F5006F17D115E0B1F5005F12D0B1F54A
:10073000804F0FD0B1F5004F0DD10BE006200AE03D
:10074000072008E0082006E0092004E00A2002E073
:10075000172000E028208DF8000000208DF801000F
:100760008DF8020001208DF80300684600F0F0F9D2
:1007700008BD000008B50020ADF80000FFF744FEFA
:1007800000F01FFE1E48BDF8001001800120FFF799
:10079000C1FD0220FFF7BEFD0420FFF7BBFD0820CE
:1007A000FFF7B8FD1020FFF7B5FD2020FFF7B2FDE1
:1007B0004020FFF7AFFD8020FFF7ACFD4FF48070C5
:1007C000FFF7A8FD4FF40070FFF7A4FD4FF4806021
:1007D000FFF7A0FD4FF40060FFF79CFD4FF4805041
:1007E000FFF798FD4FF40050FFF794FD4FF4804061
:1007F000FFF790FDBDE808404FF40040FFF78ABDC9
:100800000C0000201CB54FF4807290422BD012DCFB
:10081000102844D008DC012839D0022839D0042817
:1008200039D0082820D138E020283AD040283AD0C2
:10083000802819D139E04FF48052904213D008DC5F
:100840004FF4007290420ED0520090420BD05200F2
:1008500007E04FF40052904205D05200904202D07F
:100860005200904200D1144600208DF804008DF80B
:10087000051001208DF8060000946846FFF776FE0B
:100880002046FFF75BFE2046FFF744FD1CBD012418
:10089000EAE70224E8E70424E6E70824E4E7102472
:1008A000E2E72024E0E74024DEE78024DCE770472D
:1008B00004490A6822F010020A600A6802430A60CA
:1008C000704700000020024004490A6802F0380224
:1008D0000A600A6802430A60704700000020024074
:1008E0007047000070B50C46002852D0294A811A82
:1008F0001315D614904243D014DC2749274D4118D4
:100900004FF6FF701BD0994227D0B14241D101214F
:10091000102000F05DF9600401D4200439D50121D4
:10092000112008E099422ED0B1422FD0B1F5406F8E
:100930002FD101210802BDE8704000F049B9A1049F
:1009400005D4610403D4210401D4844202D10121DD
:1009500005200AE001210420EDE7210703D4E10688
:1009600001D4844209D10121092000F031F928463F
:10097000BDE87040012100F09BB801210820DAE7B2
:1009800001212020D7E701214020D4E70121802048
:10099000D1E770BD0014014000F8FEBF0002300036
:1009A00038B50446ADF8001002228DF80220482028
:1009B0008DF803002046FFF795FF6946204600F0BA
:1009C00027F838BD38B50446ADF8001003228DF87D
:1009D000022010208DF803002046FFF783FF6946B0
:1009E000204600F015F838BD10B58A0721F0030441
:1009F0000649120F21440F238C6893409C438C605E
:100A00008B68904003438B6010BD000000000140E4
:100A1000F0B50022002849D0CC7804F00F03E4069A
:100A200001D58C7823430C784FF00F0C14F0FF0F96
:100A30004FF0010E1AD005680E880EFA02F4264017
:100A4000A6420FD196000CFA06F725EA070703FA2B
:100A500006F5CE783D43282E00D14461CE78482E4D
:100A600000D10461521C082AE6D305600A88FF2AD7
:100A70001CD94468002202F108060EFA06F50E8819
:100A80002E40AE420ED196000CFA06F7BC4303FA94
:100A900006F7CE783C43282E00D14561CE78482E0B
:100AA00000D10561521C082AE5D34460F0BD000066
:100AB000F0B5104D6B68440D260184B2C0F30157A8
:100AC000B440C0F30342032F05D0C0020AD503206F
:100AD0009040834307E0686823F0706220F0706004
:100AE000686002E0A34343F0706201B122436A6090
:100AF000F0BD000000000140FEE7704770477047FE
:100B000070477047AFF3008002494AF6AA20086098
:100B1000704700000030004081070CD16421B0FB19
:100B2000F1F201FB120141B94FF4C871B0FBF1F2CF
:100B300001FB120008B1002070470120704710B57A
:100B4000FFF7E0FFBDE8104000F02BBCFEE7704768
:100B500070B50F25C2780178012652B31A4A12687F
:100B6000447802F4E062C2F5E062120AC2F10403C2
:100B7000D54082789C402A40224314018A07D30E34
:100B800021F0030202F1E0229C40D2F80054FF2140
:100B900099408D430C402543C2F80054007800F082
:100BA0001F018E404009800000F1E020C0F8006184
:100BB00070BD01F01F0086404809800000F1E02070
:100BC000C0F8806170BD00000CED00E07047704718
:100BD000044A0029916901D0014300E081439161F9
:100BE000704700000010024070B5002400F068F863
:100BF0004FF48035284600F0F5F8681E2146641C45
:100C00008142FBD300F03EF9012803D0BDE87040DB
:100C100000F025B81020FFF74BFE0220FFF754FE2E
:100C2000002000F0D5F8002000F008F94FF48060B3
:100C300000F0FAF84FF4E011284600F00FF9012017
:100C400000F006F9392000F0A3F80028FAD00220BD
:100C500000F00EF900F0B4F80828FBD170BD10B513
:100C600000F02EF8012000F0D7F8202000F090F8D6
:100C70000028FAD0002000F0ABF8002000F0DEF8E9
:100C80004FF4806000F0D0F80220FFF71DFE102026
:100C9000FFF70EFE4FF46011002000F0DFF8012096
:100CA00000F0D6F802E0022000F0E2F8392000F06F
:100CB0006FF80028F7D000F083F80828FBD110BDAA
:100CC0000B48016841F0010101604168094A114087
:100CD00041600168084A11400160016821F48021E7
:100CE0000160416821F4FE0141600021816070478C
:100CF000001002400000FFF8FFFFF6FE30B5204A6A
:100D00005168204B11F00C0103D0042901D00829AF
:100D100001D0036011E05168022301F4701103EB6C
:100D20009141536813F4803F02D053689B0301D56F
:100D3000154B00E0134B5943016051680F2303EA40
:100D40001111124B5C5C0168E14041605468072559
:100D500005EA14241C5D21FA04F48460546805EA51
:100D6000D4241B5DD940C1605268032303EA923248
:100D7000064B1B1F9A5CB1FBF2F1016130BD000014
:100D80000010024000127A0000093D00681D0008B2
:100D9000034600205909094A01290AD002290AD02C
:100DA000516A03F01F02012393400B4200D001203F
:100DB00070471168F5E7116AF3E700000010024080
:100DC0000248406800F00C0070470000001002402C
:100DD000034A516821F0F00101435160704700005F
:100DE000001002400B490A6822F480320A600A6847
:100DF00022F480220A60B0F5803F07D0B0F5802F42
:100E000003D1086840F4A02008607047086840F4E7
:100E10008030F9E700100240014908607047000087
:100E20000000424270470000034A516821F4E0612B
:100E3000014351607047000000100240034A5168AE
:100E400021F4605141EAC000506070470010024038
:100E5000014908667047000000004242034B5A688F
:100E6000084322F47C12104358607047001002407F
:100E7000034A516821F003010143516070470000AB
:100E80000010024030B50B4C40F2FF153120FFF747
:100E90007FFF20706068401C6060207810B9606837
:100EA000A842F3D13120FFF773FF002800D00120C2
:100EB00030BD0000040000207047000002490A888D
:100EC00082430A8070470000042800402DE9F04763
:100ED00000F060F8DFF8AC800546B0FBF8F32A4874
:100EE0002A4E018899422CD0038040F2B2744FF40C
:100EF000B7774FF4B6790CE02046FFF70DFE20B12E
:100F0000BB4208D3A3F5B77301E0A3F26D13641CD1
:100F1000A4B24B45F0D8B48000241D4F0BE0B0883C
:100F2000FFF7FAFD08B1012C28D0385D984204D8AB
:100F30001B1A641CA4B21C2BF1D2641CB4715B1C80
:100F4000F371B5FBF8F108FB11504FF46161B0FB90
:100F5000F1F23270B0FBF1F201FB12033C22B3FB61
:100F6000F2F37370B0FBF1F301FB1300B0FBF2F18D
:100F700002FB1100B0700020BDE8F0871D2BDCD310
:100F80001D3BD6E7805101000E000020AC0100207F
:100F9000781D0008034800880249091F098840EAB3
:100FA000014070471C28004006490988C2B2114020
:100FB000044A121F1288024202D009B10120704770
:100FC000002070470428004010B50120FFF7ECFF17
:100FD00008B1FFF77BFF0220FFF7E6FF10B1022008
:100FE000FFF76CFF0520FFF769FFBDE8104000F038
:100FF00001B80000024801888906FCD5704700004E
:10100000042800407047000070B500F06FF801211F
:101010001248FFF7D7FC124E4FF400713046FFF72D
:10102000D1FC01213046FFF7CDFC0E4C0125C4F860
:1010300080510221304604F5C074FFF7C3FC65609F
:1010400004213046FFF7ACFC074800F083FABDE806
:1010500070404FF47A7000F04FB800000008014073
:10106000000C014000802142440000202DE9F041A5
:10107000194CD4F808010025184F012638B1C4F8DE
:10108000A451C7F88061BDE8F04100F055BC00F004
:101090009FFA13490028088800F1010080B20880F7
:1010A00003D032280DD30D80E9E7B0F57A7F0AD05E
:1010B00041F65832904204D90D80C4F8A451C7F8C3
:1010C0008061BDE8F081C7F88051C4F8A461BDE833
:1010D000F04100F059BA0000008021420000214296
:1010E000000000207047704770477047FFF77CBDD5
:1010F000704700F077B8000010B504002BD01648F8
:10110000FFF7FCFD4FF0E021086920F002000861C4
:10111000086920F001000861086920F004000861F6
:101120000D480E4A0068B0FBF2F060434861086960
:1011300040F002000861086940F0010008610020E9
:101140008861086940F0020008614A690448026049
:10115000096989B2416010BDB801002000127A000F
:101160001000002038B54FF000040500009428D08E
:101170001448FFF7C3FD4FF0E021086920F002009A
:101180000861086920F001000861086920F0040086
:1011900008610C480C4A0068B0FBF2F068434861F3
:1011A000086940F0010008618C6188690028FCD062
:1011B00088690028FCD1054802684A618C61406852
:1011C000086138BDB801002000127A00100000202C
:1011D0004FF0E020806970474FF0E0204169816165
:1011E0004069704700F0EDB870477047704770472E
:1011F00010B500F02CF8BDE810400121014800F0C6
:1012000023B80000002C014010B500F020F80121A7
:10121000BDE81040880700F017B8000010B500F0D6
:1012200016F8BDE810400121014800F00DB800009B
:101230000004004000F00BB87047704770477047DB
:101240007047704700F003B8C9430182704700F04F
:10125000B8B800F0B6B800F0B4B8000070B51D4DD5
:1012600040F226642146284600F07CF8B0B12146C1
:10127000284600F071F8284600F0BCFC70B1284602
:1012800000F08AFC040024D0002100F0F6FC0121CB
:10129000204600F0E2FC284600F032FD40F22444F3
:1012A0002146284600F05EF8002812D02146284644
:1012B00000F052F8284600F09DFC002809D028468E
:1012C00000F06AFC002804D02846BDE8704000F019
:1012D000E5BC70BD0038014070B51D4D40F226647C
:1012E0002146284600F03EF8B0B12146284600F0DD
:1012F00033F8284600F07EFC58B1284600F04CFC3C
:10130000040023D0002100F0B8FC0121204600F0A9
:10131000A4FC284600F0F4FC40F224442146284670
:1013200000F020F8002811D02146284600F014F8DB
:10133000284600F05FFC20B1284600F02DFC002874
:1013400004D02846BDE8704000F0A8BC70BD000085
:101350000044004000F035B80A0A01219140C94319
:101360000180704770B501F01F0501260024C1F30C
:10137000421306FA05F2012B0FD0022B0FD0838AFD
:101380004FEA11210088134206FA01F600EA06002E
:1013900001D000B10124204670BD8389F0E7038AA3
:1013A000EEE77047704770477047FEE710B5FFF7EC
:1013B000A4FBFFF79DFEFEF78DFFBDE81040FFF791
:1013C00023BE10B5FFF7BBFBBDE81040FFF74EBED4
:1013D000704702E008C8121F08C1002AFAD17047FE
:1013E0007047002001E001C1121F002AFBD17047A5
:1013F00010B500F075FA012802D0FF2821D024E0B2
:1014000013484068018B012906D0022909D003291D
:101410000CD004290ED012E090F8221080F864114C
:101420000DE090F8231080F8651108E090F8241082
:10143000817604E090F82510C17600F00BF80120C9
:1014400010BD00F0BFFA00F09FF8002010BD0000B2
:101450003C000020204810B540680022062490F887
:101460006511222907D00223DD2917D0882920D031
:10147000772923D02EE080F82C2180F8664180F86F
:10148000212080F8422190F8411121F0010180F8DB
:10149000411180F85B2180F857211BE080F866310C
:1014A00090F8411121F0020180F8411180F84221A9
:1014B00010E080F85C2180F866310BE080F8602154
:1014C00080F8572190F8411141F0010180F8411155
:1014D00080F86641012010BD3C00002070B51B481B
:1014E0000024416891F86501222806D0DD2807D044
:1014F00088280CD0772811D016E000F0F1FA13E01C
:1015000091F82C0114280FD100F00CF90CE091F89F
:101510002C01142808D100F07DF805E091F82C0189
:10152000142801D100F076FA094DD5F818010028E9
:101530004FF0010009D1FFF715FE2046641CE4B20C
:10154000C828F2D900F03EFAEFE770BD3C00002059
:101550000000214210B5084C402160600748FEF7AA
:101560003BFF0748FFF7CAFB054806490068B0FB88
:10157000F1F06168087010BD3C00002000080140D7
:10158000E021002000127A000B4840684169491CA4
:101590004161002101838176C17641778177C177EE
:1015A00080F8421180F8641180F86511012180F8FB
:1015B00066110846704700003C00002003490720E0
:1015C000496881F866010020704700003C00002057
:1015D0000448406890F86601072801D00020704751
:1015E000012070473C00002010B5FFF7F5FD0849C9
:1015F000496848600869401C0861088B042802D2C9
:10160000FFF7F6FE01E0FFF769FF002010BD0000C4
:101610003C0000202DE9FC41414E00240325706868
:1016200090F86611022904D0032943D00020BDE8B8
:10163000FC8190F85711C90723D190F85B11384805
:10164000A1274068233011B1012908D012E00321FD
:10165000FEF7B4FD716881F85A01042006E0032109
:10166000FEF7ACFD716881F85A01062081F8580137
:1016700081F85971706890F85A114177012180F80A
:10168000571100F085F9012848D1706890F85C1175
:1016900011B1022903D041E090F858111CE080F804
:1016A000664180F8574190F85B11491C80F85B1146
:1016B000048333E000F06CF901282FD1706890F8B2
:1016C0005C11491CC9B280F85C11012902D00229C1
:1016D00006D023E090F85911417780F866511DE05B
:1016E0000094019430F8231FADF8001081788DF834
:1016F000021090F837118DF8031090F835118DF81D
:10170000041090F836018DF8050006216846FEF7B2
:1017100055FD71684877022081F86601012086E74F
:101720003C0000202DE9F047484D4FF00309686860
:1017300090F86611022902D003291ED03CE090F8EF
:10174000411189070BD403212330FEF737FD696867
:10175000487791F8410140F0020081F8410100F022
:1017600017F9012870D1686880F8669190F84111E6
:1017700021F0020180F8411166E090F841114FF02C
:1017800000088A0730D4C90719D0314E002440F22E
:10179000B34704EB840006EBC0016868142200F232
:1017A0002D10FEF7E5FC20B3641CA4B2BC42F0D3BC
:1017B000BC420BD3FFF702FF0020BDE8F08700F228
:1017C0002D11142200F24310FEF7C0FC686800F2ED
:1017D000431290F8411141F0020180F8411180F864
:1017E000428118F80210417700F0D2F801280CD09D
:1017F00022E004EB840006EBC0016868142200F2CA
:1018000043101431FEF7A2FCD2E7686890F8421149
:10181000491CC9B280F84211142904D200F24312C3
:10182000895C417708E00BD14FF0140100F24310BE
:10183000FEF7C4FC69684877696881F8669103E03F
:1018400080F86681A0F818800120B6E73C000020EF
:10185000841D00082DE9F0411F4E0024802570688A
:1018600090F86611012902D009B1062931D1002171
:1018700041801A4FC1600AE0FFF7AAFC022805D296
:101880002CB97068C168491CC16004E00024D7F815
:1018900018010028F0D0FFF79BFC716840F2654406
:1018A0008860CA684B68624303EBC202101AC860C2
:1018B0000A78B0FBF2F080B24880B0F5AF7F01D972
:1018C000FF2506E0322801D9002502E00F2800D2CA
:1018D00001252846BDE8F0813C000020000021429F
:1018E00010B5FFF7B7FF134B5968CA7F5208CA7784
:1018F000B8B1012817D0FF2812D0887F401CC0B291
:101900008877082813D300208877088BFF280ED803
:10191000CA7F223142545868018B491C018301203F
:1019200010BDCA77E9E742F08000C877E5E70020FC
:1019300010BD00003C00002003490020496881F8E8
:1019400066010120704700003C00002010B50E4CDD
:10195000216821F040612160216841F040712160DF
:101960000A490022C1F89821C1F898011E20FFF70A
:10197000F9FB206820F070602060206840F0006073
:101980002060012010BD000000080140000021423D
:1019900010B50B4C6068407F00F00100FFF7D6FFE8
:1019A0006068417F49084177017F491CC9B20177CE
:1019B000082903D300210177012010BD002010BDAC
:1019C0003C00002070B5114C206820F04060206081
:1019D000206840F0407020600D4D0026C5F89861E9
:1019E0000120C5F89801142005F5CC75FFF7BAFB66
:1019F0002E607820FFF7B6FB206820F07060206032
:101A0000206840F000602060012070BD00080140A7
:101A100000002142F8B5314E00240625706890F888
:101A20006601062804D002282CD0032842D053E0B7
:101A3000FFF756FF01284FD17068022490F860111B
:101A4000491CC9B280F86011012902D0022909D0CD
:101A500042E0C17F80F85D1180F85E51018B233038
:101A6000491E08E0C17F80F85F1181F001008DF808
:101A7000000001216846FEF7A1FB7168487781F8F4
:101A8000664129E0FFF784FF012825D17068032211
:101A900090F86011012904D0022905D080F8664130
:101AA0001AE090F85E1101E090F85F11417780F83C
:101AB000662111E0FFF76CFF01280DD1706890F8E6
:101AC0006011012902D0022903D005E080F8665197
:101AD00002E080F8664104830120F8BD3C0000204C
:101AE00038B52C4C606890F86601062804D00228AE
:101AF0002ED003283BD02FE0FFF7F2FE012847D17C
:101B0000606890F82C11142926D2C27F00F22D10A3
:101B10000A54606890F82C11491CC9B280F82C1145
:101B2000012911D000F596704A1E085C012142403F
:101B30008DF800206846FEF741FB616848776168D0
:101B4000022081F8660123E0018B2330491EF2E771
:101B5000FFF71EFF012801D0002038BD606800F5A6
:101B6000967190F82C21515C417703210EE0FFF72C
:101B70000FFF01280CD1606890F82C11142904D3B0
:101B8000002180F86611018302E0062180F86611C9
:101B9000012038BD3C00002010B5044600F02AF8B2
:101BA000002804D00D490E488C4201D1006810BDB8
:101BB0000C498C4201D1406810BD0B498C4201D1C7
:101BC000806810BD09498C4201D1C06810BD084928
:101BD0008C4201D1006910BD002010BD00380140C9
:101BE000CC2100200044004000480040004C004050
:101BF000005000401149104A0978904202D101F08A
:101C0000010070470E4A904202D1C1F34000704774
:101C10000C4A904202D1C1F3800070470A4A9042B8
:101C200002D1C1F3C0007047084A904202D1C1F30B
:101C30000010704700207047003801401800002055
:101C40000044004000480040004C0040005000406C
:101C5000FFF7ACFBFEF773FFFCE7426922B1038B91
:101C600009B1536100E013614268002A02D0008983
:101C700009B15061704710617047C26822B1038A90
:101C800009B1136100E053614268002A02D0008963
:101C900009B110617047506170470000124A134942
:101CA000904203D10A7842F001020A70104A904231
:101CB00003D10A7842F002020A700E4A904203D120
:101CC0000A7842F004020A700B4A904203D10A7863
:101CD00042F008020A70094A904203D1087840F0A5
:101CE0001000087000207047003801401A000020E2
:101CF0000044004000480040004C004000500040BC
:101D0000124A1349904203D10A7842F001020A7044
:101D1000104A904203D10A7842F002020A700E4A39
:101D2000904203D10A7842F004020A700B4A9042B2
:101D300003D10A7842F008020A70094A904203D19E
:101D4000087840F01000087000207047003801400B
:101D5000190000200044004000480040004C0040B2
:101D600000500040020406080000000001020304C5
:101D700001020304060708091F1C1F1E1F1E1F1F48
:101D80001E1F1E1FB8D3AA2082FED1F07C0A078E28
:101D900026C7DE10CAA32CC84112959913D1B50DE0
:101DA0003E178DB110A646CA799945180F4167981C
:101DB000038733C98CC946AEB25715F04BE3F544DF
:101DC0007DD5ADBB2D39D8750057B7B86B1995C205
:101DD00092494B448C6E1169903C2A73F110533A2E
:101DE0000CC4D020249320CDA382C7040A1469C94F
:101DF000C3DBB64160B0C445C510A21954BF44BE90
:101E0000B5EFA1AD938FDD332C30B0E35FD7FBECA2
:101E1000CC7C9C86DA25CE453A5636209D562D43FD
:101E20002E85296880139DD6BF7C82F2E17797A426
:101E3000EFFEC31C93D100D4454F25F45F15500F1E
:101E40005D151C158EE5AFCFBCBB4146EC8D313B1B
:101E5000CFAD8A2EAAF9AA26C1FFF1D29591AAEA9E
:101E60005954B372A55186EFD6310BEEE7DCAC9A2C
:101E70008FAEFB8CCC6A62A65FE5F92C9837EDEB50
:101E80004C6A774968D3B5632ECB3EC32A40012004
:101E9000B8D0B32AC50F8CBB1ED5D7EC1A922979BE
:101EA000350D0698E4AAD8D7465A89B895B0CE24FD
:101EB000562ACC5509EF448466451A3EC7C1C5066B
:101EC00059D7A69797A5AB67B2020DF80796285C7D
:101ED0004820F7115CF79732F73AB90A0CF52CF95C
:101EE000D9AAEA1EA8A7EAF9412FCF0046330EEA85
:101EF000ECF8718B6EDD8A2272A6522A88C8DC1833
:101F0000FFE4E63836C3D0550795616091847DA023
:101F1000BC4E0E89588B3C9FF6D64788FCCD7ECFB1
:101F2000DCF09C5BAEDC521527C48C373E2D70E68E
:101F300098F8EC723DC53D8DBD01AE2C2C20E525F9
:101F400091A09AD0CBEDCA832AE8BCF82C610F1E71
:101F500047BD457708FEC871ED5B5F5CC183DC4D12
:101F6000DEA0BBE4132F41663120410B825E079552
:101F700025306290FC4651756B17A7C6849AEA0615
:101F8000D6BCE3D9FB0529228785DBA2D79B9DD64A
:101F9000788079770995C63B224B98935717ADBC4B
:101FA00061E9AF49F31E90950D575294D20AD3A51B
:101FB000143E64E080139DD6BF7C82F2E17797A443
:101FC000EFFEC31C93D100D4454F25F45F15500F8D
:101FD0005D151C158EE5AFCFBCBB4146EC8D313B8A
:101FE000CFAD8A2EAAF9AA26C1FFF1D29591AAEA0D
:101FF0005954B372A55186EFD6310BEEE7DCAC9A9B
:102000008FAEFB8C9F33F642510E495DBD4B47515D
:10201000690B1EDDCFCCE023A7F9822FE2752EA33A
:10202000E264267EE1CAB4EF19B0BA95BA4F99E0DE
:1020300071A06465892574F008D65AC98FCFF4243D
:10204000DC3AAABEF4B83543CCE6B972F5B676BC34
:102050009132360F496AD3F66359F26BB60EBE72EF
:10206000B05FD7FC11083885F7A631B52BBB6DB032
:10207000383D098D0AADA74C245CA9E946330EEA28
:10208000ECF8718B6EDD8A2272A6522A88C8DC18A1
:10209000FFE4E63836C3D0550795616091847DA092
:1020A000BC4E0E89DD67932817FF2179753E576472
:1020B000E8D037B7E688B5F2DD36AE4F066E83BF9F
:1020C0003E32AAC0AED5CA5431E3585516E35ED3AA
:1020D000B28B9DC91D3E68D1A431E859DFD8DEF22C
:1020E00022090F489024B0CE0E97F7C761B4CA0EEC
:1020F000145BC96D132F41663120410B825E079539
:1021000025306290FC4651756B17A7C6849AEA0683
:10211000D6BCE3D9FB0529228785DBA2A34A7CB480
:10212000192E7A79C863AE82EE7B768160D39A5895
:10213000434C7111A0892C43AA109482EFFB787153
:10214000AA66CD700AD8E7164CBA7BB079BD34F4D4
:1021500085DF4DF4253451FE97B21364F6A4ADE447
:10216000AC645DAF95B53CDDC50100BE4D9B162846
:102170006643B9859C46E2B71A917FEAE01C21BD0F
:10218000426518916F1A56E6C9351FCBEFB3638FBE
:10219000C73646D2ABDDD2B29197FC5DF70032D1A3
:1021A000479A2D4B7E0C46D1F58E464DEBFE2927E6
:1021B00060455CBD9F836CD291D796BA84F72FA2FD
:1021C000DFB3BD7D37AECC34EDC4A22AF19F41D937
:1021D00005970302C8A4F9DC8ED13FF354A56D86A0
:1021E000359F85F3F41969F1E4200A9BB0B7C0B4B8
:1021F0002E3C527508726423F5A9B558D8DF6A5091
:10220000B944294EDB9E924FF6E36E019A46635322
:1022100095C99373570516B9DA4961CEA166BFBE59
:10222000BDB13E0E17F6188D0D3303E54610310B88
:10223000134F206E54BF44BEB5EFA1AD938FDD3375
:102240002C30B0E35FD7FBECCC7C9C86DA25CE4506
:102250003A5636209D562D432E85296857FEE9892A
:10226000782519ECB821B87B07F2562D78E114C512
:102270002F8376CF916DFC89639E2CE25AD175E352
:10228000A2014C2B9613932B646F71BE1B6CCA601A
:1022900065765EA0CEB15DE87B1B43B755C6EAB359
:1022A00002990B470552E3628B68E7EEA34A7CB4C0
:1022B000192E7A79C863AE82EE7B768160D39A5804
:1022C000434C7111A0892C43AA109482EFFB7871C2
:1022D000AA66CD7036E3059DC44D6F0B135A737219
:1022E0007197712C273B94A6389A7BBED80096E054
:1022F000EF1F79B6D25331E273628E8D8D8D981AAD
:102300006F31284C6F79F0B760C56206C23BAD4EA5
:10231000E4FBA23ADADB74CC02E5CA78B6CB5616F7
:102320000B593A28E6F6C919B12FA17B18D98FC2EB
:1023300000A1941317F3C5380141D8DB33C37A32B7
:1023400085DBDE83B4BD3D90F5709ABA7B858A80CB
:1023500033E2DBAB238CF36481C0F871C6A5C20302
:10236000EF5DDFA3AA450434995759E533C1B2079D
:10237000A3C27D1C56E48FEC47B338962E55572FD9
:1023800012C17C59248DB233A98D10F08C07B09BFB
:10239000FB680AEFC6CD69953B6CF78B0AD8E71648
:1023A0004CBA7BB079BD34F485DF4DF4253451FE51
:1023B00097B21364F6A4ADE4AC645DAF95B53CDDB3
:1023C000C50100BE4D9B16286643B9859C46E2B701
:1023D0001A917FEAE01C21BD426518916F1A56E6FA
:1023E000C9351FCBEFB3638FC73646D261E87D3E58
:1023F0009215A8C0F74AAB0788DBA5D7BDEEC4F29B
:10240000B0ECCD83D6D41E1222A1E807553C7663EA
:102410005C66D7DD94BA32673822626D9984BA3D22
:102420001A100EB6D661BC87CF243A2643827DC0EF
:102430006213069719E9BDE8D41C9B790F41679890
:10244000038733C98CC946AEB25715F04BE3F54448
:102450007DD5ADBB2D39D8750057B7B86B1995C26E
:1024600092494B44B4DAAF1711DA81F697B64ADFD6
:102470006D5CF6A8054BE901CEE555F65D9918743B
:102480005D9758F4A7A27C2629FCAF5CF46087CE48
:102490009CF742E4551D0D5199A388B0F0AD8D33E2
:1024A0008C4C2062A698F1950424F57529C76CAB75
:1024B000BB0F2148E6F6C919B12FA17B18D98FC2ED
:1024C00000A1941317F3C5380141D8DB33C37A3226
:1024D00085DBDE83B4BD3D90F5709ABA7B858A803A
:1024E00033E2DBAB238CF36481C0F871C6A5C20371
:1024F000EF5DDFA3AA450434995759E533C1B2070C
:10250000A3C27D1CDD67932817FF2179753E5764B0
:10251000E8D037B7E688B5F2DD36AE4F066E83BF3A
:102520003E32AAC0AED5CA5431E35855FB81E354BC
:10253000FF18CC2F30F449F57B1794B8E923B2F19A
:1025400037D7BE56B52B785FAB5B56824D4AE9BC98
:10255000E3A4759E730D4D7ECA0C04A776E3939B8E
:1025600012599E9CED4E6A0E13717AA73C11B074FD
:10257000275980A40681F748FC33B72E4BC00C1CAA
:1025800044695C5B9879D0054BE7F90F725389B9C0
:10259000F6ABCB86D4F738D2F7E56188348933F2CD
:1025A0004110124A70F4BA781E4E0FBC3568F3FE23
:1025B000B0EC16D1C36B29216B33F0315FB1731DC1
:1025C000F1B0A321D74F6D464E62D0E1154408D03B
:1025D000E2ACA5E32E54ED443421CE74D76F0FAB9B
:1025E000CC0B7791CDA5332291AF1CAF37971F97B6
:1025F000E07BBB3461C49C35F2C115FA764CC0ABAC
:10260000CAC0B7B92C04E9A579C1B126B3911AF4AF
:10261000DE722CDA3738E692B860E410F46087CEC8
:102620009CF742E4551D0D5199A388B0F0AD8D3350
:102630008C4C2062A698F1950424F57529C76CABE3
:10264000BB0F214880139DD6BF7C82F2E17797A40F
:10265000EFFEC31C93D100D4454F25F45F15500FF6
:102660005D151C158EE5AFCFBCBB4146EC8D313BF3
:10267000CFAD8A2EAAF9AA26C1FFF1D29591AAEA76
:102680005954B372A55186EFD6310BEEE7DCAC9A04
:102690008FAEFB8C54BF44BEB5EFA1AD938FDD333D
:1026A0002C30B0E35FD7FBECCC7C9C86DA25CE45A2
:1026B0003A5636209D562D432E852968FB81E354DA
:1026C000FF18CC2F30F449F57B1794B8E923B2F109
:1026D00037D7BE56B52B785FAB5B56824D4AE9BC07
:1026E000E3A4759E730D4D7ECA0C04A776E3939BFD
:1026F00012599E9CED4E6A0E13717AA73C11B0746C
:10270000275980A40681F748FC33B72E5C9D1A49EF
:1027100001C33D0AAEFAC585F00E5400C0FD253751
:10272000C6D8A2F7BA10FFC9988CEC385277166F4A
:1027300030432434958E65EEEEAF3EC4793341C903
:10274000520D039AAA261AD6B0134FA030FEA2F655
:102750005F01789521953BBD65998C9716E35ED313
:10276000B28B9DC91D3E68D1A431E859DFD8DEF295
:1027700022090F489024B0CE0E97F7C761B4CA0E55
:10278000145BC96D61C49C35F2C115FA764CC0ABBF
:10279000CAC0B7B92C04E9A579C1B126B3911AF41E
:1027A000DE722CDA3738E692B860E410588B3C9F22
:1027B000F6D64788FCCD7ECFDCF09C5BAEDC5215B4
:1027C00027C48C373E2D70E698F8EC723DC53D8DE0
:1027D000BD01AE2C0AD8E7164CBA7BB079BD34F4F3
:1027E00085DF4DF4253451FE97B21364F6A4ADE4B1
:1027F000AC645DAF95B53CDDC50100BEEC8D313BF1
:10280000CFAD8A2EAAF9AA26C1FFF1D29591AAEAE4
:102810005954B372A55186EFD6310BEEE7DCAC9A72
:102820008FAEFB8CABDDD2B29197FC5DF70032D15D
:10283000479A2D4B7E0C46D1F58E464DEBFE29274F
:1028400060455CBD9F836CD291D796BA0E367D7D74
:10285000B008F4D6B549C19451370B26707D7CCBB6
:1028600039586D514867CA3E14D42ECB443DCAA98D
:102870000E95D388F41969F1E4200A9BB0B7C0B46F
:102880002E3C527508726423F5A9B558D8DF6A50FA
:10289000B944294EDB9E924FF6E36E01EFD11959F0
:1028A000D3BC074431793F036CE05E86EDC957A283
:1028B0009A03258EE7434F0A0CC485CCCB6146B002
:1028C000B9F0D9C8B1BEAD95C5063B27DBFCA91050
:1028D0002C89914322D8C89D517F48514228ED450B
:1028E0006A8E59DA02559ECDA42B22AB98B4FD8B8B
:1028F000B43DD104D369A9BEAAF7D66CB861BF684C
:10290000D4FCC48687E9D5244C6A965D9C948500E6
:10291000C2CAF4B22CE3A37BD7A75B8E21FBBF74A2
:102920009201FC4333B0520C021AC127D1AD2646A6
:102930003551C6C2D7BB0A2F47E16CB0DD6793287B
:1029400017FF2179753E5764E8D037B7E688B5F2AE
:10295000DD36AE4F066E83BF3E32AAC0AED5CA5436
:1029600031E35855DD2805D6DE753CF7D81956E811
:102970009E1D3684A5AC098C622241D9F98D9E43F7
:1029800064218E9881569788B97484044D9B1628CB
:102990006643B9859C46E2B71A917FEAE01C21BDE7
:1029A000426518916F1A56E6C9351FCBEFB3638F96
:1029B000C73646D2ABDDD2B29197FC5DF70032D17B
:1029C000479A2D4B7E0C46D1F58E464DEBFE2927BE
:1029D00060455CBD9F836CD291D796BA5F5293D607
:1029E000C0D02D21AF9351D02F953A4AD948A97321
:1029F00065F6A55D1C8E836761A938D4A8E135F61C
:102A0000BFA26285F41969F1E4200A9BB0B7C0B493
:102A10002E3C527508726423F5A9B558D8DF6A5068
:102A2000B944294EDB9E924FF6E36E01089BDE0D02
:102A30003D76CDC0DD636C8A93CC276D6FA73C7863
:102A40001CD14581F53548CE14824DFB1094130DF1
:102A5000343B028384F72FA2DFB3BD7D37AECC3485
:102A6000EDC4A22AF19F41D905970302C8A4F9DC5D
:102A70008ED13FF354A56D86359F85F3EFFD2EEA89
:102A8000A254D983AFC132DFEF4C72BBDDC7E22263
:102A900023156CED8D38C7A75E362DA47E165BFF1F
:102AA000B3177F9CA7C0C22A74799AF0D1ACA0C397
:102AB000E84668423D1495B09BCB2DF50A09AB352D
:102AC00048BD6859CF51CDB31BAE35F7D087636190
:102AD000DA05400ED526077F181F3604EC7C2F4DF3
:102AE0003EBD316588FD13898BAA4F9537B7E771D5
:102AF000C61506E665EB50A30D1B328E6DF303ABD6
:102B00001E3A0EB1F6A2A9A99A3DF8E19656808424
:102B100090EFFBC9D4D048446A4D80C6730D4D7EFA
:102B2000CA0C04A776E3939B12599E9CED4E6A0E45
:102B300013717AA73C11B074275980A40681F74815
:102B4000FC33B72E53BD3FF4A7B352C52FAB791654
:102B50005F7BFFF499A74663070C017F05570B289D
:102B60005EF9E1914FA7A721001204BE5F5293D6F0
:102B7000C0D02D21AF9351D02F953A4AD948A9738F
:102B800065F6A55D1C8E836761A938D4A8E135F68A
:102B9000BFA26285A477EC81A112B6C539F37A236E
:102BA000C24EB694F6339ED91223C6F4348DD78024
:102BB00039CBCEF94980B699890317EE089BDE0D13
:102BC0003D76CDC0DD636C8A93CC276D6FA73C78D2
:102BD0001CD14581F53548CE14824DFB1094130D60
:102BE000343B028384F72FA2DFB3BD7D37AECC34F4
:102BF000EDC4A22AF19F41D905970302C8A4F9DCCC
:102C00008ED13FF354A56D86359F85F3A2B5D10CC7
:102C100071DB602F98D2052DB960B82DD77E61B2D7
:102C2000049D6C9FB697EB0CCE29153627DB43A984
:102C30001CDEFD068CFB7A858E73E927D663ACD843
:102C40007CBDAC1D0EA218098C70DC6260804A87C6
:102C5000B7BEC631C94D02FF2E68CA0DBEA5D8B495
:102C60008FD14708273F91E0C080BF09284D7919CF
:102C7000108B6F483DE4F4D430FE6F7CDA0AC84212
:102C80003E69ABA665EB50A30D1B328E6DF303AB13
:102C90001E3A0EB1F6A2A9A99A3DF8E19656808493
:102CA00090EFFBC9D4D048446A4D80C6730D4D7E69
:102CB000CA0C04A776E3939B12599E9CED4E6A0EB4
:102CC00013717AA73C11B074275980A40681F74884
:102CD000FC33B72E9541D95B1104B302BCB2D029A5
:102CE0005EACF40B4BD1B943576D7C8B5E5065F0F5
:102CF00059E1CA2DBC0BC2D7B329C04AC7F36A2D0C
:102D0000BC50271097656B67F9A1F86D34394CC832
:102D1000DDCE0064319138EFF6D5BE872CABBA66B4
:102D20008780AE40A477EC81A112B6C539F37A232F
:102D3000C24EB694F6339ED91223C6F4348DD78092
:102D400039CBCEF94980B699890317EEFB81E3545C
:102D5000FF18CC2F30F449F57B1794B8E923B2F172
:102D600037D7BE56B52B785FAB5B56824D4AE9BC70
:102D7000E3A4759E730D4D7ECA0C04A776E3939B66
:102D800012599E9CED4E6A0E13717AA73C11B074D5
:102D9000275980A40681F748FC33B72EA34A7CB498
:102DA000192E7A79C863AE82EE7B768160D39A5809
:102DB000434C7111A0892C43AA109482EFFB7871C7
:102DC000AA66CD705F5293D6C0D02D21AF9351D05B
:102DD0002F953A4AD948A97365F6A55D1C8E83677D
:102DE00061A938D4A8E135F6BFA26285E01D45C9C6
:102DF000C3DEF934D34F89322E60880D24F2E844C3
:102E0000AEEC1E11E71001482F5FCFEEEA20C0495B
:102E1000CE65A6584BC00C1C44695C5B9879D00504
:102E20004BE7F90F725389B9F6ABCB86D4F738D29A
:102E3000F7E56188348933F24110124A84F72FA2F2
:102E4000DFB3BD7D37AECC34EDC4A22AF19F41D9AA
:102E500005970302C8A4F9DC8ED13FF354A56D8613
:102E6000359F85F32FDD34538C16E0F098DA39B4B2
:102E7000AFAEA3FA6DAE4DD668DE7DDE9767B5C204
:102E8000EDFB49801D05D2236C25A662B973D79747
:102E9000F1FE895E6D7199CE6FB1F5BB15051624F3
:102EA00068A771F364FBFFAAA7D941714FA645E655
:102EB000B4EF659254BF44BEB5EFA1AD938FDD333F
:102EC0002C30B0E35FD7FBECCC7C9C86DA25CE457A
:102ED0003A5636209D562D432E8529680E367D7D27
:102EE000B008F4D6B549C19451370B26707D7CCB20
:102EF00039586D514867CA3E14D42ECB443DCAA9F7
:102F00000E95D388730D4D7ECA0C04A776E3939B70
:102F100012599E9CED4E6A0E13717AA73C11B07443
:102F2000275980A40681F748FC33B72EA34A7CB406
:102F3000192E7A79C863AE82EE7B768160D39A5877
:102F4000434C7111A0892C43AA109482EFFB787135
:102F5000AA66CD70C7F36A2DBC50271097656B67C2
:102F6000F9A1F86D34394CC8DDCE0064319138EFE9
:102F7000F6D5BE872CABBA668780AE4098B4FD8B81
:102F8000B43DD104D369A9BEAAF7D66CB861BF68B5
:102F9000D4FCC48687E9D5244C6A965D9C94850050
:102FA000C2CAF4B253BD3FF4A7B352C52FAB7916D2
:102FB0005F7BFFF499A74663070C017F05570B2839
:102FC0005EF9E1914FA7A721001204BE2B9772CFA3
:102FD00025CE0EE8FC8A8ECC88D3D5AAC8503B34C7
:102FE0005AA1C07E1C92A2F2FE8CEE6BB5C1AC530E
:102FF0000AED314A2FDD34538C16E0F098DA39B4FB
:10300000AFAEA3FA6DAE4DD668DE7DDE9767B5C272
:10301000EDFB49801D05D2236C25A662C5EF0A276A
:10302000D94CC3458DADA0D828F53BD4683673BCC8
:10303000DA48EAE47C0F51CB948B85C6C66B851BBE
:1030400031B601DA41C5EE1486CDF6783B5EEC84EC
:10305000661DD2077C312DFAFB94EC8141178EA7B7
:10306000BA93FE4BD5E8DD2046C5C42F958283294F
:1030700011DFF7E79B1114E33EBB357B96A151D5D9
:1030800017299770BDE829BB087A7189EB9A4BD64E
:10309000B8E88E6578CCB89AB27556A5205D1A3A14
:1030A000D91FB6EFBA19EFFB301E278ED7CBDCAB9A
:1030B0007EEE822A80ECF33A4205E14F5505A421C9
:1030C00013FB39B8B43FBAE2112F979EE5DAB1C8C5
:1030D00024F6B65FA3CB755D1F0D670B24CF618708
:1030E000073AC5E6AA87E8FBAC5938196CECF2DA66
:1030F000B34A4FFDA7648DE6ED81A05AE518C6BD21
:10310000933346054CC4C9DA58BAA40FC364758B0F
:10311000D2E2DFBE8144D9228DF124F2F3E45322BE
:10312000B34DF79A847AD37F7D7407BC98601544B9
:10313000CE984B8DB77EAC1DEBB35F5F154FEB5B4D
:103140008F30ECAD8B3FA263FDCBEBBD2033384F0E
:10315000D47FB155D9C2260EDBA115592B2DE448D9
:103160009D9BBF85AA2FFF448F251E2979BD978778
:103170001E0E3C966D5843DBC0C49181207ADB4122
:103180000E6729E770F4BA781E4E0FBC3568F3FE5F
:10319000B0EC16D1C36B29216B33F0315FB1731DD5
:1031A000F1B0A321D74F6D464E62D0E123B1DBC60B
:1031B000D1B8D8F9A81C21EF11B4549922C8E89EBF
:1031C000933D6B822DE30ACD8277B9778CC58179E7
:1031D0000C234BE222430195AD793780AE020E4DB0
:1031E000B1A97BCE2C98AB1BD62CBD568D8E587CAE
:1031F0000C2EBD3179968F262819767AFA4DCCA2FD
:10320000EBE47F13BD44041A866145E546E046962B
:103210004768CD092F5550C63F89BA3A1F506BBB3E
:10322000C5826AA778CCB89AB27556A5205D1A3ABD
:10323000D91FB6EFBA19EFFB301E278ED7CBDCAB08
:103240007EEE822A80ECF33A4205E14F5505A42137
:1032500013FB39B8B43FBAE2112F979EE5DAB1C833
:1032600024F6B65FA3CB755D1F0D670B24CF618776
:10327000073AC5E636E3059DC44D6F0B135A7372CA
:103280007197712C273B94A6389A7BBED80096E0A4
:10329000EF1F79B6D25331E273628E8DC364758BA2
:1032A000D2E2DFBE8144D9228DF124F2F3E453222D
:1032B000B34DF79A847AD37F7D7407BC9860154428
:1032C000CE984B8DBD91423D4BBD8025F87E56EB8F
:1032D0008E8C19448BB5BE03D003DB3579FFC6E570
:1032E00036AEBF083D2C319CBF57F3BE2B2DE448B2
:1032F0009D9BBF85AA2FFF448F251E2979BD9787E7
:103300001E0E3C966D5843DBC0C49181207ADB4190
:103310000E6729E78D8D981A6F31284C6F79F0B7B9
:1033200060C56206C23BAD4EE4FBA23ADADB74CC68
:1033300002E5CA78B6CB56160B593A2823B1DBC63C
:10334000D1B8D8F9A81C21EF11B4549922C8E89E2D
:10335000933D6B822DE30ACD8277B9778CC5817955
:103360000C234BE222430195AD793780AE020E4D1E
:10337000B1A97BCE2C98AB1BD62CBD568D8E587C1C
:103380000C2EBD3179968F262819767ABD1D10D066
:10339000C54E759CD5D01671A0B8CFD4B47C0A7335
:1033A00060973452BE62522B633389EA83FE7BE519
:1033B000E77ACFC0167DF076A0B7D0D497015F9E94
:1033C000334337714E2F023A12B70A66F46058A49D
:1033D000F999A15CC614B428E1E50AD916E8B0D57C
:1033E0001AB8E577DA02EC2A770DE9B26BA926C79D
:1033F000EA4628A585E5DEF63A10B5971FC106A076
:10340000A6EB3101CFD0484892A211C07AD79406DA
:10341000E0A051C09D06D48F1A0A0E2E3CCD472E37
:10342000F969404F5AE04024B2241C28CFE53330DC
:10343000B9BC49749F1560FF0068330CD8B3A9204C
:103440008B1410CBF73F52D721328B3E981B489CF0
:10345000994A4F95C56DE0B48E44890803E50A0C7E
:1034600096D17189694C8FB504AE995C71F4704F37
:103470009385909F1A5A96E68B738056F1A8AD906B
:10348000C1576F9F0C1C6BA15AC5EB4E7BB1B53574
:10349000D32999312CF2582F62D6435282DF2B7BED
:1034A00095A2EF6CE41BD431A70156F2F4CE4CBECA
:1034B000116450322E5914E30904D45952BD764890
:1034C000BD733D573BDDB9578898BE6143DD79A692
:1034D000073CC8EE8ED26ADC81BA912FB0A6E72AEB
:1034E00089DB231453ED8AAB7ACCEDA9E5CD3FC738
:1034F000FC9CC88DEFFD2EEAA254D983AFC132DF08
:10350000EF4C72BBDDC7E22223156CED8D38C7A7E7
:103510005E362DA47E165BFFB3177F9C9541D95B69
:103520001104B302BCB2D0295EACF40B4BD1B94349
:10353000576D7C8B5E5065F059E1CA2DBC0BC2D72C
:10354000B329C04A03FF79B163448ECD474D12FAC7
:10355000BDB90B5E759EACB5A994D9157F3D8005AC
:10356000E51BAF684109DF5346AF181616E8B0D522
:103570001AB8E577DA02EC2A770DE9B26BA926C70B
:10358000EA4628A585E5DEF63A10B5971FC106A0E4
:10359000A6EB310141C5EE1486CDF6783B5EEC8496
:1035A000661DD2077C312DFAFB94EC8141178EA762
:1035B000BA93FE4BD5E8DD2046C5C42F0C4EDF0084
:1035C000150C75F2EA95173631014EC5A8B7884B30
:1035D000620C12DDC7B79860E3718404C603AB5078
:1035E00042DA3386C56DE0B48E44890803E50A0CDF
:1035F00096D17189694C8FB504AE995C71F4704FA6
:103600009385909F1A5A96E68B7380560FF0883DEB
:103610000B760B414746562A2B8E3F2A5F644EE5B8
:10362000F76365BE7BAAB7F6995CF01ED3D9B5A146
:10363000953FDAD4E41BD431A70156F2F4CE4CBE48
:10364000116450322E5914E30904D45952BD7648FE
:10365000BD733D573BDDB9578898BE6137BC8A09B9
:103660004AE013866EB343F236FEBA3EB6B60E0794
:10367000BA959B38A6A3B12AE1627E754E7C8889F3
:1036800004CC937484286BEEAD285F7D481C88B110
:103690001A11712DA72DF2CCA67DFA4814DD2F6FDB
:1036A000E2E4E8D4DB1A62056E18ABDE089BDE0D9F
:1036B0003D76CDC0DD636C8A93CC276D6FA73C78D7
:1036C0001CD14581F53548CE14824DFB1094130D65
:1036D000343B028322586C8CAF6485E44E94BFCE99
:1036E0004F7223167F0AEACE73E62575964315F2CC
:1036F000EBCA8242612A73034CC2118433535E4E7B
:103700003D8C4DDB13757665C7AD354AA16D0885D7
:10371000B1DDC13C84DAEFF065B746B42DDD964DDE
:10372000791FBDDE90E5C83EBC80C699CE63EDED45
:10373000356330B92C687CD436F8D766DE48084E3D
:10374000DDE1FBF16030E3F9BD3C18606AB0705513
:10375000A827D9337364CC4A09A16FB31BF44B6516
:1037600013E59D406C2AE6F7B79D094F1F1112C65D
:103770003CC3250B7AFBBCEF0EC4E6B662E1DEE982
:103780008F44E544BC317419A1BD87A53ACD375E9D
:1037900026C8BBA20C66D4DCDCD458570FF0883D99
:1037A0000B760B414746562A2B8E3F2A5F644EE527
:1037B000F76365BE7BAAB7F6995CF01ED3D9B5A1B5
:1037C000953FDAD4D4D072569293B844E4732E0E57
:1037D00066E2EB7D39D1D8BD7C76C0F42802A22AFE
:1037E000DF1E5A252AF89060990C71BE7552511748
:1037F000956DDF203F9E6BB653954B8C4E7902F250
:103800001CF16035BA3538C9E4250B4570BAF6238A
:1038100025FADB128891739D862824484FA45E62A6
:103820008576E27A0A4D59288220C2C978E139E6C4
:103830004F9F956C68260C329AADAD9B9E38975D74
:10384000ED9CB51A0F14E91C72CA5D7A75F03DF74C
:10385000E984E2BC8F4A6AD5C454F475DB51F0EFB9
:103860003AA334EE91C6804ECE87D56B0007E5F5BE
:103870009B6D89762C2F7E272F8CE02148807376D4
:10388000DC8604E8350CC572B27CF59A06E4182D86
:10389000A9CF0D2FF75A124EBE3D255A1F11A2AFC8
:1038A00079E75801B34947B31B030202C5C0DADA0E
:1038B000CB5E5B3290E5C83EBC80C699CE63EDED31
:1038C000356330B92C687CD436F8D766DE48084EAC
:1038D000DDE1FBF16030E3F9BD3C1860BEA5D8B472
:1038E0008FD14708273F91E0C080BF09284D791943
:1038F000108B6F483DE4F4D430FE6F7CDA0AC84286
:103900003E69ABA63B8E3DD6B418061E2E467DC240
:10391000572E2C10252332787C1BAE5D183CCA4AEA
:10392000EA186F96DB93476F0157F563BE254AE8A7
:103930007C11036899215F3E882AA9211A3718242F
:10394000D2E62521135303198487E29A0202114714
:10395000A0125415D4D072569293B844E4732E0E2C
:1039600066E2EB7D39D1D8BD7C76C0F42802A22A6C
:10397000DF1E5A252AF89060990C71BE75525117B6
:10398000956DDF203F9E6BB653954B8C4E7902F2BE
:103990001CF16035BA3538C9E4250B4570BAF623F9
:1039A00025FADB1265F566057477EAED526C9873BB
:1039B00089A4BCA37AF646FE7DEBC35E687093488B
:1039C00042F6F2F8FDC15B503176E5FDECB0E9C49A
:1039D000F4E14EC934AFEFB180CD21DB1F74B5D017
:1039E0001EA6533226970D028D37B0B84502C76A1E
:1039F000FCD67EE1052EB535280FDB3472D62BE2DE
:103A00000BC8721F0C80612B67F96E776EEEA000F9
:103A1000FB8A16EFEE240C6F7AE6D31D06E4182D10
:103A2000A9CF0D2FF75A124EBE3D255A1F11A2AF36
:103A300079E75801B34947B31B030202C5C0DADA7C
:103A4000CB5E5B3225704DC826AA1F68652FB84132
:103A50002E34974F925A6C7DC75B6F15EFCC57444D
:103A60000FE35FFEEE61A11E8BE0B474E41BD43162
:103A7000A70156F2F4CE4CBE116450322E5914E315
:103A80000904D45952BD7648BD733D573BDDB95743
:103A90008898BE6182D28FCA3A9CB4B02435496EF0
:103AA0008E7D3FD7EC9D18912AC9170F80BB3098A7
:103AB000FDC78DA81F1CA50AEF9646A7AF219D71D3
:103AC0009F72F046E47ADC2F0BB1C8845B4E8825E8
:103AD000F8FF407383239DCBCD9CEC4C3DC667170C
:103AE000F66A2F17979B0ED846EFF4BCE32E5D4C79
:103AF0005459819AF8A3E14A61C1FC8BEF1BC7D6E8
:103B0000FA51C5D6582B03BA4CB77B7B1C4B911F7F
:103B1000495FB1C83F8475AB35A32283FDC642F02F
:103B2000E7856B6AFBD16BBCB248068F801B617C5A
:103B300032FDC83A0A681CB191829F16FEEE7D6F75
:103B40004E52B8E02E70F6AD5643BACA8D1F1940DA
:103B5000A276F99EB997AE0D34E36B08F2FEC90266
:103B6000E4C2CFC59330DD8C3F2F3566F1B517BA6F
:103B700022D0B8EBBC986506364C408104A92A08CF
:103B8000A1D2D614A102330258BB4712D27D2247DC
:103B90001E933D48BE21709DCC5B8DD763BD4CCD3F
:103BA000C97180187392C855A8E4830E06EE3C5B79
:103BB000B128DF19C3382090BC46D89B60B3763B50
:103BC00011770456DCCE387B86BA75A4532A262D8D
:103BD00053BFF7B90FF0883D0B760B414746562A85
:103BE0002B8E3F2A5F644EE5F76365BE7BAAB7F66E
:103BF000995CF01ED3D9B5A1953FDAD436D291891C
:103C0000D0722A2616478D8C329489F2CB70FA87AF
:103C1000C3A857988B20DD936197798BB64B441AD4
:103C2000383D11A0C364758BD2E2DFBE8144D92236
:103C30008DF124F2F3E45322B34DF79A847AD37FC3
:103C40007D7407BC98601544CE984B8D06778B89A0
:103C5000517FE898FCCB2A0716FCFF1741817E3B79
:103C6000D55CE39DB763BC9AFEF23D8D52C82E3100
:103C7000B57C6E2CC56DE0B48E44890803E50A0C52
:103C800096D17189694C8FB504AE995C71F4704F0F
:103C90009385909F1A5A96E68B738056417CB48226
:103CA000D8585EB8D387E3E2DA760339EACCC03875
:103CB0000684831C88F08201D1DBE07E0D0A23C7D5
:103CC0002DCBA6977C7FC0E400B9F5EC26ED1D1A3C
:103CD000C32319F3BA0AEB47653998C8982DD20166
:103CE000D9C8A805EA8D5EA445B4D8B989184A4D4B
:103CF000B9B2BB94205E35EFCFBC15657D89AB00B2
:103D0000A0F086D6CB24998E2A0BEF2A9D6074866C
:103D100010080902F1A8AD90C1576F9F0C1C6BA150
:103D20005AC5EB4E7BB1B535D32999312CF2582FBA
:103D300062D6435282DF2B7B95A2EF6CB4C6049A05
:103D40004D4028FBC84E7C9EA16BBB15B59E73FFF2
:103D50004757664C872AEECF9DBC5681DDEE38FD75
:103D6000307A723B7D810D8D63CFF157669384D994
:103D7000C05E79A6A3C53119E964A709FD044534DD
:103D8000D5E8F98A03EC164AF893B054CC45EC8692
:103D90002B436AF395236D5F0C326BC94D2D600385
:103DA000CEBECFAB7E33C5C10E272EE404E9242D51
:103DB00058E144D7368286CB49DAB47F363DDFA658
:103DC00011A045A5C659AE0ADF62BD0072949921C3
:103DD0009415BBA7FA5E4787CCE32B94052EB53527
:103DE000280FDB3472D62BE20BC8721F0C80612BBC
:103DF00067F96E776EEEA000FB8A16EFEE240C6F6B
:103E00007AE6D31DB5F111F004592E032639384E48
:103E1000B35A7E31F0F425C613655DC21CD6AC9E44
:103E2000F8966CCA34BD9596B829ED0E41C5EE14CE
:103E300086CDF6783B5EEC84661DD2077C312DFA88
:103E4000FB94EC8141178EA7BA93FE4BD5E8DD2099
:103E500046C5C42F2B927DECDFC7B0BDF1F2A6D3CF
:103E6000C0ED530513C6409CE93A185AE11331419D
:103E70003E5733DAB9E5DDC701330D2437BC8A0973
:103E80004AE013866EB343F236FEBA3EB6B60E076C
:103E9000BA959B38A6A3B12AE1627E754E7C8889CB
:103EA00004CC9374AF219D719F72F046E47ADC2FAD
:103EB0000BB1C8845B4E8825F8FF407383239DCBEC
:103EC000CD9CEC4C3DC66717F66A2F1736D2918908
:103ED000D0722A2616478D8C329489F2CB70FA87DD
:103EE000C3A857988B20DD936197798BB64B441A02
:103EF000383D11A0AD39BF518D253B6BF5474A01C7
:103F0000C152ECE267C387113C15E288275934BCE3
:103F10002D100AB474E7BAE1E5788D050A681CB182
:103F200091829F16FEEE7D6F4E52B8E02E70F6AD78
:103F30005643BACA8D1F1940A276F99EB997AE0DA5
:103F400034E36B088CFB7A858E73E927D663ACD893
:103F50007CBDAC1D0EA218098C70DC6260804A87A3
:103F6000B7BEC631C94D02FF2E68CA0D7151192066
:103F700040DDF3B1F9F68E233FB31D8BC6D4F14972
:103F8000EA69010A8CFF27F0A8429F88FDC1A0B60C
:103F9000731589E73B8E3DD6B418061E2E467DC2AA
:103FA000572E2C10252332787C1BAE5D183CCA4A54
:103FB000EA186F96DB93476F0157F56341C5EE141E
:103FC00086CDF6783B5EEC84661DD2077C312DFAF7
:103FD000FB94EC8141178EA7BA93FE4BD5E8DD2008
:103FE00046C5C42FD4D072569293B844E4732E0EB3
:103FF00066E2EB7D39D1D8BD7C76C0F42802A22AD6
:10400000DF1E5A252AF89060990C71BE755251171F
:10401000956DDF203F9E6BB653954B8C4E7902F227
:104020001CF16035BA3538C9E4250B4570BAF62362
:1040300025FADB12462764720FCA688FBBDBEDD806
:104040003BAF67A1DA286F323317BE64BA9AA3F484
:10405000AA9AB503C6857E16D502CC4736D2918979
:10406000D0722A2616478D8C329489F2CB70FA874B
:10407000C3A857988B20DD936197798BB64B441A70
:10408000383D11A0AD39BF518D253B6BF5474A0135
:10409000C152ECE267C387113C15E288275934BC52
:1040A0002D100AB474E7BAE1E5788D05ED7E0AB308
:1040B000A6C2C12BAD70F09C39C6BC1F52672AD96D
:1040C0008A988A5F8B1D7C5BD884048092E5C71434
:1040D000705E2F39558490D2FC1BBCF2BEC7827132
:1040E0001407F118C9915EF2E3037B96188F5F7392
:1040F00003E01359F8C76B3B904F8A147E5A43C3B1
:1041000000604664383E6CD653E0F67DE962C03606
:1041100053FA613CA95531B64917A19A174D2DC7DD
:1041200085697FA33B8E3DD6B418061E2E467DC200
:10413000572E2C10252332787C1BAE5D183CCA4AC2
:10414000EA186F96DB93476F0157F563BE254AE87F
:104150007C11036899215F3E882AA9211A37182407
:10416000D2E62521135303198487E29A02021147EC
:10417000A0125415B4C6049A4D4028FBC84E7C9E2C
:10418000A16BBB15B59E73FF4757664C872AEECFD0
:104190009DBC5681DDEE38FD307A723B1C4B911F81
:1041A000495FB1C83F8475AB35A32283FDC642F099
:1041B000E7856B6AFBD16BBCB248068F801B617CC4
:1041C00032FDC83AE3D21301953D5B2F4B9B1D474F
:1041D000E69C04347C88DD824E3C617FB5BEE737C7
:1041E000334C902A19418867A061053438669933A9
:1041F000E54A0393045C083176A23803FB81AA25C3
:10420000B31C93739081577F515A5E3195DADABFB0
:104210003B08B122A102330258BB4712D27D22478C
:104220001E933D48BE21709DCC5B8DD763BD4CCDA8
:10423000C97180187392C855A8E4830EFBF6E9B4DF
:10424000A2F65E5FC7E0F088EA849457B8A39A2B81
:10425000413D86D05EAA17124D5833366913F9E7EF
:10426000123248FA7B858A8033E2DBAB238CF3641D
:1042700081C0F871C6A5C203EF5DDFA3AA4504346F
:10428000995759E533C1B207A3C27D1CFA4DCCA2A0
:10429000EBE47F13BD44041A866145E546E046968B
:1042A0004768CD092F5550C63F89BA3A1F506BBB9E
:1042B000C5826AA782D28FCA3A9CB4B02435496EAF
:1042C0008E7D3FD7EC9D18912AC9170F80BB30987F
:1042D000FDC78DA81F1CA50AEF9646A7F8A520D2FA
:1042E000882045C1FA25126AC13197EC8D05D06F3F
:1042F000FC9B6EA638D52308A227B523C85AE054E4
:1043000089EC3F19B4C6049A4D4028FBC84E7C9EE8
:10431000A16BBB15B59E73FF4757664C872AEECF3E
:104320009DBC5681DDEE38FD307A723B70F4BA7870
:104330001E4E0FBC3568F3FEB0EC16D1C36B2921BD
:104340006B33F0315FB1731DF1B0A321D74F6D46D0
:104350004E62D0E1E3D21301953D5B2F4B9B1D478D
:10436000E69C04347C88DD824E3C617FB5BEE73735
:10437000334C902A19418867A0610534979B0ED869
:1043800046EFF4BCE32E5D4C5459819AF8A3E14A00
:1043900061C1FC8BEF1BC7D6FA51C5D6582B03BAA7
:1043A0004CB77B7B59622DBCB9D0EE7D55DA405AB3
:1043B00095576DB51364FBDDF001A123BFBE5CA171
:1043C00070FF2CF64CDB807070304072FBF6E9B465
:1043D000A2F65E5FC7E0F088EA849457B8A39A2BF0
:1043E000413D86D05EAA17124D5833366913F9E75E
:1043F000123248FA9DAA67370B1A09D5DF03DD424E
:104400005A487EC82103720AD28CA82DDCE60A8E97
:10441000910D95975811D5F4108F745557F3304678
:104420001675A03BD1483167F2ED46226B641B2B19
:104430007FFE5026D76EBD76EBEFBEB5774C12A847
:104440000EEEEBBC549B07B26F20FA17EDF2032B74
:10445000F4010E70684F54A31E3DDF0C3C6C081332
:10446000EBD55B8B45FBA2375F3D5C0EF8A520D2F8
:10447000882045C1FA25126AC13197EC8D05D06FAD
:10448000FC9B6EA638D52308A227B523C85AE05452
:1044900089EC3F1936D29189D0722A2616478D8C25
:1044A000329489F2CB70FA87C3A857988B20DD939A
:1044B0006197798BB64B441A383D11A070F4BA78E5
:1044C0001E4E0FBC3568F3FEB0EC16D1C36B29212C
:1044D0006B33F0315FB1731DF1B0A321D74F6D463F
:1044E0004E62D0E1459D24D7C4AACEB334EA5666C5
:1044F00035240C51B6029B606E17642D3692551010
:10450000542C6EB733B09C38A15B695A8C6E11691C
:10451000903C2A73F110533A0CC4D020249320CD40
:10452000A382C7040A1469C9C3DBB64160B0C4459D
:10453000C510A219C5FE79C66AE08F0834A1471CD0
:10454000B60897D40FB1321AB5FE7A6D95499D80A1
:1045500097D24C301E9FC33DABA2935778CCB89AEC
:10456000B27556A5205D1A3AD91FB6EFBA19EFFBFE
:10457000301E278ED7CBDCAB7EEE822A80ECF33A5E
:104580004205E14F9DAA67370B1A09D5DF03DD42CB
:104590005A487EC82103720AD28CA82DDCE60A8E06
:1045A000910D95975811D5F4108F745563450DDB17
:1045B000211D28AA370DF1E6F29F73B100EA8E3A69
:1045C00025A281A4B0B765A2639545F6A713F7604D
:1045D00092478381BA4F99E071A06465892574F090
:1045E00008D65AC98FCFF424DC3AAABEF4B83543B2
:1045F000CCE6B972F5B676BC9132360F97A5AB67AB
:10460000B2020DF80796285C4820F7115CF7973244
:10461000F73AB90A0CF52CF9D9AAEA1EA8A7EAF9C3
:10462000412FCF00AA87E8FBAC5938196CECF2DABD
:10463000B34A4FFDA7648DE6ED81A05AE518C6BDCB
:10464000933346054CC4C9DA58BAA40F858534653E
:10465000DD3B1C21B1926EA04B6B6FF20EA0682364
:10466000A808236B2D8565CDD644FD4C99187C0395
:10467000C3E996562C20E52591A09AD0CBEDCA83AC
:104680002AE8BCF82C610F1E47BD457708FEC871AB
:10469000ED5B5F5CC183DC4DDEA0BBE4132F4166A4
:1046A0003120410B825E079525306290FC465175A2
:1046B0006B17A7C6849AEA06D6BCE3D9FB05292264
:1046C0008785DBA22744C6677DD7532A566349E214
:1046D000D62B751989515D1D65F6B42D03E4AFEE37
:1046E0009F7B6524766A6BD472AE79ADFD26F47D2E
:1046F0000D19660F42DE48CE31E9AC8252B8FB8517
:1047000028E1FE63FB79F1527677A553D1A5B7284E
:10471000ED119AFA70F4BA781E4E0FBC3568F3FEAC
:10472000B0EC16D1C36B29216B33F0315FB1731D2F
:10473000F1B0A321D74F6D464E62D0E1AF219D71FC
:104740009F72F046E47ADC2F0BB1C8845B4E88255B
:10475000F8FF407383239DCBCD9CEC4C3DC667177F
:10476000F66A2F17558490D2FC1BBCF2BEC782712B
:104770001407F118C9915EF2E3037B96188F5F73FB
:1047800003E01359F8C76B3B904F8A149582832935
:1047900011DFF7E79B1114E33EBB357B96A151D5A2
:1047A00017299770BDE829BB087A7189EB9A4BD617
:1047B000B8E88E6578CCB89AB27556A5205D1A3ADD
:1047C000D91FB6EFBA19EFFB301E278ED7CBDCAB63
:1047D0007EEE822A80ECF33A4205E14F9E38975DE7
:1047E000ED9CB51A0F14E91C72CA5D7A75F03DF79D
:1047F000E984E2BC8F4A6AD5C454F475DB51F0EF0A
:104800003AA334EE2B7B0C64FFEC14846FB30AFCE8
:10481000E15353249A5AA4E6F65E7BB2C72A1C9C45
:10482000097BC1844F29FA5E7552EFD4C364758B3E
:10483000D2E2DFBE8144D9228DF124F2F3E4532287
:10484000B34DF79A847AD37F7D7407BC9860154482
:10485000CE984B8D0FF0883D0B760B414746562A7C
:104860002B8E3F2A5F644EE5F76365BE7BAAB7F6E1
:10487000995CF01ED3D9B5A1953FDAD43866993347
:10488000E54A0393045C083176A23803FB81AA252C
:10489000B31C93739081577F515A5E3195DADABF1A
:1048A0003B08B122AD39BF518D253B6BF5474A011D
:1048B000C152ECE267C387113C15E288275934BC2A
:1048C0002D100AB474E7BAE1E5788D0523B1DBC693
:1048D000D1B8D8F9A81C21EF11B4549922C8E89E88
:1048E000933D6B822DE30ACD8277B9778CC58179B0
:1048F0000C234BE2558490D2FC1BBCF2BEC78271E4
:104900001407F118C9915EF2E3037B96188F5F7369
:1049100003E01359F8C76B3B904F8A14FA4DCCA2B1
:10492000EBE47F13BD44041A866145E546E04696F4
:104930004768CD092F5550C63F89BA3A1F506BBB07
:10494000C5826AA7167DF076A0B7D0D497015F9E86
:10495000334337714E2F023A12B70A66F46058A4F7
:10496000F999A15CC614B428E1E50AD9EFA6C441BF
:104970005EF0D44337E6BC156EDC99D15F03415538
:104980007528822243B365633CAB9026F1999E194A
:10499000258F2D0E63450DDB211D28AA370DF1E66D
:1049A000F29F73B100EA8E3A25A281A4B0B765A246
:1049B000639545F6A713F760924783811C4B911FBF
:1049C000495FB1C83F8475AB35A32283FDC642F071
:1049D000E7856B6AFBD16BBCB248068F801B617C9C
:1049E00032FDC83ABE254AE87C11036899215F3E32
:1049F000882AA9211A371824D2E62521135303192E
:104A00008487E29A02021147A0125415386699333E
:104A1000E54A0393045C083176A23803FB81AA259A
:104A2000B31C93739081577F515A5E3195DADABF88
:104A30003B08B12259622DBCB9D0EE7D55DA405AFF
:104A400095576DB51364FBDDF001A123BFBE5CA1DA
:104A500070FF2CF64CDB80707030407223B1DBC6E7
:104A6000D1B8D8F9A81C21EF11B4549922C8E89EF6
:104A7000933D6B822DE30ACD8277B9778CC581791E
:104A80000C234BE2ECB0E9C4F4E14EC934AFEFB112
:104A900080CD21DB1F74B5D01EA6533226970D02A0
:104AA0008D37B0B84502C76AFCD67EE156E48FEC7C
:104AB00047B338962E55572F12C17C59248DB233E7
:104AC000A98D10F08C07B09BFB680AEFC6CD6995E5
:104AD0003B6CF78B167DF076A0B7D0D497015F9E24
:104AE000334337714E2F023A12B70A66F46058A466
:104AF000F999A15CC614B428E1E50AD9EFA6C4412E
:104B00005EF0D44337E6BC156EDC99D15F034155A6
:104B10007528822243B365633CAB9026F1999E19B8
:104B2000258F2D0E61E87D3E9215A8C0F74AAB0790
:104B300088DBA5D7BDEEC4F2B0ECCD83D6D41E126F
:104B400022A1E807553C76635C66D7DD94BA3267EC
:104B50003822626D9984BA3D1A100EB6D661BC87B0
:104B6000CF243A2643827DC06213069719E9BDE837
:104B7000D41C9B790F416798038733C98CC946AE13
:104B8000B25715F04BE3F5447DD5ADBB2D39D87543
:104B90000057B7B86B1995C292494B44979B0ED8F2
:104BA00046EFF4BCE32E5D4C5459819AF8A3E14AD8
:104BB00061C1FC8BEF1BC7D6FA51C5D6582B03BA7F
:104BC0004CB77B7B59622DBCB9D0EE7D55DA405A8B
:104BD00095576DB51364FBDDF001A123BFBE5CA149
:104BE00070FF2CF64CDB80707030407206EE3C5B40
:104BF000B128DF19C3382090BC46D89B60B3763B00
:104C000011770456DCCE387B86BA75A4532A262D3C
:104C100053BFF7B9B4DAAF1711DA81F697B64ADFA6
:104C20006D5CF6A8054BE901CEE555F65D99187463
:104C30005D9758F4A7A27C2629FCAF5C6907C4A144
:104C4000A593CBBF8945FAA01FC1AD4E7552ADFDEE
:104C5000DA561BE5CCA15BB3FDA26EBDD8C17E8345
:104C6000E79005B0549B07B26F20FA17EDF2032BC3
:104C7000F4010E70684F54A31E3DDF0C3C6C08130A
:104C8000EBD55B8B45FBA2375F3D5C0E7B858A8055
:104C900033E2DBAB238CF36481C0F871C6A5C20399
:104CA000EF5DDFA3AA450434995759E533C1B20734
:104CB000A3C27D1CBD1D10D0C54E759CD5D01671EC
:104CC000A0B8CFD4B47C0A7360973452BE62522B22
:104CD000633389EA83FE7BE5E77ACFC0052EB535DD
:104CE000280FDB3472D62BE20BC8721F0C80612BAD
:104CF00067F96E776EEEA000FB8A16EFEE240C6F5C
:104D00007AE6D31D78CCB89AB27556A5205D1A3ACA
:104D1000D91FB6EFBA19EFFB301E278ED7CBDCAB0D
:104D20007EEE822A80ECF33A4205E14F9E38975D91
:104D3000ED9CB51A0F14E91C72CA5D7A75F03DF747
:104D4000E984E2BC8F4A6AD5C454F475DB51F0EFB4
:104D50003AA334EE6DEF4D50D3D910C982FBFBCC92
:104D60007B4D4C69C9C8959551AA2939ECCBB95EE0
:104D7000A694C4801B54BC67599223D9549B07B294
:104D80006F20FA17EDF2032BF4010E70684F54A355
:104D90001E3DDF0C3C6C0813EBD55B8B45FBA2374B
:104DA0005F3D5C0E2744C6677DD7532A566349E2B0
:104DB000D62B751989515D1D65F6B42D03E4AFEE50
:104DC0009F7B6524766A6BD472AE79ADAA87E8FBC7
:104DD000AC5938196CECF2DAB34A4FFDA7648DE692
:104DE000ED81A05AE518C6BD933346054CC4C9DA17
:104DF00058BAA40F70F4BA781E4E0FBC3568F3FE93
:104E0000B0EC16D1C36B29216B33F0315FB1731D48
:104E1000F1B0A321D74F6D464E62D0E18891739DCA
:104E2000862824484FA45E628576E27A0A4D592886
:104E30008220C2C978E139E64F9F956C68260C3212
:104E40009AADAD9B558490D2FC1BBCF2BEC782715B
:104E50001407F118C9915EF2E3037B96188F5F7314
:104E600003E01359F8C76B3B904F8A147151192016
:104E700040DDF3B1F9F68E233FB31D8BC6D4F14963
:104E8000EA69010A8CFF27F0A8429F88FDC1A0B6FD
:104E9000731589E778CCB89AB27556A5205D1A3A91
:104EA000D91FB6EFBA19EFFB301E278ED7CBDCAB7C
:104EB0007EEE822A80ECF33A4205E14F90577CBAAD
:104EC000C74EE65050BF69E681869EC1FE149D0123
:104ED000A9F91404334D6334188F090DCF244946C2
:104EE000357648C32B7B0C64FFEC14846FB30AFC4B
:104EF000E15353249A5AA4E6F65E7BB2C72A1C9C5F
:104F0000097BC1844F29FA5E7552EFD41A92297930
:104F1000350D0698E4AAD8D7465A89B895B0CE245C
:104F2000562ACC5509EF448466451A3EC7C1C506CA
:104F300059D7A6970FF0883D0B760B414746562A66
:104F40002B8E3F2A5F644EE5F76365BE7BAAB7F6FA
:104F5000995CF01ED3D9B5A1953FDAD4AA87E8FBB6
:104F6000AC5938196CECF2DAB34A4FFDA7648DE600
:104F7000ED81A05AE518C6BD933346054CC4C9DA85
:104F800058BAA40F85853465DD3B1C21B1926EA013
:104F90004B6B6FF20EA06823A808236B2D8565CD9F
:104FA000D644FD4C99187C03C3E9965623B1DBC661
:104FB000D1B8D8F9A81C21EF11B4549922C8E89EA1
:104FC000933D6B822DE30ACD8277B9778CC58179C9
:104FD0000C234BE2ECB0E9C4F4E14EC934AFEFB1BD
:104FE00080CD21DB1F74B5D01EA6533226970D024B
:104FF0008D37B0B84502C76AFCD67EE17E5A43C3FE
:1050000000604664383E6CD653E0F67DE962C036F7
:1050100053FA613CA95531B64917A19A174D2DC7CE
:1050200085697FA3167DF076A0B7D0D497015F9EE7
:10503000334337714E2F023A12B70A66F46058A410
:10504000F999A15CC614B428E1E50AD92243019577
:10505000AD793780AE020E4DB1A97BCE2C98AB1B3B
:10506000D62CBD568D8E587C0C2EBD3179968F2650
:105070002819767A61E87D3E9215A8C0F74AAB07F9
:1050800088DBA5D7BDEEC4F2B0ECCD83D6D41E121A
:1050900022A1E807553C76635C66D7DD94BA326797
:1050A0003822626D9984BA3D1A100EB6D661BC875B
:1050B000CF243A2643827DC06213069719E9BDE8E2
:1050C000D41C9B790FF0883D0B760B414746562A3E
:1050D0002B8E3F2A5F644EE5F76365BE7BAAB7F669
:1050E000995CF01ED3D9B5A1953FDAD436E3059D7E
:1050F000C44D6F0B135A73727197712C273B94A692
:10510000389A7BBED80096E0EF1F79B6D25331E2D1
:1051100073628E8D8D8D981A6F31284C6F79F0B730
:1051200060C56206C23BAD4EE4FBA23ADADB74CC4A
:1051300002E5CA78B6CB56160B593A28E6F6C919D5
:10514000B12FA17B18D98FC200A1941317F3C538D2
:105150000141D8DB33C37A3285DBDE83B4BD3D90B9
:10516000F5709ABA2B2DE4489D9BBF85AA2FFF446A
:105170008F251E2979BD97871E0E3C966D5843DBFF
:10518000C0C49181207ADB410E6729E77E5A43C370
:1051900000604664383E6CD653E0F67DE962C03666
:1051A00053FA613CA95531B64917A19A174D2DC73D
:1051B00085697FA317178335ED122EBDEAC5777178
:1051C0009CA5711CCEBFFE42042B93971983CE5A27
:1051D0001F69FF4226735518B8D053132243019517
:1051E000AD793780AE020E4DB1A97BCE2C98AB1BAA
:1051F000D62CBD568D8E587C0C2EBD3179968F26BF
:105200002819767ABD1D10D0C54E759CD5D0167163
:10521000A0B8CFD4B47C0A7360973452BE62522BCC
:10522000633389EA83FE7BE5E77ACFC094BA3267BD
:105230003822626D9984BA3D1A100EB6D661BC87C9
:10524000CF243A2643827DC06213069719E9BDE850
:10525000D41C9B79E3D21301953D5B2F4B9B1D47DB
:10526000E69C04347C88DD824E3C617FB5BEE73726
:10527000334C902A19418867A06105346CE050D600
:10528000E4F1BEA02DDB8434912C03EBACA9DF61EB
:10529000270B873168DA3C2758DB6A34420AC6EAB2
:1052A000CA0C0634F46087CE9CF742E4551D0D51BC
:1052B00099A388B0F0AD8D338C4C2062A698F195FF
:1052C0000424F57529C76CABBB0F214880139DD60C
:1052D000BF7C82F2E17797A4EFFEC31C93D100D488
:1052E000454F25F45F15500F5D151C158EE5AFCFAA
:1052F000BCBB4146B4DAAF1711DA81F697B64ADF84
:105300006D5CF6A8054BE901CEE555F65D9918747C
:105310005D9758F4A7A27C2629FCAF5C57F3304672
:105320001675A03BD1483167F2ED46226B641B2B0A
:105330007FFE5026D76EBD76EBEFBEB5774C12A838
:105340000EEEEBBCFB81E354FF18CC2F30F449F593
:105350007B1794B8E923B2F137D7BE56B52B785FE7
:10536000AB5B56824D4AE9BCE3A4759E97A5AB673B
:10537000B2020DF80796285C4820F7115CF79732C7
:10538000F73AB90A0CF52CF9D9AAEA1EA8A7EAF946
:10539000412FCF00BD1D10D0C54E759CD5D01671C4
:1053A000A0B8CFD4B47C0A7360973452BE62522B3B
:1053B000633389EA83FE7BE5E77ACFC09E38975D49
:1053C000ED9CB51A0F14E91C72CA5D7A75F03DF7B1
:1053D000E984E2BC8F4A6AD5C454F475DB51F0EF1E
:1053E0003AA334EE7E5A43C300604664383E6CD61E
:1053F00053E0F67DE962C03653FA613CA95531B6F7
:105400004917A19A174D2DC785697FA306E4182D6A
:10541000A9CF0D2FF75A124EBE3D255A1F11A2AF2C
:1054200079E75801B34947B31B030202C5C0DADA72
:10543000CB5E5B3222430195AD793780AE020E4DD3
:10544000B1A97BCE2C98AB1BD62CBD568D8E587C2B
:105450000C2EBD3179968F262819767AB3BA9235FB
:1054600041695DCDBE36F82BBCED5ACECCAD0BAE4E
:10547000C3F73FFDA9D8270F3BC67A956A55EA972F
:10548000913FE1FE3B8E3DD6B418061E2E467DC2EE
:10549000572E2C10252332787C1BAE5D183CCA4A4F
:1054A000EA186F96DB93476F0157F563BE254AE80C
:1054B0007C11036899215F3E882AA9211A37182494
:1054C000D2E62521135303198487E29A0202114779
:1054D000A01254152047139ED7E3C89B85F7F6AC5E
:1054E0008A0756631A526213EF3F68BFAD80612787
:1054F00077789F63BF80909811428F5759622DBC77
:10550000B9D0EE7D55DA405A95576DB51364FBDD81
:10551000F001A123BFBE5CA170FF2CF64CDB8070B4
:10552000703040720A681CB191829F16FEEE7D6F4A
:105530004E52B8E02E70F6AD5643BACA8D1F1940D0
:10554000A276F99EB997AE0D34E36B089E38975D4D
:10555000ED9CB51A0F14E91C72CA5D7A75F03DF71F
:10556000E984E2BC8F4A6AD5C454F475DB51F0EF8C
:105570003AA334EE6DEF4D50D3D910C982FBFBCC6A
:105580007B4D4C69C9C8959551AA2939ECCBB95EB8
:10559000A694C4801B54BC67599223D9FBF6E9B486
:1055A000A2F65E5FC7E0F088EA849457B8A39A2B0E
:1055B000413D86D05EAA17124D5833366913F9E77C
:1055C000123248FA25704DC826AA1F68652FB841C7
:1055D0002E34974F925A6C7DC75B6F15EFCC5744B2
:1055E0000FE35FFEEE61A11E8BE0B474AA87E8FBB7
:1055F000AC5938196CECF2DAB34A4FFDA7648DE66A
:10560000ED81A05AE518C6BD933346054CC4C9DAEE
:1056100058BAA40F4D9FF0734DD238C424884B0E56
:1056200006A91527BB9805663E4A123F2F4A09175F
:10563000ADBF442F2FC3F1916CCF43EFAF219D71CC
:105640009F72F046E47ADC2F0BB1C8845B4E88254C
:10565000F8FF407383239DCBCD9CEC4C3DC6671770
:10566000F66A2F172047139ED7E3C89B85F7F6AC41
:105670008A0756631A526213EF3F68BFAD806127F5
:1056800077789F63BF80909811428F57C5FE79C687
:105690006AE08F0834A1471CB60897D40FB1321ABC
:1056A000B5FE7A6D95499D8097D24C301E9FC33DC3
:1056B000ABA29357E3D21301953D5B2F4B9B1D4744
:1056C000E69C04347C88DD824E3C617FB5BEE737C2
:1056D000334C902A19418867A0610534EFA6C44174
:1056E0005EF0D44337E6BC156EDC99D15F034155BB
:1056F0007528822243B365633CAB9026F1999E19CD
:10570000258F2D0E2B7B0C64FFEC14846FB30AFCE9
:10571000E15353249A5AA4E6F65E7BB2C72A1C9C36
:10572000097BC1844F29FA5E7552EFD478CCB89AC0
:10573000B27556A5205D1A3AD91FB6EFBA19EFFB1C
:10574000301E278ED7CBDCAB7EEE822A80ECF33A7C
:105750004205E14F5505A42113FB39B8B43FBAE225
:10576000112F979EE5DAB1C824F6B65FA3CB755D1D
:105770001F0D670B24CF6187073AC5E6AA87E8FBB0
:10578000AC5938196CECF2DAB34A4FFDA7648DE6D8
:10579000ED81A05AE518C6BD933346054CC4C9DA5D
:1057A00058BAA40F8D8D981A6F31284C6F79F0B7C5
:1057B00060C56206C23BAD4EE4FBA23ADADB74CCB4
:1057C00002E5CA78B6CB56160B593A28AF219D711F
:1057D0009F72F046E47ADC2F0BB1C8845B4E8825BB
:1057E000F8FF407383239DCBCD9CEC4C3DC66717DF
:1057F000F66A2F172B2DE4489D9BBF85AA2FFF44E7
:105800008F251E2979BD97871E0E3C966D5843DB68
:10581000C0C49181207ADB410E6729E756E48FEC02
:1058200047B338962E55572F12C17C59248DB23369
:10583000A98D10F08C07B09BFB680AEFC6CD699567
:105840003B6CF78B459D24D7C4AACEB334EA566689
:1058500035240C51B6029B606E17642D369255109C
:10586000542C6EB733B09C38A15B695A8C6E1169A9
:10587000903C2A73F110533A0CC4D020249320CDCD
:10588000A382C7040A1469C9C3DBB64160B0C4452A
:10589000C510A2192B7B0C64FFEC14846FB30AFCB7
:1058A000E15353249A5AA4E6F65E7BB2C72A1C9CA5
:1058B000097BC1844F29FA5E7552EFD494BA3267DE
:1058C0003822626D9984BA3D1A100EB6D661BC8733
:1058D000CF243A2643827DC06213069719E9BDE8BA
:1058E000D41C9B795505A42113FB39B8B43FBAE207
:1058F000112F979EE5DAB1C824F6B65FA3CB755D8C
:105900001F0D670B24CF6187073AC5E66CE050D6C0
:10591000E4F1BEA02DDB8434912C03EBACA9DF6154
:10592000270B873168DA3C2758DB6A34420AC6EA1B
:10593000CA0C06348D8D981A6F31284C6F79F0B7E8
:1059400060C56206C23BAD4EE4FBA23ADADB74CC22
:1059500002E5CA78B6CB56160B593A28BD91423D9E
:105960004BBD8025F87E56EB8E8C19448BB5BE035B
:10597000D003DB3579FFC6E536AEBF083D2C319C40
:10598000BF57F3BE2B2DE4489D9BBF85AA2FFF4434
:105990008F251E2979BD97871E0E3C966D5843DBD7
:1059A000C0C49181207ADB410E6729E7DD67932827
:1059B00017FF2179753E5764E8D037B7E688B5F20E
:1059C000DD36AE4F066E83BF3E32AAC0AED5CA5496
:1059D00031E35855FB81E354FF18CC2F30F449F5DF
:1059E0007B1794B8E923B2F137D7BE56B52B785F51
:1059F000AB5B56824D4AE9BCE3A4759E132F41660A
:105A00003120410B825E079525306290FC4651752E
:105A10006B17A7C6849AEA06D6BCE3D9FB052922F0
:105A20008785DBA261E87D3E9215A8C0F74AAB07E7
:105A300088DBA5D7BDEEC4F2B0ECCD83D6D41E1260
:105A400022A1E807553C76635C66D7DD958E65EE4E
:105A5000EEAF3EC4793341C9520D039AAA261AD635
:105A6000B0134FA030FEA2F65F01789521953BBDA3
:105A700065998C97B9FA3D040831D05C60C892FBF7
:105A8000842649C58D3BDD91EF8782E1D4C8EDC402
:105A9000E3BBA058CE0B4732907FA4C76CE050D632
:105AA000E4F1BEA02DDB8434912C03EBACA9DF61C3
:105AB000270B873168DA3C2758DB6A34420AC6EA8A
:105AC000CA0C0634F46087CE9CF742E4551D0D5194
:105AD00099A388B0F0AD8D338C4C2062A698F195D7
