:020000040800F2
:10000000504D002045010008051700087F12000828
:1000100003170008BD09000899230008000000002C
:10002000000000000000000000000000891C000823
:10003000DD0D00080000000087170008D11D000832
:10004000AD23000885170008191F0008E11B0008F0
:10005000D50F00083D1A0008DF0D0008E70D000865
:10006000EB0D0008EF0D0008F30D0008990C0008D7
:100070009D0C0008A10C0008A50C0008A90C0008A4
:10008000AD0C0008B10C00086507000895230008B6
:1000900097230008BF090008C1090008F70D0008F0
:1000A0001B1F0008211F00081F1F00081D1F00083C
:1000B000391F00084D1F0008651F0008671300085E
:1000C000651300086B130008691300081F1C000863
:1000D000211C0008B12000080D210008852100081E
:1000E000E30D0008D11A0008932300086F1F0008D1
:1000F000751F0008731F0008711F000867070008BC
:10010000091000081D1C0008691F0008231C0008B6
:10011000F51F0008552000086B1F00086D1F000820
:10012000B50C0008B90C0008BD0C0008C10C000893
:10013000DFF80CD000F004FB004800471D39000830
:10014000504D0020004800473101000840EA0103FB
:100150009B0703D009E008C9121F08C0042AFAD27D
:1001600003E011F8013B00F8013B521EF9D2704741
:10017000D2B201E000F8012B491EFBD270470022E9
:10018000F6E710B513460A4604461946FFF7F0FF96
:10019000204610BDCBB203E00178994203D0401C49
:1001A000521EF9D20020704730B5044600200346A5
:1001B00000E05B1C934203D2E05CCD5C401BF8D0B6
:1001C00030BD2DE9FE4F804681EA0300C00F0C468A
:1001D000009021F0004123F00045B8EB0200A94156
:1001E00005D24046214690461C460B46024623F067
:1001F0000040104347D0270DC7F30A00C3F30A514C
:100200000290401A019040286BDAC3F3130040F4C7
:10021000801B0098924620B10023D2EB030A63EBC7
:100220000B0B01985946C0F14002504600F0C2F94C
:1002300006460D4650465946019A00F0DAF910EB91
:1002400008006141002487EA115284EAE7731A43E7
:1002500040D0009A62B3019A012A4FEA075215DC96
:10026000001B61EB02014FF0004202EA0752CDE9A8
:100270000042001C41F5801132462B4600F011FA75
:1002800003B0BDE8F08F40462146F9E7001B61EB63
:100290000201001C41F5801300185B412018A2F5F3
:1002A000001747EB030140EAD570B6196D4111E024
:1002B0006D084FEA360645EAC0754FEA0752001B43
:1002C00061EB0201001C41F5801149084FEA300042
:1002D0000019514132462B4603B0BDE8F04F00F003
:1002E000D1B90098012240000023D0EB020263EB59
:1002F000E073009821464FEAE074B8EB000061EB30
:100300000401E9E783F000435BE781F0004158E72F
:100310002DE9FE4F81EA030404F0004421F000417E
:1003200000944FF0000B23F0004350EA01045ED02C
:1003300052EA03045BD0C3F30A54C1F30A552C44B8
:10034000A4F2F3340194A0FB0254C1F3130141F46D
:100350008011C3F3130343F4801301FB024400FB39
:10036000034E840A970A44EA815447EA8357A4FB60
:10037000076802958D0A05FB07854FEA932C04FB5D
:100380000C542705029D4FEA065847EA1637B5EB8D
:1003900008056EEB070C870E920E47EA811742EABA
:1003A0008312A7FB0201B6EB0B0164EB00042B0DDB
:1003B00043EA0C335E1844EB1C50DA465146E7FB27
:1003C0000201C5F313044FEA0B3343EA14534FEA17
:1003D0000432019C43EA0603A4F10C040294009C3D
:1003E000CDE900B400F05DF903B0BDE8F08F002066
:1003F0000146F9E72DE9F04D81EA030404F0004BD2
:1004000021F0004514464FF0000A23F0004150EA65
:10041000050220D054EA01021DD0C5F30A57024656
:10042000C5F31303C1F31300C1F30A5640F480155A
:1004300043F48013A7EB0608101BD64608F2FD38DC
:1004400073EB050002D308F1010801E092185B414B
:10045000B8F1000F03DA00200146BDE8F08D00205E
:100460004FF48011064684460EE0171B73EB050718
:1004700005D3121B63EB050306434CEA010C490844
:100480004FEA300092185B4150EA0107EDD152EA81
:10049000030012D082EA040083EA0501084305D074
:1004A000101BAB4106D20122002306E000224FF0D0
:1004B000004302E06FF0010253101AEB06004CEB10
:1004C000085110EB0A0041EB0B01BDE8F04D00F0C4
:1004D000D9B870B521F0004303430CD0C1F30A55DD
:1004E0000024D5EB040564EB0403D617AD1AB34121
:1004F00002DB0020014670BD201841EB025170BDA7
:100500000EB540F2334102910021CDE900110A46B7
:100510000B4600F0C6F803B000BDC1F30A5210B597
:10052000C1F3130140F2FF3341F480119A4201DA22
:10053000002010BD40F233439A42A2F2334203DC62
:10054000524200F046F810BD904010BD30B5041E78
:1005500071F1000404DB4FF00044404264EB010100
:10056000141E73F1000405DB1C464FF00043524299
:1005700063EB04038B4208BF824230BD01F00043AD
:1005800030B421F0004150EA010206D00A0DA2F574
:100590006072C1F31301002A02DC30BC00207047F6
:1005A000440F44EAC104C100E01830BC00EBC25063
:1005B00000F031B8202A04DB203A00FA02F10020D2
:1005C00070479140C2F1200320FA03F31943904091
:1005D0007047202A04DB203A21FA02F000217047FC
:1005E00021FA02F3D040C2F120029140084319469B
:1005F0007047202A06DBCB17203A41FA02F043EA83
:10060000E07306E041FA02F3D040C2F120029140CB
:100610000843194670470029A8BF7047401C49008D
:1006200008BF20F00100704710B4B0FA80FC00FA57
:100630000CF050EA010404BF10BC704749B1CCF182
:10064000200421FA04F411FA0CF118BF012121430E
:100650000843A3EB0C01CB1D4FEA00614FEA1020C9
:1006600042BF002010BC704700EBC350104400296B
:10067000A4BF10BC7047401C490008BF20F0010017
:1006800010BC704710B5141E73F1000408DA401C4A
:1006900041F1000192185B411A4301D120F00100A1
:1006A00010BD2DE9F04D92469B4611B1B1FA81F291
:1006B00002E0B0FA80F220329046FFF77BFF04465A
:1006C0000F4640EA0A0041EA0B0153465A460843E6
:1006D00013D0114653EA010019D0C8F14002504628
:1006E000FFF777FF05460E46504659464246FFF74C
:1006F00061FF084305D0012004E020463946BDE8EB
:10070000F08D0020054346EAE0762C4337430A98F3
:100710006305E40AA0EB08000022FD0A44EA4754FE
:100720000A3002D500200146E9E7010510196941A8
:10073000DDE9084500196941BDE8F04DA2E7000078
:10074000064C074D06E0E06840F0010394E807001E
:1007500098471034AC42F6D3FFF7EEFCA84F0008E0
:10076000C84F000870477047194910B5C888421C27
:10077000CA8014282BD30024CC8000F045FE01F061
:1007800007FB04F09FF803F075FD01F0FBFB00F0A0
:100790004DFF1048104902784AB190F824008207B2
:1007A00007D5C00703D00120C1F8BC0101E0C1F8A2
:1007B000BC4101F0B1FA00F087F900F03FF800F019
:1007C00081FE00F033F9BDE8104003F055BF10BDC5
:1007D00000000020340100200080214210B501F00B
:1007E00054FA00F04DFD40F6B83000F0C5FDBDE80C
:1007F0001040322001F0EEBA10B503F095F803F086
:10080000D3F802F09BF902F0FFF902F0A7FF02F023
:10081000DFFFBDE81040FFF7A7BF10B503004FF0A2
:100820000002104601D0012905D8002010BD9C5CB3
:100830006040521C92B28A42F9D310BD2DE9F047B4
:100840005B4D5C482B4629781B6B00244FF4FA72F1
:1008500011B32E4695F824C096F82C70DFF8589105
:1008600076785FEA8C7840F2E73AC7F3810142D5A7
:100870005FEACC7324D07EB3032909D0524602210B
:1008800002F068F895F82C0040F00C0085F82C0078
:10089000C5F83090BDE8F0875B1C2B63934202D112
:1008A0004FF4617204E0B3F57A7F04D364222C63C1
:1008B000022102F04FF815F82C0F20F00C0072E026
:1008C0000229E7D04EB1022102F044F815F82C0FAE
:1008D00020F00C0008300BE001E05246F3E7002264
:1008E000022102F037F815F82C0F20F00C00001D43
:1008F00028706C60CEE707F00308B8F1010F09D04B
:10090000B8F1020F15D0FC43A4071DD05BB35B1EEA
:100910002B6346E001290AD06422022102F01AF872
:1009200095F82C0020F00C00001D85F82C002C639D
:1009300037E0022914D0022102F00CF895F82C00BF
:1009400020F00C00083009E0032909D052460221AA
:1009500002F000F895F82C0040F00C0085F82C000F
:10096000C5F830901DE05FEACC7304D0012918D09F
:1009700066B164220BE0022913D0022101F0EAFFE4
:1009800095F82C0020F00C00083008E0002202212D
:1009900001F0E0FF95F82C0020F00C00001D85F818
:1009A0002C0015F82C0F20F00300287072E70000CF
:1009B0003401002000040040F0BA0400FEE7704754
:1009C0007047FCB504464FF6FF7700200D46ADF8A2
:1009D000007048F205068DF804001EE014F8010BC3
:1009E0008DF8040001A9084600F041FDBDF80000A3
:1009F0009DF8041080EA0120ADF800000020BDF849
:100A000000100A0402D586EA410101E007EA41012B
:100A1000401CADF800100828F1DB6D1EDED26946DF
:100A2000084600F00DFDBDF80000FCBD30B5C5B0B6
:100A30000024419442944394449401F047FF41A818
:100A400001F060FEC0B2042839D17E208DF800008C
:100A500008208DF801009DF802001A4D20F03F009B
:100A6000001D20F0400040F080008DF80200287842
:100A70008DF803008DF804408DF805409DF80401C1
:100A80008DF806009DF805018DF807009DF8060118
:100A90008DF808009DF807018DF809000122042156
:100AA000684601F0A8FF6878694608B1012000E0B7
:100AB000022003F079FAA87B40F08000A87345B0CB
:100AC00030BD0000340100204F4910B5488C421C55
:100AD0004A8432287ED900234B848A7B4FF00A0057
:100AE000D40703D022F001028A7308828A7B94071C
:100AF00003D522F002028A734882D2B2540703D58A
:100B000022F004028A738882D2B2140703D522F03D
:100B100008028A73C882D2B2D40603D522F010022A
:100B20008A730883D2B2940603D522F020028A7316
:100B30004883D2B2540603D522F040028A738883D8
:100B4000D2B2140603D522F080028A73C88391F8CA
:100B50002020FF208AB381F820300873488A18B11A
:100B6000401E4882FD200873C88A28B1401EC882F2
:100B7000087B20F008000873488B28B1401E48838A
:100B8000087B20F020000873C88B28B1401EC88362
:100B9000087B20F0800008731B480C7B443803F06E
:100BA0008DFE194821464438006801F045F8164882
:100BB000BDE81040443803F07DBE012281F82020BA
:100BC0000873088A18B1401E0882FE200873888ABC
:100BD00038B100E016E0401E8882087B20F0040057
:100BE0000873088B28B1401E0883087B20F0100092
:100BF0000873888B0028CFD0401E8883087B20F0A4
:100C00004000C8E710BD000034010020F0B54FF4EB
:100C100080744FF49647A9B022463946174801F030
:100C20004DFF174800908020ADF81800154D781042
:100C300007900395ADF810400595684601F036FE23
:100C40001248134E1049C660016089140182491090
:100C50004661018322464FF4E13101F092FE0B48D8
:100C60000C491C302246C66001600482491545616A
:100C70000183394601F085FE29B0F0BD00440040F3
:100C80000048004000100140004C004034000020AB
:100C9000000801400038014000F060B800F05EB884
:100CA00000F05CB800F05AB800F058B800F056B840
:100CB00000F054B800F052B800F050B800F04EB850
:100CC00000F04CB8C10002D50249086070470249E3
:100CD0004860704704040240000002400029016897
:100CE00002D041F0010101E021F0010101607047F3
:100CF00002460020D10001D5034900E003490968FC
:100D0000114200D001207047000402400000024060
:100D1000002A026801D00A4300E08A43026070475B
:100D200030B5026847F6F0739A430C6A8B68234328
:100D3000D1E904452C4323438C692343CC692343E5
:100D40004C6A23438C6A234313430360CA6842609E
:100D50000A6882604968C16030BD000010B501F0CA
:100D60001EFB1020FFF7C4FF01281BD04FF4805456
:100D70002046FFF7BDFF01281AD024032046FFF7C5
:100D8000B7FF01281BD0124C2046FFF7B1FF012806
:100D90001CD12046FFF796FF0E480021BDE8104009
:100DA000FFF79CBF1020FFF78DFF00210A48F5E7F1
:100DB0002046FFF787FF084800212830EEE720464D
:100DC000FFF780FF044800216430E7E710BD000012
:100DD00000000110580402401C000240704700F05F
:100DE000B1B800F0AFB800F0ADB800F0ABB800F0AB
:100DF000A9B800F0A7B800F0A5B800000149086044
:100E0000704700001404014010B5012000F08AF87A
:100E1000434C18B1208840F0010006E0022000F0A9
:100E200081F820B1208840F00200208010BD04200D
:100E300000F078F818B1208840F00400F5E70820A9
:100E400000F070F818B1208840F00800EDE710209D
:100E500000F068F818B1208840F01000E5E7202085
:100E600000F060F818B1208840F02000DDE7402055
:100E700000F058F818B1208840F04000D5E78020F5
:100E800000F050F818B1208840F08000CDE74FF412
:100E9000807000F047F818B1208840F48070C4E7F3
:100EA0004FF4007000F03EF818B1208840F4007054
:100EB000BBE74FF4806000F035F818B1208840F4AB
:100EC0008060B2E74FF4006000F02CF818B1208881
:100ED00040F40060A9E74FF4805000F023F818B107
:100EE000208840F48050A0E74FF4005000F01AF83A
:100EF00018B1208840F4005097E74FF4804000F08C
:100F000011F818B1208840F480408EE74FF400407B
:100F100000F008F8002889D0208840F4004084E7D9
:100F200018000020064A014600201268044B0A40BF
:100F300014331B680B4202D0002A00D001207047F6
:100F40000004014008B50020ADF80000FFF75CFF89
:100F500001F025FA1E48BDF8001001800120FFF7BE
:100F60004DFF0220FFF74AFF0420FFF747FF08204C
:100F7000FFF744FF1020FFF741FF2020FFF73EFF5F
:100F80004020FFF73BFF8020FFF738FF4FF48070D1
:100F9000FFF734FF4FF40070FFF730FF4FF480602D
:100FA000FFF72CFF4FF40060FFF728FF4FF480504D
:100FB000FFF724FF4FF40050FFF720FF4FF480406D
:100FC000FFF71CFFBDE808404FF40040FFF716BFD5
:100FD000180000207047000004490A6822F010023F
:100FE0000A600A6802430A6070470000002002405D
:100FF00004490A6802F038020A600A6802430A607B
:1010000070470000002002407047000070B50C4699
:10101000002852D0294A811A1315D614904243D081
:1010200014DC2749274D41184FF6FF701BD0994219
:1010300027D0B14241D10121102000F0C9FB60044A
:1010400001D4200439D50121112008E099422ED085
:10105000B1422FD0B1F5406F2FD101210802BDE878
:10106000704000F0B5BBA10405D4610403D4210491
:1010700001D4844202D1012105200AE0012104208B
:10108000EDE7210703D4E10601D4844209D101210F
:10109000092000F09DFB2846BDE87040012100F0CA
:1010A00087B801210820DAE701212020D7E70121B4
:1010B0004020D4E701218020D1E770BD0014014019
:1010C00000F8FEBF0002300038B50446ADF800104D
:1010D00002228DF8022048208DF803002046FFF7F9
:1010E00095FF6946204600F013F838BD38B5044630
:1010F000ADF8001003228DF8022010208DF80300B7
:101100002046FFF783FF6946204600F001F838BD0E
:10111000F0B50022002849D0CC7804F00F03E40693
:1011200001D58C7823430C784FF00F0C14F0FF0F8F
:101130004FF0010E1AD005680E880EFA02F4264010
:10114000A6420FD196000CFA06F725EA070703FA24
:1011500006F5CE783D43282E00D14461CE78482E46
:1011600000D10461521C082AE6D305600A88FF2AD0
:101170001CD94468002202F108060EFA06F50E8812
:101180002E40AE420ED196000CFA06F7BC4303FA8D
:1011900006F7CE783C43282E00D14561CE78482E04
:1011A00000D10561521C082AE5D34460F0BD00005F
:1011B000F0B5104D6B68440D260184B2C0F30157A1
:1011C000B440C0F30342032F05D0C0020AD5032068
:1011D0009040834307E0686823F0706220F07060FD
:1011E000686002E0A34343F0706201B122436A6089
:1011F000F0BD0000000001400246002092680A4253
:1012000000D001207047F0B50022002832D003251D
:1012100011F0FF0F4FF0010C4FF00F0E12D00368CA
:101220000CFA02F401EA0406A64207D194000EFA71
:1012300004F623EA060705FA04F33B43521C082A86
:10124000EED30360FF2915D94368002202F1080696
:101250000CFA06F401EA0406A64207D196000EFA3B
:1012600006F723EA070405FA06F32343521C082A6B
:10127000ECD34360F0BD4161704701617047FEE708
:101280002DE9F8432F4C01212046FFF72FFF4FF4A3
:10129000804631462046FFF729FF2B4A2B4F4FF45B
:1012A000FA7512F82C0F3B4640F003001070107ACC
:1012B000012140F00300107200222548009501F042
:1012C00030FB00223B4602212248009501F010FB32
:1012D00004212046FFF70AFF02212046FFF706FF00
:1012E000DFF874904FF4805841464846FFF7ECFE13
:1012F0001A4F0025C7F884517100204607F5C277C0
:10130000FFF7F4FE31464846FFF7DEFE661431462D
:101310004846FFF7D9FEBD6300F0BAFC00F06CF957
:10132000FFF774FC084820388460A0F80C80046043
:10133000868001F07FFBBDE8F84301210848FFF7F4
:10134000D5BE0000000C01403401002000408F4059
:10135000002C0140000400400010014000802142A8
:1013600000080140704770477047704700E000BFB9
:10137000401E80B2FBD2704770B500EB80010325A0
:10138000C90047F6F872B2EB910F03D900EB800069
:1013900080031AE04FF6F072B2EB910F04D90425E6
:1013A00000EB8000400310E0114AB2EB910F04D92A
:1013B000052500EB8000000307E00E4AB2EB910F19
:1013C00005D9062500EB8000C002040C00D10124E1
:1013D00045F2555000F02EF8284600F01FF8204640
:1013E00000F022F800F012F8BDE8704000F004B8F8
:1013F000E0FF0100C0FF030002494CF6CC4008604A
:101400007047000000300040AFF3008002494AF608
:10141000AA20086070470000003000400149486081
:1014200070470000003000400149886070470000AC
:101430000030004001490860704700000030004063
:1014400070B500220C8862F30F03012606FA02F53C
:101450002C4207D0C2F10F0506FA05F143EA010557
:1014600065F30F03521C102AF0DB038070BD70B5CA
:1014700000220C7862F30703012606FA02F52C42DB
:1014800007D0C2F1070506FA05F143EA010565F345
:101490000703521C082AF0DB037070BD81070CD1D2
:1014A0006421B0FBF1F201FB120141B94FF4C871A4
:1014B000B0FBF1F201FB120008B1002070470120DF
:1014C000704700002DE9F047484C494823462178F1
:1014D0009B6B00254FF4FA7940F2E732D9B12146EF
:1014E00094F824C091F83470424E5FEA8C78C7F3C8
:1014F000810130D55FEACC731FD0032908D00121C8
:1015000001F028FA94F8340040F00C0084F834001C
:10151000A663BDE8F0875B1CA3634B4501D1642241
:1015200003E0B3F57A7F03D3A563012101F012FA3A
:1015300014F8340F20F00C0053E00129E9D0002208
:10154000012101F007FA14F8340F20F00C00001DFF
:1015500020706560DDE707F0030CBCF1010F09D0D6
:10156000BCF1020F15D0FD43AD071ED053B35B1E77
:10157000A36334E001290AD00022012101F0EAF935
:1015800094F8340020F00C00001D84F83400A563AA
:1015900025E0022914D04A46012101F0DBF994F834
:1015A000340020F00C00083008E0032908D00121A5
:1015B00001F0D0F994F8340040F00C0084F83400C5
:1015C000A6630CE001290AD00022012101F0C2F932
:1015D00094F8340020F00C00001D84F8340014F856
:1015E000340F20F00300207093E700003401002046
:1015F000002C0140F0BA04000A4809491022016099
:101600000949416002812022C16002824022416179
:101610000283C161802101842821418401F042BA02
:1016200000300140F00000200008014070B52E4C51
:101630002E4B204626782E490022C08C012556B11B
:10164000F0B140F26C72904202D2D3F8302192B1E4
:10165000C1F8845146E0D3F8303123B1C1F8845148
:101660004FF4FA6001E010B1401EE08401E0C1F8DF
:101670008421A27070BDC82834D9C720E08431E02D
:10168000C1F88421D3F83021174890F8240020F0C5
:10169000020192B1C00706D084F8241094F8240007
:1016A00040F0010016E0002002F020FD94F8240034
:1016B00040F0020084F82400F0E7C20704D040F0B4
:1016C000020084F8240001E084F8241094F8240037
:1016D00020F0010084F82400800703D5A07808B129
:1016E00002F01AFDA57070BD3401002000002242F6
:1016F0000080214210B5FFF787FEBDE8104000F0E2
:1017000047BEFEE77047000070B50F25C27801782C
:10171000012652B31A4A1268447802F4E062C2F514
:10172000E062120AC2F10403D54082789C402A404C
:10173000224314018A07D30E21F0030202F1E022B2
:101740009C40D2F80054FF2199408D430C40254322
:10175000C2F80054007800F01F018E40400980005C
:1017600000F1E020C0F8006170BD01F01F0086406C
:101770004809800000F1E020C0F8806170BD0000E1
:101780000CED00E070477047044A0029516901D010
:10179000014300E0814351617047000000100240A6
:1017A000044A0029D16901D0014300E08143D1619D
:1017B0007047000000100240044A0029116901D05E
:1017C000014300E0814311617047000000100240B6
:1017D000044A0029916901D0014300E081439161ED
:1017E0007047000000100240044A0029D16801D06F
:1017F000014300E08143D1607047000000100240C7
:1018000070B5002400F068F84FF48035284600F0E9
:10181000F5F8681E2146641C8142FBD300F03EF9B6
:10182000012803D0BDE8704000F025B81020FFF774
:10183000D3FB0220FFF7DCFB002000F0D5F80020EE
:1018400000F008F94FF4806000F0FAF84FF4E0116E
:10185000284600F00FF9012000F006F9392000F0C9
:10186000A3F80028FAD0022000F00EF900F0B4F836
:101870000828FBD170BD10B500F02EF8012000F053
:10188000D7F8202000F090F80028FAD0002000F0CF
:10189000ABF8002000F0DEF84FF4806000F0D0F8E4
:1018A0000220FFF7A5FB1020FFF796FB4FF4601115
:1018B000002000F0DFF8012000F0D6F802E002205E
:1018C00000F0E2F8392000F06FF80028F7D000F0BF
:1018D00083F80828FBD110BD0B48016841F00101D5
:1018E00001604168094A114041600168084A11409D
:1018F0000160016821F480210160416821F4FE014A
:101900004160002181607047001002400000FFF834
:10191000FFFFF6FE30B5204A5168204B11F00C0154
:1019200003D0042901D0082901D0036011E05168D7
:10193000022301F4701103EB9141536813F4803FCB
:1019400002D053689B0301D5154B00E0134B59435C
:10195000016051680F2303EA1111124B5C5C0168AE
:10196000E14041605468072505EA14241C5D21FA12
:1019700004F48460546805EAD4241B5DD940C16036
:101980005268032303EA9232064B1B1F9A5CB1FB99
:10199000F2F1016130BD00000010024000127A0037
:1019A00000093D00384F0008034600205909094A44
:1019B00001290AD002290AD0516A03F01F0201232B
:1019C00093400B4200D0012070471168F5E7116A7F
:1019D000F3E70000001002400248406800F00C00ED
:1019E0007047000000100240034A516821F0F001E6
:1019F0000143516070470000001002400B490A6823
:101A000022F480320A600A6822F480220A60B0F56B
:101A1000803F07D0B0F5802F03D1086840F4A020A4
:101A200008607047086840F48030F9E70010024011
:101A30000149086070470000000042427047000002
:101A4000034A516821F4E06101435160704700008E
:101A500000100240034A516821F4605141EAC0007D
:101A6000506070470010024001490866704700004E
:101A700000004242034B5A68084322F47C12104390
:101A80005860704700100240034A516821F003017A
:101A900001435160704700000010024030B50B4C0C
:101AA00040F2FF153120FFF77FFF20706068401C77
:101AB0006060207810B96068A842F3D13120FFF748
:101AC00073FF002800D0012030BD0000100000206E
:101AD0007047000002490A8882430A80704700006C
:101AE000042800402DE9F04700F060F8DFF8AC80F2
:101AF0000546B0FBF8F32A482A4E018899422CD0BB
:101B0000038040F2B2744FF4B7774FF4B6790CE02B
:101B10002046FFF7C3FC20B1BB4208D3A3F5B7733F
:101B200001E0A3F26D13641CA4B24B45F0D8B4805D
:101B300000241D4F0BE0B088FFF7B0FC08B1012C6A
:101B400028D0385D984204D81B1A641CA4B21C2B00
:101B5000F1D2641CB4715B1CF371B5FBF8F108FBA6
:101B600011504FF46161B0FBF1F23270B0FBF1F251
:101B700001FB12033C22B3FBF2F37370B0FBF1F3F1
:101B800001FB1300B0FBF2F102FB1100B07000206A
:101B9000BDE8F0871D2BDCD31D3BD6E7805101004B
:101BA0001A000020303E0020484F000803480088FB
:101BB0000249091F098840EA014070471C2800407B
:101BC00006490988C2B21140044A121F1288024213
:101BD00002D009B10120704700207047042800405E
:101BE00010B50120FFF7ECFF08B1FFF77BFF0220E3
:101BF000FFF7E6FF10B10220FFF76CFF0520FFF7AB
:101C000069FFBDE8104000F001B8000002480188FB
:101C10008906FCD5704700000428004070477047D3
:101C2000704770470029018802D041F0400101E06F
:101C300021F04001018070478181704730B50288F2
:101C40004C8802F441530A88CD8822438C882C4367
:101C500022430C8922434C8922438C892243CC891C
:101C600022431A430280828B22F400628283098A13
:101C7000018230BD0029818802D041F0040101E0D9
:101C800021F00401818070477047FFF7B9BD000063
:101C900070B51E4808221E4980F87E204B15016051
:101CA00083808B158160838180230161838240233F
:101CB0008161838320230162838410238162838571
:101CC00001638286134981630421818700F07EFBD2
:101CD0000E4800F00CFC0D4C00F03F00C8342070A2
:101CE0000A4800F004FC00064FF001054FF0000622
:101CF00001D5657000E06670044800F0F8FB40060E
:101D000001D5E57070BDE67070BD00006C0000206C
:101D1000000C0140001401402DE9F0411A4CE0880C
:101D2000002825D1194E4FF4FA60E080F0780127A1
:101D3000002570B1A4F1C80000F0D9FBB178C0B2A1
:101D4000814215D000F03F012170010614D5677063
:101D500013E00D48F770C83800F0C9FBC0B2B0708E
:101D6000010601D5677000E06570400602D5E77096
:101D7000BDE8F081E570FBE76570410601D5E770CD
:101D800000E0E570B070F3E73401002000000020AF
:101D9000F0B40E4B0B4D00241A896E790A48511C81
:101DA000198126B1642A0AD91C816C7103E0B2F54D
:101DB0007A7F04D91C81F0BC012100F0D5BCF0BCB5
:101DC000704700003401002000080140000000209E
:101DD00000F0A0B810B504002BD01648FFF79AFD0C
:101DE0004FF0E021086920F002000861086920F046
:101DF00001000861086920F0040008610D480E4ADE
:101E00000068B0FBF2F060434861086940F00200EE
:101E10000861086940F001000861002088610869D4
:101E200040F0020008614A6904480260096989B209
:101E3000416010BD3C3E002000127A001C000020D2
:101E400010B504002BD01648FFF764FD4FF0E020DA
:101E5000016921F002010161016921F001010161C3
:101E6000016921F0040101610D494FF4FA5209683A
:101E7000B1FBF2F14161016941F001010161002210
:101E8000826181690029FCD081690029FCD1641E2E
:101E9000F7D104490B68436182614968016110BD53
:101EA0003C3E00201C00002038B54FF00004050027
:101EB000009428D01448FFF72DFD4FF0E021086969
:101EC00020F002000861086920F00100086108693B
:101ED00020F0040008610C480C4A0068B0FBF2F0E6
:101EE00068434861086940F0010008618C618869B5
:101EF0000028FCD088690028FCD1054802684A61A6
:101F00008C614068086138BD3C3E002000127A00B8
:101F10001C00002000F043BA7047704770477047BC
:101F200010B500F02CF8BDE810400121014800F088
:101F300023B80000002C014010B500F030FA012158
:101F4000BDE81040880700F017B8000010B500F099
:101F500016F8BDE810400121014800F00DB800005E
:101F60000004004000F00BB870477047704770479E
:101F70007047704700F003B8C9430182704700F012
:101F80000EBA0000184AB2F84C0010B1401EA2F878
:101F90004C001649B1F8860410B1401EA1F8860421
:101FA0001349B1F8C00810B1401EA1F8C00810894B
:101FB00008B1401E1081D08C08B1401ED084D0885A
:101FC00008B1401ED080B2F8480010B1401EA2F8FF
:101FD00048005089002806D0401E80B250810A284F
:101FE00001D201201071704734010020341100200B
:101FF0003421002070B5164C40F226652946204653
:1020000000F049F9A0B1204601F0C2F930B12046F4
:1020100000F074FF10B1002102F0DCF8002120462E
:1020200002F042FA29462046BDE8704000F0DDB8D3
:1020300040F22441204600F02EF9002807D002216A
:10204000204602F0ABF920880148001D008870BDD1
:10205000004C004070B5154C40F2266529462046DC
:1020600000F019F9A0B1204601F092F930B12046F4
:1020700000F044FF10B1002102F0ACF8002120462E
:1020800002F012FA29462046BDE8704000F0ADB8D3
:1020900040F22441204600F0FEF8002805D002213D
:1020A000204602F07BF92088A08870BD00500040D7
:1020B00070B5154C40F226652946204600F0EBF835
:1020C00090B1204601F064F930B1204600F016FFCF
:1020D00010B1002102F07EF80021204602F0E4F960
:1020E0002946204600F081F840F22441204600F0C5
:1020F000D2F8002807D00221204602F04FF92088AC
:102100000148001D008870BD0038014070B51C4CAE
:1021100040F226652946204600F0BDF8A0B12046D1
:1021200001F036F930B1204600F0E8FE10B1002190
:1021300002F050F80021204602F0B6F92946204668
:10214000BDE8704000F051B840F22441204600F054
:10215000A2F840B10221204602F020F92088084868
:10216000001D008870BD40F22551204600F093F814
:102170000028F7D02046BDE87040022102F00EB9D9
:102180000044004070B5164C40F2266529462046B2
:1021900000F081F8A0B1204601F0FAF830B12046F5
:1021A00000F0ACFE10B1002102F014F8002120462E
:1021B00002F07AF929462046BDE8704000F015B8D3
:1021C00040F22441204600F066F8002807D00221A2
:1021D000204602F0E3F820880148001D008870BD09
:1021E00000480040C943018070470A0A012191401C
:1021F000C943018070470029818902D041F4005110
:1022000001E021F4005181817047002A828A01D0C7
:102210000A4300E08A43828270470000184A10B5E2
:10222000811A131590421BD007DC1649401814D0B0
:10223000984223D10121040217E0994213D0B1F54D
:102240006C4F1BD101218C032046FFF7CDFA2046AD
:10225000BDE810400021FFF7C7BA01214C0404E09B
:102260000121CC0401E001210C052046FFF7A4FA6E
:102270002046BDE810400021FFF79EBA10BD0000C7
:10228000004C004000BCFFBF0246002012880A42FA
:1022900000D00120704770B501F01F050126002411
:1022A000C1F3421306FA05F2012B0FD0022B0FD017
:1022B000838A4FEA11210088134206FA01F600EAE8
:1022C000060001D000B10124204670BD8389F0E7EB
:1022D000038AEEE710B5C1F3421301F01F04012198
:1022E000A140012B07D0022B07D01430002A02682E
:1022F00005D00A4304E00C30F8E71030F6E78A43D3
:10230000026010BD30B50446008A85B00D464CF61B
:10231000FF710840E98801432182A0894EF6F3113C
:102320000840A9882A8911436A8902431143A1817F
:10233000A08A4FF6FF410840A9890143A18268465F
:10234000FFF7E8FA1148844201D1039800E00298AF
:10235000642200EBC00101EB001029686FF0180542
:102360008900B0FBF1F0B0FBF2F109010B096B43FE
:1023700000EB8300322303EB0010B0FBF2F000F01F
:102380000F000843208105B030BD00000038014037
:102390007047704770477047FEE7FEF71FBA10B5E9
:1023A000FFF7A8F9BDE81040FEF726BA704702E033
:1023B00008C8121F08C1002AFAD1704770470020D0
:1023C00001E001C1121F002AFBD1704770B590F8DF
:1023D0007E500446002D7CD0A1882068FEF774FE54
:1023E0006D1E15F0FF057DD0A189A068FEF76CFE7B
:1023F0006D1E15F0FF0575D0A18A2069FEF764FEF9
:102400006D1E15F0FF056DD0A18BA069FEF75CFE77
:102410006D1E15F0FF0565D0A18C206AFEF754FEF5
:102420006D1E15F0FF055DD0A18DA06AFEF74CFE74
:102430006D1E15F0FF0555D0A18E206BFEF744FEF2
:102440006D1E15F0FF054DD0A18FA06BFEF73CFE71
:102450006D1E15F0FF0545D0B4F84410206CFEF752
:1024600033FE6D1E15F0FF053CD0B4F84C10A06C87
:10247000FEF72AFE6D1E15F0FF0533D0B4F8541098
:10248000206DFEF721FE6D1E15F0FF052AD0B4F871
:102490005C10A06DFEF718FE6D1E15F0FF0521D033
:1024A000B4F86410206EFEF70FFE6D1E15F0FF05E8
:1024B00018D0B4F86C10A06EFEF706FE6D1E15F075
:1024C000FF050FD0B4F87410206FFEF7FDFD6D1EF0
:1024D00000E007E015F0FF0F04D0B4F87C10A06F07
:1024E000FEF7F2FD2046BDE87040AFF3008070B506
:1024F00090F87E204FF6FF7404FA02F300219BB29D
:10250000002A7ED00568521ED2B2AD688688354258
:1025100000D00121002AF4D08568521ED2B2AD68E5
:1025200004EA41018689354201D041F00101002AC7
:1025300067D00569521ED2B2AD6804EA4101868AAD
:10254000354201D041F00101002A5AD08569521E5E
:10255000D2B2AD6804EA4101868B354201D041F028
:102560000101002A4DD0056A521ED2B2AD6804EABC
:102570004101868C354201D041F00101002A40D052
:10258000856A521ED2B2AD6804EA4101868D354299
:1025900001D041F00101002A7ED0056B521ED2B25B
:1025A000AD6804EA4101868E354201D041F0010157
:1025B0003AB3856B521ED2B2AD6804EA4101868FF0
:1025C000354201D041F00101DAB1056C521ED2B2A0
:1025D000AD6804EA4101B0F84460354201D041F0F1
:1025E000010172B1856C521ED2B2AD6804EA41019C
:1025F000B0F84C60354201D041F001010AB1521EE1
:1026000000E049E0056DD2B204EA4101AD68B0F8DE
:102610005460354201D041F00101EAB3856D521E8C
:10262000D2B2AD6804EA4101B0F85C60354201D035
:1026300041F0010182B3056E521ED2B2AD6804EAC8
:102640004101B0F86460354201D041F001011AB394
:10265000856E521ED2B2AD6804EA4101B0F86C60DA
:10266000354201D041F00101B2B1056F521ED2B224
:10267000AD6804EA4101B0F87460354201D041F020
:1026800001014AB1826F04EA41019268B0F87C40CE
:10269000224201D041F001011943C94389B2A0F897
:1026A0008010084670BD2DE9F0410D46B0F10008DC
:1026B00011D0072D0FD32A467E21FDF76BFD041E96
:1026C0000AD0A4EB0800281A85B2072D03D361783D
:1026D000481DA84202D90020BDE8F081601C491CB9
:1026E0004218475C5678FEF76CF9C1B2B94204D182
:1026F000B6EB102F01D12046EEE7601C6D1EADB287
:10270000D9E7000070B50021164C05460A4660184E
:1027100090F8200008B1521CD2B2491CC9B2042959
:10272000F5D3EAB10F4904222431081FFDF73CFD1F
:102730000C490023103928B1086B2860086BC1E9E7
:102740000C3009E0B4F89800421CA4F89820B0F5C9
:10275000FA6F05D9086B2860A4F89830042070BD82
:10276000002070BDB0480020C2684A40C260704777
:1027700010B5044681880068FEF7B8FCA189A068FE
:10278000FEF7B4FCA189A068FEF775FDA18820685A
:10279000BDE81040FEF76FBD2DE9F0479846914621
:1027A000074600254BE000F080FE00242646600628
:1027B000040E0620FEF7DAFD384600F06AFE02201D
:1027C000FEF7D4FD384600F02EFE08B1641CE4B2DA
:1027D000384600F062FE761CF6B2082EE7D3A8F168
:1027E0000100854209F8054038460EDA00F065FE22
:1027F0000120FEF7BBFD384600F04BFE0520FEF73A
:10280000B5FD384600F049FE17E000F056FE3846A8
:1028100000F047FE0E4C2078FFF746FB384600F0EC
:1028200038FE2078FFF740FB384600F036FE20786F
:10283000FFF73AFB384600F03CFE6D1CEDB2454513
:102840003846B0D300F05AFE2846BDE8F0870000B5
:102850003000002070B50646002441F001053046E6
:1028600000F037FEE9B2304600F057FE304600F087
:10287000BBFD48B1641CE4B2642CF0D301253046A2
:1028800000F03CFE284670BD0025642CF6D2F9E726
:1028900010B50446C9B200F0CFFD002804D120468F
:1028A000BDE8104000F02ABE10BD000010B5014682
:1028B000A0220548FDF74AFC0348002180F88D104E
:1028C000C0F89C1010BD0000B0480020074810B5AB
:1028D0000068002809D000F0A1FE00F03DFE00F0E5
:1028E000F9FEBDE8104000F0CBBE10BDB04800209E
:1028F0002DE9F04117461E460D468046069C02F023
:10290000EBF82946404601F099F83A4633464046EE
:1029100002F03CF8224629464046BDE8F04101F06D
:10292000EFB92DE9F04117461E460D468046069C3C
:1029300002F0D2F82946404601F088F93A4633467B
:10294000404602F023F8224629464046BDE8F041C1
:1029500001F051BA838D5B1C53434FF47A72B3FB81
:10296000F2F241B1012908D0022908D0032901D18E
:10297000A0F84020704782867047028770478287A0
:10298000704770B50E46044615460068012101F0F7
:10299000C7FD204601F0F6FB606810B12189FEF703
:1029A000A5FBE06810B1218AFEF7A0FB606910B1B9
:1029B000218BFEF79BFB0021204601F00BFC2A46F1
:1029C00031462068BDE8704000F078B8006800F03B
:1029D0008BB870B50E4615460446012101F0FAFB8E
:1029E0002A463146206801F015FD0121206801F0DA
:1029F0005BFD284670BD70B50B468178447863F363
:102A00000501461C21F04001651C817012B141F0A6
:102A1000800101E021F08001817029463046FDF7F8
:102A2000D0FF7055010A701941707F218170601DBF
:102A300070BD0000044910B548608860FFF798FE3B
:102A4000BDE8104001F08CBE240000200148406821
:102A5000408B70472400002001484068008B70477D
:102A6000240000200148406840697047240000208D
:102A70000148406800697047240000200849088820
:102A8000421C0A80642809D3002008804868007F1F
:102A9000800701D501F0B6BD01F07EBD7047000092
:102AA0002400002010B5044601F05CFE2189606816
:102AB000FEF71CFB61682089086110BD70B51646E1
:102AC0000C46054602F008FA284602F023F9214692
:102AD000284602F08BF93146284602F047F828468E
:102AE000BDE8704002F09EB970B50E460546002460
:102AF00000F0E2FA022808D13146284600F07AFABE
:102B000004460021284601F049FC204670BD2DE90D
:102B1000F04116460F460546002400F079FB50B9F7
:102B200032463946284601F075FC040003D00121E5
:102B3000284601F0B9FC2046BDE8F08170B5C0B070
:102B400069462F48FFF742FF010017D06846FFF79C
:102B5000AAFD040012D0A078294D00F03F01C6095B
:102B6000E43501290CD0E6B16878002806D021466A
:102B7000012001F019FA022001F0BAF940B070BD4D
:102B8000022000F06DF938B168780EB108B903E0A1
:102B900010B9022000F030F9A87B40F00800A873BB
:102BA000ECE7E078FF2812D029788142E6D1A87BB3
:102BB00040F00800A873A078C043800613D02146D7
:102BC000032001F0F1F9204600F0CEF814E0A87BD4
:102BD000214640F00800A873032001F0E5F92046E3
:102BE00000F0C2F8CAE7022000F070F920B10548F1
:102BF000012180F88814C1E7022001F0A5F9BDE7A2
:102C000050000020341100202DE9F041C2B0022014
:102C100000F05CF9524C0546A4F5805794F89604F0
:102C2000002690B104F28C410A22A7F1E400FFF7DC
:102C3000D0FE002808D0B87B40F00400B87384F8B8
:102C400096640220A4F8860485E04FF00108EDB3F5
:102C5000787810B1B4F8861471B1002194F8882402
:102C600002B1012211433ED094F88A1405290CD3F5
:102C7000A91C18B1012002E00121EFE7022001F0B8
:102C8000E8F9022000F0B8F865E06A78A91C354838
:102C9000FFF79FFE18B340F22622143050434FF442
:102CA0007A72B0FBF2F087F8058094F88A14801CE1
:102CB000491CC9B284F88A14A4F88604B87B40F091
:102CC0000400B8736879AD1CFF2800E00BE007D062
:102CD000A878C0438006D4D0022001F0EDF83AE095
:102CE0000229CED237E0B4F88604A0BB787890B33E
:102CF000397881B394F88B04401CC0B284F88B04FB
:102D0000884202D1401C84F88B04C0B2062801D945
:102D100084F88B847E208DF8000005208DF801005A
:102D20009DF80200002220F0400040F0BF008DF826
:102D3000020094F88B048DF804608DF803008DF880
:102D400005608DF806603F216846FFF754FE69462E
:102D5000022001F029F984F8886442B0BDE8F081CE
:102D6000341100205000002070B500283BD081783D
:102D7000867901F03F04C1781E4DFF2902D02878E2
:102D8000884230D10A2C01D0092C02D1012001F057
:102D9000ADF9022C03D00B2C01D0052C02D130460A
:102DA00001F0A4F9082C07D0032C1DD0062C1AD151
:102DB000BDE8704001F0B0B995F82400C00712D00A
:102DC00015F82C0F36B140F003002870287A40F037
:102DD000030007E020F00300401C2870287A20F050
:102DE0000300401C287270BD3046BDE8704001F001
:102DF0006BB900003401002010B5002422460128E0
:102E000004D0022808D0032811D10BE0114981F821
:102E1000502081F84F200AE00F4981F88A2481F878
:102E2000892404E00D4981F8C42881F8C32800F002
:102E300033F800280CD004EBC41210F8121011B1B2
:102E4000491E00F81210641CA4B2142CF3D3012004
:102E500010BD000034010020341100203421002076
:102E6000002806D0012805D0022807D0032809D061
:102E700000207047054890F84F007047044890F8CC
:102E800089047047034890F8C30870473401002054
:102E90003411002034210020002806D0012805D05C
:102EA000022805D0032808D0002070470648704744
:102EB000054841F297415D3803E0034842F6D101ED
:102EC0005D380844704700009101002010B50024CF
:102ED000FFF7E2FF00280AD004EBC41110F811102C
:102EE000012905D0641CA4B2142CF5D3002010BD18
:102EF00004EBC41100EB410010BD000030B5104CD4
:102F0000104A031B2515A04213D007DC0E4BC11835
:102F10000CD0A94201D1D2F82C0630BDAB420BD067
:102F2000B3F56C4FF9D1D2F80C0230BDD2F81C04C5
:102F300030BDD2F83C0830BDD2F84C0A30BD00009C
:102F4000004C0040503E002000BCFFBF30B5104C8C
:102F5000014600200B1B25150E4AA14212D007DCAA
:102F60000D4BC9180BD0A94201D1B2F8200430BDD5
:102F7000AB420AD0B3F56C4FF9D1108830BDB2F82E
:102F8000100230BDB2F8300630BDB2F8400830BD96
:102F9000004C0040503E002000BCFFBF0E4B10B55F
:102FA00001460020CA1A1C15994210D006DC0B4AB3
:102FB00089180AD0A14200D1094810BDA24208D008
:102FC000B2F56C4FF9D1074810BD074810BD07484E
:102FD00010BD074810BD0000004C004000BCFFBF02
:102FE00076420020563E00206640002086440020A5
:102FF000964600202DE9F04789461C49074688423D
:1030000032D000282ED0FFF7C9FF80463846FFF7A0
:103010009DFF0546384600F02BF80446406880B214
:10302000A84221D8281A0604360C1DD0206820F0AA
:1030300001002060324641464846FDF787F8C4F853
:103040000C806560206840F0010020604FF6EF7052
:1030500038800021384601F0E5F82946384601F06D
:1030600077F93046BDE8F0870020FBE700500040CC
:103070000B49884201D10B4870470B49884202D165
:103080000848143070470949884202D10548283859
:1030900070470749884201D10648704700207047B1
:1030A0000038014058000240004400400048004001
:1030B000004C0040300402402DE9F0470646002451
:1030C000FFF744FF80463046FFF7D2FF01463C48F9
:1030D000DFF8E8C032183B48A6EB0C074FF48063DA
:1030E0004FF46C49664513D005DC5AB19A4215D1AC
:1030F00090F8284608E09F420DD04F450ED190F839
:10310000084201E090F81844C4F3410434B151E09E
:1031100090F83848F8E790F8484AF5E749680D0410
:103120002D0C0CD0454545D24FF00008664512D015
:1031300007DC6AB19A4213D1B0F8248410E001246C
:1031400038E09F420AD04F450AD1B0F8048007E02A
:10315000B0F8148204E0B0F8348601E0B0F8448896
:103160000021664510D005DC5AB19A4211D190F881
:1031700027160EE09F420AD04F450AD190F8071259
:1031800007E090F8171404E090F8371801E090F881
:10319000471A454506D102290CD83046491C01F092
:1031A00041F807E00021304601F03CF8294630465E
:1031B00001F0CEF82046BDE8F0870000004C00404A
:1031C00000BCFFBF503E00200B49884201D10B4894
:1031D00070470B49884202D108483C307047094982
:1031E000884202D10548283870470749884201D1F2
:1031F00006487047002070470038014044000240F4
:103200000044004000480040004C00405804024088
:103210002DE9F05F06465B495B4A0024401A3244C0
:103220005A4D2746824691464FF4806B8E4212D00B
:1032300006DC10000CD05A4512D195F826760FE026
:1032400058450BD0BAF56C4F0AD195F8067207E0D5
:1032500095F8167404E095F8367801E095F8467A0A
:103260003046FFF7B1FF4749804650468E4232D084
:1032700007DC5FEA09000CD0D94538D195F828065B
:1032800009E058452AD0BAF56C4F78D195F8080274
:1032900001E095F8180410F0010470D0B0898004A2
:1032A00024D5B8F100006AD00068C0071ED0D8F855
:1032B0000400B0B1D8F80400324A84B2002051466C
:1032C000964231D026DC5FEA09012AD0D94530D1B7
:1032D000B5F822042DE095F83808DCE795F8480A9F
:1032E000D9E740213046FEF7CFFF20B3002446E067
:1032F000791C304601F004F840E000214046FDF71B
:10330000EDFC80213046FEF76DFF0021304600F0D5
:10331000F7FFEBE759450AD0BAF56C4F09D1688839
:1033200007E0B5F8120204E0B5F8320601E0B5F89E
:103330004208844202D1022FDFD2D9E70021304671
:1033400000F0DEFF0F4950468E4212D007DC5FEAE4
:1033500009000BD0D94511D1A5F822440EE05845FB
:103360000AD0BAF56C4F09D16C8007E0A5F812427B
:1033700004E0A5F8324601E0A5F8424801242046C1
:10338000BDE8F09F004C004000BCFFBF503E002055
:1033900030B5124C014600200B1B2515104AA142E6
:1033A00013D007DC0F4BC9180CD0A94214D192F8E6
:1033B00028060FE0AB420BD0B3F56C4F0CD192F85E
:1033C000080207E092F8180404E092F8380801E0D7
:1033D00092F8480AC0F3C00030BD0000004C004025
:1033E000503E002000BCFFBF70B5002506462C46AD
:1033F00000F05BF80A20FDF7B9FF304600F049F80D
:1034000004E0092C01D3012500E00025304600F03E
:103410000AF818B12046641C0A28F2D9304600F098
:103420003CF8284670BD10B581880068FDF7E4FEC1
:10343000002800D0012010BD2DE9F04116460746B6
:10344000002401F0FE05384600F043F829463846CE
:1034500000F063F83846FFF7C7FF20B1641CE4B200
:10346000642CF0D30CE0642C0AD2384600F025F826
:103470003146384600F051F83846FFF7B5FF20B125
:103480000124384600F03AF800E000242046BDE868
:10349000F08181898068FDF7F0BE81898068FDF741
:1034A000EABE81880068FDF7E8BE81880068FDF704
:1034B0000BBE81880068FDF7DEBE10B5044681882A
:1034C0000068FDF7A0FEA1882068BDE81040FDF768
:1034D000D2BE10B50446FFF7F0FF2046FFF7E1FF2C
:1034E0002046FFF7D6FF2046FFF7E3FF0220FDF757
:1034F0003DFF2046BDE81040FFF7CFBF10B50446A2
:10350000FFF7DBFF2046FFF7C4FF2046FFF7C9FFA8
:103510002046BDE81040FFF7C0BF70B50D46064617
:1035200000242806304602D5FFF7BBFF01E0FFF775
:10353000C0FF3046FFF7ADFF0820FDF717FF30460C
:10354000FFF7ABFF0320FDF711FF6806641C050EB3
:10355000E4B2082CE5D370BD2DE9F0472E4F97F863
:103560008C00002847D00024A7F1100907F1280A91
:10357000A04626E03D1995F82800AA281FD195F805
:103580002A106018021D642A01D987F88C80C61998
:1035900096F82C00BB2812D105F12900891CFDF7F3
:1035A0003CF996F82B10814209D197F88D0010B99B
:1035B000012087F88D0095F82A0006281DD0641C8C
:1035C000E4B297F88C00A042D4D8622C05D36421D1
:1035D0005046FCF7D4FD87F88C80B7F89000411C6A
:1035E000A7F89010B0F5FA7F05D9C9F83080C9F86E
:1035F0003480A7F89080BDE8F08739195046D1F89B
:103600002D10C9F830106421FCF7B9FD07F88C8F34
:10361000A7F80480EFE70000B048002070B590B034
:1036200069461648FFF7D2F9144D04004FF0000622
:1036300015D095F88C002044642801D985F88C6059
:103640000E4815F88C1F2830084422466946FCF7BE
:103650007DFD287820442870EE8010B070BDB5F84C
:103660009200411CA5F8921040F6B8318842F4D37C
:10367000A5F8926005F88C6F6E70EEE7B0480020F8
:1036800070B5134DB5F89600E0B94FF49670A5F8F3
:103690009600A5F11004AA2020700020607003217C
:1036A000A1702521E1702621217160710521601C26
:1036B000FDF7B3F8A071BB20E0710822214628462F
:1036C000FFF787F935F8960F401E288070BD00007F
:1036D000B048002070B5204C94F88D00002839D1F6
:1036E000B4F8960020B9B4F89400401CA4F89400F3
:1036F000B4F8940003282DD30025A4F89450D4F8EE
:103700009C004FF41651C0B14FF4E132904214D0F6
:103710004B00884209D08E00984202D1C4F89C60C8
:103720000DE04FF46143B04202D1C4F89C3006E092
:10373000984202D1C4F89C2001E0C4F89C10642295
:103740000548D4F89C10FFF71CF90A20FEF778FB17
:10375000A4F8965070BD0000B048002000B5C1B07C
:1037600069461848FFF732F9010022D06846FEF793
:103770009AFF01001DD0144A01205071907B40F047
:1037800020009073887800F03F03C00911D0012B0E
:1037900003D0507878B101200EE00320FFF760FBE2
:1037A000002806D009480221A0F8C0180320FFF71E
:1037B00023FB41B000BD022000F0F6FB032000F027
:1037C00097FBF6E73400002034010020342100206C
:1037D0002DE9F0414E4EC2B03079002816D006F5E2
:1037E00000544FF0000894F8D008012788B104F67F
:1037F000C6010A22A4F50450FFF7EBF8002805D013
:10380000777184F8D0880220A4F8C00842B0BDE8DF
:10381000F081B4F8C0080028F8D10320FFF756FB68
:10382000050042D094F8C408052808D370783946BA
:1038300008B1012000E0022000F00BFC2FE06A78C4
:10384000A91C3448FFF7C5F80028DFD040F2262233
:10385000143050434FF47A72B0FBF2F0777194F861
:10386000C418801C491CC9B284F8C418A4F8C00844
:10387000B07B40F01000B073A879AD1CFF280CD0CD
:103880006879FF2809D0A878C043800607D042B0E5
:103890000320BDE8F04100F00FBB0229B6D342B0CF
:1038A0000320BDE8F041FFF7A7BA31780029ADD079
:1038B000194A5078431C5370062806D35770107865
:1038C000431C1370062800D317707E208DF800006B
:1038D00005208DF801009DF8020020F0400040F026
:1038E000BF008DF802008DF8031010788DF80400E9
:1038F00050788DF805008DF8068000223F2168463B
:10390000FFF779F86946032000F04EFB7EE70000E0
:10391000340100203400002000000020FEF73DFDAF
:10392000FDF7E8FEFCE7000030B5C1B069461C4871
:10393000FFF7DAF801001BD06846FEF7B4FE04007A
:1039400016D0184DA87B40F00200A873A07800F0B4
:103950003F0001280ED0E078FF2817D02978814257
:1039600019D12146032000F01FFB2046FFF7FCF988
:1039700041B030BD0120FFF773FA0028F8D00520D0
:10398000A5F84C000120FFF737FAF1E721460220A5
:1039900000F00AFBE5E72146022000F005FBE7E71F
:1039A000004400403401002070B5224CB4F84C00B3
:1039B000002819D194F85C001F4E4FF47A75A0B11D
:1039C00004F152010A223046FFF7A1F848B1002164
:1039D00084F85C1040F22621401D4843B0FBF5F00E
:1039E00000E00320A4F84C0070BD94F8500010B122
:1039F0000120FFF701FA0120FFF768FA0028F3D051
:103A00004278811C3046FFF782F80028ECD094F809
:103A100050101430491C84F8501040F226214843BD
:103A2000B0FBF5F0801CA4F84C00A07B40F0010036
:103A3000A07370BD340100200044004070B57E4D7D
:103A40007E4B441B2E157E4AA84271D016DCB0F185
:103A5000804F36D07B4C00197B4C47D0B04227D1E9
:103A6000986940F00800986100297CD001296DD048
:103A7000201D02294BD003291AD18DE0B44220D059
:103A8000B4F5903F14D1986940F0040098616C48F7
:103A9000001DE1B301297FD002290AD0032907D1F3
:103AA000016821F470410160016841F43041016016
:103AB00070BD016821F470610160016841F43061FA
:103AC000F5E7986940F00400986100297DD001294C
:103AD0007CD002297BD00329EAD1106820F4704001
:103AE0001060106840F43040106070BDA1B1012931
:103AF0001FD002292BD00329F7D1986940F0080084
:103B00009861206820F0F0002060206800E03BE031
:103B100040F0B000206070BD986940F004009861EA
:103B2000106820F070601060106840F03060DBE7D3
:103B30003AE0986940F004009861106820F0704005
:103B40001060106840F03040CEE70CE014E0986957
:103B500040F008009861206820F00F002060206885
:103B600040F00B00D6E7206820F0706020602068ED
:103B700040F03060CEE70FE0206820F07040206019
:103B8000206840F03040C5E7016821F00F01016076
:103B9000016841F00B018AE7016821F0F001016042
:103BA000016841F0B00182E7986940F00400986133
:103BB00091B1012918D002291ED0032981D11068A2
:103BC00020F470401060106802E01DE024E02BE05B
:103BD00040F43040106074E7106820F00F0010606F
:103BE000106840F00B00F5E7106820F0F00010605E
:103BF000106840F0B000EDE7106820F470601060CD
:103C0000106840F43060E5E7106820F00F001060A5
:103C1000106840F00B0067E7106820F0F0001060BB
:103C2000106840F0B0005FE7106820F4706010602A
:103C3000106840F4306057E7000C0040001002406C
:103C40000008014000FCFFBF000C0140284A80181A
:103C5000284A14D0B0F5006F2DD1A9B32648012908
:103C600039D0022927D1916941F008019161016899
:103C700021F0F0010160016841F0B0011AE09069A3
:103C800040F0080090611C48001D21B101290AD0B4
:103C9000022910D110E0016821F47001016001686F
:103CA00041F4300106E0016821F0706101600168B3
:103CB00041F0306101607047016821F0704101609E
:103CC000016841F03041F5E7FFE7906940F00400FA
:103CD00090610A48F0E7916941F00801916101683B
:103CE00021F00F010160016841F00B01E2E70000E3
:103CF00000D4FEBF00100240000C0140000801404B
:103D0000838D5B1C53434FF47A72B3FBF2F231B1F3
:103D100001291DD002293CD0032931D152E08286ED
:103D2000818821F440718180818841F440718180D3
:103D3000018B01F47F410183018B41F06C01018310
:103D4000018C21F003010184018C41F0010116E096
:103D50000287818821F440618180818841F440613B
:103D60008180018BC9B20183018B41F4D841018369
:103D7000018C21F030010184018C41F0100101849B
:103D800030F8441F41F4004120F83019012101802E
:103D900070478287818821F440518180818841F475
:103DA00040518180818B01F47F418183818B41F07F
:103DB0006C018183018C21F440710184018C41F4F8
:103DC0008071DCE7A0F84020818821F48041818067
:103DD000818841F480418180818BC9B28183818B4C
:103DE00041F4D8418183018C21F440510184018C3C
:103DF00041F48051C3E7838D5B1C53434FF47A72C7
:103E0000B3FBF2F221B101291BD002294AD130E0E3
:103E10008286818821F440718180818841F44071DB
:103E20008180018B01F47F410183018B41F06C01A2
:103E30000183018C21F00C010184018C41F004010B
:103E40002FE00287818821F440618180818841F4DC
:103E500040618180018BC9B20183018B41F4D8415B
:103E60000183018C21F0C0010184018C41F04001EB
:103E700017E08287818821F440518180818841F454
:103E800040518180818B01F47F418183818B41F09E
:103E90006C018183018C21F440610184018C41F427
:103EA0008061018430F8441F41F4004120F830194A
:103EB0000121018070470000002809D0012101285C
:103EC00007D0022809D0032802D1064880F8C31879
:103ED0007047054880F84F107047044880F88914EF
:103EE00070470000342100203401002034110020EC
:103EF00010B501281FD0022820D003281AD111485C
:103F000042F6C60144187E21217005216170A17816
:103F1000204621F03F01491C21F0C001A170002181
:103F2000E17021716171A1710A460121FEF763FD03
:103F30000120A07210BD034C5234E4E7014841F265
:103F40008C41DFE73401002010B5012823D002287E
:103F500024D003281ED1134842F6C60144187E21FE
:103F6000217005216170A178012221F03F01491CD7
:103F700021F0400141F08001A1700A4920460978F2
:103F8000E170002121716171A1711146FEF733FDCD
:103F90000120A07210BD034C5234E0E7014841F209
:103FA0008C41DBE7340100202DE9F04700250E4667
:103FB00080462F468946FEF76FFF041E38D0B6B301
:103FC000F1783079B8F1020F03D0B8F1030F02D0C5
:103FD00003E061B301E000282AD07678761DB6F5BB
:103FE000807F24D805EBC51114F81100B8420BD915
:103FF000074604EB41004178B14205D132464946BB
:10400000801CFCF7D1F8A8B16D1CADB2142DE9D31A
:10401000142F0CD27F1C1FFA87F8002000EBC01170
:1040200014F8111041B1401C80B21428F6D30020BE
:10403000BDE8F0873046FBE700EBC01504EB450711
:10404000B81C32464946FCF781F804F815807E70AA
:10405000F0E710B5C2B004467E208DF800000620BF
:104060008DF801009DF8020020F03F00801D20F037
:10407000400040F080008DF80200C8788DF8030001
:1040800008798DF8040048798DF8050002208DF834
:10409000060001208DF80700052C12D2DFE804F09D
:1040A00011080308080000208DF804008DF80500B1
:1040B000012206216846FEF79EFC69462046FFF76E
:1040C00073FF42B010BD0000064A074930B14FF4FB
:1040D000FA60D0840120C1F8840170470020D084A8
:1040E000F9E700003401002000802142084A094914
:1040F00040B10120C2F888014889002801D1C820B8
:10410000488170470020C2F888010871F8E7000074
:10411000008021423401002010B5C2B07E208DF80D
:10412000000006208DF801009DF80200144C20F0DC
:104130003F00C01C20F0400040F080008DF80200DD
:1041400020788DF8030000208DF804008DF805001C
:1041500001208DF8060094F82400802200F0010070
:104160008DF8070003216846FEF745FC6078694634
:1041700008B1012000E00220FFF716FF42B010BD99
:104180003401002030B5104C016825150B1B0F4A77
:10419000A14213D007DC0E4BC9180CD0A94201D1A3
:1041A000C2F82C0630BDAB420BD0B3F56C4FF9D141
:1041B000C2F80C0230BDC2F81C0430BDC2F83C0885
:1041C00030BDC2F84C0A30BD004C0040503E0020CB
:1041D00000BCFFBFC368002261B10BB1018A196145
:1041E000416809B102890A614169002901D0008B47
:1041F000086170470BB1018A5961110001F1010298
:10420000D2B2FAD0416909B1038B4B611146521CFD
:10421000D2B20229FAD341680029EAD00089486164
:104220007047000030B5104C104A031B2515C9B269
:10423000A04213D007DC0E4BC0180CD0A84201D10D
:1042400082F8271630BDAB420BD0B3F56C4FF9D1D5
:1042500082F8071230BD82F8171430BD82F8371883
:1042600030BD82F8471A30BD004C0040503E00205F
:1042700000BCFFBF30B51F48C1B0407800280ED049
:104280000220FEF723FE1C4C002508B1E56003E088
:104290001A49E068884204D2E068401CE06041B0FE
:1042A00030BD7E208DF8000006208DF801009DF8BD
:1042B0000200002220F03F000C3020F0C0008DF8FA
:1042C0000200FF208DF804008DF805008DF8030032
:1042D0008DF806508DF807500C216846FEF78BFBD1
:1042E00069460220FFF760FE69460320FFF75CFE87
:1042F000E560D4E73401002000000020C027090059
:1043000030B5104C104A031B2515C9B2A04213D07A
:1043100007DC0E4BC0180CD0A84201D182F826163B
:1043200030BDAB420BD0B3F56C4FF9D182F8061219
:1043300030BD82F8161430BD82F8361830BD82F8D0
:10434000461A30BD004C0040503E002000BCFFBF6C
:1043500030B50F4C0F4A031B2515A04212D007DCC5
:104360000D4BC0180BD0A84201D1A2F8241430BDC7
:10437000AB420AD0B3F56C4FF9D1918030BDA2F8B1
:10438000141230BDA2F8341630BDA2F8441830BD66
:10439000004C0040503E002000BCFFBF30B51A4C1E
:1043A0001A4A031B2515A0421FD00BDC184BC0185E
:1043B00014D0A84205D192F8280661F3420082F891
:1043C000280630BDAB4217D0B3F56C4FF9D192F847
:1043D000080261F3420082F8080230BD92F8180426
:1043E00061F3420082F8180430BD92F8380861F396
:1043F000420082F8380830BD92F8480A61F3420062
:1044000082F8480A30BD0000004C0040503E0020B9
:1044100000BCFFBF2DE9F041154688460746FEF770
:1044200095FD1A4906460024781A0A158F4210D0C5
:1044300006DC174838180AD090420DD1154C0BE015
:10444000904208D0B0F56C4F06D1134C04E0134CE9
:1044500002E0134C00E0134C3846FEF7B5FE074669
:10446000B54202D90020BDE8F0812A4641462046E7
:10447000FBF76CFE386820F0010038607D60FC605E
:10448000386840F0010038602846ECE7004C0040F6
:1044900000BCFFBF76430020563F0020664100204D
:1044A000864500209647002030B51A4C1A4A031B57
:1044B0002515A0421FD00BDC184BC01814D0A84201
:1044C00005D192F8280661F3000082F8280630BD75
:1044D000AB4217D0B3F56C4FF9D192F8080261F3F3
:1044E000000082F8080230BD92F8180461F3000061
:1044F00082F8180430BD92F8380861F3000082F8A1
:10450000380830BD92F8480A61F3000082F8480A82
:1045100030BD0000004C0040503E002000BCFFBFFA
:1045200030B51A4C1A4A031B2515A0421FD00BDCCC
:10453000184BC01814D0A84205D192F8280661F390
:10454000C30082F8280630BDAB4217D0B3F56C4FDC
:10455000F9D192F8080261F3C30082F8080230BD75
:1045600092F8180461F3C30082F8180430BD92F881
:10457000380861F3C30082F8380830BD92F8480A61
:1045800061F3C30082F8480A30BD0000004C0040CF
:10459000503E002000BCFFBF3EB50020164C0090EE
:1045A000019002906168488348618121A068FEF70C
:1045B00051F9E8B903236A468121A068FEF7ECF8B7
:1045C000BDF80000646840BA20F00F006083FBF77C
:1045D00097FF0022094BFBF79BFE6FF00F02FBF7E2
:1045E00078FF0022064BFBF78DFEFBF7C7FF6061EB
:1045F00000F0A6F83EBD00002400002000405F400F
:10460000000018403EB50020164C0090019002902A
:104610006168088308618121A068FEF71BF9E8B989
:1046200003236A468121A068FEF7B6F8BDF80000B2
:10463000646840BA20F003002083FBF761FF0A4A58
:104640000A4BFBF765FE6FF00F02FBF742FF084ACB
:10465000084BFBF757FEFBF791FF206100F060F875
:104660003EBD000024000020D7A3703D0AF765403E
:10467000CDCCCCCCCC6C474010B5C2B0FEF7FEF927
:10468000264CB4F84800002846D14FF47A70A4F8BC
:1046900048003C34FEF7ECF92060FEF7E3F9606077
:1046A000FEF7DAF92081FEF7D1F9608121893C3CDF
:1046B000002931D000282FD07E228DF8002008223A
:1046C0008DF801209DF8022022F03F020D3222F0E9
:1046D000400242F080028DF8022022788DF80320FB
:1046E00000228DF804208DF805208DF806108DF835
:1046F0000800090A000A8DF807108DF809008022C9
:104700000D216846FEF777F96078694608B1012007
:1047100000E00220FFF748FC42B010BD3401002049
:10472000064BF5225868017F21F0020141F001019A
:10473000017780219868FEF7ABB8000024000020C4
:10474000064BF3225868017F21F0010141F002017C
:10475000017780219868FEF79BB8000024000020B4
:10476000FFF7EEBFF0B5044600684F494F4F87B0E2
:1047700040184FF018054FF0030617D0B0F5806FC2
:1047800027D0B0F5784F1ED101210803FDF720F89E
:1047900001210520FDF71CF8E020ADF814008DF88C
:1047A00017508DF8166005A941480AE001218803D9
:1047B000FCF7F6FF01210920FDF70AF84FF46040ED
:1047C00010E0FCF7A5FC618CA9B10120082913D1E8
:1047D00014E00121C803FCF7E3FF01210D20FCF7E1
:1047E000F7FF3820ADF814008DF816608DF81750DB
:1047F00005A93846E5E70020012200E0002210402C
:10480000102901D0012200E000221040182901D017
:10481000012200E000221040202901D0012200E006
:1048200000221040282901D0012200E0002210407F
:10483000302901D0012200E000221040382901D0A7
:10484000012100E0002108424FF0000100D0618406
:10485000ADF800104FF48270ADF80200ADF804100E
:104860000220ADF806000120ADF808000720ADF8E1
:104870001000ADF80E104FF40070ADF80A00608C17
:10488000ADF80C0069462068FDF7D8F9206801886A
:10489000890502D40121FDF7EDF901212068FDF71A
:1048A000C1F907B0F0BD000000C8FFBF000C014017
:1048B0000008014001894068016170470189406832
:1048C0004161704770B52D4C2D4D96B02078002673
:1048D00078B16879002845D02A486E71D0F8300147
:1048E000B0B30020FFF702FC14F8240F40F00100E1
:1048F00041E0542224496846FBF728FC6889411CA2
:104900006981B0F5FA7F2BD96E812879142820D2DD
:10491000401CC0B20A21B0FBF1F2287130328DF890
:104920002520B0FBF1F201FB120030308DF826009B
:10493000002209216846FEF75EF869460320FFF76A
:1049400033FB607830B169460220FFF72DFB01E0B0
:104950000AE02E710120FFF7C9FB0120FFF7B4FB2D
:104960000120687116B070BD0120FFF7BFFB14F87D
:10497000240F20F001002070F4E700003401002033
:104980000000002000002242544F0008F0B51446F9
:104990001F460546002285B0134620463946FBF7E0
:1049A000D5FD72D3288820F0010028806846FCF7E6
:1049B000B1FF3E48A84314D002984000FBF7A0FD89
:1049C00022463B46FBF716FDFBF7A7FD06460022F5
:1049D000374B20463946FBF7B9FD04D24EF660202E
:1049E00055E00398EAE70022324B20463946FBF7B0
:1049F000ADFD02D24FF4FA6049E000222E4B204672
:104A00003946FBF7A3FD01D2C82040E000222B4B22
:104A100020463946FBF79AFD01D23C2037E00022C0
:104A2000274B20463946FBF791FD01D21E202EE090
:104A30000022244B20463946FBF788FD01D2142082
:104A400025E00022204B20463946FBF77FFD01D2AE
:104A50000F201CE000221D4B20463946FBF776FD57
:104A600001D2062013E00022194B20463946FBF7FD
:104A70006DFD01D203200AE00022164B2046394684
:104A8000FBF764FD02D2022001E00CE00120B6FB3E
:104A9000F0F1401E2885491EA9850020A88128889C
:104AA00040F00100288005B0F0BD0000000001408A
:104AB0000000F03F0000244000003440000044406B
:104AC0000000544000005940000069400000794057
:104AD0000000894000409F40214B10B5C21A1C15B0
:104AE000204998422AD00BDCB0F1804F15D01E4AE5
:104AF000801816D0A04219D0B0F5006F2AD119E065
:104B0000A2421FD0B2F58E3F03D0B2F5923F21D121
:104B10001CE0886940F400601BE0C86940F00100B7
:104B200002E0C86940F00200C86113E0C86940F0C3
:104B30000400F9E7C86940F00800F5E7C86940F0EB
:104B40001000F1E7C86940F02000EDE7886940F403
:104B500000508861886940F00100886110BD000044
:104B6000001000400010024000FCFFBF2DE9F04F94
:104B70008DB088460446FEF711FA05462246B8F184
:104B8000000F14D04FF48070804500D980465A4BF6
:104B90005B4ED01A59491F15834626449C4214D0B7
:104BA00008DC7EB1BE4215D1A1F8208412E04FF49A
:104BB0008078ECE7B8420BD0BBF56C4F0AD1A1F876
:104BC000008007E0A1F8108204E0A1F8308601E03F
:104BD000A1F84088C1461046FEF7F6FA0B90204631
:104BE000FEF746FA8246002D7AD00B98002877D03F
:104BF000BAF1000F74D0DFF80081584644450CD05C
:104C000003DC3EB1BE420CD104E0B84268D0BBF533
:104C10006C4F06D10121084601E001210220FCF77A
:104C2000B3FD00264FF0800BCDE9046B1020CDE9D9
:104C30000206271D069640020A96CDE90860CDE9D6
:104C40000075079669460B98FCF76AF801A800976B
:104C500080E86002CDE9046B4FF40050CDE90860B4
:104C600006960796694650460A96FCF759F80021C1
:104C70000B98FCF733F801215046FCF72FF801227E
:104C800040212046FDF7C1FA012280212046FDF790
:104C9000BCFA002202210B98FCF73AF8184E194D85
:104CA0007642194FAC4201D1A0140BE0B44202D1BC
:104CB0004FF0807006E0BC4201D1102002E0444574
:104CC00002D11248FBF7FEFFAC4203D14FF4803013
:104CD00004E005E0B44206D14FF48010FBF7F2FF88
:104CE0000DB0BDE8F08FBC4202D14FF48070F5E703
:104CF0004445F5D10648F1E7004C0040503E002005
:104D000000BCFFBF00380140004800400000011017
:104D1000000100102DE9F84300252D4ADFF8B4C04A
:104D2000811ADFF8B48013152C462F462E464FF417
:104D3000006990423ED013DC284940181BD09842AD
:104D400021D1274F01213E461D464C460846FCF71F
:104D50003FFD01212348FCF72BFA0121082010E038
:104D600099422ED0B1F56C4F0DD1674666464FF48F
:104D700000751C4603E004256746664608240121A9
:104D80000420FCF725FDADF8005018208DF8030035
:104D900003208DF8020069463846FCF7B9F9ADF8F2
:104DA000004048208DF8030069463046FCF7B0F912
:104DB000BDE8F8830121474646461D464C46102073
:104DC000DFE7042401214746074E1D463020D8E77F
:104DD000004C0040000801400010014000BCFFBF33
:104DE000000C014000023000001401407FB50C4669
:104DF0000546FDF713FA0021ADF80810ADF80410D0
:104E00000C20ADF80610ADF80A00ADF80C100094B7
:104E100069462846FDF776FA01212846FDF7EBF9A9
:104E20007FBD0000F8B5002405462146FDF7E3F9F3
:104E3000264AA91A1315954210D006DC24482818D2
:104E40000AD098420DD127240BE0994208D0B1F541
:104E50006C4F06D1252404E0262402E0342400E02F
:104E600035248DF8004000208DF801008DF80200F7
:104E700001208DF803006846FCF746FC154840F217
:104E80002774C54240F226664FF001021BD121462D
:104E90002846FDF71FFA40F22447012239462846EA
:104EA000FDF718FA21462846FDF79FF931462846B6
:104EB000FDF79BF939462846FDF797F90121284669
:104EC000FDF799F9F8BD31462846E2E7004C00406D
:104ED00000BCFFBF00B0FFBF144A10B5811A131504
:104EE00090421CD009DC1249401815D098420DD1CF
:104EF00001210002FCF754FC08E0994212D0B1F500
:104F00006C4F03D101218803FCF762FC0121BDE84D
:104F100010400846FCF75CBC01214804EAE7012187
:104F2000C804E7E701210805E4E70000004C004061
:104F300000BCFFBF020406080000000001020304D9
:104F400001020304060708091F1C1F1E1F1E1F1F46
:104F50001E1F1E1F7E4C09FFFFFF0110BFD8D6C6C3
:104F6000B0E5CEB4B2A6C2EBB2E2CAD4020974650F
:104F700073742DB9E6B8F103023939040974657305
:104F8000742DB1F0C3FB0509746573742DB3A7C903
:104F9000CC060B636F64652D746573743031070242
:104FA000B8F6BD9E7F000000C84F0008000000203A
:104FB00034000000AE230008FC4F0008340000203D
:104FC0001C4D0000BE23000800000000000000008F
:104FD00000000000000000000000000000000000D1
:104FE00000000000000000000000000000000000C1
:0C4FF000000000000000000001000000B4
:0400000508000131BD
:00000001FF
