:020000040800F2
:10000000D864002045010008B10F0008390D000830
:10001000AF0F000835060008B920000800000000F6
:10002000000000000000000000000000A918000807
:100030001D09000800000000A5130008D1190008E0
:10004000CD200008B30F0008AD1A00080118000801
:10005000150B00085D1600081F0900082709000895
:100060002B0900082F09000833090008D9070008E8
:10007000DD070008E1070008E5070008E9070008B8
:10008000ED070008F10700084D050008B52000083D
:10009000B7200008370600083906000837090008AD
:1000A000AF1A0008B51A0008B31A0008B11A000800
:1000B000CD1A0008E11A0008F91A00083D0D0008E1
:1000C0003B0D0008410D00083F0D00083F180008D7
:1000D00041180008091E0008851E0008011F0008BD
:1000E00023090008F1160008B3200008031B0008CC
:1000F000091B0008071B0008051B00084F05000826
:10010000490B00083D180008FD1A000843180008B4
:10011000011E0008051E0008FF1A0008011B000848
:10012000F5070008F9070008FD07000801080008A6
:10013000DFF80CD000F0F8F900480047E53100087E
:10014000D8640020004800473101000840EA01035C
:100150009B0703D009E008C9121F08C0042AFAD27D
:1001600003E011F8013B00F8013B521EF9D2704741
:10017000D2B201E000F8012B491EFBD270470022E9
:10018000F6E710B513460A4604461946FFF7F0FF96
:10019000204610BDCBB203E00178994203D0401C49
:1001A000521EF9D20020704730B5044600200346A5
:1001B00000E05B1C934203D2E05CCD5C401BF8D0B6
:1001C00030BD2DE9FE4F81EA030404F0004421F024
:1001D000004100944FF0000B23F0004350EA01046B
:1001E0005ED052EA03045BD0C3F30A54C1F30A554C
:1001F0002C44A4F2F3340194A0FB0254C1F3130184
:1002000041F48011C3F3130343F4801301FB024450
:1002100000FB034E840A970A44EA815447EA835755
:10022000A4FB076802958D0A05FB07854FEA932C0E
:1002300004FB0C542705029D4FEA065847EA16377F
:10024000B5EB08056EEB070C870E920E47EA811797
:1002500042EA8312A7FB0201B6EB0B0164EB000438
:100260002B0D43EA0C335E1844EB1C50DA46514622
:10027000E7FB0201C5F313044FEA0B3343EA1453BF
:100280004FEA0432019C43EA0603A4F10C040294F1
:10029000009CCDE900B400F0F9F803B0BDE8F08FA0
:1002A00000200146F9E72DE9F04D81EA030404F04E
:1002B000004B21F0004514464FF0000A23F00041A6
:1002C00050EA050220D054EA01021DD0C5F30A57B6
:1002D0000246C5F31303C1F31300C1F30A5640F4F9
:1002E000801543F48013A7EB0608101BD64608F2CE
:1002F000FD3873EB050002D308F1010801E0921804
:100300005B41B8F1000F03DA00200146BDE8F08D33
:1003100000204FF48011064684460EE0171B73EB55
:10032000050705D3121B63EB050306434CEA010CDA
:1003300049084FEA300092185B4150EA0107EDD1BD
:1003400052EA030012D082EA040083EA050108435E
:1003500005D0101BAB4106D20122002306E000228B
:100360004FF0004302E06FF0010253101AEB060059
:100370004CEB085110EB0A0041EB0B01BDE8F04DCE
:1003800000F075B870B521F0004303430CD0C1F301
:100390000A550024D5EB040564EB0403D617AD1A07
:1003A000B34102DB0020014670BD201841EB025131
:1003B00070BD0EB540F2334102910021CDE900112C
:1003C0000A460B4600F062F803B000BDC1F30A52C2
:1003D00010B5C1F3130140F2FF3341F480119A428A
:1003E00001DA002010BD40F233439A42A2F23342B8
:1003F00003DC524200F02BF810BD904010BD00000D
:1004000030B5041E71F1000404DB4FF0004440429B
:1004100064EB0101141E73F1000405DB1C464FF070
:100420000043524263EB0403994208BF904230BD3F
:10043000202A04DB203A00FA02F1002070479140A4
:10044000C2F1200320FA03F3194390407047202A99
:1004500004DB203A21FA02F00021704721FA02F36E
:10046000D040C2F12002914008431946704710B5B0
:10047000141E73F1000408DA401C41F100019218C7
:100480005B411A4301D120F0010010BD2DE9F04D70
:1004900092469B4611B1B1FA81F202E0B0FA80F2C5
:1004A00020329046FFF7C4FF04460F4640EA0A0098
:1004B00041EA0B0153465A46084313D0114653EA0A
:1004C000010019D0C8F140025046FFF7C0FF0546B1
:1004D0000E46504659464246FFF7AAFF084305D04C
:1004E000012004E020463946BDE8F08D0020054398
:1004F00046EAE0762C4337430A986305E40AA0EB0A
:1005000008000022FD0A44EA47540A3002D50020C0
:100510000146E9E7010510196941DDE908450019BF
:100520006941BDE8F04DA2E7064C074D06E0E068E2
:1005300040F0010394E8070098471034AC42F6D32A
:10054000FFF7FAFDD43F0008F43F000870477047FA
:1005500008B501F0AAF91B4C0121204600F066FB0A
:10056000002002F055FF0421204600F05FFB002030
:1005700002F04EFF0221204600F058FBA114124861
:1005800000F042FB0F4902201431086001F090F99D
:1005900000F07EFC00F0DAF801210C4800F046FB88
:1005A0004FF4FA700090002200070346114600F055
:1005B00001FD40F6B83000F0C5FB4FF47A7001F051
:1005C00009FAFEE7000C014000100140000801405C
:1005D00010B500F0FFFB03F0D7FA03F07FF801F04D
:1005E000D9FB02F0C5F901F0ABF903F095FA00F080
:1005F00069FC02F0FDFD02F053FE02F02FF802F05C
:100600008DF802F045FD02F083FDBDE8104000F0DA
:1006100049B810B503004FF00002104601D001297F
:1006200005D8002010BD9C5C6040521C92B28A42EA
:10063000F9D310BDFEE770477047FCB504464FF68E
:10064000FF7700200D46ADF8007048F205068DF8E2
:1006500004001EE014F8010B8DF8040001A90846FF
:1006600000F0EBFBBDF800009DF8041080EA0120CB
:10067000ADF800000020BDF800100A0402D586EA9B
:10068000410101E007EA4101401CADF800100828D3
:10069000F1DB6D1EDED26946084600F0B7FBBDF8FF
:1006A0000000FCBD30B5C5B0002441944294439491
:1006B000449401F0F9FE41A801F0B4FEC0B2042850
:1006C00040D17E208DF8000008208DF801009DF8B3
:1006D00002001D4D20F03F00001D20F0400040F0C2
:1006E00080008DF8020095F80D028DF803008DF85A
:1006F00004408DF805409DF804018DF806009DF832
:1007000005018DF807009DF806018DF808009DF899
:1007100007018DF8090001220421684601F043FF1A
:1007200095F80E02694608B1012000E0022002F0AF
:1007300083FE95F8230240F0400085F8230228202C
:10074000A5F8300245B030BD28010020F0B54FF4C7
:1007500080744FF49647A9B022463946174801F0F5
:100760004CFF174800908020ADF81800154D781008
:1007700007900395ADF810400595684601F084FE9A
:100780001248134E1049C660016089140182491055
:10079000466101832246394601F098FE0B480D4917
:1007A0001C302246C6600160048249154561018300
:1007B000394601F08BFE29B0F0BD00000044004036
:1007C0000048004000100140004C0040480000205C
:1007D000000801400038014000F060B800F05EB849
:1007E00000F05CB800F05AB800F058B800F056B805
:1007F00000F054B800F052B800F050B800F04EB815
:1008000000F04CB8C10002D50249086070470249A7
:10081000486070470404024000000240002901685B
:1008200002D041F0010101E021F0010101607047B7
:1008300002460020D10001D5034900E003490968C0
:10084000114200D001207047000402400000024025
:10085000002A026801D00A4300E08A430260704720
:1008600030B5026847F6F0739A430C6A8B682343ED
:10087000D1E904452C4323438C692343CC692343AA
:100880004C6A23438C6A234313430360CA68426063
:100890000A6882604968C16030BD000010B501F08F
:1008A0000EFC1020FFF7C4FF01281BD04FF480542A
:1008B0002046FFF7BDFF01281AD024032046FFF78A
:1008C000B7FF01281BD0124C2046FFF7B1FF0128CB
:1008D0001CD12046FFF796FF0E480021BDE81040CE
:1008E000FFF79CBF1020FFF78DFF00210A48F5E7B6
:1008F0002046FFF787FF084800212830EEE7204612
:10090000FFF780FF044800216430E7E710BD0000D6
:1009100000000110580402401C000240704700F023
:10092000B1B800F0AFB800F0ADB800F0ABB800F06F
:10093000A9B800F0A7B800F0A5B800000149086008
:10094000704700001404014010B5012000F08AF83F
:10095000434C18B1208840F0010006E0022000F06E
:1009600081F820B1208840F00200208010BD0420D2
:1009700000F078F818B1208840F00400F5E708206E
:1009800000F070F818B1208840F00800EDE7102062
:1009900000F068F818B1208840F01000E5E720204A
:1009A00000F060F818B1208840F02000DDE740201A
:1009B00000F058F818B1208840F04000D5E78020BA
:1009C00000F050F818B1208840F08000CDE74FF4D7
:1009D000807000F047F818B1208840F48070C4E7B8
:1009E0004FF4007000F03EF818B1208840F4007019
:1009F000BBE74FF4806000F035F818B1208840F470
:100A00008060B2E74FF4006000F02CF818B1208845
:100A100040F40060A9E74FF4805000F023F818B1CB
:100A2000208840F48050A0E74FF4005000F01AF8FE
:100A300018B1208840F4005097E74FF4804000F050
:100A400011F818B1208840F480408EE74FF4004040
:100A500000F008F8002889D0208840F4004084E79E
:100A600018000020064A014600201268044B0A4084
:100A700014331B680B4202D0002A00D001207047BB
:100A80000004014008B50020ADF80000FFF75CFF4E
:100A900001F015FB1E48BDF8001001800120FFF792
:100AA0004DFF0220FFF74AFF0420FFF747FF082011
:100AB000FFF744FF1020FFF741FF2020FFF73EFF24
:100AC0004020FFF73BFF8020FFF738FF4FF4807096
:100AD000FFF734FF4FF40070FFF730FF4FF48060F2
:100AE000FFF72CFF4FF40060FFF728FF4FF4805012
:100AF000FFF724FF4FF40050FFF720FF4FF4804032
:100B0000FFF71CFFBDE808404FF40040FFF716BF99
:100B1000180000207047000004490A6822F0100203
:100B20000A600A6802430A60704700000020024021
:100B300004490A6802F038020A600A6802430A603F
:100B400070470000002002407047000070B50C465E
:100B5000002852D0294A811A1315D614904243D046
:100B600014DC2749274D41184FF6FF701BD09942DE
:100B700027D0B14241D10121102000F039FC60049E
:100B800001D4200439D50121112008E099422ED04A
:100B9000B1422FD0B1F5406F2FD101210802BDE83D
:100BA000704000F025BCA10405D4610403D42104E5
:100BB00001D4844202D1012105200AE00121042050
:100BC000EDE7210703D4E10601D4844209D10121D4
:100BD000092000F00DFC2846BDE87040012100F01E
:100BE00087B801210820DAE701212020D7E7012179
:100BF0004020D4E701218020D1E770BD00140140DE
:100C000000F8FEBF0002300038B50446ADF8001011
:100C100002228DF8022048208DF803002046FFF7BD
:100C200095FF6946204600F013F838BD38B50446F4
:100C3000ADF8001003228DF8022010208DF803007B
:100C40002046FFF783FF6946204600F001F838BDD3
:100C5000F0B50022002849D0CC7804F00F03E40658
:100C600001D58C7823430C784FF00F0C14F0FF0F54
:100C70004FF0010E1AD005680E880EFA02F42640D5
:100C8000A6420FD196000CFA06F725EA070703FAE9
:100C900006F5CE783D43282E00D14461CE78482E0B
:100CA00000D10461521C082AE6D305600A88FF2A95
:100CB0001CD94468002202F108060EFA06F50E88D7
:100CC0002E40AE420ED196000CFA06F7BC4303FA52
:100CD00006F7CE783C43282E00D14561CE78482EC9
:100CE00000D10561521C082AE5D34460F0BD000024
:100CF000F0B5104D6B68440D260184B2C0F3015766
:100D0000B440C0F30342032F05D0C0020AD503202C
:100D10009040834307E0686823F0706220F07060C1
:100D2000686002E0A34343F0706201B122436A604D
:100D3000F0BD000000000140FEE7704770477047BB
:100D40007047000070B500EB80010325C90047F62D
:100D5000F872B2EB910F03D900EB800080031AE028
:100D60004FF6F072B2EB910F04D9042500EB80002E
:100D7000400310E0114AB2EB910F04D9052500EBB6
:100D80008000000307E00E4AB2EB910F05D906255B
:100D900000EB8000C002040C00D1012445F2555044
:100DA00000F02EF8284600F01FF8204600F022F848
:100DB00000F012F8BDE8704000F004B8E0FF010058
:100DC000C0FF030002494CF6CC40086070470000A9
:100DD00000300040AFF3008002494AF6AA200860C4
:100DE0007047000000300040014948607047000033
:100DF000003000400149886070470000003000402A
:100E000001490860704700000030004070B50022C2
:100E10000C8862F30F03012606FA02F52C4207D074
:100E2000C2F10F0506FA05F143EA010565F30F0368
:100E3000521C102AF0DB038070BD70B500220C78C4
:100E400062F30703012606FA02F52C4207D0C2F12D
:100E5000070506FA05F143EA010565F30703521C8D
:100E6000082AF0DB037070BD81070CD16421B0FB50
:100E7000F1F201FB120141B94FF4C871B0FBF1F27C
:100E800001FB120008B100207047012070470000EC
:100E90000A48094910220160094941600281202263
:100EA000C1600282402241610283C16180210184CC
:100EB0002821418401F095BB00300140040100204D
:100EC00000080140344910B50889421C0A81642891
:100ED00060D900200881314991F8220280F0FF0496
:100EE00081F82242B1F8300218B1401EA1F8300258
:100EF00001E044F08004B1F8320218B1401EA1F8BC
:100F0000320201E044F04004B1F82C0218B1401E56
:100F1000A1F82C0201E044F02004B1F82E0218B12F
:100F2000401EA1F82E0201E044F01004B1F828029E
:100F300018B1401EA1F8280201E044F00804B1F8FD
:100F40002A0218B1401EA1F82A0201E044F004046C
:100F5000B1F8240218B1401EA1F8240201E044F0C7
:100F60000204B1F8260218B1401EA1F8260201E0E1
:100F700044F001040948243802F0CAFD074821461C
:100F80002438006800F068FC0448BDE810402438AC
:100F900002F0BABD10BD00000000002028010020B2
:100FA00010B5FFF717FFBDE8104001F081B8FEE76C
:100FB000704770472DE9FF5F90B093460025E94ADE
:100FC00010988946FF24811ADFF89CA3D3142E467B
:100FD000A8462F464FF4806C90427CD00CDCB0F1D8
:100FE000804F32D0E14940184AD0604564D09842E1
:100FF0005BD1012108207FE0B1F5806F7FD0B1F592
:101000008E3F03D0B1F5923F4FD17BE00121C80262
:1010100000F0EEF95FEA090007D0012809D00228A4
:101020000BD0B9F1030F71D10BE055464FF480742A
:101030003AE055464FF4007436E055464FF480646C
:1010400032E055464FF400642EE00121084600F0DE
:10105000B7F95FEA090007D0012808D0022809D0B3
:10106000B9F1030F52D108E0554601241CE0554662
:10107000022419E05546042416E05546082413E0DE
:101080000121022000F09CF95FEA090007D0012845
:1010900008D002280AD0B9F1030F37D109E055462C
:1010A000402401E05546802404262FE0B04D012461
:1010B0001EE0AF4D02241BE00121042000F080F966
:1010C0005FEA090009D001280AD002280BD0B9F143
:1010D000030F1BD10AE00DE011E0A54D402407E00D
:1010E000A34D802404E0A24DAC1501E0A04D6C1589
:1010F00008260BE00121102000F062F906E0012132
:101100002020F9E70121480300F072F90121084687
:1011100000F06EF90121304600F06AF9ADF8304078
:1011200003208DF8320018208DF833000CA92846D2
:10113000FFF78EFD07A800F0FDF98E4C10988E4D3C
:1011400084434EF660265A4600202946139BFFF73B
:10115000AAF88A4BCDE90D01FCB109982C468246CC
:1011600000221D460D98FFF74BF918D20022844B40
:1011700058461399FFF725F804460D465046FFF7E9
:1011800018F922462B46FFF78EF8B04600227D4B19
:10119000FFF789F800227C4B1FE00A98DEE7DDE9C3
:1011A0000D0123460022FFF72BF94FF0000217D262
:1011B0002B4658461399FFF704F804460D4650464F
:1011C000FFF7F7F822462B46FFF76DF8B0460022EE
:1011D0006C4BFFF768F800226C4BFEF7F2FF49E01A
:1011E0002646234658461399FFF70AF945D8504634
:1011F000FFF7DFF85A46139BFFF755F80122FFF778
:10120000C1F804460D460022614BFFF7F9F804D8F7
:101210004FF4FA6800225F4B28E000225E4B204624
:101220002946FFF7EDF804D84FF0C8080022564BC6
:101230001CE00022594B20462946FFF7E1F804D86C
:101240004FF014080022514B10E00022544B20466E
:101250002946FFF7D5F805D84FF0020800224FF0D5
:10126000804303E04FF00108002233462046294620
:10127000FFF719F8FFF7AAF887B2A8F10100ADF857
:101280001000781EADF814000024ADF81640ADF83B
:10129000124004A9109800F05FFD1E9847434FF4D8
:1012A0007A70874203D9B7FBF0F080B202E01E9853
:1012B00008B101201E906020ADF800001E98ADF826
:1012C00006000120ADF80200ADF808405FEA090011
:1012D00007D001280AD002280DD0B9F1030F13D18D
:1012E0000EE06946109800F035FC0DE06946109854
:1012F00000F066FC08E06946109800F0ABFC03E0E3
:101300006946109800F0EAFC0121109800F017FCE3
:101310005FEA090007D001280AD002280DD0B9F1F0
:10132000030F13D10EE00821109800F043FC0DE0EC
:101330000821109800F084FC08E00821109800F0C3
:10134000C7FC03E00821109800F0FAFC0121109876
:1013500000F0DCFB0121109800F0E6FB14B0BDE8C2
:10136000F09F0000001000400008014000FCFFBF9B
:10137000000C0140000001400000F03F000024404C
:1013800000005940004CED4000006940000034402E
:10139000D012634100409F4080842E41006AF84093
:1013A00040FFEF4070470000044A0029516901D016
:1013B000014300E08143516170470000001002408A
:1013C000044A0029D16901D0014300E08143D16181
:1013D0007047000000100240044A0029116901D042
:1013E000014300E08143116170470000001002409A
:1013F000044A0029916901D0014300E081439161D1
:101400007047000000100240044A0029D16801D052
:10141000014300E08143D1607047000000100240AA
:1014200070B5002400F068F84FF48035284600F0CD
:10143000F5F8681E2146641C8142FBD300F03EF99A
:10144000012803D0BDE8704000F025B81020FFF758
:1014500063FB0220FFF76CFB002000F0D5F80020B2
:1014600000F008F94FF4806000F0FAF84FF4E01152
:10147000284600F00FF9012000F006F9392000F0AD
:10148000A3F80028FAD0022000F00EF900F0B4F81A
:101490000828FBD170BD10B500F02EF8012000F037
:1014A000D7F8202000F090F80028FAD0002000F0B3
:1014B000ABF8002000F0DEF84FF4806000F0D0F8C8
:1014C0000220FFF735FB1020FFF726FB4FF46011D9
:1014D000002000F0DFF8012000F0D6F802E0022042
:1014E00000F0E2F8392000F06FF80028F7D000F0A3
:1014F00083F80828FBD110BD0B48016841F00101B9
:1015000001604168094A114041600168084A114080
:101510000160016821F480210160416821F4FE012D
:101520004160002181607047001002400000FFF818
:10153000FFFFF6FE30B5204A5168204B11F00C0138
:1015400003D0042901D0082901D0036011E05168BB
:10155000022301F4701103EB9141536813F4803FAF
:1015600002D053689B0301D5154B00E0134B594340
:10157000016051680F2303EA1111124B5C5C016892
:10158000E14041605468072505EA14241C5D21FAF6
:1015900004F48460546805EAD4241B5DD940C1601A
:1015A0005268032303EA9232064B1B1F9A5CB1FB7D
:1015B000F2F1016130BD00000010024000127A001B
:1015C00000093D00643F0008034600205909094A0C
:1015D00001290AD002290AD0516A03F01F0201230F
:1015E00093400B4200D0012070471168F5E7116A63
:1015F000F3E70000001002400248406800F00C00D1
:101600007047000000100240034A516821F0F001C9
:101610000143516070470000001002400B490A6806
:1016200022F480320A600A6822F480220A60B0F54F
:10163000803F07D0B0F5802F03D1086840F4A02088
:1016400008607047086840F48030F9E700100240F5
:1016500001490860704700000000424270470000E6
:10166000034A516821F4E061014351607047000072
:1016700000100240034A516821F4605141EAC00061
:101680005060704700100240014908667047000032
:1016900000004242034B5A68084322F47C12104374
:1016A0005860704700100240034A516821F003015E
:1016B00001435160704700000010024030B50B4CF0
:1016C00040F2FF153120FFF77FFF20706068401C5B
:1016D0006060207810B96068A842F3D13120FFF72C
:1016E00073FF002800D0012030BD00001000002052
:1016F0007047000002490A8882430A807047000050
:10170000042800402DE9F04700F060F8DFF8AC80D5
:101710000546B0FBF8F32A482A4E018899422CD09E
:10172000038040F2B2744FF4B7774FF4B6790CE00F
:101730002046FFF799FB20B1BB4208D3A3F5B7734E
:1017400001E0A3F26D13641CA4B24B45F0D8B48041
:1017500000241D4F0BE0B088FFF786FB08B1012C79
:1017600028D0385D984204D81B1A641CA4B21C2BE4
:10177000F1D2641CB4715B1CF371B5FBF8F108FB8A
:1017800011504FF46161B0FBF1F23270B0FBF1F235
:1017900001FB12033C22B3FBF2F37370B0FBF1F3D5
:1017A00001FB1300B0FBF2F102FB1100B07000204E
:1017B000BDE8F0871D2BDCD31D3BD6E7805101002F
:1017C0001A000020F63F0020743F000803480088FC
:1017D0000249091F098840EA014070471C2800405F
:1017E00006490988C2B21140044A121F12880242F7
:1017F00002D009B101207047002070470428004042
:1018000010B50120FFF7ECFF08B1FFF77BFF0220C6
:10181000FFF7E6FF10B10220FFF76CFF0520FFF78E
:1018200069FFBDE8104000F001B8000002480188DF
:101830008906FCD5704700000428004070477047B7
:10184000704770470029018802D041F0400101E053
:1018500021F04001018070478181704730B50288D6
:101860004C8802F441530A88CD8822438C882C434B
:1018700022430C8922434C8922438C892243CC8900
:1018800022431A430280828B22F400628283098AF7
:10189000018230BD0029818802D041F0040101E0BD
:1018A00021F00401818070477047FFF7B9BD000047
:1018B00070B520480822204980F87E204B15016031
:1018C00083808B1581608381802301618382402323
:1018D0008161838320230162838410238162838555
:1018E00001638286154981630421818700F0FEFB34
:1018F000104800F08CFC0F4C00F03F00A83484F836
:101900000D020C4800F083FC00064FF001054FF07B
:10191000000602D584F80E5201E084F80E620548F4
:1019200000F075FC400602D584F80F5270BD84F8B3
:101930000F6270BD80000020000C014000140140C7
:101940002DE9F041204CB4F8120200282BD11F4E93
:101950004FF4FA60A4F81202B0780127002580B194
:10196000A4F1A80000F053FC7178C0B281421AD0F3
:1019700000F03F0184F80D12010619D584F80E72AB
:1019800018E01148B770A83800F041FCC0B2707080
:10199000010602D584F80E7201E084F80E5240066A
:1019A00003D584F80F72BDE8F08184F80F52FAE78E
:1019B00084F80E52410602D584F80F7201E084F8D3
:1019C0000F527070EFE70000280100200000002097
:1019D00000F06AB810B504002BD01648FFF7AAFD36
:1019E0004FF0E021086920F002000861086920F04A
:1019F00001000861086920F0040008610D480E4AE2
:101A00000068B0FBF2F060434861086940F00200F2
:101A10000861086940F001000861002088610869D8
:101A200040F0020008614A6904480260096989B20D
:101A3000416010BD0040002000127A001C00002010
:101A400010B504002BD01648FFF774FD4FF0E020CE
:101A5000016921F002010161016921F001010161C7
:101A6000016921F0040101610D494FF4FA5209683E
:101A7000B1FBF2F14161016941F001010161002214
:101A8000826181690029FCD081690029FCD1641E32
:101A9000F7D104490B68436182614968016110BD57
:101AA000004000201C00002000F009BB7047704778
:101AB0007047704710B500F04DF9BDE810400121A6
:101AC000014800F02EB80000002C014010B500F0D5
:101AD00041F90121BDE81040880700F022B800005C
:101AE00010B500F037F9BDE810400121014800F0C1
:101AF00018B800000004004000F02CB9704770478F
:101B0000704770477047704700F024B9002901887A
:101B100002D041F0800102E040F27F3211400180AA
:101B20007047C943018270470029018802D041F003
:101B3000010102E040F2FE321140018070470029AD
:101B400030F8441F02D041F4004101E0C1F30E011E
:101B50000180704730B5028C22F001020284028CB1
:101B60008388048B22F0020224F070050C882C4339
:101B70000D8915434A882A43CD8885860B4DA84296
:101B800002D00B4DA8420DD122F008054A8923F45A
:101B900003432A4322F004058A882A438D891D4382
:101BA000CB892B4383800483028430BD002C014009
:101BB00000340140028B22F008020A43028370477E
:101BC00070B5028C22F010020284028C8388048B90
:101BD0000D8824F4E0464FF6FF7404EA05253543EA
:101BE0000E8922F0200204EA061616434A8804EA07
:101BF00002123243CE8806870F4EB04202D00F4EFB
:101C0000B04215D122F080064A8923F40C4304EA3D
:101C10000212324322F040068A8804EA021232435A
:101C20008E89C98904EA86061E4304EA8103334388
:101C300083800583028470BD002C01400034014084
:101C4000028B4FF6FF7322F4006203EA0121114375
:101C50000183704770B5028C22F480720284028C7A
:101C60008388848B0D8824F0700425430E894FF6F9
:101C7000FF7422F4007204EA062616434A8804EA36
:101C800002223243CE8886870F4EB04202D00F4EDA
:101C9000B04215D122F400664A8923F4304304EAA5
:101CA0000222324322F480668A8804EA0222324306
:101CB0008E89C98904EA06161E4304EA01133343D8
:101CC00083808583028470BD002C01400034014074
:101CD000828B22F008020A438283704770B5028C1F
:101CE00022F480520284058C8288838B0C8823F432
:101CF000E0464FF6FF7303EA042434430E8925F4CB
:101D0000005503EA06362E434D8803EA0535354370
:101D1000CE88A0F84060084EB04202D0074EB042D4
:101D200005D18989C2F30D0603EA8112324382800C
:101D30008483058470BD0000002C01400034014004
:101D4000828B4FF6FF7322F4006203EA01211143F4
:101D50008183704700F0B3B9028802F08F020280DD
:101D6000CA884B881A4303881A4302808A8882856E
:101D70000A88028501228282044A904202D0044AE3
:101D8000904201D1097A018670470000002C014081
:101D9000003401401949B1F8180210B1401EA1F8F1
:101DA0001802B1F81A0210B1401EA1F81A02B1F8D7
:101DB0001C0210B1401EA1F81C02B1F81E0210B1A5
:101DC000401EA1F81E02B1F8160210B1401EA1F883
:101DD0001602B1F8120210B1401EA1F81202B1F8B9
:101DE000140210B1401EA1F81402B1F8200200281C
:101DF00002D0401EA1F820027047000028010020F8
:101E000000F05DB900F05BB970B51D4D40F226647D
:101E10002146284600F0CFF8B0B12146284600F010
:101E200074F8284601F004F870B1284600F040FE2E
:101E3000040024D0002101F021FC0121204601F002
:101E40000DFC284601F054FD40F22444214628466A
:101E500000F0B1F8002812D02146284600F055F8CD
:101E6000284600F0E5FF002809D0284600F020FEB3
:101E7000002804D02846BDE8704001F0BFBC70BD0A
:101E80000038014070B51D4D40F2266421462846B9
:101E900000F091F8B0B12146284600F036F8284607
:101EA00000F0C6FF58B1284600F002FE040023D01F
:101EB000002101F0E3FB0121204601F0CFFB284681
:101EC00001F016FD40F224442146284600F073F844
:101ED000002811D02146284600F017F8284600F0C7
:101EE000A7FF20B1284600F0E3FD002804D02846D3
:101EF000BDE8704001F082BC70BD000000440040AD
:101F000000F0DDB8C943018070470A0A0121914001
:101F1000C943018070470029818902D041F40051F2
:101F200001E021F4005181817047002A828A01D0AA
:101F30000A4300E08A43828270470000184A10B5C5
:101F4000811A131590421BD007DC1649401814D093
:101F5000984223D10121040217E0994213D0B1F530
:101F60006C4F1BD101218C032046FFF74DFA204610
:101F7000BDE810400021FFF747BA01214C0404E0FE
:101F80000121CC0401E001210C052046FFF724FAD1
:101F90002046BDE810400021FFF71EBA10BD00002A
:101FA000004C004000BCFFBF0246002012880A42DD
:101FB00000D00120704770B501F01F0501260024F4
:101FC000C1F3421306FA05F2012B0FD0022B0FD0FA
:101FD000838A4FEA11210088134206FA01F600EACB
:101FE000060001D000B10124204670BD8389F0E7CE
:101FF000038AEEE710B5C1F3421301F01F0401217B
:10200000A140012B07D0022B07D01430002A026810
:1020100005D00A4304E00C30F8E71030F6E78A43B5
:10202000026010BD30B50446008A85B00D464CF6FE
:10203000FF710840E98801432182A0894EF6F3111F
:102040000840A9882A8911436A8902431143A18162
:10205000A08A4FF6FF410840A9890143A182684642
:10206000FFF768FA1148844201D1039800E0029812
:10207000642200EBC00101EB001029686FF0180525
:102080008900B0FBF1F0B0FBF2F109010B096B43E1
:1020900000EB8300322303EB0010B0FBF2F000F002
:1020A0000F000843208105B030BD0000003801401A
:1020B0007047704770477047FEE7FEF749BA10B5A2
:1020C000FEF76EFFBDE81040FEF782BA704702E0EF
:1020D00008C8121F08C1002AFAD1704770470020B3
:1020E00001E001C1121F002AFBD1704770B590F8C2
:1020F0007E500446002D7CD0A1882068FEF784FD28
:102100006D1E15F0FF057DD0A189A068FEF77CFD4E
:102110006D1E15F0FF0575D0A18A2069FEF774FDCC
:102120006D1E15F0FF056DD0A18BA069FEF76CFD4B
:102130006D1E15F0FF0565D0A18C206AFEF764FDC9
:102140006D1E15F0FF055DD0A18DA06AFEF75CFD48
:102150006D1E15F0FF0555D0A18E206BFEF754FDC6
:102160006D1E15F0FF054DD0A18FA06BFEF74CFD45
:102170006D1E15F0FF0545D0B4F84410206CFEF735
:1021800043FD6D1E15F0FF053CD0B4F84C10A06C5B
:10219000FEF73AFD6D1E15F0FF0533D0B4F854106C
:1021A000206DFEF731FD6D1E15F0FF052AD0B4F845
:1021B0005C10A06DFEF728FD6D1E15F0FF0521D007
:1021C000B4F86410206EFEF71FFD6D1E15F0FF05BC
:1021D00018D0B4F86C10A06EFEF716FD6D1E15F049
:1021E000FF050FD0B4F87410206FFEF70DFD6D1EC3
:1021F00000E007E015F0FF0F04D0B4F87C10A06FEA
:10220000FEF702FD2046BDE87040AFF3008070B5D8
:1022100090F87E204FF6FF7404FA02F300219BB27F
:10222000002A7ED00568521ED2B2AD68868835423B
:1022300000D00121002AF4D08568521ED2B2AD68C8
:1022400004EA41018689354201D041F00101002AAA
:1022500067D00569521ED2B2AD6804EA4101868A90
:10226000354201D041F00101002A5AD08569521E41
:10227000D2B2AD6804EA4101868B354201D041F00B
:102280000101002A4DD0056A521ED2B2AD6804EA9F
:102290004101868C354201D041F00101002A40D035
:1022A000856A521ED2B2AD6804EA4101868D35427C
:1022B00001D041F00101002A7ED0056B521ED2B23E
:1022C000AD6804EA4101868E354201D041F001013A
:1022D0003AB3856B521ED2B2AD6804EA4101868FD3
:1022E000354201D041F00101DAB1056C521ED2B283
:1022F000AD6804EA4101B0F84460354201D041F0D4
:10230000010172B1856C521ED2B2AD6804EA41017E
:10231000B0F84C60354201D041F001010AB1521EC3
:1023200000E049E0056DD2B204EA4101AD68B0F8C1
:102330005460354201D041F00101EAB3856D521E6F
:10234000D2B2AD6804EA4101B0F85C60354201D018
:1023500041F0010182B3056E521ED2B2AD6804EAAB
:102360004101B0F86460354201D041F001011AB377
:10237000856E521ED2B2AD6804EA4101B0F86C60BD
:10238000354201D041F00101B2B1056F521ED2B207
:10239000AD6804EA4101B0F87460354201D041F003
:1023A00001014AB1826F04EA41019268B0F87C40B1
:1023B000224201D041F001011943C94389B2A0F87A
:1023C0008010084670BD2DE9F0410D46B0F10008BF
:1023D00011D0072D0FD32A467E21FDF7DBFE041E08
:1023E0000AD0A4EB0800281A85B2072D03D3617820
:1023F000481DA84202D90020BDE8F081601C491C9C
:102400004218475C5678FEF718F9C1B2B94204D1B8
:10241000B6EB102F01D12046EEE7601C6D1EADB269
:10242000D9E7000070B50021164C05460A46601831
:1024300090F8200008B1521CD2B2491CC9B204293C
:10244000F5D3EAB10F4904222431081FFDF7ACFE91
:102450000C490023103928B1086B2860086BC1E9CA
:102460000C3009E0B4F89800421CA4F89820B0F5AC
:10247000FA6F05D9086B2860A4F89830042070BD65
:10248000002070BD3860002010B50146A02205482C
:10249000FDF75CFE0348002180F88D10C0F89C1009
:1024A00010BD000038600020074810B50068002803
:1024B00009D000F04DFD00F0E9FC00F0A5FDBDE8FD
:1024C000104000F077BD10BD3860002070B50E469A
:1024D000044615460068012101F03CFA204601F04F
:1024E00099F8606810B12189FEF7A0FBE06810B18F
:1024F000218AFEF79BFB606910B1218BFEF796FBEA
:102500000021204601F0BAF80121204601F0A6F88A
:10251000206801F07BFC3146206801F0FBFC294675
:102520002068BDE8704001F0A3BB70B504680546A3
:102530000E46204600F01CFC50B10021284601F058
:102540009DF80121284601F089F8204600F0DEF9C7
:10255000204600F085FB002805D031462046BDE826
:10256000704000F01BBB70BD2DE9F04104461546DC
:102570000E460027006800F0FBFB88B1206800F0E1
:102580006FFB68B10121204601F078F80021204658
:1025900001F064F82A463146206801F061F90746E7
:1025A0003846BDE8F08170B50B468178447863F316
:1025B0000501461C21F04001651C817012B141F0FB
:1025C000800101E021F08001817029463046FEF74C
:1025D00034F87055010A701941707F218170601DB7
:1025E00070BD10B5044601F0E7F921896068FEF777
:1025F0001DFB61682089086110BD70B516460C4648
:10260000054601F003FC2146284601F083FC3146D3
:102610002846BDE8704001F02BBB70B50E4605465C
:10262000002400F01DFB38B13146284600F0B6FA10
:102630000446284600F038F9204670BD70B51446AF
:102640000D46064600F094FB002806D02246294697
:102650003046BDE8704001F003B970BD30B5C1B07F
:1026600069462D48FFF761FF010025D06846FFF756
:10267000AAFE040020D0284DC43595F8230240F06E
:10268000040085F823022820A5F82802A07895F8F0
:102690000E1200F03F02C00911B100280CD001E079
:1026A000002809D1012A09D0C1B12146012000F03A
:1026B000C3FE022000F052FE41B030BD022000F007
:1026C000ADF90028F8D00020A8710220A5F81A0260
:1026D00000F0D6F8022000F0BDF8EDE795F80D12F5
:1026E000E078814201D0FF2803D12146032000F089
:1026F000A3FE95F80D12E078814201D0FF2802D1A7
:10270000204600F06DF895F80D02E1788842D3D1AB
:10271000022000F04DFECFE76400002070B52F4D81
:10272000B5F81A0200284DD1AA7A00266AB105F13F
:102730000B01A1F1CF00FFF717FF002842D0AE72C6
:10274000022000F087F80A203AE0A879052810D383
:10275000022000F095F960B1811CAE7195F80E026F
:1027600008B1012000E0022000F0BBFE022000F0D2
:1027700087F8022000F084F904001FD0174862781F
:10278000A11CC438FFF7F0FE00281BD0A8796421F3
:10279000401CC0B2A871A5F81A1295F8231241F096
:1027A000080185F823122821A5F82A126179FF294A
:1027B00009D0BDE87040022000F0BABDAE7105201E
:1027C000A5F81A0270BD0228FCD3AE71022000F0F9
:1027D00057F8BDE87040022000F03CB82801002006
:1027E00070B5002833D08178857901F03F04C17835
:1027F000FF2904D0164890F80D02884227D10A2CF0
:1028000001D0092C02D1012000F0C2FE022C03D01D
:102810000B2C01D0052C08D1284600F0B9FE022C63
:1028200005D00B2C03D0052C01D0082C02D1284652
:1028300000F0EEFD032C05D0062C08D1BDE8704059
:1028400000F0B0BE2846BDE8704000F085BE70BD07
:1028500028010020002810D0084A0128117906D04C
:10286000022807D0032808D121F0040004E021F059
:10287000010001E021F002001071704728010020E2
:1028800010B5002400F0E2F800280CD004EBC412CC
:1028900010F8121011B1491E00F81210641CA4B2F5
:1028A000142CF3D3012010BD124A1349904203D1D6
:1028B0000A7822F001020A70104A904203D10A7885
:1028C00022F002020A700E4A904203D10A7822F0E6
:1028D00004020A700B4A904203D10A7822F00802DF
:1028E0000A70094A904203D1087820F0100008705D
:1028F00000207047003801402600002000440040BE
:1029000000480040004C004000500040124A13496B
:10291000904203D10A7822F001020A70104A9042D4
:1029200003D10A7822F002020A700E4A904203D1C3
:102930000A7822F004020A700B4A904203D10A7806
:1029400022F008020A70094A904203D1087820F068
:10295000100008700020704700380140250000205A
:102960000044004000480040004C0040005000403F
:1029700070B5274C27490225B4F8160278B140F209
:102980006C73254A984202D28968C90401D5156042
:1029900070BDC828FCD9C720A4F8160270BD1E4E11
:1029A000361D356020788968C207194840884FEA8B
:1029B000C14114D0002902DA40F0030005E00120F3
:1029C00000F026FD608820F00300608035602088DC
:1029D00020F001002080BDE8704000F0E3BD002938
:1029E0004FEAC0700ADA0028D8D100F011FD0020AB
:1029F00000F0CEFD608840F0010007E00028CDD057
:102A0000012000F005FD608820F00100608070BDAD
:102A10002801002000100140100C0140002808D0BF
:102A200009490128097905D0022806D0032807D0D2
:102A30000020704701F001007047C1F3400070476B
:102A4000C1F380007047000028010020002806D054
:102A5000012805D0022805D0032807D000207047A0
:102A600005487047054841F2726102E0034842F6AA
:102A7000A5210844704700006703002028010020BA
:102A800010B50024FFF7E2FF00280AD004EBC411C0
:102A900010F81110012905D0641CA4B2142CF5D330
:102AA000002010BD04EBC41100EB410010BD00007C
:102AB00010B5044600F0BCF9002804D00D490E48BA
:102AC0008C4201D1006810BD0C498C4201D1406894
:102AD00010BD0B498C4201D1806810BD09498C4260
:102AE00001D1C06810BD08498C4201D1006910BDF8
:102AF000002010BD00380140146000200044004058
:102B000000480040004C0040005000400B4A0C4977
:102B1000904201D1088870470A4A904201D1488802
:102B20007047094A904201D188887047074A90420D
:102B300001D1C8887047002070470000003801406C
:102B4000280000200044004000480040004C0040A5
:102B50000A49884201D10A4870470A49884201D18E
:102B6000094870470949884201D109487047094915
:102B7000884201D108487047002070470038014062
:102B8000144000200044004014440020004800404D
:102B900014480020004C0040144C00202DE9F04760
:102BA00089461C490746884232D000282ED0FFF7BC
:102BB000CFFF80463846FFF7A9FF0546384600F0AC
:102BC0002BF80446406880B2A84221D8281A06048F
:102BD000360C1DD0206820F00100206032464146AE
:102BE0004846FDF7B3FAC4F80C806560206840F0F1
:102BF000010020604FF6EF7038800021384600F069
:102C00004DFD2946384600F0D1FD3046BDE8F0873D
:102C10000020FBE7005000400B49884201D10B48DF
:102C200070470B49884202D108481430704709495F
:102C3000884202D10548283870470749884201D1A7
:102C40000648704700207047003801405800024095
:102C50000044004000480040004C00403004024066
:102C60002DE9F0410446FFF751FF06462046FFF7E5
:102C7000D3FF4068102185B22046FFF795F920B1B7
:102C800010212046FFF73EF937E0ADB3B54234D00E
:102C90003ED22048204B2149214A224E844201D174
:102CA0001B880CE08C4201D15B8808E0944201D182
:102CB0009B8804E0B44201D1DB8800E00023164F7A
:102CC0000837844201D13A880CE08C4201D17A88DD
:102CD00008E0944201D1BA8804E0B44201D1FA88F4
:102CE00000E000229D420BD1022A06D8521C91B26C
:102CF000204600F0D3FC0BE0FFE70120BDE8F081A7
:102D00000021204600F0CAFC2946204600F04EFD76
:102D10000020F3E70038014030000020004400406C
:102D200000480040004C00400B49884201D10B484C
:102D300070470B49884202D108483C307047094926
:102D4000884202D10548283870470749884201D196
:102D50000648704700207047003801404400024098
:102D60000044004000480040004C0040580402402D
:102D700070B5054629482A49854201D10C880FE0E3
:102D8000284A954201D14C880AE0274A954201D150
:102D90008C8805E0254A954201D1CC8800E00024CA
:102DA0002846FFF7C1FF064640212846FFF7FCF8FA
:102DB00080B10021284600F0D9FC00213046FDF703
:102DC0002DFD40212846FFF79DF880212846FFF77A
:102DD00099F805E03068C00702D0706810B10DE0C6
:102DE000012070BD80212846FFF7DEF830B1022CAB
:102DF00006D2641CA1B2284600F0B8FC002070BDC9
:102E000000213046FDF70AFD80212846FFF77AF8B9
:102E10000021284600F0AAFCE2E70000003801404B
:102E2000400000200044004000480040004C0040AA
:102E30001149104A0978904202D101F0010070470F
:102E40000E4A904202D1C1F3400070470C4A9042B2
:102E500002D1C1F3800070470A4A904202D1C1F307
:102E6000C0007047084A904202D1C1F30010704779
:102E7000002070470038014024000020004400403A
:102E800000480040004C0040005000402DE9F04751
:102E90002E4F97F88C00002847D00024A7F1100986
:102EA00007F1280AA04626E03D1995F82800AA282F
:102EB0001FD195F82A106018021D642A01D987F8DD
:102EC0008C80C61996F82C00BB2812D105F1290078
:102ED000891CFDF79EFB96F82B10814209D197F8CB
:102EE0008D0010B9012087F88D0095F82A0006287A
:102EF0001DD0641CE4B297F88C00A042D4D8622C98
:102F000005D364215046FDF73AF987F88C80B7F86D
:102F10009000411CA7F89010B0F5FA7F05D9C9F8C8
:102F20003080C9F83480A7F89080BDE8F08739195F
:102F30005046D1F82D10C9F830106421FDF71FF963
:102F400007F88C8FA7F80480EFE7000038600020B6
:102F500070B590B069461648FFF7E7FA144D0400C3
:102F60004FF0000615D095F88C002044642801D954
:102F700085F88C600E4815F88C1F283008442246CE
:102F80006946FDF7E3F8287820442870EE8010B0F9
:102F900070BDB5F89200411CA5F8921040F6B8310A
:102FA0008842F4D3A5F8926005F88C6F6E70EEE756
:102FB0003860002070B5134DB5F89600E0B94FF4B5
:102FC0009670A5F89600A5F11004AA2020700020A4
:102FD00060700321A1702521E170262121716071AB
:102FE0000521601CFDF715FBA071BB20E0710822D4
:102FF00021462846FFF7B8FA35F8960F401E28807C
:1030000070BD00003860002070B5204C94F88D0031
:10301000002839D1B4F8960020B9B4F89400401CC7
:10302000A4F89400B4F8940003282DD30025A4F844
:103030009450D4F89C004FF41651C0B14FF4E132D3
:10304000904214D04B00884209D08E00984202D1A1
:10305000C4F89C600DE04FF46143B04202D1C4F863
:103060009C3006E0984202D1C4F89C2001E0C4F8EC
:103070009C1064220548D4F89C10FFF727FA0A2018
:10308000FEF7DEFCA4F8965070BD0000386000200A
:1030900010B5C0B069461D48FFF747FA01002BD0B4
:1030A0006846FFF790F9010026D0184CE03494F8F8
:1030B000230240F0100084F823022820A4F82C02F8
:1030C000887800F03F02C00916D0012A04D094F895
:1030D0000E0298B1012012E00320FFF79FFC0028A8
:1030E0000AD00020E0710220A4F81C020320FFF7A0
:1030F000C7FB0320FFF7AEFB40B010BD022000F07D
:103100009BF9032000F02AF9F6E7000048000020B0
:1031100070B5334DB5F81C02002854D195F80C0158
:10312000002678B12946A1F1E0008A7A0B31FFF739
:103130001BFA002847D085F80C610320FFF78AFBB3
:103140000A203EE0E879052810D30320FFF798FC19
:1031500060B1811CEE7195F80E0208B1012000E00B
:10316000022000F0BEF90320FFF78AFB0320FFF7DF
:1031700087FC040023D01A486278A11CE038FFF7CE
:10318000F3F900281FD0E8796421401CC0B2E8712F
:10319000A5F81C1295F8231241F0200185F823129E
:1031A0002821A5F82E12A179A41CFF290CD0617941
:1031B000FF2909D0BDE87040032000F0B9B8EE71D6
:1031C0000520A5F81C0270BD0228FCD3EE71032077
:1031D000FFF756FBBDE870400320FFF73BBB000044
:1031E00028010020FEF769FFFDF7DAFEFCE700008A
:1031F00030B5C1B069462848FFF70FFA01002CD05E
:103200006846FFF7E0F8254D040095F8230240F0EA
:10321000010085F823024FF02800A5F824021CD0F5
:10322000A07800F03F00012807D095F80D12E07853
:10323000814214D0FF2812D015E00120FFF7EEFBE9
:1032400000280AD0002068710520A5F81802012086
:10325000FFF716FB0120FFF7FDFA41B030BD214614
:10326000032000F0E9F895F80D12E078814201D1D1
:10327000FF2803D12146022000F0DEF895F80D1258
:10328000E078814201D0FF2802D12046FFF7A8FA5A
:10329000012000F08DF8E0E7004400402801002004
:1032A00070B5214CB4F81802002839D194F83E02C8
:1032B0001E4E002588B104F50D710A223046FFF735
:1032C000BDF900282CD084F83E520220A4F8180240
:1032D000BDE870400120FFF7BDBA607918B1657193
:1032E0000120FFF7CDFA0120FFF7CAFBC8B14278F1
:1032F000811C3046FFF7A2F9002811D0012000F010
:1033000017F86079401C60716420A4F8180294F8E2
:10331000230240F0020084F823022820A4F82602A9
:1033200070BD657170BD00002801002000440040A0
:10333000002810D0084A0128117906D0022807D0A9
:10334000032808D141F0040004E041F0010001E04D
:1033500041F00200107170472801002010B50128CB
:103360001CD002281CD0032817D10E4C7E212046E9
:10337000217005216170A17821F03F01491C21F0E5
:10338000C001A1700021E17021716171A1710A4633
:103390000121FFF708F90120A07210BD024CE5E7FA
:1033A000024CE3E7330200205C03002031010020DF
:1033B00010B5012821D0022821D003281CD1114C9E
:1033C0007E210122217005216170A178204621F023
:1033D0003F01491C21F0400141F08001A1700A49E0
:1033E00091F80D12E170002121716171A1711146F6
:1033F000FFF7D9F80120A07210BD044CE0E7024CA1
:103400000934DDE733020020280100205C0300209E
:1034100010B50849064B1C1F91F80F12012208B184
:1034200009B102E009B1226010BD1A6010BD0000B0
:10343000140C0140280100202DE9F04700250E461C
:1034400080462F468946FFF701FB041E38D0B6B3ED
:10345000F1783079B8F1020F03D0B8F1030F02D040
:1034600003E061B301E000282AD07678761DB6F536
:10347000807F24D805EBC51114F81100B8420BD990
:10348000074604EB41004178B14205D13246494636
:10349000801CFCF789FEA8B16D1CADB2142DE9D3D8
:1034A000142F0CD27F1C1FFA87F8002000EBC011EC
:1034B00014F8111041B1401C80B21428F6D300203A
:1034C000BDE8F0873046FBE700EBC01504EB45078D
:1034D000B81C32464946FCF739FE04F815807E7068
:1034E000F0E710B5C2B004467E208DF8000006203B
:1034F0008DF801009DF8020020F03F00801D20F0B3
:10350000400040F080008DF80200C8788DF803007C
:1035100008798DF8040048798DF8050002208DF8AF
:10352000060001208DF80700052C12D2DFE804F018
:1035300011080308080000208DF804008DF805002C
:10354000012206216846FFF72EF869462046FFF75C
:1035500073FF42B010BD00000B4A0223118848B12E
:1035600041F0010010804FF4FA60A2F816020748FB
:103570000360704721F0010010800020A2F81602BD
:103580000248001DF4E7000028010020100C014053
:10359000042110B10248016070470148001DFAE79C
:1035A000100C014010B5C2B07E208DF8000006203E
:1035B0008DF801009DF80200154C20F03F00C01C62
:1035C00020F0400040F080008DF8020094F80D02D9
:1035D0008DF8030000208DF804008DF8050001200F
:1035E0008DF80600A078802200F001008DF8070019
:1035F00003216846FEF7D7FF94F80E02694608B12A
:10360000012000E00220FFF717FF42B010BD0000CC
:10361000280100200B4B01680B4A994200D1106031
:103620000A4B994200D15060094B994200D19060F9
:10363000084B994200D1D060074B994200D11061EC
:103640007047000000380140146000200044004032
:1036500000480040004C004000500040426922B148
:10366000038B09B1536100E013614268002A02D064
:10367000008909B15061704710617047C26822B17A
:10368000038A09B1136100E053614268002A02D045
:10369000008909B110617047506170470A4B0B4AAD
:1036A000984201D111800DE0094B984201D151801F
:1036B00008E0084B984201D1918003E0064B984204
:1036C00000D1D18008467047003801403800002002
:1036D0000044004000480040004C004030B5204805
:1036E000C1B090F80E0200280ED00220FFF7C8F9F2
:1036F0001C4C002508B1E56003E01B49E0688842E6
:1037000004D2E068401CE06041B030BD7E208DF8FE
:10371000000006208DF801009DF80200002220F034
:103720003F000C3020F0C0008DF80200FF208DF823
:1037300004008DF805008DF803008DF806508DF813
:1037400007500C216846FEF72EFF69460220FFF75E
:1037500073FE69460320FFF76FFEE560D4E70000C3
:103760002801002000000020C02709000A4B0B4A56
:10377000984201D111800DE0094B984201D151804E
:1037800008E0084B984201D1918003E0064B984233
:1037900000D1D18008467047003801404000002029
:1037A0000044004000480040004C00404FF480625C
:1037B000914200D911460C4B0C4A984201D111801C
:1037C0000DE00B4B984201D1518008E0094B984223
:1037D00001D1918003E0084B984202D1D180084684
:1037E0007047002070470000003801403000002082
:1037F0000044004000480040004C0040124A134979
:10380000904203D10A7842F001020A70104A9042B5
:1038100003D10A7842F002020A700E4A904203D1A4
:103820000A7842F004020A700B4A904203D10A78E7
:1038300042F008020A70094A904203D1087840F029
:10384000100008700020704700380140260000205A
:103850000044004000480040004C00400050004040
:103860002DE9F041154688460446FFF74FF9074613
:103870001748844201D1174E0FE017498C4201D1FD
:10388000164E0AE016498C4201D1164E05E0164943
:103890008C4201D1154E00E000262046FFF744FA85
:1038A0000446BD4202D90020BDE8F0812A464146C7
:1038B0003046FCF74BFC206820F00100206065607A
:1038C000E660206840F0010020602846ECE7000038
:1038D00000380140145000200044004014540020DF
:1038E0000048004014580020004C0040145C0020A8
:1038F000124A1349904203D10A7842F001020A7039
:10390000104A904203D10A7842F002020A700E4A2D
:10391000904203D10A7842F004020A700B4A9042A6
:1039200003D10A7842F008020A70094A904203D192
:10393000087840F0100008700020704700380140FF
:10394000250000200044004000480040004C00409A
:1039500000500040124B134A984203D1137861F390
:1039600000031370104B984203D1137861F34103A5
:1039700013700E4B984203D1137861F382031370D6
:103980000B4B984203D1137861F3C3031370094BB7
:10399000984203D1107861F3041010700020704732
:1039A000003801402400002000440040004800404E
:1039B000004C004000500040F0B5044600684F49FC
:1039C0004F4F87B040184FF018054FF0030617D03F
:1039D000B0F5806F27D0B0F5784F1ED101210803D4
:1039E000FDF706FD01210520FDF702FDE020ADF801
:1039F00014008DF817508DF8166005A941480AE0AB
:103A000001218803FDF7DCFC01210920FDF7F0FC12
:103A10004FF4604010E0FDF71BF9618CA9B1012063
:103A2000082913D114E00121C803FDF7C9FC0121C5
:103A30000D20FDF7DDFC3820ADF814008DF8166080
:103A40008DF8175005A93846E5E70020012200E06F
:103A500000221040102901D0012200E00022104075
:103A6000182901D0012200E000221040202901D0B5
:103A7000012200E000221040282901D0012200E0AC
:103A800000221040302901D0012200E00022104025
:103A9000382901D0012100E0002108424FF0000147
:103AA00000D06184ADF800104FF48270ADF80200D0
:103AB000ADF804100220ADF806000120ADF80800B2
:103AC0000720ADF81000ADF80E104FF40070ADF8FF
:103AD0000A00608CADF80C0069462068FDF7BEFE58
:103AE00020680188890502D40121FDF7D3FE012158
:103AF0002068FDF7A7FE07B0F0BD000000C8FFBFBB
:103B0000000C0140000801400189406801617047D4
:103B1000018940684161704770B518490878642888
:103B200006D2401C08701648B0F86200C88070BD0C
:103B300014488068124CC00404F1600403D5608806
:103B400040F0010060800D480222A11C801DFCF79E
:103B50002BFB0028EBD0094DA178AD1D01F0010130
:103B6000287800F001008842E1D0FFF71BFDA07823
:103B7000298860F30001298070BD0000000000204A
:103B8000C800002000100140F0B5354D354C95B00F
:103B900095F80D02002688B16079002852D032488D
:103BA00066718068C0044FD50020FFF7F1FC00204B
:103BB000FFF72EFC688840F001004EE054222B49AC
:103BC0006846FCF7C3FA60890127411C6181B0F5A2
:103BD000FA7F36D966812079142820D2401CC0B2E1
:103BE0000A21B0FBF1F2207130328DF82520B0FBB4
:103BF000F1F201FB120030308DF82600002209217D
:103C00006846FEF7D0FC69460320FFF715FC95F8DF
:103C10000E0228B169460220FFF70EFC00E0267173
:103C20000120FFF7B5FC0120FFF796FCE07820B1FA
:103C30000120FFF7EDFBE67003E00020FFF7E8FB53
:103C4000E770677115B0F0BD0120FFF7A1FC0120FE
:103C5000FFF7DEFB688820F001006880F2E70000D3
:103C6000280100200000002000100140803F0008D3
:103C70002DE9F04F8DB088460446FEF769FF0546F2
:103C80004FF48066B8F1000F01D0B04500D9B046BE
:103C900056495748DFF85C91DFF85CA1574F8C42DA
:103CA00002D1A0F8008010E04C4502D1A0F80280BB
:103CB0000BE0544502D1A0F8048006E0BC4202D1DA
:103CC000A0F8068001E04FF000082046FFF72CF82E
:103CD0000B902046FEF7A0FF0C90002D7AD00B9899
:103CE000002877D00C98002874D0E01BBC420ED07E
:103CF00005DC4348201807D0B0420CD104E0B042A4
:103D000068D0B0F56C4F06D10121084601E00121D1
:103D10000220FDF749FB00261020CDE90206802095
:103D2000CDE9046004F1040B069680010A96CDE902
:103D30000860CDE900B5079669460B98FCF790FD41
:103D400001A8CDF800B080E860018020CDE90460D2
:103D50008001CDE908600796069669460A960C9898
:103D6000FCF77EFD00210B98FCF758FD01210C9813
:103D7000FCF754FD012240212046FEF7D6F801222F
:103D800080212046FEF7D1F8002202210B98FCF793
:103D90005FFD164DAC4201D1A0140DE020464C450C
:103DA00002D14FF0807007E00146544501D1102048
:103DB00002E0B94202D11348FCF724FDAC4203D122
:103DC0004FF4803004E005E04C4506D14FF48010FC
:103DD000FCF718FD0DB0BDE8F08F544502D14FF44B
:103DE0008070F5E7BC42F5D10748F1E700380140A3
:103DF000280000200044004000480040004C0040E3
:103E000000BCFFBF00000110000100102DE9F843C5
:103E10000025394ADFF8E4C0811ADFF8E480131581
:103E20002C462F462E464FF4006990424ED019DCA6
:103E3000344940183FD0984226D1334F01213E46A5
:103E40001D464C460846FDF7D3FA01212F48FCF7E2
:103E50004FFF01210820FDF7CBFA01218804FDF76F
:103E6000AFFA11E099423CD0B1F56C4F0CD16746E6
:103E700066464FF400751C4601210520FDF7B8FA8F
:103E800001218803FDF7B4FAADF8005018208DF831
:103E9000030003208DF8020069463846FCF7D8FE7F
:103EA000ADF8004048208DF8030069463046FCF725
:103EB000CFFEBDE8F8836746664604250824012145
:103EC0000520FDF795FA01214804C8E74746464614
:103ED0001D464C4601211120FDF78AFA0121C80434
:103EE000BDE747460A4E1D46042401213120FDF757
:103EF0007FFA01210805B2E7004C004000080140AC
:103F00000010014000BCFFBF000C01400002300067
:103F1000001401407FB50C460546FEF70FF800215E
:103F2000ADF80810ADF804100C20ADF80610ADF88F
:103F30000A00ADF80C10009469462846FEF772F8A6
:103F400040F22444002221462846FEF753F8214639
:103F50002846FDF7DAFF01212846FDF7DCFF7FBD8B
:103F60000204060800000000010203040102030429
:103F7000060708091F1C1F1E1F1E1F1F1E1F1E1FB6
:103F80007E4C09FFFFFF0110BFD8D6C6B0E5CEB406
:103F9000B2A6C2EBB2E2CAD40209746573742DB939
:103FA000E6B8F1030239390409746573742DB1F070
:103FB000C3FB0509746573742DB3A7C9CC060B63E5
:103FC0006F64652D7465737430310702B8F6BD9E59
:103FD0007F000000F43F00080000002048000000BF
:103FE000CE2000083C4000084800002090640000FB
:103FF000DE200008000000000000000000000000BB
:1040000000000000000000000000000000000000B0
:1040100000000000000000000000000000000000A0
:104020000000000000000000000000000000000090
:0C40300000000000000000000000000084
:0400000508000131BD
:00000001FF
