:020000040800F2
:10000000004D002045010008D9110008510E0008DC
:10001000D71100086D060008E91D00080000000067
:100020000000000000000000000000005D17000854
:10003000350A0008000000005B120008651800087F
:10004000FD1D00085912000841190008B5160008E6
:100050002D0C000811150008370A00083F0A000897
:10006000430A0008470A00084B0A0008F108000884
:10007000F5080008F9080008FD0800080109000853
:10008000050900080909000839040008E51D0008F1
:10009000E71D00086F060008710600084F0A0008F7
:1000A00043190008491900084719000845190008B4
:1000B00061190008751900088D190008170F00084C
:1000C000150F00081B0F0008190F0008F316000891
:1000D000F5160008DD1A0008411B0008CD1B0008BA
:1000E0003B0A0008A5150008E31D00089719000841
:1000F0009D1900089B190008991900083B04000885
:10010000610C0008F116000891190008F7160008A4
:10011000111A0008791A00089319000895190008A7
:100120000D0900081109000815090008190900083F
:10013000DFF80CD000F06EF900480047AD2F000842
:10014000004D0020004800473101000840EA01034B
:100150009B0703D009E008C9121F08C0042AFAD27D
:1001600003E011F8013B00F8013B521EF9D2704741
:10017000D2B201E000F8012B491EFBD270470022E9
:10018000F6E710B513460A4604461946FFF7F0FF96
:10019000204610BDCBB203E00178994203D0401C49
:1001A000521EF9D20020704730B5044600200346A5
:1001B00000E05B1C934203D2E05CCD5C401BF8D0B6
:1001C00030BD2DE9F04D81EA030404F0004B21F02D
:1001D000004514464FF0000A23F0004150EA0502A2
:1001E00020D054EA01021DD0C5F30A570246C5F3D8
:1001F0001303C1F31300C1F30A5640F4801543F40E
:100200008013A7EB0608101BD64608F2FD3873EBE7
:10021000050002D308F1010801E092185B41B8F132
:10022000000F03DA00200146BDE8F08D00204FF4F6
:100230008011064684460EE0171B73EB050705D3B5
:10024000121B63EB050306434CEA010C49084FEA15
:10025000300092185B4150EA0107EDD152EA0300E9
:1002600012D082EA040083EA0501084305D0101B7E
:10027000AB4106D20122002306E000224FF00043EA
:1002800002E06FF0010253101AEB06004CEB08512C
:1002900010EB0A0041EB0B01BDE8F04D00F05DB83A
:1002A0000EB540F2334102910021CDE900110A461A
:1002B0000B4600F061F803B000BDC1F30A5210B55F
:1002C000C1F3130140F2FF3341F480119A4201DA85
:1002D000002010BD40F233439A42A2F2334203DCC5
:1002E000524200F02AF810BD904010BD30B5041EF7
:1002F00071F1000404DB4FF00044404264EB010163
:10030000141E73F1000405DB1C464FF000435242FB
:1003100063EB04038B4208BF824230BD202A04DB1A
:10032000203A00FA02F1002070479140C2F1200308
:1003300020FA03F3194390407047202A04DB203A47
:1003400021FA02F00021704721FA02F3D040C2F1F5
:100350002002914008431946704710B5141E73F1EE
:10036000000408DA401C41F1000192185B411A4375
:1003700001D120F0010010BD2DE9F04D92469B46C1
:1003800011B1B1FA81F202E0B0FA80F22032904667
:10039000FFF7C4FF04460F4640EA0A0041EA0B019A
:1003A00053465A46084313D0114653EA010019D068
:1003B000C8F140025046FFF7C0FF05460E465046C2
:1003C00059464246FFF7AAFF084305D0012004E042
:1003D00020463946BDE8F08D0020054346EAE07628
:1003E0002C4337430A986305E40AA0EB0800002277
:1003F000FD0A44EA47540A3002D500200146E9E7E5
:10040000010510196941DDE9084500196941BDE898
:10041000F04DA2E7064C074D06E0E06840F001030E
:1004200094E8070098471034AC42F6D3FFF784FEF7
:10043000BC440008DC4400087047704710B501F068
:100440008EF900F007FD0121044800F07BFCBDE8B7
:1004500010404FF47A7001F007BA00000008014024
:1004600010B500F05BFD1F490024C888421CCA80FB
:10047000B0F57A7F04D9CC8001211B4801F09CFEA5
:1004800003F0ACFC03F028FA01F090FA00F044FE0F
:100490001648174902784AB190F82600820707D516
:1004A000C00703D00120C1F8BC0101E0C1F8BC4184
:1004B00001F09CF903F056FC00F060F900F02CF814
:1004C00000F078FD02F078FD02F0D0FD01F09EFF13
:1004D00001F0FAFF02F0B8FC02F0F6FCBDE81040B3
:1004E00000F0FCB800000020000801400C010020D2
:1004F0000080214210B503004FF00002104601D0E9
:10050000012905D8002010BD9C5C6040521C92B2AD
:100510008A42F9D310BD00002DE9F047514C5248F2
:10052000234621785B6B00254FF4FA72F9B121461E
:1005300094F826C091F830705FEA8C7840F2E73981
:100540004FF4FA66C7F3810134D55FEACC7222D04A
:10055000032909D04A46022101F086FE94F83000B2
:1005600040F00C0084F830006663BDE8F0875B1C47
:100570006363934202D14FF4617204E0B3F57A7F72
:1005800004D364226563022101F06EFE14F8300F7B
:1005900020F00C0057E00229E7D04FF496720221B8
:1005A00001F062FE14F8300F20F00C0008302070CB
:1005B0006560DAE707F00308B8F1010F09D0B8F178
:1005C000020F15D0FD43AD071DD053B35B1E63630F
:1005D00037E001290AD00122022101F045FE94F8FA
:1005E000300020F00C00001D84F83000656328E026
:1005F000022914D0022101F037FE94F8300020F0D7
:100600000C00083009E0032909D04A46022101F014
:100610002BFE94F8300040F00C0084F83000666344
:100620000FE05FEACC7312D001290AD064220221C4
:1006300001F01AFE94F8300020F00C00001D84F840
:10064000300014F8300F20F0030020708DE70229ED
:10065000F7D0022101F008FE94F8300020F00C00E1
:100660000830ECE70C01002000040040FEE7704772
:100670007047FCB504464FF6FF7700200D46ADF8F5
:10068000007048F205068DF804001EE014F8010B16
:100690008DF8040001A9084600F061FCBDF80000D7
:1006A0009DF8041080EA0120ADF800000020BDF89C
:1006B00000100A0402D586EA410101E007EA41017F
:1006C000401CADF800100828F1DB6D1EDED2694633
:1006D000084600F02DFCBDF80000FCBD30B5C5B0EB
:1006E0000024419442944394449401F079FD41A83C
:1006F00001F030FDC0B204283BD17E208DF800000F
:1007000008208DF801009DF802001B4D20F03F00ED
:10071000001D20F0400040F080008DF80200287895
:100720008DF803008DF804408DF805409DF8040114
:100730008DF806009DF805018DF807009DF806016B
:100740008DF808009DF807018DF8090001220421A9
:10075000684601F0F7FD6878694608B1012000E0BD
:10076000022002F069FF287C40F040002874282015
:10077000E88345B030BD00000C010020354910B5BC
:10078000888C421C8A84642863D90020888491F86C
:10079000222092B181F82200FF242E48243803F051
:1007A000DDFA2C4821462438006800F0AFFF2948C4
:1007B000BDE81040243803F0CDBA012281F8222090
:1007C0008873C88B10B1401EC88301E04020887335
:1007D000088C10B1401E088403E0887B40F0800044
:1007E0008873488B10B1401E488303E0887B40F03B
:1007F00010008873888B10B1401E888303E0887BCB
:1008000040F020008873C88A10B1401EC88203E0FF
:10081000887B40F004008873088B10B1401E088369
:1008200003E0887B40F008008873488A10B1401EBE
:10083000488203E0887B40F001008873888A10B109
:10084000401E888203E0887B40F0020088738C7B26
:10085000A3E710BD0C010020F0B54FF480764FF4F3
:100860009647A9B0324639461A4801F095FD1A4814
:1008700000908020ADF81800184CADF808007810F2
:1008800007900394ADF8106005940194684601F058
:1008900097FC1448144D1249C56001608914018207
:1008A000491045610183456001813246394601F0B6
:1008B000F2FC0C480D491C303246C56001600682CE
:1008C00049154461018344600181394601F0E3FC2C
:1008D00029B0F0BD00440040004800400010014035
:1008E000004C00402C00002000080140003801406E
:1008F00000F060B800F05EB800F05CB800F05AB8E4
:1009000000F058B800F056B800F054B800F052B8F3
:1009100000F050B800F04EB800F04CB8C10002D55D
:100920000249086070470249486070470404024069
:10093000000002400029016802D041F0010101E0FD
:1009400021F001010160704702460020D10001D56D
:10095000034900E003490968114200D001207047B3
:100960000004024000000240002A026801D00A434D
:1009700000E08A430260704730B5026847F6F073C2
:100980009A430C6A8B682343D1E904452C432343E3
:100990008C692343CC6923434C6A23438C6A2343E9
:1009A00013430360CA6842600A6882604968C16094
:1009B00030BD000010B501F01AFA1020FFF7C4FF97
:1009C00001281BD04FF480542046FFF7BDFF0128BB
:1009D0001AD024032046FFF7B7FF01281BD0124C82
:1009E0002046FFF7B1FF01281CD12046FFF796FFF4
:1009F0000E480021BDE81040FFF79CBF1020FFF714
:100A00008DFF00210A48F5E72046FFF787FF0848D9
:100A100000212830EEE72046FFF780FF0448002140
:100A20006430E7E710BD00000000011058040240E8
:100A30001C000240704700F0B1B800F0AFB800F001
:100A4000ADB800F0ABB800F0A9B800F0A7B800F05E
:100A5000A5B8000001490860704700001404014077
:100A600010B5012000F08AF8434C18B1208840F0FE
:100A7000010006E0022000F081F820B1208840F05B
:100A80000200208010BD042000F078F818B1208802
:100A900040F00400F5E7082000F070F818B1208855
:100AA00040F00800EDE7102000F068F818B1208849
:100AB00040F01000E5E7202000F060F818B1208831
:100AC00040F02000DDE7402000F058F818B1208801
:100AD00040F04000D5E7802000F050F818B12088A1
:100AE00040F08000CDE74FF4807000F047F818B177
:100AF000208840F48070C4E74FF4007000F03EF8A6
:100B000018B1208840F40070BBE74FF4806000F01B
:100B100035F818B1208840F48060B2E74FF40060E7
:100B200000F02CF818B1208840F40060A9E74FF4D9
:100B3000805000F023F818B1208840F48050A0E7DE
:100B40004FF4005000F01AF818B1208840F400501B
:100B500097E74FF4804000F011F818B1208840F476
:100B600080408EE74FF4004000F008F8002889D05C
:100B7000208840F4004084E71C000020064A01461B
:100B800000201268044B0A4014331B680B4202D049
:100B9000002A00D0012070470004014008B5002061
:100BA000ADF80000FFF75CFF01F021F91E48BDF829
:100BB000001001800120FFF74DFF0220FFF74AFFE0
:100BC0000420FFF747FF0820FFF744FF1020FFF73E
:100BD00041FF2020FFF73EFF4020FFF73BFF802032
:100BE000FFF738FF4FF48070FFF734FF4FF40070C9
:100BF000FFF730FF4FF48060FFF72CFF4FF40060E9
:100C0000FFF728FF4FF48050FFF724FF4FF4005008
:100C1000FFF720FF4FF48040FFF71CFFBDE80840BE
:100C20004FF40040FFF716BF1C0000207047000083
:100C300004490A6822F010020A600A6802430A6046
:100C4000704700000020024004490A6802F03802A0
:100C50000A600A6802430A607047000000200240F0
:100C60007047000070B50C46002852D0294A811AFE
:100C70001315D614904243D014DC2749274D411850
:100C80004FF6FF701BD0994227D0B14241D10121CC
:100C9000102000F007FB600401D4200439D50121A5
:100CA000112008E099422ED0B1422FD0B1F5406F0B
:100CB0002FD101210802BDE8704000F0F3BAA10471
:100CC00005D4610403D4210401D4844202D101215A
:100CD00005200AE001210420EDE7210703D4E10605
:100CE00001D4844209D10121092000F0DBFA284611
:100CF000BDE87040012100F087B801210820DAE743
:100D000001212020D7E701214020D4E701218020C4
:100D1000D1E770BD0014014000F8FEBF00023000B2
:100D200038B50446ADF8001002228DF802204820A4
:100D30008DF803002046FFF795FF6946204600F036
:100D400013F838BD38B50446ADF8001003228DF80D
:100D5000022010208DF803002046FFF783FF69462C
:100D6000204600F001F838BDF0B50022002849D037
:100D7000CC7804F00F03E40601D58C7823430C787B
:100D80004FF00F0C14F0FF0F4FF0010E1AD0056852
:100D90000E880EFA02F42640A6420FD196000CFAF5
:100DA00006F725EA070703FA06F5CE783D43282E15
:100DB00000D14461CE78482E00D10461521C082A2B
:100DC000E6D305600A88FF2A1CD94468002202F194
:100DD00008060EFA06F50E882E40AE420ED1960099
:100DE0000CFA06F7BC4303FA06F7CE783C43282EEC
:100DF00000D14561CE78482E00D10561521C082AE9
:100E0000E5D34460F0BD0000F0B5104D6B68440DB3
:100E1000260184B2C0F30157B440C0F30342032F4C
:100E200005D0C0020AD503209040834307E06868DC
:100E300023F0706220F07060686002E0A34343F02A
:100E4000706201B122436A60F0BD00000000014001
:100E5000FEE700002DE9F843274D01212846FFF762
:100E600071FF4FF4804841462846FFF76BFF234946
:100E7000234E4FF4FA7411F8300F002240F00300B3
:100E80000870087A334640F00300087201211D48BB
:100E9000009401F0D0F90022334602211A48009450
:100EA00001F0B0F904212846FFF74CFF0221284643
:100EB000FFF748FF154FA9143846FFF731FF144ECE
:100EC0000024C6F884414FF40041284606F5C27656
:100ED000FFF738FF41463846FFF722FF69143846CE
:100EE000FFF71EFFB46300F03DFC00F0FBF8BDE827
:100EF000F843FFF7B1BC0000000C01400C010020DA
:100F000000408F40002C01400004004000100140D0
:100F1000008021427047704770477047AFF30080F0
:100F200002494AF6AA2008607047000000300040DD
:100F300070B500220C8862F30F03012606FA02F551
:100F40002C4207D0C2F10F0506FA05F143EA01056C
:100F500065F30F03521C102AF0DB038070BD70B5DF
:100F600000220C7862F30703012606FA02F52C42F0
:100F700007D0C2F1070506FA05F143EA010565F35A
:100F80000703521C082AF0DB037070BD81070CD1E7
:100F90006421B0FBF1F201FB120141B94FF4C871B9
:100FA000B0FBF1F201FB120008B1002070470120F4
:100FB000704700002DE9F047484C49482346217806
:100FC000DB6B00254FF4FA794FF46172E1B12146F1
:100FD00094F826C091F838705FEA8C784FF4FA667E
:100FE000C7F3810130D55FEACC731FD0032908D045
:100FF000012101F039F994F8380040F00C0084F830
:101000003800E663BDE8F0875B1CE3634B4501D124
:10101000642203E0B3F57A7F03D3E563012101F095
:1010200023F914F8380F20F00C0053E00129E9D01F
:101030000022012101F018F914F8380F20F00C00FB
:10104000001D20706560DDE707F0030CBCF1010FA7
:1010500009D0BCF1020F15D0FD43AD071ED053B32C
:101060005B1EE36334E001290AD06422012101F010
:10107000FBF894F8380020F00C00001D84F83800CC
:10108000E56325E0022914D04A46012101F0ECF87D
:1010900094F8380020F00C00083008E0032908D04C
:1010A000012101F0E1F894F8380040F00C0084F8D8
:1010B0003800E6630CE001290AD00022012101F08A
:1010C000D3F894F8380020F00C00001D84F83800A4
:1010D00014F8380F20F00300207093E70C01002073
:1010E000002C01400A480949102201600949416069
:1010F00002812022C1600282402241610283C161DB
:10110000802101842821418401F03AB90030014056
:10111000E80000200008014070B5284C002520465A
:101120002678274A2749008D012356B1E0B140F2C5
:101130006C75A84202D2D2F830218AB1C1F884314C
:1011400070BDD2F8302122B1C1F884314FF4FA6079
:1011500001E010B1401E208570BDC1F8845170BD02
:10116000C828FCD9C720F6E7C1F88451D2F830214D
:10117000124890F8261021F002004FEAC1717AB1AE
:1011800041B9002002F0FAFA02F000FB94F82600C0
:1011900040F0020084F82600C0B240F001000AE0EE
:1011A00029B102F0F3FA94F8260040F0020084F826
:1011B000260000F0FE0084F8260070BD0C0100201F
:1011C000000022420080214210B5FFF7A7FEBDE8D3
:1011D000104000F005BEFEE77047000070B50F2517
:1011E000C2780178012652B31A4A1268447802F490
:1011F000E062C2F5E062120AC2F10403D5408278CF
:101200009C402A40224314018A07D30E21F0030296
:1012100002F1E0229C40D2F80054FF2199408D4316
:101220000C402543C2F80054007800F01F018E40A6
:101230004009800000F1E020C0F8006170BD01F0BD
:101240001F0086404809800000F1E020C0F880615E
:1012500070BD00000CED00E070477047044A0029A3
:10126000516901D0014300E08143516170470000A2
:1012700000100240044A0029D16901D0014300E076
:101280008143D1617047000000100240044A0029E8
:10129000116901D0014300E08143116170470000F2
:1012A00000100240044A0029916901D0014300E086
:1012B000814391617047000000100240044A0029F8
:1012C000D16801D0014300E08143D1607047000044
:1012D0000010024070B5002400F068F84FF480352B
:1012E000284600F0F5F8681E2146641C8142FBD3B5
:1012F00000F03EF9012803D0BDE8704000F025B8A9
:101300001020FFF795FC0220FFF79EFC002000F064
:10131000D5F8002000F008F94FF4806000F0FAF8EA
:101320004FF4E011284600F00FF9012000F006F913
:10133000392000F0A3F80028FAD0022000F00EF9BE
:1013400000F0B4F80828FBD170BD10B500F02EF8FD
:10135000012000F0D7F8202000F090F80028FAD003
:10136000002000F0ABF8002000F0DEF84FF48060C1
:1013700000F0D0F80220FFF767FC1020FFF758FCC0
:101380004FF46011002000F0DFF8012000F0D6F8E3
:1013900002E0022000F0E2F8392000F06FF80028A7
:1013A000F7D000F083F80828FBD110BD0B48016886
:1013B00041F0010101604168094A11404160016842
:1013C000084A11400160016821F4802101604168F0
:1013D00021F4FE014160002181607047001002404D
:1013E0000000FFF8FFFFF6FE30B5204A5168204BA1
:1013F00011F00C0103D0042901D0082901D00360A9
:1014000011E05168022301F4701103EB914153681C
:1014100013F4803F02D053689B0301D5154B00E0C5
:10142000134B5943016051680F2303EA1111124B0A
:101430005C5C0168E14041605468072505EA1424BA
:101440001C5D21FA04F48460546805EAD4241B5D11
:10145000D940C1605268032303EA9232064B1B1F36
:101460009A5CB1FBF2F1016130BD00000010024056
:1014700000127A0000093D004C4400080346002099
:101480005909094A01290AD002290AD0516A03F0F0
:101490001F02012393400B4200D0012070471168C6
:1014A000F5E7116AF3E700000010024002484068C7
:1014B00000F00C007047000000100240034A516821
:1014C00021F0F0010143516070470000001002401C
:1014D0000B490A6822F480320A600A6822F48022EA
:1014E0000A60B0F5803F07D0B0F5802F03D10868BF
:1014F00040F4A02008607047086840F48030F9E7A5
:10150000001002400149086070470000000042429C
:1015100070470000034A516821F4E06101435160C3
:101520007047000000100240034A516821F46051E6
:1015300041EAC0005060704700100240014908664F
:101540007047000000004242034B5A68084322F4EF
:101550007C1210435860704700100240034A5168E3
:1015600021F0030101435160704700000010024068
:1015700030B50B4C40F2FF153120FFF77FFF207094
:101580006068401C6060207810B96068A842F3D1A0
:101590003120FFF773FF002800D0012030BD00008C
:1015A000140000207047000002490A8882430A8024
:1015B00070470000042800402DE9F04700F060F873
:1015C000DFF8AC800546B0FBF8F32A482A4E0188C4
:1015D00099422CD0038040F2B2744FF4B7774FF4A5
:1015E000B6790CE02046FFF7D1FC20B1BB4208D30E
:1015F000A3F5B77301E0A3F26D13641CA4B24B45CD
:10160000F0D8B48000241D4F0BE0B088FFF7BEFC7B
:1016100008B1012C28D0385D984204D81B1A641CEC
:10162000A4B21C2BF1D2641CB4715B1CF371B5FB2A
:10163000F8F108FB11504FF46161B0FBF1F2327028
:10164000B0FBF1F201FB12033C22B3FBF2F3737027
:10165000B0FBF1F301FB1300B0FBF2F102FB110050
:10166000B0700020BDE8F0871D2BDCD31D3BD6E712
:10167000805101001E000020F43D00205C44000861
:10168000034800880249091F098840EA0140704761
:101690001C28004006490988C2B21140044A121FA2
:1016A0001288024202D009B1012070470020704721
:1016B0000428004010B50120FFF7ECFF08B1FFF748
:1016C0007BFF0220FFF7E6FF10B10220FFF76CFF5F
:1016D0000520FFF769FFBDE8104000F001B80000E9
:1016E000024801888906FCD57047000004280040A4
:1016F00070477047704770470029018802D041F059
:10170000400101E021F04001018070478181704774
:1017100030B502884C8802F441530A88CD882243B0
:101720008C882C4322430C8922434C8922438C8988
:101730002243CC8922431A430280828B22F4006226
:101740008283098A018230BD0029818802D041F05C
:10175000040101E021F00401818070477047FFF728
:10176000B9BD000070B51E4808221E4980F87E20D1
:101770004B15016083808B1581608381802301611B
:101780008382402381618383202301628384102329
:101790008162838501638286134981630421818785
:1017A00000F03CFB0E4800F0CAFB0D4C00F03F007F
:1017B000A83420700A4800F0C2FB00064FF0010573
:1017C0004FF0000601D5657000E06670044800F037
:1017D000B6FB400601D5A57070BDA67070BD0000B7
:1017E00064000020000C0140001401402DE9F0418C
:1017F0001A4CE088002825D1194E4FF4FA60E08099
:10180000B0780127002570B1A4F1A80000F097FB83
:101810007178C0B2814215D000F03F0121700106FD
:1018200014D5677013E00D48B770A83800F087FB37
:10183000C0B27070010601D5677000E065704006A7
:1018400002D5A770BDE8F081A570FBE76570410681
:1018500001D5A77000E0A5707070F3E70C010020BF
:101860000000002000F06AB810B504002BD0164824
:10187000FFF7BAFD4FF0E021086920F0020008618F
:10188000086920F001000861086920F0040008617F
:101890000D480E4A0068B0FBF2F0604348610869E9
:1018A00040F002000861086940F001000861002072
:1018B0008861086940F0020008614A6904480260D2
:1018C000096989B2416010BD003E002000127A0013
:1018D0002000002010B504002BD01648FFF784FD2F
:1018E0004FF0E020016921F002010161016921F05E
:1018F00001010161016921F0040101610D494FF409
:10190000FA520968B1FBF2F14161016941F001014C
:1019100001610022826181690029FCD0816900296E
:10192000FCD1641EF7D104490B68436182614968A8
:10193000016110BD003E00202000002000F057BAD9
:10194000704770477047704710B500F02CF8BDE83D
:1019500010400121014800F023B80000002C014094
:1019600010B500F044FA0121BDE81040880700F0EE
:1019700017B8000010B500F016F8BDE810400121BE
:10198000014800F00DB800000004004000F00BB862
:1019900070477047704770477047704700F003B852
:1019A000C9430182704700F022BA0000154AB2F81C
:1019B000400010B1401EA2F840001349B1F878046D
:1019C00010B1401EA1F878041049B1F8B00810B168
:1019D000401EA1F8B008508908B1401E5081108DFA
:1019E00008B1401E1085D08808B1401ED0801089F3
:1019F00008B1401E10819089002801D0401E9081BE
:101A0000704700000C0100200C1100200C21002068
:101A100070B5184D40F226663146284600F063F94D
:101A2000C0B1284601F0E2F858B1284600F0DCFECB
:101A3000040006D0002101F017FF0121204601F02B
:101A400003FF284600F046FE31462846BDE87040B8
:101A500000F0F3B840F22441284600F044F9002891
:101A600007D02C46284601F0CBFF20880148001DF6
:101A7000008870BD004C004070B5174D40F22666DE
:101A80003146284600F02FF9C0B1284601F0AEF8E3
:101A900058B1284600F0A8FE040006D0002101F04D
:101AA000E3FE0121204601F0CFFE284600F012FEA1
:101AB00031462846BDE8704000F0BFB840F22441EE
:101AC0002C46284600F00FF9002804D0204601F0EB
:101AD00097FF2088A08870BD0050004070B5174D5A
:101AE00040F226663146284600F0FDF8B0B128469F
:101AF00001F07CF858B1284600F076FE040006D0CC
:101B0000002101F0B1FE0121204601F09DFE284692
:101B100000F0E0FD3146284600F08FF840F2244105
:101B2000284600F0E0F8002807D02C46284601F0AF
:101B300067FF20880148001D008870BD0038014003
:101B400070B5204C40F226663146204600F0CBF8B6
:101B5000C8B12546204601F049F858B1284600F0A2
:101B600043FE040006D0002101F07EFE0121204644
:101B700001F06AFE284600F0ADFD31462846BDE87A
:101B8000704000F05AB840F22441204600F0ABF813
:101B900038B1204601F034FF20880A48001D008833
:101BA00070BD40F22551204600F09DF80028F7D086
:101BB00005480168491C01602046BDE8704001F0FD
:101BC0001FBF0000004400402800002070B5184DE1
:101BD00040F226663146284600F085F8C0B1284616
:101BE00001F004F858B1284600F0FEFD040006D0CC
:101BF000002101F039FE0121204601F025FE284692
:101C000000F068FD31462846BDE8704000F015B888
:101C100040F22441284600F066F8002807D02C4600
:101C2000284601F0EDFE20880148001D008870BDA7
:101C300000480040C943018070470A0A01219140D1
:101C4000C943018070470029818902D041F40051C5
:101C500001E021F4005181817047002A828A01D07D
:101C60000A4300E08A43828270470000184A10B598
:101C7000811A131590421BD007DC1649401814D066
:101C8000984223D10121040217E0994213D0B1F503
:101C90006C4F1BD101218C032046FFF70FFB204620
:101CA000BDE810400021FFF709BB01214C0404E00E
:101CB0000121CC0401E001210C052046FFF7E6FAE2
:101CC0002046BDE810400021FFF7E0BA10BD00003B
:101CD000004C004000BCFFBF0246002012880A42B0
:101CE00000D00120704770B501F01F0501260024C7
:101CF000C1F3421306FA05F2012B0FD0022B0FD0CD
:101D0000838A4FEA11210088134206FA01F600EA9D
:101D1000060001D000B10124204670BD8389F0E7A0
:101D2000038AEEE710B5C1F3421301F01F0401214D
:101D3000A140012B07D0022B07D01430002A0268E3
:101D400005D00A4304E00C30F8E71030F6E78A4388
:101D5000026010BD30B50446008A85B00D464CF6D1
:101D6000FF710840E98801432182A0894EF6F311F2
:101D70000840A9882A8911436A8902431143A18135
:101D8000A08A4FF6FF410840A9890143A182684615
:101D9000FFF72AFB1148844201D1039800E0029822
:101DA000642200EBC00101EB001029686FF01805F8
:101DB0008900B0FBF1F0B0FBF2F109010B096B43B4
:101DC00000EB8300322303EB0010B0FBF2F000F0D5
:101DD0000F000843208105B030BD000000380140ED
:101DE0007047704770477047FEE7FEF727BB10B596
:101DF000FFF7EAF9BDE81040FEF732BB704702E09A
:101E000008C8121F08C1002AFAD170477047002085
:101E100001E001C1121F002AFBD1704770B590F894
:101E20007E500446002D7CD0A1882068FEF778FF04
:101E30006D1E15F0FF057DD0A189A068FEF770FF2B
:101E40006D1E15F0FF0575D0A18A2069FEF768FFA9
:101E50006D1E15F0FF056DD0A18BA069FEF760FF28
:101E60006D1E15F0FF0565D0A18C206AFEF758FFA6
:101E70006D1E15F0FF055DD0A18DA06AFEF750FF25
:101E80006D1E15F0FF0555D0A18E206BFEF748FFA3
:101E90006D1E15F0FF054DD0A18FA06BFEF740FF22
:101EA0006D1E15F0FF0545D0B4F84410206CFEF708
:101EB00037FF6D1E15F0FF053CD0B4F84C10A06C38
:101EC000FEF72EFF6D1E15F0FF0533D0B4F8541049
:101ED000206DFEF725FF6D1E15F0FF052AD0B4F822
:101EE0005C10A06DFEF71CFF6D1E15F0FF0521D0E4
:101EF000B4F86410206EFEF713FF6D1E15F0FF0599
:101F000018D0B4F86C10A06EFEF70AFF6D1E15F025
:101F1000FF050FD0B4F87410206FFEF701FF6D1E9F
:101F200000E007E015F0FF0F04D0B4F87C10A06FBC
:101F3000FEF7F6FE2046BDE87040AFF3008070B5B6
:101F400090F87E204FF6FF7404FA02F300219BB252
:101F5000002A7ED00568521ED2B2AD68868835420E
:101F600000D00121002AF4D08568521ED2B2AD689B
:101F700004EA41018689354201D041F00101002A7D
:101F800067D00569521ED2B2AD6804EA4101868A63
:101F9000354201D041F00101002A5AD08569521E14
:101FA000D2B2AD6804EA4101868B354201D041F0DE
:101FB0000101002A4DD0056A521ED2B2AD6804EA72
:101FC0004101868C354201D041F00101002A40D008
:101FD000856A521ED2B2AD6804EA4101868D35424F
:101FE00001D041F00101002A7ED0056B521ED2B211
:101FF000AD6804EA4101868E354201D041F001010D
:102000003AB3856B521ED2B2AD6804EA4101868FA5
:10201000354201D041F00101DAB1056C521ED2B255
:10202000AD6804EA4101B0F84460354201D041F0A6
:10203000010172B1856C521ED2B2AD6804EA410151
:10204000B0F84C60354201D041F001010AB1521E96
:1020500000E049E0056DD2B204EA4101AD68B0F894
:102060005460354201D041F00101EAB3856D521E42
:10207000D2B2AD6804EA4101B0F85C60354201D0EB
:1020800041F0010182B3056E521ED2B2AD6804EA7E
:102090004101B0F86460354201D041F001011AB34A
:1020A000856E521ED2B2AD6804EA4101B0F86C6090
:1020B000354201D041F00101B2B1056F521ED2B2DA
:1020C000AD6804EA4101B0F87460354201D041F0D6
:1020D00001014AB1826F04EA41019268B0F87C4084
:1020E000224201D041F001011943C94389B2A0F84D
:1020F0008010084670BD2DE9F0410D46B0F1000892
:1021000011D0072D0FD32A467E21FEF743F8041E77
:102110000AD0A4EB0800281A85B2072D03D36178F2
:10212000481DA84202D90020BDE8F081601C491C6E
:102130004218475C5678FEF79CFAC1B2B94204D106
:10214000B6EB102F01D12046EEE7601C6D1EADB23C
:10215000D9E7000070B50021164C05460A46601804
:1021600090F8200008B1521CD2B2491CC9B204290F
:10217000F5D3EAB10F4904222431081FFEF714F801
:102180000C490023103928B1086B2860086BC1E99D
:102190000C3009E0B4F89800421CA4F89820B0F57F
:1021A000FA6F05D9086B2860A4F89830042070BD38
:1021B000002070BD60480020C2684A40C26070477D
:1021C00010B50146A0220548FDF7C0FF03480021D5
:1021D00080F88D10C0F89C1010BD000060480020F1
:1021E000074810B50068002809D000F08DFD00F008
:1021F00029FD00F0E5FDBDE8104000F0B7BD10BDC1
:10220000604800202DE9F04117461E460D468046E5
:10221000069C01F0EDFE2946404600F071FF3A466B
:102220003346404601F03EFE224629464046BDE880
:10223000F04101F0C7B82DE9F04117461E460D46A2
:102240008046069C01F0D4FE2946404601F060F825
:102250003A463346404601F025FE2246294640468E
:10226000BDE8F04101F029B9838D5B1C53434FF465
:102270007A72B3FBF2F241B1012908D0022908D0E9
:10228000032901D1A0F84020704782867047028759
:1022900070478287704770B50E4604461546006841
:1022A000012101F073FC204601F0A6FA606810B12C
:1022B0002189FEF747FDE06810B1218AFEF742FD53
:1022C000606910B1218BFEF73DFD0021204601F031
:1022D000CBFA0121204601F0B7FA2A4631462068A0
:1022E000BDE8704000F058B870B504680D4620464F
:1022F00000F058FB002805D029462046BDE8704074
:1023000000F0EEBA70BD2DE9F041044615460E46C8
:102310000027006800F0F2FB88B1206800F042FB63
:1023200068B10121204601F09FFA0021204601F00A
:102330008BFA2A463146206801F0A2FB0746384650
:10234000BDE8F08170B50B468178447863F30501F0
:10235000461C21F04001651C817012B141F08001E2
:1023600001E021F08001817029463046FEF781F9B5
:102370007055010A701941707F218170601D70BD18
:1023800010B5044601F03EFC21896068FEF7DAFCD6
:1023900061682089086110BD70B516460C46054677
:1023A00002F024F8284601F041FF2146284601F0BA
:1023B000A9FF3146284601F065FE2846BDE8704079
:1023C00001F0BCBF70B50E460546002400F0EAFAE5
:1023D00038B13146284600F083FA0446284600F01A
:1023E0003DF9204670BD70B515460E46044600F016
:1023F00085FB002809D12A463146204601F040FBE2
:10240000002802D0204601F085FB70BD70B5C0B039
:1024100069462B48FFF768FF01001DD06846FFF7AB
:102420006AFE040018D0264DC435287C40F0040014
:1024300028742820E882A07800F03F01C60901290D
:102440000CD026B36878002806D02146012001F080
:10245000F3F8022001F0AEF840B070BD022000F0A9
:1024600075F90028F8D0002116486B7802220EB1C9
:1024700013B9F1E7002BEFD180F87B14A0F8782492
:10248000022000F0D7F8022000F0B8F8E4E7E07886
:10249000FF280DD029788142DED12146032001F0AA
:1024A000CBF8204600F07CF8022001F0A1F8D3E739
:1024B0002146032001F0C0F8204600F071F8CBE778
:1024C000480000200C1100202DE9F041324CB4F8F6
:1024D0007804002814D194F88604002690B104F200
:1024E0007C410A22A1F5AA50FFF70DFF002807D072
:1024F00084F88664022000F081F80A20A4F87804A9
:10250000BDE8F08194F87B04244F052810D3022005
:1025100000F052F960B1811C84F87B64787808B1CE
:10252000012000E0022001F0DCF8022000F082F837
:10253000022000F041F905001ED018486A78A91C55
:10254000C438FFF7E0FE0028DAD094F87B04642159
:10255000401CC0B284F87B04A4F87814397C41F0A4
:1025600008013974282139836979FF2907D0BDE82A
:10257000F041022001F002B884F87B64C0E7022831
:10258000BED384F87B64022000F054F8BDE8F0412B
:10259000022000F033B800000C1100200C010020D4
:1025A00070B5002827D08178857901F03F04C17883
:1025B000FF2903D01048007888421CD10A2C01D092
:1025C000092C02D1012001F0D9F8022C03D00B2CE8
:1025D00001D0052C02D1284601F0D0F8032C05D0FB
:1025E000062C08D1BDE8704001F0D0B82846BDE8FF
:1025F000704001F0B1B870BD0C010020002809D076
:102600000021012807D0022809D0032802D106485A
:1026100080F8B2187047054880F8421070470448A7
:1026200080F87A14704700000C2100200C01002073
:102630000C11002010B5002400F0A4F800280CD0E4
:1026400004EBC41210F8121011B1491E00F8121058
:10265000641CA4B2142CF3D3012010BD1A4B10B586
:10266000C21A1C15194998421FD00BDC184A801851
:1026700014D0A04205D191F81E0620F0060081F882
:102680001E0610BDA24217D0B2F56C4FF9D191F8D9
:10269000060220F0060081F8060210BD91F812042F
:1026A00020F0060081F8120410BD91F82A0820F0ED
:1026B000060081F82A0810BD91F8360A20F00600BD
:1026C00081F8360A10BD0000004C0040143E002086
:1026D00000BCFFBF1A4B10B5C21A1C15194998420D
:1026E0001FD00BDC184A801814D0A04205D191F8F5
:1026F0001E0620F0010081F81E0610BDA24217D070
:10270000B2F56C4FF9D191F8060220F0010081F882
:10271000060210BD91F8120420F0010081F81204A5
:1027200010BD91F82A0820F0010081F82A0810BD98
:1027300091F8360A20F0010081F8360A10BD000039
:10274000004C0040143E002000BCFFBF002806D013
:10275000012805D0022807D0032809D0002070479F
:10276000054890F842007047044890F87A04704792
:10277000034890F8B20870470C0100200C110020AB
:102780000C210020002806D0012805D0022805D001
:10279000032808D00020704706487047054841F2DA
:1027A00087414F3803E0034842F6BF014F380844E1
:1027B000704700005B01002010B50024FFF7E2FF26
:1027C00000280AD004EBC41110F81110012905D01B
:1027D000641CA4B2142CF5D3002010BD04EBC4116A
:1027E00000EB410010BD000030B5104C104A031B37
:1027F0002515A04213D007DC0E4BC1180CD0A942FE
:1028000001D1D2F8200630BDAB420BD0B3F56C4FEE
:10281000F9D1D2F8080230BDD2F8140430BDD2F894
:102820002C0830BDD2F8380A30BD0000004C004002
:10283000143E002000BCFFBF30B5104C0146002004
:102840000B1B25150E4AA14212D007DC0D4BC918EF
:102850000BD0A94201D1B2F8180430BDAB420AD066
:10286000B3F56C4FF9D1108830BDB2F80C0230BD11
:10287000B2F8240630BDB2F8300830BD004C00403C
:10288000143E002000BCFFBF0E4B10B501460020D7
:10289000CA1A1C15994210D006DC0B4A89180AD0B6
:1028A000A14200D1094810BDA24208D0B2F56C4F38
:1028B000F9D1074810BD074810BD074810BD0748AB
:1028C00010BD0000004C004000BCFFBF30420020A3
:1028D000183E0020244000203C44002048460020B0
:1028E0002DE9F04789461C490746884232D0002826
:1028F0002ED0FFF7C9FF80463846FFF79DFF0546FB
:10290000384600F02BF80446406880B2A84221D82F
:10291000281A0604360C1DD0206820F00100206023
:10292000324641464846FDF711FCC4F80C8065600C
:10293000206840F0010020604FF6EF7038800021E1
:10294000384600F0A1FF2946384601F033F83046FA
:10295000BDE8F0870020FBE7005000400B498842AB
:1029600001D10B4870470B49884202D10848143006
:1029700070470949884202D10548283870470749FD
:10298000884201D106487047002070470038014056
:10299000580002400044004000480040004C004005
:1029A000300402402DE9F04706460024FFF744FFBB
:1029B00080463046FFF7D2FF01463C48DFF8E8C0CA
:1029C00032183B48A6EB0C074FF480634FF46C4978
:1029D000664513D005DC5AB19A4215D190F81E46CF
:1029E00008E09F420DD04F450ED190F8064201E01D
:1029F00090F81244C4F3410434B152E090F82A48EC
:102A0000F8E790F8364AF5E749680D042D0C3ED0FA
:102A100045453CD045D24FF00008664510D005DC56
:102A20005AB19A4211D1B0F81A840EE09F420AD0EE
:102A30004F450AD1B0F8028007E0B0F80E8204E0FA
:102A4000B0F8268601E0B0F832880021664510D043
:102A500005DC5AB19A4211D190F81D160EE09F4242
:102A60000AD04F450AD190F8051207E090F81114EA
:102A700004E090F8291801E090F8351A454508D18E
:102A8000022904D83046491C00F0FEFE09E001246A
:102A900007E00021304600F0F7FE2946304600F0FE
:102AA00089FF2046BDE8F087004C004000BCFFBF16
:102AB000143E00200B49884201D10B4870470B4956
:102AC000884202D108483C3070470949884202D107
:102AD0000548283870470749884201D106487047A1
:102AE000002070470038014044000240004400408C
:102AF00000480040004C0040580402402DE9F05FBF
:102B000007463749374A0024401A3A44364E25468C
:102B1000834691464FF4806A8F4212D006DC100043
:102B20000CD0524512D196F81C560FE050450BD0F0
:102B3000BBF56C4F0AD196F8045207E096F8105492
:102B400004E096F8285801E096F8345A3846FFF722
:102B5000B1FF2349804658468F421DD007DC5FEA0B
:102B600009000CD0D1452BD196F81E0609E050453E
:102B700015D0BBF56C4F23D196F8060201E096F80C
:102B8000120410F001041BD0D8F80000C00709D0CF
:102B9000D8F8040040B113E096F82A08F1E796F857
:102BA000360AEEE700240BE080213846FFF794F860
:102BB00030B1022D07D2691C384600F0D3FE012443
:102BC0002046BDE8F09F00214046FDF7B3FE80217E
:102BD0003846FFF72FF80021384600F0C3FEE1E742
:102BE000004C004000BCFFBF143E002030B5124C2A
:102BF000014600200B1B2515104AA14213D007DC0B
:102C00000F4BC9180CD0A94214D192F81E060FE040
:102C1000AB420BD0B3F56C4F0CD192F8060207E033
:102C200092F8120404E092F82A0801E092F8360AB9
:102C3000C0F3C00030BD0000004C0040143E002036
:102C400000BCFFBF2DE9F0472E4F97F88C000028FD
:102C500047D00024A7F1100907F1280AA04626E072
:102C60003D1995F82800AA281FD195F82A10601858
:102C7000021D642A01D987F88C80C61996F82C00A9
:102C8000BB2812D105F12900891CFDF733FC96F809
:102C90002B10814209D197F88D0010B9012087F8D7
:102CA0008D0095F82A0006281DD0641CE4B297F820
:102CB0008C00A042D4D8622C05D364215046FDF785
:102CC0005EFA87F88C80B7F89000411CA7F8901046
:102CD000B0F5FA7F05D9C9F83080C9F83480A7F873
:102CE0009080BDE8F08739195046D1F82D10C9F809
:102CF00030106421FDF743FA07F88C8FA7F80480A1
:102D0000EFE700006048002070B590B069461648B3
:102D1000FFF7EAFA144D04004FF0000615D095F8BD
:102D20008C002044642801D985F88C600E4815F881
:102D30008C1F2830084422466946FDF707FA287898
:102D400020442870EE8010B070BDB5F89200411C90
:102D5000A5F8921040F6B8318842F4D3A5F89260F5
:102D600005F88C6F6E70EEE76048002070B5134D6B
:102D7000B5F89600E0B94FF49670A5F89600A5F165
:102D80001004AA202070002060700321A17025216A
:102D9000E1702621217160710521601CFDF7AAFBFD
:102DA000A071BB20E071082221462846FFF7ABFA4C
:102DB00035F8960F401E288070BD00006048002046
:102DC00070B5204C94F88D00002839D1B4F89600E5
:102DD00020B9B4F89400401CA4F89400B4F894000E
:102DE00003282DD30025A4F89450D4F89C004FF468
:102DF0001651C0B14FF4E132904214D04B008842DA
:102E000009D08E00984202D1C4F89C600DE04FF4C6
:102E10006143B04202D1C4F89C3006E0984202D12E
:102E2000C4F89C2001E0C4F89C1064220548D4F842
:102E30009C10FFF730FA0A20FEF74CFDA4F89650DC
:102E400070BD00006048002000B5C1B069461C4854
:102E5000FFF74AFA010029D06846FFF74CF9010054
:102E600024D0174AE032107C40F010001074282063
:102E70005083887800F03F03C00917D0012B03D09E
:102E80005078A8B1012014E00320FFF75FFC002870
:102E90000CD00C48002180F8B3180221A0F8B0181B
:102EA0000320FFF7C7FB0320FFF7A8FB41B000BDDD
:102EB000022000F0C1FB032000F07CFBF6E70000DD
:102EC0002C0000200C2100202DE9F041354CB4F8F5
:102ED000B008002858D194F8BE08002670B104F656
:102EE000B4010A223048FFF70EFA00284CD084F8CB
:102EF000BE680320FFF782FB0A2043E02A4F94F8C4
:102F0000B308E03705284FF0030012D3FFF754FC55
:102F1000002839D0811C84F8B368787808B1012082
:102F200000E0022000F0DDFBBDE8F0410320FFF7E8
:102F300081BBFFF741FC050021D06A78A91C1A4823
:102F4000FFF7E1F900281FD094F8B3086421401C72
:102F5000C0B284F8B308A4F8B018397C41F020015D
:102F600039742821B983A979AD1CFF290ED069795C
:102F7000FF290BD0BDE8F041032000F0FFBA84F830
:102F8000B3680520A4F8B008BDE8F0810228FBD39F
:102F900084F8B3680320FFF74DFBBDE8F041032040
:102FA000FFF72CBB0C2100202C000020FEF71DFF9A
:102FB000FEF70AF9FCE7000030B5C1B069462948C0
:102FC000FFF700FA01004AD06846FFF794F8264D53
:102FD00004003BD0287C40F001002874282068823F
:102FE000A07800F03F0001280DD0E078FF281BD02A
:102FF00029788142214623D1032000F01DFB204681
:10300000FFF7CEFA1FE00120FFF7A0FBF0B1002090
:1030100085F843000520A5F840000120FFF70AFBD2
:103020000120FFF7EBFA11E02146022000F004FB3B
:103030002146032000F000FB2046FFF7B1FA05E02F
:10304000022000F0F9FA012000F0D2FA15F8300F52
:1030500040F003002870287A40F00300287241B045
:1030600030BD0000004400400C01002070B5224C2F
:10307000B4F84000002818D194F84E001F4E0025E7
:10308000A0B104F144010A223046FFF7ACF948B17F
:1030900084F84E500220A4F84000BDE870400120A2
:1030A000FFF7ACBA0320A4F8400070BD94F84300C9
:1030B00020B184F843500120FFF7BCFA0120FFF74C
:1030C0007BFBA8B14278811C3046FFF78CF90028C1
:1030D000EBD094F84300401C84F843006420A4F82B
:1030E0004000207C40F0020020742820A08270BDA7
:1030F00084F8435070BD00000C01002000440040E3
:1031000070B57E4D7E4B441B2E157E4AA84271D071
:1031100016DCB0F1804F36D07B4C00197B4C47D089
:10312000B04227D1986940F00800986100297CD00E
:1031300001296DD0201D02294BD003291AD18DE021
:10314000B44220D0B4F5903F14D1986940F0040007
:1031500098616C48001DE1B301297FD002290AD093
:10316000032907D1016821F470410160016841F42D
:103170003041016070BD016821F470610160016837
:1031800041F43061F5E7986940F004009861002946
:103190007DD001297CD002297BD00329EAD1106897
:1031A00020F470401060106840F43040106070BD32
:1031B000A1B101291FD002292BD00329F7D1986989
:1031C00040F008009861206820F0F000206020683E
:1031D00000E03BE040F0B000206070BD986940F036
:1031E00004009861106820F070601060106840F072
:1031F0003060DBE73AE0986940F0040098611068BD
:1032000020F070401060106840F03040CEE70CE0D5
:1032100014E0986940F008009861206820F00F00E1
:103220002060206840F00B00D6E7206820F0706036
:103230002060206840F03060CEE70FE0206820F08A
:1032400070402060206840F03040C5E7016821F000
:103250000F010160016841F00B018AE7016821F06C
:10326000F0010160016841F0B00182E7986940F027
:103270000400986191B1012918D002291ED00329B8
:1032800081D1106820F470401060106802E01DE0E9
:1032900024E02BE040F43040106074E7106820F028
:1032A0000F001060106840F00B00F5E7106820F088
:1032B000F0001060106840F0B000EDE7106820F4F6
:1032C00070601060106840F43060E5E7106820F02E
:1032D0000F001060106840F00B0067E7106820F0E6
:1032E000F0001060106840F0B0005FE7106820F454
:1032F00070601060106840F4306057E7000C0040C8
:10330000001002400008014000FCFFBF000C01401B
:10331000284A8018284A14D0B0F5006F2DD1A9B3DF
:103320002648012939D0022927D1916941F00801A5
:103330009161016821F0F0010160016841F0B00184
:103340001AE0906940F0080090611C48001D21B10E
:1033500001290AD0022910D110E0016821F470017E
:103360000160016841F4300106E0016821F07061FC
:103370000160016841F0306101607047016821F02F
:1033800070410160016841F03041F5E7FFE7906965
:1033900040F0040090610A48F0E7916941F00801AB
:1033A0009161016821F00F010160016841F00B019A
:1033B000E2E7000000D4FEBF00100240000C014014
:1033C00000080140838D5B1C53434FF47A72B3FBBA
:1033D000F2F231B101291DD002293CD0032931D1AB
:1033E00052E08286818821F440718180818841F495
:1033F00040718180018B01F47F410183018B41F099
:103400006C010183018C21F003010184018C41F0E6
:10341000010116E00287818821F440618180818862
:1034200041F440618180018BC9B20183018B41F479
:10343000D8410183018C21F030010184018C41F0DD
:103440001001018430F8441F41F4004120F8301984
:103450000121018070478287818821F44051818059
:10346000818841F440518180818B01F47F418183C7
:10347000818B41F06C018183018C21F440710184C6
:10348000018C41F48071DCE7A0F84020818821F4B0
:1034900080418180818841F480418180818BC9B2E3
:1034A0008183818B41F4D8418183018C21F4405187
:1034B0000184018C41F48051C3E7838D5B1C53432D
:1034C0004FF47A72B3FBF2F221B101291BD0022929
:1034D0004AD130E08286818821F4407181808188E0
:1034E00041F440718180018B01F47F410183018BA4
:1034F00041F06C010183018C21F00C010184018CED
:1035000041F004012FE00287818821F4406181802D
:10351000818841F440618180018BC9B20183018BB4
:1035200041F4D8410183018C21F0C0010184018C58
:1035300041F0400117E08287818821F44051818069
:10354000818841F440518180818B01F47F418183E6
:10355000818B41F06C018183018C21F440610184F5
:10356000018C41F48061018430F8441F41F4004132
:1035700020F830190121018070470000002809D08F
:103580000121012807D0022809D0032802D10648CA
:1035900080F8B2187047054880F842107047044818
:1035A00080F87A14704700000C2100200C010020E4
:1035B0000C11002010B5012817D10C4C7E2120469B
:1035C000217005216170A17821F03F01491C21F093
:1035D000C001A1700021E17021716171A1710A46E1
:1035E0000121FEF7AFFE0120A07210BD50010020A6
:1035F00010B501281CD10F4C7E210122217005211C
:103600006170A178204621F03F01491C21F0400162
:1036100041F08001A170A4F144010978E17000211A
:1036200021716171A1711146FEF78CFE0120A0721B
:1036300010BD0000500100202DE9F04700250E4686
:1036400080462F468946FFF79DF8041E38D0B6B352
:10365000F1783079B8F1020F03D0B8F1030F02D03E
:1036600003E061B301E000282AD07678761DB6F534
:10367000807F24D805EBC51114F81100B8420BD98E
:10368000074604EB41004178B14205D13246494634
:10369000801CFCF789FDA8B16D1CADB2142DE9D3D7
:1036A000142F0CD27F1C1FFA87F8002000EBC011EA
:1036B00014F8111041B1401C80B21428F6D3002038
:1036C000BDE8F0873046FBE700EBC01504EB45078B
:1036D000B81C32464946FCF739FD04F815807E7067
:1036E000F0E710B5C2B004467E208DF80000062039
:1036F0008DF801009DF8020020F03F00801D20F0B1
:10370000400040F080008DF80200C8788DF803007A
:1037100008798DF8040048798DF8050002208DF8AD
:10372000060001208DF80700052C12D2DFE804F016
:1037300011080308080000208DF804008DF805002A
:10374000012206216846FEF7FDFD69462046FFF787
:1037500073FF42B010BD0000064A074930B14FF474
:10376000FA6010850120C1F884017047002010859F
:10377000F9E700000C01002000802142024900B15D
:103780000120C1F8880170470080214210B5C2B005
:103790007E208DF8000006208DF801009DF80200C3
:1037A000144C20F03F00C01C20F0400040F080008E
:1037B0008DF8020020788DF8030000208DF80400B9
:1037C0008DF8050001208DF8060094F8260080226F
:1037D00000F001008DF8070003216846FEF7B2FDF6
:1037E0006078694608B1012000E00220FFF724FF5D
:1037F00042B010BD0C01002030B5104C01682515F9
:103800000B1B0F4AA14213D007DC0E4BC9180CD07A
:10381000A94201D1C2F8200630BDAB420BD0B3F5AE
:103820006C4FF9D1C2F8080230BDC2F8140430BDA3
:10383000C2F82C0830BDC2F8380A30BD004C004038
:10384000143E002000BCFFBF426922B1038B09B1C6
:10385000536100E013614268002A02D0008909B177
:103860005061704710617047C26822B1038A09B184
:10387000136100E053614268002A02D0008909B157
:10388000106170475061704730B5104C104A031BEF
:103890002515C9B2A04213D007DC0E4BC0180CD0BE
:1038A000A84201D182F81D1630BDAB420BD0B3F552
:1038B0006C4FF9D182F8051230BD82F8111430BD79
:1038C00082F8291830BD82F8351A30BD004C00400E
:1038D000143E002000BCFFBF30B51F48C1B0407887
:1038E00000280ED00220FEF767FF1C4C002508B10F
:1038F000256103E01A492069884204D22069401CEE
:10390000206141B030BD7E208DF8000006208DF88A
:1039100001009DF80200002220F03F000C3020F052
:10392000C0008DF80200FF208DF804008DF805001E
:103930008DF803008DF806508DF807500C2168466D
:10394000FEF700FD69460220FFF776FE6946032078
:10395000FFF772FE2561D4E70C0100200000002073
:10396000C027090030B5104C104A031B2515C9B2F9
:10397000A04213D007DC0E4BC0180CD0A84201D1D6
:1039800082F81C1630BDAB420BD0B3F56C4FF9D1A9
:1039900082F8041230BD82F8101430BD82F8281865
:1039A00030BD82F8341A30BD004C0040143E002077
:1039B00000BCFFBF30B50F4C0F4A031B2515A042BA
:1039C00012D007DC0D4BC0180BD0A84201D1A2F8D1
:1039D0001A1430BDAB420AD0B3F56C4FF9D1518007
:1039E00030BDA2F80E1230BDA2F8261630BDA2F8E6
:1039F000321830BD004C0040143E002000BCFFBF18
:103A00001C4B10B5C21A1C151B49984222D00CDC65
:103A10001A4A801816D0A04206D191F81E0620F04E
:103A20000600801C81F81E0610BDA2421AD0B2F515
:103A30006C4FF9D191F8060220F00600801C81F845
:103A4000060210BD91F8120420F00600801C81F8D7
:103A5000120410BD91F82A0820F00600801C81F89D
:103A60002A0810BD91F8360A20F00600801C81F863
:103A7000360A10BD004C0040143E002000BCFFBFC1
:103A80002DE9F041154688460746FEF7D5FE1A494E
:103A900006460024781A0A158F4210D006DC174813
:103AA00038180AD090420DD1154C0BE0904208D046
:103AB000B0F56C4F06D1134C04E0134C02E0134CEC
:103AC00000E0134C3846FEF7F5FF0746B54202D931
:103AD0000020BDE8F0812A4641462046FCF736FB2F
:103AE000386820F0010038607D60FC60386840F084
:103AF000010038602846ECE7004C004000BCFFBFE6
:103B000030430020183F0020244100203C45002085
:103B1000484700201A4B10B5C21A1C151949984283
:103B20001FD00BDC184A801814D0A04205D191F8A0
:103B30001E0640F0010081F81E0610BDA24217D0FB
:103B4000B2F56C4FF9D191F8060240F0010081F80E
:103B5000060210BD91F8120440F0010081F8120431
:103B600010BD91F82A0840F0010081F82A0810BD24
:103B700091F8360A40F0010081F8360A10BD0000C5
:103B8000004C0040143E002000BCFFBF30B51A4C72
:103B90001A4A031B2515A0421FD00BDC184BC01876
:103BA00014D0A84205D192F81E0661F3C30082F832
:103BB0001E0630BDAB4217D0B3F56C4FF9D192F869
:103BC000060261F3C30082F8060230BD92F81204C7
:103BD00061F3C30082F8120430BD92F82A0861F341
:103BE000C30082F82A0830BD92F8360A61F3C30098
:103BF00082F8360A30BD0000004C0040143E002020
:103C000000BCFFBFF0B5044600684F494F4F87B076
:103C100040184FF018054FF0030617D0B0F5806F2D
:103C200027D0B0F5784F1ED101210803FDF73AFBEC
:103C300001210520FDF736FBE020ADF814008DF8DA
:103C400017508DF8166005A941480AE00121880344
:103C5000FDF710FB01210920FDF724FB4FF4604024
:103C600010E0FDF781F8618CA9B10120082913D17A
:103C700014E00121C803FDF7FDFA01210D20FDF735
:103C800011FB3820ADF814008DF816608DF8175030
:103C900005A93846E5E70020012200E00022104097
:103CA000102901D0012200E000221040182901D083
:103CB000012200E000221040202901D0012200E072
:103CC00000221040282901D0012200E000221040EB
:103CD000302901D0012200E000221040382901D013
:103CE000012100E0002108424FF0000100D0618472
:103CF000ADF800104FF48270ADF80200ADF804107A
:103D00000220ADF806000120ADF808000720ADF84C
:103D10001000ADF80E104FF40070ADF80A00608C82
:103D2000ADF80C0069462068FDF7F2FC20680188B8
:103D3000890502D40121FDF707FD01212068FDF767
:103D4000DBFC07B0F0BD000000C8FFBF000C014065
:103D5000000801400189406801617047018940689D
:103D60004161704770B51A490878642807D2401C31
:103D700008701848D0F80600C1F80A0070BD16484F
:103D8000D0F83001134C203C28B194F8260040F0C4
:103D9000010084F826000F490D480122891D0A30D0
:103DA000FCF702FA0028E9D0094D94F826100A35EC
:103DB00001F00101287800F001008842DED0FFF711
:103DC000E5FC94F82600297860F30001297070BDA5
:103DD000000000202C0100200000224270B52D4C74
:103DE0002D4D96B02078002678B12879002845D04E
:103DF0002A482E71D0F83001B0B30020FFF7BEFC86
:103E000014F8260F40F0010041E05422244968468E
:103E1000FCF79CF92889411C2981B0F5FA7F2BD940
:103E20002E81E878142820D2401CC0B20A21B0FBB1
:103E3000F1F2E87030328DF82520B0FBF1F201FB91
:103E4000120030308DF82600002209216846FEF766
:103E500079FA69460320FFF7EFFB607830B16946D5
:103E60000220FFF7E9FB01E00AE0EE700120FFF716
:103E700085FC0120FFF770FC0120287116B070BD91
:103E80000120FFF77BFC14F8260F20F001002070C2
:103E9000F4E700000C010020000000200000224296
:103EA00068440008F0B514461F460546002285B058
:103EB000134620463946FCF719FA72D3288820F0B9
:103EC000010028806846FDF78FFA3E48A84314D0C9
:103ED00002984000FCF7E4F922463B46FCF771F9F2
:103EE000FCF7EBF906460022374B20463946FCF733
:103EF000FDF904D24EF6602055E00398EAE700226F
:103F0000324B20463946FCF7F1F902D24FF4FA6001
:103F100049E000222E4B20463946FCF7E7F901D252
:103F2000C82040E000222B4B20463946FCF7DEF942
:103F300001D23C2037E00022274B20463946FCF7CF
:103F4000D5F901D21E202EE00022244B204639460E
:103F5000FCF7CCF901D2142025E00022204B2046AA
:103F60003946FCF7C3F901D20F201CE000221D4B9B
:103F700020463946FCF7BAF901D2062013E00022A8
:103F8000194B20463946FCF7B1F901D203200AE06B
:103F90000022164B20463946FCF7A8F902D202202F
:103FA00001E00CE00120B6FBF0F1401E2885491E1F
:103FB000A9850020A881288840F00100288005B04C
:103FC000F0BD0000000001400000F03F0000244070
:103FD00000003440000044400000544000005940BC
:103FE00000006940000079400000894000409F4087
:103FF000214B10B5C21A1C15204998422AD00BDC5F
:10400000B0F1804F15D01E4A801816D0A04219D0AA
:10401000B0F5006F2AD119E0A2421FD0B2F58E3F51
:1040200003D0B2F5923F21D11CE0886940F40060D2
:104030001BE0C86940F0010002E0C86940F00200DE
:10404000C86113E0C86940F00400F9E7C86940F0AE
:104050000800F5E7C86940F01000F1E7C86940F0D2
:104060002000EDE7886940F400508861886940F0DD
:104070000100886110BD00000010004000100240E7
:1040800000FCFFBF2DE9F04F8DB088460446FEF7D7
:10409000FBFB05462246B8F1000F14D04FF48070A8
:1040A000804500D980465A4B5B4ED01A59491F159E
:1040B000834626449C4214D008DC7EB1BE4215D112
:1040C000A1F8188412E04FF48078ECE7B8420BD0E6
:1040D000BBF56C4F0AD1A1F8008007E0A1F80C8273
:1040E00004E0A1F8248601E0A1F83088C14610461A
:1040F000FEF7E0FC0B902046FEF730FC8246002DD8
:104100007AD00B98002877D0BAF1000F74D0DFF87E
:104110000081584644450CD003DC3EB1BE420CD170
:1041200004E0B84268D0BBF56C4F06D101210846C7
:1041300001E001210220FDF791F800264FF0800BED
:10414000CDE9046B1020CDE90206271D069640023A
:104150000A96CDE90860CDE90075079669460B9887
:10416000FCF70AFC01A8009780E86002CDE9046B27
:104170004FF40050CDE90860069607966946504610
:104180000A96FCF7F9FB00210B98FCF7D3FB012101
:104190005046FCF7CFFB012240212046FDF75DFD94
:1041A000012280212046FDF758FD002202210B98B4
:1041B000FCF7DAFB184E194D7642194FAC4201D18B
:1041C000A0140BE0B44202D14FF0807006E0BC4274
:1041D00001D1102002E0444502D11248FCF79EFBB9
:1041E000AC4203D14FF4803004E005E0B44206D184
:1041F0004FF48010FCF792FB0DB0BDE8F08FBC428D
:1042000002D14FF48070F5E74445F5D10648F1E757
:10421000004C0040143E002000BCFFBF00380140AD
:104220000048004000000110000100102DE9F84393
:1042300000252D4ADFF8B4C0811ADFF8B4801315C9
:104240002C462F462E464FF4006990423ED013DC98
:10425000284940181BD0984221D1274F01213E46C2
:104260001D464C460846FDF71DF801212348FCF782
:10427000CBFD0121082010E099422ED0B1F56C4F02
:104280000DD1674666464FF400751C4603E00425D1
:1042900067466646082401210420FDF703F8ADF8BF
:1042A000005018208DF8030003208DF802006946A5
:1042B0003846FCF759FDADF8004048208DF8030062
:1042C00069463046FCF750FDBDE8F88301214746BA
:1042D00046461D464C461020DFE704240121474690
:1042E000074E1D463020D8E7004C00400008014032
:1042F0000010014000BCFFBF000C01400002300074
:10430000001401407FB50C460546FDF7AFFC0021C7
:10431000ADF80810ADF804100C20ADF80610ADF89B
:104320000A00ADF80C10009469462846FDF712FD0E
:1043300001212846FDF787FC7FBD0000F8B5002469
:1043400005462146FDF77FFC254AA91A131595421B
:1043500005D006DC234828180AD098420BD1342413
:1043600009E0994206D0B1F56C4F04D1252402E052
:10437000262400E035248DF8004000208DF801004F
:104380008DF8020001208DF803006846FCF726FF37
:10439000154840F22774C54240F226664FF00102EC
:1043A0001BD121462846FDF7BDFC40F224470122DF
:1043B00039462846FDF7B6FC21462846FDF73DFC68
:1043C00031462846FDF739FC39462846FDF735FCCD
:1043D00001212846FDF737FCF8BD31462846E2E7C3
:1043E000004C004000BCFFBF00B0FFBF144A10B536
:1043F000811A131590421CD009DC1249401815D0BF
:1044000098420DD101210002FCF734FF08E09942E7
:1044100012D0B1F56C4F03D101218803FCF742FFA4
:104420000121BDE810400846FCF73CBF01214804CB
:10443000EAE70121C804E7E701210805E4E70000F5
:10444000004C004000BCFFBF020406080000000052
:104450000102030401020304060708091F1C1F1EB2
:104460001F1E1F1F1E1F1E1F7E4C09FFFFFF011076
:10447000BFD8D6C6B0E5CEB4B2A6C2EBB2E2CAD4BB
:104480000209746573742DB9E6B8F1030239390471
:1044900009746573742DB1F0C3FB050974657374F9
:1044A0002DB3A7C9CC060B636F64652D7465737457
:1044B00030310702B8F6BD9E7F000000DC440008E2
:1044C000000000202C000000FE1D00080845000828
:1044D0002C000020D44C00000E1E0008000000003C
:1044E00000000000000000000000000000000000CC
:1044F00000000000000000000000000000000000BC
:084500000000000000000000B3
:0400000508000131BD
:00000001FF
