:020000040800F2
:10000000C83900204501000835170008AB1000086A
:10001000AB130008D30600084926000800000000C2
:10002000000000000000000000000000D91C0008D3
:10003000ED0A0008000000008317000803220008F2
:100040005D26000841170008E1220008E51B0008B2
:10005000E50C0008411A0008EF0A0008F70A00083A
:10006000FB0A0008FF0A0008030B0008A9090008A2
:10007000AD090008B1090008B5090008B909000870
:10008000BD090008C1090008F5010008452600085F
:1000900047260008D5060008D7060008070B000809
:1000A000E3220008E9220008E7220008E522000810
:1000B00001230008152300082D230008AF100008B5
:1000C000AD100008B3100008B1100008D31C0008E0
:1000D000D51C000899230008152400089124000865
:1000E000F30A0008D51A0008432600083723000841
:1000F0003D2300083B23000839230008F7010008CE
:10010000190D0008D11C000831230008D71C000875
:1001100091230008952300083323000835230008A5
:10012000C5090008C9090008CD090008D10900085F
:10013000DFF80CD000F04CF800480047953000087C
:10014000C8390020004800473101000840EA010397
:100150009B0703D009E008C9121F08C0042AFAD27D
:1001600003E011F8013B00F8013B521EF9D2704741
:10017000D2B201E000F8012B491EFBD270470022E9
:10018000F6E710B513460A4604461946FFF7F0FF96
:10019000204610BD421C10F8011B0029FBD1801A1B
:1001A0007047CBB203E00178994203D0401C521E45
:1001B000F9D20020704730B504460020034600E025
:1001C0005B1C934203D2E05CCD5C401BF8D030BD99
:1001D000064C074D06E0E06840F0010394E8070094
:1001E00098471034AC42F6D3FFF7A6FF003700085B
:1001F000203700087047704700F096F90121064843
:1002000000F018FE4FF4FA6000F054FF4FF47A70DB
:1002100001F0FAFFFEE700000008014010B500F011
:1002200091FF02F093F8BDE8104000F08DB9000096
:100230002DE9F0414FF480744FF49646AEB022465B
:100240003146204802F04DFB204F1F48CDE9000702
:10025000ADF8084080213846079600F0D9FD80218E
:10026000384600F00FFF684602F07CFA19481A4D34
:100270001749C0E90015891401812246314602F070
:10028000C3FA4FF400684146284600F0C1FD4146DC
:10029000284600F0F7FE0F4810491C302246C0E9FE
:1002A00000150481314602F0AFFA64002146384659
:1002B00000F0AEFD2146384600F0E4FE2EB0BDE869
:1002C000F081000000440040004800400010014060
:1002D000004C0040C40100200008014000380140EB
:1002E000184810B50822184980F87E204B15016087
:1002F00083808B1581608381802301618382402309
:10030000816183832023016283841023816283853A
:10031000016382860D4981630421818701F0E0FE3B
:10032000084801F0DAFC0A4C00F03F00A0700548D4
:1003300001F0D3FC000601D5012000E00020E070B0
:1003400010BD000018020020000C01400014014004
:10035000000000201149887850B111494FF0010286
:10036000088AC30610D50F4B1A6020F0100012E067
:100370000889421C0A81C8280ED900200881094832
:100380000121103800F088BE830605D5054B1B1DE2
:100390001A6020F020000882704700000000002052
:1003A000580C0020100C014070B50E4D022128465B
:1003B00000F040FDA9140C4800F018FD0949022086
:1003C000143108600121284600F034FD054C01215C
:1003D000103421600421284600F02CFD0420206008
:1003E00070BD0000000C01400010014070B52049B4
:1003F000204802F086FA204D4FF48074A88038B16E
:10040000A04200D9AC80AA881949012000F0CEFF93
:10041000174901F5A47002F026FAA88038B1A0426D
:1004200000D9AC80AA881249022000F0BFFF104911
:1004300001F5967002F017FAA88038B1A04200D9F1
:10044000AC80AA880A49032000F0B0FF084802F0F7
:1004500049F9A880002809D0A04200D9AC80AA8818
:10046000BDE870400249042000F0A0BF70BD00004C
:1004700098000020004400400000002010B5084C07
:10048000A08800280BD10121064800F005FE06488F
:10049000807810B14FF4FA7000E06420A08010BDA5
:1004A000580C00200008014000000020052810D250
:1004B000DFE800F00F0306080B00074802F032BA2D
:1004C000064804E005481C3801E004481C3002F0EE
:1004D000E9B900207047000000440040E00100201E
:1004E00070B50F480D4C4088A578002815D10D48EF
:1004F00001F0F3FB00F03F00A0700A4801F0EDFBB3
:10050000000601D5012000E00020E070A0788542BF
:1005100003D0BDE87040FFF78BBE70BD0000002027
:10052000580C00201802002010B501F073FDFFF7F1
:10053000D7FEFFF739FFFFF77BFEBDE810404FF411
:100540007A7001F097BE000010B5154C92B0A078FB
:1005500098B9442213496846FFF7F8FDE088411C2A
:10056000E180B0F5FA7F08D90020E0806846FFF707
:1005700011FE81B2684600F0E4F800F045FE01F09B
:100580008BFBFFF7ADFFFFF779FFFFF7E3FE02F00C
:10059000FDF8FFF72BFF12B0BDE8104001F070BD71
:1005A00000000020BC3600082DE9F04700259046E9
:1005B00089462E46052830D2DFE800F02F030507D4
:1005C00009001F4C04E01F4C02E01F4C00E01F4CD0
:1005D00005EBC51114F81100B0420CD904EB41072A
:1005E0000646B81C42464946FFF7E5FD18B979783A
:1005F0004046414512D06D1CEDB20A2DE8D30A2EBB
:100600000BD2761CF5B2002000EBC01114F81110CB
:1006100031B1401CC0B20A28F6D30020BDE8F087F3
:1006200000EBC01604EB4607B81C42464946FFF7EC
:100630008DFD04F8165087F801804046EEE7000073
:10064000700D00208417002098210020AC2B002082
:1006500070B50E460988002822D044780546022C41
:100660001FD08C4222D8022C02D9621D8A421DD88A
:1006700001198A7885F80621C97885F80711681C60
:10068000611C00F029F895F80621C1B291420DD104
:1006900095F80711B1EB102F08D1641D34800120AB
:1006A00070BD017985F806114179E6E7002070BD3B
:1006B00010B503004FF00002104601D0012905D803
:1006C000002010BD9C5C6040521C92B28A42F9D35B
:1006D00010BDFEE770477047FCB504464FF6FF7744
:1006E00000200D46ADF8007048F205068DF80400B4
:1006F0001EE014F8010B8DF8040001A9084600F073
:1007000054FDBDF800009DF8041080EA0120ADF80A
:1007100000000020BDF800100A0402D586EA41015D
:1007200001E007EA4101401CADF800100828F1DBA8
:100730006D1EDED26946084600F020FDBDF80000BF
:10074000FCBD0A4601460220FFF72EBF70B592B0ED
:100750000E4600241546ADF8404040216846FFF79C
:100760000EFD2A4631466846FFF7F0FCADF84050D2
:1007700010AA0421684600F0E4FF134DADF84000D4
:1007800010A9A8788DF803008DF804408DF8054075
:10079000684601F091FCE9780C480029C17D09D038
:1007A00041F00101C175BDF84010684600F0C3FF7B
:1007B00012B070BD41F00201C175BDF8401068462D
:1007C000FFF7BFFFF4E7000000000020580C0020F6
:1007D0002DE9F0410746474E0020024696F816C024
:1007E0000146052F52D2DFE807F083030C162900DB
:1007F000424B0CF0010E404CA3F58875CCF3400C35
:1008000012E03D4C3E4BCCF3800E641CA3F6223527
:10081000CCF3C00C08E0384C364DA41C394BCCF35B
:10082000001E0C35CCF3401CBEF1000F0CD0BCF107
:10083000000F4FF007020AD033490AE02E4C2D4D2D
:10084000E41CA4F617230E352E88FEB91FE02E49AE
:10085000C91D384600F027FCB0B1052F48D2DFE8AB
:1008600007F04703070B0F00B07D20F001000AE0FE
:10087000B07D20F0040006E0B07D20F0100002E022
:10088000B07D20F04000B0750A20288030E000EBF9
:10089000C01613F81660012E1AD0401CC0B20A28E8
:1008A000F5D329B3384600F0FEFB06004FF03201C5
:1008B0001AD02078401C2070298020780025052837
:1008C00003D3384601F0A8FB2570012F07D00CE0B8
:1008D00000EBC01003EB4000811C4278E1E7384692
:1008E00001F09EF9257000E029803046BDE8F081D6
:1008F0000020FBE7580C0020C0350020700D0020C0
:1009000084170020982100204A00002070B58AB08A
:100910000C460646202101A8FFF731FC02218DF884
:10092000041001200025ADF824108DF80500ADF865
:10093000005009AA062101A800F003FFADF800004D
:10094000200A8DF80800200C8DF807408DF809006A
:10095000052E1BD2DFE806F01A1A030703008DF8F4
:1009600008508DF80950694601A801F0A5FBADF8C3
:10097000000001460A4802780A48002AC27D07D0D2
:1009800042F00102C27501A800F0D5FE0AB070BDA8
:1009900042F00202C27501A8FFF7D3FEF6E700009D
:1009A00003000020580C002000F060B800F05EB892
:1009B00000F05CB800F05AB800F058B800F056B833
:1009C00000F054B800F052B800F050B800F04EB843
:1009D00000F04CB8C10002D50249086070470249D6
:1009E000486070470404024000000240002901688A
:1009F00002D041F0010101E021F0010101607047E6
:100A000002460020D10001D5034900E003490968EE
:100A1000114200D001207047000402400000024053
:100A2000002A026801D00A4300E08A43026070474E
:100A300030B5026847F6F0739A430C6A8B6823431B
:100A4000D1E904452C4323438C692343CC692343D8
:100A50004C6A23438C6A234313430360CA68426091
:100A60000A6882604968C16030BD000010B501F0BD
:100A7000EEFD1020FFF7C4FF01281BD04FF4805477
:100A80002046FFF7BDFF01281AD024032046FFF7B8
:100A9000B7FF01281BD0124C2046FFF7B1FF0128F9
:100AA0001CD12046FFF796FF0E480021BDE81040FC
:100AB000FFF79CBF1020FFF78DFF00210A48F5E7E4
:100AC0002046FFF787FF084800212830EEE7204640
:100AD000FFF780FF044800216430E7E710BD000005
:100AE00000000110580402401C000240704700F052
:100AF000B1B800F0AFB800F0ADB800F0ABB800F09E
:100B0000A9B800F0A7B800F0A5B800000149086036
:100B1000704700001404014010B5012000F08AF86D
:100B2000434C18B1208840F0010006E0022000F09C
:100B300081F820B1208840F00200208010BD042000
:100B400000F078F818B1208840F00400F5E708209C
:100B500000F070F818B1208840F00800EDE7102090
:100B600000F068F818B1208840F01000E5E7202078
:100B700000F060F818B1208840F02000DDE7402048
:100B800000F058F818B1208840F04000D5E78020E8
:100B900000F050F818B1208840F08000CDE74FF405
:100BA000807000F047F818B1208840F48070C4E7E6
:100BB0004FF4007000F03EF818B1208840F4007047
:100BC000BBE74FF4806000F035F818B1208840F49E
:100BD0008060B2E74FF4006000F02CF818B1208874
:100BE00040F40060A9E74FF4805000F023F818B1FA
:100BF000208840F48050A0E74FF4005000F01AF82D
:100C000018B1208840F4005097E74FF4804000F07E
:100C100011F818B1208840F480408EE74FF400406E
:100C200000F008F8002889D0208840F4004084E7CC
:100C300018000020064A014600201268044B0A40B2
:100C400014331B680B4202D0002A00D001207047E9
:100C50000004014008B50020ADF80000FFF75CFF7C
:100C600001F0F5FC1E48BDF8001001800120FFF7DF
:100C70004DFF0220FFF74AFF0420FFF747FF08203F
:100C8000FFF744FF1020FFF741FF2020FFF73EFF52
:100C90004020FFF73BFF8020FFF738FF4FF48070C4
:100CA000FFF734FF4FF40070FFF730FF4FF4806020
:100CB000FFF72CFF4FF40060FFF728FF4FF4805040
:100CC000FFF724FF4FF40050FFF720FF4FF4804060
:100CD000FFF71CFFBDE808404FF40040FFF716BFC8
:100CE000180000207047000004490A6822F0100232
:100CF0000A600A6802430A60704700000020024050
:100D000004490A6802F038020A600A6802430A606D
:100D10007047000000200240704710B501210846CE
:100D200000F060FD0021BDE81040012000F05ABD38
:100D300070B50C46002852D0294A811A1315D614D2
:100D4000904243D014DC2749274D41184FF6FF70DD
:100D50001BD0994227D0B14241D10121102000F08F
:100D600035FD600401D4200439D50121112008E0AB
:100D700099422ED0B1422FD0B1F5406F2FD1012131
:100D80000802BDE8704000F021BDA10405D4610453
:100D900003D4210401D4844202D1012104200AE0B9
:100DA00001210420EDE7210703D4E10601D48442A8
:100DB00009D10121092000F009FD2846BDE8704055
:100DC000012100F03BB901210820DAE701212020B0
:100DD000D7E701214020D4E701218020D1E770BD71
:100DE0000014014000F8FEBF0002300038B5044690
:100DF000ADF8001002228DF8022048208DF8030083
:100E00002046FFF795FF6946204600F0C7F838BD39
:100E100038B50446ADF8001003228DF802201420E6
:100E20008DF803002046FFF783FF6946204600F057
:100E3000B5F838BD38B50446ADF8001003228DF87A
:100E4000022010208DF803002046FFF771FF69464D
:100E5000204600F0A3F838BD254A10B5811A1315B5
:100E6000D41490422ED00DDC224940181CD0984258
:100E700021D0A0423BD10121102000F0B3FC002181
:100E800010200DE0994224D0A14229D0B1F5406F45
:100E90002DD101210C02204600F0A4FC00212046A7
:100EA000BDE8104000F09EBC0121042000F09AFC37
:100EB00000210420F4E70121082000F093FC002128
:100EC0000820EDE70121202000F08CFC00212020EB
:100ED000E6E70121402000F085FC00214020DFE70B
:100EE0000121802000F07EFC00218020D8E710BD89
:100EF0000014014000F8FEBF2DE9F84F684600F0ED
:100F0000C3F81F4C6946204600F048F81D4D69465D
:100F1000284600F043F81C4E6946304600F03EF883
:100F20001A4F6946384600F039F8DFF864806946A0
:100F3000404600F033F8DFF85C906946484600F020
:100F40002DF8DFF854A06946504600F027F82046F7
:100F5000FFF782FF2846FFF77FFF3046FFF77CFF51
:100F60003846FFF779FF4046FFF776FF4846FFF720
:100F700073FF5046FFF770FFFFF7CFFEBDE8F88F15
:100F800000080140000C0140001001400014014025
:100F900000180140001C014000200140F0B5002273
:100FA000002849D0CC7804F00F03E40601D58C78F2
:100FB00023430C784FF00F0C14F0FF0F4FF0010E8D
:100FC0001AD005680E880EFA02F42640A6420FD108
:100FD00096000CFA06F725EA070703FA06F5CE781D
:100FE0003D43282E00D14461CE78482E00D10461C3
:100FF000521C082AE6D305600A88FF2A1CD94468D7
:10100000002202F108060EFA06F50E882E40AE42C6
:101010000ED196000CFA06F7BC4303FA06F7CE7819
:101020003C43282E00D14561CE78482E00D1056181
:10103000521C082AE5D34460F0BD0000F0B5104D05
:101040006B68440D260184B2C0F30157B440C0F36D
:101050000342032F05D0C0020AD5032090408343EA
:1010600007E0686823F0706220F07060686002E05A
:10107000A34343F0706201B122436A60F0BD0000F7
:1010800000000140416170474FF6FF71018002216D
:1010900081700421C1707047C2680A4201D0416169
:1010A000704701617047FFF701BAFEE7704770476C
:1010B0007047704770B500EB80010325C90047F603
:1010C000F872B2EB910F03D900EB800080031AE0B5
:1010D0004FF6F072B2EB910F04D9042500EB8000BB
:1010E000400310E0114AB2EB910F04D9052500EB43
:1010F0008000000307E00E4AB2EB910F05D90625E8
:1011000000EB8000C002040C00D1012445F25550D0
:1011100000F02EF8284600F01FF8204600F022F8D4
:1011200000F012F8BDE8704000F004B8E0FF0100E4
:10113000C0FF030002494CF6CC4008607047000035
:1011400000300040AFF3008002494AF6AA20086050
:1011500070470000003000400149486070470000BF
:1011600000300040014988607047000000300040B6
:1011700001490860704700000030004070B500224F
:101180000C8862F30F03012606FA02F52C4207D001
:10119000C2F10F0506FA05F143EA010565F30F03F5
:1011A000521C102AF0DB038070BD70B500220C7851
:1011B00062F30703012606FA02F52C4207D0C2F1BA
:1011C000070506FA05F143EA010565F30703521C1A
:1011D000082AF0DB037070BD81070CD16421B0FBDD
:1011E000F1F201FB120141B94FF4C871B0FBF1F209
:1011F00001FB120008B100207047012070470A4629
:1012000001460320FFF7D0B92DE9F0473E48DFF84B
:10121000FC803F4F807808F104060224C0B13D4DA8
:101220004FF000092A8A900737D5EB8840F2C67044
:10123000834212D8B86829465FEAC04C088A498AB6
:1012400020F0020014D541F0010169824BB124E085
:10125000B868C00403D5C8F80040BDE8F087346022
:10126000FBE728820221032000F056F8346014E0E6
:101270005FEA027C05D442F008002882C820E8809A
:101280000BE053B920F00800288221F003006882A7
:1012900034600021032000F03FF8288AC1070DD0F8
:1012A000698A20F00D0021F00201698240F05200AD
:1012B00028824FF4FA60E880C8F80040B868C0049B
:1012C000A87C4FEAC0700ED548B9288A012140F0A9
:1012D000A0002882A5F81490032000F01DF8688A69
:1012E00040F001000DE048B1288A002140F0500094
:1012F00028820120A882032000F00EF8688A20F0DE
:1013000001006882A9E7000000000020100C0140E5
:1013100000100140580C002070B58AB00D460646FA
:1013200020216846FEF72BFF0220ADF824000120A3
:101330008DF800000024ADF820408DF8015009AA76
:101340003146684600F0FDF9124DADF8200008A9BD
:10135000A8788DF803008DF804408DF805406846A4
:1013600000F0AAFEADF820000146EA780A48002AFB
:10137000C27D07D042F00102C275684600F0DBF979
:101380000AB070BD42F00202C2756846FFF7D9F993
:10139000F6E7000000000020580C002010B5FFF711
:1013A000D1FEBDE8104001F04BB9FEE7012807D09F
:1013B000022807D0032807D0042807D100F007B877
:1013C00000F00EB900F006B800F0AEB87047FFF7B5
:1013D000BDB900002DE9F7430C468046022822D112
:1013E000002C20D002A9204601F0F8FC07001AD0FA
:1013F000204601F06DF94A4E012816D0A0784949DF
:1014000000F03F0500061AD5C87800280BD000214F
:10141000404601F033F9F07D394640F00100F075A7
:10142000204600F088F9BDE8FE83F07D8107FAD5FB
:1014300020F00200F075404600F0F2FBF3E7E078A0
:101440000028F0D08978814201D0FF28EBD1814279
:1014500003D10121404601F011F9022D15D0092DCB
:1014600013D00A2D11D00B2D2CD0052D31D0032DEA
:101470003CD0082D46D0062DD5D1B07CC0074DD02C
:1014800001210620FFF748FFCDE721790029CAD0C6
:1014900060790028C7D0FF2910D0FF280ED0F07D3A
:1014A00040F00400F075308A394620F0800040F0AA
:1014B000400030822046FFF7A2FEB4E7F07D20F026
:1014C0000400EFE7308A20F0C0003082A17951B1EA
:1014D000A9E7308A20F0C0003082A17919B140F02C
:1014E000400030829FE740F08000FAE7308A20F029
:1014F00005003082A17911B140F00100F1E740F020
:101500000400EEE7308A20F030003082A17911B17A
:1015100040F01000E5E740F02000E2E70021B0E7EE
:10152000580C002000000020F0B591B006460C4693
:1015300008461546ADF8402010A901F04FFCADF863
:101540004000002832D0204601F0C2F8224F012886
:101550002ED0A078000629D540216846FEF70FFE60
:101560000021304601F08AF82A4621466846FEF7F7
:10157000EDFDADF8405010AA0421684600F0E1F8F6
:10158000164CADF8400010A9A0788DF8030068460D
:1015900000F092FDE0780128F87D13D040F00200C1
:1015A000F875BDF840106846FFF7CBF811B0F0BDF4
:1015B000F87D4107FAD520F00400F875304600F0B8
:1015C0002FFBF3E740F00100F875BDF840106846C6
:1015D00000F0B1F8EAE70000580C002000000020FD
:1015E0002DE9F7430C468146012826D10846002CF8
:1015F00023D002A901F0F2FB5FEA00081FD02046C9
:1016000001F066F8494E01281FD0A078E77800F075
:101610003F05002F11D00121484601F02FF8444822
:101620008078B8421ED041462046FFF78AF8F07D08
:10163000FF2F14D040F00200F075BDE8FE834FF498
:1016400080712046FEF79BFDF7E7F07DC107F4D0DF
:1016500020F00100F075484600F0E2FAEDE720F0D6
:101660000200F075022D15D0092D13D00A2D11D0CE
:101670000B2D2CD0052D31D0032D3CD0082D46D07C
:10168000062DDAD1B07CC0074DD001210620FFF72E
:1016900043FED2E720790028CFD061790029CCD051
:1016A000FF2810D0FF290ED0F07D40F00400F07527
:1016B000308A414620F0800040F0400030822046D1
:1016C000FFF79DFDB9E7F07D20F00400EFE7308AD9
:1016D00020F0C0003082A17951B1AEE7308A20F00D
:1016E000C0003082A17919B140F040003082A4E7F7
:1016F00040F08000FAE7308A20F005003082A179BE
:1017000011B140F00100F1E740F00400EEE7308A4B
:1017100020F030003082A17911B140F01000E5E7EF
:1017200040F02000E2E70021B0E70000580C002064
:101730000000002070470A4601460120FEF734BF32
:10174000704770B5C4B0148841F080018DF8021064
:101750007E218DF800100646241D15468DF80140A7
:10176000128831460DF10600FEF7F0FC641DA4B2AC
:10177000224669463046FEF7E9FC2C8044B02046FC
:1017800070BD7047044A0029516901D0014300E04F
:10179000814351617047000000100240044A002953
:1017A000D16901D0014300E08143D161704700005D
:1017B00000100240044A0029116901D0014300E0F1
:1017C000814311617047000000100240044A002963
:1017D000916901D0014300E08143916170470000AD
:1017E00000100240044A0029D16801D0014300E002
:1017F0008143D160704700000010024070B50024A2
:1018000000F06CF84FF48035284600F0F9F8681EB7
:101810002146641C8142FBD300F042F9012803D029
:10182000BDE8704000F025B81020FFF75DFA0220F7
:10183000FFF766FA002000F0D9F8002000F00CF95C
:101840004FF4806000F0FEF84FF4E011284600F0FD
:1018500013F9012000F00AF9392000F0A7F8002858
:10186000FAD0022000F012F900F0B8F80828FBD1F5
:1018700070BD10B500F032F8012000F0DBF8202038
:1018800000F094F80028FAD0002000F0AFF8002013
:1018900000F0E2F84FF4806000F0D4F80220FFF787
:1018A0002FFA1020FFF720FA4FF46011002000F00B
:1018B000E3F8012000F0DAF802E0022000F0E6F898
:1018C000392000F073F80028F7D000F087F80828D6
:1018D000FBD1BDE81040FFF70FBB00000B480168CB
:1018E00041F0010101604168094A1140416001680D
:1018F000084A11400160016821F4802101604168BB
:1019000021F4FE0141600021816070470010024017
:101910000000FFF8FFFFF6FE30B5204A5168204B6B
:1019200011F00C0103D0042901D0082901D0036073
:1019300011E05168022301F4701103EB91415368E7
:1019400013F4803F02D053689B0301D5154B00E090
:10195000134B5943016051680F2303EA1111124BD5
:101960005C5C0168E14041605468072505EA142485
:101970001C5D21FA04F48460546805EAD4241B5DDC
:10198000D940C1605268032303EA9232064B1B1F01
:101990009A5CB1FBF2F1016130BD00000010024021
:1019A00000127A0000093D00A0360008034600201E
:1019B0005909094A01290AD002290AD0516A03F0BB
:1019C0001F02012393400B4200D001207047116891
:1019D000F5E7116AF3E70000001002400248406892
:1019E00000F00C007047000000100240034A5168EC
:1019F00021F0F001014351607047000000100240E7
:101A00000B490A6822F480320A600A6822F48022B4
:101A10000A60B0F5803F07D0B0F5802F03D1086889
:101A200040F4A02008607047086840F48030F9E76F
:101A30000010024001490860704700000000424267
:101A400070470000034A516821F4E061014351608E
:101A50007047000000100240034A516821F46051B1
:101A600041EAC0005060704700100240014908661A
:101A70007047000000004242034B5A68084322F4BA
:101A80007C1210435860704700100240034A5168AE
:101A900021F0030101435160704700000010024033
:101AA00030B50B4C40F2FF153120FFF77FFF20705F
:101AB0006068401C6060207810B96068A842F3D16B
:101AC0003120FFF773FF002800D0012030BD000057
:101AD000100000207047000002490A8882430A80F3
:101AE00070470000042800402DE9F04700F060F83E
:101AF000DFF8AC800546B0FBF8F32A482A4E01888F
:101B000099422CD0038040F2B2744FF4B7774FF46F
:101B1000B6790CE02046FFF75FFB20B1BB4208D34B
:101B2000A3F5B77301E0A3F26D13641CA4B24B4597
:101B3000F0D8B48000241D4F0BE0B088FFF74CFBB9
:101B400008B1012C28D0385D984204D81B1A641CB7
:101B5000A4B21C2BF1D2641CB4715B1CF371B5FBF5
:101B6000F8F108FB11504FF46161B0FBF1F23270F3
:101B7000B0FBF1F201FB12033C22B3FBF2F37370F2
:101B8000B0FBF1F301FB1300B0FBF2F102FB11001B
:101B9000B0700020BDE8F0871D2BDCD31D3BD6E7DD
:101BA000805101001A0000209C020020B03600087D
:101BB000034800880249091F098840EA014070472C
:101BC0001C28004006490988C2B21140044A121F6D
:101BD0001288024202D009B10120704700207047EC
:101BE0000428004010B50120FFF7ECFF08B1FFF713
:101BF0007BFF0220FFF7E6FF10B10220FFF76CFF2A
:101C00000520FFF769FFBDE8104000F001B80000B3
:101C1000024801888906FCD570470000042800406E
:101C2000F0B5002105282AD2DFE800F02903080ECC
:101C300013001548134BA0F5887210E0114B1348A0
:101C40005B1CA0F622320AE00E4B11489B1C114A85
:101C500005E00C4B0F4ADB1CA3F61720921C002654
:101C60000A2701EBC11510F8154024B1641E00F8D5
:101C7000154017801E70491CC9B20A29F1D30020F3
:101C8000F0BD0000C0350020700D0020841700203A
:101C900098210020640C00200B494FF00402088AB0
:101CA000430606D5094B1A6020F040000882012047
:101CB00008E0030607D5054B1B1D1A6020F08000C5
:101CC0000882002088827047580C0020100C0140C8
:101CD0007047704770477047704770B590F87E2026
:101CE000002100F18203002A7CD00568521ED2B286
:101CF000AD684FF6FF748688354200D00121002A76
:101D0000F2D08568521ED2B2AD6804EA41018689DC
:101D1000354201D041F00101002A63D00569521E0D
:101D2000D2B2AD6804EA4101868A354201D041F061
:101D30000101002A56D08569521ED2B2AD6804EA6C
:101D40004101868B354201D041F00101002A49D082
:101D5000056A521ED2B2AD6804EA4101868C354252
:101D600001D041F00101002A3CD0856A521ED2B256
:101D7000AD6804EA4101868D354201D041F0010190
:101D8000002A2FD0056B521ED2B2AD6804EA410181
:101D9000868E354201D041F001011AB3856B521E87
:101DA000D2B2AD6804EA4101868F354201D041F0DC
:101DB0000101BAB1056C521ED2B2AD6804EA41010C
:101DC000B0F84460354201D041F0010152B1856C58
:101DD000521ED2B2AD6804EA4101B0F84C603542FF
:101DE00003D000E041E041F00101F2B3056D521E65
:101DF000D2B2AD6804EA4101B0F85460354201D076
:101E000041F001018AB3856D521ED2B2AD6804EA79
:101E10004101B0F85C60354201D041F0010122B3CC
:101E2000056E521ED2B2AD6804EA4101B0F864609A
:101E3000354201D041F00101BAB1856E521ED2B2D5
:101E4000AD6804EA4101B0F86C60354201D041F060
:101E5000010152B1056F521ED2B2AD6804EA4101D0
:101E6000B0F87460354203D000E00CE041F00101AD
:101E70004AB1826F04EA41019268B0F87C40224284
:101E800001D041F00101C94389B21980A0F8801046
:101E9000084670BD70B590F87E204FF6FF749440F0
:101EA000002100F18203A4B2002A7DD00568521EF1
:101EB000D2B2AD688688354200D00121002A73D0A5
:101EC0008568521ED2B2AD688689354201D041F094
:101ED0000201002A68D00569521ED2B2AD68868A16
:101EE000354201D041F00401002A5DD08569521EBF
:101EF000D2B2AD68868B354201D041F00801002A8C
:101F000052D0056A521ED2B2AD68868C354201D0DD
:101F100041F01001002A75D0856A521ED2B2AD6818
:101F2000868D354201D041F02001002A6AD0056B30
:101F3000521ED2B2AD68868E354201D041F04001CA
:101F400092B3856B521ED2B2AD68868F354201D0F6
:101F500041F0800142B3056C521ED2B2AD68B0F8B8
:101F60004460354201D041F48071EAB1856C521E63
:101F7000D2B2AD68B0F84C60354201D041F4007186
:101F800092B1056D521ED2B2AD68B0F854603542C0
:101F900001D041F480613AB1856D521ED2B2AD6874
:101FA000B0F85C60354200E02CE001D041F4006103
:101FB00042B3056E521ED2B2AD68B0F864603542CD
:101FC00001D041F48051EAB1856E521ED2B2AD68A3
:101FD000B0F86C60354201D041F4005192B1056F08
:101FE000521ED2B2AD68B0F87460354201D041F4EF
:101FF00080413AB1826F9268B0F87C502A4201D099
:1020000041F400412143C94389B21960A0F880100E
:10201000084670BDFFF7F2BBF8B506460024052E52
:1020200024D2DFE806F0230305070900104D04E081
:10203000104D02E0104D00E0104D04EBC41015F8F7
:10204000101079B105EB4001B1F80500ADF80000C2
:10205000C8798DF8020030460099FEF757FC3046EB
:10206000FFF7DEFD641CE4B20A2CE6D30020F8BDC5
:10207000700D00208417002098210020AC2B002038
:1020800010B50C4C208910B90120FEF7A1FB608926
:1020900010B90220FEF79CFBA08910B90320FEF7BF
:1020A00097FBE089002804D1BDE810400420FEF72A
:1020B0008FBB10BD580C0020F8B50D464178044682
:1020C000081F86B2601C491CFEF706FBADF8000035
:1020D000A019BDF80010C1807F2101722888F8BDC9
:1020E00070B590F87E500446002D7CD0A188206801
:1020F000FEF77CFE6D1E15F0FF057DD0A189A0685E
:10210000FEF774FE6D1E15F0FF0575D0A18A2069DB
:10211000FEF76CFE6D1E15F0FF056DD0A18BA0695A
:10212000FEF764FE6D1E15F0FF0565D0A18C206AD8
:10213000FEF75CFE6D1E15F0FF055DD0A18DA06A57
:10214000FEF754FE6D1E15F0FF0555D0A18E206BD5
:10215000FEF74CFE6D1E15F0FF054DD0A18FA06B54
:10216000FEF744FE6D1E15F0FF0545D0B4F844108F
:10217000206CFEF73BFE6D1E15F0FF053CD0B4F859
:102180004C10A06CFEF732FE6D1E15F0FF0533D02B
:10219000B4F85410206DFEF729FE6D1E15F0FF05F2
:1021A0002AD0B4F85C10A06DFEF720FE6D1E15F06D
:1021B000FF0521D0B4F86410206EFEF717FE6D1EE7
:1021C00015F0FF0518D0B4F86C10A06EFEF70EFEE7
:1021D0006D1E15F0FF050FD0B4F87410206FFEF7D8
:1021E00005FE6D1E00E007E015F0FF0F04D0B4F807
:1021F0007C10A06FFEF7FAFD2046BDE87040FFF7A7
:1022000049BE00F06BB8000010B504002BD0164892
:10221000FFF782FB4FF0E021086920F0020008611F
:10222000086920F001000861086920F004000861D5
:102230000D480E4A0068B0FBF2F06043486108693F
:1022400040F002000861086940F0010008610020C8
:102250008861086940F0020008614A690448026028
:10226000096989B2416010BDA802002000127A00FD
:102270001C00002010B504002BD01648FFF74CFBC3
:102280004FF0E020016921F002010161016921F0B4
:1022900001010161016921F0040101610D494FF45F
:1022A000FA520968B1FBF2F14161016941F00101A3
:1022B00001610022826181690029FCD081690029C5
:1022C000FCD1641EF7D104490B68436182614968FF
:1022D000016110BDA80200201C00002000F0B7B969
:1022E000704770477047704710B500F02CF8BDE894
:1022F00010400121014800F023B80000002C0140EB
:1023000010B500F020F80121BDE81040880700F06A
:1023100017B8000010B500F016F8BDE81040012114
:10232000014800F00DB800000004004000F00BB8B8
:1023300070477047704770477047704700F003B8A8
:10234000C9430182704700F082B900000F49088933
:1023500008B1401E0881488908B1401E488188891B
:1023600008B1401E8881C88908B1401EC881C8884C
:1023700008B1401EC880488808B1401E488088883F
:10238000002801D0401E888070470000580C0020B3
:1023900000F05DB900F05BB970B51D4D40F22664E8
:1023A0002146284600F0CFF8B0B12146284600F07B
:1023B00074F8284600F0E6FC70B1284600F026FBD1
:1023C000040024D0002100F09FFE0121204600F0EF
:1023D0008BFE284600F08AFF40F22444214628461E
:1023E00000F0B1F8002812D02146284600F055F838
:1023F000284600F0C7FC002809D0284600F006FB5C
:10240000002804D02846BDE8704000F0F5BE70BD3D
:102410000038014070B51D4D40F226642146284623
:1024200000F091F8B0B12146284600F036F8284671
:1024300000F0A8FC58B1284600F0E8FA040023D0C8
:10244000002100F061FE0121204600F04DFE2846EB
:1024500000F04CFF40F224442146284600F073F877
:10246000002811D02146284600F017F8284600F031
:1024700089FC20B1284600F0C9FA002804D028467B
:10248000BDE8704000F0B8BE70BD000000440040E0
:1024900000F0DDB8C943018070470A0A012191406C
:1024A000C943018070470029818902D041F400515D
:1024B00001E021F4005181817047002A828A01D015
:1024C0000A4300E08A43828270470000184A10B530
:1024D000811A131590421BD007DC1649401814D0FE
:1024E000984223D10121040217E0994213D0B1F59B
:1024F0006C4F1BD101218C032046FFF773F9204656
:10250000BDE810400021FFF76DB901214C0404E043
:102510000121CC0401E001210C052046FFF74AF916
:102520002046BDE810400021FFF744B910BD00006F
:10253000004C004000BCFFBF0246002012880A4247
:1025400000D00120704770B501F01F05012600245E
:10255000C1F3421306FA05F2012B0FD0022B0FD064
:10256000838A4FEA11210088134206FA01F600EA35
:10257000060001D000B10124204670BD8389F0E738
:10258000038AEEE710B5C1F3421301F01F040121E5
:10259000A140012B07D0022B07D01430002A02687B
:1025A00005D00A4304E00C30F8E71030F6E78A4320
:1025B000026010BD30B50446008A85B00D464CF669
:1025C000FF710840E98801432182A0894EF6F3118A
:1025D0000840A9882A8911436A8902431143A181CD
:1025E000A08A4FF6FF410840A9890143A1826846AD
:1025F000FFF792F91148844201D1039800E0029854
:10260000642200EBC00101EB001029686FF018058F
:102610008900B0FBF1F0B0FBF2F109010B096B434B
:1026200000EB8300322303EB0010B0FBF2F000F06C
:102630000F000843208105B030BD00000038014084
:102640007047704770477047FEE7FDF7D5BD10B57E
:10265000FEF7A4FEBDE81040FDF7E0BD704702E0C4
:1026600008C8121F08C1002AFAD17047704700201D
:1026700001E001C1121F002AFBD1704730B5134B96
:102680000A2405289A7D0AD2DFE800F009030A111E
:10269000180042F0010061F3410098751C8130BDC3
:1026A00042F0040061F3C30098755C8130BD42F0D4
:1026B000100061F3451098759C8130BD42F04000D8
:1026C00061F3C7109875DC8130BD0000580C002004
:1026D000002805D0807800F03F00012800D00020BD
:1026E000704700002DE9F041064600211B4C0846CA
:1026F000621892F820200AB1401CC0B2491CC9B22D
:102700000429F5D3154F1649103F0025E0B10D807F
:1027100007F134010422081FFDF74DFD28B1386B85
:102720003060386BC7E90C5009E0B4F8AE00411CCA
:10273000A4F8AE10B0F5FA6F0ED9386B3060A4F87B
:10274000AE500420BDE8F0810888421C0A80B0F534
:10275000967F01D90D807D630020F3E7A00B002058
:102760004800002010B50146B8220748FDF7EEFCEE
:102770000548002180F8A91020F8AA1F4180C0F860
:102780000610817210BD0000A00B002010B51D4C7A
:10279000E069002834D02068002831D000F0B6FB72
:1027A00094F8A90040B3B4F8AA004FF49671401C05
:1027B00080B2B0FBF1F2A4F8AA0001FB12000028DD
:1027C0001ED10021A4F8AA10103CAA20207061702C
:1027D0000320A0702520E070262020716171052162
:1027E000601CFDF765FFA071BB20E0712046BDE8CD
:1027F0001040082100F046BCBDE8104000F0BCBB12
:1028000010BD0000A00B002070B5044615460E4612
:10281000006800F099FE3146206800F019FF294653
:10282000206800F0C7FD0121206800F091FD2046DE
:1028300000F036FC606810B12189FEF7FBFAE06811
:1028400010B1218AFEF7F6FA606910B1218BFEF70C
:10285000F1FA0021204600F057FC2046BDE8704008
:10286000012100F041BC70B5046805460E462046C3
:1028700000F028FA50B10021284600F045FC012163
:10288000284600F031FC204600F08EF8204600F08B
:1028900091F9002805D031462046BDE8704000F08F
:1028A00029B970BD2DE9F041044615460E460027B2
:1028B000006800F007FA88B1206800F07BF968B181
:1028C0000121204600F020FC0021204600F00CFCF5
:1028D0002A463146206800F0C1FC07463846BDE86C
:1028E000F08170B516460C46054600F02DFE2146D7
:1028F000284600F0ADFE31462846BDE8704000F0A5
:1029000059BD70B50E460546002400F053F938B1A4
:102910003146284600F0EEF80446284600F012F84A
:10292000204670BD70B514460D46064600F0CAF943
:10293000002806D0224629463046BDE8704000F007
:102940008DBC70BD124A1349904203D10A7822F01F
:1029500001020A70104A904203D10A7822F0020262
:102960000A700E4A904203D10A7822F004020A70DB
:102970000B4A904203D10A7822F008020A70094AF1
:10298000904203D1087820F01000087000207047B2
:10299000003801402600002000440040004800406C
:1029A000004C004000500040124A1349904203D1AD
:1029B0000A7822F001020A70104A904203D10A7884
:1029C00022F002020A700E4A904203D10A7822F0E5
:1029D00004020A700B4A904203D10A7822F00802DE
:1029E0000A70094A904203D1087820F0100008705C
:1029F00000207047003801402500002000440040BE
:102A000000480040004C00400050004010B5044613
:102A100000F0B8F9002804D00C490D488C4201D1CF
:102A2000006810BD0B498C4201D1406810BD0A49B5
:102A30008C4201D1806810BD08498C4201D1C06828
:102A400010BD07498C42FBD1006910BD0038014020
:102A50007C0B00200044004000480040004C004037
:102A6000005000400B4A0C49904201D10888704741
:102A70000A4A904201D148887047094A904201D1E0
:102A800088887047074A904201D1C8887047002063
:102A9000704700000038014028000020004400403A
:102AA00000480040004C00400A49884201D10A48D1
:102AB00070470A49884201D109487047094988424C
:102AC00001D1094870470949884201D10848704737
:102AD0000020704700380140BC0200200044004044
:102AE000D403002000480040EC040020004C0040CB
:102AF000040600202DE9F04789461B490746884215
:102B00002FD000282BD0FFF7CFFF80463846FFF7A5
:102B1000A9FF0646384600F029F804464068301AF6
:102B200005042D0C1DD0206820F0010020602A46ED
:102B300041464846FDF70AFBC4F80C8066602068F1
:102B400040F0010020604FF6EF70388000213846D9
:102B500000F0EAFA3146384600F026FB2846BDE888
:102B6000F0870020FBE70000005000400B4988423E
:102B700001D10B4870470B49884202D108481430F4
:102B800070470949884202D10548283870470749EB
:102B9000884201D106487047002070470038014044
:102BA000580002400044004000480040004C0040F3
:102BB000300402402DE9F0410446FFF753FF06467A
:102BC0002046FFF7D3FF4068102185B22046FFF76B
:102BD000B3FC20B110212046FFF75CFC37E0ADB319
:102BE000B54234D03ED22048204B2149214A224EC2
:102BF000844201D11B880CE08C4201D15B8808E043
:102C0000944201D19B8804E0B44201D1DB8800E00A
:102C10000023164F0837844201D13A880CE08C42D9
:102C200001D17A8808E0944201D1BA8804E0B44224
:102C300001D1FA8800E000229D420BD1022A06D879
:102C4000521C91B2204600F06FFA0BE0FFE7012022
:102C5000BDE8F0810021204600F066FA29462046B2
:102C600000F0A2FA0020F3E7003801403000002015
:102C70000044004000480040004C00400B4988429E
:102C800001D10B4870470B49884202D108483C30BB
:102C900070470949884202D10548283870470749DA
:102CA000884201D106487047002070470038014033
:102CB000440002400044004000480040004C0040F6
:102CC0005804024070B5054629482A49854201D179
:102CD0000C880FE0284A954201D14C880AE0274A27
:102CE000954201D18C8805E0254A954201D1CC88D6
:102CF00000E000242846FFF7C1FF06464021284691
:102D0000FFF71AFC80B10021284600F02DFA0021BF
:102D10003046FDF76BFE40212846FFF7BBFB8021C4
:102D20002846FFF7B7FB05E03068C00702D070689F
:102D300010B10DE0012070BD80212846FFF7FCFB9B
:102D400030B1022C06D2641CA1B2284600F00CFA65
:102D5000002070BD00213046FDF748FE8021284646
:102D6000FFF798FB0021284600F0FEF9E2E700009B
:102D7000003801404000002000440040004800406E
:102D8000004C004010490F4A0978904202D101F0EE
:102D9000010070470D4A904202D1C1F340007047D4
:102DA0000B4A904202D1C1F380007047094A904219
:102DB00002D1C1F3C0007047074A9042FBD1C1F372
:102DC00000107047003801402400002000440040FB
:102DD00000480040004C00400050004010B50C4638
:102DE00000F004F8002800D0208810BDF8B50700D6
:102DF00008880D46ADF8000017D0002682B27E216B
:102E00003846FDF7CEF90446BDF800207F21FDF7D6
:102E1000C8F94CB140B1BDF80010E01B081A80B2EF
:102E2000ADF80000072802D22E800020F8BD6946C8
:102E30002046FDF70DFC20B1BDF80000288020469B
:102E4000F8BDBDF80000671C401EADF80000D5E7D6
:102E50002DE9F0472C4F97F8A800002843D0002414
:102E6000A7F1100907F1280AA04623E03D1995F8BB
:102E70002800AA281CD195F82A106018021D802A63
:102E800001D987F8A880C61996F82C00BB280FD165
:102E900005F12900891CFDF70BFC96F82B108142E7
:102EA00006D1012087F8A90095F82A0006281CD031
:102EB000641CE4B297F8A800A042D7D87E2C05D3B2
:102EC00080215046FDF75BF987F8A880B7F8AC0081
:102ED000411CA7F8AC1040F2DC51884203D9C9F874
:102EE0003080A7F8AC80BDE8F08739195046D1F89A
:102EF0002D10C9F830108021FDF741F907F8A88F8F
:102F0000A7F80480EFE70000A00B002030B591B0D7
:102F100069461848FFF7A7FC164D04004FF0000162
:102F200018D095F8A8002044802806D9A5F11000F3
:102F300085F8A8100163A5F8AC100E4815F8A81F75
:102F40002830084422466946FDF700F928782044D5
:102F500028700AE0B5F8AC00421CA5F8AC2040F29D
:102F6000DC52904201D385F8A910FFF771FF11B030
:102F700030BD0000A00B00202DE9F041FFF7C6FF97
:102F80003F4D95F8A900002873D1B5F8AA0040F28A
:102F9000DC510026884201D3A5F8AA60B5F8AA1032
:102FA0004FF49670B1FBF0F200FB121C40014FF49D
:102FB0006144420083006700BCF1000F02D0322957
:102FC00028D052E095F8B410A9B1012916D00229F1
:102FD00017D0032918D0042919D0E869C5F8B00022
:102FE00085F8B46080222648D5F8B010FFF70CFCB5
:102FF000A5F8AA6039E0C5F8B000F3E7C5F8B0203D
:10300000F0E7C5F8B030EDE7C5F8B040EAE7C5F83D
:10301000B070E7E7D5F81CC000219C452BD005DC3B
:10302000844508D0944506D1012104E0A44524D06C
:10303000BC4500D10421124CAA20103C20706670BF
:103040000220A0708120E07021710421601CFDF736
:103050002FFB6071BB20A0710721204600F012F801
:1030600095F8B400401C85F8B40035F8AA0F401C50
:103070002880BDE8F0810221DDE70321DBE70000C5
:10308000A00B00200A4601460148FFF70BBC0000D8
:10309000A00B0020FFF7D9FAFEF780F9FCE700004B
:1030A0000B4B01680B4A994200D110600A4B9942C0
:1030B00000D15060094B994200D19060084B994271
:1030C00000D1D060074B994200D1106170470000D9
:1030D000003801407C0B00200044004000480040C4
:1030E000004C004000500040426922B1038B09B1FE
:1030F000536100E013614268002A02D0008909B1DF
:103100005061704710617047C26822B1038A09B1EB
:10311000136100E053614268002A02D0008909B1BE
:1031200010617047506170470A4B0B4A984201D1B9
:1031300011800DE0094B984201D1518008E0084B05
:10314000984201D1918003E0064B984200D1D18092
:103150000846704700380140380000200044004015
:1031600000480040004C00400A4B0B4A984201D1F5
:1031700011800DE0094B984201D1518008E0084BC5
:10318000984201D1918003E0064B984200D1D18052
:1031900008467047003801404000002000440040CD
:1031A00000480040004C00404FF48C72914200D91E
:1031B00011460C4B0C4A984201D111800DE00B4B8B
:1031C000984201D1518008E0094B984201D1918089
:1031D00003E0084B984202D1D18008467047002096
:1031E00070470000003801403000002000440040DB
:1031F00000480040004C0040124A1349904203D15D
:103200000A7842F001020A70104A904203D10A780B
:1032100042F002020A700E4A904203D10A7842F04C
:1032200004020A700B4A904203D10A7842F0080265
:103230000A70094A904203D1087840F010000870E3
:103240000020704700380140260000200044004064
:1032500000480040004C0040005000402DE9F04183
:10326000154688460446FFF7FDFB0746174884428B
:1032700001D1174E0FE017498C4201D1164E0AE0DA
:1032800016498C4201D1164E05E016498C4201D1F7
:10329000154E00E000262046FFF7F0FC0446BD4234
:1032A00002D90020BDE8F0812A4641463046FCF7AD
:1032B0004DFF206820F0010020606560E660206816
:1032C00040F0010020602846ECE700000038014093
:1032D0001C07002000440040340800200048004043
:1032E0004C090020004C0040640A0020124A134997
:1032F000904203D10A7842F001020A70104A9042CB
:1033000003D10A7842F002020A700E4A904203D1B9
:103310000A7842F004020A700B4A904203D10A78FC
:1033200042F008020A70094A904203D1087840F03E
:103330001000087000207047003801402500002070
:103340000044004000480040004C00400050004055
:10335000124B134A984203D1137861F300031370A0
:10336000104B984203D1137861F3410313700E4B55
:10337000984203D1137861F3820313700B4B984288
:1033800003D1137861F3C3031370094B984203D13F
:10339000107861F30410107070470000003801408D
:1033A000240000200044004000480040004C004041
:1033B000005000402DE9F04F8DB00C460546FFF758
:1033C00073FB06464FF48C700CB1844200D904465E
:1033D00055495648DFF85881DFF85891564F8D42CD
:1033E00001D104800CE0454501D1448008E04D4501
:1033F00001D1848004E0BD4201D1C48000E00024FA
:10340000A2462846FFF73AFC0B902846FFF7AEFB92
:103410000C90002E7BD00B98002878D00C980028B8
:1034200075D0E81B4FF48061BD420ED005DC4348E7
:10343000281807D088420CD104E0884267D0B0F544
:103440006C4F06D10121084601E001210220FEF760
:1034500099F900241020CDE902048020CDE9044030
:1034600005F1040B069480010A94CDE90840CDE9EA
:1034700000B6079469460B98FDF7DAFACDF800B06C
:10348000CDF80CA0CDE901648020CDE90440800195
:10349000CDE908400794069469460A940C98FDF714
:1034A000C7FA00210B98FDF7A1FA01210C98FDF74E
:1034B0009DFA012240212846FEF7FFFF01228021CC
:1034C0002846FEF7FAFF002202210B98FDF7A8FA22
:1034D000154CA54201D1A0140BE0454502D14FF097
:1034E000807006E04D4501D1102002E0BD4202D1BE
:1034F0001348FDF76FFAA54203D14FF4803004E082
:1035000005E0454506D14FF48010FDF763FA0DB094
:10351000BDE8F08F4D4502D14FF48070F5E7BD4214
:10352000F5D10848F1E700000038014028000020EC
:103530000044004000480040004C004000BCFFBF79
:1035400000000110000100102DE9F8430025394A60
:10355000DFF8E4C0811ADFF8E48013152C462F460B
:103560002E464FF4006990424ED019DC3449401881
:103570003FD0984226D1334F01213E461D464C464E
:103580000846FEF723F901212F48FDF757FD0121D9
:103590000820FEF71BF901218804FEF7FFF811E06F
:1035A00099423CD0B1F56C4F0CD1674666464FF45A
:1035B00000751C4601210520FEF708F9012188034A
:1035C000FEF704F9ADF8005018208DF80300032031
:1035D0008DF8020069463846FDF7E0FCADF8004082
:1035E00048208DF8030069463046FDF7D7FCBDE85A
:1035F000F883042567466646082401212846FEF71D
:10360000E5F801214804C8E7474646461D464C46B2
:1036100001211120FEF7DAF80121C804BDE7474671
:103620000A4E1D46042401213120FEF7CFF8012166
:103630000805B2E7004C00400008014000100140BE
:1036400000BCFFBF000C014000023000001401402C
:103650007FB50C460546FEF739FF0021ADF808108E
:10366000ADF804100C20ADF80610ADF80A00ADF866
:103670000C10009469462846FEF79CFF40F2244453
:10368000002221462846FEF77DFF21462846FEF708
:1036900004FF01212846FEF706FF7FBD020406084D
:1036A00000000000010203040102030406070809E8
:1036B0001F1C1F1E1F1E1F1F1E1F1E1F7E3D09FFDA
:1036C000FFFF010B4C4344CFD4CABEB2E2CAD402BE
:1036D0000341D0CD030239390408B2E2CAD4B1F0B3
:1036E000C3FB050AB9E3D6DDB0D7D4C6C9BD06070A
:1036F000544553542D30310702B8F62F7E7F000019
:103700002037000800000020580000005E26000856
:103710007837000858000020703900006E26000835
:103720000000000000000000000000000000000099
:103730000000000000000000000000000000000089
:103740000000000000000000000000000000000079
:103750000000000000000000000000000000000069
:10376000000000000000000000007E028100B05058
:083770007F7E020100D1907F71
:0400000508000131BD
:00000001FF
