:020000040800F2
:10000000B86C002045010008C50F00081D0E00084F
:10001000C30F00084D060008C925000800000000B5
:100020000000000000000000000000006D1A000841
:100030009908000800000000C7130008471F0008C7
:10004000DD250008C70F0008BD1F0008291800089B
:10005000910A0008851600089B080008A3080008FC
:10006000A7080008AB080008AF08000855070008FB
:10007000590700085D0700086107000865070008C8
:10008000690700086D0700084D050008C525000830
:10009000C72500084F06000851060008B3080008ED
:1000A000BF1F0008C51F0008C31F0008C11F0008AC
:1000B000DD1F0008F11F000809200008210E0008BC
:1000C0001F0E0008250E0008230E00086718000800
:1000D0006918000819230008952300081124000856
:1000E0009F08000819170008C325000813200008FE
:1000F0001920000817200008152000084F050008E7
:10010000C50A0008651800080D2000086B180008D3
:1001100011230008152300080F20000811200008F3
:100120007107000875070008790700087D070008B7
:10013000DFF80CD000F0F8F900480047C93100089A
:10014000B86C0020004800473101000840EA010374
:100150009B0703D009E008C9121F08C0042AFAD27D
:1001600003E011F8013B00F8013B521EF9D2704741
:10017000D2B201E000F8012B491EFBD270470022E9
:10018000F6E710B513460A4604461946FFF7F0FF96
:10019000204610BDCBB203E00178994203D0401C49
:1001A000521EF9D20020704730B5044600200346A5
:1001B00000E05B1C934203D2E05CCD5C401BF8D0B6
:1001C00030BD2DE9FE4F81EA030404F0004421F024
:1001D000004100944FF0000B23F0004350EA01046B
:1001E0005ED052EA03045BD0C3F30A54C1F30A554C
:1001F0002C44A4F2F3340194A0FB0254C1F3130184
:1002000041F48011C3F3130343F4801301FB024450
:1002100000FB034E840A970A44EA815447EA835755
:10022000A4FB076802958D0A05FB07854FEA932C0E
:1002300004FB0C542705029D4FEA065847EA16377F
:10024000B5EB08056EEB070C870E920E47EA811797
:1002500042EA8312A7FB0201B6EB0B0164EB000438
:100260002B0D43EA0C335E1844EB1C50DA46514622
:10027000E7FB0201C5F313044FEA0B3343EA1453BF
:100280004FEA0432019C43EA0603A4F10C040294F1
:10029000009CCDE900B400F0F9F803B0BDE8F08FA0
:1002A00000200146F9E72DE9F04D81EA030404F04E
:1002B000004B21F0004514464FF0000A23F00041A6
:1002C00050EA050220D054EA01021DD0C5F30A57B6
:1002D0000246C5F31303C1F31300C1F30A5640F4F9
:1002E000801543F48013A7EB0608101BD64608F2CE
:1002F000FD3873EB050002D308F1010801E0921804
:100300005B41B8F1000F03DA00200146BDE8F08D33
:1003100000204FF48011064684460EE0171B73EB55
:10032000050705D3121B63EB050306434CEA010CDA
:1003300049084FEA300092185B4150EA0107EDD1BD
:1003400052EA030012D082EA040083EA050108435E
:1003500005D0101BAB4106D20122002306E000228B
:100360004FF0004302E06FF0010253101AEB060059
:100370004CEB085110EB0A0041EB0B01BDE8F04DCE
:1003800000F075B870B521F0004303430CD0C1F301
:100390000A550024D5EB040564EB0403D617AD1A07
:1003A000B34102DB0020014670BD201841EB025131
:1003B00070BD0EB540F2334102910021CDE900112C
:1003C0000A460B4600F062F803B000BDC1F30A52C2
:1003D00010B5C1F3130140F2FF3341F480119A428A
:1003E00001DA002010BD40F233439A42A2F23342B8
:1003F00003DC524200F02BF810BD904010BD00000D
:1004000030B5041E71F1000404DB4FF0004440429B
:1004100064EB0101141E73F1000405DB1C464FF070
:100420000043524263EB0403994208BF904230BD3F
:10043000202A04DB203A00FA02F1002070479140A4
:10044000C2F1200320FA03F3194390407047202A99
:1004500004DB203A21FA02F00021704721FA02F36E
:10046000D040C2F12002914008431946704710B5B0
:10047000141E73F1000408DA401C41F100019218C7
:100480005B411A4301D120F0010010BD2DE9F04D70
:1004900092469B4611B1B1FA81F202E0B0FA80F2C5
:1004A00020329046FFF7C4FF04460F4640EA0A0098
:1004B00041EA0B0153465A46084313D0114653EA0A
:1004C000010019D0C8F140025046FFF7C0FF0546B1
:1004D0000E46504659464246FFF7AAFF084305D04C
:1004E000012004E020463946BDE8F08D0020054398
:1004F00046EAE0762C4337430A986305E40AA0EB0A
:1005000008000022FD0A44EA47540A3002D50020C0
:100510000146E9E7010510196941DDE908450019BF
:100520006941BDE8F04DA2E7064C074D06E0E068E2
:1005300040F0010394E8070098471034AC42F6D32A
:10054000FFF7FAFDB83B0008D83B0008704770473A
:1005500008B501F029FC1A4D0121284600F02EFBB8
:10056000174C0120143420600421284600F026FB9B
:10057000042020600221284600F020FBA11411482D
:1005800000F00AFB0220206001F010FC00F0F8FCF3
:1005900000F09CF801210C4800F010FB4FF4FA70B9
:1005A0000090002200070346114600F00DFD4FF4B5
:1005B000FA6000F039FC4FF47A7001F0C7FCFEE7F6
:1005C000000C0140001001400008014010B500F08F
:1005D00073FC01F067FE02F08FFA03F031F90F4C63
:1005E000A088411CA1800A280FD90020A080607833
:1005F000401C60700A4801F03DF9094861780068C4
:1006000001F046F9064801F031F900F0D5FE00F09E
:1006100055F8BDE8104000F0ACBC00000000002020
:10062000FC00002010B50146B8220748FFF78EFDF8
:100630000548002180F8A91020F8AA1F4180C0F8C1
:100640000610817210BD0000FC670020FEE77047B5
:100650007047FCB504464FF6FF7700200D46ADF815
:10066000007048F205068DF804001EE014F8010B36
:100670008DF8040001A9084600F051FCBDF8000007
:100680009DF8041080EA0120ADF800000020BDF8BC
:1006900000100A0402D586EA410101E007EA41019F
:1006A000401CADF800100828F1DB6D1EDED2694653
:1006B000084600F01DFCBDF80000FCBD10B502F0BE
:1006C00087F8BDE8104002F0DDB80000F0B54FF447
:1006D00080744FF49647AFB022463946164802F070
:1006E00046F816480090164D8020ADF81800039586
:1006F000ADF81040059568460797FFF793FF12483D
:10070000124E1049C6600160891401824910466189
:1007100001832246394601F0BEFF0B480C491C30CC
:100720002246C6600160048249154561018339464D
:1007300001F0B1FF2FB0F0BD004400400048004080
:1007400000100140004C0040400000200008014023
:100750000038014000F060B800F05EB800F05CB80E
:1007600000F05AB800F058B800F056B800F054B88D
:1007700000F052B800F050B800F04EB800F04CB89D
:10078000C10002D5024908607047024948607047BD
:1007900004040240000002400029016802D041F038
:1007A000010101E021F001010160704702460020D3
:1007B000D10001D5034900E003490968114200D086
:1007C000012070470004024000000240002A026835
:1007D00001D00A4300E08A430260704730B50268E6
:1007E00047F6F0739A430C6A8B682343D1E90445BA
:1007F0002C4323438C692343CC6923434C6A234312
:100800008C6A234313430360CA6842600A688260AB
:100810004968C16030BD000010B501F0D8FE10205D
:10082000FFF7C4FF01281BD04FF480542046FFF788
:10083000BDFF01281AD024032046FFF7B7FF012887
:100840001BD0124C2046FFF7B1FF01281CD12046D7
:10085000FFF796FF0E480021BDE81040FFF79CBF50
:100860001020FFF78DFF00210A48F5E72046FFF72B
:1008700087FF084800212830EEE72046FFF780FF79
:10088000044800216430E7E710BD000000000110BB
:10089000580402401C000240704700F0B1B800F05C
:1008A000AFB800F0ADB800F0ABB800F0A9B800F0F8
:1008B000A7B800F0A5B80000014908607047000023
:1008C0001404014010B5012000F08AF8434C18B11F
:1008D000208840F0010006E0022000F081F820B1FD
:1008E000208840F00200208010BD042000F078F83D
:1008F00018B1208840F00400F5E7082000F070F8F7
:1009000018B1208840F00800EDE7102000F068F8EA
:1009100018B1208840F01000E5E7202000F060F8D2
:1009200018B1208840F02000DDE7402000F058F8A2
:1009300018B1208840F04000D5E7802000F050F842
:1009400018B1208840F08000CDE74FF4807000F0AF
:1009500047F818B1208840F48070C4E74FF4007065
:1009600000F03EF818B1208840F40070BBE74FF467
:10097000806000F035F818B1208840F48060B2E75C
:100980004FF4006000F02CF818B1208840F40060AB
:10099000A9E74FF4805000F023F818B1208840F404
:1009A0008050A0E74FF4005000F01AF818B12088EA
:1009B00040F4005097E74FF4804000F011F818B170
:1009C000208840F480408EE74FF4004000F008F8A3
:1009D000002889D0208840F4004084E710000020DF
:1009E000064A014600201268044B0A4014331B6873
:1009F0000B4202D0002A00D00120704700040140C1
:100A000008B50020ADF80000FFF75CFF01F0DFFD46
:100A10001E48BDF8001001800120FFF74DFF0220A5
:100A2000FFF74AFF0420FFF747FF0820FFF744FFC6
:100A30001020FFF741FF2020FFF73EFF4020FFF787
:100A40003BFF8020FFF738FF4FF48070FFF734FF43
:100A50004FF40070FFF730FF4FF48060FFF72CFF7A
:100A60004FF40060FFF728FF4FF48050FFF724FF9A
:100A70004FF40050FFF720FF4FF48040FFF71CFFBA
:100A8000BDE808404FF40040FFF716BF10000020FB
:100A90007047000004490A6822F010020A600A68E0
:100AA00002430A60704700000020024004490A68BF
:100AB00002F038020A600A6802430A6070470000C8
:100AC00000200240704710B50121084600F0ACFC40
:100AD0000021BDE81040012000F0A6BC70B50C4616
:100AE000002852D0294A811A1315D614904243D0B7
:100AF00014DC2749274D41184FF6FF701BD099424F
:100B000027D0B14241D10121102000F081FC6004C6
:100B100001D4200439D50121112008E099422ED0BA
:100B2000B1422FD0B1F5406F2FD101210802BDE8AD
:100B3000704000F06DBCA10405D4610403D421040D
:100B400001D4844202D1012104200AE001210420C1
:100B5000EDE7210703D4E10601D4844209D1012144
:100B6000092000F055FC2846BDE87040012100F046
:100B700029B901210820DAE701212020D7E7012146
:100B80004020D4E701218020D1E770BD001401404E
:100B900000F8FEBF0002300038B50446ADF8001082
:100BA00002228DF8022048208DF803002046FFF72E
:100BB00095FF6946204600F0B5F838BD38B50446C3
:100BC000ADF8001003228DF8022010208DF80300EC
:100BD0002046FFF783FF6946204600F0A3F838BDA2
:100BE000254A10B5811A1315D41490422ED00DDC6D
:100BF000224940181CD0984221D0A0423BD101216B
:100C0000102000F011FC002110200DE0994224D0AA
:100C1000A14229D0B1F5406F2DD101210C0220460F
:100C200000F002FC00212046BDE8104000F0FCBBB3
:100C30000121042000F0F8FB00210420F4E7012149
:100C4000082000F0F1FB00210820EDE70121202021
:100C500000F0EAFB00212020E6E70121402000F01F
:100C6000E3FB00214020DFE70121802000F0DCFBD6
:100C700000218020D8E710BD0014014000F8FEBF1D
:100C80002DE9F84F684600F0C1F81F4C6946204630
:100C900000F048F81D4D6946284600F043F81C4E08
:100CA0006946304600F03EF81A4F6946384600F073
:100CB00039F8DFF864806946404600F033F8DFF821
:100CC0005C906946484600F02DF8DFF854A069466C
:100CD000504600F027F82046FFF782FF2846FFF72E
:100CE0007FFF3046FFF77CFF3846FFF779FF40462D
:100CF000FFF776FF4846FFF773FF5046FFF770FF98
:100D0000FFF7E1FEBDE8F88F00080140000C01404C
:100D1000001001400014014000180140001C014077
:100D200000200140F0B50022002849D0CC7804F022
:100D30000F03E40601D58C7823430C784FF00F0C99
:100D400014F0FF0F4FF0010E1AD005680E880EFA4E
:100D500002F42640A6420FD196000CFA06F725EAC7
:100D6000070703FA06F5CE783D43282E00D14461EB
:100D7000CE78482E00D10461521C082AE6D30560C3
:100D80000A88FF2A1CD94468002202F108060EFADC
:100D900006F50E882E40AE420ED196000CFA06F7EC
:100DA000BC4303FA06F7CE783C43282E00D14561B8
:100DB000CE78482E00D10561521C082AE5D3446044
:100DC000F0BD0000F0B5104D6B68440D260184B2F3
:100DD000C0F30157B440C0F30342032F05D0C00253
:100DE0000AD503209040834307E0686823F07062CF
:100DF00020F07060686002E0A34343F0706201B1CC
:100E000022436A60F0BD0000000001404FF6FF7110
:100E10000180022181700421C1707047FEE7704794
:100E2000704770477047000070B500EB80010325E4
:100E3000C90047F6F872B2EB910F03D900EB8000BE
:100E400080031AE04FF6F072B2EB910F04D904253B
:100E500000EB8000400310E0114AB2EB910F04D97F
:100E6000052500EB8000000307E00E4AB2EB910F6E
:100E700005D9062500EB8000C002040C00D1012436
:100E800045F2555000F02EF8284600F01FF8204695
:100E900000F022F800F012F8BDE8704000F004B84D
:100EA000E0FF0100C0FF030002494CF6CC4008609F
:100EB0007047000000300040AFF3008002494AF65E
:100EC000AA200860704700000030004001494860D7
:100ED0007047000000300040014988607047000002
:100EE00000300040014908607047000000300040B9
:100EF00070B500220C8862F30F03012606FA02F592
:100F00002C4207D0C2F10F0506FA05F143EA0105AC
:100F100065F30F03521C102AF0DB038070BD70B51F
:100F200000220C7862F30703012606FA02F52C4230
:100F300007D0C2F1070506FA05F143EA010565F39A
:100F40000703521C082AF0DB037070BD81070CD127
:100F50006421B0FBF1F201FB120141B94FF4C871F9
:100F6000B0FBF1F201FB120008B100207047012034
:100F7000704710B502F04CF8BDE8104002F082B89E
:100F80000A48094910220160094941600281202272
:100F9000C1600282402241610283C16180210184DB
:100FA0002821418400F092BC00300140FC00002068
:100FB0000008014010B5FFF77FFFBDE8104001F0C9
:100FC000FFBAFEE7704770472DE9FF5F90B0934688
:100FD0000025E94A10988946FF24811ADFF89CA36E
:100FE000D3142E46A8462F464FF4806C90427CD0F6
:100FF0000CDCB0F1804F32D0E14940184AD0604556
:1010000064D098425BD1012108207FE0B1F5806F68
:101010007FD0B1F58E3F03D0B1F5923F4FD17BE049
:101020000121C80200F0F4F95FEA090007D00128A5
:1010300009D002280BD0B9F1030F71D10BE055464E
:101040004FF480743AE055464FF4007436E055464C
:101050004FF4806432E055464FF400642EE00121E5
:10106000084600F0BDF95FEA090007D0012808D062
:10107000022809D0B9F1030F52D108E055460124E6
:101080001CE05546022419E05546042416E0554656
:10109000082413E00121022000F0A2F95FEA090010
:1010A00007D0012808D002280AD0B9F1030F37D1A0
:1010B00009E05546402401E05546802404262FE0EF
:1010C000B04D01241EE0AF4D02241BE0012104209D
:1010D00000F086F95FEA090009D001280AD0022849
:1010E0000BD0B9F1030F1BD10AE00DE011E0A54DC3
:1010F000402407E0A34D802404E0A24DAC1501E09C
:10110000A04D6C1508260BE00121102000F068F9B5
:1011100006E001212020F9E70121480300F078F9D9
:101120000121084600F074F90121304600F070F901
:10113000ADF8304003208DF8320018208DF83300D0
:101140000CA92846FFF7EEFD07A800F007FA8E4C21
:1011500010988E4D84434EF660265A46002029464C
:10116000139BFFF7A0F88A4BCDE90D01FCB109985C
:101170002C46824600221D460D98FFF741F918D2F1
:101180000022844B58461399FFF71BF804460D467E
:101190005046FFF70EF922462B46FFF784F8B0467B
:1011A00000227D4BFFF77FF800227C4B1FE00A985E
:1011B000DEE7DDE90D0123460022FFF721F94FF0BC
:1011C000000217D22B4658461399FEF7FAFF044641
:1011D0000D465046FFF7EDF822462B46FFF763F821
:1011E000B04600226C4BFFF75EF800226C4BFEF716
:1011F000E8FF49E02646234658461399FFF700F9D1
:1012000045D85046FFF7D5F85A46139BFFF74BF8E1
:101210000122FFF7B7F804460D460022614BFFF7A5
:10122000EFF804D84FF4FA6800225F4B28E0002260
:101230005E4B20462946FFF7E3F804D84FF0C80874
:101240000022564B1CE00022594B20462946FFF74E
:10125000D7F804D84FF014080022514B10E00022B8
:10126000544B20462946FFF7CBF805D84FF002082B
:1012700000224FF0804303E04FF001080022334684
:1012800020462946FFF70FF8FFF7A0F887B2A8F12C
:101290000100ADF81000781EADF814000024ADF880
:1012A0001640ADF8124004A9109800F0DDFF1E981A
:1012B00047434FF47A70874203D9B7FBF0F080B20E
:1012C00002E01E9808B101201E906020ADF80000D9
:1012D0001E98ADF806000120ADF80200ADF80840F8
:1012E0005FEA090007D001280AD002280DD0B9F121
:1012F000030F13D10EE06946109800F0B3FE0DE025
:101300006946109800F0E4FE08E06946109800F085
:1013100029FF03E06946109800F068FF012110984A
:1013200000F095FE5FEA090007D001280AD00228E4
:101330000DD0B9F1030F13D10EE00821109800F081
:10134000C1FE0DE00821109800F002FF08E008211E
:10135000109800F045FF03E00821109800F078FF96
:101360000121109800F05AFE0121109800F064FE4F
:1013700014B0BDE8F09F00000010004000080140DC
:1013800000FCFFBF000C0140000001400000F03FE6
:101390000000244000005940004CED40000069402E
:1013A00000003440D012634100409F4080842E41B1
:1013B000006AF84040FFEF4010B501F00BFFBDE8B8
:1013C000104001F059BF7047044A0029516901D00B
:1013D000014300E08143516170470000001002406A
:1013E000044A0029D16901D0014300E08143D16161
:1013F0007047000000100240044A0029116901D022
:10140000014300E081431161704700000010024079
:10141000044A0029916901D0014300E081439161B0
:101420007047000000100240044A0029D16801D032
:10143000014300E08143D16070470000001002408A
:1014400070B5002400F06CF84FF48035284600F0A9
:10145000F9F8681E2146641C8142FBD300F042F972
:10146000012803D0BDE8704000F025B81020FFF738
:1014700011FB0220FFF71AFB002000F0D9F8002032
:1014800000F00CF94FF4806000F0FEF84FF4E0112A
:10149000284600F013F9012000F00AF9392000F085
:1014A000A7F80028FAD0022000F012F900F0B8F8EE
:1014B0000828FBD170BD10B500F032F8012000F013
:1014C000DBF8202000F094F80028FAD0002000F08B
:1014D000AFF8002000F0E2F84FF4806000F0D4F89C
:1014E0000220FFF7E3FA1020FFF7D4FA4FF460115F
:1014F000002000F0E3F8012000F0DAF802E002201A
:1015000000F0E6F8392000F073F80028F7D000F07A
:1015100087F80828FBD1BDE81040FFF7B1BB0000F9
:101520000B48016841F0010101604168094A11401E
:1015300041600168084A11400160016821F480217E
:101540000160416821F4FE01416000218160704723
:10155000001002400000FFF8FFFFF6FE30B5204A01
:101560005168204B11F00C0103D0042901D0082947
:1015700001D0036011E05168022301F4701103EB04
:101580009141536813F4803F02D053689B0301D507
:10159000154B00E0134B5943016051680F2303EAD8
:1015A0001111124B5C5C0168E140416054680725F1
:1015B00005EA14241C5D21FA04F48460546805EAE9
:1015C000D4241B5DD940C1605268032303EA9232E0
:1015D000064B1B1F9A5CB1FBF2F1016130BD0000AC
:1015E0000010024000127A0000093D009C3B0008F8
:1015F000034600205909094A01290AD002290AD0C4
:10160000516A03F01F02012393400B4200D00120D6
:1016100070471168F5E7116AF3E700000010024017
:101620000248406800F00C007047000000100240C3
:10163000034A516821F0F0010143516070470000F6
:10164000001002400B490A6822F480320A600A68DE
:1016500022F480220A60B0F5803F07D0B0F5802FD9
:1016600003D1086840F4A02008607047086840F47F
:101670008030F9E70010024001490860704700001F
:101680000000424270470000034A516821F4E061C3
:10169000014351607047000000100240034A516846
:1016A00021F4605141EAC0005060704700100240D0
:1016B000014908667047000000004242034B5A6827
:1016C000084322F47C121043586070470010024017
:1016D000034A516821F00301014351607047000043
:1016E0000010024030B50B4C40F2FF153120FFF7DF
:1016F0007FFF20706068401C6060207810B96068CF
:10170000A842F3D13120FFF773FF002800D0012059
:1017100030BD0000080000207047000002490A8820
:1017200082430A8070470000042800402DE9F047FA
:1017300000F060F8DFF8AC800546B0FBF8F32A480B
:101740002A4E018899422CD0038040F2B2744FF4A3
:10175000B7774FF4B6790CE02046FFF7F7FB20B1DE
:10176000BB4208D3A3F5B77301E0A3F26D13641C69
:10177000A4B24B45F0D8B48000241D4F0BE0B088D4
:10178000FFF7E4FB08B1012C28D0385D984204D85B
:101790001B1A641CA4B21C2BF1D2641CB4715B1C18
:1017A000F371B5FBF8F108FB11504FF46161B0FB28
:1017B000F1F23270B0FBF1F201FB12033C22B3FBF9
:1017C000F2F37370B0FBF1F301FB1300B0FBF2F125
:1017D00002FB1100B0700020BDE8F0871D2BDCD3A8
:1017E0001D3BD6E78051010012000020F85E00206A
:1017F000AC3B0008034800880249091F098840EAF9
:10180000014070471C28004006490988C2B21140B7
:10181000044A121F1288024202D009B10120704707
:10182000002070470428004010B50120FFF7ECFFAE
:1018300008B1FFF77BFF0220FFF7E6FF10B102209F
:10184000FFF76CFF0520FFF769FFBDE8104000F0CF
:1018500001B80000024801888906FCD570470000E5
:1018600004280040704770477047704701894068FE
:101870000161704701894068416170470029018812
:1018800002D041F0400101E021F0400101807047A9
:101890008181704730B502884C8802F441530A8830
:1018A000CD8822438C882C4322430C8922434C89C7
:1018B00022438C892243CC8922431A430280828BA3
:1018C00022F400628283098A018230BD10B5044689
:1018D00000F006F821896068BDE81040FFF76EB996
:1018E0002DE9F043044600685849DFF8648187B069
:1018F00040184FF018054FF0030617D0DFF8549149
:10190000B0F5806F2CD0B0F5784F23D101210803BA
:10191000FFF77EFD01210520FFF77AFDF020ADF8ED
:1019200000008DF803508DF8026033E00121880338
:10193000FFF756FD01210920FFF76AFD4FF47040C3
:10194000ADF800008DF802608DF8035069464046FE
:10195000FFF7E8F9618C01B3012008291ED11FE0CF
:101960000121CF033846FFF73BFD01210D20FFF792
:101970004FFD3820ADF800008DF802608DF803505F
:1019800069464046FFF7CEF9ADF800708DF8026069
:101990008DF8035069464846DAE70020012200E04E
:1019A00000221040102901D0012200E00022104046
:1019B000182901D0012200E000221040202901D086
:1019C000012200E000221040282901D0012200E07D
:1019D00000221040302901D0012200E000221040F6
:1019E000382901D0012100E0002108424FF0000118
:1019F00000D06184ADF804104FF48270ADF8060099
:101A0000ADF808100220ADF80A000120ADF80C0076
:101A10000720ADF81400ADF812104FF40070ADF8C7
:101A20000E00608CADF8100001A92068FFF732FFAE
:101A300020680188890502D4012100F00DF80121F8
:101A40002068FFF71BFF07B0BDE8F08300C8FFBFA9
:101A5000000C0140000801400029818802D041F0BB
:101A6000040101E021F0040181807047704770B5E6
:101A700090F87E20002100F18203002A7CD00568C6
:101A8000521ED2B2AD684FF6FF748688354200D040
:101A90000121002AF2D08568521ED2B2AD6804EA54
:101AA00041018689354201D041F00101002A63D00D
:101AB0000569521ED2B2AD6804EA4101868A3542F8
:101AC00001D041F00101002A56D08569521ED2B2E0
:101AD000AD6804EA4101868B354201D041F0010135
:101AE000002A49D0056A521ED2B2AD6804EA41010B
:101AF000868C354201D041F00101002A3CD0856A34
:101B0000521ED2B2AD6804EA4101868D354201D041
:101B100041F00101002A2FD0056B521ED2B2AD68F0
:101B200004EA4101868E354201D041F001011AB329
:101B3000856B521ED2B2AD6804EA4101868F3542F0
:101B400001D041F00101BAB1056C521ED2B2AD68AC
:101B500004EA4101B0F84460354201D041F001018E
:101B600052B1856C521ED2B2AD6804EA4101B0F8A0
:101B70004C60354203D000E041E041F00101F2B396
:101B8000056D521ED2B2AD6804EA4101B0F854604E
:101B9000354201D041F001018AB3856D521ED2B2A7
:101BA000AD6804EA4101B0F85C60354201D041F013
:101BB000010122B3056E521ED2B2AD6804EA4101A2
:101BC000B0F86460354201D041F00101BAB1856ED0
:101BD000521ED2B2AD6804EA4101B0F86C603542E1
:101BE00001D041F0010152B1056F521ED2B2AD6871
:101BF00004EA4101B0F87460354203D000E00CE023
:101C000041F001014AB1826F04EA41019268B0F8E3
:101C10007C40224201D041F00101C94389B21980C0
:101C2000A0F88010084670BD70B590F87E204FF681
:101C3000FF749440002100F18203A4B2002A7DD0F9
:101C40000568521ED2B2AD688688354200D00121A7
:101C5000002A73D08568521ED2B2AD68868935429B
:101C600001D041F00201002A68D00569521ED2B2AB
:101C7000AD68868A354201D041F00401002A5DD06A
:101C80008569521ED2B2AD68868B354201D041F0D3
:101C90000801002A52D0056A521ED2B2AD68868C65
:101CA000354201D041F01001002A75D0856A521EDC
:101CB000D2B2AD68868D354201D041F02001002AB4
:101CC0006AD0056B521ED2B2AD68868E354201D005
:101CD00041F0400192B3856B521ED2B2AD68868F3F
:101CE000354201D041F0800142B3056C521ED2B2A0
:101CF000AD68B0F84460354201D041F48071EAB17A
:101D0000856C521ED2B2AD68B0F84C60354201D03D
:101D100041F4007192B1056D521ED2B2AD68B0F8B7
:101D20005460354201D041F480613AB1856D521E54
:101D3000D2B2AD68B0F85C60354200E02CE001D072
:101D400041F4006142B3056E521ED2B2AD68B0F8E4
:101D50006460354201D041F48051EAB1856E521E73
:101D6000D2B2AD68B0F86C60354201D041F4005198
:101D700092B1056F521ED2B2AD68B0F874603542B0
:101D800001D041F480413AB1826F9268B0F87C5042
:101D90002A4201D041F400412143C94389B219606C
:101DA000A0F88010084670BDFFF74ABB194810B56F
:101DB0000822194980F87E204B15016083808B151D
:101DC00081608381802301618382402381618383D9
:101DD00020230162838410238162838501638286CC
:101DE0000E4981630421818700F01CF80948FFF740
:101DF0003EFE0B4C00F03F0084F8C30D0548FFF792
:101E000036FE000601D5012000E0002084F8C40D54
:101E100010BD000078000020000C014000140140BB
:101E20002051002070B590F87E500446002D7CD0E3
:101E3000A1882068FEF7B0FE6D1E15F0FF057DD06D
:101E4000A189A068FEF7A8FE6D1E15F0FF0575D0EC
:101E5000A18A2069FEF7A0FE6D1E15F0FF056DD06A
:101E6000A18BA069FEF798FE6D1E15F0FF0565D0E9
:101E7000A18C206AFEF790FE6D1E15F0FF055DD067
:101E8000A18DA06AFEF788FE6D1E15F0FF0555D0E6
:101E9000A18E206BFEF780FE6D1E15F0FF054DD064
:101EA000A18FA06BFEF778FE6D1E15F0FF0545D0E3
:101EB000B4F84410206CFEF76FFE6D1E15F0FF05A0
:101EC0003CD0B4F84C10A06CFEF766FE6D1E15F009
:101ED000FF0533D0B4F85410206DFEF75DFE6D1E83
:101EE00015F0FF052AD0B4F85C10A06DFEF754FE83
:101EF0006D1E15F0FF0521D0B4F86410206EFEF7BA
:101F00004BFE6D1E15F0FF0518D0B4F86C10A06ED6
:101F1000FEF742FE6D1E15F0FF050FD0B4F87410E9
:101F2000206FFEF739FE6D1E00E007E015F0FF0F91
:101F300004D0B4F87C10A06FFEF72EFE2046BDE85A
:101F40007040FFF771BE00F037B8000010B5040014
:101F50002BD01648FFF702FB4FF0E021086920F074
:101F600002000861086920F001000861086920F09A
:101F7000040008610D480E4A0068B0FBF2F06043AF
:101F80004861086940F002000861086940F00100FA
:101F9000086100208861086940F0020008614A6910
:101FA00004480260096989B2416010BD045F0020E5
:101FB00000127A001400002000F009BB704770473F
:101FC0007047704710B500F04DF9BDE81040012191
:101FD000014800F02EB80000002C014010B500F0C0
:101FE00041F90121BDE81040880700F022B8000047
:101FF00010B500F037F9BDE810400121014800F0AC
:1020000018B800000004004000F02CB97047704779
:10201000704770477047704700F024B90029018865
:1020200002D041F0800102E040F27F321140018095
:102030007047C943018270470029018802D041F0EE
:10204000010102E040F2FE32114001807047002998
:1020500030F8441F02D041F4004101E0C1F30E0109
:102060000180704730B5028C22F001020284028C9C
:102070008388048B22F0020224F070050C882C4324
:102080000D8915434A882A43CD8885860B4DA84281
:1020900002D00B4DA8420DD122F008054A8923F445
:1020A00003432A4322F004058A882A438D891D436D
:1020B000CB892B4383800483028430BD002C0140F4
:1020C00000340140028B22F008020A430283704769
:1020D00070B5028C22F010020284028C8388048B7B
:1020E0000D8824F4E0464FF6FF7404EA05253543D5
:1020F0000E8922F0200204EA061616434A8804EAF2
:1021000002123243CE8806870F4EB04202D00F4EE5
:10211000B04215D122F080064A8923F40C4304EA28
:102120000212324322F040068A8804EA0212324345
:102130008E89C98904EA86061E4304EA8103334373
:1021400083800583028470BD002C0140003401406F
:10215000028B4FF6FF7322F4006203EA0121114360
:102160000183704770B5028C22F480720284028C65
:102170008388848B0D8824F0700425430E894FF6E4
:10218000FF7422F4007204EA062616434A8804EA21
:1021900002223243CE8886870F4EB04202D00F4EC5
:1021A000B04215D122F400664A8923F4304304EA90
:1021B0000222324322F480668A8804EA02223243F1
:1021C0008E89C98904EA06161E4304EA01133343C3
:1021D00083808583028470BD002C0140003401405F
:1021E000828B22F008020A438283704770B5028C0A
:1021F00022F480520284058C8288838B0C8823F41D
:10220000E0464FF6FF7303EA042434430E8925F4B5
:10221000005503EA06362E434D8803EA053535435B
:10222000CE88A0F84060084EB04202D0074EB042BF
:1022300005D18989C2F30D0603EA811232438280F7
:102240008483058470BD0000002C014000340140EF
:10225000828B4FF6FF7322F4006203EA01211143DF
:102260008183704700F0B3B9028802F08F020280C8
:10227000CA884B881A4303881A4302808A88828559
:102280000A88028501228282044A904202D0044ACE
:10229000904201D1097A018670470000002C01406C
:1022A000003401401948B0F8CE1D11B1491EA0F804
:1022B000CE1DB0F8D01D11B1491EA0F8D01DB0F848
:1022C000D21D11B1491EA0F8D21DB0F8D41D11B114
:1022D000491EA0F8D41DB0F8CC1D11B1491EA0F8BC
:1022E000CC1DB0F8C81D11B1491EA0F8C81DB0F82A
:1022F000CA1D11B1491EA0F8CA1DB0F8D61D00298B
:1023000002D0491EA0F8D61D7047000020510020C1
:1023100000F05DB900F05BB970B51D4D40F2266468
:102320002146284600F0CFF8B0B12146284600F0FB
:1023300074F8284600F040FE70B1284600F080FC9A
:10234000040024D0002101F025F90121204601F0EC
:1023500011F9284601F010FA40F22444214628469B
:1023600000F0B1F8002812D02146284600F055F8B8
:10237000284600F021FE002809D0284600F060FC25
:10238000002804D02846BDE8704001F07BB970BD3C
:102390000038014070B51D4D40F2266421462846A4
:1023A00000F091F8B0B12146284600F036F82846F2
:1023B00000F002FE58B1284600F042FC040023D091
:1023C000002101F0E7F80121204601F0D3F828466A
:1023D00001F0D2F940F224442146284600F073F877
:1023E000002811D02146284600F017F8284600F0B2
:1023F000E3FD20B1284600F023FC002804D0284645
:10240000BDE8704001F03EB970BD000000440040DE
:1024100000F0DDB8C943018070470A0A01219140EC
:10242000C943018070470029818902D041F40051DD
:1024300001E021F4005181817047002A828A01D095
:102440000A4300E08A43828270470000184A10B5B0
:10245000811A131590421BD007DC1649401814D07E
:10246000984223D10121040217E0994213D0B1F51B
:102470006C4F1BD101218C032046FEF7D5FF20466F
:10248000BDE810400021FEF7CFBF01214C0404E05D
:102490000121CC0401E001210C052046FEF7ACFF30
:1024A0002046BDE810400021FEF7A6BF10BD000089
:1024B000004C004000BCFFBF0246002012880A42C8
:1024C00000D00120704770B501F01F0501260024DF
:1024D000C1F3421306FA05F2012B0FD0022B0FD0E5
:1024E000838A4FEA11210088134206FA01F600EAB6
:1024F000060001D000B10124204670BD8389F0E7B9
:10250000038AEEE710B5C1F3421301F01F04012165
:10251000A140012B07D0022B07D01430002A0268FB
:1025200005D00A4304E00C30F8E71030F6E78A43A0
:10253000026010BD30B50446008A85B00D464CF6E9
:10254000FF710840E98801432182A0894EF6F3110A
:102550000840A9882A8911436A8902431143A1814D
:10256000A08A4FF6FF410840A9890143A18268462D
:10257000FEF7F4FF1148844201D1039800E002986D
:10258000642200EBC00101EB001029686FF0180510
:102590008900B0FBF1F0B0FBF2F109010B096B43CC
:1025A00000EB8300322303EB0010B0FBF2F000F0ED
:1025B0000F000843208105B030BD00000038014005
:1025C0007047704770477047FEE7FDF7C1BF10B511
:1025D000FEF7F0FCBDE81040FDF7F8BF704702E0E1
:1025E00008C8121F08C1002AFAD17047704700209E
:1025F00001E001C1121F002AFBD170472DE9F04113
:102600000D46B0F1000811D0072D0FD32A467E21C8
:10261000FDF7C0FD041E0AD0A4EB0800281A85B2FD
:10262000072D03D36178481DA84202D90020BDE8D8
:10263000F081601C491C4218475C5678FEF709F887
:10264000C1B2B94204D1B6EB102F01D12046EEE75A
:10265000601C6D1EADB2D9E770B5046805460E4624
:10266000204600F049FC50B10021284600F092FFBE
:102670000121284600F07EFF204600F00BFA20469C
:1026800000F0B2FB002805D031462046BDE870407E
:1026900000F04ABB70BD70B5044615460E46006892
:1026A00001F0D0F93146206801F050FA294620683F
:1026B00001F0FEF80121206801F090F8204600F0BA
:1026C00035FF606810B12189FEF778FAE06810B133
:1026D000218AFEF773FA606910B1218BFEF76EFA5A
:1026E0000021204600F056FF2046BDE87040012141
:1026F00000F040BF2DE9F041044615460E46002784
:10270000006800F0F9FB88B1206800F06DFB68B14B
:102710000121204600F03EFF0021204600F02AFF64
:102720002A463146206800F0DFFF07463846BDE8FC
:10273000F08170B50B468178447863F30501461C3F
:1027400021F04001651C817012B141F0800101E06F
:1027500021F08001817029463046FDF77AFF7055DF
:10276000010A701941707F218170601D70BD70B5C4
:1027700016460C46054601F065F92146284601F04B
:10278000E5F931462846BDE8704001F091B870B5D2
:102790000E460546002400F027FB38B13146284696
:1027A00000F0C2FA0446284600F042F9204670BD07
:1027B00070B514460D46064600F09EFB002806D074
:1027C000224629463046BDE8704000F08DBF70BDFE
:1027D00030B5C1B069462948FFF73EFF01001BD064
:1027E0006846FFF70BFF040016D0254DA07800F0D7
:1027F0003F0295F8C41DC00911B100280CD001E0BA
:10280000002809D1012A09D0D1B12146012000F0C8
:10281000EFFD022000F086FD41B030BD022000F047
:10282000C5F90028F8D015490020C431887102206C
:10283000A5F8D00D00F0E8F8022000F0CFF8EBE7A3
:1028400095F8C31DE078814201D0FF2803D12146CD
:10285000032000F0CDFD95F8C31DE078814201D042
:10286000FF2802D1204600F06FF895F8C30DE178FB
:102870008842D1D1022000F07FFDCDE75C0000202E
:10288000205100202DE9F0412D4DB5F8D00D002844
:1028900048D1A5F5A046002796F80C2172B106F2A2
:1028A0000D11A1F2D110FFF725FF00283AD086F8CC
:1028B0000C71022000F092F80A2031E0B07905286E
:1028C00011D3022000F0A4F968B1841CB771022072
:1028D00000F09AF895F8C40D214608B1012000E0F7
:1028E000022000F0DAFD022000F092F9040015D079
:1028F0006278A11C1348FFF7FDFE002812D0B079C2
:102900006421401CC0B2B071A5F8D01D6179FF29C7
:102910000AD0BDE8F041022000F0EEBCB7710520FE
:10292000A5F8D00DBDE8F0810228FBD3B7710220D5
:1029300000F06AF8BDE8F041022000F04FB8000056
:10294000205100205C00002070B5002835D081782F
:10295000867901F03F04C1781D4DFF2903D095F819
:10296000C30D884229D10A2C01D0092C02D10120A3
:1029700000F0D2FD022C03D00B2C01D0052C08D185
:10298000304600F0C9FD022C05D00B2C03D0052CDD
:1029900001D0082C02D1304600F020FD032C0CD1D0
:1029A0000C48022102884EB142F0010202804FF42D
:1029B000FA60A5F8CC0D0848016070BD22F0010254
:1029C00002800020A5F8CC0D0348001DF4E70000AC
:1029D0002051002020010020100C0140002810D0C0
:1029E000084A0128117906D0022807D0032808D107
:1029F00021F0040004E021F0010001E021F00200D8
:102A0000107170472001002010B5002400F0E6F896
:102A100000280CD004EBC41210F8121011B1491E9A
:102A200000F81210641CA4B21E2CF3D3012010BDB8
:102A3000124A1349904203D10A7822F001020A7027
:102A4000104A904203D10A7822F002020A700E4A1C
:102A5000904203D10A7822F004020A700B4A904295
:102A600003D10A7822F008020A70094A904203D181
:102A7000087820F0100008700020704700380140EE
:102A80001E0000200044004000480040004C004070
:102A900000500040124A1349904203D10A7822F0B4
:102AA00001020A70104A904203D10A7822F0020211
:102AB0000A700E4A904203D10A7822F004020A708A
:102AC0000B4A904203D10A7822F008020A70094AA0
:102AD000904203D1087820F0100008700020704761
:102AE000003801401D000020004400400048004024
:102AF000004C00400050004070B52849284A02258B
:102B0000B1F8CC0D78B140F26C74264BA04202D2E1
:102B10009268D20401D51D6070BDC828FCD9C720B9
:102B2000A1F8CC0D70BD1F4E361D35601E4C2078AF
:102B3000C1072046916840884FEAC14114D000295E
:102B400002DA40F0030005E0012000F047FC608855
:102B500020F0030060803560208820F00100208094
:102B6000BDE8704000F0F6BA00294FEAC0700ADAFA
:102B70000028D7D100F032FC002000F0CDFC6088A6
:102B800040F0010007E00028CCD0012000F026FC36
:102B9000608820F00100608070BD0000205100209E
:102BA00000100140100C014020010020002808D036
:102BB00009490128097905D0022806D0032807D041
:102BC0000020704701F001007047C1F340007047DA
:102BD000C1F380007047000020010020002806D0CB
:102BE000012805D0022805D0032807D0002070470F
:102BF00005487047054842F24B1102E0034843F68E
:102C000087710844704700002F0400202001002035
:102C100010B50024FFF7E2FF00280AD004EBC4112E
:102C200010F81110012905D0641CA4B21E2CF5D394
:102C3000002010BD04EBC41100EB410010BD0000EA
:102C400010B5044600F0B8F9002804D00C490D482E
:102C50008C4201D1006810BD0B498C4201D1406803
:102C600010BD0A498C4201D1806810BD08498C42D0
:102C700001D1C06810BD07498C42FBD1006910BD6D
:102C800000380140D8670020004400400048004060
:102C9000004C0040005000400B4A0C49904201D1CA
:102CA000088870470A4A904201D148887047094A0B
:102CB000904201D188887047074A904201D1C88864
:102CC00070470020704700000038014020000020BD
:102CD0000044004000480040004C00400A4988423F
:102CE00001D10A4870470A49884201D10948704712
:102CF0000949884201D1094870470949884201D1F0
:102D0000084870470020704700380140185F0020D5
:102D1000004400403060002000480040486100202E
:102D2000004C0040606200202DE9F04789461B49B5
:102D3000074688422FD000282BD0FFF7CFFF8046D0
:102D40003846FFF7A9FF0646384600F029F8044642
:102D50004068301A05042D0C1DD0206820F00100B9
:102D600020602A4641464846FDF7F0F9C4F80C8039
:102D70006660206840F0010020604FF6EF703880F8
:102D80000021384600F016FC3146384600F052FC6F
:102D90002846BDE8F0870020FBE700000050004017
:102DA0000B49884201D10B4870470B49884202D138
:102DB0000848143070470949884202D1054828382C
:102DC00070470749884201D1064870470020704784
:102DD00000380140580002400044004000480040D4
:102DE000004C0040300402402DE9F0410446FFF75A
:102DF00053FF06462046FFF7D3FF4068102185B2F7
:102E00002046FFF759FB20B110212046FFF702FBB7
:102E100037E0ADB3B54234D03ED22048204B2149F3
:102E2000214A224E844201D11B880CE08C4201D100
:102E30005B8808E0944201D19B8804E0B44201D150
:102E4000DB8800E00023164F0837844201D13A881E
:102E50000CE08C4201D17A8808E0944201D1BA8812
:102E600004E0B44201D1FA8800E000229D420BD177
:102E7000022A06D8521C91B2204600F09BFB0BE0C0
:102E8000FFE70120BDE8F0810021204600F092FB21
:102E90002946204600F0CEFB0020F3E70038014031
:102EA000280000200044004000480040004C004042
:102EB0000B49884201D10B4870470B49884202D127
:102EC00008483C3070470949884202D105482838F3
:102ED00070470749884201D1064870470020704773
:102EE00000380140440002400044004000480040D7
:102EF000004C00405804024070B5054629482A4954
:102F0000854201D10C880FE0284A954201D14C88B6
:102F10000AE0274A954201D18C8805E0254A95426E
:102F200001D1CC8800E000242846FFF7C1FF064607
:102F300040212846FFF7C0FA80B10021284600F062
:102F400059FB00213046FDF727FC40212846FFF7BA
:102F500061FA80212846FFF75DFA05E03068C00776
:102F600002D0706810B10DE0012070BD80212846AC
:102F7000FFF7A2FA30B1022C06D2641CA1B2284697
:102F800000F038FB002070BD00213046FDF704FC46
:102F900080212846FFF73EFA0021284600F02AFB50
:102FA000E2E7000000380140380000200044004003
:102FB00000480040004C004010490F4A09789042F8
:102FC00002D101F0010070470D4A904202D1C1F3D5
:102FD000400070470B4A904202D1C1F38000704715
:102FE000094A904202D1C1F3C0007047074A90429B
:102FF000FBD1C1F300107047003801401C000020D5
:103000000044004000480040004C00400050004098
:1030100010B5C0B069461948FFF71EFB010023D068
:103020006846FFF7EBFA01001ED0887800F03F02F7
:10303000C00919D0124C012A04D094F8C40DA8B1CB
:10304000012014E00320FFF7B1FD00280CD00B494C
:103050000020E031C8710220A4F8D20D0320FFF750
:10306000D3FC0320FFF7BAFC40B010BD022000F0F3
:10307000BFF9032000F056F9F6E7000040000020F9
:10308000205100202DE9F041304DB5F8D20D002837
:103090004FD1A5F5A046002796F80E0288B131461B
:1030A000A1F1E00091F80C2101F20D11FFF722FBD4
:1030B00000283ED086F80E720320FFF78FFC0A200E
:1030C00035E0B079052811D30320FFF7A1FD68B1E1
:1030D000841CF7710320FFF797FC95F8C40D214677
:1030E00008B1012000E0022000F0D7F90320FFF72B
:1030F0008FFD040019D06278A11C1548FFF7FAFA79
:10310000002816D0F0796421401CC0B2F071A5F8F7
:10311000D21DA179A41CFF290DD06179FF290AD005
:10312000BDE8F041032000F0E7B8F7710520A5F8ED
:10313000D20DBDE8F0810228FBD3F7710320FFF721
:1031400063FCBDE8F0410320FFF748BC205100209C
:103150004000002010B5C2B07E208DF8000006208F
:103160008DF801009DF80200164C20F03F00C01CB5
:1031700020F0400040F080008DF8020094F8C30D6C
:103180008DF8030000208DF804008DF80500012063
:103190008DF80600A4F5A04080228078032100F07D
:1031A00001008DF807006846FFF7C3FA94F8C40DD4
:1031B000694608B1012000E0022000F019F942B090
:1031C00010BD000020510020FFF7FFF9FDF7F2FECF
:1031D000FCE7000030B5C1B069462448FFF7D7FAD4
:1031E000010023D06846FFF709FA04001ED0A0783A
:1031F0001F4D00F03F00012807D095F8C31DE0786F
:10320000814215D0FF2813D016E00120FFF7CEFC35
:1032100000280BD01749002048710520A5F8CE0DD5
:103220000120FFF7F1FB0120FFF7D8FB41B030BDD3
:103230002146032000F0DCF895F8C31DE0788142B8
:1032400001D1FF2803D12146022000F0D1F895F8E2
:10325000C31DE078814201D0FF2802D12046FFF74C
:1032600073FB012000F088F8E0E700000044004014
:1032700020510020200100202DE9F0411C4CB4F821
:10328000CE0D00282FD1A4F5A0451A4FAA7A00260A
:103290007AB105F10B013846FFF78AFA002822D0EF
:1032A000AE720220A4F8CE0DBDE8F0410120FFF778
:1032B00095BB687918B16E710120FFF7A5FB01205D
:1032C000FFF7A6FC88B14278811C3846FFF770FAF8
:1032D000002808D0012000F00FF86879401C6871C0
:1032E0006420A4F8CE0DBDE8F0816E71FBE700000C
:1032F0002051002000440040002810D0084A012836
:10330000117906D0022807D0032808D141F0040023
:1033100004E041F0010001E041F00200107170474B
:103320002001002010B501281CD002281CD0032841
:1033300017D10E4C7E21A01CA1700521E1702179CE
:10334000002221F03F01491C21F0C0012171002120
:103350006171A171E171217201212170FFF7E9F919
:10336000607010BD024CE5E7024CE3E72D0300203E
:10337000290100202B02002010B5012821D00228AD
:1033800021D003281CD1114C7E21A01CA170052145
:10339000E170217921F03F01491C21F0400141F009
:1033A000800121710A4991F8C31D61710021A17149
:1033B000E1718171012121700A46FFF7BAF960704D
:1033C00010BD044CE0E7044CDEE700002D030020B4
:1033D00020510020290100202B020020012110B1E2
:1033E0000248016070470148001DFAE7100C0140D7
:1033F0002DE9F04700250E4680462F468946FFF707
:10340000EDFB041E38D0B6B3F1783079B8F1020F75
:1034100003D0B8F1030F02D003E061B301E000284C
:103420002AD07678761DB6F5807F24D805EBC511B5
:1034300014F81100B8420BD9074604EB410041785B
:10344000B14205D132464946801CFCF7ADFEA8B119
:103450006D1CADB21E2DE9D31E2F0CD27F1C1FFA9E
:1034600087F8002000EBC01114F8111041B1401C86
:1034700080B21E28F6D30020BDE8F0873046FBE777
:1034800000EBC01504EB4507B81C32464946FCF773
:103490005DFE04F815807E70F0E730B5C9B00C46CB
:1034A0000546202141A8FCF76AFE7E208DF8000029
:1034B00006208DF801009DF8020020F03F01891DD3
:1034C00021F0400040F080008DF80200E0788DF897
:1034D000030020798DF8040060798DF80500022042
:1034E0008DF8060001208DF80700052D12D2DFE8C7
:1034F00005F011110308080000218DF804108DF863
:103500000510012206216846FFF713F9694628468F
:10351000FFF76EFF49B030BD042110B102480160D1
:1035200070470148001DFAE7100C01400B4B016881
:103530000B4A994200D110600A4B994200D1506069
:10354000094B994200D19060084B994200D1D0605C
:10355000074B994200D110617047000000380140CC
:10356000D86700200044004000480040004C004064
:1035700000500040426922B1038B09B1536100E061
:1035800013614268002A02D0008909B15061704776
:1035900010617047C26822B1038A09B1136100E06B
:1035A00053614268002A02D0008909B11061704756
:1035B000506170470A4B0B4A984201D111800DE0CF
:1035C000094B984201D1518008E0084B984201D143
:1035D000918003E0064B984200D1D18008467047A5
:1035E0000038014030000020004400400048004006
:1035F000004C00400A4B0B4A984201D111800DE06B
:10360000094B984201D1518008E0084B984201D102
:10361000918003E0064B984200D1D1800846704764
:1036200000380140380000200044004000480040BD
:10363000004C00404FF48C72914200D911460C4B63
:103640000C4A984201D111800DE00B4B984201D1F8
:10365000518008E0094B984201D1918003E0084B6A
:10366000984202D1D1800846704700207047000080
:10367000003801402800002000440040004800407D
:10368000004C0040124A1349904203D10A7842F09C
:1036900001020A70104A904203D10A7842F00202F5
:1036A0000A700E4A904203D10A7842F004020A706E
:1036B0000B4A904203D10A7842F008020A70094A84
:1036C000904203D1087840F0100008700020704745
:1036D000003801401E000020004400400048004027
:1036E000004C0040005000402DE9F041154688464E
:1036F0000446FFF7D1FA07461748844201D1174E16
:103700000FE017498C4201D1164E0AE016498C424F
:1037100001D1164E05E016498C4201D1154E00E04C
:1037200000262046FFF7C4FB0446BD4202D9002014
:10373000BDE8F0812A4641463046FCF707FD206887
:1037400020F0010020606560E660206840F0010024
:1037500020602846ECE70000003801407863002034
:10376000004400409064002000480040A86500200C
:10377000004C0040C0660020124A1349904203D119
:103780000A7842F001020A70104A904203D10A7886
:1037900042F002020A700E4A904203D10A7842F0C7
:1037A00004020A700B4A904203D10A7842F00802E0
:1037B0000A70094A904203D1087840F0100008705E
:1037C00000207047003801401D00002000440040E8
:1037D00000480040004C004000500040124B134A8B
:1037E000984203D1137861F300031370104B984291
:1037F00003D1137861F3410313700E4B984203D148
:10380000137861F3820313700B4B984203D1137842
:1038100061F3C3031370094B984203D1107861F32D
:103820000410107070470000003801401C00002098
:103830000044004000480040004C00400050004060
:1038400070B518490878642806D2401C08701648DC
:10385000B0F86200488070BD14488068124CC00403
:1038600004F1600403D5608840F0010060800D48D9
:103870000222A11C801CFCF797FC0028EBD0094D0C
:10388000A178AD1C01F00101287800F00100884208
:10389000E1D0FFF75FFCA078298860F30001298060
:1038A00070BD000000000020C0000020001001409A
:1038B0002DE9F04F8DB00C460546FFF70FFA06468E
:1038C0004FF48C700CB1844200D9044655495648D7
:1038D000DFF85881DFF85891564F8D4201D10480AE
:1038E0000CE0454501D1448008E04D4501D184807C
:1038F00004E0BD4201D1C48000E00024A246284675
:10390000FFF7D6FA0B902846FFF74AFA0C90002EE4
:103910007BD00B98002878D00C98002875D0E81B35
:103920004FF48061BD420ED005DC4348281807D013
:1039300088420CD104E0884267D0B0F56C4F06D1C4
:103940000121084601E001210220FDF73DFD002490
:103950001020CDE902048020CDE9044005F1040BDC
:10396000069480010A94CDE90840CDE900B6079499
:1039700069460B98FCF732FFCDF800B0CDF80CA0EB
:10398000CDE901648020CDE904408001CDE9084003
:103990000794069469460A940C98FCF71FFF0021CF
:1039A0000B98FCF7F9FE01210C98FCF7F5FE0122BB
:1039B00040212846FEF741FD012280212846FEF7DE
:1039C0003CFD002202210B98FCF700FF154CA5429C
:1039D00001D1A0140BE0454502D14FF0807006E004
:1039E0004D4501D1102002E0BD4202D11348FCF741
:1039F000C7FEA54203D14FF4803004E005E0454501
:103A000006D14FF48010FCF7BBFE0DB0BDE8F08F7F
:103A10004D4502D14FF48070F5E7BD42F5D108481D
:103A2000F1E7000000380140200000200044004081
:103A300000480040004C004000BCFFBF00000110E7
:103A4000000100102DE9F8430025394ADFF8E4C0F1
:103A5000811ADFF8E48013152C462F462E464FF4CA
:103A6000006990424ED019DC344940183FD098424A
:103A700026D1334F01213E461D464C460846FDF7F0
:103A8000C7FC01212F48FDF79DF901210820FDF712
:103A9000BFFC01218804FDF7A3FC11E099423CD052
:103AA000B1F56C4F0CD1674666464FF400751C4665
:103AB00001210520FDF7ACFC01218803FDF7A8FCDE
:103AC000ADF8005018208DF8030003208DF8020097
:103AD00069463846FDF726F9ADF8004048208DF8D4
:103AE000030069463046FDF71DF9BDE8F88304255B
:103AF00067466646082401212846FDF789FC012116
:103B00004804C8E7474646461D464C460121112059
:103B1000FDF77EFC0121C804BDE747460A4E1D465D
:103B2000042401213120FDF773FC01210805B2E7CF
:103B3000004C0040000801400010014000BCFFBFE5
:103B4000000C014000023000001401407FB50C461B
:103B50000546FEF77BFC0021ADF80810ADF8041017
:103B60000C20ADF80610ADF80A00ADF80C1000946A
:103B700069462846FEF7DEFC40F224440022214636
:103B80002846FEF7BFFC21462846FEF746FC0121E9
:103B90002846FEF748FC7FBD02040608000000002E
:103BA0000102030401020304060708091F1C1F1E6B
:103BB0001F1E1F1F1E1F1E1FD83B000800000020D5
:103BC00040000000DE250008183C000840000020EE
:103BD000786C0000EE2500080000000000000000E6
:103BE00000000000000000000000000000000000D5
:103BF00000000000000000000000000000000000C5
:103C000000000000000000000000000000000000B4
:083C10000000000000000000AC
:0400000508000131BD
:00000001FF
