:020000040800F2
:1000000048A9002045010008A50F0008310D00088F
:10001000A30F000831060008A92100080000000015
:10002000000000000000000000000000391A000875
:10003000150900080000000099130008291B00089A
:10004000BD210008A70F00089D1B0008F517000838
:100050000D0B000851160008170900081F090008B9
:1000600023090008270900082B090008D107000808
:10007000D5070008D9070008DD070008E1070008D8
:10008000E5070008E90700084D050008A52100085C
:10009000A721000833060008350600082F090008CC
:1000A0009F1B0008A51B0008A31B0008A11B00083C
:1000B000BD1B0008D11B0008E91B0008350D000816
:1000C000330D0008390D0008370D000833180008FB
:1000D00035180008F91E0008751F0008F11F0008F8
:1000E0001B090008E5160008A3210008F31B0008FF
:1000F000F91B0008F71B0008F51B00084F05000856
:10010000410B000831180008ED1B000837180008E3
:10011000F11E0008F51E0008EF1B0008F11B000887
:10012000ED070008F1070008F5070008F9070008C7
:10013000DFF80CD000F0F8F900480047A9330008B8
:1001400048A90020004800473101000840EA0103A7
:100150009B0703D009E008C9121F08C0042AFAD27D
:1001600003E011F8013B00F8013B521EF9D2704741
:10017000D2B201E000F8012B491EFBD270470022E9
:10018000F6E710B513460A4604461946FFF7F0FF96
:10019000204610BDCBB203E00178994203D0401C49
:1001A000521EF9D20020704730B5044600200346A5
:1001B00000E05B1C934203D2E05CCD5C401BF8D0B6
:1001C00030BD2DE9FE4F81EA030404F0004421F024
:1001D000004100944FF0000B23F0004350EA01046B
:1001E0005ED052EA03045BD0C3F30A54C1F30A554C
:1001F0002C44A4F2F3340194A0FB0254C1F3130184
:1002000041F48011C3F3130343F4801301FB024450
:1002100000FB034E840A970A44EA815447EA835755
:10022000A4FB076802958D0A05FB07854FEA932C0E
:1002300004FB0C542705029D4FEA065847EA16377F
:10024000B5EB08056EEB070C870E920E47EA811797
:1002500042EA8312A7FB0201B6EB0B0164EB000438
:100260002B0D43EA0C335E1844EB1C50DA46514622
:10027000E7FB0201C5F313044FEA0B3343EA1453BF
:100280004FEA0432019C43EA0603A4F10C040294F1
:10029000009CCDE900B400F0F9F803B0BDE8F08FA0
:1002A00000200146F9E72DE9F04D81EA030404F04E
:1002B000004B21F0004514464FF0000A23F00041A6
:1002C00050EA050220D054EA01021DD0C5F30A57B6
:1002D0000246C5F31303C1F31300C1F30A5640F4F9
:1002E000801543F48013A7EB0608101BD64608F2CE
:1002F000FD3873EB050002D308F1010801E0921804
:100300005B41B8F1000F03DA00200146BDE8F08D33
:1003100000204FF48011064684460EE0171B73EB55
:10032000050705D3121B63EB050306434CEA010CDA
:1003300049084FEA300092185B4150EA0107EDD1BD
:1003400052EA030012D082EA040083EA050108435E
:1003500005D0101BAB4106D20122002306E000228B
:100360004FF0004302E06FF0010253101AEB060059
:100370004CEB085110EB0A0041EB0B01BDE8F04DCE
:1003800000F075B870B521F0004303430CD0C1F301
:100390000A550024D5EB040564EB0403D617AD1A07
:1003A000B34102DB0020014670BD201841EB025131
:1003B00070BD0EB540F2334102910021CDE900112C
:1003C0000A460B4600F062F803B000BDC1F30A52C2
:1003D00010B5C1F3130140F2FF3341F480119A428A
:1003E00001DA002010BD40F233439A42A2F23342B8
:1003F00003DC524200F02BF810BD904010BD00000D
:1004000030B5041E71F1000404DB4FF0004440429B
:1004100064EB0101141E73F1000405DB1C464FF070
:100420000043524263EB0403994208BF904230BD3F
:10043000202A04DB203A00FA02F1002070479140A4
:10044000C2F1200320FA03F3194390407047202A99
:1004500004DB203A21FA02F00021704721FA02F36E
:10046000D040C2F12002914008431946704710B5B0
:10047000141E73F1000408DA401C41F100019218C7
:100480005B411A4301D120F0010010BD2DE9F04D70
:1004900092469B4611B1B1FA81F202E0B0FA80F2C5
:1004A00020329046FFF7C4FF04460F4640EA0A0098
:1004B00041EA0B0153465A46084313D0114653EA0A
:1004C000010019D0C8F140025046FFF7C0FF0546B1
:1004D0000E46504659464246FFF7AAFF084305D04C
:1004E000012004E020463946BDE8F08D0020054398
:1004F00046EAE0762C4337430A986305E40AA0EB0A
:1005000008000022FD0A44EA47540A3002D50020C0
:100510000146E9E7010510196941DDE908450019BF
:100520006941BDE8F04DA2E7064C074D06E0E068E2
:1005300040F0010394E8070098471034AC42F6D32A
:10054000FFF7FAFD34400008544000087047704738
:1005500008B501F072FA1A4D0121284600F062FB3D
:10056000174C0120143420600421284600F05AFB67
:10057000042020600221284600F054FBA1141148F9
:1005800000F03EFB0220206001F05AFA00F07CFCF3
:1005900000F0DAF801210C4800F044FB4FF4FA7047
:1005A0000090002200070346114600F0FDFC4FF4C6
:1005B000FA6000F0C3FB4FF47A7001F0B7FAFEE77F
:1005C000000C0140001001400008014010B500F08F
:1005D000FDFB03F00BFB03F063F901F053FC02F0A9
:1005E00083FA01F069FA03F0C9FA00F067FC02F03F
:1005F000E1FE02F03BFF02F0E1F802F043F902F005
:1006000021FE02F061FEBDE8104000F049B810B5CF
:1006100003004FF00002104601D0012905D8002048
:1006200010BD9C5C6040521C92B28A42F9D310BD4E
:10063000FEE770477047FCB504464FF6FF77002091
:100640000D46ADF8007048F205068DF804001EE076
:1006500014F8010B8DF8040001A9084600F0E9FB2D
:10066000BDF800009DF8041080EA0120ADF80000FC
:100670000020BDF800100A0402D586EA410101E01D
:1006800007EA4101401CADF800100828F1DB6D1E9F
:10069000DED26946084600F0B5FBBDF80000FCBD9F
:1006A00030B5C5B00025419542954395449501F07C
:1006B0008BFF41A801F02EFFC0B2042840D17E205C
:1006C0008DF8000008208DF801009DF802001D4CF7
:1006D00020F03F00001D20F0400040F080008DF829
:1006E000020094F83B0A8DF803008DF804508DF851
:1006F00005509DF804018DF806009DF805018DF860
:1007000007009DF806018DF808009DF807018DF897
:10071000090001220421684602F001F894F83C0A1D
:10072000694608B1012000E0022002F063FF94F85E
:10073000510A40F0400084F8510A2820A4F85E0ACB
:1007400045B030BD2C910020F0B54FF480744FF4CB
:100750009647AFB022463946164801F0FEFF1648CC
:100760000090164D8020ADF818000395ADF81040AC
:1007700005956846079701F00DFF1248124E104983
:10078000C6600160891401824910466101832246D6
:10079000394601F057FF0B480C491C302246C66011
:1007A00001600482491545610183394601F04AFF21
:1007B0002FB0F0BD00440040004800400010014050
:1007C000004C00404C00002000080140003801406F
:1007D00000F060B800F05EB800F05CB800F05AB805
:1007E00000F058B800F056B800F054B800F052B815
:1007F00000F050B800F04EB800F04CB8C10002D57F
:10080000024908607047024948607047040402408A
:10081000000002400029016802D041F0010101E01E
:1008200021F001010160704702460020D10001D58E
:10083000034900E003490968114200D001207047D4
:100840000004024000000240002A026801D00A436E
:1008500000E08A430260704730B5026847F6F073E3
:100860009A430C6A8B682343D1E904452C43234304
:100870008C692343CC6923434C6A23438C6A23430A
:1008800013430360CA6842600A6882604968C160B5
:1008900030BD000010B501F08AFC1020FFF7C4FF46
:1008A00001281BD04FF480542046FFF7BDFF0128DC
:1008B0001AD024032046FFF7B7FF01281BD0124CA3
:1008C0002046FFF7B1FF01281CD12046FFF796FF15
:1008D0000E480021BDE81040FFF79CBF1020FFF735
:1008E0008DFF00210A48F5E72046FFF787FF0848FB
:1008F00000212830EEE72046FFF780FF0448002162
:100900006430E7E710BD0000000001105804024009
:100910001C000240704700F0B1B800F0AFB800F022
:10092000ADB800F0ABB800F0A9B800F0A7B800F07F
:10093000A5B8000001490860704700001404014098
:1009400010B5012000F08AF8434C18B1208840F01F
:10095000010006E0022000F081F820B1208840F07C
:100960000200208010BD042000F078F818B1208823
:1009700040F00400F5E7082000F070F818B1208876
:1009800040F00800EDE7102000F068F818B120886A
:1009900040F01000E5E7202000F060F818B1208852
:1009A00040F02000DDE7402000F058F818B1208822
:1009B00040F04000D5E7802000F050F818B12088C2
:1009C00040F08000CDE74FF4807000F047F818B198
:1009D000208840F48070C4E74FF4007000F03EF8C7
:1009E00018B1208840F40070BBE74FF4806000F03D
:1009F00035F818B1208840F48060B2E74FF4006009
:100A000000F02CF818B1208840F40060A9E74FF4FA
:100A1000805000F023F818B1208840F48050A0E7FF
:100A20004FF4005000F01AF818B1208840F400503C
:100A300097E74FF4804000F011F818B1208840F497
:100A400080408EE74FF4004000F008F8002889D07D
:100A5000208840F4004084E718000020064A014640
:100A600000201268044B0A4014331B680B4202D06A
:100A7000002A00D0012070470004014008B5002082
:100A8000ADF80000FFF75CFF01F091FB1E48BDF8D8
:100A9000001001800120FFF74DFF0220FFF74AFF01
:100AA0000420FFF747FF0820FFF744FF1020FFF75F
:100AB00041FF2020FFF73EFF4020FFF73BFF802053
:100AC000FFF738FF4FF48070FFF734FF4FF40070EA
:100AD000FFF730FF4FF48060FFF72CFF4FF400600A
:100AE000FFF728FF4FF48050FFF724FF4FF400502A
:100AF000FFF720FF4FF48040FFF71CFFBDE80840E0
:100B00004FF40040FFF716BF1800002070470000A8
:100B100004490A6822F010020A600A6802430A6067
:100B2000704700000020024004490A6802F03802C1
:100B30000A600A6802430A60704700000020024011
:100B40007047000070B50C46002852D0294A811A1F
:100B50001315D614904243D014DC2749274D411871
:100B60004FF6FF701BD0994227D0B14241D10121ED
:100B7000102000F037FC600401D4200439D5012195
:100B8000112008E099422ED0B1422FD0B1F5406F2C
:100B90002FD101210802BDE8704000F023BCA10460
:100BA00005D4610403D4210401D4844202D101217B
:100BB00004200AE001210420EDE7210703D4E10627
:100BC00001D4844209D10121092000F00BFC284600
:100BD000BDE87040012100F087B801210820DAE764
:100BE00001212020D7E701214020D4E701218020E6
:100BF000D1E770BD0014014000F8FEBF00023000D4
:100C000038B50446ADF8001002228DF802204820C5
:100C10008DF803002046FFF795FF6946204600F057
:100C200013F838BD38B50446ADF8001003228DF82E
:100C3000022010208DF803002046FFF783FF69464D
:100C4000204600F001F838BDF0B50022002849D058
:100C5000CC7804F00F03E40601D58C7823430C789C
:100C60004FF00F0C14F0FF0F4FF0010E1AD0056873
:100C70000E880EFA02F42640A6420FD196000CFA16
:100C800006F725EA070703FA06F5CE783D43282E36
:100C900000D14461CE78482E00D10461521C082A4C
:100CA000E6D305600A88FF2A1CD94468002202F1B5
:100CB00008060EFA06F50E882E40AE420ED19600BA
:100CC0000CFA06F7BC4303FA06F7CE783C43282E0D
:100CD00000D14561CE78482E00D10561521C082A0A
:100CE000E5D34460F0BD0000F0B5104D6B68440DD5
:100CF000260184B2C0F30157B440C0F30342032F6E
:100D000005D0C0020AD503209040834307E06868FD
:100D100023F0706220F07060686002E0A34343F04B
:100D2000706201B122436A60F0BD00000000014022
:100D3000FEE77047704770477047000070B500EBE2
:100D400080010325C90047F6F872B2EB910F03D971
:100D500000EB800080031AE04FF6F072B2EB910FC7
:100D600004D9042500EB8000400310E0114AB2EBE7
:100D7000910F04D9052500EB8000000307E00E4A1F
:100D8000B2EB910F05D9062500EB8000C002040CE0
:100D900000D1012445F2555000F02EF8284600F00D
:100DA0001FF8204600F022F800F012F8BDE870406D
:100DB00000F004B8E0FF0100C0FF030002494CF658
:100DC000CC4008607047000000300040AFF3008066
:100DD00002494AF6AA20086070470000003000402F
:100DE00001494860704700000030004001498860B8
:100DF0007047000000300040014908607047000063
:100E00000030004070B500220C8862F30F03012609
:100E100006FA02F52C4207D0C2F10F0506FA05F1D9
:100E200043EA010565F30F03521C102AF0DB03802F
:100E300070BD70B500220C7862F30703012606FA34
:100E400002F52C4207D0C2F1070506FA05F143EA84
:100E5000010565F30703521C082AF0DB037070BD1F
:100E600081070CD16421B0FBF1F201FB120141B901
:100E70004FF4C871B0FBF1F201FB120008B1002081
:100E800070470120704700000A480949102201609C
:100E90000949416002812022C160028240224161F1
:100EA0000283C161802101842821418400F0F4BCC7
:100EB000003001400801002000080140324910B50F
:100EC0000889421C0A8164285DD9002008812F48C6
:100ED00090F8501A81F0FF0480F8504AB0F85E1A7A
:100EE00019B1491EA0F85E1A01E044F08004B0F880
:100EF000601A19B1491EA0F8601A01E044F04004DC
:100F0000B0F85A1A19B1491EA0F85A1A01E044F073
:100F10002004B0F85C1A19B1491EA0F85C1A01E06F
:100F200044F01004B0F8561A19B1491EA0F8561A28
:100F300001E044F00804B0F8581A19B1491EA0F8AD
:100F4000581A01E044F00404B0F8521A19B1491ECD
:100F5000A0F8521A01E044F00204B0F8541A19B192
:100F6000491EA0F8541A01E044F00104084800F0BA
:100F700067FC07482146006800F070FCBDE810409F
:100F8000034800F059BC10BD000000202C91002047
:100F90000801002010B5FFF719FFBDE8104001F06F
:100FA000FFB8FEE7704770472DE9FF5F90B09346AA
:100FB0000025E94A10988946FF24811ADFF89CA38E
:100FC000D3142E46A8462F464FF4806C90427CD016
:100FD0000CDCB0F1804F32D0E14940184AD0604576
:100FE00064D098425BD1012108207FE0B1F5806F89
:100FF0007FD0B1F58E3F03D0B1F5923F4FD17BE06A
:101000000121C80200F0EEF95FEA090007D00128CB
:1010100009D002280BD0B9F1030F71D10BE055466E
:101020004FF480743AE055464FF4007436E055466C
:101030004FF4806432E055464FF400642EE0012105
:10104000084600F0B7F95FEA090007D0012808D088
:10105000022809D0B9F1030F52D108E05546012406
:101060001CE05546022419E05546042416E0554676
:10107000082413E00121022000F09CF95FEA090036
:1010800007D0012808D002280AD0B9F1030F37D1C0
:1010900009E05546402401E05546802404262FE00F
:1010A000B04D01241EE0AF4D02241BE001210420BD
:1010B00000F080F95FEA090009D001280AD002286F
:1010C0000BD0B9F1030F1BD10AE00DE011E0A54DE3
:1010D000402407E0A34D802404E0A24DAC1501E0BC
:1010E000A04D6C1508260BE00121102000F062F9DC
:1010F00006E001212020F9E70121480300F072F900
:101100000121084600F06EF90121304600F06AF92D
:10111000ADF8304003208DF8320018208DF83300F0
:101120000CA92846FFF790FD07A800F0FDF98E4CAA
:1011300010988E4D84434EF660265A46002029466C
:10114000139BFFF7B0F88A4BCDE90D01FCB109986C
:101150002C46824600221D460D98FFF751F918D201
:101160000022844B58461399FFF72BF804460D468E
:101170005046FFF71EF922462B46FFF794F8B0467B
:1011800000227D4BFFF78FF800227C4B1FE00A986E
:10119000DEE7DDE90D0123460022FFF731F94FF0CC
:1011A000000217D22B4658461399FFF70AF8044657
:1011B0000D465046FFF7FDF822462B46FFF773F821
:1011C000B04600226C4BFFF76EF800226C4BFEF726
:1011D000F8FF49E02646234658461399FFF710F9D1
:1011E00045D85046FFF7E5F85A46139BFFF75BF8E2
:1011F0000122FFF7C7F804460D460022614BFFF7B6
:10120000FFF804D84FF4FA6800225F4B28E0002270
:101210005E4B20462946FFF7F3F804D84FF0C80884
:101220000022564B1CE00022594B20462946FFF76E
:10123000E7F804D84FF014080022514B10E00022C8
:10124000544B20462946FFF7DBF805D84FF002083B
:1012500000224FF0804303E04FF0010800223346A4
:1012600020462946FFF71FF8FFF7B0F887B2A8F12C
:101270000100ADF81000781EADF814000024ADF8A0
:101280001640ADF8124004A9109800F0DDFD1E983C
:1012900047434FF47A70874203D9B7FBF0F080B22E
:1012A00002E01E9808B101201E906020ADF80000F9
:1012B0001E98ADF806000120ADF80200ADF8084018
:1012C0005FEA090007D001280AD002280DD0B9F141
:1012D000030F13D10EE06946109800F0B3FC0DE047
:1012E0006946109800F0E4FC08E06946109800F0A8
:1012F00029FD03E06946109800F068FD012110986F
:1013000000F095FC5FEA090007D001280AD0022806
:101310000DD0B9F1030F13D10EE00821109800F0A1
:10132000C1FC0DE00821109800F002FD08E0082142
:10133000109800F045FD03E00821109800F078FDBA
:101340000121109800F05AFC0121109800F064FC73
:1013500014B0BDE8F09F00000010004000080140FC
:1013600000FCFFBF000C0140000001400000F03F06
:101370000000244000005940004CED40000069404E
:1013800000003440D012634100409F4080842E41D1
:10139000006AF84040FFEF4070470000044A00290F
:1013A000516901D0014300E0814351617047000061
:1013B00000100240044A0029D16901D0014300E035
:1013C0008143D1617047000000100240044A0029A7
:1013D000116901D0014300E08143116170470000B1
:1013E00000100240044A0029916901D0014300E045
:1013F000814391617047000000100240044A0029B7
:10140000D16801D0014300E08143D1607047000002
:101410000010024070B5002400F068F84FF48035E9
:10142000284600F0F5F8681E2146641C8142FBD373
:1014300000F03EF9012803D0BDE8704000F025B867
:101440001020FFF765FB0220FFF76EFB002000F085
:10145000D5F8002000F008F94FF4806000F0FAF8A9
:101460004FF4E011284600F00FF9012000F006F9D2
:10147000392000F0A3F80028FAD0022000F00EF97D
:1014800000F0B4F80828FBD170BD10B500F02EF8BC
:10149000012000F0D7F8202000F090F80028FAD0C2
:1014A000002000F0ABF8002000F0DEF84FF4806080
:1014B00000F0D0F80220FFF737FB1020FFF728FBE1
:1014C0004FF46011002000F0DFF8012000F0D6F8A2
:1014D00002E0022000F0E2F8392000F06FF8002866
:1014E000F7D000F083F80828FBD110BD0B48016845
:1014F00041F0010101604168094A11404160016801
:10150000084A11400160016821F4802101604168AE
:1015100021F4FE014160002181607047001002400B
:101520000000FFF8FFFFF6FE30B5204A5168204B5F
:1015300011F00C0103D0042901D0082901D0036067
:1015400011E05168022301F4701103EB91415368DB
:1015500013F4803F02D053689B0301D5154B00E084
:10156000134B5943016051680F2303EA1111124BC9
:101570005C5C0168E14041605468072505EA142479
:101580001C5D21FA04F48460546805EAD4241B5DD0
:10159000D940C1605268032303EA9232064B1B1FF5
:1015A0009A5CB1FBF2F1016130BD00000010024015
:1015B00000127A0000093D00C43F000803460020E5
:1015C0005909094A01290AD002290AD0516A03F0AF
:1015D0001F02012393400B4200D001207047116885
:1015E000F5E7116AF3E70000001002400248406886
:1015F00000F00C007047000000100240034A5168E0
:1016000021F0F001014351607047000000100240DA
:101610000B490A6822F480320A600A6822F48022A8
:101620000A60B0F5803F07D0B0F5802F03D108687D
:1016300040F4A02008607047086840F48030F9E763
:10164000001002400149086070470000000042425B
:1016500070470000034A516821F4E0610143516082
:101660007047000000100240034A516821F46051A5
:1016700041EAC0005060704700100240014908660E
:101680007047000000004242034B5A68084322F4AE
:101690007C1210435860704700100240034A5168A2
:1016A00021F0030101435160704700000010024027
:1016B00030B50B4C40F2FF153120FFF77FFF207053
:1016C0006068401C6060207810B96068A842F3D15F
:1016D0003120FFF773FF002800D0012030BD00004B
:1016E000100000207047000002490A8882430A80E7
:1016F00070470000042800402DE9F04700F060F832
:10170000DFF8AC800546B0FBF8F32A482A4E018882
:1017100099422CD0038040F2B2744FF4B7774FF463
:10172000B6790CE02046FFF79BFB20B1BB4208D303
:10173000A3F5B77301E0A3F26D13641CA4B24B458B
:10174000F0D8B48000241D4F0BE0B088FFF788FB71
:1017500008B1012C28D0385D984204D81B1A641CAB
:10176000A4B21C2BF1D2641CB4715B1CF371B5FBE9
:10177000F8F108FB11504FF46161B0FBF1F23270E7
:10178000B0FBF1F201FB12033C22B3FBF2F37370E6
:10179000B0FBF1F301FB1300B0FBF2F102FB11000F
:1017A000B0700020BDE8F0871D2BDCD31D3BD6E7D1
:1017B000805101001A0000208E9B0020D43F0008B9
:1017C000034800880249091F098840EA0140704720
:1017D0001C28004006490988C2B21140044A121F61
:1017E0001288024202D009B10120704700207047E0
:1017F0000428004010B50120FFF7ECFF08B1FFF707
:101800007BFF0220FFF7E6FF10B10220FFF76CFF1D
:101810000520FFF769FFBDE8104000F001B80000A7
:10182000024801888906FCD5704700000428004062
:101830007047704770477047018940680161704781
:1018400001894068416170470029018802D041F058
:10185000400101E021F04001018070478181704723
:1018600030B502884C8802F441530A88CD8822435F
:101870008C882C4322430C8922434C8922438C8937
:101880002243CC8922431A430280828B22F40062D5
:101890008283098A018230BD10B5044600F006F843
:1018A00021896068BDE81040FFF7BCB92DE9F0431D
:1018B000044600685849DFF8648187B040184FF04B
:1018C00018054FF0030617D0DFF85491B0F5806F7C
:1018D0002CD0B0F5784F23D101210803FFF782FD0A
:1018E00001210520FFF77EFDF020ADF800008DF806
:1018F00003508DF8026033E001218803FFF75AFDA1
:1019000001210920FFF76EFD4FF47040ADF8000093
:101910008DF802608DF8035069464046FFF794F950
:10192000618C01B3012008291ED11FE00121CF03E2
:101930003846FFF73FFD01210D20FFF753FD38200A
:10194000ADF800008DF802608DF8035069464046FE
:10195000FFF77AF9ADF800708DF802608DF803504A
:1019600069464846DAE70020012200E000221040E4
:10197000102901D0012200E000221040182901D0D6
:10198000012200E000221040202901D0012200E0C5
:1019900000221040282901D0012200E0002210403E
:1019A000302901D0012200E000221040382901D066
:1019B000012100E0002108424FF0000100D06184C5
:1019C000ADF804104FF48270ADF80600ADF80810C1
:1019D0000220ADF80A000120ADF80C000720ADF898
:1019E0001400ADF812104FF40070ADF80E00608CCA
:1019F000ADF8100001A92068FFF732FF20680188C8
:101A0000890502D4012100F00DF801212068FFF7BB
:101A10001BFF07B0BDE8F08300C8FFBF000C01400A
:101A2000000801400029818802D041F0040101E052
:101A300021F00401818070477047FFF7EBBC000084
:101A4000194810B50822194980F87E204B1501600D
:101A500083808B1581608381802301618382402391
:101A600081618383202301628384102381628385C3
:101A7000016382860E4981630421818700F0AEFBF9
:101A8000094800F03CFC0B4C00F03F0084F83B0A96
:101A9000054800F034FC000601D5012000E00020DC
:101AA00084F83C0A10BD000084000020000C0140B6
:101AB000001401402C9100202DE9F041174CB4F89E
:101AC000400A002821D1164D4FF4FA60A4F8400ACC
:101AD000A8780027012678B1124800F010FC697838
:101AE000C0B2814211D000F03F0184F83B1A0106D8
:101AF00010D584F83C6A0FE0AE700A4800F0FFFB96
:101B00006870000603D584F83C6ABDE8F08184F86B
:101B10003C7AFAE784F83C7A6870F6E72C9100206A
:101B2000000000208400002000F036B810B504004A
:101B30002BD01648FFF7F8FC4FF0E021086920F0A1
:101B400002000861086920F001000861086920F0BE
:101B5000040008610D480E4A0068B0FBF2F06043D3
:101B60004861086940F002000861086940F001001E
:101B7000086100208861086940F0020008614A6934
:101B800004480260096989B2416010BD989B002039
:101B900000127A001C00002000F009BB704770475B
:101BA0007047704710B500F04DF9BDE810400121B5
:101BB000014800F02EB80000002C014010B500F0E4
:101BC00041F90121BDE81040880700F022B800006B
:101BD00010B500F037F9BDE810400121014800F0D0
:101BE00018B800000004004000F02CB9704770479E
:101BF000704770477047704700F024B9002901888A
:101C000002D041F0800102E040F27F3211400180B9
:101C10007047C943018270470029018802D041F012
:101C2000010102E040F2FE321140018070470029BC
:101C300030F8441F02D041F4004101E0C1F30E012D
:101C40000180704730B5028C22F001020284028CC0
:101C50008388048B22F0020224F070050C882C4348
:101C60000D8915434A882A43CD8885860B4DA842A5
:101C700002D00B4DA8420DD122F008054A8923F469
:101C800003432A4322F004058A882A438D891D4391
:101C9000CB892B4383800483028430BD002C014018
:101CA00000340140028B22F008020A43028370478D
:101CB00070B5028C22F010020284028C8388048B9F
:101CC0000D8824F4E0464FF6FF7404EA05253543F9
:101CD0000E8922F0200204EA061616434A8804EA16
:101CE00002123243CE8806870F4EB04202D00F4E0A
:101CF000B04215D122F080064A8923F40C4304EA4D
:101D00000212324322F040068A8804EA0212324369
:101D10008E89C98904EA86061E4304EA8103334397
:101D200083800583028470BD002C01400034014093
:101D3000028B4FF6FF7322F4006203EA0121114384
:101D40000183704770B5028C22F480720284028C89
:101D50008388848B0D8824F0700425430E894FF608
:101D6000FF7422F4007204EA062616434A8804EA45
:101D700002223243CE8886870F4EB04202D00F4EE9
:101D8000B04215D122F400664A8923F4304304EAB4
:101D90000222324322F480668A8804EA0222324315
:101DA0008E89C98904EA06161E4304EA01133343E7
:101DB00083808583028470BD002C01400034014083
:101DC000828B22F008020A438283704770B5028C2E
:101DD00022F480520284058C8288838B0C8823F441
:101DE000E0464FF6FF7303EA042434430E8925F4DA
:101DF000005503EA06362E434D8803EA0535354380
:101E0000CE88A0F84060084EB04202D0074EB042E3
:101E100005D18989C2F30D0603EA8112324382801B
:101E20008483058470BD0000002C01400034014013
:101E3000828B4FF6FF7322F4006203EA0121114303
:101E40008183704700F0B3B9028802F08F020280EC
:101E5000CA884B881A4303881A4302808A8882857D
:101E60000A88028501228282044A904202D0044AF2
:101E7000904201D1097A018670470000002C014090
:101E8000003401401948B0F8461A11B1491EA0F8B3
:101E9000461AB0F8481A11B1491EA0F8481AB0F80D
:101EA0004A1A11B1491EA0F84A1AB0F84C1A11B1D9
:101EB000491EA0F84C1AB0F8441A11B1491EA0F8F6
:101EC000441AB0F8401A11B1491EA0F8401AB0F8EF
:101ED000421A11B1491EA0F8421AB0F84E1A002950
:101EE00002D0491EA0F84E1A704700002C91002025
:101EF00000F05DB900F05BB970B51D4D40F226648D
:101F00002146284600F0CFF8B0B12146284600F01F
:101F100074F8284601F048F870B1284600F088FEB1
:101F2000040024D0002101F08BFC0121204601F0A7
:101F300077FC284601F0BEFD40F2244421462846A5
:101F400000F0B1F8002812D02146284600F055F8DC
:101F5000284601F029F8002809D0284600F068FE3C
:101F6000002804D02846BDE8704001F029BD70BDAE
:101F70000038014070B51D4D40F2266421462846C8
:101F800000F091F8B0B12146284600F036F8284616
:101F900001F00AF858B1284600F04AFE040023D0A8
:101FA000002101F04DFC0121204601F039FC2846BA
:101FB00001F080FD40F224442146284600F073F8E9
:101FC000002811D02146284600F017F8284600F0D6
:101FD000EBFF20B1284600F02BFE002804D0284655
:101FE000BDE8704001F0ECBC70BD00000044004052
:101FF00000F0DDB8C943018070470A0A0121914011
:10200000C943018070470029818902D041F4005101
:1020100001E021F4005181817047002A828A01D0B9
:102020000A4300E08A43828270470000184A10B5D4
:10203000811A131590421BD007DC1649401814D0A2
:10204000984223D10121040217E0994213D0B1F53F
:102050006C4F1BD101218C032046FFF7CFF920469E
:10206000BDE810400021FFF7C9B901214C0404E08C
:102070000121CC0401E001210C052046FFF7A6F95F
:102080002046BDE810400021FFF7A0B910BD0000B8
:10209000004C004000BCFFBF0246002012880A42EC
:1020A00000D00120704770B501F01F050126002403
:1020B000C1F3421306FA05F2012B0FD0022B0FD009
:1020C000838A4FEA11210088134206FA01F600EADA
:1020D000060001D000B10124204670BD8389F0E7DD
:1020E000038AEEE710B5C1F3421301F01F0401218A
:1020F000A140012B07D0022B07D01430002A026820
:1021000005D00A4304E00C30F8E71030F6E78A43C4
:10211000026010BD30B50446008A85B00D464CF60D
:10212000FF710840E98801432182A0894EF6F3112E
:102130000840A9882A8911436A8902431143A18171
:10214000A08A4FF6FF410840A9890143A182684651
:10215000FFF7EAF91148844201D1039800E00298A0
:10216000642200EBC00101EB001029686FF0180534
:102170008900B0FBF1F0B0FBF2F109010B096B43F0
:1021800000EB8300322303EB0010B0FBF2F000F011
:102190000F000843208105B030BD00000038014029
:1021A0007047704770477047FEE7FEF7D1B910B52A
:1021B000FEF7F0FEBDE81040FEF708BA704702E0F7
:1021C00008C8121F08C1002AFAD1704770470020C2
:1021D00001E001C1121F002AFBD1704770B590F8D1
:1021E0007E500446002D7CD0A1882068FEF708FDB3
:1021F0006D1E15F0FF057DD0A189A068FEF700FDDA
:102200006D1E15F0FF0575D0A18A2069FEF7F8FC58
:102210006D1E15F0FF056DD0A18BA069FEF7F0FCD7
:102220006D1E15F0FF0565D0A18C206AFEF7E8FC55
:102230006D1E15F0FF055DD0A18DA06AFEF7E0FCD4
:102240006D1E15F0FF0555D0A18E206BFEF7D8FC52
:102250006D1E15F0FF054DD0A18FA06BFEF7D0FCD1
:102260006D1E15F0FF0545D0B4F84410206CFEF744
:10227000C7FC6D1E15F0FF053CD0B4F84C10A06CE7
:10228000FEF7BEFC6D1E15F0FF0533D0B4F85410F8
:10229000206DFEF7B5FC6D1E15F0FF052AD0B4F8D1
:1022A0005C10A06DFEF7ACFC6D1E15F0FF0521D093
:1022B000B4F86410206EFEF7A3FC6D1E15F0FF0548
:1022C00018D0B4F86C10A06EFEF79AFC6D1E15F0D5
:1022D000FF050FD0B4F87410206FFEF791FC6D1E4F
:1022E00000E007E015F0FF0F04D0B4F87C10A06FF9
:1022F000FEF786FC2046BDE87040AFF3008070B565
:1023000090F87E204FF6FF7404FA02F300219BB28E
:10231000002A7ED00568521ED2B2AD68868835424A
:1023200000D00121002AF4D08568521ED2B2AD68D7
:1023300004EA41018689354201D041F00101002AB9
:1023400067D00569521ED2B2AD6804EA4101868A9F
:10235000354201D041F00101002A5AD08569521E50
:10236000D2B2AD6804EA4101868B354201D041F01A
:102370000101002A4DD0056A521ED2B2AD6804EAAE
:102380004101868C354201D041F00101002A40D044
:10239000856A521ED2B2AD6804EA4101868D35428B
:1023A00001D041F00101002A7ED0056B521ED2B24D
:1023B000AD6804EA4101868E354201D041F0010149
:1023C0003AB3856B521ED2B2AD6804EA4101868FE2
:1023D000354201D041F00101DAB1056C521ED2B292
:1023E000AD6804EA4101B0F84460354201D041F0E3
:1023F000010172B1856C521ED2B2AD6804EA41018E
:10240000B0F84C60354201D041F001010AB1521ED2
:1024100000E049E0056DD2B204EA4101AD68B0F8D0
:102420005460354201D041F00101EAB3856D521E7E
:10243000D2B2AD6804EA4101B0F85C60354201D027
:1024400041F0010182B3056E521ED2B2AD6804EABA
:102450004101B0F86460354201D041F001011AB386
:10246000856E521ED2B2AD6804EA4101B0F86C60CC
:10247000354201D041F00101B2B1056F521ED2B216
:10248000AD6804EA4101B0F87460354201D041F012
:1024900001014AB1826F04EA41019268B0F87C40C0
:1024A000224201D041F001011943C94389B2A0F889
:1024B0008010084670BD2DE9F0410D46B0F10008CE
:1024C00011D0072D0FD32A467E21FDF763FE041E8F
:1024D0000AD0A4EB0800281A85B2072D03D361782F
:1024E000481DA84202D90020BDE8F081601C491CAB
:1024F0004218475C5678FEF79EF8C1B2B94204D143
:10250000B6EB102F01D12046EEE7601C6D1EADB278
:10251000D9E700002DE9F041064600211B4C084692
:10252000621892F820200AB1401CC0B2491CC9B2FE
:102530000429F5D3154F1649103F0025E0B10D8051
:1025400007F134010422081FFDF72EFE28B1386B75
:102550003060386BC7E90C5009E0B4F8AE00411C9C
:10256000A4F8AE10B0F5FA6F0ED9386B3060A4F84D
:10257000AE500420BDE8F0810888421C0A80B0F506
:10258000967F01D90D807D630020F3E790A40020A1
:102590004800002010B50146B8220A48FDF7D6FDD4
:1025A00008480021802280F8A91020F8AA1F418045
:1025B000C0F806108172BDE810404FF41651014872
:1025C00000F040B890A4002010B51D4CE069002830
:1025D00034D02068002831D000F070FD94F8A900B4
:1025E00040B3B4F8AA004FF49671401C80B2B0FB1F
:1025F000F1F2A4F8AA0001FB120000281ED100216C
:10260000A4F8AA10103CAA20207061700320A070CA
:102610002520E0702620207161710521601CFDF7E6
:10262000F6FFA071BB20E0712046BDE810400821F4
:1026300000F000BEBDE8104000F076BD10BD000007
:1026400090A4002070B5044615460E46006801F0BF
:102650000DFC3146206801F08DFC2946206801F010
:102660003BFB0121206801F057FA204601F0B4F845
:10267000606810B12189FEF7D5FAE06810B1218AAF
:10268000FEF7D0FA606910B1218BFEF7CBFA00217A
:10269000204601F0D5F82046BDE87040012101F048
:1026A000BFB870B5046805460E46204600F01CFC15
:1026B00050B10021284601F0C3F80121284601F05D
:1026C000AFF8204600F0DEF9204600F085FB002838
:1026D00005D031462046BDE8704000F01DBB70BDFE
:1026E0002DE9F041044615460E460027006800F02B
:1026F000FBFB88B1206800F06FFB68B10121204628
:1027000001F09EF80021204601F08AF82A46314661
:10271000206801F087F907463846BDE8F08170B5BA
:102720000B468178447863F30501461C21F0400193
:10273000651C817012B141F0800101E021F080013F
:10274000817029463046FDF776FF7055010A7019F1
:1027500041707F218170601D70BD70B516460C46BA
:10276000054601F083FB2146284601F003FC314673
:102770002846BDE8704001F0AFBA70B50E46054678
:10278000002400F029FB38B13146284600F0C4FA95
:102790000446284600F044F9204670BD70B5144642
:1027A0000D46064600F0A0FB002806D0224629462A
:1027B0003046BDE8704001F035B970BD30B5C1B0EC
:1027C00069462E48FFF76DFF010024D06846FFF7E9
:1027D00072FE05001FD02A4C94F8510A40F0040004
:1027E00084F8510A2820A4F8560AA87894F83C1ACC
:1027F00000F03F02C00911B100280CD001E0002810
:1028000009D1012A09D0D1B12946012000F0F2FEF8
:10281000022000F089FE41B030BD022000F0BEF978
:102820000028F8D015490020C43188710220A4F88E
:10283000480A00F0E1F8022000F0C8F8EBE794F84D
:102840003B1AE878814201D0FF2803D129460320B2
:1028500000F0D0FE94F83B1AE878814201D0FF28BE
:1028600002D1284600F078F894F83B0AE9788842CB
:10287000D1D1022000F082FECDE7000068000020E8
:102880002C9100202DE9F041314CB4F8480A002881
:1028900050D1A4F51046002796F80C2172B106F22B
:1028A0000D11A1F2D110FFF71BFF002842D086F8CE
:1028B0000C71022000F08AF80A2039E0B07905286E
:1028C00010D3022000F09CF960B1811CB77194F81C
:1028D0003C0A08B1012000E0022000F0E0FE0220E6
:1028E00000F08AF8022000F08BF905001ED06A780B
:1028F000A91C1848FFF7F4FE00281BD0B07964210A
:10290000401CC0B2B071A4F8481A94F8511A41F0B2
:10291000080184F8511A2821A4F8581A6979FF2966
:102920000AD0BDE8F041022000F0E8BDB7710520F3
:10293000A4F8480ABDE8F0810228FBD3B771022051
:1029400000F05AF8BDE8F041022000F03FB8000066
:102950002C9100206800002070B5002833D08178C9
:10296000857901F03F04C178FF2904D0164890F81A
:102970003B0A884227D10A2C01D0092C02D1012020
:1029800000F0E6FE022C03D00B2C01D0052C08D160
:10299000284600F0DDFE022C05D00B2C03D0052CC0
:1029A00001D0082C02D1284600F01AFE032C05D0D5
:1029B000062C08D1BDE8704000F0D4BE2846BDE822
:1029C000704000F0A7BE70BD2C910020002810D0F0
:1029D000084A0128117906D0022807D0032808D117
:1029E00021F0040004E021F0010001E021F00200E8
:1029F000107170472C01002010B5002400F0E6F89B
:102A000000280CD004EBC41210F8121011B1491EAA
:102A100000F81210641CA4B2322CF3D3012010BDB4
:102A2000124A1349904203D10A7822F001020A7037
:102A3000104A904203D10A7822F002020A700E4A2C
:102A4000904203D10A7822F004020A700B4A9042A5
:102A500003D10A7822F008020A70094A904203D191
:102A6000087820F0100008700020704700380140FE
:102A7000260000200044004000480040004C004078
:102A800000500040124A1349904203D10A7822F0C4
:102A900001020A70104A904203D10A7822F0020221
:102AA0000A700E4A904203D10A7822F004020A709A
:102AB0000B4A904203D10A7822F008020A70094AB0
:102AC000904203D1087820F0100008700020704771
:102AD000003801402500002000440040004800402C
:102AE000004C00400050004070B52849284A02259B
:102AF000B1F8440A78B140F26C74264BA04202D27D
:102B00009268D20401D51D6070BDC828FCD9C720C9
:102B1000A1F8440A70BD1F4E361D35601E4C20784A
:102B2000C1072046916840884FEAC14114D000296E
:102B300002DA40F0030005E0012000F051FD60885A
:102B400020F0030060803560208820F001002080A4
:102B5000BDE8704000F006BE00294FEAC0700ADAF6
:102B60000028D7D100F03CFD002000F0F1FD608886
:102B700040F0010007E00028CCD0012000F030FD3B
:102B8000608820F00100608070BD00002C91002062
:102B900000100140100C01402C010020002808D03A
:102BA00009490128097905D0022806D0032807D051
:102BB0000020704701F001007047C1F340007047EA
:102BC000C1F38000704700002C010020002806D0CF
:102BD000012805D0022805D0032807D0002070471F
:102BE00005487047054843F2735102E0034846F236
:102BF000D7710844704700003B0400202C010020DE
:102C000010B50024FFF7E2FF00280AD004EBC4113E
:102C100010F81110012905D0641CA4B2322CF5D390
:102C2000002010BD04EBC41100EB410010BD0000FA
:102C300010B5044600F0B8F9002804D00C490D483E
:102C40008C4201D1006810BD0B498C4201D1406813
:102C500010BD0A498C4201D1806810BD08498C42E0
:102C600001D1C06810BD07498C42FBD1006910BD7D
:102C7000003801406CA4002000440040004800409F
:102C8000004C0040005000400B4A0C49904201D1DA
:102C9000088870470A4A904201D148887047094A1B
:102CA000904201D188887047074A904201D1C88874
:102CB00070470020704700000038014028000020C5
:102CC0000044004000480040004C00400A4988424F
:102CD00001D10A4870470A49884201D10948704722
:102CE0000949884201D1094870470949884201D100
:102CF000084870470020704700380140AC9B002016
:102D000000440040C49C002000480040DC9D00209E
:102D1000004C0040F49E00202DE9F04789461B49F5
:102D2000074688422FD000282BD0FFF7CFFF8046E0
:102D30003846FFF7A9FF0646384600F029F8044652
:102D40004068301A05042D0C1DD0206820F00100C9
:102D500020602A4641464846FDF7F8F9C4F80C8041
:102D60006660206840F0010020604FF6EF70388008
:102D70000021384600F074FD3146384600F0F8FD79
:102D80002846BDE8F0870020FBE700000050004027
:102D90000B49884201D10B4870470B49884202D148
:102DA0000848143070470949884202D1054828383C
:102DB00070470749884201D1064870470020704794
:102DC00000380140580002400044004000480040E4
:102DD000004C0040300402402DE9F0410446FFF76A
:102DE00053FF06462046FFF7D3FF4068102185B207
:102DF0002046FFF751F920B110212046FFF7FAF8DD
:102E000037E0ADB3B54234D03ED22048204B214903
:102E1000214A224E844201D11B880CE08C4201D110
:102E20005B8808E0944201D19B8804E0B44201D160
:102E3000DB8800E00023164F0837844201D13A882E
:102E40000CE08C4201D17A8808E0944201D1BA8822
:102E500004E0B44201D1FA8800E000229D420BD187
:102E6000022A06D8521C91B2204600F0F9FC0BE071
:102E7000FFE70120BDE8F0810021204600F0F0FCD2
:102E80002946204600F074FD0020F3E70038014099
:102E9000300000200044004000480040004C00404A
:102EA0000B49884201D10B4870470B49884202D137
:102EB00008483C3070470949884202D10548283803
:102EC00070470749884201D1064870470020704783
:102ED00000380140440002400044004000480040E7
:102EE000004C00405804024070B5054629482A4964
:102EF000854201D10C880FE0284A954201D14C88C7
:102F00000AE0274A954201D18C8805E0254A95427E
:102F100001D1CC8800E000242846FFF7C1FF064617
:102F200040212846FFF7B8F880B10021284600F07C
:102F3000FFFC00213046FDF76DFC40212846FFF7DD
:102F400059F880212846FFF755F805E03068C0079A
:102F500002D0706810B10DE0012070BD80212846BC
:102F6000FFF79AF830B1022C06D2641CA1B22846B1
:102F700000F0DEFC002070BD00213046FDF74AFC69
:102F800080212846FFF736F80021284600F0D0FCC3
:102F9000E2E700000038014040000020004400400B
:102FA00000480040004C004010490F4A0978904208
:102FB00002D101F0010070470D4A904202D1C1F3E5
:102FC000400070470B4A904202D1C1F38000704725
:102FD000094A904202D1C1F3C0007047074A9042AB
:102FE000FBD1C1F3001070470038014024000020DD
:102FF0000044004000480040004C004000500040A9
:103000002DE9F0472C4F97F8A800002843D0002462
:10301000A7F1100907F1280AA04623E03D1995F809
:103020002800AA281CD195F82A106018021D802AB1
:1030300001D987F8A880C61996F82C00BB280FD1B3
:1030400005F12900891CFDF7E2FA96F82B10814260
:1030500006D1012087F8A90095F82A0006281CD07F
:10306000641CE4B297F8A800A042D7D87E2C05D300
:1030700080215046FDF783F887F8A880B7F8AC00A8
:10308000411CA7F8AC1040F2DC51884203D9C9F8C2
:103090003080A7F8AC80BDE8F08739195046D1F8E8
:1030A0002D10C9F830108021FDF769F807F8A88FB6
:1030B000A7F80480EFE7000090A4002030B591B09D
:1030C00069461848FFF7EDFA164D04004FF000016D
:1030D00018D095F8A8002044802806D9A5F1100042
:1030E00085F8A8100163A5F8AC100E4815F8A81FC4
:1030F0002830084422466946FDF728F828782044FD
:1031000028700AE0B5F8AC00421CA5F8AC2040F2EB
:10311000DC52904201D385F8A910FFF771FF11B07E
:1031200030BD000090A400202DE9F041FFF7C6FF5C
:103130003F4D95F8A900002873D1B5F8AA0040F2D8
:10314000DC510026884201D3A5F8AA60B5F8AA1080
:103150004FF49670B1FBF0F200FB121C40014FF4EB
:103160006144420083006700BCF1000F02D0642973
:1031700028D052E095F8B410A9B1012916D002293F
:1031800017D0032918D0042919D0E869C5F8B00070
:1031900085F8B46080222648D5F8B010FFF752FABF
:1031A000A5F8AA6039E0C5F8B000F3E7C5F8B0208B
:1031B000F0E7C5F8B030EDE7C5F8B040EAE7C5F88C
:1031C000B070E7E7D5F81CC000219C452BD005DC8A
:1031D000844508D0944506D1012104E0A44524D0BB
:1031E000BC4500D10421124CAA20103C207066700E
:1031F0000220A0708120E07021710421601CFDF785
:1032000006FA6071BB20A0710721204600F012F879
:1032100095F8B400401C85F8B40035F8AA0F401C9E
:103220002880BDE8F0810221DDE70321DBE7000013
:1032300090A400200A4601460148FFF751BA000059
:1032400090A4002010B5C0B069461D48FFF729FAC8
:1032500001002CD06846FFF72EF9010027D0194C49
:1032600094F8510A40F0100084F8510A2820A4F87C
:103270005A0A887800F03F02C00918D0012A04D009
:1032800094F83C0AA8B1012014E00320FFF786FC63
:1032900000280CD00A490020E031C8710220A4F8AF
:1032A0004A0A0320FFF7A8FB0320FFF78FFB40B07B
:1032B00010BD022000F09EF9032000F035F9F6E77A
:1032C0004C0000202C9100202DE9F041344CB4F842
:1032D0004A0A002857D1A4F51046002796F80E0296
:1032E00088B13146A1F1E00091F80C2101F20D11F5
:1032F000FFF7F6F9002846D086F80E720320FFF794
:1033000065FB0A203DE0F079052810D30320FFF784
:1033100077FC60B1811CF77194F83C0A08B1012078
:1033200000E0022000F0BBF90320FFF765FB03205B
:10333000FFF766FC050022D06A78A91C1948FFF740
:10334000CFF900281FD0F0796421401CC0B2F07181
:10335000A4F84A1A94F8511A41F0200184F8511A3D
:103360002821A4F85C1AA979AD1CFF290DD0697930
:10337000FF290AD0BDE8F041032000F0BFB8F77183
:103380000520A4F84A0ABDE8F0810228FBD3F771B2
:103390000320FFF731FBBDE8F0410320FFF716BB28
:1033A0002C9100204C000020FEF7FFFEFDF7F2FDFF
:1033B000FCE7000030B5C1B069462948FFF7DDF9E8
:1033C00001002DD06846FFF776F8264C050094F8EA
:1033D000510A40F0010084F8510A4FF02800A4F887
:1033E000520A1DD0A87800F03F00012807D094F8B9
:1033F0003B1AE878814215D0FF2813D016E001204F
:10340000FFF7CCFB00280BD017490020487105209E
:10341000A4F8460A0120FFF7EFFA0120FFF7D6FAD9
:1034200041B030BD2946032000F0E4F894F83B1A7F
:10343000E878814201D1FF2803D12946022000F01B
:10344000D9F894F83B1AE878814201D0FF2802D1DC
:103450002846FFF781FA012000F090F8E0E700002D
:10346000004400402C9100202C0100202DE9F04167
:10347000204CB4F8460A002838D1A4F510451E4F58
:10348000AA7A00267AB105F10B013846FFF786F9D2
:1034900000282BD0AE720220A4F8460ABDE8F04105
:1034A0000120FFF793BA687918B16E710120FFF718
:1034B000A3FA0120FFF7A4FBD0B14278811C384663
:1034C000FFF76CF9002811D0012000F017F8687997
:1034D000401C68716420A4F8460A94F8510A40F030
:1034E000020084F8510A2820A4F8540ABDE8F081AB
:1034F0006E71FBE72C91002000440040002810D0A2
:10350000084A0128117906D0022807D0032808D1DB
:1035100041F0040004E041F0010001E041F002004C
:10352000107170472C01002010B501281CD0022812
:103530001CD0032817D10E4C7E21A01CA1700521A0
:10354000E1702179002221F03F01491C21F0C001E6
:10355000217100216171A171E1712172012121703C
:10356000FFF7DDF8607010BD024CE5E7024CE3E7C1
:1035700039030020350100203702002010B5012852
:1035800021D0022821D003281CD1114C7E21A01C5F
:10359000A1700521E170217921F03F01491C21F042
:1035A000400141F0800121710A4991F83B1A617193
:1035B0000021A171E1718171012121700A46FFF79B
:1035C000AEF8607010BD044CE0E7044CDEE700008C
:1035D000390300202C910020350100203702002003
:1035E000012110B10248016070470148001DFAE74F
:1035F000100C01402DE9F04700250E4680462F466D
:103600008946FFF7E3FA041E38D0B6B3F178307973
:10361000B8F1020F03D0B8F1030F02D003E061B399
:1036200001E000282AD07678761DB6F5807F24D870
:1036300005EBC51114F81100B8420BD9074604EB8D
:1036400041004178B14205D132464946801CFCF721
:10365000ABFDA8B16D1CADB2322DE9D3322F0CD227
:103660007F1C1FFA87F8002000EBC01114F811101E
:1036700041B1401C80B23228F6D30020BDE8F0876B
:103680003046FBE700EBC01504EB4507B81C32469B
:103690004946FCF75BFD04F815807E70F0E710B535
:1036A000C2B004467E208DF8000006208DF801008F
:1036B0009DF8020020F03F00801D20F0400040F007
:1036C00080008DF80200C8788DF8030008798DF825
:1036D000040048798DF8050002208DF806000120CD
:1036E0008DF80700052C12D2DFE804F0110803085A
:1036F000080000208DF804008DF805000122062145
:103700006846FFF70CF869462046FFF773FF42B0A2
:1037100010BD00000C4B10B51A8803F510410224AF
:1037200048B142F0010018804FF4FA60A1F8440A51
:103730000648046010BD22F0010018800020A1F8A6
:10374000440A0248001DF4E72C010020100C01403F
:10375000042110B10248016070470148001DFAE7DA
:10376000100C014010B5C2B07E208DF8000006207C
:103770008DF801009DF80200164C20F03F00C01C9F
:1037800020F0400040F080008DF8020094F83B0AE1
:103790008DF8030000208DF804008DF8050001204D
:1037A0008DF80600A4F5104080228078032100F0F7
:1037B00001008DF807006846FEF7B1FF94F83C0A57
:1037C000694608B1012000E00220FFF713FF42B074
:1037D00010BD00002C9100200B4B01680B4A994250
:1037E00000D110600A4B994200D15060094B9942B8
:1037F00000D19060084B994200D1D060074B9942AC
:1038000000D1106170470000003801406CA4002016
:103810000044004000480040004C00400050004080
:10382000426922B1038B09B1536100E01361426820
:10383000002A02D0008909B15061704710617047B9
:10384000C26822B1038A09B1136100E05361426882
:10385000002A02D0008909B1106170475061704799
:103860000A4B0B4A984201D111800DE0094B984256
:1038700001D1518008E0084B984201D1918003E0CA
:10388000064B984200D1D18008467047003801406D
:10389000380000200044004000480040004C004038
:1038A00030B52048C1B090F83C0A00280ED0022064
:1038B000FFF7A6F91C4C002508B1E56003E01B49A1
:1038C000E068884204D2E068401CE06041B030BD4E
:1038D0007E208DF8000006208DF801009DF8020082
:1038E000002220F03F000C3020F0C0008DF80200D4
:1038F000FF208DF804008DF805008DF803008DF889
:1039000006508DF807500C216846FEF708FF6946FF
:103910000220FFF76FFE69460320FFF76BFEE560AC
:10392000D4E700002C91002000000020C0270900EF
:103930000A4B0B4A984201D111800DE0094B984285
:1039400001D1518008E0084B984201D1918003E0F9
:10395000064B984200D1D18008467047003801409C
:10396000400000200044004000480040004C00405F
:103970004FF48C72914200D911460C4B0C4A98427C
:1039800001D111800DE00B4B984201D1518008E02C
:10399000094B984201D1918003E0084B984202D133
:1039A000D180084670470020704700000038014071
:1039B000300000200044004000480040004C00401F
:1039C000124A1349904203D10A7842F001020A7068
:1039D000104A904203D10A7842F002020A700E4A5D
:1039E000904203D10A7842F004020A700B4A9042D6
:1039F00003D10A7842F008020A70094A904203D1C2
:103A0000087840F01000087000207047003801402E
:103A1000260000200044004000480040004C0040C8
:103A2000005000402DE9F041154688460446FFF756
:103A30002BF907461748844201D1174E0FE017496A
:103A40008C4201D1164E0AE016498C4201D1164E25
:103A500005E016498C4201D1154E00E000262046B3
:103A6000FFF71EFA0446BD4202D90020BDE8F081EE
:103A70002A4641463046FCF769FB206820F00100E9
:103A800020606560E660206840F001002060284604
:103A9000ECE70000003801400CA00020004400408A
:103AA00024A10020004800403CA20020004C00401F
:103AB00054A30020124A1349904203D10A7842F0DD
:103AC00001020A70104A904203D10A7842F00202C1
:103AD0000A700E4A904203D10A7842F004020A703A
:103AE0000B4A904203D10A7842F008020A70094A50
:103AF000904203D1087840F0100008700020704711
:103B000000380140250000200044004000480040EB
:103B1000004C004000500040124B134A984203D121
:103B2000137861F300031370104B984203D113789C
:103B300061F3410313700E4B984203D1137861F384
:103B4000820313700B4B984203D1137861F3C303C4
:103B50001370094B984203D1107861F30410107070
:103B6000704700000038014024000020004400405D
:103B700000480040004C00400050004070B518491B
:103B80000878642806D2401C08701648B0F8620015
:103B9000C88070BD14488068124CC00404F16004F1
:103BA00003D5608840F0010060800D480222A11C0E
:103BB000801DFCF7F9FA0028EBD0094DA178AD1D66
:103BC00001F00101287800F001008842E1D0FFF700
:103BD000C9FDA078298860F30001298070BD00002C
:103BE00000000020CC00002000100140F0B5364E4F
:103BF000364C95B096F83B0A002598B160790028BC
:103C000054D0334865718068A6F51044C0044FD580
:103C10000020FFF79DFD0020FFF7E2FC608840F0E8
:103C200001004EE054222B496846FCF78FFA608968
:103C30000127411C6181B0F5FA7F36D96581207971
:103C4000322820D2401CC0B20A21B0FBF1F2207110
:103C500030328DF82520B0FBF1F201FB120030303C
:103C60008DF82600002209216846FEF758FD6946B6
:103C70000320FFF7BFFC96F83C0A28B169460220F2
:103C8000FFF7B8FC00E025710120FFF761FD01207E
:103C9000FFF740FDE07820B10120FFF7A1FCE570BF
:103CA00003E00020FFF79CFCE770677115B0F0BDE2
:103CB0000120FFF74DFD0120FFF792FC608820F006
:103CC00001006080F2E700002C910020000000203D
:103CD00000100140E03F00082DE9F04F8DB00C4688
:103CE0000546FEF7F3FF06464FF48C700CB1844294
:103CF00000D9044655495648DFF85881DFF85891F5
:103D0000564F8D4201D104800CE0454501D14480DD
:103D100008E04D4501D1848004E0BD4201D1C4805A
:103D200000E00024A2462846FFF7BAF80B90284688
:103D3000FFF72EF80C90002E7BD00B98002878D03F
:103D40000C98002875D0E81B4FF48061BD420ED05E
:103D500005DC4348281807D088420CD104E088428B
:103D600067D0B0F56C4F06D10121084601E0012172
:103D70000220FDF713FB00241020CDE9020480206F
:103D8000CDE9044005F1040B069480010A94CDE9C5
:103D90000840CDE900B6079469460B98FCF75CFD36
:103DA000CDF800B0CDF80CA0CDE901648020CDE9BC
:103DB00004408001CDE908400794069469460A94BE
:103DC0000C98FCF749FD00210B98FCF723FD01211D
:103DD0000C98FCF71FFD012240212846FEF71DF933
:103DE000012280212846FEF718F9002202210B98B3
:103DF000FCF72AFD154CA54201D1A0140BE0454566
:103E000002D14FF0807006E04D4501D1102002E054
:103E1000BD4202D11348FCF7F1FCA54203D14FF497
:103E2000803004E005E0454506D14FF48010FCF7F2
:103E3000E5FC0DB0BDE8F08F4D4502D14FF4807028
:103E4000F5E7BD42F5D10848F1E700000038014030
:103E5000280000200044004000480040004C004082
:103E600000BCFFBF00000110000100102DE9F84365
:103E70000025394ADFF8E4C0811ADFF8E480131521
:103E80002C462F462E464FF4006990424ED019DC46
:103E9000344940183FD0984226D1334F01213E4645
:103EA0001D464C460846FDF79DFA01212F48FCF7B8
:103EB0001BFF01210820FDF795FA01218804FDF779
:103EC00079FA11E099423CD0B1F56C4F0CD16746BC
:103ED00066464FF400751C4601210520FDF782FA65
:103EE00001218803FDF77EFAADF8005018208DF807
:103EF000030003208DF8020069463846FCF7A4FE53
:103F0000ADF8004048208DF8030069463046FCF7C4
:103F10009BFEBDE8F8830425674666460824012118
:103F20002846FDF75FFA01214804C8E747464646A0
:103F30001D464C4601211120FDF754FA0121C80409
:103F4000BDE747460A4E1D46042401213120FDF7F6
:103F500049FA01210805B2E7004C00400008014081
:103F60000010014000BCFFBF000C01400002300007
:103F7000001401407FB50C460546FEF757F80021B6
:103F8000ADF80810ADF804100C20ADF80610ADF82F
:103F90000A00ADF80C10009469462846FEF7BAF8FE
:103FA00040F22444002221462846FEF79BF8214691
:103FB0002846FEF722F801212846FEF724F87FBDA7
:103FC00002040608000000000102030401020304C9
:103FD000060708091F1C1F1E1F1E1F1F1E1F1E1F56
:103FE0007E4C09FFFFFF0110BFD8D6C6B0E5CEB4A6
:103FF000B2A6C2EBB2E2CAD40209746573742DB9D9
:10400000E6B8F1030239390409746573742DB1F00F
:10401000C3FB0509746573742DB3A7C9CC060B6384
:104020006F64652D7465737430310702B8F6BD9EF8
:104030007F00000054400008000000204C000000F9
:10404000BE210008A04000084C000020FCA8000091
:10405000CE21000800000000000000000000000069
:104060000000000000000000000000000000000050
:104070000000000000000000000000000000000040
:104080000000000000000000000000000000000030
:104090000000000000000000000000000000000020
:0400000508000131BD
:00000001FF
