:020000040800F2
:1000000048A900204501000899110008050F0008C3
:1000100097110008330600089D2900080000000021
:100020000000000000000000000000007D1D00082E
:100030001D0900080000000089160008852200083C
:10004000B12900089B110008F9220008211B0008B3
:10005000150B0008791900081F0900082709000876
:100060002B0900082F09000833090008CD070008F4
:10007000D1070008D5070008D9070008DD070008E8
:10008000E1070008E50700084D0500089929000868
:100090009B290008350600083706000837090008C4
:1000A000FB22000801230008FF220008FD220008AF
:1000B000192300082D23000845230008090F000814
:1000C000070F00080D0F00080B0F00085F1B00084A
:1000D000611B000871260008F52600087527000836
:1000E000230900080D1A0008972900084F2300086B
:1000F0005523000853230008512300084F0500082A
:10010000490B00085D1B000849230008631B000819
:10011000692600086D2600084B2300084D230008BF
:10012000E9070008ED070008F1070008F5070008D7
:10013000DFF80CD000F0F8F90048004781390008DA
:1001400048A90020004800473101000840EA0103A7
:100150009B0703D009E008C9121F08C0042AFAD27D
:1001600003E011F8013B00F8013B521EF9D2704741
:10017000D2B201E000F8012B491EFBD270470022E9
:10018000F6E710B513460A4604461946FFF7F0FF96
:10019000204610BDCBB203E00178994203D0401C49
:1001A000521EF9D20020704730B5044600200346A5
:1001B00000E05B1C934203D2E05CCD5C401BF8D0B6
:1001C00030BD2DE9FE4F81EA030404F0004421F024
:1001D000004100944FF0000B23F0004350EA01046B
:1001E0005ED052EA03045BD0C3F30A54C1F30A554C
:1001F0002C44A4F2F3340194A0FB0254C1F3130184
:1002000041F48011C3F3130343F4801301FB024450
:1002100000FB034E840A970A44EA815447EA835755
:10022000A4FB076802958D0A05FB07854FEA932C0E
:1002300004FB0C542705029D4FEA065847EA16377F
:10024000B5EB08056EEB070C870E920E47EA811797
:1002500042EA8312A7FB0201B6EB0B0164EB000438
:100260002B0D43EA0C335E1844EB1C50DA46514622
:10027000E7FB0201C5F313044FEA0B3343EA1453BF
:100280004FEA0432019C43EA0603A4F10C040294F1
:10029000009CCDE900B400F0F9F803B0BDE8F08FA0
:1002A00000200146F9E72DE9F04D81EA030404F04E
:1002B000004B21F0004514464FF0000A23F00041A6
:1002C00050EA050220D054EA01021DD0C5F30A57B6
:1002D0000246C5F31303C1F31300C1F30A5640F4F9
:1002E000801543F48013A7EB0608101BD64608F2CE
:1002F000FD3873EB050002D308F1010801E0921804
:100300005B41B8F1000F03DA00200146BDE8F08D33
:1003100000204FF48011064684460EE0171B73EB55
:10032000050705D3121B63EB050306434CEA010CDA
:1003300049084FEA300092185B4150EA0107EDD1BD
:1003400052EA030012D082EA040083EA050108435E
:1003500005D0101BAB4106D20122002306E000228B
:100360004FF0004302E06FF0010253101AEB060059
:100370004CEB085110EB0A0041EB0B01BDE8F04DCE
:1003800000F075B870B521F0004303430CD0C1F301
:100390000A550024D5EB040564EB0403D617AD1A07
:1003A000B34102DB0020014670BD201841EB025131
:1003B00070BD0EB540F2334102910021CDE900112C
:1003C0000A460B4600F062F803B000BDC1F30A52C2
:1003D00010B5C1F3130140F2FF3341F480119A428A
:1003E00001DA002010BD40F233439A42A2F23342B8
:1003F00003DC524200F02BF810BD904010BD00000D
:1004000030B5041E71F1000404DB4FF0004440429B
:1004100064EB0101141E73F1000405DB1C464FF070
:100420000043524263EB0403994208BF904230BD3F
:10043000202A04DB203A00FA02F1002070479140A4
:10044000C2F1200320FA03F3194390407047202A99
:1004500004DB203A21FA02F00021704721FA02F36E
:10046000D040C2F12002914008431946704710B5B0
:10047000141E73F1000408DA401C41F100019218C7
:100480005B411A4301D120F0010010BD2DE9F04D70
:1004900092469B4611B1B1FA81F202E0B0FA80F2C5
:1004A00020329046FFF7C4FF04460F4640EA0A0098
:1004B00041EA0B0153465A46084313D0114653EA0A
:1004C000010019D0C8F140025046FFF7C0FF0546B1
:1004D0000E46504659464246FFF7AAFF084305D04C
:1004E000012004E020463946BDE8F08D0020054398
:1004F00046EAE0762C4337430A986305E40AA0EB0A
:1005000008000022FD0A44EA47540A3002D50020C0
:100510000146E9E7010510196941DDE908450019BF
:100520006941BDE8F04DA2E7064C074D06E0E068E2
:1005300040F0010394E8070098471034AC42F6D32A
:10054000FFF7FAFD684600088846000870477047C4
:1005500008B501F09FFD1A4D0121284600F08AFBE5
:10056000174C0120143420600421284600F082FB3F
:10057000042020600221284600F07CFBA1141148D1
:1005800000F066FB0220206001F086FD00F076FDA1
:1005900000F0D8F801210C4800F06CFB4FF4FA7021
:1005A0000090002200070346114600F0F7FD4FF4CB
:1005B000FA6000F0ADFC4FF47A7001F065FEFEE7E2
:1005C000000C0140001001400008014010B500F08F
:1005D000EBFC03F057FE03F07DFC02F00FF802F095
:1005E0001DFD01F095FD03F015FE00F061FD03F027
:1005F000CDF903F027FA02F07BFB02F0DDFB03F0FC
:100600000DF903F04DF9BDE8104000F047B810B502
:10061000034600220020002B02D0012906D810BD7D
:10062000002010BD9C5C6040521C92B28A42F9D3FB
:1006300010BDFEE770477047FCB504460D464FF607
:10064000FF77019748F20506002000901CE014F89F
:10065000010B00906946684600F0DDFCBDF804001F
:100660009DF8001080EA012001900022BDF80430BE
:10067000180403D586EA4300019002E007EA43002C
:100680000190521C082AF1DB6D1E681CDFD101A904
:1006900001A800F0A5FCBDF80400FCBD30B5C5B054
:1006A0000025419542954395449502F021FA41A8D1
:1006B00002F0CAF9C0B2042840D17E208DF80000B3
:1006C00008208DF801009DF802001D4C20F03F002D
:1006D000001D20F0400040F080008DF8020094F8EA
:1006E0003B0A8DF803008DF804508DF805509DF8F5
:1006F00004018DF806009DF805018DF807009DF8AE
:1007000006018DF808009DF807018DF80900012207
:100710000421684602F097FA94F83C0A694608B149
:10072000012000E0022003F051FA94F8510A40F051
:10073000400084F8510A2820A4F85E0A45B030BD74
:100740002C910020F0B54FF480744FF49647AFB071
:1007500022463946164802F097FA16480090164D80
:100760008020ADF818000395ADF810400595684657
:10077000079702F0A9F91248124E1049C6600160AD
:10078000891401824910466101832246394602F0EC
:10079000EDF90B480C491C302246C660016004820A
:1007A000491545610183394602F0E0F92FB0F0BDEB
:1007B000004400400048004000100140004C004050
:1007C0004C000020000801400038014000F066B8ED
:1007D00000F064B800F062B800F060B800F05EB8F5
:1007E00000F05CB800F05AB800F058B800F056B805
:1007F00000F054B800F052B8C10002D502490860B8
:1008000070470249486070470404024000000240FB
:10081000002904D0016841F00101016070470168BE
:1008200021F001010160704702460020D10002D58D
:100830000449096801E004490968114200D0012017
:10084000704700000004024000000240002A03D06C
:1008500002680A430260704702688A430260704778
:1008600030B5026847F6F0739A430C6A8B682343ED
:10087000D1E904452C4323438C692343CC692343AA
:100880004C6A23438C6A234313430360CA68426063
:100890000A6882604968C16030BD000010B502F08E
:1008A00080F81020FFF7C0FF01281BD04FF48054C0
:1008B0002046FFF7B9FF01281AD024032046FFF78E
:1008C000B3FF01281BD0124C2046FFF7ADFF0128D3
:1008D0001CD12046FFF790FF0E480021BDE81040D4
:1008E000FFF796BF1020FFF787FF00210A48F5E7C2
:1008F0002046FFF781FF084800212830EEE7204618
:10090000FFF77AFF044800216430E7E710BD0000DC
:1009100000000110580402401C000240704700F023
:10092000B1B800F0AFB800F0ADB800F0ABB800F06F
:10093000A9B800F0A7B800F0A5B800000149086008
:10094000704700001404014010B5012000F08AF83F
:10095000434C18B1208840F0010006E0022000F06E
:1009600081F820B1208840F00200208010BD0420D2
:1009700000F078F818B1208840F00400F5E708206E
:1009800000F070F818B1208840F00800EDE7102062
:1009900000F068F818B1208840F01000E5E720204A
:1009A00000F060F818B1208840F02000DDE740201A
:1009B00000F058F818B1208840F04000D5E78020BA
:1009C00000F050F818B1208840F08000CDE74FF4D7
:1009D000807000F047F818B1208840F48070C4E7B8
:1009E0004FF4007000F03EF818B1208840F4007019
:1009F000BBE74FF4806000F035F818B1208840F470
:100A00008060B2E74FF4006000F02CF818B1208845
:100A100040F40060A9E74FF4805000F023F818B1CB
:100A2000208840F48050A0E74FF4005000F01AF8FE
:100A300018B1208840F4005097E74FF4804000F050
:100A400011F818B1208840F480408EE74FF4004040
:100A500000F008F8002889D0208840F4004084E79E
:100A60001800002001460020054A12680A40044B85
:100A700014331B680B4202D0002A00D001207047BB
:100A80000004014008B50020ADF80000FFF75CFF4E
:100A900001F087FF1E48BDF8001001800120FFF71C
:100AA0004DFF0220FFF74AFF0420FFF747FF082011
:100AB000FFF744FF1020FFF741FF2020FFF73EFF24
:100AC0004020FFF73BFF8020FFF738FF4FF4807096
:100AD000FFF734FF4FF40070FFF730FF4FF48060F2
:100AE000FFF72CFF4FF40060FFF728FF4FF4805012
:100AF000FFF724FF4FF40050FFF720FF4FF4804032
:100B0000FFF71CFFBDE808404FF40040FFF716BF99
:100B1000180000207047000004490A6822F0100203
:100B20000A600A6802430A60704700000020024021
:100B300004490A6802F038020A600A6802430A603F
:100B40007047000000200240704710B501210846A0
:100B500000F0D4FD0021BDE81040012000F0CEBD22
:100B600070B50C4600286BD0364A811A1315D6147E
:100B7000904253D017DC3449344D41184FF6FF7280
:100B80001ED0994234D0B1425AD10121102000F038
:100B9000A7FD600401D4200452D5BDE870400121B6
:100BA000112000F09DBD99423ED0B14242D0B1F536
:100BB000406F45D1BDE870400121080200F090BDB2
:100BC000A00405D4600403D4200401D4944209D1C4
:100BD0000121042000F084FD2846BDE87040012179
:100BE00000F062B9BDE870400121042000F078BD3A
:100BF000200703D4E00601D4944209D10121092041
:100C000000F06EFD2846BDE87040012100F04CB9AF
:100C1000BDE870400121082000F062BDBDE87040D1
:100C20000121202000F05CBDBDE870400121402082
:100C300000F056BDBDE870400121802000F050BD9D
:100C400070BD00000014014000F8FEBF000230003B
:100C500038B50446ADF8001002228DF80220482273
:100C60008DF803202046FFF77BFF6946204600F001
:100C7000C7F838BD38B50446ADF8001003228DF82A
:100C8000022010228DF803202046FFF769FF6946F5
:100C9000204600F0B5F838BD10B52E4A811A13155C
:100CA000D414904237D010DC2B4940181FD0984202
:100CB00027D0A0424DD10121102000F01FFD0021BE
:100CC000BDE81040102000F019BD99422DD0A1427E
:100CD00035D0B1F5406F3CD101210C02204600F027
:100CE0000DFD2046BDE81040002100F007BD0121A8
:100CF000042000F003FD0021BDE81040042000F0B6
:100D0000FDBC0121082000F0F9FC0021BDE81040E5
:100D1000082000F0F3BC0121202000F0EFFC0021AE
:100D2000BDE81040202000F0E9BC0121402000F087
:100D3000E5FC0021BDE81040402000F0DFBC0121AF
:100D4000802000F0DBFC0021BDE81040802000F096
:100D5000D5BC10BD0014014000F8FEBF2DE9F84FCE
:100D6000684600F0C7F81F4C6946204600F048F876
:100D70001D4D6946284600F043F81C4E6946304632
:100D800000F03EF81A4F6946384600F039F8DFF8AF
:100D900064806946404600F033F8DFF85C906946AD
:100DA000484600F02DF8DFF854A06946504600F0A0
:100DB00027F82046FFF770FF2846FFF76DFF304603
:100DC000FFF76AFF3846FFF767FF4046FFF764FF0B
:100DD0004846FFF761FF5046FFF75EFFFFF7B5FE9D
:100DE000BDE8F88F00080140000C014000100140F0
:100DF0000014014000180140001C01400020014087
:100E00002DE9F041002200284CD0CC7804F00F03EB
:100E1000E40601D58C7823430C784FF00F0714F0CB
:100E2000FF0F4FF0010C1BD005680CFA02F40E887E
:100E30002640A64210D1960007FA06F825EA0805D2
:100E400003FA06F848EA0505CE78282E00D1446159
:100E5000CE78482E00D10461521C082AE5D30560E3
:100E60000A88FF2A1ED94568002202F108060CFAFA
:100E700006F40E882640A64210D1960007FA06F81E
:100E800025EA080503FA06F848EA0505CE78282E73
:100E900000D14461CE78482E00D10461521C082A4A
:100EA000E3D34560BDE8F081F0B5114D6B68C0F348
:100EB0000342440D260184B2C0F30157B440032F0E
:100EC00007D0C0020CD503209040834343F07062EA
:100ED00009E023F07062686820F07060686002E0EA
:100EE000A34343F0706201B122436A60F0BD000089
:100EF000000001404FF6FF71018002218170042142
:100F0000C1707047FEE77047704770477047000038
:100F100070B50325002400EB8001C90047F6F87284
:100F2000B2EB910F04D900EB8000C0F38F041DE0F9
:100F30004FF6F072B2EB910F05D9042500EB80005B
:100F4000C0F3CF0412E0124AB2EB910F05D9052588
:100F500000EB8000C0F30F1408E00E4AB2EB910FD3
:100F600004D9062500EB8000C0F34F1404B9012416
:100F700045F2555000F02EF8284600F01FF82046A4
:100F800000F022F800F012F8BDE8704000F004B85C
:100F9000E0FF0100C0FF030002494CF6CC400860AE
:100FA0007047000000300040AFF3008002494AF66D
:100FB000AA200860704700000030004001494860E6
:100FC0007047000000300040014988607047000011
:100FD00000300040014908607047000000300040C8
:100FE0007CB500220023ADF800300C88012505FAFD
:100FF00002F10C4208D0BDF80030C2F10F0605FA2C
:1010000006F10B43ADF80030521C102AEFDBBDF89F
:10101000001001807CBD78B5002200238DF80030DF
:101020000C78012505FA02F10C4208D09DF8003039
:10103000C2F1070605FA06F10B438DF80030521C89
:10104000082AEFDB9DF80010017078BD810701D000
:10105000002070476421B0FBF1F201FB120109B1DD
:10106000012070474FF4C871B0FBF1F201FB120090
:1010700008B1002070470120704700000A48094964
:10108000102201600949416002812022C160028270
:10109000402241610283C161802101842821418471
:1010A00000F092BD0030014008010020000801401E
:1010B000324910B50889421C0A8164285DD9002094
:1010C00008812F4890F8501A81F0FF0480F8504AA8
:1010D000B0F85E1A19B1491EA0F85E1A01E044F09A
:1010E0008004B0F8601A19B1491EA0F8601A01E036
:1010F00044F04004B0F85A1A19B1491EA0F85A1A1F
:1011000001E044F02004B0F85C1A19B1491EA0F8BF
:101110005C1A01E044F01004B0F8561A19B1491EE7
:10112000A0F8561A01E044F00804B0F8581A19B1B2
:10113000491EA0F8581A01E044F00404B0F8521A0D
:1011400019B1491EA0F8521A01E044F00204B0F8A7
:10115000541A19B1491EA0F8541A01E044F00104D0
:10116000084800F003FD07482146006800F00EFD26
:10117000BDE81040034800F0F5BC10BD00000020A1
:101180002C9100200801002010B5FFF70DFFBDE8ED
:10119000104001F0E3BBFEE7704770472DE9FF5FA9
:1011A00090B0884614461D464FF0000A4FF0FF09E4
:1011B0004FF0000B00270026FE4A1098D314811A26
:1011C0004FF4806C904272D00EDCB0F1804F42D070
:1011D000F94940186ED060456BD0984203D1012187
:1011E000082000F061FACEE0B1F5806F73D0B1F560
:1011F0008E3F03D0B1F5923F17D1C0E00121C80264
:1012000000F06EFAB8F1000F09D0B8F1010F0DD05F
:10121000B8F1020F11D0B8F1030F06D114E0DFF8D6
:101220009CA34FF480794FF0040BACE0DFF88CA363
:101230004FF400794FF0040BA5E0DFF880A34FF4E2
:1012400080694FF0040B9EE0DFF870A34FF4006953
:101250004FF0040B97E00121084600F025FAB8F1A1
:10126000000F09D0B8F1010F0DD0B8F1020F11D065
:10127000B8F1030F06D113E0DFF840A34FF00109E6
:101280004FF0040B7FE0DFF834A34FF002094FF07A
:10129000040B78E0DFF824A34FF00409CB4672E09A
:1012A000DFF818A34FF008094FF0040B6BE05CE087
:1012B00000E02DE00121022000F0F6F9B8F1000F66
:1012C0000AD0B8F1010F0ED0B8F1020F12D0B8F168
:1012D000030F58D115E04DE0DFF8E0A24FF04009D0
:1012E0004FF0040B4FE0DFF8D4A24FF080094FF02D
:1012F000040B48E0DFF8C8A24FF001094FF0080BDB
:1013000041E0DFF8BCA24FF002094FF0080B3AE0D1
:101310000121042000F0C8F9B8F1000F09D0B8F19C
:10132000010F0DD0B8F1020F11D0B8F1030F2AD17F
:1013300014E0DFF88CA24FF040094FF0080B22E0D8
:10134000DFF87CA24FF080094FF0080B1BE0DFF8BC
:1013500070A24FF480794FF0080B14E0DFF860A220
:101360004FF400794FF0080B0DE00121102000F040
:101370009BF908E00121202000F096F903E001210B
:10138000480300F0ADF90121084600F0A9F9012158
:10139000584600F0A5F9ADF8349003208DF83600DA
:1013A00018208DF837000DA95046FFF729FD01A838
:1013B00000F040FADFF80C921098DFF80CB229EA3E
:1013C00000094EF6602A22462B4600205946FEF7B9
:1013D0006AFFCDE90E10B9F1000F28D0DDF80C90AE
:1013E000DDE90E100022794BFFF70AF822D2002225
:1013F000774B20462946FEF7E4FE04460D46484654
:10140000FEF7D7FF22462B46FEF74DFF04460D465A
:10141000574600226F4B20462946FEF744FF002224
:101420006D4BFEF7CEFEFEF7D1FF86B293E0DDF8FE
:101430001090D5E7DDE90E105B460022FEF7E0FFD5
:101440001FD20022614B20462946FEF7BAFE044611
:101450000D464846FEF7ADFF22462B46FEF723FF1A
:1014600004460D46574600225A4B20462946FEF7B1
:101470001AFF0022594BFEF7A4FEFEF7A7FF86B223
:1014800069E000225B4620462946FEF7B9FF62D894
:101490004846FEF78EFF22462B46FEF704FF044621
:1014A0000D46012220462946FEF76CFF04460D46F4
:1014B00000224B4B20462946FEF7A2FF0BD84FF4E3
:1014C000FA670022474B20462946FEF7ECFEFEF75E
:1014D0007DFF86B23FE00022434B20462946FEF7BF
:1014E0008FFF0AD8C82700223B4B20462946FEF72B
:1014F000DAFEFEF76BFF86B22DE000223B4B204662
:101500002946FEF77DFF0AD814270022334B2046D8
:101510002946FEF7C8FEFEF759FF86B21BE00022FF
:10152000334B20462946FEF76BFF0AD802270022DC
:101530007B0720462946FEF7B6FEFEF747FF86B238
:1015400009E0012700225B4620462946FEF7ABFE54
:10155000FEF73CFF86B27F1EADF82870701EADF816
:101560002C000024ADF82E40ADF82A400AA91098AE
:1015700001F026F81E9846434FF47A70864204D94B
:10158000B6FBF0F080B21E9003E01E9808B1012077
:101590001E906020ADF818001E98ADF81E00ADF842
:1015A00020400120ADF81A00B8F1000F2AD0B8F1A0
:1015B000010F1FE00010004000FCFFBF00080140C9
:1015C000000C0140000001400000F03F00002440FA
:1015D00000005940004CED400000694000003440DC
:1015E000D012634100409F4080842E41006AF84041
:1015F00040FFEF400BD0B8F1020F0DD0B8F1030F50
:1016000013D10EE006A9109800F0D2FE0DE006A955
:10161000109800F005FF08E006A9109800F04CFFB4
:1016200003E006A9109800F08DFF0121109800F04A
:10163000B0FEB8F1000F09D0B8F1010F0BD0B8F12E
:10164000020F0DD0B8F1030F13D10EE0082110984E
:1016500000F0E0FE0DE00821109800F023FF08E004
:101660000821109800F068FF03E00821109800F0AE
:101670009BFF0121109800F06FFE0121109800F0EF
:101680007BFE14B0BDE8F09F70470000054A0029BA
:1016900003D05169014351617047516981435161E0
:1016A0007047000000100240054A002903D0D169AC
:1016B0000143D1617047D1698143D1617047000016
:1016C00000100240054A002903D01169014311614D
:1016D000704711698143116170470000001002409A
:1016E000054A002903D091690143916170479169CE
:1016F000814391617047000000100240054A0029B3
:1017000003D0D1680143D1607047D1688143D16073
:10171000704700000010024070B5002400F06CF823
:101720004FF48035284600F005F9681E2146641CF8
:101730008142FBD300F050F9012803D0BDE870408E
:1017400000F025B81020FFF7E7F90220FFF7F0F9C5
:10175000002000F0E5F8002000F01AF94FF4806056
:1017600000F00CF94FF4E011284600F021F90120B7
:1017700000F018F9392000F0B3F80028FAD0022060
:1017800000F020F900F0C4F80828FBD170BD10B5B6
:1017900000F032F8012000F0E9F8202000F0A0F875
:1017A0000028FAD0002000F0BBF8002000F0F0F88C
:1017B0004FF4806000F0E2F80220FFF7B9F9102042
:1017C000FFF7AAF94FF46011002000F0F1F80120B2
:1017D00000F0E8F802E0022000F0F4F8392000F010
:1017E0007FF80028F7D000F093F80828FBD1BDE877
:1017F0001040FFF7B3BA00000B48016841F0010147
:1018000001604168094A114041600168084A11407D
:101810000160016821F480210160416821F4FE012A
:101820004160002181607047001002400000FFF815
:10183000FFFFF6FE10B5264A516801F00C01254B5A
:10184000002927D0042927D0082927D00360516810
:1018500001F0F0010909204B5C5C0168E140416046
:10186000546804F4E064240A1C5D21FA04F48460E2
:10187000546804F46054E40A1B5DD940C1605268A6
:1018800002F44042920B144B1B1F9A5CB1FBF2F125
:10189000016110BD0360DAE70360D8E7516801F425
:1018A0007011022303EB9141536803F4803333B189
:1018B00053689B0307D5094B59430160C7E7074BA2
:1018C00059430160C3E7034B59430160BFE7000080
:1018D0000010024000127A00F645000800093D00A1
:1018E000034600205909094A01290AD002290AD0D1
:1018F000516A03F01F02012393400B4200D00120E4
:1019000070471168F5E7116AF3E700000010024024
:101910000248406800F00C007047000000100240D0
:10192000034A516821F0F001014351607047000003
:10193000001002400C490A6822F480320A600A68EA
:1019400022F480220A60B0F5803F07D0B0F5802FE6
:1019500003D1086840F4A02008607047086840F48C
:1019600080300860704700000010024001490860A4
:10197000704700000000424270470000034A51686F
:1019800021F4E06101435160704700000010024003
:10199000034A516821F4605141EAC0005060704729
:1019A00000100240014908667047000000004242F2
:1019B000034B5A6822F47C12084310435860704766
:1019C00000100240034A516821F0030101435160B5
:1019D000704700000010024030B50B4C40F2FF157C
:1019E0003120FFF77DFF20706068401C6060207828
:1019F00010B96068A842F3D13120FFF771FF08B138
:101A0000012030BD002030BD1000002070470000D4
:101A100002490A8882430A80704700000428004077
:101A20002DE9F04700F062F805462C4FB5FBF7F3BF
:101A30002B482C4E018899422ED0038040F2B2747C
:101A40004FF4B7784FF4B6790CE02046FFF7FEFA72
:101A500020B1434508D3A3F5B77301E0A3F26D139A
:101A6000641CA4B24B45F0D8B4800024DFF8788021
:101A70000CE0B088FFF7EAFA08B1012C29D018F879
:101A80000400984204D81B1A641CA4B21C2BF0D288
:101A9000641CB4715B1CF371B5FBF7F007FB1050CD
:101AA0004FF46161B0FBF1F23270B0FBF1F201FB77
:101AB00012033C22B3FBF2F37370B0FBF1F301FBB2
:101AC0001300B0FBF2F102FB1100B0700020BDE882
:101AD000F0871D2BDCD31D3BD6E7000080510100B1
:101AE0001A0000208E9B002006460008034800884C
:101AF0000249091F098840EA014070471C2800403C
:101B000006490988C2B21140044A121F12880242D3
:101B100002D009B10120704700207047042800401E
:101B200010B50120FFF7ECFF08B1FFF779FF0220A5
:101B3000FFF7E6FF10B10220FFF76AFF0520FFF76D
:101B400067FFBDE8104000F001B8000002480188BE
:101B50008906FCD570470000042800407047704794
:101B6000704770470189406801617047018940688A
:101B700041617047002904D0018841F04001018093
:101B80007047018821F040010180704781817047D2
:101B900030B5028802F441530A884C88CD8822432C
:101BA0008C882C4322430C8922434C8922438C8904
:101BB0002243CC8922431A430280828B22F40062A2
:101BC0008283098A018230BD10B50446204600F0A8
:101BD00007F821896068BDE81040FFF74BB80000A6
:101BE0002DE9F04387B0044620685B49DFF86C813B
:101BF00040184FF018054FF003061AD0584FB0F5B3
:101C0000806F2BD0B0F5784F47D101210803FFF743
:101C100067FD01210520FFF763FDF020ADF804000A
:101C20008DF807508DF8066001A93846FFF7E8F8EF
:101C300033E001218803FFF737FD01210920FFF779
:101C40004FFD4FF47040ADF804008DF806608DF83C
:101C5000075001A94046FFF7D3F81EE04FF40049B2
:101C600001214846FFF720FD01210D20FFF738FD37
:101C70003820ADF804008DF806608DF8075001A9F2
:101C80004046FFF7BDF8ADF804908DF806608DF87A
:101C9000075001A93846FFF7B3F8618C19B101204C
:101CA000082901D102E00020012200E000221040BA
:101CB000102901D0012200E000221040182901D093
:101CC000012200E000221040202901D0012200E082
:101CD00000221040282901D0012200E000221040FB
:101CE000302901D0012200E000221040382901D023
:101CF000012100E0002108424FF0000100D0618482
:101D0000ADF808104FF48270ADF80A00ADF80C1071
:101D10000220ADF80E000120ADF81000ADF816104D
:101D20000720ADF818004FF40070ADF81200608C79
:101D3000ADF8140002A92068FFF72AFF2068018887
:101D4000890502D4012100F00DF801212068FFF778
:101D500011FF07B0BDE8F08300C8FFBF000C0140D1
:101D600000080140002904D0818841F004018180ED
:101D70007047818821F0040181807047704770B5F9
:101D8000002100F1820490F87E204FF6FF73002AB4
:101D900007D0521ED2B20568AD688688354200D0A1
:101DA000012152B1521ED2B203EA41018568AD68E9
:101DB0008689354201D041F0010152B1521ED2B2A2
:101DC00003EA41010569AD68868A354201D041F0D8
:101DD000010152B1521ED2B203EA41018569AD68D8
:101DE000868B354201D041F0010152B1521ED2B270
:101DF00003EA4101056AAD68868C354201D041F0A5
:101E0000010152B1521ED2B203EA4101856AAD68A6
:101E1000868D354201D041F0010152B1521ED2B23D
:101E200003EA4101056BAD68868E354201D041F071
:101E3000010152B1521ED2B203EA4101856BAD6875
:101E4000868F354201D041F001015AB1521ED2B203
:101E500003EA4101056CAD68B0F84460354201D039
:101E600041F001015AB1521ED2B203EA4101856C20
:101E7000AD68B0F84C60354201D041F001015AB173
:101E8000521ED2B203EA4101056DAD68B0F854604C
:101E9000354201D041F001015AB1521ED2B203EADB
:101EA0004101856DAD68B0F85C60354201D041F00C
:101EB00001015AB1521ED2B203EA4101056EAD686A
:101EC000B0F86460354201D041F001015AB1521EB0
:101ED000D2B203EA4101856EAD68B0F86C6035425C
:101EE00001D041F001015AB1521ED2B203EA4101C0
:101EF000056FAD68B0F87460354201D041F0010162
:101F00004AB103EA4101826F9268B0F87C301A420C
:101F100001D041F00101C94389B22180A0F88010AD
:101F2000084670BD70B5002200F1820390F87E1063
:101F30004FF6FF748C40A4B2002907D0491EC9B2E5
:101F40000568AD688688354200D0012241B1491E3E
:101F5000C9B28568AD688689354201D042F0020277
:101F600041B1491EC9B20569AD68868A354201D0C2
:101F700042F0040241B1491EC9B28569AD68868B41
:101F8000354201D042F0080241B1491EC9B2056A8A
:101F9000AD68868C354201D042F0100241B1491E35
:101FA000C9B2856AAD68868D354201D042F0200203
:101FB00041B1491EC9B2056BAD68868E354201D06C
:101FC00042F0400241B1491EC9B2856BAD68868FAF
:101FD000354201D042F0800249B1491EC9B2056CB8
:101FE000AD68B0F84460354201D042F4807249B126
:101FF000491EC9B2856CAD68B0F84C60354201D05D
:1020000042F4007249B1491EC9B2056DAD68B0F81D
:102010005460354201D042F4806249B1491EC9B2D0
:10202000856DAD68B0F85C60354201D042F4006265
:1020300049B1491EC9B2056EAD68B0F86460354259
:1020400001D042F4805249B1491EC9B2856EAD68D3
:10205000B0F86C60354201D042F4005249B1491EDB
:10206000C9B2056FAD68B0F87460354201D042F472
:10207000804239B1816F8968B0F87C50294201D023
:1020800042F400422243D14389B21960A0F8801083
:10209000084670BDFFF740BB194810B50822194922
:1020A00080F87E204B15016083808B1581608381D1
:1020B0008023016183824023816183832023016225
:1020C0008384102381628385016382860E49816344
:1020D0000421818700F056F80948FFF750FE0B4CA9
:1020E00000F03F0084F83B0A0548FFF748FE000671
:1020F00001D5012000E0002084F83C0A10BD00005A
:1021000084000020000C0140001401402C910020AC
:102110002DE9F041184CB4F8400A002821D1174DA0
:102120004FF4FA60A4F8400AA8780127002678B195
:102130001348FFF724FE6978C0B2814211D000F045
:102140003F0184F83B1A010610D584F83C7A0FE071
:10215000AF700B48FFF713FE6870000603D584F8D4
:102160003C7ABDE8F08184F83C6AFAE784F83C6A7E
:10217000AE706870F5E700002C9100200000002090
:102180008400002070B5054695F87E40002C05D0EF
:10219000A9882868FEF75CFD641EE4B22CB1A98909
:1021A000A868FEF755FD641EE4B22CB1A98A28691F
:1021B000FEF74EFD641EE4B22CB1A98BA869FEF7B0
:1021C00047FD641EE4B22CB1A98C286AFEF740FDDD
:1021D000641EE4B22CB1A98DA86AFEF739FD641E15
:1021E000E4B22CB1A98E286BFEF732FD641EE4B276
:1021F0002CB1A98FA86BFEF72BFD641EE4B234B19D
:10220000B5F84410286CFEF723FD641EE4B234B127
:10221000B5F84C10A86CFEF71BFD641EE4B234B197
:10222000B5F85410286DFEF713FD641EE4B234B106
:10223000B5F85C10A86DFEF70BFD641EE4B234B176
:10224000B5F86410286EFEF703FD641EE4B234B1E5
:10225000B5F86C10A86EFEF7FBFC641EE4B234B156
:10226000B5F87410286FFEF7F3FC641EE4B224B1D5
:10227000B5F87C10A86FFEF7EBFC2846BDE870406F
:10228000FFF750BE00F036B810B504002BD016484A
:10229000FFF7D0FA4FF0E021086920F00200086152
:1022A000086920F001000861086920F00400086155
:1022B0000D480E4A0068B0FBF2F0604348610869BF
:1022C00040F002000861086940F001000861002048
:1022D0008861086940F0020008614A6904480260A8
:1022E000096989B2416010BD989B002000127A00F4
:1022F0001C00002000F055BB7047704770477047C6
:1023000010B500F05BF9BDE810400121014800F074
:1023100030B80000002C014010B500F04FF9012149
:10232000BDE81040880700F024B8000010B500F0A8
:1023300045F9BDE810400121014800F01AB800003D
:102340000004004000F03AB970477047704770478A
:102350007047704700F032B9002904D0018841F07D
:10236000800101807047018840F27F321140018076
:102370007047C94301827047002904D0018841F0A9
:10238000010101807047018840F2FE321140018056
:102390007047002905D030F8441F41F40041018006
:1023A000704730F8441FC1F30E01018070470000F0
:1023B00030B5028C22F001020284058C8388028BE6
:1023C00022F070020C88144325F002020D89154397
:1023D0004A882A43CD8885860C4DA84202D00C4DF0
:1023E000A8420FD122F008054A892A4322F00405A9
:1023F0008A882A4323F4014323F402438D891D4331
:10240000CB892B4383800483028430BD002C0140A0
:1024100000340140028B22F008020A430283704715
:1024200070B5028C22F010020284028C8388048B27
:1024300024F4E0460D884FF6FF7404EA0525354381
:1024400022F020020E8904EA061616434A8804EA9E
:1024500002123243CE880687104EB04202D0104E90
:10246000B04217D122F080024E8904EA06161643C4
:1024700026F040068A8804EA0212324323F4044319
:1024800023F408438E8904EA86061E43C98904EAB8
:102490008103334383800583028470BD002C014097
:1024A00000340140028B22F400624FF6FF7303EA0E
:1024B000012111430183704770B5028C22F48072B0
:1024C0000284028C8388848B24F070040D88254359
:1024D00022F400720E894FF6FF7404EA06261643B2
:1024E0004A8804EA02223243CE888687104EB042E0
:1024F00002D0104EB04217D122F400664A8904EA95
:102500000222324322F480668A8804EA022232439D
:1025100023F4104323F420438E8904EA06161E4355
:10252000C98904EA0113334383808583028470BD23
:10253000002C014000340140828B22F008020A4343
:102540008283704770B5028C22F480520284058C1D
:102550008288838B23F4E0460C884FF6FF7303EAEE
:102560000424344325F400560D8903EA0535354328
:102570004E8803EA06362E43CD88A0F84050084D19
:10258000A84202D0074DA84205D1C2F30D058989A2
:1025900003EA81122A4382808483068470BD00008E
:1025A000002C014000340140828B22F400624FF67F
:1025B000FF7303EA012111438183704700F0F1B9F1
:1025C000028802F08F020280CA884B881A4303886F
:1025D0001A4302808A8882850A88028501228282C3
:1025E000044A904202D0044A904201D1097A0186FD
:1025F00070470000002C0140003401401948B0F839
:10260000461A11B1491EA0F8461AB0F8481A11B17D
:10261000491EA0F8481AB0F84A1A11B1491EA0F88C
:102620004A1AB0F84C1A11B1491EA0F84C1AB0F869
:10263000441A11B1491EA0F8441AB0F8401A11B159
:10264000491EA0F8401AB0F8421A11B1491EA0F86C
:10265000421AB0F84E1A002902D0491EA0F84E1AAC
:10266000704700002C91002000F09BB900F099B950
:1026700070B51F4D40F226642146284600F0F1F85F
:10268000C0B12146284600F07AF8284600F078FFCD
:1026900080B1284600F066FD0446002C26D00021BB
:1026A000204601F0BCFB0121204601F0A5FB284695
:1026B00001F04CFD40F224462C463146204600F005
:1026C000D0F8002812D03146204600F058F82046B5
:1026D00000F056FF002809D0204600F043FD0028F6
:1026E00004D02046BDE8704001F0D6BC70BD0000AB
:1026F0000038014070B51E4D40F226642146284640
:1027000000F0AFF8C0B12146284600F038F828465E
:1027100000F036FF68B1284600F024FD0446002C86
:1027200024D00021204601F07AFB0121204601F04F
:1027300063FB284601F00AFD40F224442146284666
:1027400000F08FF8002811D02146284600F017F835
:10275000284600F015FF20B1284600F003FD0028B0
:1027600004D02846BDE8704001F096BC70BD000062
:102770000044004000F015B9C943018070470A0ABF
:1027800001219140C94301807047002904D081890B
:1027900041F4005181817047818921F40051818188
:1027A0007047002A03D0828A0A4382827047828A55
:1027B0008A4382827047000010B5244A811A13159B
:1027C00090422BD00FDC224940181CD098423BD1BC
:1027D000040201212046FEF775FF2046BDE81040A7
:1027E0000021FEF76FBF994223D0B1F56C4F2BD17A
:1027F00001218C032046FEF781FF2046BDE81040F2
:102800000021FEF77BBF01214C042046FEF75AFF52
:102810002046BDE810400021FEF754BF0121CC0442
:102820002046FEF74FFF2046BDE810400021FEF78E
:1028300049BF01210C052046FEF744FF2046BDE8B4
:1028400010400021FEF73EBF10BD0000004C0040CC
:1028500000BCFFBF0246002012880A4200D00120BF
:10286000704770B50024C1F3421301F01F05012623
:1028700006FA05F2012B0CD0022B0DD0838A1340EF
:10288000090A8E40008830400BB100B10124204677
:1028900070BD83891340F3E7038A1340F0E710B556
:1028A000C1F3421301F01F040121A140012B07D005
:1028B000022B07D014303AB102680A43026010BDFF
:1028C0000C30F8E71030F6E702688A43026010BD6A
:1028D00030B585B004460D46208A4CF6FF7108409D
:1028E000E98801432182A1894EF6F3100140A888AE
:1028F0002A8910436A890A431043A081A08A4FF6AF
:10290000FF410840A9890143A1826846FEF792FF72
:102910001148844201D1039800E0029800EBC00105
:1029200001EB001029688900B0FBF1F06423B0FBD3
:10293000F3F109010A096FF018056A4300EB820000
:10294000322202EB0010B0FBF3F000F00F0008435E
:10295000208105B030BD00000038014000B50848B6
:1029600000F018F8074800F015F8074800F012F8D2
:10297000064800F00FF806485DF804EB00F00AB8CE
:10298000003801400044004000480040004C004036
:10299000005000407047704770477047FEE7FDF7F2
:1029A000D7BD10B5FEF7F0FBBDE81040FDF70EBE39
:1029B000704702E008C8121F08C1002AFAD1704708
:1029C0007047002001E001C1121F002AFBD17047AF
:1029D0002DE9F84306460D463046002801D0072D64
:1029E00002D20020BDE8F8832A467E21FDF7D2FB03
:1029F0000446200006D0A01B281A85B2072D03D25A
:102A00000020EFE70020EDE76078411DA94201D9E1
:102A10000020E7E7401C81B2601C475C8DF8007025
:102A2000421892F801808DF80180FDF705FEC1B2D1
:102A3000B94204D1B8EB102F01D12046D2E7601C77
:102A40006D1EADB2D0E700002DE9F0410646002131
:102A50001B4C0846621892F820200AB1401CC0B2F4
:102A6000491CC9B20429F5D3154F1649103F00255A
:102A7000E0B10D8007F134010422081FFDF794FB3B
:102A800028B1386B3060386BC7E90C5009E0B4F8F6
:102A9000AE00411CA4F8AE10B0F5FA6F0ED9386B39
:102AA0003060A4F8AE500420BDE8F0810888421CD4
:102AB0000A80B0F5967F01D90D807D630020F3E791
:102AC00090A400204800002010B50146B822074815
:102AD000FDF73CFB0548002180F8A91020F8AA1F4B
:102AE0004180C0F80610817210BD000090A4002043
:102AF00010B51D4CE069002834D02068002831D082
:102B000000F0C8FD94F8A90040B3B4F8AA004FF44F
:102B10009671401C80B2B0FBF1F2A4F8AA0001FB50
:102B2000120000281ED10021A4F8AA10103CAA20EF
:102B3000207061700320A0702520E0702620207195
:102B400061710521601CFDF762FDA071BB20E07181
:102B50002046BDE81040082100F058BEBDE81040F6
:102B600000F0CEBD10BD000090A4002070B504465A
:102B70000E461546206801F08BFC3146206801F0B6
:102B800011FD2946206801F0F3FB0121206801F0C6
:102B90000FFB204601F00CF9606810B12189FEF7A7
:102BA00069F8E06810B1218AFEF764F8606910B135
:102BB000218BFEF75FF80021204601F030F9204616
:102BC000BDE87040012101F017B970B505460E4609
:102BD0002C68204600F08CFC50B10021284601F002
:102BE0001EF90121284601F007F9204600F0E4F91A
:102BF000204600F0F5FB28B131462046BDE8704084
:102C000000F08CBB002070BD2DE9F04104460D465C
:102C100016460027206800F06BFC88B1206800F0A1
:102C2000DFFB68B10121204601F0F9F800212046C0
:102C300001F0E2F832462946206801F05FFA0746C3
:102C40003846BDE8F08170B5461C45786C1C0B46D3
:102C5000817863F3050121F040018170002A03D0DF
:102C600041F08001817002E021F0800181702146F5
:102C70003046FDF7E1FC3055010A301941707F21E3
:102C800081706D1DA8B270BD70B505460E46144624
:102C9000284601F0FDFB3146284601F083FC214621
:102CA0002846BDE8704001F063BB70B505460E468E
:102CB0000024284600F094FB38B13146284600F045
:102CC0002DFB0446284600F045F9204670BD70B53E
:102CD00004460D461646204600F00AFC30B1324646
:102CE00029462046BDE8704001F008BA002070BDBA
:102CF00030B5C1B069462E48FFF767FF010024D008
:102D00006846FFF765FE05001FD02A4C94F8510A6B
:102D100040F0040084F8510A2820A4F8560AA87844
:102D200094F83C1A00F03F02C00911B100280CD001
:102D300001E0002809D1012A09D0D1B1294601209A
:102D400000F044FF022000F0DBFE41B030BD022065
:102D500000F0BEF90028F8D015490020C431887170
:102D60000220A4F8480A00F0E1F8022000F0C8F8B8
:102D7000EBE794F83B1AE878814201D0FF2803D1B1
:102D80002946032000F022FF94F83B1AE87881429C
:102D900001D0FF2802D1284600F078F894F83B0AC9
:102DA000E9788842D1D1022000F0D4FECDE70000BE
:102DB000680000202C9100202DE9F041314CB4F83E
:102DC000480A002850D1A4F51046002796F80C2197
:102DD00072B106F20D11A1F2D110FFF715FF002814
:102DE00042D086F80C71022000F08AF80A2039E0FF
:102DF000B079052810D3022000F09CF960B1811C45
:102E0000B77194F83C0A08B1012000E0022000F0FC
:102E100032FF022000F08AF8022000F08BF9050052
:102E20001ED06A78A91C1848FFF7EEFE00281BD0B8
:102E3000B0796421401CC0B2B071A4F8481A94F86B
:102E4000511A41F0080184F8511A2821A4F8581A9F
:102E50006979FF290AD0BDE8F041022000F03ABEAE
:102E6000B7710520A4F8480ABDE8F0810228FBD319
:102E7000B771022000F05AF8BDE8F041022000F0DE
:102E80003FB800002C9100206800002070B5002899
:102E900033D08178857901F03F04C178FF2904D0CF
:102EA000164890F83B0A884227D10A2C01D0092CF9
:102EB00002D1012000F038FF022C03D00B2C01D0EE
:102EC000052C08D1284600F02FFF022C05D00B2C32
:102ED00003D0052C01D0082C02D1284600F06CFE4E
:102EE000032C05D0062C08D1BDE8704000F026BFA9
:102EF0002846BDE8704000F0F9BE70BD2C9100205E
:102F0000002810D0084A0128117906D0022807D0DD
:102F1000032808D121F0040004E021F0010001E0C1
:102F200021F00200107170472C01002010B5002420
:102F300000F0E6F800280CD004EBC41210F81210D0
:102F400011B1491E00F81210641CA4B2322CF3D344
:102F5000012010BD124A1349904203D10A7822F091
:102F600001020A70104A904203D10A7822F002024C
:102F70000A700E4A904203D10A7822F004020A70C5
:102F80000B4A904203D10A7822F008020A70094ADB
:102F9000904203D1087820F010000870002070479C
:102FA0000038014026000020004400400048004056
:102FB000004C004000500040124A1349904203D197
:102FC0000A7822F001020A70104A904203D10A786E
:102FD00022F002020A700E4A904203D10A7822F0CF
:102FE00004020A700B4A904203D10A7822F00802C8
:102FF0000A70094A904203D1087820F01000087046
:1030000000207047003801402500002000440040A7
:1030100000480040004C00400050004070B5284976
:10302000284A0225B1F8440A78B140F26C74264B64
:10303000A04202D29268D20401D51D6070BDC8289A
:10304000FCD9C720A1F8440A70BD1F4E361D35605B
:103050001E4C2078C1072046916840884FEAC14144
:1030600014D0002902DA40F0030005E0012000F04E
:10307000A3FD608820F0030060803560208820F088
:1030800001002080BDE8704000F058BE00294FEAE2
:10309000C0700ADA0028D7D100F08EFD002000F0C1
:1030A00043FE608840F0010007E00028CCD00120FA
:1030B00000F082FD608820F00100608070BD00009B
:1030C0002C91002000100140100C01402C01002028
:1030D000002808D009490128097905D0022806D01E
:1030E000032807D00020704701F001007047C1F3AA
:1030F00040007047C1F38000704700002C010020A1
:10310000002806D0012805D0022805D0032807D0C2
:103110000020704705487047054843F2735102E0AC
:10312000034846F2D7710844704700003B04002072
:103130002C01002010B50024FFF7E2FF00280AD080
:1031400004EBC41110F81110012905D0641CA4B2BD
:10315000322CF5D3002010BD04EBC41100EB41006C
:1031600010BD000010B50446204600F009FA28B151
:103170000D490E488C4203D1006810BD002010BDDF
:103180000B498C4201D1406810BD0A498C4201D1E3
:10319000806810BD08498C4201D1C06810BD074944
:1031A0008C42FBD1006910BD003801406CA40020A6
:1031B0000044004000480040004C004000500040E7
:1031C0000B4A0C49904201D1088870470A4A904244
:1031D00001D148887047094A904201D188887047D8
:1031E000074A904201D1C88870470020704700000C
:1031F00000380140380000200044004000480040F2
:10320000004C00400B4A0C49904201D1088870479D
:103210000A4A904201D148887047094A904201D138
:1032200088887047074A904201D1C88870470020BB
:10323000704700000038014040000020004400407A
:1032400000480040004C00400B4A0C49904201D11C
:10325000088870470A4A904201D148887047094A55
:10326000904201D188887047074A904201D1C888AE
:1032700070470020704700000038014028000020FF
:103280000044004000480040004C00400B4A0C49FC
:10329000904201D1088870470A4A904201D148887B
:1032A0007047094A904201D188887047074A904286
:1032B00001D1C888704700207047000000380140E5
:1032C000300000200044004000480040004C004016
:1032D0000A49884201D10A4870470A49884201D107
:1032E000094870470949884201D10948704709498E
:1032F000884201D1084870470020704700380140DB
:10330000AC9B002000440040C49C002000480040CA
:10331000DC9D0020004C0040F49E00202DE9F04789
:10332000884607461B498F4202D10020BDE8F0873E
:1033300060B33846FFF7CCFF81463846FFF784FF7D
:103340000646384600F028F804466068301A85B210
:10335000F5B1206820F0010020602A464946404629
:10336000FCF7F4FEC4F80C906660206840F00100A1
:1033700020604FF6EF7038800021384600F088FD5D
:103380003146384600F060FE2846CFE70020CDE702
:103390000020CBE7005000400B49884201D10B4888
:1033A00070470B49884202D10848143070470949D8
:1033B000884202D10548283870470749884201D120
:1033C000064870470020704700380140580002400E
:1033D0000044004000480040004C004030040240DF
:1033E00070B505462846FFF72FFF06462846FFF72B
:1033F000D3FF406884B210212846FFF72BFA28B18A
:1034000010212846FFF7B8F9012070BD24B1B4425D
:1034100005D14FF0010070BD4FF0010070BD0FD21B
:103420002846FFF733FF06462846FFF7C9FEB44299
:103430000AD1022806D8401C81B2284600F028FD97
:10344000002070BD012070BD0021284600F020FD45
:103450002146284600F0F8FD002070BD0A49884248
:1034600001D10A4870470A49884201D1094870478A
:103470000949884201D1094870470949884201D168
:103480000848704700207047003801400CA0002019
:103490000044004024A10020004800403CA200203D
:1034A000004C004054A300200B49884201D10B4836
:1034B00070470B49884202D108483C30704709499F
:1034C000884202D10548283870470749884201D10F
:1034D0000648704700207047003801404400024011
:1034E0000044004000480040004C004058040240A6
:1034F00070B506463046FFF785FE04463046FFF7B6
:10350000D3FF054640213046FFF7A4F988B10021DA
:10351000304600F04BFD00212846FDF779F94021A7
:103520003046FFF729F980213046FFF725F90120C1
:1035300070BD2868C00702D0686810B11DE0012086
:1035400070BD80213046FFF785F9B0B1022C06D25C
:10355000641CA1B2304600F029FD002070BD00219E
:103560002846FDF755F980213046FFF705F900217F
:10357000304600F01BFD012070BD002070BD000032
:1035800010490F4A0978904202D101F001007047BA
:103590000D4A904202D1C1F3400070470B4A90425D
:1035A00002D1C1F380007047094A904202D1C1F3B1
:1035B000C0007047074A9042FBD1C1F3001070472A
:1035C0000038014024000020004400400048004032
:1035D000004C0040005000402DE9F0472C4F97F878
:1035E000A800002843D00024A7F1100907F1280AF9
:1035F000A04623E03D1995F82800AA281CD195F88B
:103600002A106018021D802A01D987F8A880C619DF
:1036100096F82C00BB280FD105F12900891CFCF776
:10362000F6FF96F82B10814206D1012087F8A900F9
:1036300095F82A0006281CD0641CE4B297F8A8006C
:10364000A042D7D87E2C05D380215046FCF797FDA9
:1036500087F8A880B7F8AC00411CA7F8AC1040F27E
:10366000DC51884203D9C9F83080A7F8AC80BDE8A6
:10367000F08739195046D1F82D10C9F83010802143
:10368000FCF77DFD07F8A88FA7F80480EFE700009E
:1036900090A4002030B591B069461848FFF795FA1C
:1036A000164D04004FF0000118D095F8A8002044F2
:1036B000802806D9A5F1100085F8A8100163A5F8A7
:1036C000AC100E4815F8A81F283008442246694659
:1036D000FCF73CFD2878204428700AE0B5F8AC00DF
:1036E000421CA5F8AC2040F2DC52904201D385F890
:1036F000A910FFF771FF11B030BD000090A40020A9
:103700002DE9F041FFF7C6FF3F4D95F8A9000028CD
:1037100073D1B5F8AA0040F2DC510026884201D3EB
:10372000A5F8AA60B5F8AA104FF49670B1FBF0F2B4
:1037300000FB121C40014FF461444200830067000B
:10374000BCF1000F02D0322928D052E095F8B41015
:10375000A9B1012916D0022917D0032918D00429AC
:1037600019D0E869C5F8B00085F8B4608022264811
:10377000D5F8B010FFF7FAF9A5F8AA6039E0C5F856
:10378000B000F3E7C5F8B020F0E7C5F8B030EDE7DA
:10379000C5F8B040EAE7C5F8B070E7E7D5F81CC057
:1037A00000219C452BD005DC844508D0944506D1EA
:1037B000012104E0A44524D0BC4500D10421124CD1
:1037C000AA20103C207066700220A0708120E0705A
:1037D00021710421601CFCF71AFF6071BB20A071ED
:1037E0000721204600F012F895F8B400401C85F837
:1037F000B40035F8AA0F401C2880BDE8F0810221F2
:10380000DDE70321DBE7000090A400200A46014623
:103810000148FFF7F9B9000090A4002010B5C0B02E
:1038200069461D48FFF7D1F901002CD06846FFF723
:10383000CFF8010027D0194C94F8510A40F010003D
:1038400084F8510A2820A4F85A0A887800F03F0228
:10385000C00918D0012A04D094F83C0AA8B101206C
:1038600014E00320FFF734FC00280CD00A490020A4
:10387000E031C8710220A4F84A0A0320FFF756FB82
:103880000320FFF73DFB40B010BD022000F09EF981
:10389000032000F035F9F6E74C0000202C910020C1
:1038A0002DE9F041344CB4F84A0A002857D1A4F568
:1038B0001046002796F80E0288B13146A1F1E000CB
:1038C00091F80C2101F20D11FFF79EF9002846D066
:1038D00086F80E720320FFF713FB0A203DE0F07913
:1038E000052810D30320FFF725FC60B1811CF77178
:1038F00094F83C0A08B1012000E0022000F0BBF976
:103900000320FFF713FB0320FFF714FC050022D070
:103910006A78A91C1948FFF777F900281FD0F079B9
:103920006421401CC0B2F071A4F84A1A94F8511AEC
:1039300041F0200184F8511A2821A4F85C1AA979D1
:10394000AD1CFF290DD06979FF290AD0BDE8F041EF
:10395000032000F0BFB8F7710520A4F84A0ABDE8BB
:10396000F0810228FBD3F7710320FFF7DFFABDE8EF
:10397000F0410320FFF7C4BA2C9100204C00002036
:10398000FFF70DF8FDF700FCFCE7000030B5C1B013
:1039900069462948FFF789F901002DD06846FFF7ED
:1039A00017F8264C050094F8510A40F0010084F8FD
:1039B000510A4FF02800A4F8520A1DD0A87800F050
:1039C0003F00012807D094F83B1AE878814215D0CF
:1039D000FF2813D016E00120FFF77AFB00280BD058
:1039E0001749002048710520A4F8460A0120FFF776
:1039F0009DFA0120FFF784FA41B030BD294603202B
:103A000000F0E4F894F83B1AE878814201D1FF28ED
:103A100003D12946022000F0D9F894F83B1AE8783F
:103A2000814201D0FF2802D12846FFF72FFA01205A
:103A300000F090F8E0E70000004400402C910020E6
:103A40002C0100202DE9F041204CB4F8460A002852
:103A500038D1A4F510451E4FAA7A00267AB105F197
:103A60000B013846FFF733F900282BD0AE72022045
:103A7000A4F8460ABDE8F0410120FFF741BA687991
:103A800018B16E710120FFF751FA0120FFF752FBC8
:103A9000D0B14278811C3846FFF719F9002811D0BF
:103AA000012000F017F86879401C68716420A4F8C0
:103AB000460A94F8510A40F0020084F8510A28207E
:103AC000A4F8540ABDE8F0816E71FBE72C91002048
:103AD00000440040002810D0084A0128117906D07F
:103AE000022807D0032808D141F0040004E041F087
:103AF000010001E041F00200107170472C0100202C
:103B000010B501281CD002281CD0032817D10E4C58
:103B10007E21A01CA1700521E1702179002221F0F5
:103B20003F01491C21F0C001217100216171A17187
:103B3000E171217201212170FFF785F8607010BDDD
:103B4000024CE5E7024CE3E7390300203501002091
:103B50003702002010B5012821D0022821D00328E7
:103B60001CD1114C7E21A01CA1700521E17021798E
:103B700021F03F01491C21F0400141F080012171F9
:103B80000A4991F83B1A61710021A171E1718171BB
:103B9000012121700A46FFF756F8607010BD044CF1
:103BA000E0E7044CDEE70000390300202C91002000
:103BB0003501002037020020012110B102480160C8
:103BC00070470148001DFAE7100C01402DE9F0474D
:103BD00000250E4680462F468946FFF791FA041EBF
:103BE00038D0B6B3F1783079B8F1020F03D0B8F11C
:103BF000030F02D003E061B301E000282AD07678F9
:103C0000761DB6F5807F24D805EBC51114F8110098
:103C1000B8420BD9074604EB41004178B14205D1C7
:103C200032464946801CFCF7BFFAA8B16D1CADB204
:103C3000322DE9D3322F0CD27F1C1FFA87F80020D7
:103C400000EBC01114F8111041B1401C80B23228B1
:103C5000F6D30020BDE8F0873046FBE700EBC01547
:103C600004EB4507B81C32464946FCF76FFA04F8E6
:103C700015807E70F0E710B5C2B004467E208DF846
:103C8000000006208DF801009DF8020020F03F00A2
:103C9000801D20F0400040F080008DF80200C878C0
:103CA0008DF8030008798DF8040048798DF8050037
:103CB00002208DF8060001208DF80700052C12D295
:103CC000DFE804F011080308080000208DF8040064
:103CD0008DF80500012206216846FEF7B4FF69460B
:103CE0002046FFF773FF42B010BD00000C4B10B52B
:103CF0001A8803F51041022448B142F001001880EF
:103D00004FF4FA60A1F8440A0648046010BD22F09E
:103D1000010018800020A1F8440A0248001DF4E7C1
:103D20002C010020100C0140042110B10248016058
:103D300070470148001DFAE7100C014010B5C2B0F1
:103D40007E208DF8000006208DF801009DF802000D
:103D5000164C20F03F00C01C20F0400040F08000D6
:103D60008DF8020094F83B0A8DF8030000208DF8CE
:103D700004008DF8050001208DF80600A4F5104020
:103D800080228078032100F001008DF8070068464A
:103D9000FEF759FF94F83C0A694608B1012000E09B
:103DA0000220FFF713FF42B010BD00002C9100204D
:103DB00001680B4B0B4A994200D110600A4B9942A3
:103DC00000D15060094B994200D19060084B994254
:103DD00000D1D060074B994200D1106170470000BC
:103DE000003801406CA4002000440040004800401E
:103DF000004C0040005000404269002A05D011B13B
:103E0000038B536101E0038B13614268002A02D0E7
:103E100011B1008950617047008910617047C26814
:103E2000002A05D011B1038A136101E0038A5361AE
:103E30004268002A02D011B10089106170470089E0
:103E4000506170470D49884203D14FF48030FCF730
:103E5000D3BC0B49884203D14FF48010FCF7CCBC93
:103E60000849884202D18015FCF7C6BC0649884241
:103E700002D10648FCF7C0BC704700000038014082
:103E80000044004000480040004C00400001001089
:103E9000024608460A4B0B499A4201D108807047F6
:103EA000094B9A4201D148807047084B9A4201D190
:103EB00088807047064B9A42FBD1C880704700004B
:103EC0000038014038000020004400400048004015
:103ED000004C004030B52048C1B090F83C0A0028A2
:103EE0000ED00220FFF726F91C4C002508B1E56032
:103EF00003E01B49E068884204D2E068401CE060AF
:103F000041B030BD7E208DF8000006208DF8010004
:103F10009DF80200002220F03F000C3020F0C0008D
:103F20008DF80200FF208DF804008DF805008DF853
:103F300003008DF806508DF807500C216846FEF7F7
:103F400082FE69460220FFF741FE69460320FFF723
:103F50003DFEE560D4E700002C9100200000002029
:103F6000C02709000C49884202D18014FCF744BCE8
:103F70000A49884203D14FF08070FCF73DBC0849E4
:103F8000884202D11020FCF737BC0649884202D192
:103F90000548FCF731BC7047003801400044004040
:103FA00000480040004C0040000001100246084656
:103FB0000A4B0B499A4201D108807047094B9A423B
:103FC00001D148807047084B9A4201D188807047E0
:103FD000064B9A42FBD1C880704700000038014070
:103FE000400000200044004000480040004C0040D9
:103FF000024608464FF48C71002808D0884200D948
:1040000008460C4B0C499A4203D108807047084679
:10401000F7E70A4B9A4201D148807047084B9A4211
:1040200001D188807047074B9A4201D1C880704700
:104030000020704700380140280000200044004064
:1040400000480040004C0040024608464FF48C7186
:10405000884200D908460B4B0B499A4201D108808F
:1040600070470A4B9A4201D148807047084B9A42E8
:1040700001D188807047074B9A4201D1C8807047B0
:10408000002070470038014030000020004400400C
:1040900000480040004C0040124A1349904203D1AE
:1040A0000A7842F001020A70104A904203D10A785D
:1040B00042F002020A700E4A904203D10A7842F09E
:1040C00004020A700B4A904203D10A7842F00802B7
:1040D0000A70094A904203D1087840F01000087035
:1040E00000207047003801402600002000440040B6
:1040F00000480040004C0040005000402DE9F041D5
:1041000004460F4615462046FFF79EF80646204611
:10411000FFF7A4F980462046FFF7C6F90446B542EA
:1041200002D90020BDE8F0812A4639464046FCF716
:104130000DF8206820F0010020606560C4F80C8054
:10414000206840F0010020602846EBE7124A13493E
:10415000904203D10A7842F001020A70104A90425C
:1041600003D10A7842F002020A700E4A904203D14B
:104170000A7842F004020A700B4A904203D10A788E
:1041800042F008020A70094A904203D1087840F0D0
:104190001000087000207047003801402500002002
:1041A0000044004000480040004C004000500040E7
:1041B000124B134A984203D1137861F30003137032
:1041C000104B984203D1137861F3410313700E4BE7
:1041D000984203D1137861F3820313700B4B98421A
:1041E00003D1137861F3C3031370094B984203D1D1
:1041F000107861F30410107070470000003801401F
:10420000240000200044004000480040004C0040D2
:104210000050004070B518490878642806D2401C48
:1042200008701648B0F86200C88070BD14488068F5
:10423000124CC00404F1600403D5608840F0010012
:1042400060800D480222A11C801DFBF7ADFF0028F5
:10425000EBD0094DA178AD1D01F00101287800F0E7
:1042600001008842E1D0FFF769FDA078298860F35A
:104270000001298070BD000000000020CC0000205B
:1042800000100140F0B5364E364C95B096F83B0A1A
:10429000002598B16079002854D033486571806852
:1042A000A6F51044C0044FD50020FFF73DFD0020C7
:1042B000FFF782FC608840F001004EE054222B4959
:1042C0006846FBF743FF60890127411C6181B0F517
:1042D000FA7F36D965812079322820D2401CC0B2BD
:1042E0000A21B0FBF1F2207130328DF82520B0FBAD
:1042F000F1F201FB120030308DF826000022092176
:104300006846FEF7A0FC69460320FFF75FFC96F8BD
:104310003C0A28B169460220FFF758FC00E02571ED
:104320000120FFF701FD0120FFF7E0FCE07820B15C
:104330000120FFF741FCE57003E00020FFF73CFCA3
:10434000E770677115B0F0BD0120FFF7EDFC0120AB
:10435000FFF732FC608820F001006080F2E7000087
:104360002C9100200000002000100140144600089D
:104370002DE9F04F8DB005460C462846FEF7A8FF04
:10438000064621462846FFF733FE01902846FFF7F0
:104390008BF881462846FEF7FFFF8046002E6FD03F
:1043A000B9F1000F6CD0B8F1000F69D03649681A26
:1043B0000A158D4219D009DC3448281810D09042D3
:1043C00017D101210846FDF761F912E0904257D05C
:1043D000B0F56C4F0DD101210846FDF757F908E003
:1043E00001210846FDF752F903E001210220FDF703
:1043F0004DF92F1D02970396102004900024059478
:1044000006944FF0800ACDF81CA0089409940A94F1
:104410004FF4005BCDF82CB00C9402A94846FCF791
:104420001FFA029703960494019805900694CDF81C
:104430001CA0089409940A94CDF82CB00C9402A9FD
:104440004046FCF70DFA00214846FCF7E1F901214E
:104450004046FCF7DDF9012240212846FEF7A1F98C
:10446000012280212846FEF79CF9002202214846BD
:10447000FCF7ECF92846FFF775FD2846FFF7E2FC4C
:104480000DB0BDE8F08F0000004C004000BCFFBF45
:104490002DE9F84300250024002700263A4ADFF8DA
:1044A000EC80811ADFF8E89013154FF4006C90420D
:1044B0003AD019DC3749401829D098424DD1364FAF
:1044C0003E461D46644601210846FDF709F90121D3
:1044D0003248FCF7E9FC01210820FDF701F9012130
:1044E0008804FDF7E1F838E099422AD0B1F56C4F25
:1044F00033D147463E464FF400751C460121052046
:10450000FDF7EEF801218803FDF7EAF825E04746BC
:104510003E460425082401210420FDF7E1F801218D
:104520004804FDF7C1F818E04F463E461D46644674
:1045300001211120FDF7D4F80121C804FDF7B4F8DA
:104540000BE04F46164E1D46042401213120FDF795
:10455000C7F801210805FDF7A7F8ADF800501820AD
:104560008DF8030003208DF8020069463846FCF7F9
:1045700047FCADF8004048208DF8030069463046FE
:10458000FCF73EFCBDE8F883004C00400008014009
:104590000010014000BCFFBF000C014000023000D1
:1045A000001401407FB505460C462846FEF704F985
:1045B00000940021ADF80410ADF80610ADF8081015
:1045C0000C22ADF80A20ADF80C1069462846FEF71B
:1045D0007FF940F22444002221462846FEF75FF985
:1045E00021462846FEF7CBF801212846FEF7CDF8F4
:1045F0007FBD02040608000000000102030401025E
:104600000304060708091F1C1F1E1F1E1F1F1E1F55
:104610001E1F00007E4C09FFFFFF0110BFD8D6C649
:10462000B0E5CEB4B2A6C2EBB2E2CAD40209746558
:1046300073742DB9E6B8F10302393904097465734E
:10464000742DB1F0C3FB0509746573742DB3A7C94C
:10465000CC060B636F64652D74657374303107028B
:10466000B8F6BD9E7F0000008846000800000020CC
:104670004C000000B2290008D44600084C0000207D
:10468000FCA80000C2290008000000000000000093
:10469000000000000000000000000000000000001A
:1046A000000000000000000000000000000000000A
:1046B00000000000000000000000000000000000FA
:1046C00000000000000000000000000000000000EA
:0446D00000000000E6
:0400000508000131BD
:00000001FF
