:020000040800F2
:10000000D834002045010008611D0008711B00085C
:100010005F1D000821090008AD3400080000000041
:10002000000000000000000000000000F52D0008A6
:10003000890B0008000000004F1E0008C12F0008B7
:10004000C13400084D1E00089D300008212300081F
:10005000C11600087D210008CD140008D514000841
:10006000D9140008DD140008E11400089109000803
:1000700095090008990900089D090008A1090008D0
:10008000A5090008A90900088D070008A93400087F
:10009000AB3400082309000825090008E51400080E
:1000A0009F300008A5300008A3300008A1300008E8
:1000B000BD300008D1300008E9300008751B000889
:1000C000731B0008791B0008771B00085F230008DA
:1000D00061230008C5310008213200089932000868
:1000E000D114000811220008A7340008F3300008DA
:1000F000F9300008F7300008F53000088F070008D5
:10010000F51600085D230008ED30000863230008A1
:100110000931000869310008EF300008F1300008AB
:10012000AD090008B1090008B5090008B9090008BF
:10013000DFF80CD000F018FB00480047914B000896
:10014000D8340020004800473101000840EA01038C
:100150009B0703D009E008C9121F08C0042AFAD27D
:1001600003E011F8013B00F8013B521EF9D2704741
:10017000D2B201E000F8012B491EFBD270470022E9
:10018000F6E710B513460A4604461946FFF7F0FF96
:10019000204610BD421C10F8011B0029FBD1801A1B
:1001A0007047CBB203E00178994203D0401C521E45
:1001B000F9D20020704730B504460020034600E025
:1001C0005B1C934203D2E05CCD5C401BF8D030BD99
:1001D0002DE9FE4F804681EA0300C00F0C460090D7
:1001E00021F0004123F00045B8EB0200A94105D2FF
:1001F0004046214690461C460B46024623F00040EE
:10020000104347D0270DC7F30A00C3F30A510290E9
:10021000401A019040286BDAC3F3130040F4801BAE
:100220000098924620B10023D2EB030A63EB0B0B3C
:1002300001985946C0F14002504600F0D6F90646F2
:100240000D4650465946019A00F0EEF910EB0800B1
:100250006141002487EA115284EAE7731A4340D0CF
:10026000009A62B3019A012A4FEA075215DC001B7B
:1002700061EB02014FF0004202EA0752CDE9004271
:10028000001C41F5801132462B4600F0EEF903B018
:10029000BDE8F08F40462146F9E7001B61EB020103
:1002A000001C41F5801300185B412018A2F50017CF
:1002B00047EB030140EAD570B6196D4111E06D08B6
:1002C0004FEA360645EAC0754FEA0752001B61EB5C
:1002D0000201001C41F5801149084FEA3000001965
:1002E000514132462B4603B0BDE8F04F00F0AEB9A5
:1002F0000098012240000023D0EB020263EBE07380
:10030000009821464FEAE074B8EB000061EB04016D
:10031000E9E783F000435BE781F0004158E72DE90E
:10032000FE4F81EA030404F0004421F000410094F0
:100330004FF0000B23F0004350EA01045ED052EA74
:1003400003045BD0C3F30A54C1F30A552C44A4F24E
:10035000F3340194A0FB0254C1F3130141F4801162
:10036000C3F3130343F4801301FB024400FB034E69
:10037000840A970A44EA815447EA8357A4FB076832
:1003800002958D0A05FB07854FEA932C04FB0C545C
:100390002705029D4FEA065847EA1637B5EB0805D0
:1003A0006EEB070C870E920E47EA811742EA831222
:1003B000A7FB0201B6EB0B0164EB00042B0D43EA33
:1003C0000C335E1844EB1C50DA465146E7FB020141
:1003D000C5F313044FEA0B3343EA14534FEA0432D4
:1003E000019C43EA0603A4F10C040294009CCDE9AD
:1003F00000B400F03AF903B0BDE8F08F00200146E8
:10040000F9E72DE9F04D81EA030404F0004B21F0F7
:10041000004514464FF0000A23F0004150EA05025F
:1004200020D054EA01021DD0C5F30A570246C5F395
:100430001303C1F31300C1F30A5640F4801543F4CB
:100440008013A7EB0608101BD64608F2FD3873EBA5
:10045000050002D308F1010801E092185B41B8F1F0
:10046000000F03DA00200146BDE8F08D00204FF4B4
:100470008011064684460EE0171B73EB050705D373
:10048000121B63EB050306434CEA010C49084FEAD3
:10049000300092185B4150EA0107EDD152EA0300A7
:1004A00012D082EA040083EA0501084305D0101B3C
:1004B000AB4106D20122002306E000224FF00043A8
:1004C00002E06FF0010253101AEB06004CEB0851EA
:1004D00010EB0A0041EB0B01BDE8F04D00F0B6B89F
:1004E0000EB540F2334102910021CDE900110A46D8
:1004F0000B4600F0BAF803B000BDC1F30A5210B5C4
:10050000C1F3130140F2FF3341F480119A4201DA42
:10051000002010BD40F233439A42A2F2334203DC82
:10052000524200F071F810BD904010BD30B5041E6D
:1005300071F1000404DB4FF00044404264EB010120
:10054000141E73F1000405DB1C464FF000435242B9
:1005500063EB04038B4208BF824230BD30B50B46CB
:10056000014600202022012409E021FA02F59D42E3
:1005700005D303FA02F5491B04FA02F52844151EB7
:10058000A2F10102F1DC30BD2DE9F05F054600204B
:1005900092469B4688460646814640241BE02846F4
:1005A00041464746224600F02FF853465A46C01AA5
:1005B000914110D311461846224600F016F82D1A24
:1005C00067EB01084F4622460120002100F00DF89C
:1005D00017EB00094E41201EA4F10104DFDC484660
:1005E00031462A464346BDE8F09F202A04DB203AE4
:1005F00000FA02F1002070479140C2F1200320FA76
:1006000003F3194390407047202A04DB203A21FA73
:1006100002F00021704721FA02F3D040C2F120021B
:100620009140084319467047202A06DBCB17203A31
:1006300041FA02F043EAE07306E041FA02F3D040E7
:10064000C2F12002914008431946704710B5141EAC
:1006500073F1000408DA401C41F1000192185B417B
:100660001A4301D120F0010010BD2DE9F04D924652
:100670009B4611B1B1FA81F202E0B0FA80F2203269
:100680009046FFF7B2FF04460F4640EA0A0041EAEF
:100690000B0153465A46084313D0114653EA010052
:1006A00019D0C8F140025046FFF7AEFF05460E468E
:1006B000504659464246FFF798FF084305D00120AF
:1006C00004E020463946BDE8F08D0020054346EAA7
:1006D000E0762C4337430A986305E40AA0EB080050
:1006E0000022FD0A44EA47540A3002D500200146A0
:1006F000E9E7010510196941DDE90845001969417B
:10070000BDE8F04DA2E7C1F30A52C1F3130140F274
:10071000FF3341F480119A4202DA0020014670470B
:1007200040F233439A42A2F2334202DC5242FFF7D4
:100730006BBFFFF75ABF000030B5041E71F1000413
:1007400004DB4FF00044404264EB0101141E73F1DE
:10075000000405DB1C464FF00043524263EB0403E8
:10076000994208BF904230BD064C074D06E0E06854
:1007700040F0010394E8070098471034AC42F6D3E8
:10078000FFF7DAFC3C5900085C59000870477047D5
:1007900002F031FB01F036F900F09CF901211C4810
:1007A00001F01AF84FF4FA6001F0E8F94FF6FF7023
:1007B00001F014FE40F2CF1001F010FE4FF47A70F9
:1007C00002F000FC134C42F22C30261842F210309A
:1007D00004EB000842F22C402718002504F50054D1
:1007E0003146404603F001FD010002D0304601F0E1
:1007F0002FFBB4F82C25002AF2D03946404603F0EE
:10080000F7FCB4F82C158142EAD1A4F82C55E7E79F
:1008100000080140AC00002070B501F0F7F9134C5E
:100820000025A088411CA180642804D9A58001214D
:100830000F4803F058FC00F021F801F045FA208938
:10084000411C2181B0F57A7F0CD92581094803F03C
:1008500040FBC0B20849020900F00F0081F8B5253D
:1008600081F8B605BDE8704001F0BABA000000207A
:1008700000080140DC250020AC20002038B52348CA
:1008800090F8B51519B190F8B605002833D1204A73
:100890005089411C5181B0F57A7F2CD900235381B6
:1008A000907840F2FF74401CC1B2481CC0B29070F6
:1008B000052901D993700AE048B101281CD002280B
:1008C0001DD003281ED0042801D04FF6FF74204607
:1008D00001F084FD0FA0009084F0FF03202264212A
:1008E000052001F0DFFE01200146009000220B4BA5
:1008F000800703F03CFC38BD48F23044E7E74FF492
:100900007844E4E748F21F44E1E70000AC2000200F
:1009100000000020CEB4B2A6C2EB000000408F4021
:10092000FEE770477047FCB504464FF6FF7700209E
:100930000D46ADF8007048F205068DF804001EE083
:1009400014F8010B8DF8040001A9084601F091F993
:10095000BDF800009DF8041080EA0120ADF8000009
:100960000020BDF800100A0402D586EA410101E02A
:1009700007EA4101401CADF800100828F1DB6D1EAC
:10098000DED26946084601F05DF9BDF80000FCBD05
:1009900000F060B800F05EB800F05CB800F05AB843
:1009A00000F058B800F056B800F054B800F052B853
:1009B00000F050B800F04EB800F04CB8C10002D5BD
:1009C00002490860704702494860704704040240C9
:1009D000000002400029016802D041F0010101E05D
:1009E00021F001010160704702460020D10001D5CD
:1009F000034900E003490968114200D00120704713
:100A00000004024000000240002A026801D00A43AC
:100A100000E08A430260704730B5026847F6F07321
:100A20009A430C6A8B682343D1E904452C43234342
:100A30008C692343CC6923434C6A23438C6A234348
:100A400013430360CA6842600A6882604968C160F3
:100A500030BD000010B502F02CFD1020FFF7C4FFE0
:100A600001281BD04FF480542046FFF7BDFF01281A
:100A70001AD024032046FFF7B7FF01281BD0124CE1
:100A80002046FFF7B1FF01281CD12046FFF796FF53
:100A90000E480021BDE81040FFF79CBF1020FFF773
:100AA0008DFF00210A48F5E72046FFF787FF084839
:100AB00000212830EEE72046FFF780FF04480021A0
:100AC0006430E7E710BD0000000001105804024048
:100AD0001C00024030B52A484FF6FF730021C38640
:100AE0000187102280F83A204BF21C7420F8024B48
:100AF00040F24A5420F8024B182400F80C4B4FF6F1
:100B0000C83420F80A3C20F8081C00F8062C20F80D
:100B1000043C20F8021C0270448048F68114848052
:100B20002024847103814FF47B4545810273C38186
:100B3000018282748382C1820276438381838277B9
:100B400048F250430384022380F824304FF49B730F
:100B50008385F023C385018642868186C286092269
:100B6000028741874FF496718187D021C18720F891
:100B7000504F8021418003481E2180F8A61230BDCD
:100B800054230020AC200020704700000FB430A098
:100B90002DE9F04FD0E90010C7B0CDE9451045A8C8
:100BA000FFF7F8FA2C4CC6B2D4F806000090608922
:100BB000ADF80400DDE95250814615F0FF0742D040
:100BC000324645A905A8FFF7C1FAC5F3072050A989
:100BD000014405A830443A462C31FFF7B7FAB8195A
:100BE00000F0FF0B34F8480FBDF80070BDF802A00C
:100BF0009DF804602081A08B4FEA1548401C60815D
:100C000020894D464044A0816089284483B2E38115
:100C100020896189A289009701F022FC2089208225
:100C20004044A08260896082284483B2E382208AA3
:100C3000618AA28A05ADCDE903B58DE8C00401F053
:100C4000A1FFE089A08347B0BDE8F00F5DF814FB79
:100C5000B1F0C3FB3A000000542300200FB434A0CD
:100C60002DE9F04FD0E90010C7B0CDE9451045A8F7
:100C7000FFF790FA304CC5B2D4F81E000290608C99
:100C8000ADF80C00DDF85A0100909DF80060BDF849
:100C90005E01ADF80400002E45D02A4645A905A8FE
:100CA000FFF754FA9DF8010050A901440DF1140B0F
:100CB0000BEB050032462C31FFF748FA701900F0B3
:100CC000FF0A34F8480FBDF80850BDF80A909DF8A7
:100CD0000C602081A08B401C60812089BDF802102F
:100CE0000844A0816089BDF804708846384483B206
:100CF000E38120896189A289009501F0B1FB2089F7
:100D000020824044A08260896082384483B2E382BA
:100D1000208A618AA28A01AF009687E8200E01F03E
:100D200031FFE089A08347B0BDE8F00F5DF814FB08
:100D3000B1E0C2EB3A0000005423002038B5204C4B
:100D40000025294634F83C0F401E82B2E088009509
:100D5000401E83B2284601F083FB20886189401E33
:100D600082B260880095411A401E491E83B289B242
:100D7000284601F075FBA0892946401E82B2608892
:100D80000095401E83B2284601F06AFB6188092065
:100D9000491E8BB240F23F122946009501F060FBDC
:100DA000A0892288E188638864891B1B054C9B1EEF
:100DB0009BB2B4F8DE42009401F052FB38BD000053
:100DC00054230020AC2000200FB42DE9F047394C0B
:100DD000C6B020680290A088ADF80C00DDF83A019A
:100DE00000909DF80050BDF83E01ADF80400002DC4
:100DF0005AD09DF801004EA901442A4605A82C317D
:100E0000FFF7A4F9BDF80880BDF80AA09DF80C60B2
:100E1000B4F84800A4F85000B4F86400401CA4F8EA
:100E20005200B4F85000BDF802703844A4F85400E1
:100E3000BDF80400B4F852108146084483B2A4F807
:100E40005630B4F85000B4F8542089B2CDF8008080
:100E500001F006FBB1450DD1720802FB1570B4F824
:100E6000501080B201EB500081B205FB0210A4F8D3
:100E7000581004E0B4F85000A4F858003844A4F81E
:100E80005C0034F8520F0DF1140C2081484483B2F9
:100E9000A381E08821896289CDE9035C8DE8400562
:100EA00001F070FEA088608246B0BDE8F0075DF8F2
:100EB00014FB0000542300200FB42DE9F0433D4CF7
:100EC000C5B0D4F812000290E08AADF80C00DDE95C
:100ED0005401CDE900019DF80050002D65D09DF82A
:100EE00001004CAF39182A4605A82C31FFF72EF91E
:100EF000DDF856010090BDF85A01ADF804009DF8E8
:100F000001009DF8006039180DF1140909EB050086
:100F100032462C31FFF71AF9701900F0FF08BDF8BE
:100F20003C01BDF84E11BDF848210844BDF84211FE
:100F30009DF80C5011440844A842BDF80860BDF863
:100F40000A70B4F8640000D3401BA4F85200BDF846
:100F50005201BDF858110844B4F84C10081A34F87E
:100F6000481F08442081BDF85211BDF85821114492
:100F70000844A0816089BDF80410084483B2E3816D
:100F800020896189A289009601F06AFA208920826D
:100F9000A089A08260896082E389E382208A618AD5
:100FA000A28A8DE8E00301F0EDFD45B0BDE8F00355
:100FB0005DF814FB542300200FB434A02DE9F04F4A
:100FC000D0E90010C7B0CDE9451045A8FFF7E2F819
:100FD000304CC5B2E0680290208AADF80C00DDF814
:100FE0004E0100909DF80060BDF85201ADF804007C
:100FF000002E45D02A4645A905A8FFF7A7F89DF879
:10100000010050A901440DF1140B0BEB0500324611
:101010002C31FFF79BF8701900F0FF0A34F8480FE5
:10102000BDF80850BDF80A909DF80C602081A08B97
:10103000401C60812089BDF802100844A0816089AD
:10104000BDF804708846384483B2E3812089618901
:10105000A289009501F004FA208920824044A082F0
:1010600060896082384483B2E382208A618AA28ADE
:1010700001AF009687E8200E01F084FDE089A0838F
:1010800047B0BDE8F00F5DF814FB0000B9E6B8F119
:101090003A000000542300202DE9F04F9A4EADF5A0
:1010A000137DA6F52A74002594F8A682974FFFF7C2
:1010B00045FE94F8A502002875D094F8A4124FF0CC
:1010C000010909B1814201D984F8A492B6F86000FF
:1010D000A6F8640094F8A41215E005EBC50000EB37
:1010E000851017F8200088420BD105EBC50000EBF6
:1010F000851007EB80014FF4927249A8FFF726F89C
:1011000003E06D1CEDB24545E7D3454562D24FF48F
:101110008A754DA92A4668469291FFF717F80DF592
:10112000927A9AE80F00FFF74FFE2A466846929996
:10113000FFF70CF89AE80F00FFF728FD2A466846EB
:101140009299FFF703F89AE80F0000F057F92A4642
:1011500068469299FEF7FAFF9AE80F00FFF72CFF16
:101160002A4668469299FEF7F1FF9AE80F00FFF7CA
:1011700075FD2A4668469299FEF7E8FF9AE80F0047
:10118000FFF79AFE624981F80090B6F86400B6F85D
:101190006210884208D9012000F0BCF894F8A4023B
:1011A00094F8A512A1E0AAE094F8A40294F8A5127C
:1011B00088420CD2401C84F8A402B6F86200A6F85B
:1011C0006400834694F8A4020025824619E00120B9
:1011D00000F0A0F890E005EBC50101EB851117F8D0
:1011E000211081420BD105EBC50000EB851007EB08
:1011F00080014FF4927249A8FEF7A8FF03E06D1C2E
:10120000EDB24545E7D3454576D24FF4927249A9F0
:101210006846FEF79BFFBDF80600BDF80C10B6F857
:1012200060200844BDF812100844BDF818100844A6
:10123000BDF81E10084480B2ABEB020181420FDA08
:10124000AAF1010084F8A402012004F5297400F039
:1012500061F82078401C20700DF5137DBDE8F08FFB
:101260004FF48A752A4668469299FEF76FFF49AE99
:1012700096E80F00FFF7A8FD2A4668469299FEF708
:1012800065FF96E80F00FFF781FC2A4668469299B1
:10129000FEF75CFF96E80F0000F0B0F82A466846BB
:1012A0009299FEF753FF96E80F00FFF785FE2A4656
:1012B00068469299FEF74AFF96E80F00FFF7CEFCCA
:1012C0002A4668469299FEF741FF96E80F00FFF71D
:1012D000F3FD022000F01EF80D480221017094F881
:1012E000A5120229B8D994F8A402884204D2401C5D
:1012F00084F8A402B0E7FFE784F8A492ACE70020EA
:1013000000F008F8A8E7000054230020180100208E
:10131000000000202DE9F04F294D87B08146D5F817
:101320001E000090688CADF80400A5F52A70BDF889
:1013300000B090F8B52590F8B61590F8A46290F832
:10134000A572BDF802809DF80440B5F84800B5F8D4
:1013500042A00FF2700CCDE90221CDE9008C2246AB
:101360005B46514601F0CAF9B9F1010F17D0B9F146
:10137000020F11D1A88F614200EBC10014A2711EAF
:10138000CDE90082CDE9021780B222465B46514684
:10139000CDE9046701F0B2F907B0BDE8F08FA88F7E
:1013A000614200EB810001A910A2CDF8008081E824
:1013B000C40080B222465B46514601F09FF9EBE73C
:1013C00054230020B2E33A256420CEBB3A256400C2
:1013D00025302E32642F25302E3264D2B32F2530A3
:1013E0002E32642F25302E3264D2B30025302E32B7
:1013F000642F25302E3264D2B30000000FB430A029
:101400002DE9F04FD0E90010C7B0CDE9451045A84F
:10141000FEF7C0FE2C4CC6B2606A0090208DADF87D
:101420000400DDE95550814615F0FF0742D03246F1
:1014300045A905A8FEF78AFEC5F3072050A9014477
:1014400005A830443A462C31FEF780FEB81900F06A
:10145000FF0B34F8480FBDF80070BDF802A09DF8EE
:1014600004602081A08B4FEA1548401C60812089D0
:101470004D464044A0816089284483B2E38120899D
:101480006189A289009700F0EBFF20892082404407
:10149000A08260896082284483B2E382208A618AC4
:1014A000A28A05ADCDE903B58DE8C00401F06AFB61
:1014B000E089A08347B0BDE8F00F5DF814FB0000A1
:1014C000B3A7BCD23A0000005423002000F0B0B80B
:1014D00000F0AEB800F0ACB800F0AAB800F0A8B8C0
:1014E00000F0A6B800F0A4B80149086070470000F9
:1014F0001404014010B5012000F08AF8434C18B1E3
:10150000208840F0010006E0022000F081F820B1C0
:10151000208840F00200208010BD042000F078F800
:1015200018B1208840F00400F5E7082000F070F8BA
:1015300018B1208840F00800EDE7102000F068F8AE
:1015400018B1208840F01000E5E7202000F060F896
:1015500018B1208840F02000DDE7402000F058F866
:1015600018B1208840F04000D5E7802000F050F806
:1015700018B1208840F08000CDE74FF4807000F073
:1015800047F818B1208840F48070C4E74FF4007029
:1015900000F03EF818B1208840F40070BBE74FF42B
:1015A000806000F035F818B1208840F48060B2E720
:1015B0004FF4006000F02CF818B1208840F400606F
:1015C000A9E74FF4805000F023F818B1208840F4C8
:1015D0008050A0E74FF4005000F01AF818B12088AE
:1015E00040F4005097E74FF4804000F011F818B134
:1015F000208840F480408EE74FF4004000F008F867
:10160000002889D0208840F4004084E7180000209A
:10161000064A014600201268044B0A4014331B6836
:101620000B4202D0002A00D0012070470004014084
:1016300008B50020ADF80000FFF75CFF01F039FFAE
:101640001E48BDF8001001800120FFF74DFF022069
:10165000FFF74AFF0420FFF747FF0820FFF744FF8A
:101660001020FFF741FF2020FFF73EFF4020FFF74B
:101670003BFF8020FFF738FF4FF48070FFF734FF07
:101680004FF40070FFF730FF4FF48060FFF72CFF3E
:101690004FF40060FFF728FF4FF48050FFF724FF5E
:1016A0004FF40050FFF720FF4FF48040FFF71CFF7E
:1016B000BDE808404FF40040FFF716BF18000020B7
:1016C0007047000004490A6822F010020A600A68A4
:1016D00002430A60704700000020024004490A6883
:1016E00002F038020A600A6802430A60704700008C
:1016F000002002407047000070B50C46002852D010
:10170000294A811A1315D614904243D014DC274974
:10171000274D41184FF6FF701BD0994227D0B14298
:1017200041D10121102000F0F3FB600401D420041A
:1017300039D50121112008E099422ED0B1422FD095
:10174000B1F5406F2FD101210802BDE8704000F0D3
:10175000DFBBA10405D4610403D4210401D4844275
:1017600002D1012105200AE001210420EDE7210733
:1017700003D4E10601D4844209D10121092000F0FB
:10178000C7FB2846BDE87040012100F087B8012161
:101790000820DAE701212020D7E701214020D4E703
:1017A00001218020D1E770BD0014014000F8FEBF88
:1017B0000002300038B50446ADF8001002228DF862
:1017C000022048208DF803002046FFF795FF694668
:1017D000204600F013F838BD38B50446ADF80010C7
:1017E00003228DF8022010208DF803002046FFF719
:1017F00083FF6946204600F001F838BDF0B50022AD
:10180000002849D0CC7804F00F03E40601D58C7889
:1018100023430C784FF00F0C14F0FF0F4FF0010E24
:101820001AD005680E880EFA02F42640A6420FD19F
:1018300096000CFA06F725EA070703FA06F5CE78B4
:101840003D43282E00D14461CE78482E00D104615A
:10185000521C082AE6D305600A88FF2A1CD944686E
:10186000002202F108060EFA06F50E882E40AE425E
:101870000ED196000CFA06F7BC4303FA06F7CE78B1
:101880003C43282E00D14561CE78482E00D1056119
:10189000521C082AE5D34460F0BD0000F0B5104D9D
:1018A0006B68440D260184B2C0F30157B440C0F305
:1018B0000342032F05D0C0020AD503209040834382
:1018C00007E0686823F0706220F07060686002E0F2
:1018D000A34343F0706201B122436A60F0BD00008F
:1018E00000000140416170472DE9F04782464448BD
:1018F0000024CAB0894690F8A67225462646DFF82D
:10190000FC804FF492716846FEF739FC08E004EB66
:10191000C40000EB841118F8210018B1641CE4B273
:10192000BC42F4D31E2C5DD29AF801400AF10207A2
:101930000DF12C089AF80010A01C5CE0082951D287
:10194000DFE801F050040C141B2229319DF802003D
:10195000002847D10DF10301481E2BE09DF80E0031
:1019600000283FD10DF10E00411C23E09DF820001E
:10197000002837D108A8411C1CE09DF80800002869
:1019800030D102A8411C15E09DF81400002829D18F
:1019900005A8411C0EE09DF81A00002822D10DF187
:1019A0001A00411C06E09DF8260000281AD10DF10E
:1019B0002600411C04700E70224639464046FEF750
:1019C000C5FB3019C6B22819801CC5B24D450CD3D1
:1019D0009DF8020018B99DF80800002802D068465A
:1019E00001F00CFA4AB0BDE8F0873819A0444478F9
:1019F000871C01782819F728A0D9F3E718010020DF
:101A0000AC2000202DE9F04FC5B002264F484E4DC6
:101A10002390B00321954E4CADF898000711ADF816
:101A2000886027944011ADF8B0004FF0040AADF87B
:101A3000A0704848ADF890A02D9029944FF6FF7003
:101A400025954FF48058ADF8B800ADF8A880A020D7
:101A50008DF8BC002B94402221A93F48FEF776FB6D
:101A60003D4800F021FD3D48CDE931051020ADF89D
:101A7000CC0034958020ADF8E4000020ADF8E600FD
:101A800035484FF020094FF0400B4030ADF8D4906E
:101A90003695ADF8DCB038952C2231A94390FEF78D
:101AA00055FB439802F024FB2D48CDE93C052D4819
:101AB000ADF8F8801C223CA98046FEF747FBA21532
:101AC0004FF49641404602F06BFB39462846FFF73B
:101AD00083FE39462846FFF705FF08208DF87E0073
:101AE0008021ADF8041000940494ADF81490ADF882
:101AF0002400029410210A940120ADF80CB0ADF836
:101B00001C10ADF83C000694089417480C940E94F1
:101B1000ADF82CA0ADF83460842269460446FEF787
:101B200015FB204602F044F9204602F0D2F90F4995
:101B3000C0F3031200F00F0081F8B52581F8B60557
:101B400045B0BDE8F08F00000008014000140140DE
:101B500000100140000C0140AC00002000300140AA
:101B600000380140BC230020DC250020AC200020F0
:101B7000FEE77047704770477047000070B500EB94
:101B800080010325C90047F6F872B2EB910F03D923
:101B900000EB800080031AE04FF6F072B2EB910F79
:101BA00004D9042500EB8000400310E0114AB2EB99
:101BB000910F04D9052500EB8000000307E00E4AD1
:101BC000B2EB910F05D9062500EB8000C002040C92
:101BD00000D1012445F2555000F02EF8284600F0BF
:101BE0001FF8204600F022F800F012F8BDE870401F
:101BF00000F004B8E0FF0100C0FF030002494CF60A
:101C0000CC4008607047000000300040AFF3008017
:101C100002494AF6AA2008607047000000300040E0
:101C20000149486070470000003000400149886069
:101C30007047000000300040014908607047000014
:101C40000030004070B500220C8862F30F030126BB
:101C500006FA02F52C4207D0C2F10F0506FA05F18B
:101C600043EA010565F30F03521C102AF0DB0380E1
:101C700070BD70B500220C7862F30703012606FAE6
:101C800002F52C4207D0C2F1070506FA05F143EA36
:101C9000010565F30703521C082AF0DB037070BDD1
:101CA00081070CD16421B0FBF1F201FB120141B9B3
:101CB0004FF4C871B0FBF1F201FB120008B1002033
:101CC000704701207047000070B51F4900201D4A71
:101CD00091F8B5450346002C32D091F8B645002C5A
:101CE0002ED000EBC00404EB801412F824400CB199
:101CF000012303E0401CC0B21E28F2D3134C91F81C
:101D0000A50200256278904203D0E58081F8A452B4
:101D10006070002B14D0E28852B9022806D891F8DE
:101D2000A4122278914201D1814201D0FFF7B4F987
:101D3000E088411CE18040F6B831884200D9E58056
:101D400070BD000018010020AC2000200000002021
:101D500010B5FFF75BFFBDE8104001F0A3BBFEE745
:101D60007047000070B50F25C2780178012652B384
:101D70001A4A1268447802F4E062C2F5E062120A7C
:101D8000C2F10403D54082789C402A4022431401CA
:101D90008A07D30E21F0030202F1E0229C40D2F820
:101DA0000054FF2199408D430C402543C2F8005454
:101DB000007800F01F018E404009800000F1E02013
:101DC000C0F8006170BD01F01F0086404809800026
:101DD00000F1E020C0F8806170BD00000CED00E073
:101DE00038B5174B0021154A98890C46451C9D8132
:101DF000642821D300209881124890F8B535002B33
:101E00001AD090F8B605002816D00F4B180401EB35
:101E1000C10505EB811512F8255025B9491CC9B239
:101E20001E29F4D30CB1012101E040F2E731009109
:101E30000022012102F09BF938BD000018010020AA
:101E400000000020AC20002000408F407047704709
:101E5000F8B50D46002833D0002D31D0194E294653
:101E600002F013F904002BD0A27802F03F010129FF
:101E700021D096F8B5352079834201D0FF281AD1B8
:101E800096F8B67563799F4201D0FF2B13D11206E5
:101E900011D4092902D00A2907D00CE06078001F6C
:101EA000C1B2A01DFFF720FD05E00021ADF8001034
:101EB000E188ADF800106D1E04F58270ADB2CEE77A
:101EC000F8BD0000AC200020044A0029516901D06F
:101ED000014300E08143516170470000001002405F
:101EE000044A0029D16901D0014300E08143D16156
:101EF0007047000000100240044A0029116901D017
:101F0000014300E08143116170470000001002406E
:101F1000044A0029916901D0014300E081439161A5
:101F20007047000000100240044A0029D16801D027
:101F3000014300E08143D16070470000001002407F
:101F400070B5002400F068F84FF48035284600F0A2
:101F5000F5F8681E2146641C8142FBD300F03EF96F
:101F6000012803D0BDE8704000F025B81020FFF72D
:101F7000A9FB0220FFF7B2FB002000F0D5F80020FB
:101F800000F008F94FF4806000F0FAF84FF4E01127
:101F9000284600F00FF9012000F006F9392000F082
:101FA000A3F80028FAD0022000F00EF900F0B4F8EF
:101FB0000828FBD170BD10B500F02EF8012000F00C
:101FC000D7F8202000F090F80028FAD0002000F088
:101FD000ABF8002000F0DEF84FF4806000F0D0F89D
:101FE0000220FFF77BFB1020FFF76CFB4FF4601122
:101FF000002000F0DFF8012000F0D6F802E0022017
:1020000000F0E2F8392000F06FF80028F7D000F077
:1020100083F80828FBD110BD0B48016841F001018D
:1020200001604168094A114041600168084A114055
:102030000160016821F480210160416821F4FE0102
:102040004160002181607047001002400000FFF8ED
:10205000FFFFF6FE30B5204A5168204B11F00C010D
:1020600003D0042901D0082901D0036011E0516890
:10207000022301F4701103EB9141536813F4803F84
:1020800002D053689B0301D5154B00E0134B594315
:10209000016051680F2303EA1111124B5C5C016867
:1020A000E14041605468072505EA14241C5D21FACB
:1020B00004F48460546805EAD4241B5DD940C160EF
:1020C0005268032303EA9232064B1B1F9A5CB1FB52
:1020D000F2F1016130BD00000010024000127A00F0
:1020E00000093D0020590008034600205909094A0B
:1020F00001290AD002290AD0516A03F01F020123E4
:1021000093400B4200D0012070471168F5E7116A37
:10211000F3E70000001002400248406800F00C00A5
:102120007047000000100240034A516821F0F0019E
:102130000143516070470000001002400B490A68DB
:1021400022F480320A600A6822F480220A60B0F524
:10215000803F07D0B0F5802F03D1086840F4A0205D
:1021600008607047086840F48030F9E700100240CA
:1021700001490860704700000000424270470000BB
:10218000034A516821F4E061014351607047000047
:1021900000100240034A516821F4605141EAC00036
:1021A0005060704700100240014908667047000007
:1021B00000004242034B5A68084322F47C12104349
:1021C0005860704700100240034A516821F0030133
:1021D00001435160704700000010024030B50B4CC5
:1021E00040F2FF153120FFF77FFF20706068401C30
:1021F0006060207810B96068A842F3D13120FFF701
:1022000073FF002800D0012030BD00001000002026
:102210007047000002490A8882430A807047000024
:10222000042800402DE9F04700F060F8DFF8AC80AA
:102230000546B0FBF8F32A482A4E018899422CD073
:10224000038040F2B2744FF4B7774FF4B6790CE0E4
:102250002046FFF725FD20B1BB4208D3A3F5B77395
:1022600001E0A3F26D13641CA4B24B45F0D8B48016
:1022700000241D4F0BE0B088FFF712FD08B1012CC0
:1022800028D0385D984204D81B1A641CA4B21C2BB9
:10229000F1D2641CB4715B1CF371B5FBF8F108FB5F
:1022A00011504FF46161B0FBF1F23270B0FBF1F20A
:1022B00001FB12033C22B3FBF2F37370B0FBF1F3AA
:1022C00001FB1300B0FBF2F102FB1100B070002023
:1022D000BDE8F0871D2BDCD31D3BD6E78051010004
:1022E0001A000020682600203059000803480088A2
:1022F0000249091F098840EA014070471C28004034
:1023000006490988C2B21140044A121F12880242CB
:1023100002D009B101207047002070470428004016
:1023200010B50120FFF7ECFF08B1FFF77BFF02209B
:10233000FFF7E6FF10B10220FFF76CFF0520FFF763
:1023400069FFBDE8104000F001B8000002480188B4
:102350008906FCD57047000004280040704770478C
:10236000704770470029018802D041F0400101E028
:1023700021F04001018070470246002012890A4284
:1023800000D001207047808970478181704730B547
:1023900002884C8802F441530A88CD8822438C88F5
:1023A0002C4322430C8922434C8922438C892243AB
:1023B000CC8922431A430280828B22F400628283FA
:1023C000098A018230BD0029818802D041F00401D0
:1023D00001E021F0040181807047000038B50D490B
:1023E000002213460C684FF49B7594F8381029B1FD
:1023F000602906D0A02904D0C02904D1F0222B46A0
:1024000001E02A46F023608700210090084600F092
:1024100027F838BDA800002007480068826A818D2F
:1024200011618269818B1161826881891161818C5E
:10243000006A016170470000A8000020074800689A
:102440008269818B1161826881891161026A818C44
:102450001161818D806A416170470000A8000020F1
:102460002DE9F0431E4617460C468046DDF81C90C9
:10247000FFF7E4FF33463A462146404600F06CF948
:102480000025361BA7EB080708E0002403E04846B8
:1024900000F0A2FC641CA642F9D26D1CAF42F4D23B
:1024A000BDE8F043FFF7B8BF38B5002825D0134981
:1024B0000446086081898068FFF78EF9A18A206947
:1024C000FFF78AF9A18BA069FFF786F9A18C206A32
:1024D000FFF782F9A18DA06AFFF77EF9A18E206B2C
:1024E000FFF77AF900F00EF840F2E7300121009092
:1024F0000022034B880701F03AFE38BDA8000020F7
:1025000000408F4010B5FFF799FF654C2068818A25
:1025100000694161012000F08BFD2068818A00691B
:102520000161012000F084FD112000F041FC012038
:1025300000F07EFD362000F03BFC002000F04CFC5B
:102540003A2000F035FC552000F046FCB22000F0A7
:102550002FFC0C2000F040FC0C2000F03DFC002083
:1025600000F03AFC332000F037FC332000F034FC5C
:10257000B72000F01DFC352000F02EFCBB2000F041
:1025800017FC192000F028FCC02000F011FC2C20C2
:1025900000F022FCC22000F00BFC012000F01CFC2B
:1025A000C32000F005FC122000F016FCC42000F04F
:1025B000FFFB202000F010FCC62000F0F9FB0F20EC
:1025C00000F00AFCD02000F0F3FBA42000F004FC93
:1025D000A12000F001FCE02000F0EAFBD02000F098
:1025E000FBFB042000F0F8FB0D2000F0F5FB1120B0
:1025F00000F0F2FB132000F0EFFB2B2000F0ECFBCF
:102600003F2000F0E9FB542000F0E6FB4C2000F0F6
:10261000E3FB182000F0E0FB0D2000F0DDFB0B20B9
:1026200000F0DAFB1F2000F0D7FB232000F0D4FBE2
:10263000E12000F0BDFBD02000F0CEFB042000F034
:10264000CBFB0C2000F0C8FB112000F0C5FB1320D1
:1026500000F0C2FB2C2000F0BFFB3F2000F0BCFBD1
:10266000442000F0B9FB512000F0B6FB2F2000F011
:10267000B3FB1F2000F0B0FB1F2000F0ADFB2020BB
:1026800000F0AAFB232000F0A7FB292000F090FB1C
:102690002C2000F08DFBBDE81040FFF7BDBE000010
:1026A000A80000202DE9F041C2B00F4680461E462A
:1026B00014464FF4807102A8FDF761FD002149AB7B
:1026C00002A8489A00F0FEFE85B2082C08D00C2C17
:1026D00006D0102C04D0182C02D0202C00D020249E
:1026E00002A9E8B2CDE90001334622463946404608
:1026F00000F008F942B02846BDE8F0812DE9F0432A
:10270000C3B0884681461F4614464FF4807103A823
:102710004A9EFDF734FD00214CAB03A84B9A00F014
:10272000D1FE85B2082C08D00C2C06D0102C04D079
:10273000182C02D0202C00D0202403A9E8B2009647
:10274000CDE901013B4622464146484600F078F972
:1027500043B02846BDE8F083F0B507461C46154651
:102760000E462A2000F024FB380A00F035FBF8B2B0
:1027700000F032FB280A00F02FFBE8B200F02CFB3F
:102780002B2000F015FB300A00F026FBF0B200F021
:1027900023FB200A00F020FBE0B200F01DFB3620F6
:1027A00000F006FB0548006890F8380000F014FBC4
:1027B000BDE8F0402C2000F0FBBA0000A80000208B
:1027C0002DE9F04F9046074600EB5800401E1FFAD7
:1027D00080F9DDE909BA01EB08001E46401E00241D
:1027E0000D4683B2FFF72AFE4A4629463846FFF7D0
:1027F000B3FFDFF870902EE01AF804700025380659
:1028000001D5304602E0D9F80000408F00F0E4FA2C
:1028100078066D1C070EEDB2082DF0D3B8F1180F35
:1028200002D0B8F10C0F14D10AEB04000025477850
:10283000380601D5304602E0D9F80000408F00F09C
:10284000CBFA78066D1C070EEDB2042DF0D3641C94
:10285000E4B2641CE4B25C45CED3BDE8F04FFFF7B0
:10286000DBBD0000A80000202DE9F04F914607468F
:1028700000EB5900401E1FFA80FB01EB09001E46C9
:10288000401E00240D4683B2DDF82CA0DDF8248024
:10289000FFF7D4FD5A4629463846FFF75DFF2AE088
:1028A0001AF804700025380601D5404600E030468D
:1028B00000F092FA78066D1C070EEDB2082DF2D3E7
:1028C000B9F1180F02D0B9F10C0F12D10AEB0400C4
:1028D00000254778380601D5404600E0304600F034
:1028E0007BFA78066D1C070EEDB2042DF2D3641C42
:1028F000E4B2641CE4B20A988442D1D3BDE8F04F3C
:10290000FFF78ABD2DE9FF4FC3B00C4605464FF4D3
:102910009B781746C1464FF0F00A00264FF48071AD
:1029200002A8DDF844B1FDF72AFC4448006890F89D
:10293000380000287BD0602801D0A02877D14FF044
:10294000F009C24673E01BF80680B8F1800F24D965
:102950000BEB0600407840EA0821AAEB0700A842EA
:1029600002DA0025E01984B2A9EB0700A04201DADF
:102970000024254602AA384601F0CAFBC0B202A9CB
:10298000CDE900013A4621462846469B00F076F9FB
:10299000E819761C85B2F6B246E0B8F10D0F20D0EA
:1029A000B8F10A0F1DD0AAEB5700A84202DA0025A1
:1029B000E01984B2A9EB0700A04201DA0024254601
:1029C000B8F1000030D0014602AA384601F0A0FB61
:1029D000C0B20090B8F1090F17D0B8F1200F14D091
:1029E00017E00BEB060040780A2801D00D2801D132
:1029F000761CF6B2A9EB0700A04202DA00242546B5
:102A000012E00025E01984B20EE002A80099FDF75B
:102A1000B6FB02A801903A4621462846469BFFF79E
:102A2000CFFE05EB570085B200BF761CF6B250987A
:102A3000864288D347B0BDE8F08F0000A800002090
:102A40002DE9FF4FC3B00C4605464FF49B7817465F
:102A5000C1464FF0F00A00264FF4807103A8DDF85C
:102A600048B1FDF78CFB4648006890F83800002814
:102A700006D0602801D0A0287CD14FF0F009C246D2
:102A800078E01BF80680B8F1800F26D90BEB060022
:102A9000407840EA0821AAEB0700A84202DA0025A4
:102AA000E01984B2A9EB0700A04201DA0024254610
:102AB00003AA384601F02CFB509A0092C0B203A939
:102AC000CDE901013A4621462846469B00F026F909
:102AD000E819761C85B2F6B249E0B8F10D0F20D0A6
:102AE000B8F10A0F1DD0AAEB5700A84202DA002560
:102AF000E01984B2A9EB0700A04201DA00242546C0
:102B0000B8F1000033D0014603AA384601F000FBBB
:102B1000C0B20090B8F1090F17D0B8F1200F14D04F
:102B200017E00BEB060040780A2801D00D2801D1F0
:102B3000761CF6B2A9EB0700A04202DA0024254673
:102B400015E00025E01984B211E003A80099FDF713
:102B500016FB509803AA00998DE807003A462146D3
:102B60002846469BFFF780FE05EB570085B200BF65
:102B7000761CF6B25198864283D347B0BDE8F08FF9
:102B8000A80000202DE9FF4FC3B00F46824605463E
:102B90001E4600244FF4807103A8DDF85091DDF843
:102BA0004081FDF7ECFAA6EB080B61E019F8046030
:102BB000802E23D909EB040005EB0802407840EA97
:102BC00006214598824203D907EB0800554687B293
:102BD000BB4550DB03AA404601F09AFA529A009294
:102BE000C0B203A9CDE90101424639462846519BAE
:102BF00000F094F805EB080085B222E00D2E19D004
:102C00000A2E17D04598A0EB5800A84203DA07EB2C
:102C10000800554687B2BB452DDB3EB303AA3146BB
:102C2000404601F075FAC0B20090092E0CD0202E5B
:102C30000AD00DE009EB040040780A2801D00D28E5
:102C400014D1641CE4B211E0014603A8FDF797FA21
:102C5000529803AA00998DE8070042463946284653
:102C6000519BFFF701FE05EB580085B2641CE4B2EE
:102C7000539884429AD347B0BDE8F08F2DE9F04FC6
:102C8000914607464844401E1FFA80F8DDE909BA1C
:102C900001EB09001E46401E00240D4683B2FFF7DB
:102CA000CDFB424629463846FFF756FDDFF86880DF
:102CB0002BE01AF804700025380601D5304602E0F2
:102CC000D8F80000408F00F087F878066D1C070EDA
:102CD000EDB2082DF0D3B9F10C0F14D10AEB0400BA
:102CE00000254778380601D5304602E0D8F80000C4
:102CF000408F00F071F878066D1C070EEDB2042DC0
:102D0000F0D3641CE4B2641CE4B25C45D1D3BDE8EA
:102D1000F04FFFF781BB0000A80000202DE9F04F25
:102D2000914607464844401E1FFA80FB01EB09000C
:102D30001E46401E00240D4683B2DDF82CA0DDF8AF
:102D40002480FFF77BFB5A4629463846FFF704FDEF
:102D500027E01AF804700025380601D5404600E047
:102D6000304600F039F878066D1C070EEDB2082DDC
:102D7000F2D3B9F10C0F12D10AEB04000025477809
:102D8000380601D5404600E0304600F025F87806C8
:102D90006D1C070EEDB2042DF2D3641CE4B2641C6A
:102DA000E4B20A988442D4D3BDE8F04FFFF734BBB5
:102DB000084909688B698A8B5A610B6A8A8C5A6147
:102DC0000A6BD0600A6A888C1061888B89690861F7
:102DD00070470000A8000020054909680B6A8A8C2A
:102DE0005A610A6BD060888C096A086170470000DC
:102DF000A80000207047FFF7A3B800002DE9F04FAE
:102E0000F1B005007DD0A87810B9287A002878D0D4
:102E10006A4CDFF8A481682294F8A69204F52A711E
:102E200056A8FDF793F94FF4927B5A4629460DA810
:102E3000FDF78CF99DF86E019DF85A2043089DF826
:102E400054105A435943ADF85C208F18ADF8561012
:102E5000ADF85800ADF85E000DF1340A0123082BDF
:102E60006BD2DFE803F06A04111F212F3D6EB4F826
:102E7000F4520422ADF838500AF104069DF83600E9
:102E80009DF85C11B51C38E0B4F8F4520222ED1B39
:102E9000ADF844500AF110069DF842009DF8681103
:102EA000B51C2AE00423DAE7B4F8F4529DF83C009C
:102EB000ED1B0222ADF83E500AF10A069DF86211A0
:102EC000B51C1AE0B4F8F4529DF84800ED1B02223C
:102ED000ADF84A500AF116069DF88011B51C0CE0B9
:102EE000B4F8F4520222ED1B9DF84E009DF87A11C1
:102EF000ADF850500AF11C06B51C002945D03688A3
:102F000000E042E04FEA510CB6FBFCF616F0FF067B
:102F10003BD0B0FBF6FC06FB1C0CB0FBF6F0BCF1A2
:102F2000000F01D0401CC0B2904200D91046484367
:102F30005B1CDBB22880082B91D300254FF49177DE
:102F400014E008238BE705EBC50000EB851608EBC2
:102F500086003A460AF10201801CFDF72CF918B9E7
:102F600018F82600002810D16D1CEDB24D45EAD3AB
:102F7000002508E005EBC50000EB851018F82000DF
:102F800030B16D1CEDB24D45F4D371B0BDE8F08F9A
:102F900005EBC50000EB851608EB86005A460DA927
:102FA000FDF7D4F894F8A502401C84F8A5026D1C26
:102FB00008F82650E9E7000018010020AC200020A6
:102FC00000F06AB810B504002BD01648FFF742F89D
:102FD0004FF0E021086920F002000861086920F044
:102FE00001000861086920F0040008610D480E4ADC
:102FF0000068B0FBF2F060434861086940F00200ED
:103000000861086940F001000861002088610869D2
:1030100040F0020008614A6904480260096989B207
:10302000416010BD7426002000127A001C000020B0
:1030300010B504002BD01648FFF70CF84FF0E02035
:10304000016921F002010161016921F001010161C1
:10305000016921F0040101610D494FF4FA52096838
:10306000B1FBF2F14161016941F00101016100220E
:10307000826181690029FCD081690029FCD1641E2C
:10308000F7D104490B68436182614968016110BD51
:10309000742600201C00002000F00BBA7047704717
:1030A0007047704710B500F02CF8BDE810400121C2
:1030B000014800F023B80000002C014010B500F0DA
:1030C000F8F90121BDE81040880700F017B80000AA
:1030D00010B500F016F8BDE810400121014800F0DD
:1030E0000DB800000004004000F00BB870477047B6
:1030F000704770477047704700F003B8C9430182BA
:10310000704700F0D6B9000070B5164C40F2266545
:103110002946204600F049F9A0B1204601F038FBCD
:1031200030B1204601F0EAF810B1002101F0E2FED2
:103130000021204601F0F8FF29462046BDE87040F6
:1031400000F0DDB840F22441204600F02EF90028BE
:1031500007D00221204601F061FF20880148001DB0
:10316000008870BD004C004070B5154C40F22665DB
:103170002946204600F019F9A0B1204601F008FBCD
:1031800030B1204601F0BAF810B1002101F0B2FED2
:103190000021204601F0C8FF29462046BDE87040C6
:1031A00000F0ADB840F22441204600F0FEF80028BF
:1031B00005D00221204601F031FF2088A08870BD93
:1031C0000050004070B5154C40F226652946204657
:1031D00000F0EBF890B1204601F0DAFA30B1204669
:1031E00001F08CF810B1002101F084FE002120468E
:1031F00001F09AFF2946204600F081F840F2244170
:10320000204600F0D2F8002807D00221204601F025
:1032100005FF20880148001D008870BD003801406E
:1032200070B51C4C40F226652946204600F0BDF8DA
:10323000A0B1204601F0ACFA30B1204601F05EF8B2
:1032400010B1002101F056FE0021204601F06CFF74
:1032500029462046BDE8704000F051B840F22441B4
:10326000204600F0A2F840B10221204601F0D6FE2F
:1032700020880848001D008870BD40F22551204676
:1032800000F093F80028F7D02046BDE870400221F6
:1032900001F0C4BE0044004070B5164C40F22665F3
:1032A0002946204600F081F8A0B1204601F070FACE
:1032B00030B1204601F022F810B1002101F01AFED1
:1032C0000021204601F030FF29462046BDE870402D
:1032D00000F015B840F22441204600F066F80028BE
:1032E00007D00221204601F099FE20880148001DE8
:1032F000008870BD00480040C943018070470A0A39
:1033000001219140C943018070470029818902D081
:1033100041F4005101E021F4005181817047002AFD
:10332000828A01D00A4300E08A438282704700000B
:10333000184A10B5811A131590421BD007DC1649A4
:10334000401814D0984223D10121040217E0994279
:1033500013D0B1F56C4F1BD101218C032046FEF731
:10336000E3FD2046BDE810400021FEF7DDBD012150
:103370004C0404E00121CC0401E001210C052046AD
:10338000FEF7BAFD2046BDE810400021FEF7B4BDAF
:1033900010BD0000004C004000BCFFBF02460020F2
:1033A00012880A4200D00120704770B501F01F0555
:1033B00001260024C1F3421306FA05F2012B0FD0B7
:1033C000022B0FD0838A4FEA11210088134206FA9C
:1033D00001F600EA060001D000B10124204670BDCC
:1033E0008389F0E7038AEEE710B5C1F3421301F0D9
:1033F0001F040121A140012B07D0022B07D014305C
:10340000002A026805D00A4304E00C30F8E71030C7
:10341000F6E78A43026010BD30B50446008A85B0E5
:103420000D464CF6FF710840E98801432182A089CE
:103430004EF6F3110840A9882A8911436A8902438C
:103440001143A181A08A4FF6FF410840A989014399
:10345000A1826846FEF7FEFD1148844201D103981F
:1034600000E00298642200EBC00101EB0010296823
:103470006FF018058900B0FBF1F0B0FBF2F1090123
:103480000B096B4300EB8300322303EB0010B0FB0E
:10349000F2F000F00F000843208105B030BD0000BD
:1034A000003801407047704770477047FEE7FDF7EE
:1034B0006FB910B5FEF74CFCBDE81040FDF7ACB994
:1034C000704700007CB5491E1C461546CDE9000139
:1034D000044B6A462146284600F0C8F8009A0021AD
:1034E00011707CBD9B3D000802E008C8121F08C196
:1034F000002AFAD170477047002001E001C1121F75
:10350000002AFBD1704700002DE9FF5FDDE90220B2
:10351000010DDDF838B0024318D044F61050A1F286
:10352000FF3141430D140F98012820D0A5EB0B006B
:10353000401C5FEA000A4FF00004474EDFF81C9180
:10354000A046504616D5CAF1000728E00F9801247E
:1035500043A2012808D0002100980F9BC0E9002158
:10356000C0E90243BDE8FF9F6FEA0B01F4E7CBF12E
:103570000000DEE7074612E0F80707D02246334690
:1035800040464946FCF7CBFE8046894622463346F4
:1035900010461946FCF7C3FE04460E467F10002F66
:1035A000EAD1DDE90201BAF1000F42464B4602DAE8
:1035B000FCF7B5FE01E0FCF724FF04460E460022AE
:1035C000284BFDF7B9F803D84FF0FF30014607E06C
:1035D0000022254B20463146FCF7FAFDFDF793F813
:1035E000102409E0002C0ADB0A220023FCF7CCFFA0
:1035F000019B30321A55641E50EA0102F2D1641C5C
:10360000019AC4F1110314440F9A012A03D0012234
:1036100008430DD10AE0084304D000204FF0110BFD
:103620000F9080E7A3EB0B056D1E0DE05B4504DDFD
:103630004FF0000205F1010504E003DA4FF000024B
:10364000A5F10105002AECD000980F99C0E90231DC
:10365000C0E9004586E70000000024400000F03F7C
:10366000300000000000F0430000E03F2DE9FF4F74
:1036700095B09B468946064600250FE2252877D15E
:1036800000242746F84A0121059400E0044316F877
:10369000013F203B01FA03F01042F7D130782A288D
:1036A00011D06FF02F033078A0F13002092A16D81C
:1036B000059A44F0020402EB820203EB420210443A
:1036C000761C0590EFE759F8042B0592002A03DADF
:1036D000504244F40054059044F00204761C3078C3
:1036E0002E2816D116F8010F44F004042A280DD014
:1036F0006FF02F023078A0F13003092B09D807EBC7
:10370000870302EB4303C718761CF3E759F8047BE1
:10371000761C30786C280FD006DC4C2817D068282F
:103720000DD06A2814D104E0742810D07A280FD163
:103730000DE044F400140AE044F4801401E044F481
:1037400040147278824202D104F58014761C761CF3
:10375000307866280BD013DC582877D009DC002895
:1037600075D04528F6D04628F4D047281AD19DE1D7
:1037700018E0632835D0642879D0652812D195E106
:10378000702873D008DC6728F1D069286FD06E28C4
:103790000DD06F2806D1B5E073282CD0752875D0D0
:1037A000782874D05A46179990476D1C75E1C4F378
:1037B0000250022809D003280DD0D9F8001004289F
:1037C0000DD00D6009F1040967E1D9F80010EA177E
:1037D000C1E90052F6E7D9F800100D80F2E70D704C
:1037E000F0E719F8041B8DF8001000208DF8010097
:1037F000EA46012003E059F804AB4FF0FF306107BF
:103800004FF0000102D40DE008F101018846B942F1
:103810000FDA8045F8DB1AF808100029F4D108E027
:1038200008F1010188468142FADB1AF808100029E4
:10383000F6D105985B46A0EB080721463846179A53
:1038400000F094FA284400EB080507E04DE029E178
:103850000DE01AF8010B5A4617999047B8F1010884
:10386000F7D25B4621463846179A13E142E00A2216
:103870000092C4F302524FF0000A022A08D059F80D
:1038800004CB032A4FEAEC710AD00DE029E02AE0CC
:1038900009F1070121F00702F2E802C1914609E0AF
:1038A0000FFA8CFC4FEAEC71042A03D14FFA8CFC1E
:1038B0004FEAEC71002907DA0A460021DCF1000C1E
:1038C00061EB02012D2202E0220504D52B228DF8A6
:1038D0000420012203E0E20701D02022F7E790460E
:1038E00059E00A2102E010220DE010214FF0000AF9
:1038F00000910BE010224FF0000A44F00404082766
:10390000009203E008224FF0000A0092C4F3025232
:10391000022A05D059F804CB0021032A08D009E077
:1039200009F1070121F00702F2E802C1914605E022
:103930001FFA8CFC042A01D10CF0FF0C4FF0000898
:10394000220728D5702806D0009B83F0100353EA85
:103950000A0305D00EE040228DF80420012208E081
:103960005CEA010206D030228DF804208DF80500B3
:1039700002229046009B83F0080353EA0A030AD10F
:103980005CEA010201D1620705D530228DF80420DE
:103990004FF001087F1E582804D034A003900EA8D1
:1039A00002900DE036A0F9E753466046009AFCF716
:1039B000EBFD84460398825C0298401E02900270E0
:1039C0005CEA0100F0D1029806A9081A00F1200A69
:1039D000600702D524F4803400E00127574502DD5A
:1039E000A7EB0A0000E0002000EB0A010090059818
:1039F0004144401A0590E00306D45B462146179ADD
:103A0000059800F0B3F90544002706E001A85A46DE
:103A1000C05D179990476D1C7F1C4745F6DBE0039E
:103A20000CD55B462146179A059800F09FF905448E
:103A300004E030205A46179990476D1C0099481EA3
:103A400000900029F5DC08E0029802995A460078B7
:103A5000491C0291179990476D1CBAF10001AAF117
:103A6000010AF1DC65E10000092801003031323340
:103A700034353637383961626364656600000000AA
:103A80003031323334353637383941424344454694
:103A90000000000000F058F90544761C307800283A
:103AA0007FF4ECAD19B02846BDE8F08F620700D472
:103AB000062709F1070222F0070CFCE80223E14681
:103AC00003F000485FEA080C02D00FF2702C0DE002
:103AD0005FEA045C02D50FF2682C07E05FEAC47C61
:103AE00002D00FF2602C01E0AFF2700C4FF0FF3803
:103AF00023F00043CDF850C065280CD006DC4528E3
:103B000009D046281DD047283DD13DE0662818D071
:103B100067287ED138E00021112F01DB112000E061
:103B2000781CCDE9000106A90EA8FFF7EDFCDDE940
:103B30000F010E9A03910021009207F1010A0491EE
:103B40004DE04FF000400097CDE9011006A90EA806
:103B5000FFF7DAFCDDE90F0203920E9B11990022B8
:103B6000DDF80CA00093049211B9791C00EB010A56
:103B7000B7EB0A0004D4C0F1FF3007F1010A04904A
:103B8000AAEB0700019044E0012F00DA0127002191
:103B9000112F01DD112000E03846CDE9000106A912
:103BA0000EA8FFF7B1FCDDE90F010E9A0391002189
:103BB00004910092BA4621070CD40399514500DACA
:103BC0008A46BAF1010F05DD009AAAF10101515CA4
:103BD000302908D0B84202DA10F1040F06DA0121C8
:103BE000CDE9011015E0AAF10101E9E7002805DCA3
:103BF000049901440491AAEB000102E0411C5145E3
:103C000000DD8A460499401A401C01904FF00040A4
:103C10000290200704D40198504501DBCDF80480C0
:103C200000208DF84F0002980DF14F07B0F1004FC2
:103C300025D02B200E9002984FF0020800280CDAB5
:103C4000404202902D200E9007E00A210298FCF7D6
:103C500085FC3031029007F8011DB8F10001A8F190
:103C60000108F2DC02980028EFD1791E0E98087046
:103C7000307800F0200040F0450007F8020D12A84F
:103C8000C01B00F107081498007800B1012000EB78
:103C90000A01019801EBE07105984144401A401E69
:103CA0000590E00306D45B462146179A059800F07C
:103CB0005DF805441498007818B15A461799904752
:103CC0006D1CE00324D55B462146179A059800F049
:103CD0004DF805441CE00498002807DBDDE90301EA
:103CE000884203DD0098405C179901E01799302065
:103CF0005A469047049805F10105401C049001982C
:103D0000401E019004D12E205A46179990476D1CF1
:103D1000BAF10001AAF1010ADDDC05E017F8010B98
:103D20005A46179990476D1CB8F10001A8F1010897
:103D3000F4DC5B462146179A0598ABE62D0000009F
:103D40002B000000200000002DE9F0410446002572
:103D50001E461746880404D405E039462020B047A3
:103D60006D1C641EF9D52846BDE8F0812DE9F041AF
:103D7000044600251E469046C80301D5302700E0C2
:103D80002027880404D505E041463846B0476D1C1D
:103D9000641EF9D52846BDE8F0814A68002A06D09D
:103DA0000A68531C0B6010704868401E48607047DA
:103DB00070B590F87E500446002D7CD0A188206814
:103DC000FDF7F8FC6D1E15F0FF057DD0A189A068F8
:103DD000FDF7F0FC6D1E15F0FF0575D0A18A206976
:103DE000FDF7E8FC6D1E15F0FF056DD0A18BA069F5
:103DF000FDF7E0FC6D1E15F0FF0565D0A18C206A73
:103E0000FDF7D8FC6D1E15F0FF055DD0A18DA06AF1
:103E1000FDF7D0FC6D1E15F0FF0555D0A18E206B6F
:103E2000FDF7C8FC6D1E15F0FF054DD0A18FA06BEE
:103E3000FDF7C0FC6D1E15F0FF0545D0B4F8441029
:103E4000206CFDF7B7FC6D1E15F0FF053CD0B4F8F3
:103E50004C10A06CFDF7AEFC6D1E15F0FF0533D0C5
:103E6000B4F85410206DFDF7A5FC6D1E15F0FF058C
:103E70002AD0B4F85C10A06DFDF79CFC6D1E15F007
:103E8000FF0521D0B4F86410206EFDF793FC6D1E81
:103E900015F0FF0518D0B4F86C10A06EFDF78AFC81
:103EA0006D1E15F0FF050FD0B4F87410206FFDF7EC
:103EB00081FC6D1E00E007E015F0FF0F04D0B4F8A0
:103EC0007C10A06FFDF776FC2046BDE87040AFF394
:103ED000008070B590F87E204FF6FF7404FA02F36C
:103EE00000219BB2002A7ED00568521ED2B2AD6876
:103EF0008688354200D00121002AF4D08568521E00
:103F0000D2B2AD6804EA41018689354201D041F060
:103F10000101002A67D00569521ED2B2AD6804EAD9
:103F20004101868A354201D041F00101002A5AD070
:103F30008569521ED2B2AD6804EA4101868B3542D2
:103F400001D041F00101002A4DD0056A521ED2B2C3
:103F5000AD6804EA4101868C354201D041F001018F
:103F6000002A40D0856A521ED2B2AD6804EA4101EF
:103F7000868D354201D041F00101002A7ED0056BCB
:103F8000521ED2B2AD6804EA4101868E354201D09C
:103F900041F001013AB3856B521ED2B2AD6804EA1A
:103FA0004101868F354201D041F00101DAB1056C43
:103FB000521ED2B2AD6804EA4101B0F84460354205
:103FC00001D041F0010172B1856C521ED2B2AD68D0
:103FD00004EA4101B0F84C60354201D041F00101E2
:103FE0000AB1521E00E049E0056DD2B204EA410177
:103FF000AD68B0F85460354201D041F00101EAB338
:10400000856D521ED2B2AD6804EA4101B0F85C6021
:10401000354201D041F0010182B3056E521ED2B289
:10402000AD6804EA4101B0F86460354201D041F066
:1040300001011AB3856E521ED2B2AD6804EA410185
:10404000B0F86C60354201D041F00101B2B1056FAA
:10405000521ED2B2AD6804EA4101B0F87460354234
:1040600001D041F001014AB1826F04EA4101926836
:10407000B0F87C40224201D041F001011943C9430C
:1040800089B2A0F88010084670BD2DE9F0410D46B8
:10409000B0F1000811D0072D0FD32A467E21FCF77E
:1040A00080F8041E0AD0A4EB0800281A85B2072D58
:1040B00003D36178481DA84202D90020BDE8F081F1
:1040C000601C491C4218475C5678FCF72CFCC1B2B6
:1040D000B94204D1B6EB102F01D12046EEE7601CA7
:1040E0006D1EADB2D9E7C2684A40C2607047000099
:1040F00010B5064C206000F0CBF8206801F038F9CC
:104100002068BDE8104001F02FB900002400002015
:104110002DE9F843804600270C4680209146B0EBFD
:10412000142F00970CD8260AE2B2002331464046ED
:1041300000F05AFB0546E2B20023314600970AE040
:104140000023E1B21A46404600F04EFB002305462C
:10415000E1B21A460097404600F0C6FC044601460C
:104160004A46284600F0E2FCA0B2BDE8F8832DE9FB
:10417000F04117461E460D468046069C01F0A2F906
:104180002946404600F00AFD3A463346404601F0D3
:10419000F3F8224629464046BDE8F04100F006BE4D
:1041A00070B50E46044615460068012100F0F8FF80
:1041B000204600F077FE606810B12189FDF70CFB06
:1041C000E06810B1218AFDF707FB606910B1218B0F
:1041D000FDF702FB0021204600F08CFE2A46314606
:1041E0002068BDE8704000F05FB8006800F072B869
:1041F0002DE9F041044616460F460025006800F000
:1042000007FA90B9206800F057F970B901212046EB
:1042100000F070FE32463946206800F03BFF050092
:1042200003D00121206800F07FFF2846BDE8F0811F
:104230002DE9F0410F460446002541F2883603E09F
:104240006D1CADB2B5420FD802212068FEF794F87C
:104250000028F5D039462068FEF797F8002506E0DB
:104260006D1CADB2B54202D90020BDE8F08101213C
:104270002068FEF781F80028F2D080212068FEF740
:104280007BF80128F9D02068FEF77DF8C0B2ECE792
:1042900010B5044600F0C0FF21896068FDF79CFA64
:1042A00061682089086110BD70B516460C46054648
:1042B00001F006FB284601F023FA2146284601F0CA
:1042C0008BFA3146284601F047F92846BDE8704090
:1042D00001F09EBA70B50E460546002400F0ECF8D9
:1042E000022808D13146284600F084F8044600210F
:1042F000284600F093FE204670BD000030B5104CFB
:10430000104A031B2515A04213D007DC0E4BC11821
:104310000CD0A94201D1D2F82C0630BDAB420BD053
:10432000B3F56C4FF9D1D2F80C0230BDD2F81C04B1
:1043300030BDD2F83C0830BDD2F84C0A30BD000088
:10434000004C00408826002000BCFFBF30B5104C58
:10435000014600200B1B25150E4AA14212D007DC96
:104360000D4BC9180BD0A94201D1B2F8200430BDC1
:10437000AB420AD0B3F56C4FF9D1108830BDB2F81A
:10438000100230BDB2F8300630BDB2F8400830BD82
:10439000004C00408826002000BCFFBF0E4B10B52B
:1043A00001460020CA1A1C15994210D006DC0B4A9F
:1043B00089180AD0A14200D1094810BDA24208D0F4
:1043C000B2F56C4FF9D1074810BD074810BD07483A
:1043D00010BD074810BD0000004C004000BCFFBFEE
:1043E000AE2A00208E2600209E280020BE2C002011
:1043F000CE2E00202DE9F04789461C490746884209
:1044000032D000282ED0FFF7C9FF80463846FFF78C
:104410009DFF0546384600F02BF80446406880B200
:10442000A84221D8281A0604360C1DD0206820F096
:1044300001002060324641464846FBF787FEC4F83B
:104440000C806560206840F0010020604FF6EF703E
:1044500038800021384600F06BFD2946384600F0D0
:10446000B7FD3046BDE8F0870020FBE70050004074
:104470000B49884201D10B4870470B49884202D151
:104480000848143070470949884202D10548283845
:1044900070470749884201D106487047002070479D
:1044A00000380140580002400044004000480040ED
:1044B000004C0040300402402DE9F047064600243D
:1044C000FFF744FF80463046FFF7D2FF01463C48E5
:1044D000DFF8E8C032183B48A6EB0C074FF48063C6
:1044E0004FF46C49664513D005DC5AB19A4215D198
:1044F00090F8284608E09F420DD04F450ED190F825
:10450000084201E090F81844C4F3410434B151E08A
:1045100090F83848F8E790F8484AF5E749680D04FC
:104520002D0C0CD0454545D24FF00008664512D001
:1045300007DC6AB19A4213D1B0F8248410E0012458
:1045400038E09F420AD04F450AD1B0F8048007E016
:10455000B0F8148204E0B0F8348601E0B0F8448882
:104560000021664510D005DC5AB19A4211D190F86D
:1045700027160EE09F420AD04F450AD190F8071245
:1045800007E090F8171404E090F8371801E090F86D
:10459000471A454506D102290CD83046491C00F07F
:1045A000C7FC07E00021304600F0C2FC2946304637
:1045B00000F00EFD2046BDE8F0870000004C0040F2
:1045C00000BCFFBF882600200B49884201D10B4860
:1045D00070470B49884202D108483C30704709496E
:1045E000884202D10548283870470749884201D1DE
:1045F00006487047002070470038014044000240E0
:104600000044004000480040004C00405804024074
:104610002DE9F05F06465B495B4A0024401A3244AC
:104620005A4D2746824691464FF4806B8E4212D0F7
:1046300006DC10000CD05A4512D195F826760FE012
:1046400058450BD0BAF56C4F0AD195F8067207E0C1
:1046500095F8167404E095F8367801E095F8467AF6
:104660003046FFF7B1FF4749804650468E4232D070
:1046700007DC5FEA09000CD0D94538D195F8280647
:1046800009E058452AD0BAF56C4F78D195F8080260
:1046900001E095F8180410F0010470D0B08980048E
:1046A00024D5B8F100006AD00068C0071ED0D8F841
:1046B0000400B0B1D8F80400324A84B20020514658
:1046C000964231D026DC5FEA09012AD0D94530D1A3
:1046D000B5F822042DE095F83808DCE795F8480A8B
:1046E000D9E740213046FEF759FE20B3002446E0CA
:1046F000791C304600F044FC40E000214046FCF7C5
:1047000069F980213046FEF7F7FD0021304600F0C0
:1047100037FCEBE759450AD0BAF56C4F09D16888E8
:1047200007E0B5F8120204E0B5F8320601E0B5F88A
:104730004208844202D1022FDFD2D9E7002130465D
:1047400000F01EFC0F4950468E4212D007DC5FEA93
:1047500009000BD0D94511D1A5F822440EE05845E7
:104760000AD0BAF56C4F09D16C8007E0A5F8124267
:1047700004E0A5F8324601E0A5F8424801242046AD
:10478000BDE8F09F004C004000BCFFBF8826002021
:1047900030B5124C014600200B1B2515104AA142D2
:1047A00013D007DC0F4BC9180CD0A94214D192F8D2
:1047B00028060FE0AB420BD0B3F56C4F0CD192F84A
:1047C000080207E092F8180404E092F8380801E0C3
:1047D00092F8480AC0F3C00030BD0000004C004011
:1047E0008826002000BCFFBFF0B50C461F460146DE
:1047F0000020059B1546802C5BD9A4F1A1020C2951
:104800000ED0102925D018293DD0202907D13A46AD
:104810002946204600F0F8F8614901EBC010F0BDD0
:104820000A2A0AD8A12D08D33A462946204600F084
:10483000EBF800EB40005B4908E000231A462946EC
:10484000204600F0E1F8584900EB400001EBC000C1
:10485000F0BD564E0A2A01D8A12D03D2A4F1A8001A
:10486000012807D83A462946204600F0CDF806EB45
:104870004010F0BD3A462946204600F0C5F84C49A4
:1048800001EB4010F0BD0A2A0AD8A12D08D33A4600
:104890002946204600F0B8F800EBC0004549D5E7AE
:1048A0003A462946204600F0AFF800EBC0004249E6
:1048B000CCE7A4F121025D2AE4D804EB840202EBE8
:1048C000C40504EB840204EB041302EB441604EB6E
:1048D00084173E2952D018DC24295DD00BDC04EB70
:1048E00044020C2938D010293CD018293ED0202968
:1048F000C8D132483FE034293CD0362948D0382945
:10490000C0D12F4800EB4300F0BDDFF8B8C0A1EBE9
:104910000C02614524D00CDC792935D0B1F5801F1B
:1049200014D0294A891813D0B1F5407FECD127481B
:104930000FE002F51952B2F5004221D0B2F54C6FEA
:1049400020D0B2F5225FDFD1214826E0214800E0E7
:10495000214800EBC400F0BD204800EB8200F0BD10
:104960001F4800E01F4800EB0410F0BD1E4800EB9C
:104970000210F0BD1D4800EB8410F0BD1C4804E09F
:104980001C48BFE71C4804E01C4800EB4500F0BD94
:104990001B4800EB4600F0BD1A4800EB4700F0BD95
:1049A00010AE47000E3D11000E4F1100DE4F1900F2
:1049B000DE671900DE432700DE792700802510001E
:1049C00010C61000800D100000FDEFFF0005100064
:1049D000807F100000FF0F00000210008007100011
:1049E000800B10008013100080151000803D100017
:1049F000405A100000631000C06A100040BD100053
:104A000000CE100000E3100030B504460020354D04
:104A10007F290DD0A4F1A1050A2D0BD8A12909D316
:104A2000C5EB051000EB451001EB4000A1380FE08D
:104A3000284630BDA4F1A805012D09D87F2901D948
:104A4000491EC9B205EB450001EB401000F20E30E3
:104A5000A4F1B005472D0AD8A12908D3C5EB05104C
:104A600000EB451001EB400000F2AD2030BDA4F199
:104A70008105202D0ED240290CD37F2901D9491E52
:104A8000C9B2C5EB451000EB851001EB400041F6C3
:104A90007E510EE0AA2C0ED3A1290CD27F2901D978
:104AA000491EC9B2AA3C04EB440001EB401043F29A
:104AB0003E51084430BD02EB8202812C0BD0822C87
:104AC000F8D140F2EC40414301EB42001844A0F51C
:104AD0001A40BB3830BD3929FCD303EB420044F601
:104AE0009941E6E710AE47000246002080290FD921
:104AF0000C2A07D0102A07D0182A07D0202A00D164
:104B00008020704718207047202070474820704749
:104B10000C2A07D0102A05D0182A05D0202AF6D151
:104B20004020704710207047302070472DE9F04733
:104B3000164E804691460F460024306800F018FC5F
:104B40004546032040EA15613068FFF771FBC5F365
:104B500007413068FFF76CFBC5F307213068FFF7AA
:104B600067FBE9B23068FFF763FB06E0FF213068BE
:104B7000FFF75EFB09F80400641CBC42F6D3306802
:104B800000F0F2FBB8B2BDE8F0870000240000207E
:104B9000FEF78DFCFDF7DCF8FCE7000070B57E4DFC
:104BA0007E4B441B2E157E4AA84271D016DCB0F114
:104BB000804F36D07B4C00197B4C47D0B04227D178
:104BC000986940F00800986100297CD001296DD0D7
:104BD000201D02294BD003291AD18DE0B44220D0E8
:104BE000B4F5903F14D1986940F0040098616C4886
:104BF000001DE1B301297FD002290AD0032907D182
:104C0000016821F470410160016841F430410160A4
:104C100070BD016821F470610160016841F4306188
:104C2000F5E7986940F00400986100297DD00129DA
:104C30007CD002297BD00329EAD1106820F470408F
:104C40001060106840F43040106070BDA1B10129BF
:104C50001FD002292BD00329F7D1986940F0080012
:104C60009861206820F0F0002060206800E03BE0C0
:104C700040F0B000206070BD986940F00400986179
:104C8000106820F070601060106840F03060DBE762
:104C90003AE0986940F004009861106820F0704094
:104CA0001060106840F03040CEE70CE014E09869E6
:104CB00040F008009861206820F00F002060206814
:104CC00040F00B00D6E7206820F07060206020687C
:104CD00040F03060CEE70FE0206820F070402060A8
:104CE000206840F03040C5E7016821F00F01016005
:104CF000016841F00B018AE7016821F0F0010160D1
:104D0000016841F0B00182E7986940F004009861C1
:104D100091B1012918D002291ED0032981D1106830
:104D200020F470401060106802E01DE024E02BE0E9
:104D300040F43040106074E7106820F00F001060FD
:104D4000106840F00B00F5E7106820F0F0001060EC
:104D5000106840F0B000EDE7106820F4706010605B
:104D6000106840F43060E5E7106820F00F00106034
:104D7000106840F00B0067E7106820F0F00010604A
:104D8000106840F0B0005FE7106820F470601060B9
:104D9000106840F4306057E7000C004000100240FB
:104DA0000008014000FCFFBF000C0140838D5B1C2C
:104DB00053434FF47A72B3FBF2F231B101291DD0A3
:104DC00002293CD0032931D152E08286818821F426
:104DD00040718180818841F440718180018B01F4B0
:104DE0007F410183018B41F06C010183018C21F033
:104DF00003010184018C41F0010116E002878188E2
:104E000021F440618180818841F440618180018B7F
:104E1000C9B20183018B41F4D8410183018C21F097
:104E200030010184018C41F01001018430F8441FED
:104E300041F4004120F83019012101807047828738
:104E4000818821F440518180818841F440518180E2
:104E5000818B01F47F418183818B41F06C018183DF
:104E6000018C21F440710184018C41F48071DCE7F4
:104E7000A0F84020818821F480418180818841F41C
:104E800080418180818BC9B28183818B41F4D8417B
:104E90008183018C21F440510184018C41F48051C3
:104EA000C3E7000030B5104C016825150B1B0F4AF5
:104EB000A14213D007DC0E4BC9180CD0A94201D176
:104EC000C2F82C0630BDAB420BD0B3F56C4FF9D114
:104ED000C2F80C0230BDC2F81C0430BDC2F83C0858
:104EE00030BDC2F84C0A30BD004C0040882600207E
:104EF00000BCFFBF69B1416809B102890A61C1689C
:104F000009B1028A0A614169002901D0008B086158
:104F10007047416909B1028B4A61416809B1028950
:104F20004A61C1680029F3D0008A486170470000D7
:104F300030B5104C104A031B2515C9B2A04213D03E
:104F400007DC0E4BC0180CD0A84201D182F82716FE
:104F500030BDAB420BD0B3F56C4FF9D182F80712DC
:104F600030BD82F8171430BD82F8371830BD82F892
:104F7000471A30BD004C00408826002000BCFFBF0F
:104F800030B5104C104A031B2515C9B2A04213D0EE
:104F900007DC0E4BC0180CD0A84201D182F82616AF
:104FA00030BDAB420BD0B3F56C4FF9D182F806128D
:104FB00030BD82F8161430BD82F8361830BD82F844
:104FC000461A30BD004C00408826002000BCFFBFC0
:104FD00030B50F4C0F4A031B2515A04212D007DC39
:104FE0000D4BC0180BD0A84201D1A2F8241430BD3B
:104FF000AB420AD0B3F56C4FF9D1918030BDA2F825
:10500000141230BDA2F8341630BDA2F8441830BDD9
:10501000004C00408826002000BCFFBF30B51A4C71
:105020001A4A031B2515A0421FD00BDC184BC018D1
:1050300014D0A84205D192F8280661F3420082F804
:10504000280630BDAB4217D0B3F56C4FF9D192F8BA
:10505000080261F3420082F8080230BD92F8180499
:1050600061F3420082F8180430BD92F8380861F309
:10507000420082F8380830BD92F8480A61F34200D5
:1050800082F8480A30BD0000004C0040882600200D
:1050900000BCFFBF2DE9F041154688460746FFF7E3
:1050A00055F91A4906460024781A0A158F4210D07D
:1050B00006DC174838180AD090420DD1154C0BE089
:1050C000904208D0B0F56C4F06D1134C04E0134C5D
:1050D00002E0134C00E0134C3846FFF775FA074620
:1050E000B54202D90020BDE8F0812A46414620465B
:1050F000FBF72CF8386820F0010038607D60FC6018
:10510000386840F0010038602846ECE7004C004069
:1051100000BCFFBFAE2B00208E2700209E29002060
:10512000BE2D0020CE2F002030B51A4C1A4A031B8A
:105130002515A0421FD00BDC184BC01814D0A84274
:1051400005D192F8280661F3000082F8280630BDE8
:10515000AB4217D0B3F56C4FF9D192F8080261F366
:10516000000082F8080230BD92F8180461F30000D4
:1051700082F8180430BD92F8380861F3000082F814
:10518000380830BD92F8480A61F3000082F8480AF6
:1051900030BD0000004C00408826002000BCFFBF4E
:1051A00030B51A4C1A4A031B2515A0421FD00BDC40
:1051B000184BC01814D0A84205D192F8280661F304
:1051C000C30082F8280630BDAB4217D0B3F56C4F50
:1051D000F9D192F8080261F3C30082F8080230BDE9
:1051E00092F8180461F3C30082F8180430BD92F8F5
:1051F000380861F3C30082F8380830BD92F8480AD5
:1052000061F3C30082F8480A30BD0000004C004042
:105210008826002000BCFFBFF0B5044600684F4957
:105220004F4F87B040184FF018054FF0030617D0C6
:10523000B0F5806F27D0B0F5784F1ED1012108035B
:10524000FCF766FE01210520FCF762FEE020ADF8C8
:1052500014008DF817508DF8166005A941480AE032
:1052600001218803FCF73CFE01210920FCF750FED8
:105270004FF4604010E0FCF7C1FA618CA9B1012045
:10528000082913D114E00121C803FCF729FE0121EC
:105290000D20FCF73DFE3820ADF814008DF81660A7
:1052A0008DF8175005A93846E5E70020012200E0F7
:1052B00000221040102901D0012200E000221040FD
:1052C000182901D0012200E000221040202901D03D
:1052D000012200E000221040282901D0012200E034
:1052E00000221040302901D0012200E000221040AD
:1052F000382901D0012100E0002108424FF00001CF
:1053000000D06184ADF800104FF48270ADF8020057
:10531000ADF804100220ADF806000120ADF8080039
:105320000720ADF81000ADF80E104FF40070ADF886
:105330000A00608CADF80C0069462068FDF727F87C
:1053400020680188890502D40121FDF73CF801217C
:105350002068FDF707F807B0F0BD000000C8FFBFE8
:10536000000C01400008014001894068016170475C
:105370000189406841617047F0B514461F460546F3
:10538000002285B0134620463946FBF7CFF872D38A
:10539000288820F0010028806846FCF75BFE3E4824
:1053A000A84314D002984000FBF79AF822463B46E7
:1053B000FBF727F8FBF7A1F806460022374B2046FB
:1053C0003946FBF7B3F804D24EF6602055E0039857
:1053D000EAE70022324B20463946FBF7A7F802D213
:1053E0004FF4FA6049E000222E4B20463946FBF785
:1053F0009DF801D2C82040E000222B4B20463946C0
:10540000FBF794F801D23C2037E00022274B2046DE
:105410003946FBF78BF801D21E202EE00022244BE8
:1054200020463946FBF782F801D2142025E00022FD
:10543000204B20463946FBF779F801D20F201CE0BB
:1054400000221D4B20463946FBF770F801D206209A
:1054500013E00022194B20463946FBF767F801D2CA
:1054600003200AE00022164B20463946FBF75EF87F
:1054700002D2022001E00CE00120B6FBF0F1401E58
:105480002885491EA9850020A881288840F00100B0
:10549000288005B0F0BD0000000001400000F03F92
:1054A000000024400000344000004440000054400C
:1054B0000000594000006940000079400000894028
:1054C00000409F40214B10B5C21A1C15204998423C
:1054D0002AD00BDCB0F1804F15D01E4A801816D0B0
:1054E000A04219D0B0F5006F2AD119E0A2421FD016
:1054F000B2F58E3F03D0B2F5923F21D11CE088690E
:1055000040F400601BE0C86940F0010002E0C86997
:1055100040F00200C86113E0C86940F00400F9E7F8
:10552000C86940F00800F5E7C86940F01000F1E7ED
:10553000C86940F02000EDE7886940F400508861B8
:10554000886940F00100886110BD00000010004033
:105550000010024000FCFFBF2DE9F04F8DB08846DF
:105560000446FEF71BFF05462246B8F1000F14D093
:105570004FF48070804500D980465A4B5B4ED01A5C
:1055800059491F15834626449C4214D008DC7EB13D
:10559000BE4215D1A1F8208412E04FF48078ECE7E8
:1055A000B8420BD0BBF56C4F0AD1A1F8008007E0E0
:1055B000A1F8108204E0A1F8308601E0A1F840884B
:1055C000C1461046FFF700F80B902046FEF750FF4B
:1055D0008246002D7AD00B98002877D0BAF1000FC0
:1055E00074D0DFF80081584644450CD003DC3EB14E
:1055F000BE420CD104E0B84268D0BBF56C4F06D176
:105600000121084601E001210220FCF75DFC002693
:105610004FF0800BCDE9046B1020CDE90206271D69
:10562000069640020A96CDE90860CDE90075079616
:1056300069460B98FBF7F0F901A8009780E8600233
:10564000CDE9046B4FF40050CDE90860069607964B
:10565000694650460A96FBF7DFF900210B98FBF7E5
:10566000B9F901215046FBF7B5F901224021204646
:10567000FDF755FE012280212046FDF750FE002255
:1056800002210B98FBF7C0F9184E194D7642194FBD
:10569000AC4201D1A0140BE0B44202D14FF08070B3
:1056A00006E0BC4201D1102002E0444502D112487C
:1056B000FBF784F9AC4203D14FF4803004E005E0FD
:1056C000B44206D14FF48010FBF778F90DB0BDE875
:1056D000F08FBC4202D14FF48070F5E74445F5D11C
:1056E0000648F1E7004C00408826002000BCFFBFC0
:1056F0000038014000480040000001100001001087
:105700002DE9F84300252D4ADFF8B4C0811ADFF8EF
:10571000B48013152C462F462E464FF40069904254
:105720003ED013DC284940181BD0984221D1274F86
:1057300001213E461D464C460846FCF7E9FB012187
:105740002348FCF7ABF80121082010E099422ED045
:10575000B1F56C4F0DD1674666464FF400751C4697
:1057600003E0042567466646082401210420FCF76F
:10577000CFFBADF8005018208DF8030003208DF802
:10578000020069463846FCF739F8ADF80040482079
:105790008DF8030069463046FCF730F8BDE8F88321
:1057A0000121474646461D464C461020DFE70424AB
:1057B00001214746074E1D463020D8E7004C0040E7
:1057C000000801400010014000BCFFBF000C014078
:1057D00000023000001401407FB50C460546FDF77D
:1057E000A7FD0021ADF80810ADF804100C20ADF8AD
:1057F0000610ADF80A00ADF80C1000946946284672
:10580000FDF70AFE01212846FDF77FFD7FBD000060
:10581000F8B5002405462146FDF777FD254AA91A6B
:105820001315954205D006DC234828180AD0984263
:105830000BD1342409E0994206D0B1F56C4F04D164
:10584000252402E0262400E035248DF800400020C5
:105850008DF801008DF8020001208DF803006846E4
:10586000FCF780FA154840F22774C54240F22666DC
:105870004FF001021BD121462846FDF7B5FD40F24D
:105880002447012239462846FDF7AEFD2146284629
:10589000FDF735FD31462846FDF731FD39462846EE
:1058A000FDF72DFD01212846FDF72FFDF8BD3146FE
:1058B0002846E2E7004C004000BCFFBF00B0FFBF3D
:1058C000144A10B5811A131590421CD009DC1249F4
:1058D000401815D098420DD101210002FCF700FBC1
:1058E00008E0994212D0B1F56C4F03D10121880331
:1058F000FCF70EFB0121BDE810400846FCF708BB91
:1059000001214804EAE70121C804E7E7012108056D
:10591000E4E70000004C004000BCFFBF02040608A2
:105920000000000001020304010203040607080945
:105930001F1C1F1E1F1E1F1F1E1F1E1F5C5900083D
:1059400000000020AC000000E8340008085A0008FD
:10595000AC0000202C340000F834000800000000E7
:105960000000000000000000000000000000000037
:105970000000000000000000000000000000000027
:1059800000000000FF000000000000000000000018
:105990000000000000000000000000000000000007
:1059A00000000000000000000000000000000000F7
:1059B00000000000000000000000000000000000E7
:1059C00000000000FF0000000000000000000000D8
:1059D00000000000000000000000000000000000C7
:1059E00000000000000000000000000000000000B7
:1059F00000000000000000000000000000000000A7
:085A000000000000000000009E
:0400000508000131BD
:00000001FF
