:020000040800F2
:100000005028002045010008C51D0008D117000830
:10001000C31D000887080008F73F00080000000023
:10002000000000000000000000000000C1360008D1
:10003000830A000800000000812200083F37000802
:1000400019420008811E00081D380008B128000868
:10005000790C000881250008850A00088D0A00082F
:10006000910A0008950A0008990A00083D0900084D
:100070004109000845090008490900084D09000820
:10008000510900085509000851070008F33F00080E
:10009000F53F0008890800088B0800089D0A000841
:1000A0001F380008253800082338000821380008C8
:1000B0003D3800085138000869380008D717000893
:1000C000D5170008DB170008D9170008CF2A000849
:1000D000D12A00080D3B0008113B0008153B000821
:1000E000890A000811270008F13F0008733800084A
:1000F0007938000877380008753800085307000879
:10010000AD0C0008CD2A00086D380008D32A00087D
:10011000053B0008093B00086F38000871380008EB
:10012000590900085D09000861090008650900080F
:10013000DFF80CD000F0FAFA00480047094B00083D
:1001400050280020004800473101000840EA010320
:100150009B0703D009E008C9121F08C0042AFAD27D
:1001600003E011F8013B00F8013B521EF9D2704741
:10017000D2B201E000F8012B491EFBD270470022E9
:10018000F6E710B513460A4604461946FFF7F0FF96
:10019000204610BD2DE9FE4F804681EA0300C00FC6
:1001A0000C46009021F0004123F00045B8EB02001E
:1001B000A94105D24046214690461C460B460246C0
:1001C00023F00040104347D0270DC7F30A00C3F3C4
:1001D0000A510290401A019040286BDAC3F31300D1
:1001E00040F4801B0098924620B10023D2EB030A12
:1001F00063EB0B0B01985946C0F14002504600F0EA
:10020000EEF906460D4650465946019A00F006FAA8
:1002100010EB08006141002487EA115284EAE77379
:100220001A4340D0009A62B3019A012A4FEA07525A
:1002300015DC001B61EB02014FF0004202EA07529D
:10024000CDE90042001C41F5801132462B4600F0FA
:1002500006FA03B0BDE8F08F40462146F9E7001BDF
:1002600061EB0201001C41F5801300185B4120186E
:10027000A2F5001747EB030140EAD570B6196D41AE
:1002800011E06D084FEA360645EAC0754FEA07529D
:10029000001B61EB0201001C41F5801149084FEA87
:1002A00030000019514132462B4603B0BDE8F04FF3
:1002B00000F0C6B90098012240000023D0EB0202F2
:1002C00063EBE073009821464FEAE074B8EB00005E
:1002D00061EB0401E9E783F000435BE781F0004153
:1002E00058E72DE9FE4F81EA030404F0004421F0B1
:1002F000004100944FF0000B23F0004350EA01044A
:100300005ED052EA03045BD0C3F30A54C1F30A552A
:100310002C44A4F2F3340194A0FB0254C1F3130162
:1003200041F48011C3F3130343F4801301FB02442F
:1003300000FB034E840A970A44EA815447EA835734
:10034000A4FB076802958D0A05FB07854FEA932CED
:1003500004FB0C542705029D4FEA065847EA16375E
:10036000B5EB08056EEB070C870E920E47EA811776
:1003700042EA8312A7FB0201B6EB0B0164EB000417
:100380002B0D43EA0C335E1844EB1C50DA46514601
:10039000E7FB0201C5F313044FEA0B3343EA14539E
:1003A0004FEA0432019C43EA0603A4F10C040294D0
:1003B000009CCDE900B400F052F903B0BDE8F08F25
:1003C00000200146F9E72DE9F04D81EA030404F02D
:1003D000004B21F0004514464FF0000A23F0004185
:1003E00050EA050220D054EA01021DD0C5F30A5795
:1003F0000246C5F31303C1F31300C1F30A5640F4D8
:10040000801543F48013A7EB0608101BD64608F2AC
:10041000FD3873EB050002D308F1010801E09218E2
:100420005B41B8F1000F03DA00200146BDE8F08D12
:1004300000204FF48011064684460EE0171B73EB34
:10044000050705D3121B63EB050306434CEA010CB9
:1004500049084FEA300092185B4150EA0107EDD19C
:1004600052EA030012D082EA040083EA050108433D
:1004700005D0101BAB4106D20122002306E000226A
:100480004FF0004302E06FF0010253101AEB060038
:100490004CEB085110EB0A0041EB0B01BDE8F04DAD
:1004A00000F0CEB870B521F0004303430CD0C1F387
:1004B0000A550024D5EB040564EB0403D617AD1AE6
:1004C000B34102DB0020014670BD201841EB025110
:1004D00070BD0EB540F2334102910021CDE900110B
:1004E0000A460B4600F0BBF803B000BDC1F30A5248
:1004F00010B5C1F3130140F2FF3341F480119A4269
:1005000001DA002010BD40F233439A42A2F2334296
:1005100003DC524200F072F810BD904010BD0000A4
:1005200030B5041E71F1000404DB4FF0004440427A
:1005300064EB0101141E73F1000405DB1C464FF04F
:100540000043524263EB0403994208BF904230BD1E
:1005500030B50B46014600202022012409E021FA93
:1005600002F59D4205D303FA02F5491B04FA02F590
:100570002844151EA2F10102F1DC30BD2DE9F05F27
:100580000546002092469B46884606468146402402
:100590001BE0284641464746224600F02FF85346C6
:1005A0005A46C01A914110D311461846224600F00F
:1005B00016F82D1A67EB01084F462246012000214C
:1005C00000F00DF817EB00094E41201EA4F10104C4
:1005D000DFDC484631462A464346BDE8F09F202AE4
:1005E00004DB203A00FA02F1002070479140C2F18A
:1005F000200320FA03F3194390407047202A04DBBC
:10060000203A21FA02F00021704721FA02F3D0408B
:10061000C2F120029140084319467047202A06DBA8
:10062000CB17203A41FA02F043EAE07306E041FAC0
:1006300002F3D040C2F120029140084319467047AE
:1006400010B5141E73F1000408DA401C41F10001DA
:1006500092185B411A4301D120F0010010BD2DE931
:10066000F04D92469B4611B1B1FA81F202E0B0FA28
:1006700080F220329046FFF7B2FF04460F4640EA70
:100680000A0041EA0B0153465A46084313D011466B
:1006900053EA010019D0C8F140025046FFF7AEFFFF
:1006A00005460E46504659464246FFF798FF084316
:1006B00005D0012004E020463946BDE8F08D002039
:1006C000054346EAE0762C4337430A986305E40A7B
:1006D000A0EB08000022FD0A44EA47540A3002D584
:1006E00000200146E9E7010510196941DDE90845E7
:1006F00000196941BDE8F04DA2E7C1F30A52C1F308
:10070000130140F2FF3341F480119A4202DA0020D3
:100710000146704740F233439A42A2F2334202DC70
:100720005242FFF76BBFFFF75ABF0000064C074D60
:1007300006E0E06840F0010394E8070098471034B1
:10074000AC42F6D3FFF7F8FC984B0008B84B000812
:100750007047704738B502F0B4FF01F093FD01F027
:1007600049F901F0DFFF00F081FF4FF6FF7001F063
:10077000ADF94FF6E0740222234611464FF4437060
:1007800001F063FA2346032202214FF43E7001F088
:100790003FFA4FF480744FF49645224629460C48A0
:1007A00003F0D5F9224629460A4803F0D0F901F0B2
:1007B0004FFF4FF4617000220090074B1146000775
:1007C00001F060FBBDE838404FF47A7002F0BABF28
:1007D00000380140004800400000594010B502F0C8
:1007E00089F8BDE8104003F021BB03F09FBC000076
:1007F0002DE9F0478946074600F07CFF054638465C
:1008000000F056FF0646384600F09AFF04461848A6
:10081000874208D03DB140F224484146384603F0B3
:1008200086FA48B902E00020BDE8F087102138467A
:1008300003F076FA0028F7D04146384603F06FF906
:100840001021384603F068F9206820F0010020608C
:1008500060682946301A87B23A464846FFF776FC68
:10086000E5606660206840F0010020603846DBE704
:100870000050004010B5012001F05AFDBDE81040C5
:10088000002001F055BDFEE770477047FCB50446F7
:100890004FF6FF7700200D46ADF8007048F20506D0
:1008A0008DF804001EE014F8010B8DF8040001A976
:1008B000084600F0B4FFBDF800009DF8041080EA7F
:1008C0000120ADF800000020BDF800100A0402D598
:1008D00086EA410101E007EA4101401CADF8001041
:1008E0000828F1DB6D1EDED26946084600F080FF65
:1008F000BDF80000FCBD00000B49884201D1801406
:100900000EE00A49884202D14FF0807008E00849A1
:10091000884201D1102003E00649884202D10648EE
:1009200000F022B870470000003801400044004049
:1009300000480040004C00400000011000F060B88A
:1009400000F05EB800F05CB800F05AB800F058B89B
:1009500000F056B800F054B800F052B800F050B8AB
:1009600000F04EB800F04CB8C10002D50249086052
:10097000704702494860704704040240000002408A
:100980000029016802D041F0010101E021F00101DC
:100990000160704702460020D10001D5034900E004
:1009A00003490968114200D0012070470004024049
:1009B00000000240002A026801D00A4300E08A4396
:1009C0000260704730B5026847F6F0739A430C6ACC
:1009D0008B682343D1E904452C4323438C6923438B
:1009E000CC6923434C6A23438C6A2343134303603B
:1009F000CA6842600A6882604968C16030BD000010
:100A000010B503F002FC1020FFF7C4FF01281BD033
:100A10004FF480542046FFF7BDFF01281AD024036D
:100A20002046FFF7B7FF01281BD0124C2046FFF7E6
:100A3000B1FF01281CD12046FFF796FF0E48002188
:100A4000BDE81040FFF79CBF1020FFF78DFF00218D
:100A50000A48F5E72046FFF787FF084800212830BD
:100A6000EEE72046FFF780FF044800216430E7E707
:100A700010BD000000000110580402401C0002409C
:100A80007047704700F0B0B800F0AEB800F0ACB8F6
:100A900000F0AAB800F0A8B800F0A6B800F0A4B81A
:100AA00001490860704700001404014010B501209E
:100AB00000F08AF8434C18B1208840F0010006E0AD
:100AC000022000F081F820B1208840F00200208050
:100AD00010BD042000F078F818B1208840F0040020
:100AE000F5E7082000F070F818B1208840F0080001
:100AF000EDE7102000F068F818B1208840F01000F1
:100B0000E5E7202000F060F818B1208840F02000D0
:100B1000DDE7402000F058F818B1208840F0400090
:100B2000D5E7802000F050F818B1208840F0800010
:100B3000CDE74FF4807000F047F818B1208840F4FA
:100B40008070C4E74FF4007000F03EF818B12088C0
:100B500040F40070BBE74FF4806000F035F818B146
:100B6000208840F48060B2E74FF4006000F02CF879
:100B700018B1208840F40060A9E74FF4805000F0DD
:100B800023F818B1208840F48050A0E74FF40050BB
:100B900000F01AF818B1208840F4005097E74FF49D
:100BA000804000F011F818B1208840F480408EE7B2
:100BB0004FF4004000F008F8002889D0208840F465
:100BC000004084E74C000020064A014600201268DD
:100BD000044B0A4014331B680B4202D0002A00D099
:100BE000012070470004014008B50020ADF8000066
:100BF000FFF75CFF03F009FB1E48BDF80010018001
:100C00000120FFF74DFF0220FFF74AFF0420FFF706
:100C100047FF0820FFF744FF1020FFF741FF202087
:100C2000FFF73EFF4020FFF73BFF8020FFF738FF34
:100C30004FF48070FFF734FF4FF40070FFF730FF80
:100C40004FF48060FFF72CFF4FF40060FFF728FFA0
:100C50004FF48050FFF724FF4FF40050FFF720FFC0
:100C60004FF48040FFF71CFFBDE808404FF4004000
:100C7000FFF716BF4C0000207047000004490A68C7
:100C800022F010020A600A6802430A6070470000FE
:100C90000020024004490A6802F038020A600A682B
:100CA00002430A60704700000020024070470000C5
:100CB0008000A0F1C0400029016802D041F001018C
:100CC00001E0024A1140016070470000FEFF0F0082
:100CD00010B5D0E901121143D0E903231A4311439F
:100CE0004269114382691143C2691143026A114387
:100CF000426A1143826A1143C26A1143026B114373
:100D000002689200A2F1C04211608168082907D1EF
:100D100001688900A1F1C0410A6842F040020A60FE
:100D2000416BD1E9002342EA03128B688C891B02D4
:100D300043EA04431A430B8A42EA03520B7D896952
:100D400042EA03620A4301688900A1F1C0414A6096
:100D5000816AB1F5804F08D000686FF07041800063
:100D6000A0F1C040C0F8041110BD816BD1E900238F
:100D700042EA03128B688C891B0243EA04431A433C
:100D80000B8A006842EA03520B7D896942EA0362DA
:100D90000A438000A0F1C040C0F8042110BD10B586
:100DA0000121084601F0B8FA0021BDE810400120F9
:100DB00001F0B2BA70B50C46002852D0294A811A07
:100DC0001315D614904243D014DC2749274D4118FF
:100DD0004FF6FF701BD0994227D0B14241D101217B
:100DE000102001F08DFA600401D4200439D50121CE
:100DF000112008E099422ED0B1422FD0B1F5406FBA
:100E00002FD101210802BDE8704001F079BAA10498
:100E100005D4610403D4210401D4844202D1012108
:100E200004200AE001210420EDE7210703D4E106B4
:100E300001D4844209D10121092001F061FA284638
:100E4000BDE87040012100F03FB901210820DAE738
:100E500001212020D7E701214020D4E70121802073
:100E6000D1E770BD0014014000F8FEBF0002300061
:100E700038B50446ADF8001003228DF80220182082
:100E80008DF803002046FFF795FF0121084601F089
:100E900037FA6946204600F0C7F838BD38B5044631
:100EA000ADF8001002228DF8022048208DF80300D2
:100EB0002046FFF77FFF6946204600F0B5F838BDB1
:100EC00038B50446ADF8001003228DF8022010203A
:100ED0008DF803002046FFF76DFF6946204600F0BD
:100EE000A3F838BD254A10B5811A1315D4149042C1
:100EF0002ED00DDC224940181CD0984221D0A042AF
:100F00003BD10121102001F007FA002110200DE053
:100F1000994224D0A14229D0B1F5406F2DD10121B1
:100F20000C02204601F0F8F900212046BDE81040EF
:100F300001F0F2B90121042001F0EEF900210420B2
:100F4000F4E70121082001F0E7F900210820EDE78E
:100F50000121202001F0E0F900212020E6E7012115
:100F6000402001F0D9F900214020DFE70121802055
:100F700001F0D2F900218020D8E710BD0014014013
:100F800000F8FEBF2DE9F84F684600F0C5F81F4C89
:100F90006946204600F048F81D4D6946284600F095
:100FA00043F81C4E6946304600F03EF81A4F694639
:100FB000384600F039F8DFF864806946404600F0B2
:100FC00033F8DFF85C906946484600F02DF8DFF80A
:100FD00054A06946504600F027F82046FFF782FFEC
:100FE0002846FFF77FFF3046FFF77CFF3846FFF7C4
:100FF00079FF4046FFF776FF4846FFF773FF5046FC
:10100000FFF770FFFFF7CBFEBDE8F88F0008014047
:10101000000C014000100140001401400018014084
:10102000001C014000200140F0B50022002849D0FA
:10103000CC7804F00F03E40601D58C7823430C78B8
:101040004FF00F0C14F0FF0F4FF0010E1AD005688F
:101050000E880EFA02F42640A6420FD196000CFA32
:1010600006F725EA070703FA06F5CE783D43282E52
:1010700000D14461CE78482E00D10461521C082A68
:10108000E6D305600A88FF2A1CD94468002202F1D1
:1010900008060EFA06F50E882E40AE420ED19600D6
:1010A0000CFA06F7BC4303FA06F7CE783C43282E29
:1010B00000D14561CE78482E00D10561521C082A26
:1010C000E5D34460F0BD0000F0B5104D6B68440DF1
:1010D000260184B2C0F30157B440C0F30342032F8A
:1010E00005D0C0020AD503209040834307E068681A
:1010F00023F0706220F07060686002E0A34343F068
:10110000706201B122436A60F0BD0000000001403E
:1011100041617047016170474FF6FF710180022104
:1011200081700421C1707047F0B50C461F4601461E
:101130000020059B1546802C5BD9A4F1A1020C2947
:101140000ED0102925D018293DD0202907D13A46A4
:101150002946204600F06AF9614901EBC010F0BD54
:101160000A2A0AD8A12D08D33A462946204600F07B
:101170005DF900EB40005B4908E000231A46294670
:10118000204600F053F9584900EB400001EBC00045
:10119000F0BD564E0A2A01D8A12D03D2A4F1A80011
:1011A000012807D83A462946204600F03FF906EBC9
:1011B0004010F0BD3A462946204600F037F94C4928
:1011C00001EB4010F0BD0A2A0AD8A12D08D33A46F7
:1011D0002946204600F02AF900EBC0004549D5E732
:1011E0003A462946204600F021F900EBC00042496A
:1011F000CCE7A4F121025D2AE4D804EB840202EBDF
:10120000C40504EB840204EB041302EB441604EB64
:1012100084173E2952D018DC24295DD00BDC04EB66
:1012200044020C2938D010293CD018293ED020295E
:10123000C8D132483FE034293CD0362948D038293B
:10124000C0D12F4800EB4300F0BDDFF8B8C0A1EBE0
:101250000C02614524D00CDC792935D0B1F5801F12
:1012600014D0294A891813D0B1F5407FECD1274812
:101270000FE002F51952B2F5004221D0B2F54C6FE1
:1012800020D0B2F5225FDFD1214826E0214800E0DE
:10129000214800EBC400F0BD204800EB8200F0BD07
:1012A0001F4800E01F4800EB0410F0BD1E4800EB93
:1012B0000210F0BD1D4800EB8410F0BD1C4804E096
:1012C0001C48BFE71C4804E01C4800EB4500F0BD8B
:1012D0001B4800EB4600F0BD1A4800EB4700F0BD8C
:1012E00010AE47000E3D11000E4F1100DE4F1900E9
:1012F000DE671900DE432700DE7927008025100015
:1013000010C61000800D100000FDEFFF000510005A
:10131000807F100000FF0F00000210008007100007
:10132000800B10008013100080151000803D10000D
:10133000405A100000631000C06A100040BD100049
:1013400000CE100000E310000A4610B5054900EB7E
:101350004000182401EBC000214603F0DBFB2046CF
:1013600010BD000032AD47000A4610B5054900EB3C
:101370004000182401EBC000214603F0CBFB2046BF
:1013800010BD0000AAAD47000246002080290FD9F9
:101390000C2A07D0102A07D0182A07D0202A00D1FB
:1013A00080207047182070472020704748207047E1
:1013B0000C2A07D0102A05D0182A05D0202AF6D1E9
:1013C0004020704710207047302070472DE9F843C7
:1013D000804600270C4680209146B0EB142F0097E2
:1013E0000CD8260AE2B2002331464046FFF79CFEA5
:1013F0000546E2B20023314600970AE00023E1B23D
:101400001A464046FFF790FE00230546E1B21A4611
:1014100000974046FFF7B8FF044601464A46284673
:1014200003F078FBA0B2BDE8F883000030B50446B5
:101430000020354D7F290DD0A4F1A1050A2D0BD830
:10144000A12909D3C5EB051000EB451001EB4000C5
:10145000A1380FE0284630BDA4F1A805012D09D818
:101460007F2901D9491EC9B205EB450001EB4010A7
:1014700000F20E30A4F1B005472D0AD8A12908D3F7
:10148000C5EB051000EB451001EB400000F2AD206C
:1014900030BDA4F18105202D0ED240290CD37F2927
:1014A00001D9491EC9B2C5EB451000EB851001EB0F
:1014B000400041F67E510EE0AA2C0ED3A1290CD299
:1014C0007F2901D9491EC9B2AA3C04EB440001EBB3
:1014D000401043F23E51084430BD02EB8202812CA1
:1014E0000BD0822CF8D140F2EC40414301EB42009A
:1014F0001844A0F51A40BB3830BD3929FCD303EBA2
:10150000420044F69941E6E710AE470010B5064C9C
:10151000206001F018FB206801F0E0FA2068BDE8C7
:10152000104001F0D7BA00006000002000280BD066
:1015300041790079202808D0303800EB8000D02293
:1015400002EB40000844C0B270470020F5E70028D5
:1015500009D041780078303800EB8000D02202EBCF
:1015600040000844C0B27047002809D00179C07813
:10157000303800EB8000D02202EB40000844C0B2BB
:101580007047002816D08078632814D0622814D0C1
:10159000722814D0792814D06E2814D06C2814D056
:1015A000672814D0702814D0742814D0762814D04A
:1015B0000B20401C70470020FBE70120F9E70220C8
:1015C000F7E70420F5E70520F3E70620F1E7072019
:1015D000EFE70820EDE70920EBE70A20E9E700281C
:1015E00009D0C1798079303800EB8000D02202EB3D
:1015F00040000844C0B2704730B50D46044600F0C4
:101600001BF80C4B18802046FFF7BBFF9870204654
:10161000FFF78CFFD8702846FFF799FF187128460E
:10162000FFF7A2FF58712846FFF7D9FF98710148CC
:1016300030BD0000F4000020002815D0C179827A66
:10164000303901EB4103C3EBC11102EBC102017A56
:10165000407A6423594300EB800001EB40001044C2
:10166000A0F5A050D03880B27047000010B509A195
:101670000BA0FFF7C1FF0D4902884A8482788A7166
:10168000C278CA7102790A7242794A728079887284
:1016900010BD000031313A34333A353900000000D2
:1016A0004D61722032372032303139000000002085
:1016B0000B4A0C49904201D1088870470A4A90426F
:1016C00001D148887047094A904201D18888704703
:1016D000074A904201D1C888704700207047000037
:1016E00000380140580000200044004000480040FD
:1016F000004C00400A49884201D10A4870470A4913
:10170000884201D1094870470949884201D10948F6
:1017100070470949884201D1084870470020704746
:1017200000380140501C002000440040501D0020A3
:1017300000480040501E0020004C0040501F002078
:101740000B49884201D10B4870470B49884202D1AE
:101750000848143070470949884202D105482838A2
:1017600070470749884201D10648704700207047FA
:10177000003801405800024000440040004800404A
:10178000004C0040300402400B49884201D10B4814
:1017900070470B49884202D108483C3070470949DC
:1017A000884202D10548283870470749884201D14C
:1017B000064870470020704700380140440002404E
:1017C0000044004000480040004C004058040240E3
:1017D000FEE770477047704770477047AFF300806F
:1017E00002494AF6AA200860704700000030004015
:1017F00070B500220C8862F30F03012606FA02F589
:101800002C4207D0C2F10F0506FA05F143EA0105A3
:1018100065F30F03521C102AF0DB038070BD70B516
:1018200000220C7862F30703012606FA02F52C4227
:1018300007D0C2F1070506FA05F143EA010565F391
:101840000703521C082AF0DB037070BD81070CD11E
:101850006421B0FBF1F201FB120141B94FF4C871F0
:10186000B0FBF1F201FB120008B10020704701202B
:10187000704700002DE9F0434B4D97B0044601211D
:101880006860080200F018FD012140F2FD1000F030
:1018900037FD206810B1A188FFF712FB206910B155
:1018A000A18AFFF70DFBA06A10B1A18DFFF708FB1D
:1018B0003E4F4CF203713846FFF7DAFADFF8F0805A
:1018C0004FF680714046FFF7D3FA30213846FFF7D4
:1018D000CFFADFF8E090BE1431464846FFF7C8FA69
:1018E00008214046FFF7C4FA31464846FFF712FC8C
:1018F00002214046FFF70CFC10213846FFF70AFC96
:1019000020213846FFF706FC31464846FFF700FC29
:10191000642001F04DFF01200F9000200221CDE94D
:101920001001C906CDE914010621CDE9001012907D
:1019300013901021CDE90201049005900690CDE9A5
:10194000070609900A900C900FA80D900E9068461B
:10195000FFF7BEF901210620FFF7AAF968681649CA
:101960004166164981661649C166204601F0A4FB0E
:10197000B4F85010B4F85200814203D180F0FF0156
:10198000A4F850106868806F80474FF6FF7000F031
:1019900029F8A1882068FFF7BDFB04F1A800FFF734
:1019A000B5FD17B0BDE8F083E80000200014014049
:1019B0000018014000200140D5190008C519000891
:1019C000951D000802494968496D0880704700006C
:1019D000E800002002494968896D088070470000CE
:1019E000E800002002494968D1F898100847000033
:1019F000E8000020114812494FF0D843016001214E
:101A00008180104981628A1482850021016181826E
:101A100083650D4B43654FF6FF73A0F8523020F8F5
:101A2000501F0A4B01738365094BC365A0F8602002
:101A3000A0F87A100148FFF71DBF0000CC0100207C
:101A400000080140002001400000106C00380040F8
:101A5000000C014001F0ACBE38B5049C0094034C6E
:101A60006468D4F89440A04738BD0000E800002026
:101A7000FFF7ACBC2DE9F041C2B00F4680461E46D0
:101A800014464FF4807102A8FEF779FB002149ABA0
:101A900002A8489A02F0C2FB85B2082C08D00C2C90
:101AA00006D0102C04D0182C02D0202C00D02024DA
:101AB00002A9E8B2CDE90001334622463946404644
:101AC00000F00CF842B02846BDE8F08102494968B0
:101AD000A1F85200FFF786BFE80000202DE9FF4F74
:101AE000A3B00C46054617460026842102A8DDF85F
:101AF000C4B0FEF744FB4548406890F85C2030F8DD
:101B0000401F012A408806D0022A01D0032A02D0B1
:101B100081468A4673E08946824670E01BF806805B
:101B2000B8F1800F24D90BEB0600407840EA082179
:101B3000AAEB0700A84202DA0025E01984B2A9EB5B
:101B40000700A04201DA0024254602AA3846FFF722
:101B50008FFFC0B202A9CDE900013A4621462846CE
:101B6000269B00F009F9E819761C85B2F6B243E02D
:101B7000B8F10D0F1DD0B8F10A0F1AD0AAEB57001B
:101B8000A84202DA0025E01984B2A9EB0700A042BE
:101B900001DA0024254602AA41463846FFF768FFCD
:101BA000C0B20090B8F1090F17D0B8F1200F14D0CF
:101BB00017E00BEB060040780A2801D00D2801D170
:101BC000761CF6B2A9EB0700A04202DA00242546F3
:101BD00012E00025E01984B20EE002A80099FEF799
:101BE000CEFA02A801903A4621462846269B00F0EC
:101BF00049F805EB570085B200BF761CF6B2309865
:101C000086428BD327B0BDE8F08F0000E8000020AB
:101C1000F0B58BB00E4607461D461446202102A89B
:101C2000FEF7ADFA042C00D9042402A92046FFF7E0
:101C30008BFBC0B202A9CDE900012B460C22314634
:101C4000384600F099F80BB0F0BDF0B593B00E46F1
:101C500007461D461446402102A8FEF790FA032CC1
:101C600000D9032402A92046FFF77EFBC0B202A9D7
:101C7000CDE900012B460C223146384600F07CF8B5
:101C800013B0F0BD7CB5DDE90645CDE90045034C58
:101C90006468D4F8A040A0477CBD0000E8000020A4
:101CA0002DE9FF4FA3B00E46044615464FF000083D
:101CB000842102A8DDF8C8B0FEF761FA2D4840681B
:101CC00090F85C2030F8401F012A408806D0022A94
:101CD00001D0032A02D08246894645E08A468146E1
:101CE00042E0319887082FE0B8001BF80810001F69
:101CF000C14001F00F01092901D8303104E0A1F100
:101D00000A00052800D83731A9EB5500A04202DAB5
:101D10000024701986B2AAEB0500B04201DA002453
:101D2000264602AA2846FFF7A3FEC0B202A9CDE9C3
:101D300000012A4631462046269BFFF7A3FF04EB0D
:101D400055007F1E84B2FFB2002FCDD104EB5500A9
:101D500084B2A9EB0500A04202DA701986B2002411
:101D600008F1010000F0FF0830998845B9D327B089
:101D7000BDE8F08FE80000207CB5DDE90645CDE93F
:101D80000045034C6468D4F8A440A0477CBD000023
:101D9000E800002070B5064D0C4601466868426EAA
:101DA000084690476868826E2046BDE8704010473C
:101DB000E800002010B5FFF711FDBDE8104002F06B
:101DC00033B8FEE7704708B54FF4C06000F04EF836
:101DD00003208DF8000002208DF801008DF802002C
:101DE00001208DF80300684600F002F808BD0000ED
:101DF00070B50F25C2780178012652B31A4A1268CD
:101E0000447802F4E062C2F5E062120AC2F104030F
:101E1000D54082789C402A40224314018A07D30E81
:101E200021F0030202F1E0229C40D2F80054FF218D
:101E300099408D430C402543C2F80054007800F0CF
:101E40001F018E404009800000F1E020C0F80061D1
:101E500070BD01F01F0086404809800000F1E020BD
:101E6000C0F8806170BD00000CED00E0024908433D
:101E700002490860704700000000FA050CED00E020
:101E8000704700002DE9FF5F90B093460025E94AB6
:101E900010988946FF24811ADFF89CA3D3142E469C
:101EA000A8462F464FF4806C90427CD00CDCB0F1F9
:101EB000804F32D0E14940184AD0604564D0984202
:101EC0005BD1012108207FE0B1F5806F7FD0B1F5B3
:101ED0008E3F03D0B1F5923F4FD17BE00121C80284
:101EE00000F00EFA5FEA090007D0012809D00228A5
:101EF0000BD0B9F1030F71D10BE055464FF480744C
:101F00003AE055464FF4007436E055464FF480648D
:101F100032E055464FF400642EE00121084600F0FF
:101F2000D7F95FEA090007D0012808D0022809D0B4
:101F3000B9F1030F52D108E0554601241CE0554683
:101F4000022419E05546042416E05546082413E0FF
:101F50000121022000F0BCF95FEA090007D0012846
:101F600008D002280AD0B9F1030F37D109E055464D
:101F7000402401E05546802404262FE0B04D012482
:101F80001EE0AF4D02241BE00121042000F0A0F967
:101F90005FEA090009D001280AD002280BD0B9F164
:101FA000030F1BD10AE00DE011E0A54D402407E02E
:101FB000A34D802404E0A24DAC1501E0A04D6C15AA
:101FC00008260BE00121102000F082F906E0012133
:101FD0002020F9E70121480300F092F90121084689
:101FE00000F08EF90121304600F08AF9ADF830405A
:101FF00003208DF8320018208DF833000CA92846F4
:10200000FFF712F807A800F027FA8E4C10988E4DB3
:1020100084434EF660265A4600202946139BFEF75D
:10202000D2F98A4BCDE90D01FCB109982C468246C4
:1020300000221D460D98FEF773FA18D20022844B39
:1020400058461399FEF74DF904460D465046FEF7E3
:1020500040FA22462B46FEF7B6F9B04600227D4BE9
:10206000FEF7B1F900227C4B1FE00A98DEE7DDE9BC
:102070000D0123460022FEF753FA4FF0000217D25B
:102080002B4658461399FEF72CF904460D46504648
:10209000FEF71FFA22462B46FEF795F9B0460022BE
:1020A0006C4BFEF790F900226C4BFEF71AF949E0F1
:1020B0002646234658461399FEF732FA45D850462D
:1020C000FEF707FA5A46139BFEF77DF90122FEF749
:1020D000E9F904460D460022614BFEF721FA04D8C7
:1020E0004FF4FA6800225F4B28E000225E4B204646
:1020F0002946FEF715FA04D84FF0C8080022564BBF
:102100001CE00022594B20462946FEF709FA04D864
:102110004FF014080022514B10E00022544B20468F
:102120002946FEF7FDF905D84FF0020800224FF0CE
:10213000804303E04FF00108002233462046294641
:10214000FEF741F9FEF7D2F987B2A8F10100ADF828
:102150001000781EADF814000024ADF81640ADF85C
:10216000124004A9109801F0AFFC1E9847434FF4A9
:102170007A70874203D9B7FBF0F080B202E01E9874
:1021800008B101201E906020ADF800001E98ADF847
:1021900006000120ADF80200ADF808405FEA090032
:1021A00007D001280AD002280DD0B9F1030F13D1AE
:1021B0000EE06946109801F085FB0DE06946109825
:1021C00001F0B6FB08E06946109801F0FBFB03E064
:1021D0006946109801F03AFC0121109801F067FB64
:1021E0005FEA090007D001280AD002280DD0B9F112
:1021F000030F13D10EE00821109801F093FB0DE0BE
:102200000821109801F0D4FB08E00821109801F093
:1022100017FC03E00821109801F04AFC01211098F6
:1022200001F02CFB0121109801F036FB14B0BDE841
:10223000F09F0000001000400008014000FCFFBFBC
:10224000000C0140000001400000F03F000024406D
:1022500000005940004CED4000006940000034404F
:10226000D012634100409F4080842E41006AF840B4
:1022700040FFEF40014908627047000000000E4235
:102280007047000010B510210848FEF707FE4FF414
:1022900080610748FEF714FE06490120C1F8A80135
:1022A000BDE810404FF47A7001F082BA000C014092
:1022B000001C014000802342044A0029516901D0DA
:1022C000014300E08143516170470000001002406B
:1022D000044A0029D16901D0014300E08143D16162
:1022E0007047000000100240044A0029116901D023
:1022F000014300E08143116170470000001002407B
:10230000044A0029916901D0014300E081439161B1
:102310007047000000100240044A0029D16801D033
:10232000014300E08143D16070470000001002408B
:1023300001490860704700004004424270B5002423
:1023400000F06CF84FF48035284600F0F9F8681E6C
:102350002146641C8142FBD300F060F9012803D0C0
:10236000BDE8704000F025B81020FEF787FC022081
:10237000FEF790FC002000F0D9F8002000F01CF9D6
:102380004FF4806000F00EF94FF4E011284600F0A1
:1023900023F9012000F01AF9392000F0A7F80028ED
:1023A000FAD0022000F030F900F0B8F80828FBD18C
:1023B00070BD10B500F032F8012000F0DBF82020ED
:1023C00000F094F80028FAD0002000F0AFF80020C8
:1023D00000F0F2F84FF4806000F0E4F80220FEF71D
:1023E00059FC1020FEF74AFC4FF46011002000F069
:1023F000F3F8012000F0EAF802E0022000F004F90E
:10240000392000F073F80028F7D000F087F808288A
:10241000FBD1BDE81040FEF7B5BD00000B480168D8
:1024200041F0010101604168094A114041600168C1
:10243000084A11400160016821F48021016041686F
:1024400021F4FE01416000218160704700100240CC
:102450000000FFF8FFFFF6FE30B5204A5168204B20
:1024600011F00C0103D0042901D0082901D0036028
:1024700011E05168022301F4701103EB914153689C
:1024800013F4803F02D053689B0301D5154B00E045
:10249000134B5943016051680F2303EA1111124B8A
:1024A0005C5C0168E14041605468072505EA14243A
:1024B0001C5D21FA04F48460546805EAD4241B5D91
:1024C000D940C1605268032303EA9232064B1B1FB6
:1024D0009A5CB1FBF2F1016130BD000000100240D6
:1024E00000127A0000093D007C4B000803460020E2
:1024F0005909094A01290AD002290AD0516A03F070
:102500001F02012393400B4200D001207047116845
:10251000F5E7116AF3E70000001002400248406846
:1025200000F00C007047000000100240034A5168A0
:1025300021F0F0010143516070470000001002409B
:102540000B490A6822F480320A600A6822F4802269
:102550000A60B0F5803F07D0B0F5802F03D108683E
:1025600040F4A02008607047086840F48030F9E724
:10257000001002400149086070470000000042421C
:10258000704700000649002281F8202081F82020B1
:10259000012802D0042802D1052081F820007047CC
:1025A00000100240034A516821F4E0610143516088
:1025B0007047000000100240034A516821F4605146
:1025C00041EAC000506070470010024001490866AF
:1025D0007047000000004242034B5A68084322F44F
:1025E0007C12104358607047001002400149086097
:1025F000704700003C04424202490A6A02430A62F0
:102600007047000000100240034A516821F00301A6
:1026100001435160704700000010024030B50B4C80
:1026200040F2FF153120FFF761FF20706068401C09
:102630006060207810B96068A842F3D13120FFF7BC
:1026400055FF002800D0012030BD000044000020CC
:102650000648054901600649416002210181CA011D
:102660004FF4964100F029B800440040241C00209B
:10267000000801402DE9F0410668884604461746E7
:10268000002540F22441304601F051FB20B91021D1
:10269000304601F045FB68B14021206801F040FB65
:1026A00040B16168208908613A464146304601F0F0
:1026B0003DFD05462846BDE8F08170B50E4604464E
:1026C000018915464068FEF7FBFB61682089486177
:1026D0002A463146206801F03AFA21896068FEF7FF
:1026E000EFFB61682089486170BD70B50D460446F6
:1026F00000260068402101F013FB38B16168208991
:10270000486129462068FEF773F80646304670BDDA
:102710007047000002490A8882430A80704700001F
:102720000428004010B501214FF0C050FFF7D0FD44
:102730000120FFF79FFDFEF79DF80120FFF722FF24
:102740004120FFF7D3FE0028FAD04FF48070FFF746
:1027500053FF0120FFF74AFF00F0ACF900F0A2F9A7
:1027600048F2030000F08EF900F09CF901210846C0
:1027700000F0B4F800F096F900F09CF90121084649
:1027800000F0ACF800F08EF9FFF71DFBBDE810403B
:1027900000F010B80248018841F010010180704734
:1027A000042800400248018821F010010180704790
:1027B000042800402DE9F04700F060F8DFF8AC8015
:1027C0000546B0FBF8F32A482A4E018899422CD0DE
:1027D000038040F2B2744FF4B7774FF4B6790CE04F
:1027E0002046FFF733F820B1BB4208D3A3F5B773F7
:1027F00001E0A3F26D13641CA4B24B45F0D8B48081
:1028000000241D4F0BE0B088FFF720F808B1012C21
:1028100028D0385D984204D81B1A641CA4B21C2B23
:10282000F1D2641CB4715B1CF371B5FBF8F108FBC9
:1028300011504FF46161B0FBF1F23270B0FBF1F274
:1028400001FB12033C22B3FBF2F37370B0FBF1F314
:1028500001FB1300B0FBF2F102FB1100B07000208D
:10286000BDE8F0871D2BDCD31D3BD6E7805101006E
:102870004E000020301C00208C4B000803480088CC
:102880000249091F098840EA014070471C2800409E
:1028900006490988C2B21140044A121F1288024236
:1028A00002D009B101207047002070470428004081
:1028B00010B50120FFF7ECFF08B1FFF77BFF022006
:1028C000FFF7E6FF10B10220FFF724FF0520FFF716
:1028D00021FFBDE8104000F0E5B80000044A0029DF
:1028E000118801D0014300E081431180704700004E
:1028F0000028004030B51D4C87B0A0781C4DE97809
:10290000884230D0A08818B1A07908B1E079A8B980
:10291000FFF750FFA08818B1A07908B1E07968B935
:10292000FEF7A4FEA87A697A0930C0B2CDE900109A
:102930002B7AEA79A979688C00F036F8A078E870EB
:10294000A37862782178E0790DF10C0C8CE80F0007
:10295000A279A18807A08DE807000023202219464C
:102960001846FFF787F807B030BD0000301C002084
:1029700000000020525443CAB1D6D33A25302E3439
:1029800064C4EA25302E3264D4C225302E3264C8A5
:10299000D525302E3264CAB125302E3264B7D62503
:1029A000302E3264C3EB00002DE9F05F9A460546F5
:1029B0000023A0F2B270DDF828B091468846822844
:1029C00002D30120BDE8F09F40F2B274214E224FA5
:1029D00008E02046FEF73AFF08B1334400E03B44EC
:1029E000641CA4B2AC42F4D3A8F10100C6B2002426
:1029F0001A4FDFF86C800EE0385D40F2A3214843A7
:102A000003EBC0132846FEF721FF10B1012C00D1C3
:102A10004344641CA4B2B442EED340F2A32109FBA8
:102A200001F00F4903EBC01049420144CAEB4A12BE
:102A3000C2EB0A2001EB0011CBEB0B1001EB800085
:102A40000B99084400F00EF800F02CF8FFF7B2FEE6
:102A50000020B7E70085E2018033E1018C4B0008DC
:102A60008051010000B50246FFF794FE0449100CA6
:102A70000880081D02805DF804EBFFF793BE00009C
:102A80001828004000B50246FFF784FE0449C2F34F
:102A900003400880081D02805DF804EBFFF782BE4A
:102AA00008280040024801888906FCD570470000CC
:102AB000042800400448018821F0080101800188B1
:102AC0000907FCD570470000042800407047704794
:102AD000704770470189406801617047018940680B
:102AE000416170470029018802D041F0400101E0B6
:102AF00021F04001018070470246002012890A42FD
:102B000000D001207047808970478181704730B5BF
:102B100002884C8802F441530A88CD8822438C886D
:102B20002C4322430C8922434C8922438C89224323
:102B3000CC8922431A430280828B22F40062828372
:102B4000098A018230BD10B5044600F007F82189DA
:102B50006068BDE81040FEF7B3B900002DE9F0430E
:102B6000044600685849DFF8648187B040184FF088
:102B700018054FF0030617D0DFF85491B0F5806FB9
:102B80002CD0B0F5784F23D101210803FFF7B8FB13
:102B900001210520FFF7B4FBF020ADF800008DF80F
:102BA00003508DF8026033E001218803FFF790FBAA
:102BB00001210920FFF7A4FB4FF47040ADF800009D
:102BC0008DF802608DF8035069464046FEF72CFAF6
:102BD000618C01B3012008291ED11FE00121CF0320
:102BE0003846FFF775FB01210D20FFF789FB3820E0
:102BF000ADF800008DF802608DF80350694640463C
:102C0000FEF712FAADF800708DF802608DF80350EF
:102C100069464846DAE70020012200E00022104021
:102C2000102901D0012200E000221040182901D013
:102C3000012200E000221040202901D0012200E002
:102C400000221040282901D0012200E0002210407B
:102C5000302901D0012200E000221040382901D0A3
:102C6000012100E0002108424FF0000100D0618402
:102C7000ADF804104FF48270ADF80600ADF80810FE
:102C80000220ADF80A000120ADF80C000720ADF8D5
:102C90001400ADF812104FF40070ADF80E00608C07
:102CA000ADF8100001A92068FFF731FF2068018806
:102CB000890502D4012100F03DF801212068FFF7C9
:102CC00011FF07B0BDE8F08300C8FFBF000C014052
:102CD000000801402DE9F0410F460446002541F26D
:102CE000883603E06D1CADB2B5420FD802212068D2
:102CF000FFF702FF0028F5D039462068FFF705FFEF
:102D0000002506E06D1CADB2B54202D90020BDE839
:102D1000F08101212068FFF7EFFE0028F2D080212A
:102D20002068FFF7E9FE0128F9D02068FFF7EBFEE5
:102D3000C0B2ECE70029818802D041F0040101E033
:102D400021F004018180704738B505460D480168BF
:102D500091F85C0031F8404F4B885B1E641E58B1FF
:102D6000012801D0022807D000209AB20146A3B260
:102D7000009500F075F938BD0020A2B201469BB263
:102D8000F6E70000E40000202DE9FF4F85B0814602
:102D90000024154603208846A0EB4506129FE0E07C
:102DA0000898002879D0A8EB040AA9EB050B1FFAB4
:102DB0008AF31FFA8BF241464846009700F0E1F88B
:102DC00009EB050082B202901FFA8AF34146009790
:102DD000484600F0D6F808EB0500CDE9007083B254
:102DE000A9EB040082B203904146484600F0C9F8BE
:102DF0001FFA8AF31FFA8BF241464846009700F00B
:102E0000C0F80398A8EB050A82B21FFA8AF300976C
:102E10004146484600F0B5F808EB040083B2039041
:102E20000298009782B24146484600F0AAF81FFA7D
:102E30008AF309EB040A1FFA8AF2414648460097D2
:102E400000F09FF80198009783B21FFA8AF241467A
:102E5000484600F096F80398009783B21FFA8BF269
:102E60004146484600F08DF8641C002E03DA06EB5C
:102E70008406B61D04E0601B06EB80066D1E0A3654
:102E800008EB050083B209EB040082B241464846D4
:102E9000009700F076F864E0FFE7A8EB040BA9EBDD
:102EA000050A1FFA8BF11FFA8AF03A4600F05FF824
:102EB00009EB050001901FFA8BF180B23A4600F051
:102EC00056F808EB050081B20090A9EB04000290CF
:102ED00080B23A4600F04BF81FFA8BF11FFA8AF0E5
:102EE0003A4600F044F80298A8EB050B1FFA8BF164
:102EF00080B23A4600F03BF808EB040081B2029041
:102F000001983A4680B200F032F81FFA8BF109EBD3
:102F1000040B1FFA8BF03A4600F029F800983A4665
:102F200081B21FFA8BF000F022F802983A4681B283
:102F30001FFA8AF000F01BF8641C002E03DA06EB7F
:102F40008406B61D04E0601B06EB80066D1E0A3683
:102F500008EB050081B209EB040080B23A4600F0AC
:102F600006F8AC427FF71CAF09B0BDE8F08F07B59B
:102F70000B46024600F0FAF9012102A800F05CFBC2
:102F80000EBD2DE9FE4F0026A2EB000882465F1A17
:102F9000701E35468946B8F1000F02DD4FF0010181
:102FA00002E003D14FF00001019102E0C8F10008F6
:102FB0000190002F02DD4FF0010002E003D14FF03D
:102FC0000000009002E0C7F1000700904046B845BD
:102FD00001DD044600E03C46601C4FF0000B02900F
:102FE00016E01FFA89F11FFA8AF00C9AFFF7BFFF6B
:102FF00046443D44A64202DD0199361B8A44A5425F
:1030000002DD00992D1B89440BF101001FFA80FBA2
:1030100002998B45E5DBBDE8FE8F2DE9F8431646A6
:10302000089C1D460F46804602460094FFF7A9FF04
:103030003B463246194640460094FFF7A2FF32460F
:103040002B46394610460094FFF79BFF2B4632462D
:10305000194640460094FFF794FFBDE8F88300004E
:103060002DE9F0471C4690460E468146DDF820A02B
:1030700000F07CF90F4F3868416E2C208847386883
:10308000818D806A41610025A61BA8EB090809E033
:10309000002404E03868816E50468847641CA642CC
:1030A000F8D26D1CA845F3D23868818D806A016121
:1030B000BDE8F087E400002010B5002843D0224C82
:1030C0002060B0F85020B0F852108A4204D14FF678
:1030D000FF725140A0F850104FF4487120F8401F83
:1030E0004FF4F0714180194901621949816319490E
:1030F000016419494164194981641949C164194934
:10310000016519494165194981651949C16519491F
:10311000016619494166416A403809B91749416653
:10312000816E09B916498166C16E09B91549C16632
:1031300000F03CF82068B0F85200FFF705FE206868
:1031400081880068016110BDE40000206D33000833
:10315000AD310008893100086F2F0008832F000867
:10316000892D00081B30000861300008492D000837
:103170005D3300088D3400084535000875360008B9
:103180001D3600081936000808B50020064B024617
:10319000009003211803FEF775FE0021BDE80840EA
:1031A000102000F039BA00000000144010B56A4C3D
:1031B0002068826A818D5161416EE22088472068D3
:1031C000816E232088472068816E0120884720680F
:1031D000816E042088472068416EE020884720687F
:1031E000816E012088472068416EE0208847206872
:1031F000816E032088470A20FEF72CFC2068416E70
:10320000012088472068416EE62088472068816E4B
:10321000032088472068816EFF2088472068816EE0
:10322000FF2088472068416EB02088472068816E63
:10323000002088472068816E002088472068816EC2
:10324000032088472068816E1F2088472068816E90
:10325000012088472068816EDF2088472068816EC2
:10326000002088472068416EB42088472068816E1E
:10327000032088472068816EA02088472068816EDF
:10328000002088472068816E2E2088472068816E44
:10329000302088472068816E002088472068816E32
:1032A0000F2088472068816E002088472068416E83
:1032B000B62088472068816E022088472068816E8A
:1032C0000D2088472068816E002088472068816E25
:1032D000102088472068816E102088472068816E02
:1032E000002088472068816E082088472068416E4A
:1032F000B82088472068816E072088472068816E43
:10330000012088472068416EBA2088472068816E76
:10331000052088472068416E362088472068816EE6
:10332000002088472068416EF02088472068816E21
:10333000032088472068416E292088472068416E15
:10334000D02088472068816E0D2088472068818DB5
:10335000806A016110BD0000E40000200249096894
:10336000A1F85200FFF7F0BCE40000202DE9F04185
:10337000444E346894F85C70B4F840C0B4F84250DD
:10338000002F56D0012F5DD0022F68D024F8441FA3
:1033900022256380A080E280238160813A4C2068EE
:1033A000416E2A20884730682168B0F84400896E51
:1033B000000A884721683068896EB0F84400884761
:1033C00030682168B0F84600896E000A8847216895
:1033D0003068896EB0F8460088472068416E2B201F
:1033E000884730682168B0F84800896E000A88472D
:1033F00021683068896EB0F84800884730682168D5
:10340000B0F84A00896E000A884721683068896EE2
:10341000B0F84A0088472068416E36208847206807
:10342000816E284688472068416EBDE8F0412C2017
:10343000084724F8440F00256280A180E3802081A2
:103440006181ABE7AA1A24F8441F521E281A638030
:10345000401EA280E08021816081A0259EE7ACEB28
:103460000202521E24F8442FACEB0000401EEA1A60
:10347000521E691A6080491EA280E180208161810C
:10348000C0258BE7EC000020E40000202DE9F05F70
:1034900090461E46DDE90ABA00EB580201EB08032C
:1034A000521E5B1E002492B29BB2FFF75FFF244DB9
:1034B0002868416E2C2088472868818D806A416188
:1034C000A94634E01AF804700025380601D53046C4
:1034D00003E0D9F80000B0F85200D9F80010896E66
:1034E000884778066D1C070EEDB2082DEDD3B8F1B4
:1034F000180F02D0B8F10C0F17D10AEB0400002509
:103500004778380601D5304603E0D9F80000B0F816
:103510005200D9F80010896E884778066D1C070E96
:10352000EDB2042DEDD3641CE4B2641CE4B25C453E
:10353000C8D3D9F80000818D806A0161BDE8F09F91
:10354000E40000202DE9F05F91461E46DDE90ABA4D
:1035500000EB090201EB0903521E5B1E002492B22C
:103560009BB2FFF703FF234D2868416E2C2088474C
:103570002868818D806A4161A84631E01AF804709C
:103580000025380601D5304603E0D8F80000B0F831
:103590005200D8F80010896E884778066D1C070E17
:1035A000EDB2082DEDD3B9F10C0F17D10AEB0400E1
:1035B00000254778380601D5304603E0D8F80000EA
:1035C000B0F85200D8F80010896E884778066D1C54
:1035D000070EEDB2042DEDD3641CE4B2641CE4B21A
:1035E0005C45CBD3D8F80000818D806A0161BDE8CD
:1035F000F09F0000E400002010B5064C21688A8B83
:1036000089694A6100F00AF82068818B806901614C
:1036100010BD0000E400002000F03CB80549096836
:103620000B6A8A8C5A618A6BD060888C096A08613F
:1036300070470000E40000202DE9F0410C4D0746E2
:103640000E4628680024826A818D5161416E3C20BB
:10365000884705E0296837F81400896E8847641C9C
:10366000B442F7D32868818D806A0161BDE8F0819A
:10367000E400002010B5064C21688A8D896A4A61F1
:10368000FFF7BAFF2068818D806A016110BD0000DC
:10369000E400002030B5094C0D4603462268916ACB
:1036A000908D48611846FFF7A7FF2846FFF7B6FF41
:1036B0002068818D806A016130BD0000E400002037
:1036C0007047FEF73BBE000010B54FF4807301B9A0
:1036D0001946154C154AA04206D1994201D91380CA
:1036E00000E01180108810BD114CA04206D1994213
:1036F00001D9538000E05180508810BD0D4CA0428C
:1037000006D1994201D9938000E09180908810BD44
:10371000094CA04206D1994201D9D38000E0D18062
:10372000D08810BD002010BD003801405800002096
:103730000044004000480040004C0040704700F04A
:103740006BB8000010B504002BD01648FEF784FEBD
:103750004FF0E021086920F002000861086920F0BC
:1037600001000861086920F0040008610D480E4A54
:103770000068B0FBF2F060434861086940F0020065
:103780000861086940F0010008610020886108694B
:1037900040F0020008614A6904480260096989B280
:1037A000416010BD3C1C002000127A005000002037
:1037B00010B504002BD01648FEF74EFE4FF0E02067
:1037C000016921F002010161016921F0010101613A
:1037D000016921F0040101610D494FF4FA520968B1
:1037E000B1FBF2F14161016941F001010161002287
:1037F000826181690029FCD081690029FCD1641EA5
:10380000F7D104490B68436182614968016110BDC9
:103810003C1C00205000002000F0F7BC70477047AF
:103820007047704710B500F04DF9BDE81040012118
:10383000014800F02EB80000002C014010B500F047
:1038400041F90121BDE81040880700F022B80000CE
:1038500010B500F037F9BDE810400121014800F033
:1038600018B800000004004000F02CB97047704701
:10387000704770477047704700F024B900290188ED
:1038800002D041F0800102E040F27F32114001801D
:103890007047C943018270470029018802D041F076
:1038A000010102E040F2FE32114001807047002920
:1038B00030F8441F02D041F4004101E0C1F30E0191
:1038C0000180704730B5028C22F001020284028C24
:1038D0008388048B22F0020224F070050C882C43AC
:1038E0000D8915434A882A43CD8885860B4DA84209
:1038F00002D00B4DA8420DD122F008054A8923F4CD
:1039000003432A4322F004058A882A438D891D43F4
:10391000CB892B4383800483028430BD002C01407B
:1039200000340140028B22F008020A4302837047F0
:1039300070B5028C22F010020284028C8388048B02
:103940000D8824F4E0464FF6FF7404EA052535435C
:103950000E8922F0200204EA061616434A8804EA79
:1039600002123243CE8806870F4EB04202D00F4E6D
:10397000B04215D122F080064A8923F40C4304EAB0
:103980000212324322F040068A8804EA02123243CD
:103990008E89C98904EA86061E4304EA81033343FB
:1039A00083800583028470BD002C014000340140F7
:1039B000028B4FF6FF7322F4006203EA01211143E8
:1039C0000183704770B5028C22F480720284028CED
:1039D0008388848B0D8824F0700425430E894FF66C
:1039E000FF7422F4007204EA062616434A8804EAA9
:1039F00002223243CE8886870F4EB04202D00F4E4D
:103A0000B04215D122F400664A8923F4304304EA17
:103A10000222324322F480668A8804EA0222324378
:103A20008E89C98904EA06161E4304EA011333434A
:103A300083808583028470BD002C014000340140E6
:103A4000828B22F008020A438283704770B5028C91
:103A500022F480520284058C8288838B0C8823F4A4
:103A6000E0464FF6FF7303EA042434430E8925F43D
:103A7000005503EA06362E434D8803EA05353543E3
:103A8000CE88A0F84060084EB04202D0074EB04247
:103A900005D18989C2F30D0603EA8112324382807F
:103AA0008483058470BD0000002C01400034014077
:103AB000828B4FF6FF7322F4006203EA0121114367
:103AC0008183704700F0A1BB028802F08F02028060
:103AD000CA884B881A4303881A4302808A888285E1
:103AE0000A88028501228282044A904202D0044A56
:103AF000904201D1097A018670470000002C0140F4
:103B00000034014000F081BB00F07FBB00F07DBBC2
:103B100000F07BBB00F079BBC943018070470A0A03
:103B200001219140C943018070470029818902D059
:103B300041F4005101E021F4005181817047002AD5
:103B4000828A01D00A4300E08A43828270477FB5AF
:103B500016460C46054600F05FF8284600F026F8A9
:103B60000021ADF80810ADF804100C20ADF80610D7
:103B7000ADF80A00ADF80C1000946946284600F034
:103B80000DF940F2244400222146284600F0EEF8C8
:103B900021462846FFF7C3FF01212846FFF7C5FF4E
:103BA0003146284600F028FA7FBD0000184A10B5BB
:103BB000811A131590421BD007DC1649401814D007
:103BC000984223D10121040217E0994213D0B1F5A4
:103BD0006C4F1BD101218C032046FEF79DFB204634
:103BE000BDE810400021FEF797BB01214C0404E022
:103BF0000121CC0401E001210C052046FEF774FBF5
:103C00002046BDE810400021FEF76EBB10BD00004D
:103C1000004C004000BCFFBF2DE9F8430025394AA5
:103C2000DFF8E4C0811ADFF8E48013152C462F4634
:103C30002E464FF4006990424ED019DC34494018AA
:103C40003FD0984226D1334F01213E461D464C4677
:103C50000846FEF755FB01212F48FDF735FA0121F3
:103C60000820FEF74DFB01218804FEF731FB11E02F
:103C700099423CD0B1F56C4F0CD1674666464FF483
:103C800000751C4601210520FEF73AFB012188033F
:103C9000FEF736FBADF8005018208DF80300032026
:103CA0008DF8020069463846FDF7BEF9ADF80040D0
:103CB00048208DF8030069463046FDF7B5F9BDE8A8
:103CC000F883042567466646082401212846FEF746
:103CD00017FB01214804C8E7474646461D464C46A7
:103CE00001211120FEF70CFB0121C804BDE7474666
:103CF0000A4E1D46042401213120FEF701FB01215B
:103D00000805B2E7004C00400008014000100140E7
:103D100000BCFFBF000C0140000230000014014055
:103D20000246002012880A4200D00120704770B578
:103D300001F01F0501260024C1F3421306FA05F223
:103D4000012B0FD0022B0FD0838A4FEA112100885C
:103D5000134206FA01F600EA060001D000B1012480
:103D6000204670BD8389F0E7038AEEE710B5C1F302
:103D7000421301F01F040121A140012B07D0022BA7
:103D800007D01430002A026805D00A4304E00C3042
:103D9000F8E71030F6E78A43026010BD30B50446FC
:103DA000008A85B00D464CF6FF710840E988014352
:103DB0002182A0894EF6F3110840A9882A8911436F
:103DC0006A8902431143A181A08A4FF6FF4108404E
:103DD000A9890143A1826846FEF73EFB114884424F
:103DE00001D1039800E00298642200EBC00101EBCE
:103DF000001029686FF018058900B0FBF1F0B0FBE6
:103E0000F2F109010B096B4300EB8300322303EB52
:103E10000010B0FBF2F000F00F000843208105B065
:103E200030BD000000380140704700002DE9FE4F12
:103E300067496848FCF7DCFCDFF89CB1674D04007B
:103E40004FF008094FF01F0A4FF020064FF4784852
:103E500046D05F49024601F58070FCF777F90BF513
:103E60003577781C7978491CFCF710FDA8837A789F
:103E7000B91C11442246088039465948FCF7B5FC64
:103E8000224639465748FEF7F5FBE1B2CDE9001965
:103E900002972B8A1022A9890020FDF701FF21201B
:103EA000B4FBF0F0A98901EB0010103080B2A881BA
:103EB0002A8A424502D1A5F810A001E0A5F8108099
:103EC000B0F5EF7F0CD9BBF8520000904FF4F073BF
:103ED0004FF4487220210020FDF7BEFDAE81EE8137
:103EE00041493F48FCF784FC3B4F040007F1D407ED
:103EF0002ED002463C493846FCF728F9224639467E
:103F00003448FCF772FCE1B2CDE9001902976B8AE4
:103F10001022E9890020FDF7C3FEE889103080B245
:103F2000E881B0F5EF7F13D9698A414502D0A5F841
:103F3000128001E0A5F812A0BBF8520000904FF4E7
:103F4000F0734FF4487220210020FDF785FDEE81CB
:103F500026492448FEF7C9FB040036D0234902460F
:103F6000A1F58060FCF7F2F81B492246D4311948CC
:103F7000FCF73BFCE0B2CDE9000902972B8A102246
:103F8000A9890020FDF78CFE2120B4FBF0F0A9895F
:103F900001EB0010103080B2A8812A8A424502D17C
:103FA000A5F810A001E0A5F81080B0F5EF7F0CD9BE
:103FB000BBF8520000904FF4F0734FF44872202188
:103FC0000020FDF749FDAE81EE81BDE8FE8F0000C7
:103FD000A003002000380140CC0100200000002098
:103FE00000480040241C0020A0050020A00600205E
:103FF000704770477047FEE72DE9F04F8DB00C46D3
:104000000546FDF777FB064621462846FFF75CFB91
:1040100080462846FDF7B8FB0B902846FDF790FB3D
:104020008146002E6AD00B98002867D0B9F1000FA6
:1040300064D03948291A021585420ED005DC37486C
:10404000281807D090420CD104E0914256D0B1F527
:104050006C4F06D10121084601E001210220FEF744
:104060002BF92F1D00240097CDE903844FF0800A1F
:10407000CDE905A44FF4005BCDE9084B102007946F
:104080000A94CDE9016069460B98FCF79BFC009708
:10409000CDE90164CDE90384CDE905A4CDE9084B60
:1040A0000794694648460A94FCF78CFC00210B985B
:1040B000FCF766FC01214846FCF762FC0122402126
:1040C0002846FFF73CFD012280212846FFF737FDF7
:1040D000002202210B98FCF76DFC2846FCF70CFC33
:1040E0000F48854202D14FF4803005E00B48404232
:1040F000854206D14FF48010FCF736FC0DB0BDE8C8
:10410000F08F0848854201D18015F5E702488542C5
:10411000F4D10548F0E70000004C004000BCFFBFB0
:104120000038014000480040000100102DE9F04730
:10413000DFF89C9090468A460646484501D1254DB9
:104140000FE025498E4201D1244D0AE024498E42D8
:1041500001D1244D05E024498E4201D1234D00E0D8
:1041600000253046FDF7A4FA07463046FDF70CFB64
:1041700004461F4886420FD075B14046474500D9D6
:104180000746606810B12068C00705D1402130465D
:10419000FFF7C6FD012802D00020BDE8F0873A46AF
:1041A00051462846FBF7D2FF40214846FFF7B4FCB2
:1041B000206820F0010020603046FCF79DFB67601E
:1041C000E560206840F0010020603846E5E7000027
:1041D00000380140502000200044004050210020C1
:1041E0000048004050220020004C00405023002096
:1041F0000050004010B5FDF7ECFAFFF79FFAFCF70E
:104200003FFCBDE81040FCF7A5BA10B5FDF7D2FDA4
:10421000BDE81040FCF7E2BA704700007CB5491ECB
:104220001C461546CDE90001044B6A462146284646
:1042300000F0C8F8009A002111707CBDF34A000814
:1042400002E008C8121F08C1002AFAD1704770475F
:10425000002001E001C1121F002AFBD170470000BD
:104260002DE9FF5FDDE90220010DDDF838B00243E2
:1042700018D044F61050A1F2FF3141430D140F98AD
:10428000012820D0A5EB0B00401C5FEA000A4FF08C
:104290000004474EDFF81C91A046504616D5CAF1DF
:1042A000000728E00F98012443A2012808D000212C
:1042B00000980F9BC0E90021C0E90243BDE8FF9FC1
:1042C0006FEA0B01F4E7CBF10000DEE7074612E0EE
:1042D000F80707D02246334640464946FCF701F826
:1042E000804689462246334610461946FBF7F9FFB9
:1042F00004460E467F10002FEAD1DDE90201BAF133
:10430000000F42464B4602DAFBF7EBFF01E0FCF7F9
:104310005AF804460E460022284BFCF701F903D850
:104320004FF0FF30014607E00022254B2046314682
:10433000FBF730FFFCF7E1F9102409E0002C0ADB61
:104340000A220023FCF71AF9019B30321A55641E29
:1043500050EA0102F2D1641C019AC4F11103144421
:104360000F9A012A03D0012208430DD10AE0084325
:1043700004D000204FF0110B0F9080E7A3EB0B054A
:104380006D1E0DE05B4504DD4FF0000205F10105F7
:1043900004E003DA4FF00002A5F10105002AECD099
:1043A00000980F99C0E90231C0E9004586E7000096
:1043B000000024400000F03F300000000000F04307
:1043C0000000E03F2DE9FF4F95B09B468946064629
:1043D00000250FE2252877D100242746F84A01213D
:1043E000059400E0044316F8013F203B01FA03F076
:1043F0001042F7D130782A2811D06FF02F0330788F
:10440000A0F13002092A16D8059A44F0020402EB02
:10441000820203EB42021044761C0590EFE759F844
:10442000042B0592002A03DA504244F4005405900C
:1044300044F00204761C30782E2816D116F8010FAD
:1044400044F004042A280DD06FF02F023078A0F138
:104450003003092B09D807EB870302EB4303C71886
:10446000761CF3E759F8047B761C30786C280FD063
:1044700006DC4C2817D068280DD06A2814D104E037
:10448000742810D07A280FD10DE044F400140AE00B
:1044900044F4801401E044F440147278824202D162
:1044A00004F58014761C761C307866280BD013DC5B
:1044B000582877D009DC002875D04528F6D0462842
:1044C000F4D047281AD19DE118E0632835D064283C
:1044D00079D0652812D195E1702873D008DC67285F
:1044E000F1D069286FD06E280DD06F2806D1B5E0C5
:1044F00073282CD0752875D0782874D05A4617990F
:1045000090476D1C75E1C4F30250022809D00328BE
:104510000DD0D9F8001004280DD00D6009F1040960
:1045200067E1D9F80010EA17C1E90052F6E7D9F8B7
:1045300000100D80F2E70D70F0E719F8041B8DF8FC
:10454000001000208DF80100EA46012003E059F830
:1045500004AB4FF0FF3061074FF0000102D40DE0D3
:1045600008F101018846B9420FDA8045F8DB1AF8F4
:1045700008100029F4D108E008F1010188468142C1
:10458000FADB1AF808100029F6D105985B46A0EB73
:10459000080721463846179A00F094FA284400EBA1
:1045A000080507E04DE029E10DE01AF8010B5A4635
:1045B00017999047B8F10108F7D25B462146384673
:1045C000179A13E142E00A220092C4F302524FF01C
:1045D000000A022A08D059F804CB032A4FEAEC71EA
:1045E0000AD00DE029E02AE009F1070121F00702D5
:1045F000F2E802C1914609E00FFA8CFC4FEAEC7137
:10460000042A03D14FFA8CFC4FEAEC71002907DA37
:104610000A460021DCF1000C61EB02012D2202E0D0
:10462000220504D52B228DF80420012203E0E207A5
:1046300001D02022F7E7904659E00A2102E010223B
:104640000DE010214FF0000A00910BE010224FF016
:10465000000A44F004040827009203E008224FF007
:10466000000A0092C4F30252022A05D059F804CB82
:104670000021032A08D009E009F1070121F007020F
:10468000F2E802C1914605E01FFA8CFC042A01D130
:104690000CF0FF0C4FF00008220728D5702806D038
:1046A000009B83F0100353EA0A0305D00EE040227A
:1046B0008DF80420012208E05CEA010206D03022D5
:1046C0008DF804208DF8050002229046009B83F0AF
:1046D000080353EA0A030AD15CEA010201D1620726
:1046E00005D530228DF804204FF001087F1E582890
:1046F00004D034A003900EA802900DE036A0F9E794
:1047000053466046009AFBF739FF84460398825C63
:104710000298401E029002705CEA0100F0D10298FB
:1047200006A9081A00F1200A600702D524F4803493
:1047300000E00127574502DDA7EB0A0000E000205A
:1047400000EB0A01009005984144401A0590E003EF
:1047500006D45B462146179A059800F0B3F9054444
:10476000002706E001A85A46C05D179990476D1CC6
:104770007F1C4745F6DBE0030CD55B462146179AC4
:10478000059800F09FF9054404E030205A46179937
:1047900090476D1C0099481E00900029F5DC08E048
:1047A000029802995A460078491C0291179990473D
:1047B0006D1CBAF10001AAF1010AF1DC65E100000B
:1047C00009280100303132333435363738396162E7
:1047D00063646566000000003031323334353637AB
:1047E00038394142434445460000000000F058F982
:1047F0000544761C307800287FF4ECAD19B02846CB
:10480000BDE8F08F620700D4062709F1070222F005
:10481000070CFCE80223E14603F000485FEA080CBD
:1048200002D00FF2702C0DE05FEA045C02D50FF2AB
:10483000682C07E05FEAC47C02D00FF2602C01E034
:10484000AFF2700C4FF0FF3823F00043CDF850C0AA
:1048500065280CD006DC452809D046281DD04728FD
:104860003DD13DE0662818D067287ED138E0002190
:10487000112F01DB112000E0781CCDE9000106A911
:104880000EA8FFF7EDFCDDE90F010E9A0391002160
:10489000009207F1010A04914DE04FF000400097AB
:1048A000CDE9011006A90EA8FFF7DAFCDDE90F0239
:1048B00003920E9B11990022DDF80CA00093049244
:1048C00011B9791C00EB010AB7EB0A0004D4C0F15E
:1048D000FF3007F1010A0490AAEB0700019044E0C1
:1048E000012F00DA01270021112F01DD112000E046
:1048F0003846CDE9000106A90EA8FFF7B1FCDDE9B5
:104900000F010E9A0391002104910092BA462107EB
:104910000CD40399514500DA8A46BAF1010F05DD3E
:10492000009AAAF10101515C302908D0B84202DA9C
:1049300010F1040F06DA0121CDE9011015E0AAF10A
:104940000101E9E7002805DC049901440491AAEB80
:10495000000102E0411C514500DD8A460499401ADD
:10496000401C01904FF000400290200704D40198B1
:10497000504501DBCDF8048000208DF84F000298EF
:104980000DF14F07B0F1004F25D02B200E9002986B
:104990004FF0020800280CDA404202902D200E90C1
:1049A00007E00A210298FBF7D3FD3031029007F8A7
:1049B000011DB8F10001A8F10108F2DC02980028FD
:1049C000EFD1791E0E980870307800F0200040F08A
:1049D000450007F8020D12A8C01B00F10708149843
:1049E000007800B1012000EB0A01019801EBE071B1
:1049F00005984144401A401E0590E00306D45B46EA
:104A00002146179A059800F05DF80544149800783F
:104A100018B15A46179990476D1CE00324D55B46A0
:104A20002146179A059800F04DF805441CE00498BB
:104A3000002807DBDDE90301884203DD0098405CC4
:104A4000179901E0179930205A469047049805F1CC
:104A50000105401C04900198401E019004D12E20B5
:104A60005A46179990476D1CBAF10001AAF1010A44
:104A7000DDDC05E017F8010B5A46179990476D1CCD
:104A8000B8F10001A8F10108F4DC5B462146179A51
:104A90000598ABE62D0000002B0000002000000070
:104AA0002DE9F041044600251E461746880404D42B
:104AB00005E039462020B0476D1C641EF9D5284614
:104AC000BDE8F0812DE9F041044600251E469046E0
:104AD000C80301D5302700E02027880404D505E06D
:104AE00041463846B0476D1C641EF9D52846BDE8DE
:104AF000F0814A68002A06D00A68531C0B601070C7
:104B00004868401E48607047FFF774FBFDF752F994
:104B1000FCE700002DE9F047164E804691460F460F
:104B200000243068FDF7DAFF4546032040EA1561AE
:104B30003068FEF7CFF8C5F307413068FEF7CAF8D2
:104B4000C5F307213068FEF7C5F8E9B23068FEF713
:104B5000C1F806E0FF213068FEF7BCF809F8040050
:104B6000641CBC42F6D33068FDF7B4FFB8B2BDE8B0
:104B7000F08700006000002002040608000000002A
:104B80000102030401020304060708091F1C1F1E7B
:104B90001F1E1F1F1E1F1E1FB84B000800000020F5
:104BA000FC00000040420008B44C0008FC0000205B
:104BB00054270000504200080000000000000000E0
:104BC000000000002000200000F800F800000000B5
:104BD00000000000000000000000000000000000D5
:104BE0007E0903010101010157295184F37F7E09E8
:104BF000030101010100000000C4F67F0000000075
:104C000000000000000000000000000000000000A4
:104C1000000000000000000000000000FF00000095
:104C20000000000000000000000000000000000084
:104C30000000000000000000000000000000000074
:104C40000000000000000000000000000000000064
:104C5000000000000000000000000000FF00000055
:104C60000000000000000000000000000000000044
:104C70000000000000000000000000000000000034
:104C80000000000000000000000000000000000024
:104C90000000000000000000000000000000000014
:104CA0000000000000000000000000000000000004
:044CB0000000000000
:0400000508000131BD
:00000001FF
