:020000040800F2
:10000000100400204501000807050008A9040008A5
:100010000505000875010008310700080000000010
:10002000000000000000000000000000650600085D
:100030008F020008000000000B0500086906000898
:100040004707000809050008710600082106000896
:10005000A50400080D050008910200089902000897
:100060009D020008A1020008A50200087B0100080B
:100070007F01000883010008870100088B01000848
:100080008F01000893010008710100082D07000886
:100090002F0700087701000879010008A90200086D
:1000A0007306000879060008770600087506000840
:1000B00091060008A5060008BD060008AF04000868
:1000C000AD040008B3040008B10400085F0600088E
:1000D00061060008E3060008E7060008EB060008D2
:1000E000950200080F0500082B070008C706000846
:1000F000CD060008CB060008C906000873010008F9
:10010000A70400085D060008C10600086306000891
:10011000DB060008DF060008C3060008C506000865
:10012000970100089B0100089F010008A301000837
:10013000DFF80CD000F00AF8004800476707000815
:10014000100400200048004731010008064C074D0C
:1001500006E0E06840F0010394E807009847103497
:10016000AC42F6D3FFF7E8FF7C0700089C070008C5
:1001700070477047FEE77047704700F03FB800F0E7
:100180003DB800F03BB800F039B800F037B800F0E7
:1001900035B800F033B800F031B800F02FB800F0F7
:1001A0002DB800F02BB80000C10002D5024908604C
:1001B0007047024948607047040402400000024052
:1001C000002904D0016841F0010101607047016815
:1001D00021F001010160704702460020D10002D5E4
:1001E0000449096801E004490968114200D001206E
:1001F00070470000000402400000024010B500F00B
:10020000A0FA1020FFF7E8FF01281BD04FF480541C
:100210002046FFF7E1FF01281DD024032046FFF709
:10022000DBFF012821D0164C2046FFF7D5FF01281F
:1002300025D12046FFF7B8FFBDE810400021114846
:10024000FFF7BEBF1020FFF7AFFFBDE81040002151
:100250000D48FFF7B5BF2046FFF7A6FF0A4800216B
:10026000BDE810402830FFF7ABBF2046FFF79CFFEA
:1002700005480021BDE810406430FFF7A1BF10BD64
:1002800000000110580402401C00024070477047F3
:1002900000F0C0B800F0BEB800F0BCB800F0BAB8CA
:1002A00000F0B8B800F0B6B800F0B4B80149086082
:1002B000704700001404014010B5012000F09AF8C6
:1002C0004B4C20B1208840F00100208010BD02205E
:1002D00000F090F820B1208840F00200208010BD8E
:1002E000042000F087F820B1208840F0040020802E
:1002F00010BD082000F07EF820B1208840F00800F2
:10030000208010BD102000F075F820B1208840F04A
:100310001000208010BD202000F06CF820B1208853
:1003200040F02000208010BD402000F063F820B194
:10033000208840F04000208010BD802000F05AF856
:1003400020B1208840F08000208010BD4FF48070E4
:1003500000F050F820B1208840F48070208010BD5B
:100360004FF4007000F046F820B1208840F400708F
:10037000208010BD4FF4806000F03CF820B1208850
:1003800040F48060208010BD4FF4006000F032F82F
:1003900020B1208840F40060208010BD4FF48050D0
:1003A00000F028F820B1208840F48050208010BD53
:1003B0004FF4005000F01EF820B1208840F40050A7
:1003C000208010BD4FF4804000F014F820B1208848
:1003D00040F48040208010BD4FF4004000F00AF847
:1003E0000028F8D0208840F40040208010BD000094
:1003F0000000002001460020054A12680A40044B14
:1004000014331B680B4202D0002A00D00120704731
:100410000004014008B500200090FFF74DFF00F0F8
:1004200090F91F48BDF8001001800120FFF73EFF42
:100430000220FFF73BFF0420FFF738FF0820FFF7FB
:1004400035FF1020FFF732FF2020FFF72FFF40205D
:10045000FFF72CFF8020FFF729FF4FF48070FFF794
:1004600025FF4FF40070FFF721FF4FF48060FFF786
:100470001DFF4FF40060FFF719FF4FF48050FFF7A6
:1004800015FF4FF40050FFF711FF4FF48040FFF7C6
:100490000DFFBDE808404FF40040FFF707BF000024
:1004A0000000002070477047FEE7704770477047B4
:1004B00070477047AFF3008002494AF6AA200860EF
:1004C0007047000000300040810701D000207047D5
:1004D0006421B0FBF1F201FB120109B10120704768
:1004E0004FF4C871B0FBF1F201FB120008B100201B
:1004F00070470120704710B5FFF7DCFFBDE81040E2
:1005000000F0F6B8FEE770477047704770477047D5
:1005100002490A8882430A8070470000042800408C
:100520002DE9F04700F062F805462C4FB5FBF7F3D4
:100530002B482C4E018899422ED0038040F2B27491
:100540004FF4B7784FF4B6790CE02046FFF7BCFFC4
:1005500020B1434508D3A3F5B77301E0A3F26D13AF
:10056000641CA4B24B45F0D8B4800024DFF8788036
:100570000CE0B088FFF7A8FF08B1012C29D018F8CB
:100580000400984204D81B1A641CA4B21C2BF0D29D
:10059000641CB4715B1CF371B5FBF7F007FB1050E2
:1005A0004FF46161B0FBF1F23270B0FBF1F201FB8C
:1005B00012033C22B3FBF2F37370B0FBF1F301FBC7
:1005C0001300B0FBF2F102FB1100B0700020BDE897
:1005D000F0871D2BDCD31D3BD6E7000080510100C6
:1005E0000200002004000020700700080348008873
:1005F0000249091F098840EA014070471C28004051
:1006000006490988C2B21140044A121F12880242E8
:1006100002D009B101207047002070470428004033
:1006200010B50120FFF7ECFF08B1FFF779FF0220BA
:10063000FFF7E6FF10B10220FFF76AFF0520FFF782
:1006400067FFBDE8104000F001B8000002480188D3
:100650008906FCD5704700000428004070477047A9
:100660007047704770477047AFF3008000F069B87B
:10067000704770477047704710B500F02CF8BDE820
:1006800010400121014800F023B80000002C014077
:1006900010B500F020F80121BDE81040880700F0F7
:1006A00017B8000010B500F016F8BDE810400121A1
:1006B000014800F00DB800000004004000F00BB845
:1006C00070477047704770477047704700F003B835
:1006D000C9430182704700F034B800F032B800F02E
:1006E00030B800F02EB800F02CB800F02AB80000A6
:1006F00000B5084800F018F8074800F015F807485A
:1007000000F012F8064800F00FF806485DF804EB18
:1007100000F00AB8003801400044004000480040A2
:10072000004C0040005000407047704770477047D1
:10073000FEE710B5FFF7B9FEFFF795FFFFF7A6FD3F
:1007400010BDFFF7D8BE704702E008C8121F08C1ED
:10075000002AFAD170477047002001E001C1121F42
:10076000002AFBD17047FFF7E4FFFFF7C4FEFCE768
:100770001F1C1F1E1F1E1F1F1E1F1E1F9C07000861
:10078000000000200400000048070008A00700083F
:10079000040000200C0400005807000800000000BE
:0400000508000131BD
:00000001FF
